:100000000C9405020C940A210C94E3200C942D020C
:100010000C942D020C942D020C944C220C942D0265
:100020000C942D020C942D020C942D020C942D0294
:100030000C942D020C942D020C942D020C942D0284
:100040000C9499200C942D020C9467200C94412060
:100050000C942D020C942D020C942D020C942D0264
:100060000C9431210C942D02000102040810204050
:10007000801B36637C777BF26B6FC53001672BFE8C
:10008000D7AB76CA82C97DFA5947F0ADD4A2AF9CEE
:10009000A472C0B7FD9326363FF7CC34A5E5F171C5
:1000A000D8311504C723C31896059A071280E2EBCE
:1000B00027B27509832C1A1B6E5AA0523BD6B3295E
:1000C000E32F8453D100ED20FCB15B6ACBBE394AEB
:1000D0004C58CFD0EFAAFB434D338545F9027F50F2
:1000E0003C9FA851A3408F929D38F5BCB6DA2110F1
:1000F000FFF3D2CD0C13EC5F974417C4A77E3D6489
:100100005D197360814FDC222A908846EEB814DEB8
:100110005E0BDBE0323A0A4906245CC2D3AC629142
:1001200095E479E7C8376D8DD54EA96C56F4EA652C
:100130007AAE08BA78252E1CA6B4C6E8DD741F4B2B
:10014000BD8B8A703EB5664803F60E613557B98699
:10015000C11D9EE1F8981169D98E949B1E87E9CE46
:100160005528DF8CA1890DBFE6426841992D0FB05B
:1001700054BB1652096AD53036A538BF40A39E81BC
:10018000F3D7FB7CE339829B2FFF87348E4344C433
:10019000DEE9CB547B9432A6C2233DEE4C950B4254
:1001A000FAC34E082EA16628D924B2765BA2496D07
:1001B0008BD12572F8F66486689816D4A45CCC5D61
:1001C00065B6926C704850FDEDB9DA5E154657A7DA
:1001D0008D9D8490D8AB008CBCD30AF7E45805B849
:1001E000B34506D02C1E8FCA3F0F02C1AFBD03011D
:1001F000138A6B3A9111414F67DCEA97F2CFCEF048
:10020000B4E67396AC7422E7AD3585E2F937E81CA5
:1002100075DF6E47F11A711D29C5896FB7620EAA85
:1002200018BE1BFC563E4BC6D279209ADBC0FE7826
:10023000CD5AF41FDDA8338807C731B112105927F2
:1002400080EC5F60517FA919B54A0D2DE57A9F9327
:10025000C99CEFA0E03B4DAE2AF5B0C8EBBB3C8398
:10026000539961172B047EBA77D626E1691463553A
:10027000210C7D41DB0100000000000000000000B7
:10028000000000000000000000000000000000006E
:10029000000000000000000100000000000000005D
:1002A000000000000000000000000000000000004E
:1002B00000000000000000E0EB7A7C3B41B8AE1685
:1002C00056E3FAF19FC46ADA098DEB9C32B1FD86E0
:1002D0006205165F49B8005F9C95BCA3508C24B1A1
:1002E000D0B1559C83EF5B04445CC4581C8E86D807
:1002F000224EDDD09F1157ECFFFFFFFFFFFFFFFFF6
:10030000FFFFFFFFFFFFFFFFFFFFFFFFFFFFFFFFFD
:10031000FFFFFFFFFFFF7F00000000250028002BEC
:1003200000555549442073656E7365757220000051
:10033000000000240027002A0053657475702074A3
:1003400065726D696E652061707265732000005E74
:10035000BCE2613FDD83C29C7E20A3FD1F41009D66
:1003600023BE46DB65F88C11AF32CA57E974000032
:100370000008000201000003040700000000000064
:1003800000000001020304051112131415160A0BD4
:100390000C0D0E0FB02AAE7DEECBBBB1FC036FDDB2
:1003A000DC7D76670CE81F0DA3A0AA1EB0BD726BA2
:1003B0002B4C8A7E34FC3760F41E22A00BFB188481
:1003C00060A57772657870616E642033322D627932
:1003D0007465206B0000000023002600290004043F
:1003E00004040404040402020202020203030303DD
:1003F00003030102040810204080010204081020B9
:10040000010204081020E522C92211241FBECFEFEB
:10041000D8E0DEBFCDBF11E0A0E0B1E0EEEDF3E645
:1004200002C005900D92A63DB107D9F724E0A6EDD4
:10043000B1E001C01D92A137B207E1F712E0C4E0BC
:10044000D2E004C02197FE010E94A230C330D10740
:10045000C9F70E94F1230C94E2310C9400002F9212
:100460003F924F925F926F927F928F929F92AF9244
:10047000BF92CF92DF92EF92FF920F931F93CF9391
:10048000DF93CDB7DEB7C554D1090FB6F894DEBF00
:100490000FBECDBFFC017AAB69AB9CAB8BABCB0184
:1004A000805C9F4F9F018B01D8014D915D916D91B3
:1004B0007D918D01D9014D935D936D937D939D0148
:1004C0008017910789F74089518962897389408033
:1004D0005180628073804D8A5E8A6F8A788E40A8D0
:1004E00051A862A873A8C0A0D1A0E2A0F3A08488FC
:1004F0009588A688B78889829A82AB82BC8204815B
:10050000158126813781098F1A8F2B8F3C8F84A903
:1005100095A9A6A9B7A98D8F9E8FAF8FB8A384A0E8
:1005200095A0A6A0B7A021968CAE9DAEAEAEBFAEF4
:100530002197008D118D228D338D0D831E832F8386
:10054000388780859185A285B38589A79AA7ABA7AF
:10055000BCA780AC91ACA2ACB3AC898A9A8AAB8AB6
:10056000BC8A00A511A522A533A50DA31EA32FA308
:1005700038A7848D958DA68DB78D84849584A684A7
:10058000B78489869A86AB86BC8604AD15AD26AD48
:1005900037AD09A31AA32BA33CA384A495A4A6A4B6
:1005A000B7A48DA69EA6AFA6B8AA1AE0212E8D8864
:1005B0009E88AF88B88C840E951EA61EB71E482450
:1005C00059246A247B24820123013801C40CD51CE0
:1005D000E61CF71C4C255D256E257F258A019B01B5
:1005E0000F2EFCE0000F111F221F331FFA95D1F7C9
:1005F000F02D032E34E176956795579547953A95FA
:10060000D1F7302D402B512B622B732B9501840198
:10061000040F151F261F371F0D8B1E8B2F8B388F36
:100620004026512662267326942CA52CB62C872CA6
:100630008DAA9EAAAFAAB8AE8C0C9D1CAE1CBF1C86
:1006400089AE9AAEABAEBCAE482559256A257B254E
:100650006A017B0127E0CC0CDD1CEE1CFF1C2A95F7
:10066000D1F72A013B0139E1769467945794479476
:100670003A95D1F74C285D286E287F284D865E86F6
:100680006F86788A89809A80AB80BC80C98CDA8C2E
:10069000EB8CFC8C8C0C9D1CAE1CBF1CCD8CDE8CA2
:1006A000EF8CF8A0C824D924EA24FB248601670132
:1006B000780121960CAD1DAD2EAD3FAD21970C0DEF
:1006C0001D1D2E1D3F1D49815A816B817C81402754
:1006D0005127622773272A013B01032E3CE0440C7B
:1006E000551C661C771C3A95D1F7302D032E34E14A
:1006F00076956795579547953A95D1F7302D4429CA
:1007000055296629772924013501440E551E661E98
:10071000771E498E5A8E6B8E7C8EC424D524E62497
:10072000F7247C2C8D2C9E2C6F2C6D8E7E8E8F8EC4
:1007300098A2600E711E821E931E21966CAE7DAE35
:100740008EAE9FAE219746255725682579258A01CB
:100750009B01689416F8000F111F221F331F169477
:10076000D1F76A017B0149E1F694E794D794C794E5
:100770004A95D1F7C02AD12AE22AF32AC982DA821D
:10078000EB82FC82C9A4DAA4EBA4FCA40D811E8137
:100790002F813885C00ED11EE21EF31E09891A89E9
:1007A0002B893C890C251D252E253F25A801890173
:1007B0009A018DA09EA0AFA0B8A4800E911EA21E8B
:1007C000B31E4D815E816F817885482559256A2544
:1007D0007B252A013B01032E3CE0440C551C661C82
:1007E000771C3A95D1F7302D032E34E17695679535
:1007F000579547953A95D1F7302D442955296629C3
:10080000772926013701440E551E661E771E498A38
:100810005A8A6B8A7C8A0425152526253725D02EF1
:10082000E12EF22EC32E2596CCAEDDAEEEAEFFAE9F
:1008300025978C0C9D1CAE1CBF1C482559256A258C
:100840007B258A019B01689416F8000F111F221F57
:10085000331F1694D1F72A013B0149E1769467943E
:10086000579447944A95D1F7402A512A622A732A0D
:100870004D825E826F82788649845A846B847C8440
:10088000480E591E6A1E7B1E09A11AA12BA13CA16C
:100890000425152526253725680189019601CDA453
:1008A000DEA4EFA4F8A8C00ED11EE21EF31E8C2514
:1008B0009D25AE25BF25AC01BD01032E3CE0440FB4
:1008C000551F661F771F3A95D1F7302D072E74E11B
:1008D000B695A795979587957A95D1F7702D842B26
:1008E000952BA62BB72BB301A201480F591F6A1FE6
:1008F0007B1F49875A876B877C8704271527262704
:100900003727502F032F322F212F152F2601370184
:10091000400E511E621E731E49A65AA66BA67CA6E7
:1009200084259525A625B7252C013D0147E0440CDB
:10093000551C661C771C4A95D1F759E1B695A795C9
:10094000979587955A95D1F784299529A629B7298E
:100950004D885E886F88788CC980DA80EB80FC8057
:100960004C0C5D1C6E1C7F1C042515252625372587
:10097000780189019701800E911EA21EB31E498144
:100980005A816B817C81482559256A257B256A011E
:100990007B010B2EBCE0CC0CDD1CEE1CFF1CBA95C1
:1009A000D1F7B02D032E34E176956795579547958D
:1009B0003A95D1F7302D4C295D296E297F29730195
:1009C0006201C40ED51EE61EF71ECD8ADE8AEF8AAE
:1009D000F88E0C251D252E253F25502E612E722EBA
:1009E000432E49A25AA26BA27CA2480C591C6A1C35
:1009F0007B1C4DA25EA26FA278A693018201042700
:100A0000152726273727B901A801689416F8440F3F
:100A1000551F661F771F1694D1F72801390129E168
:100A200076946794579447942A95D1F7442A552A87
:100A3000662A772A49825A826B827C82898C9A8CB8
:100A4000AB8CBC8CCD80DE80EF80F8848C0C9D1C40
:100A5000AE1CBF1C4DA85EA86FA878AC48245924D2
:100A60006A247B24720123013701C9A4DAA4EBA410
:100A7000FCA4C40CD51CE61CF71C4D815E816F8163
:100A800078854C255D256E257F258A019B010F2EDB
:100A9000FCE0000F111F221F331FFA95D1F7F02D34
:100AA000032E34E176956795579547953A95D1F79A
:100AB000302D402B512B622B732B95018401040F99
:100AC000151F261F371F098F1A8F2B8F3C8F40262B
:100AD000512662267326142D472C762C652C512E18
:100AE00046015701840C951CA61CB71C8DA69EA61A
:100AF000AFA6B8AA482559256A257B258A019B01FE
:100B0000689416F8000F111F221F331F1694D1F797
:100B10005A016B0149E1D694C794B794A7944A95BA
:100B2000D1F7A02AB12AC22AD32AAD82BE82CF82AF
:100B3000D88689889A88AB88BC88880E991EAA1E98
:100B4000BB1E0D8D1E8D2F8D38A1082519252A2538
:100B50003B25680189019601C9ACDAACEBACFCAC71
:100B6000C00ED11EE21EF31E8C259D25AE25BF258D
:100B7000AC01BD01032E3CE0440F551F661F771FDB
:100B80003A95D1F7302D072E74E1B695A795979534
:100B900087957A95D1F7702D842B952BA62BB72BA3
:100BA000B501A401480F591F6A1F7B1F49A75AA707
:100BB0006BA77CA70427152726273727902EA12E61
:100BC000B22E832E8D8E9E8EAF8EB8A2C80CD91CED
:100BD000EA1CFB1C8C259D25AE25BF258C019D01A3
:100BE00047E0000F111F221F331F4A95D1F759E12B
:100BF000B695A795979587955A95D1F7802B912B08
:100C0000A22BB32B8D849E84AF84B88809851A8566
:100C10002B853C85800E911EA21EB31E89869A8666
:100C2000AB86BC8625968CAC9DACAEACBFAC259794
:100C300029853A854B855C8582269326A426B52690
:100C4000A40145015A0121960CAD1DAD2EAD3FAD5D
:100C50002197080D191D2A1D3B1D0DAB1EAB2FAB97
:100C600038AF4D855E856F8578894027512762278B
:100C700073278A019B010F2EFCE0000F111F221F1A
:100C8000331FFA95D1F7F02D032E34E17695679551
:100C9000579547953A95D1F7302D402B512B622B24
:100CA000732B09851A852B853C85040F151F261F7C
:100CB000371F09871A872B873C8780269126A22613
:100CC000B326182D292D3A2D0B2D098B1A8B2B8B22
:100CD0003C8B8DA89EA8AFA8B8AC800E911EA21E1A
:100CE000B31E21968CAE9DAEAEAEBFAE2197482509
:100CF00059256A257B254A015B0127E0880C991C50
:100D0000AA1CBB1C2A95D1F739E1769567955795B2
:100D100047953A95D1F7482959296A297B292A9478
:100D2000211045CC408B518B628B738B0D891E89B2
:100D30002F89388D008311832283338340AA51AADF
:100D400062AA73AAC0A2D1A2E2A2F3A229813A8127
:100D50004B815C81248B358B468B578B498D5A8D0B
:100D60006B8D7C8D44835583668377834D8C5E8C3D
:100D70006F8C78A044AA55AA66AA77AA21966CAC73
:100D80007DAC8EAC9FAC219764A275A286A297A27F
:100D90008D809E80AF80B884808E918EA28EB38E1F
:100DA000A9A4BAA4CBA4DCA4A086B186C286D386AB
:100DB000C988DA88EB88FC88C0AED1AEE2AEF3AE6B
:100DC000EDA0FEA00FA118A5E0A6F1A602A713A70B
:100DD000848F958FA68FB78F09851A852B853C85C3
:100DE000048715872687378729A13AA14BA15CA1E3
:100DF00024AF35AF46AF57AF4DA55EA56FA578A917
:100E000044A755A766A777A7E05CFF4FABA9BCA98D
:100E10004D915D916D917D91BCABABABA9A9BAA988
:100E20000D911D912D913D91BAABA9ABABA9BCA978
:100E30001497400F511F621F731F4D935D936D9365
:100E40007C9313974BA85CA8E415F505F9F6CB5BEA
:100E5000DF4F0FB6F894DEBF0FBECDBFDF91CF914D
:100E60001F910F91FF90EF90DF90CF90BF90AF90C8
:100E70009F908F907F906F905F904F903F902F90BA
:100E800008958330910528F0880F991F04970197E2
:100E9000F1F7089580917003E0917103F09172036E
:100EA000F8949181982B91832281382F30952323B8
:100EB0002283A2E0B0E01197F1F79181932391830F
:100EC000A0E1B0E01197F1F790817894E6E6F0E0C8
:100ED0003197F1F7982381E009F480E0089590912B
:100EE0007003E0917103F0917203292F209580FF28
:100EF00014C0F8948281822382838181892B81832B
:100F0000A0E1B0E01197F1F78281982B9283789459
:100F10008AE690E00197F1F70895F89482818223A0
:100F200082838181892B8183AEE7B0E01197F1F74D
:100F30008281982B9283789486E090E0EBCF0F9398
:100F40001F93CF93DF93082FC8E0D0E011E081E03A
:100F5000902F912309F480E00E946F07110F2197D1
:100F6000B1F7F894E0917103F0917203918180914F
:100F70007003809589238183E0917103F09172035E
:100F80009281809170038095892382837894DF9188
:100F9000CF911F910F9108950F931F93CF93DF93DC
:100FA0008C0185E50E949F07E801085F1F4F89912A
:100FB0000E949F07C017D107D1F7DF91CF911F91F2
:100FC0000F91089594B7977F94BF909160009861B6
:100FD0009093600091E29093600090916000906423
:100FE0009093600014BEA89593B7917F946093BFCF
:100FF000F89490E695BF90E495BF789490E08917B7
:1010000049F023B7216023BF889523B72E7F23BFE4
:101010009F5FF5CF83B78E7F83BF84B7877F84BF01
:1010200080916000886180936000109260008091E0
:101030006000806480936000809164008071809380
:101040006400089581E080935102089541960895C7
:101050004D960895FC0183850895FC016581768194
:10106000878190850895FC01828508950895AF9247
:10107000BF92CF92DF92EF92FF920F931F93CF9385
:10108000DF936C017B018B01040F151FEB015E01E7
:10109000AE18BF08C017D10759F06991D601ED917C
:1010A000FC910190F081E02DC6010995892B79F71B
:1010B000C501DF91CF911F910F91FF90EF90DF90CD
:1010C000CF90BF90AF900895FC01538D448D252F94
:1010D00030E0842F90E0821B930B541710F0CF96D2
:1010E000089501970895FC01918D828D981761F004
:1010F000A28DAE0FBF2FB11D5D968C91928D9F5F1B
:101100009F73928F90E008958FEF9FEF0895FC01F9
:10111000918D828D981731F0828DE80FF11D858DAC
:1011200090E008958FEF9FEF0895FC01918D228D3F
:10113000892F90E0805C9F4F821B91098F739927C4
:10114000089588E592E00E94950821E0892B09F432
:1011500020E0822F089580E090E0892B29F00E9402
:10116000A10881110C9400000895FC01A48DA80F22
:10117000B92FB11DA35ABF4F2C91848D90E00196D9
:101180008F739927848FA689B7892C93A089B189F9
:101190008C91837080648C93938D848D981306C09A
:1011A0000288F389E02D80818F7D80830895EF92FE
:1011B000FF920F931F93CF93DF93EC0181E0888F11
:1011C0009B8D8C8D98131AC0E889F989808185FFE1
:1011D00015C09FB7F894EE89FF896083E889F98983
:1011E00080818370806480839FBF81E090E0DF9185
:1011F000CF911F910F91FF90EF900895F62E0B8DD8
:1012000010E00F5F1F4F0F731127E02E8C8D8E1192
:101210000CC00FB607FCFACFE889F989808185FFF9
:10122000F5CFCE010E94B508F1CFEB8DEC0FFD2F6D
:10123000F11DE35AFF4FF0829FB7F8940B8FEA89B4
:10124000FB8980818062CFCF0F931F93CF93DF9371
:101250008C01D0E0C0E0F801EC0FFD1F6491662323
:1012600041F088E592E00E94D708892B11F0219681
:10127000F2CFCE01DF91CF911F910F910895CF93BF
:10128000DF93EC01888D8823B9F0AA89BB89E889AE
:10129000F9898C9185FD03C0808186FD0DC00FB654
:1012A00007FCF7CF8C9185FFF2CF808185FFEDCFD2
:1012B000CE010E94B508E9CFDF91CF91089590E06B
:1012C000FC01E259FC4F2491FC01EE50FC4F34919B
:1012D000FC01E252FC4FE491EE23C9F0222339F0E5
:1012E000233001F1A8F4213019F1223029F1F0E086
:1012F000EE0FFF1FE95EFC4FA591B4918FB7F894F4
:10130000EC91611126C030953E233C938FBF089528
:101310002730A9F02830C9F0243049F780918000A7
:101320008F7D03C0809180008F7780938000DFCF16
:1013300084B58F7784BDDBCF84B58F7DFBCF809163
:10134000B0008F778093B000D2CF8091B0008F7DB6
:10135000F9CF3E2BDACFCF93DF9390E0FC01EE5034
:10136000FC4F249182529C4FFC0184918823D1F040
:1013700090E0880F991FFC01E15DFC4FA591B491AD
:10138000FC01E95EFC4FC591D49161110EC09FB77D
:10139000F8948C91E22FE0958E238C932881E223A0
:1013A000E8839FBFDF91CF9108958FB7F894EC91B8
:1013B000E22BEC938FBFF6CF8E3008F08E50877003
:1013C000806480937C0080917A00806480937A00AE
:1013D00080917A0086FDFCCF809178009091790011
:1013E00008953FB7F8948091460290914702A091EA
:1013F0004802B091490226B5A89B05C02F3F19F0BD
:101400000196A11DB11D3FBFBA2FA92F982F882784
:10141000BC01CD01620F711D811D911D43E0660F5E
:10142000771F881F991F4A95D1F708958F929F9231
:10143000AF92BF92CF92DF92EF92FF926B017C014D
:101440000E94F1094B015C01C114D104E104F104D3
:10145000B9F00E94F109681979098A099B09683E67
:1014600073408105910580F321E0C21AD108E1089B
:10147000F10888EE880E83E0981EA11CB11CE4CF11
:10148000FF90EF90DF90CF90BF90AF909F908F90A4
:1014900008958F929F92AF92BF92DF92EF92FF9248
:1014A0000F931F93CF93DF93C82F162F90E0FC016B
:1014B000EE50FC4FD491FC01E252FC4FE491F0E07D
:1014C000EE0FFF1FEC52FC4FE590F49010929D033D
:1014D00010929E0310929F031092A0031092A103FA
:1014E00061E08C2F0E94AB0960E08C2F0E945F09A5
:1014F000612F70E090E080E00E94160A61E08C2F7E
:101500000E945F098CE490E00197F1F760E08C2F76
:101510000E94AB0988EC90E0F70120812D2381F433
:101520000197D1F78EEF9FEFDF91CF911F910F9130
:10153000FF90EF90DF90BF90AF909F908F900895B5
:1015400088EC90E0F70120812D2319F00197D1F765
:10155000E9CF08E210E8D12C88EC90E0F701208177
:101560002D2319F40197D1F7DDCF0E94F1094B012A
:101570005C0188EC90E0F70120812D2319F00197A0
:10158000D1F7D0CF0E94F109681979098A099B091E
:10159000693271058105910538F0ED2DF0E0ED56C9
:1015A000FC4F8285812B8287169511F4D39410E825
:1015B000015091F661E08C2F0E94AB0961E08C2F05
:1015C0000E945F0990E080E0AFCF2FB7F894609160
:1015D00042027091430280914402909145022FBFD4
:1015E0000895089585ED8093BC008091BC0084FD32
:1015F000FCCF10921B0208952091F701260F33278C
:10160000331F21323105ECF420911B02FC0190E0E4
:1016100080E0243069F082E00895A091F7012191E3
:10162000AC0149525E4FA40FB52FB11D2C9301960A
:10163000861798F38091F701680F6093F70180E0B7
:10164000089581E008958FEF9FEF08958FEF9FEF4A
:1016500008958091D60190E0919581959109089522
:10166000CF93DF93CB01EA01642F0E94FC0ACE01E5
:10167000DF91CF910895CF93DF931F92CDB7DEB75F
:10168000698361E0CE0101960E94FC0A81E090E04E
:101690000F90DF91CF91089590E080E0089521E0D0
:1016A000FC018085811101C020E0822F0895BF9246
:1016B000CF92DF92EF92FF920F931F93CF93DF931E
:1016C000EC016B018A01790180E1B82EE114F1048B
:1016D00081F18A89803161F488819981DC01ED9101
:1016E000FC910284F385E02DA601B60109951A8AC2
:1016F0008A89BB2DB81B8B2FBE151F0411F008F073
:101700008E2D302FD8019A2F931B981760F4EA89F9
:1017100091E09E0F9A8BEC0DFD2DF11D2D91908186
:1017200092279083F0CF90E0E81AF90A080F191F6A
:10173000CDCFDF91CF911F910F91FF90EF90DF9070
:10174000CF90BF9008950F931F93FC0107851685D6
:1017500025853485000F111F221F331F168725870B
:1017600034871385228531854085111F221F331F41
:10177000441F13872287318740871781268135814F
:101780004481111F221F331F441F17832683358373
:1017900044831381228131814081111F221F331F15
:1017A000441F1383228331834083112D110917783D
:1017B000012707871F910F9108952F923F924F9213
:1017C0005F926F927F928F929F92AF92BF92CF92D1
:1017D000DF92EF92FF920F931F93CF93DF93EC0171
:1017E0005B018A0179016C0182E4C80ED11C1E01E3
:1017F00094E4290E311C2E01A2E04A0E511C3E0138
:10180000B2E16B0E711C4E01E0E18E1A9108E114F9
:10181000F10409F448C0D6018C918031D9F4F1016A
:1018200080819181DC01ED91FC910284F385E02DB2
:10183000A201B3010995F6011082FE0181E090E05A
:101840002189820F911D818B892F99273197E81566
:10185000F905B1F7D6018C91B0E1B81B8B2FBE15FD
:101860001F0411F008F08E2D502F9501F8019E2FC6
:10187000951B981780F44191D6016C9191E0960FD9
:101880009C93DE01A60FB11D52969C919427D9011D
:101890009D939D01ECCF90E0E81AF90A080F191FFB
:1018A000A80EB91EB4CFDF91CF911F910F91FF9079
:1018B000EF90DF90CF90BF90AF909F908F907F90F0
:1018C0006F905F904F903F902F900895FB019A0189
:1018D000DC01AD5BBF4F4C91442341F0BC016E5C19
:1018E0007F4FAF018C5B9F4F0C94570B08958C5B1F
:1018F0009F4FDC018D919C91DC01ED91FC91008466
:10190000F185E02D099480E190E008958C5B9F4F74
:10191000DC018D919C91DC01ED91FC910680F781B9
:10192000E02D09940F931F93CF93DF9300E010E015
:1019300021E030E0081B190B210931098901015010
:101940001109FB01DA01AB01405E5F4F219131913A
:101950008D919C9111978227932780239123BF011A
:101960006250710928273927EB01398328832D918B
:101970003C911197822793278D939D93E417F50748
:1019800029F7DF91CF911F910F9108956F927F9268
:101990008F929F92AF92BF92CF92DF92EF92FF927F
:1019A0000F931F93CF93DF93FC013B01CA01EF011B
:1019B000AB01405E5F4F9F01C12CD12C7601D3015A
:1019C0000D911D913D01DC016D917D91CD0167016E
:1019D000EE24FF2446015701B1E08B229924AA246A
:1019E000BB246801F12CE12CC61AD70AE108F108E2
:1019F000C818D908EA08FB08D901CD92DD929D01EB
:101A000046155705E1F66701EE24FF24B3E1CB222A
:101A1000DD24EE24FF2480819181B0E0A0E08C19C8
:101A20009D09AE09BF09918380839F01225E3F4FCC
:101A3000CD01AA27BB2781709927AA27BB274A81F6
:101A40005B8170E060E07A018B01E81AF90A0A0B09
:101A50001B0BD801C701A701FB82EA8222962C1733
:101A60003D0731F75F77578F468FDF91CF911F91F9
:101A70000F91FF90EF90DF90CF90BF90AF909F902D
:101A80008F907F906F9008958F929F92AF92BF92A8
:101A9000CF92DF92EF92FF920F931F93CF93DF933A
:101AA000CDB7DEB7A0970FB6F894DEBF0FBECDBF9F
:101AB000FC019C01AE014F5F5F4FBC01605E7F4F38
:101AC0008A01A3E18A2E912CA12CB12CD901ED9091
:101AD000FD909D01D501C4018E0D9F1DA11DB11D5D
:101AE0006C017D01D801CD92DD928D014701AA24C0
:101AF000BB242617370751F72F8D38A17901FF0C2A
:101B0000EE08FE2CC701809590953F7738A32F8F64
:101B100000811181DA012D913D91AD0120273127FE
:101B20002E213F2120273127219331936E177F07E4
:101B300079F7A0960FB6F894DEBF0FBECDBFDF9148
:101B4000CF911F910F91FF90EF90DF90CF90BF90BA
:101B5000AF909F908F9008958F929F92AF92BF9277
:101B6000EF92FF92CF93DF93FB01EA01DC019B012F
:101B7000205E3F4F40E050E0BA01E190F190899043
:101B80009990B12CA12C8E0C9F1CA11CB11C480D4E
:101B9000591D6A1D7B1D4D935D93AB016627772709
:101BA000E217F30751F7DF91CF91FF90EF90BF90CD
:101BB000AF909F908F900C94440D2F923F924F9234
:101BC0005F926F927F928F929F92AF92BF92CF92CD
:101BD000DF92EF92FF920F931F93CF93DF934C010D
:101BE000FB01C68DD78D2D2F221F2227221F30E00B
:101BF000A3E1B0E00E94C22E6B017C01DF77D78F9A
:101C0000C68F1F018F0150E058010E5F1F4FD50195
:101C100090962D913C91A6E2B0E00E94C22EE50183
:101C2000288139812B013C01420E531E611C711C1D
:101C3000C40CD51CE61CF71CD8011297CD92DC927F
:101C40006701EE24FF245F5F4513DECF5031C1F002
:101C5000A52FB0E0AA0FBB1FED01CE0FDF1F8991AA
:101C60009991C80ED91EE11CF11CCE010297DC012E
:101C7000CD92DC926701EE24FF245F5F503179F74B
:101C8000A6E2B0E0A70196010E948D2E6B017C01B7
:101C9000468D578D252F221F2227221F30E0A3E1DA
:101CA000B0E00E94C22E6C0D7D1D8E1D9F1D5F77C2
:101CB000578F468F9F01205E3F4FDF014D915D9111
:101CC000640F751F811D911DAD0142505109EA013C
:101CD00079836883BC01882799272A173B0771F706
:101CE0009F0143E150E060E070E0E9018991999142
:101CF0009E01480F591F611D711D5F8F4E8FAB01F3
:101D000066277727A217B30781F786AD97ADAC0199
:101D1000550F440B542F9F7797AF86AFF401D10135
:101D20006D917D911D015E968D919C915F978627A7
:101D300097278423952386279727819391932A17A2
:101D40003B0769F7DF91CF911F910F91FF90EF90C3
:101D5000DF90CF90BF90AF909F908F907F906F90CB
:101D60005F904F903F902F9008952F923F924F9207
:101D70005F926F927F928F929F92AF92BF92CF921B
:101D8000DF92EF92FF920F931F93CF93DF93CDB724
:101D9000DEB7C454D1090FB6F894DEBF0FBECDBF75
:101DA0006C011B01DB01AD90BC90FE0131964A0134
:101DB000B0E28B0E911C7A01412C512C32012296FB
:101DC000EFAF22972396FFAF2397D7012D913D9137
:101DD0007D01D5010E94C22E460E571E681E791E37
:101DE000419251922301662477248E149F0469F74F
:101DF0005AA249A27101B2E0EB0EF11CFE01B396AA
:101E000080E2280E311CD7014D905D907D018F013D
:101E1000005211093A01812C912C5401D3012D91CA
:101E20003D913D01D2010E94C22ED8012D913D91DC
:101E30002596BFAFAEAF2597620F731F811D911D11
:101E4000860E971EA81EB91ED8018D929C92450140
:101E5000AA24BB2425960EAD1FAD25970E171F078C
:101E6000E9F6F801819291922E143F0461F640E167
:101E700022966FAD229723967FAD2397C6010E94CD
:101E8000DD0DCC5BDF4F0FB6F894DEBF0FBECDBFCC
:101E9000DF91CF911F910F91FF90EF90DF90CF9046
:101EA000BF90AF909F908F907F906F905F904F907A
:101EB0003F902F9008951F93CF93DF93DC015F969F
:101EC0001C915F9730E020E080E060E071E0F90174
:101ED000EA56FD4F949191279F77F901EB56FD4FFC
:101EE000ED016F9644915A914527942B3197AC1789
:101EF000BD07C1F7AB01491B5109852B205E3F4F40
:101F0000203A310521F7DF91CF911F910895AB0160
:101F10000C94B50E680F791FFC01108201966817AA
:101F20007907D1F70895CF93DF93EC0160E270E079
:101F300009960E948A0F1D821E821F828FEF93E0F6
:101F40009AA789A71CA61BA61EA61DA618AA1FA68F
:101F5000DF91CF910895CF93DF93EC018C810E94A4
:101F6000DC0929A53AA58217930714F49AA789A733
:101F70002BA53CA52817390714F49CA78BA74A81E9
:101F80005B819A01281B390B2227330F221F33272D
:101F90006DA57EA560FF37C09D81921791F08E815F
:101FA000803278F4FE01E80FF11D9185990F922B94
:101FB00091879F819F5F9F83983018F08F5F8E83FA
:101FC0001F828FA598A9820F931F98AB8FA76F5F71
:101FD0007F4F7EA76DA76115744094F02BA53CA59B
:101FE00069A57AA5261B370B2038310574F4CE017C
:101FF0000E94930F81E0888780E092E09B838A8330
:10200000DF91CF9108952D83DCCF9C012C5C314072
:1020100028363105C0F44E81483180F050E09A01F5
:10202000220F331F220F331FE881F9810284F385C9
:10203000E02DBE01675F7F4FCE010995CE010E9462
:10204000930F1886DDCF9C013A9521303240E8F09D
:1020500020E032E0B901681B790BCB0177FD0796D0
:1020600023E0959587952A95E1F7481B590B5B83EB
:102070004A838A819B8197FF11C01B821A82CE01FD
:102080000E94930F81E08887BBCF811592401CF49A
:1020900041505109ECCF4F5F5F4FE9CF811594401C
:1020A00074F38FEF93E09B838A83E9CF24E931E0D7
:1020B000FC01318320830C94930FEF92FF920F93D6
:1020C0001F93CF93DF93CDB7DEB760970FB6F89429
:1020D000DEBF0FBECDBF7C018B01DC0152968C911F
:1020E000803109F449C080E1F7013296DE01119692
:1020F00001900D928A95E1F7CE0101960E94A30B03
:10210000D7015296EC91E00FF12FF11D808180589C
:102110008083F801BE016F5F7F4F9801205F3F4FC2
:102120008191DB019D91BD01AF014150510989278A
:10213000DA018C932E173F0799F760E170E0CE012A
:1021400001960E948A0FD7018D919C91DC01ED913F
:10215000FC910284F385E02DA801B80109956096F1
:102160000FB6F894DEBF0FBECDBFDF91CF911F91A8
:102170000F91FF90EF900895DB01B7016E5F7F4FE5
:1021800097012E5E3F4F8D91FB019191BF01AD01F3
:10219000415051098927FA0180836217730799F723
:1021A000D2CF62E470E002960C948A0FCF93DF9353
:1021B000EC012EE131E0FC0121933193CF0162E487
:1021C00070E00E948A0F60E170E0CE018A5B9F4F51
:1021D000DF91CF910C948A0F60E270E00C948A0F2B
:1021E000FC01628170E06F5F7F4F84E0660F771FB4
:1021F0008A95E1F7838194810C948A0F4F925F92C4
:102200006F927F928F929F92AF92BF92CF92DF9206
:10221000EF92FF920F931F93CF93DF93EC01FB019B
:102220003081818192812381A32FB0E0AD01440FE1
:10223000551F7BE1672E659E702C11247426482E55
:10224000512CA201440F551F659EB02C1124B426B9
:10225000692F70E07B01EE0CFF1C6F9C902C112409
:102260009E24422F50E08A01000F111F619E602CB6
:10227000112460267D01EE0CFF1CEE0CFF1C620198
:10228000CC0CDD1CCC0CDD1C0D2D11270E5E1E4F61
:10229000F80180808C246B01CC0CDD1CCC0CDD1C87
:1022A0000D2D11270E5E1E4FF801A080AC246A018F
:1022B000CC0CDD1CCC0CDD1C0D2D11270E5E1E4F31
:1022C000F801D080DC24E3E0AA0FBB1FEA95E1F718
:1022D0000B2F11270E5E1E4FF80110811A27F201F5
:1022E000A3E0EE0FFF1FAA95E1F7AF2FBB27AE5E6D
:1022F000BE4FAC91EA2703E0660F771F0A95E1F71E
:10230000A72FBB27AE5EBE4F0C916027A3E0440F02
:10231000551FAA95E1F7A52FBB27AE5EBE4F0C91C6
:102320004027AF2DBB27AE5EBE4F5C91E526E12670
:10233000582F592752275A255E27562754275725A5
:102340005B255E255883532F5927522758255D2535
:1023500051275E2756275427B526B924B982C32EA4
:10236000C8262C25A226AE26A626A4269A24962484
:102370009E249A82C926C824CD24AC2DA127EA2701
:102380000E2F06270427072506250B83DF91CF9103
:102390001F910F91FF90EF90DF90CF90BF90AF9083
:1023A0009F908F907F906F905F904F900895CF9304
:1023B000DF93FC01EB015881B9819A812B81652F54
:1023C00070E0660F771F3BE1379F802D112468274F
:1023D000CB2FD0E0CC0FDD1F3D9F402D1124AC2F23
:1023E000A427C92FD0E0CC0FDD1F3D9F702D1124F5
:1023F0007C27C22FD0E0CC0FDD1F3D9F302D112454
:102400003C278B2F8927822786278A278083452F81
:10241000492742274A27472741835B272527272724
:10242000232722839527962793279383DF91CF91A4
:102430000895CF93DF93DC01EB01E881F0E0ED58E4
:10244000FE4FE491EC93ED85F0E0ED58FE4FE49102
:102450001196EC931197EA85F0E0ED58FE4FE49168
:102460001296EC931297EF81F0E0ED58FE4FE49155
:102470001396EC931397EC81F0E0ED58FE4FE49146
:102480001496EC931497E981F0E0ED58FE4FE49137
:102490001596EC931597EE85F0E0ED58FE4FE4911C
:1024A0001696EC931697EB85F0E0ED58FE4FE4910D
:1024B0001796EC931797E885F0E0ED58FE4FE491FE
:1024C0001896EC931897ED81F0E0ED58FE4FE491EB
:1024D0001996EC931997EA81F0E0ED58FE4FE491DC
:1024E0001A96EC931A97EF85F0E0ED58FE4FE491C1
:1024F0001B96EC931B97EC85F0E0ED58FE4FE491B2
:102500001C96EC931C97E985F0E0ED58FE4FE491A2
:102510001D96EC931D97EE81F0E0ED58FE4FE4918F
:102520001E96EC931E97EB81F0E0ED58FE4FE49180
:102530001F96EC93DF91CF9108959F92AF92BF9237
:10254000CF92DF92EF92FF920F931F93CF93DF937F
:10255000CDB7DEB7A0970FB6F894DEBF0FBECDBFE4
:102560008C016B01DC011296EC90B0E1EB9EC00196
:102570001124F801E380F480E80EF91EFA019701B6
:10258000BE016F5F7F4F405F5F4F962EA72E8191F8
:10259000D9019D919D018927DB018D93BD01E41730
:1025A000F507A9F7692D7A2DCE0141960E941912DF
:1025B000F801B280870100511109F1E0FB15A8F57F
:1025C000DE015196A8018D91FA019191AF019D0113
:1025D000215031098927F90180834E155F0599F74C
:1025E000BE016F5E7F4F892D9A2D0E94FE10BE01A5
:1025F0006B5E7F4FCE0105960E94FE10BE01675EA6
:102600007F4FCE0109960E94FE10BE01635E7F4F90
:10261000CE010D960E94FE10692D7A2DCE014196B5
:102620000E941912BA947801C5CFAE014F5E5F4F78
:10263000D801C601FA012191AF013D912327FC0188
:102640002193CF01EA16FB06A9F7A0960FB6F894DE
:10265000DEBF0FBECDBFDF91CF911F910F91FF90D5
:10266000EF90DF90CF90BF90AF909F900895CF9361
:10267000DF93DC01EB01E881F0E0ED58FF4FE491DE
:10268000EC93ED81F0E0ED58FF4FE4911196EC935F
:102690001197EA85F0E0ED58FF4FE4911296EC9324
:1026A0001297EF85F0E0ED58FF4FE4911396EC930D
:1026B0001397EC81F0E0ED58FF4FE4911496EC9302
:1026C0001497E985F0E0ED58FF4FE4911596EC93EF
:1026D0001597EE85F0E0ED58FF4FE4911696EC93D8
:1026E0001697EB81F0E0ED58FF4FE4911796EC93CD
:1026F0001797E885F0E0ED58FF4FE4911896EC93BA
:102700001897ED85F0E0ED58FF4FE4911996EC93A2
:102710001997EA81F0E0ED58FF4FE4911A96EC9397
:102720001A97EF81F0E0ED58FF4FE4911B96EC9380
:102730001B97EC85F0E0ED58FF4FE4911C96EC936D
:102740001C97E981F0E0ED58FF4FE4911D96EC9362
:102750001D97EE81F0E0ED58FF4FE4911E96EC934B
:102760001E97EB85F0E0ED58FF4FE4911F96EC9338
:10277000DF91CF910895BF92CF92DF92EF92FF92B7
:102780000F931F93CF93DF93CDB7DEB7A0970FB60C
:10279000F894DEBF0FBECDBF7C016B01DC01139648
:1027A0000D911C91FA01A801BF01605F7F4F9E014E
:1027B0002F5F3F4F9191DA018D91AD019827D9019B
:1027C0009D939D01E617F707A9F7005F1F4FF701DB
:1027D000B280C80140967C0191E0BE016F5F7F4FDF
:1027E0009B15A0F5CE0141960E943713BE016F5E86
:1027F0007F4FCE0101960E94D711BE016B5E7F4FC5
:10280000CE0105960E94D711BE01675E7F4FCE01B3
:1028100009960E94D711BE01635E7F4FCE010D96CF
:102820000E94D711F801AE014F5F5F4FDA018D9121
:10283000AD0191919D01215031098927D9018C93D6
:10284000EE15FF0599F78F01BA94C3CFCE014196DB
:102850000E943713AE014F5E5F4FF801C601DA01E7
:102860002D91AD0131912327DC012D93CD01EE1681
:10287000FF06A9F7A0960FB6F894DEBF0FBECDBF36
:10288000DF91CF911F910F91FF90EF90DF90CF904C
:10289000BF90089580E290E008952CE331E0FC01C0
:1028A0003183208360EF70E005960C948A0FFC0161
:1028B00020813181828193812817390719F0822F75
:1028C0000C945F090895CF93DF93EC018CB58F7D55
:1028D0008CBD8CB5837F8CBD8CB58C7F8CBD8DB54C
:1028E00081608DBD8A810E945F098C899D89DF91FD
:1028F000CF910C94410761E00C94631460E00C9458
:1029000063148EBD00000DB407FEFDCF8EB5089593
:102910001F93CF93DF93EC010E947E1481EE0E94FF
:102920008114182FCE010E947B14812FDF91CF914B
:102930001F9108950F931F93CF93DF938C01C62FA0
:10294000D42F0E947E148C2F8F7180620E9481147C
:10295000C82F8D2F0E948114C8010E947B148C2FD8
:10296000DF91CF911F910F910895CF92DF92EF9257
:10297000FF920F931F93CF93DF937C01C62F6A01C1
:10298000122F0E947E148C2F8F7180620E948114FE
:10299000082FE601115020F089910E948114FACF8E
:1029A000C7010E947B14802FDF91CF911F910F915F
:1029B000FF90EF90DF90CF9008951F93CF93DF9318
:1029C000EC01162F0E947E14812F0E9481148FEF3C
:1029D0000E948114182FCE010E947B14812FDF9159
:1029E000CF911F91089560E086E593E00E9457140F
:1029F00060E086E593E00E94DD14482F4D7F60E0A3
:102A000086E593E00C949A14CF93DF93C82FAB0123
:102A1000813059F5EFE8F3E064912091640386E595
:102A200093E00E94B514D0E0FE01E857FC4F64919A
:102A300040915D0386E593E00E949A1462E086E58A
:102A400093E00E94DD14FE01EE57FC4FE49141E05B
:102A500050E001C0440FEA95EAF7482B62E086E5B2
:102A600093E0DF91CF910C949A14E0E9F3E0649144
:102A700021E0D5CF0F931F93CF938C0166E086E5BD
:102A800093E00E94DD14C82FC77D85E590E0A0E0AB
:102A9000B0E00230110529F4C0628BE990E0A0E0BB
:102AA000B0E08093660390936703A0936803B093AC
:102AB00069034C2F66E086E593E00E949A1466E075
:102AC00086E593E00E94DD1491E0C81390E0892F21
:102AD000CF911F910F9108950F931F93CF938C0166
:102AE000C62F66E00E94DD14887FC43058F4CC0FF6
:102AF000CF5F4C2F482B66E0C801CF911F910F91FB
:102B00000C949A14C7E0F5CFCF93DF93EC0160E00B
:102B10000E94DD1481FD0EC0482F426060E0CE01AE
:102B20000E949A1465E070E080E090E0DF91CF9120
:102B30000C94160ADF91CF910895CF93DF93EC01A7
:102B400060E00E945714888999890E9441076DE1CD
:102B5000CE010E94DD1481FF07C0888999890E94F7
:102B60004107CE010E94881460E0CE010E94DD146E
:102B7000482F4E7F60E0CE010E949A1462E0CE01A1
:102B80000E94DD14E2E8F3E0E49141E050E001C08E
:102B9000440FEA95EAF7482B62E0CE01DF91CF912E
:102BA0000C949A14CF93DF93EC010E94841560E09B
:102BB000CE010E94DD14482F416060E0CE010E94EA
:102BC0009A1440E767E0CE010E949A1461E0CE01BA
:102BD0000E9457148985882399F02E85AE01475F9E
:102BE0005F4F6AE0CE010E94B5146DE1CE010E94F4
:102BF000DD1481FF1AC0CE01DF91CF910C948814AF
:102C000062E0CE010E94DD14E2E8F3E0E49121E00D
:102C100030E001C0220FEA95EAF72095422F4823C1
:102C200062E0CE010E949A14E0CFDF91CF91089527
:102C3000CF92DF92EF92FF920F931F93CF93DF9388
:102C40006C0110925403809120038F5F80932003C6
:102C500080911703909118030E949D15C09117034E
:102C6000D09118031F81012F113208F000E28885EE
:102C7000101B811110E0CE010E947E1480EB0E9497
:102C800081147601015030F0F70181917F010E949B
:102C90008114F8CF115020F080E00E948114FACF07
:102CA000CE010E947B1461E0CE010E9457140E9465
:102CB000E50A6B017C01CE010E947E148FEF0E9419
:102CC0008114182FCE010E947B141073F1F50E941D
:102CD000E50A6C197D098E099F0960367105810529
:102CE000910548F381E08F8780E08093540368E08A
:102CF00080911703909118030E94DD1420911C030A
:102D000030911D03215F3F4F30931D0320931C031F
:102D10008F7020911E0330911F03820F932F911DFE
:102D200090931F0380931E038091170390911803C3
:102D30000E94D21580915403DF91CF911F910F9182
:102D4000FF90EF90DF90CF90089560E0CE010E9459
:102D5000571440E767E0CE010E949A1484FF04C034
:102D6000CE010E948814C0CF81E0BFCFCF93DF9304
:102D7000EC01BC016C5F7F4F8091190390911A03A5
:102D8000DC01ED91FC910484F585E02D2CE130E02F
:102D9000AB010995CE01DF91CF910C941816FC017F
:102DA00021893289232B81F420E030E040E251E494
:102DB00062817381848195810E9435300E94482F01
:102DC000CB01693E734010F08FEF90E00895CF93F0
:102DD000DF93EC0189899A8960E070E8892B61F4BE
:102DE00020E030E040E251E46E817F818885998562
:102DF0000E9435300E94482FCB018C509E4F893E57
:102E00009340B8F48B899C89811520E8920759F08A
:102E1000861B970B97FF03C0919581959109C397E6
:102E200014F060E070E87C8B6B8BCB01DF91CF916D
:102E3000089560E070E8F9CFFC018285833091F459
:102E40004581568167817085483B8BE05807610555
:102E50007105D8F081E04C3A5D4061057105A0F044
:102E600080E012C08230E1F745815681678170852C
:102E7000443B9AE059076105710530F081E0473D18
:102E80005A406105710560F7089582E00895CF9377
:102E9000DF93EC0180E591E099838883CE01895A24
:102EA0009F4F0E944D14CE01DF91CF910C94D6100C
:102EB00065E0FC01868197810C94DD1466E0FC01DD
:102EC000868197810E94DD1490E0959587958370A7
:102ED000089580917003E0917103F0917203F8946A
:102EE0009181282F20959223918378943DE731504A
:102EF00011F190819823D9F3F894928192239283CF
:102F00009181982B91837894ACEBB3E01197F1F712
:102F1000F894918192239183A8E8B0E01197F1F79A
:102F20009081982381E009F080E07894E0E3F3E079
:102F30003197F1F7089580E00895FC010190002099
:102F4000E9F73197AF01481B590BBC0188E592E0C6
:102F50000C9437088F929F92AF92BF920F931F935A
:102F6000CF93DF93CDB7DEB7A1970FB6F894DEBF4E
:102F70000FBECDBF19A2423008F44AE08E010F5DAA
:102F80001F4F842E912CB12CA12CA50194010E94DD
:102F9000A02EE62FB901CA01EA30F4F4E05DD801B1
:102FA000EE938D01232B242B252B79F790E080E0E5
:102FB000109719F0CD010E949D17A1960FB6F894B5
:102FC000DEBF0FBECDBFDF91CF911F910F91BF909C
:102FD000AF909F908F900895E95CE1CF0F931F937E
:102FE000CF93DF93C9EDD3E088A999A9AAA9BBA97A
:102FF0000196A11DB11D88AB99ABAAABBBABBE01BD
:1030000089E194E00E942F0280E3E9E1F4E0A9EE77
:10301000B3E001900D928A95E1F70E94F1090CA9A5
:103020001DA92EA93FA9DC01CB0180279127A2274A
:10303000B3278CAB9DABAEABBFABDF91CF911F91F4
:103040000F910895CF92DF92FF920F931F93CF932A
:10305000DF93CDB7DEB7C054D1090FB6F894DEBF09
:103060000FBECDBF209121032F5F2093210329E0C4
:10307000F22EF9A2E0911503F091160320812AA304
:103080001CA21BA21EA21DA298A78FA3E09113034E
:10309000F091140380E1DE01999601900D928A95DA
:1030A000E1F7CE0181960E9418168091540388237F
:1030B00009F479C08091190390911A03009709F1DE
:1030C000DC01ED91FC910088F189E02D09950091DA
:1030D000190310911A03D801ED91FC91C084D18499
:1030E0000480F581E02DC8010995AC0162E273E02E
:1030F000C801F6010995811106C080EB91E00E949C
:103100009D1781E041C08091190390911A03DC0161
:10311000ED91FC910284F385E02D40E150E062E402
:1031200073E00995811103C088EB91E0E8CF8091AD
:10313000190390911A03DC01ED91FC910488F58943
:10314000E02D46E150E0BE016F5D7F4F0995F982A9
:10315000E0911503F091160380818A8381E090E06D
:103160009C838B838EEF9FEF9E838D8380E1E2E4CF
:10317000F3E0DE01179601900D928A95E1F7CE01FA
:1031800001960E94181682E0C05CDF4F0FB6F894DB
:10319000DEBF0FBECDBFDF91CF911F910F91FF908A
:1031A000DF90CF90089580E0EFCFDF92EF92FF9213
:1031B0000F931F93CF93DF934032510509F079C0ED
:1031C000EC01259620E2FB01DE0101900D922A958B
:1031D000E1F7AC014B525F4F61E008E0EC8C1881E5
:1031E0009D8DB981FE8CAA818F8D7B81083009F07D
:1031F00037C0E92FF0E0ED58FF4F3491E62FF0E0B3
:10320000E859FF4FD490EF2DF0E0ED58FF4F249197
:10321000E82FF0E0ED58FF4F0491EE2DF0E0ED586F
:10322000FF4F8491E32FED251E2718A3E22FEB27F4
:10323000E9A3E02FEA27EAA3E82FE727EBA36F5FD4
:1032400000E024960F5F4C175D0709F0C7CF81E0BF
:10325000DF91CF911F910F91FF90EF90DF90089534
:10326000EE2D0430F9F4F0E0ED58FF4F3491E92FE2
:10327000F0E0ED58FF4F2491EF2DF0E0ED58FF4FB7
:103280009491E82FF0E0ED58FF4F8491132718A395
:10329000E22FEB27E9A3E92FEA27EAA3E82FE727A4
:1032A000EBA3CFCFE127E8A3E92FEB27E9A3EF2D8D
:1032B000F3CF80E0CDCF8091090490910A04A091D2
:1032C0000B04B0910C040196A11DB11D809309045B
:1032D00090930A04A0930B04B0930C0469ED73E07F
:1032E00089E194E00E942F024FE250E060ED73E02C
:1032F00089E194E00E94562EE9E1F4E048E454E0CC
:103300006CEA8191682728E0862F062E000C990B25
:10331000880F892F881F990B8D71660F68272150A0
:1033200099F74E175F0769F78FEF93E00E94602EC1
:103330000E94EE170E94E50A60935B0470935C04A0
:1033400080935D0490935E0408950F931F93CF9331
:10335000DF938C01EB01CA0123E0969587952A95AE
:10336000E1F78617970740F0209731F0AB0183E033
:10337000440F551F8A95E1F72091590480915A0412
:10338000382F3F7160E871E0621B730B46175707D7
:10339000C8F5240F351F20935904932F9F71807E09
:1033A000892B80935A04209799F1CE01C133D1051E
:1033B00010F080E390E0C81BD90BA9EEB3E0F80150
:1033C000800F911F31912C9123272D93E817F90736
:1033D000C9F78F010E94EE17209739F780915A04A0
:1033E00085FF19C020915904382F3F712038314092
:1033F00090F08F7D80935A04DF91CF911F910F91B0
:103400000C945B1990E890935904807E8160C9CF39
:103410000E94EE17E3CFDF91CF911F910F91089596
:10342000CB01BA01A9010C94A519CF92DF92EF92BA
:10343000FF92CF93DF93EC0140E150E064EC73E046
:1034400089ED93E00E94352E40E350E064E973E09B
:1034500089EE93E00E94352E40E350E060ED73E08A
:1034600089E194E00E943E2EE9E1F4E048E454E072
:103470008CEA9191892798E0282F082E000C330BB5
:10348000220F232F221F330B2D71880F822791507B
:1034900099F74E175F0769F79091480498131CC07D
:1034A000E9EEF3E029E134E0C190D190E190F190B0
:1034B000AF014450510984A595A5A6A5B7A5C82676
:1034C000D926EA26FB26DA01CD92DD92ED92FC9216
:1034D00013972E173F0741F71092590480915A0411
:1034E000807E806280935A040E94EE17209769F0D4
:1034F000FE0101900020E9F73197BF016C1B7D0BA5
:1035000050E040E0CE010E94A51950E040E063E1A8
:1035100070E08FEB91E00E94A519F894A89584B70C
:10352000877F84BF8091600088618093600080E421
:103530008093600078940E945B1980915A048064A3
:1035400080935A04DF91CF91FF90EF90DF90CF905E
:103550000895CF92DF92EF92FF920F931F93CF9334
:10356000DF938C01EB0180915A0486FD04C090E04A
:1035700080E00E94151A2091590480915A04382F36
:103580003F71A901A3E055954795AA95E1F74C171E
:103590005D0708F041C010925904807E80935A0460
:1035A00080915A0487FF47C050E040E070E060E03F
:1035B00090E080E00E94A51980915A048F77809353
:1035C0005A0410926C048091090490910A04A0910D
:1035D0000B04B0910C040196A11DB11D8093090448
:1035E00090930A04A0930B04B0930C0469ED73E06C
:1035F00089E194E00E942F02AE0169E174E0C80104
:103600000E94D231DF91CF911F910F91FF90EF90E7
:10361000DF90CF900C94EE17AE01F3E0440F551FEE
:10362000FA95E1F7241B350B20935904932F9F71D2
:10363000807E892BB3CFF89480915702803208F4B2
:103640003FC0209153023091540240915502509155
:103650005602109253021092540210925502109288
:103660005602109257027894A9E0B0E00E948D2E85
:103670009B01AC01EBE05695479537952795EA9568
:10368000D1F72627372748275927A1E0B0E80E941D
:103690008D2EC090E903D090EA03E090EB03F09008
:1036A000EC03DC01CB018C259D25AE25BF25809345
:1036B000E9039093EA03A093EB03B093EC0383CF69
:1036C000789481CFCF93DF93CDB7DEB7A0970FB6B5
:1036D000F894DEBF0FBECDBF99E09983E09115034A
:1036E000F091160390819A832FEF3FEF3C832B8359
:1036F0003E832D8390E098878F838091190390916A
:103700001A03BE01675F7F4F0097C1F0DC01ED91A6
:10371000FC910688F789E02D40E150E00995109270
:103720005503CE0101960E941816A0960FB6F89484
:10373000DEBF0FBECDBFDF91CF91089580E1FB01C9
:1037400011928A95E9F7EBCFEF92FF920F931F93B7
:10375000CF93DF93EC017C0182E3E80EF11C8E0134
:103760000C5B1F4FB701C8010E945D10FE019E0156
:10377000205F3F4F82A192A9892782A33196E21749
:10378000F307C1F7FE01ED5BFF4F10828FE0F701F9
:1037900011928A95E9F7CF5BDF4F82E0888380E161
:1037A000F801828BDF91CF911F910F91FF90EF90E5
:1037B0000895CF93DF93EC01FC01ED5BFF4F808117
:1037C000882319F0CE010E94A41BBE016E5C7F4FBE
:1037D000CE018C5B9F4F0E945D109E01205F3F4F8A
:1037E0008AA19AA989278AA32196C217D307C1F76C
:1037F000DF91CF910895EF92FF920F931F93CF9394
:10380000DF9341315105F8F48A017B01EC010E94FC
:10381000D91BA296F7010E0D1F1D20E0E017F1073E
:1038200029F0899191918927282BF8CF80E091E0A8
:10383000821B9109892F8170DF91CF911F910F9188
:10384000FF90EF90089580E0F7CFEF92FF920F93F3
:103850001F93CF93DF93EC018B017A010E94D91B58
:10386000A7014131510510F040E150E0BE016E5D0D
:103870007F4FC801DF91CF911F910F91FF90EF9083
:103880000C94D231CF92DF92EF92FF920F931F935D
:10389000CF93DF93EC016B018A017901FC01ED5BB1
:1038A000FF4F8081882319F0CE010E94A41BBE0126
:1038B0006E5C7F4F9701A801CE018C5B9F4F0E94E9
:1038C000570B9701A801B601CE01DF91CF911F914F
:1038D0000F91FF90EF90DF90CF900C94DD0BCF9283
:1038E000DF92EF92FF920F931F93CF93DF93EC0140
:1038F0008B016A017901FC01ED5BFF4F8081882318
:1039000019F0CE010E94A41B9701A601B801CE01B7
:103910000E94DD0BBE016E5C7F4F9701A801CE01B6
:103920008C5B9F4FDF91CF911F910F91FF90EF9094
:10393000DF90CF900C94570B8F929F92AF92BF92D3
:10394000DF92EF92FF920F931F93CF93DF93411576
:10395000510509F459C05A014B01EC017C0184E482
:10396000E80EF11C8E010E5F1F4F80E1D82ED801AA
:10397000ED2D1D92EA95E9F7D7018D919C91DC011F
:10398000ED91FC910284F385E02DA801B801099521
:10399000F701128AC7010296F801DC012D2D019072
:1039A0000D922A95E1F70E94A30B9501A401B8019D
:1039B000C7010E94570BB801C7010E945D10DE01CC
:1039C0009296F8018D2D01900D928A95E1F7FE01F6
:1039D000F2968FE0DF011D928A95E9F73F9681E02C
:1039E0008083F701D28A3297D082CD5BDF4F888304
:1039F000DF91CF911F910F91FF90EF90DF90BF90DB
:103A0000AF909F908F90089580E0F2CF2F923F92D9
:103A10004F925F926F927F928F929F92AF92BF92DE
:103A2000CF92DF92EF92FF920F931F93CF93DF938A
:103A3000CDB7DEB7CB50D2400FB6F894DEBF0FBE85
:103A4000CDBFC85FDD4F99838883C850D240C65F21
:103A5000DD4F79836883CA50D2404115510509F47E
:103A6000C9C280E2FA01DE01AF5BBF4F01900D9247
:103A70008A95E1F7A1968EAD9FADA1979F77A1960C
:103A80009FAF8EAFA197CE018F5B9F4F0E94440DD9
:103A90008170C95FDD4F8883C750D240CE018F59F6
:103AA0009F4FFC0132962EE1DF011D922A95E9F726
:103AB00021E030E0FC01318320839E012F553F4FF0
:103AC00010E2D901E12F1D92EA95E9F7BE016F5787
:103AD0007F4FFE01EF5BFF4FDB01412F01900D9205
:103AE0004A95E1F7AE014F535F4FFC01DA010190B7
:103AF0000D921A95E1F7FFEFCA5FDD4FF883C650CC
:103B0000D240E12CAFE1CD5FDD4FA883C350D2405E
:103B100010E4712E5B016C01942E852E8901C65F25
:103B2000DD4FE881F981CA50D240CD5FDD4FB881C9
:103B3000C350D240EB0FF11D60806720E624F12CCA
:103B4000A501B601C7010E94920C492D582DB8015C
:103B5000C7010E94920CA801B601CE018F519F4F60
:103B60000E94AC0DBE016F517F4FCE018F579E4F0B
:103B70000E94870FA801B601CE018F5F9E4F0E9461
:103B8000C60CBE016F5F7E4FCE018F559E4F0E94C7
:103B9000870FAE014F555E4FBE016F577E4FCE016E
:103BA0008F599E4F0E94C60C492D582DB501CE014C
:103BB0008F5D9E4F0E94AC0D492D582DB501CE0151
:103BC0008F5B9E4F0E94C60CAE014F515F4FBE01EE
:103BD0006F5B7E4FCE018F539E4F0E94B50EAE019C
:103BE0004F5F5E4FBE016F5D7E4FCE018F519E4F86
:103BF0000E94B50EAE014F515E4FBE016F537E4F16
:103C0000C5010E94AC0DB501C5010E94870FAE0130
:103C10004F515E4FBE016F537E4F892D982D0E94EC
:103C2000C60C692D782D892D982D0E94870FAE0125
:103C30004F5B5F4F692D782D892D982D0E94B50E11
:103C4000AE014F555E4FBE016F577E4FC6010E94B9
:103C5000B50EE3E7F2E045915491FE01EF59FE4FB6
:103C6000CC5FDD4FF983E883C450D240E056F14089
:103C7000B1E6EB2EFF24F394EC0EFD1E20E2E20EE3
:103C8000F11CCE018F599E4FCF5FDD4F9983888302
:103C9000C150D240212C312C2101CF5FDD4FA881B2
:103CA000B981C150D2402D913D91CF5FDD4FB98395
:103CB000A883C150D240DA010E94C22E260E371EC0
:103CC000481E591E21923192120144245524CF5F7F
:103CD000DD4F28813981C150D240E216F306E9F662
:103CE0003AA229A2E5E7F2E0E590F490FE013396CE
:103CF000212C312C2101CC5FDD4FA881B981C4502A
:103D0000D2402D913D91CC5FDD4FB983A883C45043
:103D1000D240D7010E94C22EDF012D913D91AB010F
:103D2000BC01420F531F611D711D420D531D641DC7
:103D3000751D518340831B0144245524FD01CF5F31
:103D4000DD4F28813981C150D240CC5FDD4F888161
:103D50009981C450D2402817390769F63CA22BA29A
:103D600042E0BE016F5F7F4FC8010E94DD0DAE01D2
:103D70004F575E4FB801C8010E94AC0DAE014F59BC
:103D80005E4FB801C8010E94B50E7694E62CE69409
:103D9000711011C0CD5FDD4F9881C350D24091505A
:103DA000CD5FDD4F9883C350D240E62CE794EE24DC
:103DB000E79440E8742ECA5FDD4FA881C650D24018
:103DC000A150CA5FDD4FA883C650D240A111A7CE33
:103DD000F12CA501B601C7010E94920CAE014F5310
:103DE0005F4FBE016F557F4FC7010E94920CBE010D
:103DF0006F557F4FCE0101960E94870F39E0F32E59
:103E0000BE016F5F7F4FCB010E94870FFA94F110C4
:103E1000F7CFAE014F555F4FBE016F5F7F4FCE01B1
:103E20008F539F4F0E94B50E27E1F22E9AE0E92EA4
:103E3000BE016F5F7F4FCB010E94870FEA94E110B4
:103E4000F7CFAE014F5F5F4FBE016F537F4FCB0186
:103E50000E94B50EFA94F110E9CFBE016F537F4F67
:103E6000CE0101960E94870FAE014F5F5F4FBE01EA
:103E70006F537F4FCB010E94B50E88E0F82EBE0134
:103E80006F5F7F4FCB010E94870FAE014F5F5F4F87
:103E9000BE016F537F4FCB010E94B50EFA94F11013
:103EA000EECFCE0101960E94EC10BE016F537F4F02
:103EB000CB010E94870FBE016F537F4FCB010E9441
:103EC000870FA801BE016F537F4FCB010E94B50E33
:103ED000BE016F537F4FCB010E94870FBE016F530E
:103EE0007F4FCB010E94870FA801BE016F537F4F08
:103EF000CB010E94B50EBE016F537F4FCB010E94D4
:103F0000870FA801BE016F537F4FCB010E94B50EF2
:103F1000AE014F535F4FB601C6010E94B50E80E25D
:103F2000F601C85FDD4FA881B981C850D240019029
:103F30000D928A95E1F7CE018F5B9F4F0E94EC10A6
:103F4000C6010E94EC10C5010E94EC10C8010E943D
:103F5000EC10CE018F539F4F0E94EC10CE018F5179
:103F60009F4F0E94EC10CE018F5F9E4F0E94EC107D
:103F7000CE018F5D9E4F0E94EC10CE018F5B9E4F55
:103F80000E94EC10CE018F599E4F0E94EC10CE0182
:103F90008F579E4F0E94EC10CE018F559E4F0E946E
:103FA000EC10CE018F539E4F0E94EC10CE018F512A
:103FB0009E4F0E94EC10C95FDD4F8881C750D240F0
:103FC000C55FDD4F0FB6F894DEBF0FBECDBFDF91EA
:103FD000CF911F910F91FF90EF90DF90CF90BF9006
:103FE000AF909F908F907F906F905F904F903F9099
:103FF0002F9008958EE1E1E4F0E0EC0FFD1F329682
:10400000DF011D928A95E9F789E090E023969FAF42
:104010008EAF239738CDCF93DF93EC018AE090E009
:104020000E944E2E8883CE01DF91CF910895CF93C9
:10403000DF93EC010E94D610CE01DF91CF910C945A
:104040004431CF93DF93EC010E945610CE01DF91F3
:10405000CF910C944431CF93DF93EC010E944D1427
:10406000CE01DF91CF910C944431CF93DF93EC01DB
:104070000E944717CE01DF91CF910C9444310E94EA
:10408000CD311F920F920FB60F9211242F933F93B1
:104090004F935F936F937F938F939F93AF93BF9350
:1040A000EF93FF9388E592E00E94B508FF91EF91AE
:1040B000BF91AF919F918F917F916F915F914F9140
:1040C0003F912F910F900FBE0F901F9018951F9248
:1040D0000F920FB60F9211242F938F939F93EF930C
:1040E000FF93E0916802F09169028081E0916E0295
:1040F000F0916F0282FD1BC09081809171028F5FF1
:104100008F7320917202821741F0E0917102F0E00A
:10411000E85AFD4F958F80937102FF91EF919F9127
:104120008F912F910F900FBE0F901F901895808147
:10413000F4CF1F920F920FB60F9211242F933F933B
:104140008F939F93AF93BF938091420290914302CC
:10415000A0914402B09145023091410226E0230F24
:104160002D3758F50296A11DB11D20934102809371
:10417000420290934302A0934402B093450280917F
:10418000460290914702A0914802B09149020196DF
:10419000A11DB11D8093460290934702A09348024F
:1041A000B0934902BF91AF919F918F913F912F9111
:1041B0000F900FBE0F901F90189529E8230F0396BC
:1041C000A11DB11DD2CF1F920F920FB60F921124D5
:1041D0002F933F934F935F936F937F938F939F930F
:1041E000AF93BF93EF93FF93E0910301F09104012C
:1041F0000995FF91EF91BF91AF919F918F917F9121
:104200006F915F914F913F912F910F900FBE0F9043
:104210001F9018951F920F920FB60F9211242F9393
:104220003F934F935F936F937F938F939F93AF933E
:10423000BF93EF93FF93E0910101F0910201099583
:10424000FF91EF91BF91AF919F918F917F916F916E
:104250005F914F913F912F910F900FBE0F901F9044
:1042600018951F920F920FB60F9211242F933F9320
:104270004F935F936F937F938F939F93AF93BF936E
:10428000EF93FF938091B900887F803609F44AC08C
:10429000F0F5883209F4A5C018F5803109F499C009
:1042A000B8F4882309F4F5C0883009F492C0FF916E
:1042B000EF91BF91AF919F918F917F916F915F919E
:1042C0004F913F912F910F900FBE0F901F90189517
:1042D000883109F486C0803251F780931A0214C0E5
:1042E000803409F49BC040F48033B9F38833F9F685
:1042F00080931A0285ECAEC0803509F483C08835FE
:1043000009F494C0883499F60E94F20AD0CF883913
:1043100009F48AC038F5883729F050F4883611F04E
:10432000803729F683E080931B021092190255C052
:10433000883809F479C0803919F0803809F0B7CF8E
:1043400080911902803208F06FC0E091190281E07B
:104350008E0F809319028091BB00F0E0E750FE4F72
:1043600080833BC0803B39F0D0F4803A09F477C0B9
:10437000883A09F09CCF84E080931B021092F801E8
:104380001092F701F0E0E0E009958091F7018111CA
:104390000FC081E08093F7011092D70109C0803CE3
:1043A00009F4A8CF883C09F4A5CF883B09F07FCF5A
:1043B000E091F80181E08E0F8093F801F0E0E9527E
:1043C000FE4F80818093BB009091F8018091F701AE
:1043D00029C0809140028093BB0085EC8093BC0093
:1043E00066CF90913F0280913E02981758F5E09178
:1043F0003F0281E08E0F80933F02F0E0E25EFD4FCE
:104400008081E9CFE0913F0281E08E0F80933F02EF
:104410008091BB00F0E0E25EFD4F808390913F020F
:1044200080913E029817C8F285E8D8CFE0913F020C
:1044300081E08E0F80933F028091BB00F0E0E25E4E
:10444000FD4F808380911D0281115ECF81E08093BA
:104450001C0284EA8093BC0010921B0228CF85ECDA
:104460008093BC0010921B0280911902803230F4BC
:10447000E0911902F0E0E750FE4F108260911902BE
:1044800070E089EF91E0F0E0E0E009951092190208
:104490000ECF10921A0238CF1F920F920FB60F92C2
:1044A00011242F934F935F936F937F938F939F93D9
:1044B000AF93BF9320918400809153029091540256
:1044C000A0915502B0915602820F911DA11DB11D00
:1044D0008093530290935402A0935502B0935602D6
:1044E0008091530290915402A0915502B0915602CE
:1044F00040915302509154026091550270915602BE
:104500002AE0880F991FAA1FBB1F2A95D1F7840F95
:10451000951FA61FB71F8093530290935402A09338
:104520005502B09356028091530290915402A0918B
:104530005502B0915602409153025091540260913D
:1045400055027091560226E0B695A79597958795E6
:104550002A95D1F784279527A627B727809353025A
:1045600090935402A0935502B09356028091570243
:104570008F5F80935702BF91AF919F918F917F91F1
:104580006F915F914F912F910F900FBE0F901F90E1
:10459000189588EA93E00E945610F894A89584B77D
:1045A000877F84BFE0E6F0E08081886180831082AD
:1045B000789460E470E089ED93E00E948A0F60E4F3
:1045C00070E089E194E00C948A0F1F93CF93DF93FE
:1045D000CDB7DEB72E970FB6F894DEBF0FBECDBFB6
:1045E000E8E5F2E01382128288EE93E0A0E0B0E00A
:1045F00084839583A683B7838EE691E0918380833D
:1046000085EC90E09587848784EC90E09787868797
:1046100080EC90E0918B808B81EC90E0938B828B8F
:1046200082EC90E0958B848B86EC90E0978B868B68
:10463000118E128E138E148EE9E5F4E010828181C2
:10464000807880628F77818310925B0410925C0483
:1046500010925D0410925E0480E89EEEA6E3B0E046
:1046600080935F0490936004A0936104B09362040C
:1046700010926B0410926C04E3E9F3E08CEA91E091
:10468000918380838EEF9FEF928B818B80E090E807
:10469000948B838B84E0878786E1808B84EA91E02A
:1046A00090936F0380936E0360E082E10E94AB09F8
:1046B000E4E0F4E08491E0EFF3E0E491F0E0EE0F69
:1046C000FF1FEC52FC4F259134911B861A861986E8
:1046D00018861F821E821D821C8289833B832A8347
:1046E0001C861D861E868EE0FE013196A0E7B3E093
:1046F00001900D928A95E1F7E8EAF3E084E991E010
:104700009183808380E092E0938382838FE084832F
:1047100011E0108760E00E94AB0960E08FE00E942A
:104720005F0988EA93E00E94930FE6E5F3E087E0F3
:1047300090E09183808388E090E093838283168267
:1047400080E28783108685E0868785E090E0A0E0A0
:10475000B0E0848B958BA68BB78B118641E153E03B
:104760008AE891E0DA0111969C938E9319961C9237
:104770001E92189787E02BE133E0D901982F1D9204
:104780009A95E9F710925303109252031092540332
:104790001093550321E033E0DA0113963C932E93F6
:1047A00012972BE031E015963C932E9314971796B1
:1047B000FC93EE931697E5EFF2E020E831E03183C9
:1047C00020831282138284831186128613862E968A
:1047D0000FB6F894DEBF0FBECDBFDF91CF911F9112
:1047E0000895CF93DF93CDB7DEB7CD54D1090FB67F
:1047F000F894DEBF0FBECDBF789484B5826084BDCF
:1048000084B5816084BD85B5826085BD85B58160D4
:1048100085BD80916E00816080936E001092810052
:10482000809181008260809381008091810081600D
:1048300080938100809180008160809380008091CE
:10484000B10084608093B1008091B000816080935A
:10485000B00080917A00846080937A0080917A0021
:10486000826080937A0080917A008E7F80937A00B4
:1048700080917A00806880937A001092C10061E094
:1048800086E00E94AB0961E086E00E945F09E0914A
:104890006802F091690282E08083E0916402F09105
:1048A00065021082E0916602F091670288E08083E1
:1048B00010927002E0916C02F0916D0286E08083AC
:1048C000E0916A02F0916B02808180618083E091C7
:1048D0006A02F0916B02808188608083E0916A02B5
:1048E000F0916B02808180688083E0916A02F09190
:1048F0006B0280818F7D808321E0E22E23E0F22E07
:1049000067010FE010E0C8010E944E2ED6018D9382
:104910006D010F5F1F4F0F311105A9F781E293E081
:104920000E94240991E1C92E93E0D92EF70111913B
:104930007F01103120F481ED91E00E949D17612FDD
:1049400070E090E080E040E10E94AA17CE14DF04FE
:1049500069F783ED91E00E949D1788E091E00E9445
:104960000B2080910801833069F4CE0101960E94EA
:104970000B2040E250E0BE016F5F7F4F82E293E088
:104980000E94DB3180915A0486FD04C081E093E0EF
:104990000E94151A80E09DEDADE6B0E080935F04C3
:1049A00090936004A0936104B0936204E0916B045F
:1049B000E43068F481E08E0F80936B04F0E0EE0F3A
:1049C000FF1FED59FB4F88EA93E09183808380912C
:1049D0005603909157032091580330915903821741
:1049E000930719F061E00E94AB0980915803909100
:1049F000590320915603309157032817390719F0AE
:104A000061E00E94AB091FB7F89480914A028111BE
:104A100027C0E8EEF3E08491ECEFF3E09491E82F07
:104A2000F0E0EE0FFF1FE15DFC4FA591B491EC911A
:104A3000E92321F461E08AE00E945F0961E08AE0F5
:104A40000E94AB098CB580618CBD8CB580648CBD37
:104A500061E08DE00E94AB0961E08BE00E94AB0950
:104A600080914A028F5F80934A021FBF60E086E513
:104A700093E00E94571461E086E593E00E9463147E
:104A800065E070E080E090E00E94160A4CE060E093
:104A900086E593E00E949A144FE564E086E593E092
:104AA0000E949A1482E090E00E943A15882319F03F
:104AB00081E080935C0366E086E593E00E94DD146C
:104AC00090E080E00E943A1586E593E00E947E1413
:104AD00080E50E94811483E70E94811486E593E0BB
:104AE0000E947B1440E06DE186E593E00E949A14F9
:104AF00040E06CE186E593E00E949A1410925E0318
:104B000040E767E086E593E00E949A144CE465E094
:104B100086E593E00E949A1486E593E00E947E1455
:104B200082EE0E94811486E593E00E947B1486E564
:104B300093E00E94881486E593E00E94841560E06B
:104B400086E593E00E94DD14482F4E7F60E086E505
:104B500093E00E949A144EE565E086E593E00E949A
:104B60009A144FE361E086E593E00E949A144FE4C3
:104B700064E086E593E00E949A1482E090E00E944F
:104B80003A1560E086E593E00E94DD14482F4C6002
:104B900060E086E593E00E949A1460E086E593E089
:104BA0000E946C150E94F31460E086E00E945F0989
:104BB00068EC70E080E090E00E94160A61E086E018
:104BC0000E945F0989E393E00E9424090E94E50A9C
:104BD0004AE00E94AA1783ED91E00E949D17812C64
:104BE00010EC912E19E7A12E14ECB12E10E080915B
:104BF0006B04181788F4E12FF0E0EE0FFF1FED595A
:104C0000FB4F80819181DC01ED91FC910680F78161
:104C1000E02D09951F5FEBCFF89480915702803209
:104C200008F4E7C02091530230915402409155029C
:104C30005091560210925302109254021092550253
:104C400010925602109257027894A9E0B0E00E94A8
:104C50008D2E9B01AC01ABE0569547953795279576
:104C6000AA95D1F72627372748275927A1E0B0E88A
:104C70000E948D2EAB01BC012091590480915A04F1
:104C8000382F3F712C5F3F4F3F712138B1E03B0718
:104C900008F0A5C020935904932F9F71807E892B23
:104CA00080935A0420916C0484E0289FF001112421
:104CB000E751FC4F80819181A281B38184279527A0
:104CC000A627B72780839183A283B3832F5F209386
:104CD0006C0480915A042C3008F487C010926C0444
:104CE0008F7780935A0450E040E070E060E090E0FD
:104CF00080E00E94A5190E94E50A00915B041091D2
:104D00005C0420915D0430915E04601B710B820B8A
:104D1000930B00915F041091600420916104309125
:104D20006204601771078207930710F00E945B19F5
:104D300080912003813140F480911C0390911D03E8
:104D40008130914008F475C066E08091170390911E
:104D500018030E94DD14682F70E075956795162F73
:104D6000137060911E0370911F0390E080E00E9419
:104D70007E2F6B017C0160911C0370911D0390E0FC
:104D800080E00E947E2F9B01AC01C701B6010E940A
:104D9000D62E6B017C0120E030E048EC52E40E940A
:104DA00035300E944F2F84E6861B80931B032AE92F
:104DB00039E949E55FE3C701B6010E9430301816B2
:104DC000D4F461E0133021F52AE939E949E15EE3E1
:104DD000C701B6010E94D12E87FF21C018C090E8FC
:104DE00090935904807E81605BCF806880935A04E1
:104DF00082CF789480CF2AE939E949E15EE3C7019F
:104E0000B6010E94D12E87FF0AC0112341F06FEF37
:104E1000610F80911703909118030E946C151092F6
:104E20001D0310921C0310921F0310921E03109278
:104E300020031092520280910A01882309F4CEC205
:104E4000809151028111CAC2809109018111C6C2AB
:104E500010920A018EE480937C0062E070E080E0B2
:104E600090E00E94160A80917A00806480937A0014
:104E700080917A0086FDFCCF8091780020917900A6
:104E8000322F282F032E000C440B550B64EB7BE2D2
:104E900081E190E00E946E2E69017A018091F70213
:104EA000882379F00E94DC09DC01A70196010E94A9
:104EB000982E2FEF33E040E050E00E946E2E690103
:104EC0007A01C092FA02D092FB02E092FC02F092C8
:104ED000FD028091FE028530F0F4B701A6014E5428
:104EE0005C406109710991E04431514061057105EF
:104EF00048F093E0E2E6CE16EDE0DE06E104F104D0
:104F000008F492E02091FF02211159C09093FF0212
:104F100081E08093FE028091FF02813009F49BC002
:104F2000833009F087C0F9E6CF16F0E1DF06E1042F
:104F3000F10408F090C02FE6C2162FE0D206E1047B
:104F4000F10408F443C0A70196012E563F404109E1
:104F50005109A4E1B0E00E948D2E2AEF30E040E03C
:104F600050E00E946E2E205B3F4F4F4F5F4F253623
:104F700031054105510508F077C020930003809169
:104F80000801833009F021C361E086E00E945F09D7
:104F900006E0015009F410C165E070E080E090E0A7
:104FA0000E94160A8091A3038B3009F461C08631F8
:104FB00009F4B1C01092A5031092A40374C0291380
:104FC00002C08F5FA6CF1092FF02A5CF81E1C81665
:104FD0008EE0D806E104F104A8F0A7019601205163
:104FE0003E4041095109ACE3B0E00E948D2E2EE510
:104FF00031E040E050E00E946E2E2C5E3F4F4F4F5C
:105000005F4FB5CF9DE8C9169AE0D906E104F104D7
:1050100038F1A70196012C583A4041095109A4E101
:10502000B0E00E948D2E24E833E040E050E00E9482
:105030006E2E9DCF8230A1F4A70196012C583A40E4
:1050400041095109A4E6B0E00E948D2E22EC31E026
:1050500040E050E0ECCF24E630E040E050E087CF85
:1050600020E030E0A90183CF85E68093000387CF5D
:1050700062E18091A2030E94490A009711F1809297
:10508000950390929603A0929703B0929803809212
:10509000990390929A03A0929B03B0929C039093E1
:1050A000A5038093A4038091A4039091A503892B69
:1050B00009F482C068EE73E080E090E00E94160A76
:1050C00068CF10919D03612F70E090E080E00E9416
:1050D0007E2F60939503709396038093970390932C
:1050E0009803F0909F036F2D70E090E080E00E94A5
:1050F0007E2F6093990370939A0380939B03909300
:105100009C031F0D81E090E02091A10312134EC07B
:1051100090E080E04BC061E08091A2030E94490AC8
:10512000009709F0ACCF10919E03D0909D03609141
:105130009D0370919E0376276727762790E080E095
:105140000E947E2F2DEC3CEC4CEC5DE30E94353050
:1051500060939503709396038093970390939803BD
:10516000E090A003F0909F036F2D6F77762F6E2D48
:1051700090E080E00E947E2F2DEC3CEC4CEC5DE357
:105180000E943530F7FC16C06093990370939A0320
:1051900080939B0390939C031D0DE10EFE0C81E018
:1051A00090E02091A103F21609F4B2CF9195819578
:1051B000910975CF9058E8CF10927E0310927B032F
:1051C00010927D0310927C0310927A03109279035F
:1051D0001092780310927703109276031092750361
:1051E00010927403109273030E9469178823F9F0D8
:1051F00080EF0E949F0701E0E12CD12C11E00E947A
:105200004A07F82E0E944A07A1E0FA123EC18130F7
:1052100009F05AC1113458F0D0927B03D11003C069
:1052200081E080937D0380917303811163C11092AB
:105230007B0310927D0310927C0310927A031092EC
:1052400079031092780310927703109276031092EC
:10525000750310927403109273034CE050E06FEFEB
:1052600070E08FE793E00E94DB31809109018111AA
:10527000ABC081E091E00E942218182F8091540366
:10528000882309F4A1C0123018F081E0809309014D
:1052900009E00983E0911503F091160380818A8368
:1052A000812F90E09C838B8385E091E09E838D83AA
:1052B00088E0EBE8F3E0DE01179601900D928A9505
:1052C000E1F78CE0EFE7F3E0DE011F9601900D922D
:1052D0008A95E1F7CE0101960E94B616882309F45B
:1052E00073C062E0D62ED10E83E993E00E94E716E8
:1052F0007C0183E993E00E94CF160983E0911503B6
:10530000F091160320812A8321E0210F30E03C83B5
:105310002B8322E031E03E832D83F886EF829A874B
:105320008987CE0101960E94B616882309F44CC0E5
:105330004090FA025090FB026090FC027090FD02D7
:10534000F090000385EF92E00E941C170983E09122
:105350001503F091160390819A832D2D30E03C8344
:105360002B8324E031E03E832D834F82588669866B
:105370007A86FB868C87CE0101960E94B616098339
:10538000E0911503F091160380818A8383E0810FF9
:1053900090E09C838B8386E091E09E838D83809157
:1053A0001B038F8381E193E00E945E17888781E170
:1053B00093E00E9458178987CE0101960E94B61685
:1053C00084E0810F0E94621B0E94E50A60934D02F7
:1053D00070934E0280934F02909350028091080187
:1053E000833009F438C18FEF80930501F0900501F7
:1053F0000F2D10E061E086E00E94AB090115110558
:1054000009F04BC160E086E00E945F0980910801CD
:105410008150833008F04BC37724739430E5232EFA
:1054200031E0332E4CE3442E41E0542E5EE0652EF5
:1054300067E186E593E00E94DD1480FDEEC11092E5
:105440005102E0901703F0901803F701178100E272
:10545000103208F4012FD70118968C91101B81117E
:1054600010E0C7010E947E1481E60E9481146E0143
:10547000B1E2CB0ED11C015008F456C18FEF0E944F
:105480008114F60181936F01F6CFEE2DF0E0F81252
:1054900011C080917B031817A8F4DF01A259BC4FFB
:1054A00015968C91802381F4F12C193010F410930F
:1054B0007C03D12EE259FC4F8581902F9095892352
:1054C00085830BC08113F0CFEE2DF0E0E259FC4F45
:1054D0008581802B8583FF24F3948F2D0E946F0795
:1054E0001F5F000F11F4E39401E0B7E0BE1508F070
:1054F00086CE90CEE3E7F3E08BE793E02191278B14
:105500008E179F07D9F7ABE8B3E028E0E0E0215021
:1055100089F08D918E27E82FEF70F0E0E25BFC4F71
:10552000949182958F70E82FF0E0E25AFC4FE4915D
:10553000E927EDCF809192038E138FCE80918B035C
:10554000803119F0883209F090CE0E9469178BE8FB
:1055500093E00E94CC0784E40E949F0768EE73E00A
:1055600080E090E00E94160AF894E0917103F091B7
:10557000720391818091700380958923818378944F
:105580000E9469178BE893E00E94CC078EEB0E9483
:105590009F070FE713E0E8E8EE2EE3E0FE2E78E049
:1055A000C72ED12C712C662463940E944A07811166
:1055B0007628660CE1E0CE1AD108B9F7D8017D92C1
:1055C0008D01EA16FB0659F750CE823009F0FCCE69
:1055D00088E090E00E942218F82E882309F4F4CE87
:1055E000082F10E089E08983E0911503F0911603FC
:1055F00080818A831C830B8384E090E09E838D836B
:105600008AE1E2E2F3E0DE01179601900D928A95BD
:10561000E1F7CE0101960E941816882309F4D4CE32
:105620000F5F1F4F1C830B8385E090E09E838D836B
:1056300086E0ECE3F3E0DE01179601900D928A9587
:10564000E1F7CE0101960E941816882309F4BCCE1A
:1056500082E08F0DB7CE80914C0291E0980F90932D
:105660004C02843009F0C2CE8091050190914B022A
:10567000992359F08F5F8093050180910501843152
:1056800031F481E080934B02B1CE8150F4CF843B62
:1056900009F0ACCE10924B02A9CE0F3F110511F4C8
:1056A00061E0B1CEE4E7F3E0E491E33019F140F4D6
:1056B000E130B1F0E230C9F0003811058CF7A2CE2C
:1056C000E73011F1E83041F1E430B1F7809180002A
:1056D00080628093800010938B0000938A0096CEA6
:1056E00084B5806884BDF7BC91CE84B5806284BDEA
:1056F000F8BC8CCE809180008068809380001093ED
:1057000089000093880082CE8091B00080688093E9
:10571000B000F092B3007ACE8091B00080628093A6
:10572000B000F092B40072CE115020F08FEF0E94C2
:105730008114FACFC7010E947B1440E767E0C701DC
:105740000E949A1489A1893009F067C08AA19BA19F
:105750008930910509F05DC07092550310922103C4
:1057600010910801113009F026C18AA190E0833020
:10577000910509F0FAC02A961FAE2A972B961FAE04
:105780002B978CA12C968FAF2C978DA12D968FAF38
:105790002D978EA12E968FAF2E9720916403AE0188
:1057A000475B5F4F6AE086E593E00E94B514209165
:1057B0006403AE01475B5F4F60E186E593E00E94C2
:1057C000B51440915D0361E186E593E00E949A146F
:1057D00086E593E00E949D1589E089831A821C82E8
:1057E0001B8281E090E09E838D83E0911303F09112
:1057F000140380E1DE01179601900D928A95E1F77E
:10580000CE0101960E94181686E593E00E94D215FB
:105810000FCE803F980709F0A3CF109251028091DC
:1058200009018823C9F08091590420915A04922FCC
:105830009F7123E0959587952A95E1F78031910531
:105840000CF429C11092000160E170E082E493E061
:105850000E94A91A10920901809108018F3F49F016
:1058600080912103873028F08FEF809308011092F8
:1058700021038091FF02813009F0C8C18093520258
:1058800080915403882351F08091550390ECC92EE8
:105890009AEDD92EE12CF12C811106C080E4C82E9E
:1058A0008FE1D82EE12CF12C0E94E50A00914D02E7
:1058B00010914E0220914F0230915002601B710BEB
:1058C000820B930BC616D706E806F90608F040C00F
:1058D00081E080930A0180915202811139C0809148
:1058E000510281112EC0809108018150823048F40C
:1058F00081E08093F8020E94E207809151028111B9
:1059000020C00E94F31460E086E00E945F0980914D
:105910005403882309F4A3C18091F9029091F802FD
:10592000891B0E94E2071092F80261E086E00E9463
:105930005F0986E593E00E94841586E593E00E9466
:10594000D215109207011092060181E080930A019E
:1059500080E090E0892B09F449C90E94A1088823BE
:1059600009F444C90E94000041C9029709F060CDC2
:1059700085E0FE01B496DE01119601900D928A95A4
:10598000E1F78981882309F453CD92E090930801CF
:1059900080930B01BE016F5F7F4F81E00E94041571
:1059A0008FEF8983BE016F5F7F4F82E00E940415F5
:1059B00010930A0132CF123009F03ACD86309105AA
:1059C00089F48CE1FE01B596A2E2B3E001900D925C
:1059D0008A95E1F7EEE3F3E0DF0124E01D922A95DA
:1059E000E9F726CD079709F023CD84E0FE01B596AF
:1059F000AEE3B3E001900D928A95E1F70091520376
:105A00001091530301151105E9F082E293E00E9421
:105A10005B0F42E253E0B801CA010E94061D82E218
:105A200093E00E945B0F60E270E0C8010E948A0F61
:105A300080915203909153030E944431109253037A
:105A40001092520383E08093080170920A018CE463
:105A500091E00E94A830DC01AC5BBF4F52961C92D3
:105A60005297FC01EE5BFF4F108231961082FC01D1
:105A700031822082E95AFF4F5182408262829F0127
:105A80002B5F3F4F34832383ED93FC9390931A0352
:105A900080931903CDCC20910001203208F0DCCE98
:105AA000892B09F4D9CE2F5F20930001CDCE8091B0
:105AB000590420915A04922F9F718F3F910509F04C
:105AC0000CF4A0C08091190390911A03009759F02B
:105AD000DC01ED91FC910280F381E02D099510929B
