:100000000C94E2010C940A020C940A020C940A0269
:100010000C940A020C940A020C94BC080C940A0278
:100020000C940A020C940A020C940A020C940A0220
:100030000C940A020C940A020C940A020C940A0210
:100040000C94040C0C940A020C94370B0C94110BB6
:100050000C940A020C940A020C940A020C940A02F0
:100060000C944E0C0C940A024E6F757665617520E7
:100070006E6F646520696420726563752064652015
:10008000444843503A200050415F4D415800504190
:100090005F484947480050415F4C4F570050415F0F
:1000A0004D494E0031362062697473003820626910
:1000B00074730044697361626C6564006E52463209
:1000C000344C30312B006E524632344C30310032D9
:1000D00035304B42505300324D42505300314D4267
:1000E000505300555549442073656E7365757220F1
:1000F000004E6F646549442073656E7365757220A8
:1001000000424D503A204572726575722C2064652C
:10011000736163746976652E0053544154555309D5
:1001200009203D203078253032782052585F4452E3
:100130003D25782054585F44533D2578204D415843
:100140005F52543D25782052585F505F4E4F3D25F9
:10015000782054585F46554C4C3D25780D0A005088
:100160004120506F77657209203D2025530D0A000C
:100170009D0096008E008700435243204C656E67B9
:10018000746809203D2025530D0A00B300AC00A47B
:10019000004D6F64656C0909203D2025530D0A0050
:1001A000C600BC0044617461205261746509203D41
:1001B0002025530D0A00DD00D700CF0044594E50D2
:1001C000442F4645415455524500434F4E464947FA
:1001D000090052465F53455455500052465F43480C
:1001E0000900454E5F52584144445200454E5F411C
:1001F00041090052585F50575F50302D3600545817
:100200005F41444452090052585F414444525F5098
:10021000322D350052585F414444525F50302D31E9
:10022000005365747570207465726D696E65206128
:10023000707265732000436F6E6E6578696F6E2013
:100240006D65736820696E697469616C69736500B6
:10025000436F6E6E6578696F6E206D65736820619F
:10026000766563206E6F646549642000536574751C
:100270007020726164696F005265717565746520E4
:1002800044484350207472616E736D697365004811
:1002900061726477617265206661696C7572652050
:1002A00064657465637465642000526564656D619E
:1002B000727261676520726164696F005265636F75
:1002C0006E6E6578696F6E206175206D657368006C
:1002D000206E6220636F6E6669726D6174696F6E05
:1002E000733A2000436F6E6669726D6174696F6E58
:1002F00020747970652000416C696D656E7461745D
:10030000696F6E2041412000416C696D656E7461BA
:1003100074696F6E206C69746869756D2000416C3A
:10032000696D656E746174696F6E20736563746561
:10033000757220000000000800020100000304079D
:100340000000000000000000536C656570000001B3
:10035000020304051112131415160A0B0C0D0E0FCF
:100360000D0A00253032780020307800255309200E
:100370003D000D0A002030782530327800255309E1
:10038000203D0000000000250028002B0000000098
:1003900000240027002A00040404040404040402C6
:1003A0000202020202030303030303010204081012
:1003B00020408001020408102001020408102000DF
:1003C0003023F11B11241FBECFEFD8E0DEBFCDBF1D
:1003D00011E0A0E0B1E0E0E5F6E502C005900D9285
:1003E000A439B107D9F725E0A4E9B1E001C01D9215
:1003F000AE31B207E1F711E0C1EED1E004C02197C0
:10040000FE010E94C32AC03ED107C9F70E94F21B19
:100410000C941B2B0C9400000895FC018285833002
:1004200089F44581568167817085483B8BE0580788
:1004300061057105D8F081E04C3A5D4061057105B8
:10044000B0F012C0823081F4458156816781708599
:10045000443B8AE058076105710540F081E0473D63
:100460005A406105710518F080E0089582E0089512
:10047000FC0183850895FC016581768187819085E3
:100480000895FC01848595850895FC0182859385F6
:100490000895CF93DF93EC019CB59F7D9CBD9CB5E7
:1004A000937F9CBD9CB59C7F9CBD9DB591609DBD7F
:1004B0008A810E94690B8C899D89DF91CF910C9470
:1004C000B50B8F929F92AF92BF92EF92FF920F93D4
:1004D0001F93CF93DF93CDB7DEB72A970FB6F8946B
:1004E000DEBF0FBECDBFFC017A876987262F372F6D
:1004F0002F3F8FEF380711F482811CC02115310581
:1005000009F464C0808191810097B1F4558140E085
:1005100001C04F5F451709F456C0A381B481A80FED
:10052000B91F039611966D917C911297621773070C
:1005300081F78C9190E04CC08432994009F443C01B
:100540007F011C821B8280910401909105019C0116
:100550002F5F3F4F30930501209304019E838D83CD
:1005600086EC8F8308E310E022E030E0AE01475FC5
:100570005F4FBE016F5F7F4F808591850E94D715C9
:10058000882309F10E94F80B4B015C01F70180857B
:1005900091850E941713863C71F00E94F80BDC01D4
:1005A000CB0188199909AA09BB098E379105A105C4
:1005B000B10560F308C0D7011896ED91FC91199729
:1005C0008785908905C08FEF9FEF02C080E090E0A3
:1005D0002A960FB6F894DEBF0FBECDBFDF91CF9144
:1005E0001F910F91FF90EF90BF90AF909F908F90D1
:1005F00008950C94CC26CF93C82F682F8BE692E0F9
:100600000E9469098C2FCC0F990BCF91089561E05E
:100610000C94490260E00C944902FC012081318174
:10062000828193812817390719F0822F0C94690B66
:1006300008958EBD00000DB407FEFDCF8EB5089560
:10064000EF92FF921F93CF93DF931F92CDB7DEB748
:100650007C0169830E940A036981862F0E94190325
:10066000182FC7010E940703812F0F90DF91CF91B0
:100670001F91FF90EF90089561EE0C942003EF928C
:10068000FF921F93CF93DF9300D0CDB7DEB77C01ED
:100690004A8369830E940A036981862F8F71806271
:1006A0000E941903182F4A81842F0E941903C70141
:1006B0000E940703812F0F900F90DF91CF911F9120
:1006C000FF90EF900895CF92DF92EF92FF920F93F9
:1006D0001F93CF93DF9300D01F92CDB7DEB77C017D
:1006E000142F2A835B8369830E940A036981862F02
:1006F0008F7180620E941903082FC12E5B81D52E55
:100700002A81120F1C1531F0F60181916F010E94B0
:100710001903F8CFC7010E940703802F0F900F9095
:100720000F90DF91CF911F910F91FF90EF90DF908D
:10073000CF900895EF92FF921F93CF93DF931F9274
:10074000CDB7DEB77C0169830E940A036981862FD9
:100750008F710E9419038FEF0E941903182FC70190
:100760000E940703812F0F90DF91CF911F91FF907F
:10077000EF900895CF93DF93EC0160E00E949A031D
:1007800081FD0EC0482F426060E0CE010E943F0311
:1007900065E070E080E090E0DF91CF910C94BE0BBB
:1007A000DF91CF910895CF93DF93EC0160E00E9439
:1007B0000D03888999890E94B50B6DE1CE010E94D5
:1007C0009A0381FF07C0888999890E94B50BCE01E1
:1007D0000E943C0360E0CE010E949A03482F4E7FA6
:1007E00060E0CE010E943F0362E0CE010E949A03C6
:1007F000EEE4F3E0E49141E050E001C0440FEA95FB
:10080000EAF7482B62E0CE01DF91CF910C943F03D1
:10081000CF93DF93EC010E94BA0360E0CE010E9407
:100820009A03482F416060E0CE010E943F0340E7F9
:1008300067E0CE010E943F0361E0CE010E940D03FC
:100840008985882349F02E85AE01475F5F4F6AE0B6
:10085000CE010E94630314C062E0CE010E949A039D
:10086000EEE4F3E0E49121E030E001C0220FEA95EC
:10087000EAF72095422F482362E0CE010E943F0311
:100880006DE1CE010E949A0381FF05C0CE01DF9188
:10089000CF910C943C03DF91CF9108951F93CF9398
:1008A000DF93EC01888199812A813B81821793072C
:1008B00011F00E94771A8A819B812881398128173B
:1008C000390711F00E94771A1FB7F89480919401AC
:1008D000811124C0E1EAF3E08491E5EBF3E0949127
:1008E000E82FF0E0EE0FFF1FE357FC4FA591B49106
:1008F000EC91E92321F461E08AE00E94690B8AE02F
:100900000E94771A8CB580618CBD8CB580648CBDDB
:100910008DE00E94771A8BE00E94771A80919401F3
:100920008F5F809394011FBF60E0CE010E940D0392
:1009300061E0CE010E94490265E070E080E090E055
:100940000E94BE0B4CE060E0CE010E943F034FE5E9
:1009500064E0CE010E943F0362E070E0CE010E949D
:10096000C016882311F081E08E8366E0CE010E94DC
:100970009A03182F60E070E0CE010E94C016CE01ED
:100980000E940A0380E50E94190383E70E9419036D
:10099000CE010E94070340E06DE1CE010E943F03BB
:1009A00040E06CE1CE010E943F03188640E767E01B
:1009B000CE010E943F034CE465E0CE010E943F035C
:1009C00062EECE010E942003CE010E943C03CE01C4
:1009D0000E94BA0360E0CE010E949A03482F4E7F26
:1009E00060E0CE010E943F03115081E01E3F08F0FD
:1009F00080E0DF91CF911F9108952F923F924F9207
:100A00005F926F927F928F929F92AF92BF92CF929E
:100A1000DF92EF92FF920F931F93CF93DF93CDB7A7
:100A2000DEB768970FB6F894DEBF0FBECDBF7C016E
:100A30002A013B0167E1DC0116968D919C91179785
:100A40000E949A0380FD03C080E090E072C1F7012C
:100A5000868197810E94D303D7011896ED91FC916E
:100A6000199782A5826082A76AE070E080E090E03A
:100A70000E94BE0B64E279E0F701808591850E94B7
:100A8000241884E299E0D7018D939C930E94F80B7F
:100A90004B015C01212C312CE0E4F0E0FC87EB877A
:100AA00080910401909105019C012F5F3F4F30938D
:100AB0000501209304019E878D87F2ECFF87D70103
:100AC00018968D919C911997FC0122A933A93A8718
:100AD0002987332089F0232D30E021503109A901E5
:100AE000440F551F240F351F01E010E002C0000F16
:100AF000111F2A95E2F702C000E010E020E030E08C
:100B000040E050E0BE01675F7F4F0E94D7150E9412
:100B1000F80B698B7A8B8B8B9C8BD12CD701189619
:100B20008D919C9119970E941713823C99F4FE01B4
:100B30003196ED0DF11DED0DF11DD70118968D913A
:100B40009C911997DC0117968D919C911897918330
:100B50008083D3940E94F80BDC01CB0129893A8968
:100B60004B895C89821B930BA40BB50BC897A1051D
:100B7000B10520F433E03D1588F633C0D11031C003
:100B80000E94F80BDC01CB0188199909AA09BB095D
:100B9000481659066A067B0608F456CF222D30E027
:100BA0002F5F3F4F832D90E00196289FB001299F32
:100BB000700D389F700D1124675E7F4F660F771F91
:100BC000072E000C880B990B0E94BE0B81E0830D51
:100BD0008370382E81E0820D6AE00E94A32A292EBC
:100BE0005BCFC12C198ACD1408F046C043EC4F8767
:100BF000D70112968C911297888BFE013196EC0DDD
:100C0000F11DEC0DF11D008111811C870B8720E087
:100C100030E040E050E0BE01675F7F4F18968D9155
:100C20009C9119970E94D7150E94F80B6D8B7E8BB3
:100C30008F8B988F0E94F80BDC01CB012D893E89A8
:100C40004F89588D821B930BA40BB50B813E9105E8
:100C5000A105B10548F4F701808591850E9417131D
:100C6000898B803839F7CD2C65E070E080E090E02A
:100C70000E94BE0BC394B7CF3989303809F080CFBA
:100C8000D7011896ED91FC91199787859089009767
:100C900009F476CF368512962C91321371CFF70175
:100CA00091838083868197810E94D3036AE070E0FC
:100CB00080E090E00E94BE0BD7016D917C9111976E
:100CC00018968D919C9119970E942418F7016081C4
:100CD0007181C7010E946102D70112962C9130E008
:100CE00082179307E1F0F70160817181C7010E94CB
:100CF0006102D70112962C91129730E08217930768
:100D000071F064E279E018968D919C9119970E9498
:100D1000241884E299E0F7019183808331CFD701D1
:100D20001896ED91FC91199782A58D7F82A78D91E0
:100D30009C9168960FB6F894DEBF0FBECDBFDF91D1
:100D4000CF911F910F91FF90EF90DF90CF90BF90C8
:100D5000AF909F908F907F906F905F904F903F905B
:100D60002F9008954F925F926F927F92AF92BF92B1
:100D7000DF92EF92FF920F931F93CF93DF93CDB744
:100D8000DEB729970FB6F894DEBF0FBECDBF7C014A
:100D9000DC0118968D919C9119970E941713D82EFB
:100DA000F701808191818432994009F4CFC023EC0E
:100DB000D21204C081E0D7011A968C93F701828188
:100DC0008111C4C08D2D8D7F843C09F09EC00084AC
:100DD000F185E02D5F0127E0A20EB11C878190858F
:100DE00092878187978584ECD81278C09987D7013C
:100DF00012968C911297811118C015964C9120E093
:100E000030E0841709F44BC0D7011396ED91FC91A3
:100E10001497E20FF31F2D5F3F4F5081591303C00A
:100E2000818192814DC08F5FECCF992309F446C038
:100E30001C821B8280910401909105019C012F5F0F
:100E40003F4F30930501209304019E838D83DF8201
:100E500008E310E022E030E0AE01475F5F4FBE01E3
:100E60006F5F7F4FCF010E94D7158823C1F00E948A
:100E7000F80B2B013C01F701808591850E94171327
:100E8000843C81F00E94F80BDC01CB0184199509A8
:100E9000A609B70987399105A105B10560F38FEF60
:100EA0009FEF0EC0D7011896ED91FC911997878599
:100EB000908997FF05C08EEF9FEF02C080E090E021
:100EC0009A83898308E310E022E030E0AE014F5FAF
:100ED0005F4FB501F7018085918514C0692F70E0DF
:100EE000C7010E9461029A83898308E310E022E02F
:100EF00030E0AE014F5F5F4FB501D70118968D917D
:100F00009C9119970E94D71521C0B5ECDB121EC029
:100F1000F701A085B18580E0F70195818917B0F4CC
:100F2000F70123813481F90193E0899FE00DF11DE0
:100F300011244181528117962D913C9118974217A7
:100F4000530711F4128211828F5FE6CF8D2D2996FF
:100F50000FB6F894DEBF0FBECDBFDF91CF911F91CA
:100F60000F91FF90EF90DF90BF90AF907F906F90C8
:100F70005F904F900895CF92DF92EF92FF920F9380
:100F80001F93CF93DF93CDB7DEB728970FB6F894B2
:100F9000DEBF0FBECDBF7C0184E0D82E92E8C92E03
:100FA000DA94DD20F1F1F70180819181843299405A
:100FB000C1F1C7010E94B20667E1F70186819781FE
:100FC0000E949A0381FD07C0F70180859185FC018D
:100FD00022A520FF02C081E02AC01C821B82209132
:100FE000040130910501A9014F5F5F4F5093050146
:100FF000409304013E832D83CF8208E310E020E07C
:1010000030E040E050E0BE016F5F7F4F0E94D71597
:1010100081110DC067E670E080E090E00E94BE0B99
:10102000BFCFF701868197810E94D30380E0289685
:101030000FB6F894DEBF0FBECDBFDF91CF911F91E9
:101040000F91FF90EF90DF90CF9008950895DF9279
:10105000EF92FF920F931F93CF93DF93CDB7DEB73D
:10106000C054D1090FB6F894DEBF0FBECDBFE090DB
:101070004B04F0904C0481EBE81683E0F80609F08D
:1010800008F463C0D090B7030091B9031091BA037C
:1010900084E6D81241C0A8010134110510F040E4E3
:1010A00050E06BEB73E0CE0101960E94CE2AC7019F
:1010B000801B910B0A9790934C0480934B044AE950
:1010C00050E0401B510BB80165547C4F81EB93E01D
:1010D0000E94D72A1C811230B0F1109301011093A5
:1010E000660389E090E00E941728181729F0612F05
:1010F00089E090E00E941F2848EE53E060E070E035
:1011000084E693E00E94FD041092000188E690E0DE
:101110000E942817812F15C09701201B310B2A50E0
:10112000310930934C0420934B044AE950E0401BB2
:10113000510BB80165547C4F81EB93E00E94D72A94
:101140008D2D0E94641A81E008C084E693E00E941D
:10115000BB0791E098279093AE01C05CDF4F0FB6BC
:10116000F894DEBF0FBECDBFDF91CF911F910F91DD
:10117000FF90EF90DF9008951F920F920FB60F929D
:1011800011248F939F938091020190910301892BE9
:1011900031F481E090E090930301809302019F91EC
:1011A0008F910F900FBE0F901F901895CF92DF92E6
:1011B000EF92FF920F931F93CF93DF936C017A010D
:1011C0008B01C0E0D0E0CE15DF0589F0D8016D912C
:1011D0008D01D601ED91FC910190F081E02DC601C9
:1011E0000995892B11F47E0102C02196ECCFC7012D
:1011F000DF91CF911F910F91FF90EF90DF90CF90F3
:101200000895FC01538D448D252F30E0842F90E00C
:10121000821B930B541710F0CF96089501970895F1
:10122000FC01918D828D981761F0828DDF01A80FEE
:10123000B11D5D968C91928D9F5F9F73928F90E010
:1012400008958FEF9FEF0895FC01918D828D98177F
:1012500031F0828DE80FF11D858D90E008958FEFBC
:101260009FEF0895FC01918D228D892F90E0805C85
:101270009F4F821B91098F73992708958BE692E007
:101280000E94320921E0892B09F420E0822F089581
:10129000FC01848DDF01A80FB11DA35ABF4F2C9113
:1012A000848D90E001968F739927848FA689B789E2
:1012B0002C93A089B1898C9180648C93938D848DBB
:1012C000981306C00288F389E02D80818F7D80838A
:1012D0000895EF92FF920F931F93CF93DF93EC014A
:1012E00081E0888F9B8D8C8D981305C0E889F989E2
:1012F000808185FD24C0F62E0B8D10E00F5F1F4FFF
:101300000F731127E02E8C8DE8120CC00FB607FC6E
:10131000FACFE889F989808185FFF5CFCE010E9457
:101320004809F1CF8B8DFE01E80FF11DE35AFF4F05
:10133000F0820B8FEA89FB898081806207C0EE8989
:10134000FF896083E889F98980818064808381E0F6
:1013500090E0DF91CF911F910F91FF90EF90089552
:10136000CF93DF93EC01888D8823C9F0EA89FB894C
:10137000808185FD05C0A889B9898C9186FD0FC043
:101380000FB607FCF5CF808185FFF2CFA889B98918
:101390008C9185FFEDCFCE010E944809E7CFDF9108
:1013A000CF91089580E090E0892B29F00E943E09BA
:1013B00081110C94000008953FB7F8948091FC01CE
:1013C0009091FD01A091FE01B091FF0126B5A89B6F
:1013D00005C02F3F19F00196A11DB11D3FBFBA2FC7
:1013E000A92F982F8827820F911DA11DB11DBC0127
:1013F000CD0143E0660F771F881F991F4A95D1F7EB
:10140000089585ED8093BC008091BC0084FDFCCFE5
:101410001092460208954091D201262F30E0240F09
:10142000311D21323105DCF4209146022430C9F40B
:10143000FC0180E090E0861758F43091D2012191B0
:10144000DC01A055BE4FA30FB11D2C930196F3CF25
:101450008091D201680F6093D20180E0089581E00D
:10146000089582E008950895E09196018091950194
:10147000E81730F4F0E0E050FE4F808190E00895EE
:101480008FEF9FEF089590919601809195019817A5
:1014900050F4E92FF0E0E050FE4F208130E09F5FF4
:1014A0009093960102C02FEF3FEFC90108958091FC
:1014B000950190E020919601821B91090895CF92A9
:1014C000DF92EF92FF920F931F93CF93DF937C01F4
:1014D000262F972F8A0180914702882391F0C62FEB
:1014E000D72F6E01C40ED51ECC15DD0571F06991A4
:1014F000D701ED91FC910190F081E02DC701099594
:10150000F3CF642F822F0E940B0AC801DF91CF9185
:101510001F910F91FF90EF90DF90CF900895CF93A0
:10152000DF931F92CDB7DEB7698320914702222354
:10153000D1F020916A02203240F021E030E0FC013D
:101540003383228380E090E015C080914802E82F29
:10155000F0E0E75BFD4F998190838F5F80934802B5
:1015600080936A0205C061E0CE0101960E940B0AD9
:1015700081E090E00F90DF91CF910895089580E091
:1015800090E008950E94C92A0F931F93CF93DF9391
:101590008C01EB0188E2FB0111928A95E9F74BE09F
:1015A00050E06DE871E0CE010E94E92A1B8681E0DF
:1015B00090E0A0E0B0E08C879D87AE87BF87F80100
:1015C00083819481A581B681888B998BAA8BBB8BF3
:1015D00086E090E0A0E0B0E08C8B9D8BAE8BBF8B63
:1015E0001CA21DA21EA21FA280E090E8A9E8B4E4FC
:1015F000888F998FAA8FBB8F80E090E0A6E9B3E433
:101600008C8F9D8FAE8FBF8F8AE097EDA3E2BCE3F6
:1016100088A399A3AAA3BBA3DF91CF911F910F9198
:1016200008951F920F920FB60F9211242F933F939C
:101630004F935F936F937F938F939F93AF93BF93DA
:10164000EF93FF938BE692E00E944809FF91EF91A0
:10165000BF91AF919F918F917F916F915F914F91CA
:101660003F912F910F900FBE0F901F9018951F92D2
:101670000F920FB60F9211242F938F939F93EF9396
:10168000FF93E0917B02F0917C028081E0918102E6
:10169000F091820282FD12C09081809184028F5F5E
:1016A0008F7320918502821751F0E0918402F0E05F
:1016B000E559FD4F958F8093840201C08081FF9191
:1016C000EF919F918F912F910F900FBE0F901F90D0
:1016D000189590E0FC01EC5CFC4F3491FC01E55561
:1016E000FC4F2491FC01E956FC4FE491EE2309F4F0
:1016F0003BC0332339F1333091F038F43130A9F065
:10170000323001F584B58F7D12C0373091F038301A
:10171000A1F03430B9F4809180008F7D03C08091B6
:1017200080008F77809380000DC084B58F7784BD53
:1017300009C08091B0008F7703C08091B0008F7D89
:101740008093B000F0E0EE0FFF1FED57FC4FA59126
:10175000B4918FB7F894EC91611103C020952E23BA
:1017600001C02E2B2C938FBF08958330910528F054
:10177000880F991F04970197F1F708958F929F9210
:10178000AF92BF92CF92DF92EF92FF926B017C01FA
:101790000E94DC094B015C01C114D104E104F10495
:1017A000F1F00E94DC09DC01CB0188199909AA0932
:1017B000BB09883E9340A105B10570F321E0C21A30
:1017C000D108E108F10888EE880E83E0981EA11C7C
:1017D000B11CC114D104E104F10419F7DDCFFF906D
:1017E000EF90DF90CF90BF90AF909F908F90089533
:1017F0002FB7F8946091F8017091F9018091FA0186
:101800009091FB012FBF08951F920F920FB60F9278
:1018100011242F933F938F939F93AF93BF93809106
:10182000F8019091F901A091FA01B091FB0130917A
:10183000F70126E0230F2D3720F40296A11DB11DDC
:1018400005C029E8230F0396A11DB11D2093F701C0
:101850008093F8019093F901A093FA01B093FB01F2
:101860008091FC019091FD01A091FE01B091FF01DA
:101870000196A11DB11D8093FC019093FD01A093E1
:10188000FE01B093FF01BF91AF919F918F913F9166
:101890002F910F900FBE0F901F9018951F920F92CF
:1018A0000FB60F9211242F933F934F935F936F9333
:1018B0007F938F939F93AF93BF93EF93FF93809109
:1018C000B900887F803609F49CC068F5883209F435
:1018D0005BC090F4803109F454C038F4882309F4D3
:1018E000F6C0883009F44DC0F6C0883109F44CC008
:1018F000803209F45DC0EFC0803409F468C048F458
:10190000803309F455C0883309F0E5C08093440260
:10191000D8C0803509F44FC0883509F45DC08834DB
:1019200009F0D9C0D6C0883909F4C7C0A8F48837EF
:1019300009F467C038F4883609F463C0803709F4C5
:1019400060C0C9C0883809F4B8C0803909F45FC0E4
:10195000803809F0C0C05BC0803B09F486C038F411
:10196000803A09F466C0883A09F47FC0B4C0803C6C
:1019700009F4A7C0883C09F4A4C0883B09F48AC0D4
:10198000AAC08091210210C090914302809142022E
:10199000981770F5E091430281E08E0F8093430227
:1019A000F0E0EE5DFD4F80818093BB0085EC86C04A
:1019B000809344028EC0E091430281E08E0F8093B9
:1019C00043028091BB00F0E0EE5DFD4F808390917B
:1019D0004302809142026EC0E091430281E08E0F8B
:1019E000809343028091BB00F0E0EE5DFD4F808369
:1019F0008091450281116DC081E08093200284EACC
:101A000061C083E0809346021092F601CFCF8091AF
:101A1000F601803208F051C0E091F60181E08E0FAE
:101A20008093F6018091BB00F0E0EA52FE4F808384
:101A3000BDCF85EC8093BC00109246028091F601E8
:101A4000803230F4E091F601F0E0EA52FE4F10826D
:101A50006091F60170E0E091D401F091D50186ED3E
:101A600091E009951092F60136C084E08093460219
:101A70001092D3011092D201E091D001F091D101E6
:101A800009958091D201811105C081E08093D20136
:101A90001092B001E091D30181E08E0F8093D301C9
:101AA000F0E0E055FE4F80818093BB009091D30120
:101AB0008091D201981708F479CF85E88093BC0013
:101AC0000AC085EC8093BC001092460204C01092BC
:101AD00044020E94010AFF91EF91BF91AF919F9143
:101AE0008F917F916F915F914F913F912F910F90C7
:101AF0000FBE0F901F9018951F93CF93DF93EB01AC
:101B000091E09093470297E7909369021092480200
:101B100010926A02682F88E093E00E948F0A0E9468
:101B2000571782E00E94B417109296018093950196
:101B300088E093E00E94430A182F88E093E00E9417
:101B4000430A20E030E0312F822B932B9983888346
:101B5000DF91CF911F910C9457170F931F93CF9341
:101B6000DF9300D0CDB7DEB78C018EE20E94F6176E
:101B700065E070E080E090E00E94BE0BBE016F5F08
:101B80007F4F86EF0E947C0D49815A8160E070E0B2
:101B9000F80140835183628373830F900F90DF912C
:101BA000CF911F910F9108950F931F93CF93DF93C0
:101BB00000D0CDB7DEB78B01BE016F5F7F4F0E94B3
:101BC0007C0D89819A81F801918380830F900F9019
:101BD000DF91CF911F910F910895CF93DF93EB0188
:101BE00091E09093470297E7909369021092480220
:101BF00010926A02682F88E093E00E948F0A0E9488
:101C0000571781E00E94B4171092960180939501B6
:101C100088E093E00E94430A8883DF91CF910C947F
:101C200057173F924F925F926F927F928F929F923F
:101C3000AF92BF92CF92DF92EF92FF920F931F93DA
:101C4000CF93DF93CDB7DEB72F970FB6F894DEBFF3
:101C50000FBECDBF8B0119821A821B821C82CE015E
:101C600001960E94AD0D809197018295880F880F93
:101C7000807C8C5C0E94F61780919701813069F01E
:101C800038F0823079F46EE070E080E090E00EC0D1
:101C900065E070E080E090E009C068E070E080E01E
:101CA00090E004C06AE170E080E090E00E94BE0B2A
:101CB000BE016B5F7F4F86EF0E947C0DCD80DE8082
:101CC000E12CF12CFE2CED2CDC2CCC24BE01695F28
:101CD0007F4F88EF0E94ED0D309097018F81C80EE5
:101CE000D11CE11CF11C88E090E083199109A70147
:101CF000960104C055954795379527958A95D2F753
:101D00002C873D874E875F878091A2019091A30128
:101D100049815A816B817C819A01AB01281B390B67
:101D200041095109A091A001B091A1010E944C2844
:101D30006B017C01AFE0F594E794D794C794AA9522
:101D4000D1F76091AA017091AB01CB01770FAA0B7B
:101D5000BB0BBC01CD01BBE0660F771F881F991F2D
:101D6000BA95D1F72091AC013091AD014901330F03
:101D7000AA08BB08A7019601280D391D4A1D5B1D45
:101D80000E942D28C20ED31EE41EF51E30EAC31A8F
:101D90003FE0D30AE108F108A7019601C701B601A7
:101DA0000E94932A9B01AC018CE05595479537958D
:101DB00027958A95D1F7288739874A875B8780904E
:101DC000980190909901A0919C01B0919D01A7016B
:101DD00096010E9457282B013C019DE07594679461
:101DE000579447949A95D1F7A091A401B091A50179
:101DF000288539854A855B850E945728BB2797FD32
:101E0000B095AB2F840D951DA61DB71D0296A11D83
:101E1000B11D32E0B595A795979587953A95D1F77D
:101E20009C01AD0130584F4F5F4FA0919E01B09182
:101E30009F010E944C282B013C014FE0769467944F
:101E4000579447944A95D1F7092C000CAA08BB086F
:101E500052E0880C991CAA1CBB1C5A95D1F7A09182
:101E6000A601B091A701288539854A855B850E9426
:101E700057289B01AC016BE0559547953795279501
:101E80006A95D1F7288739874A875B87A0919A019D
:101E9000B0919B01A70196010E945728DC01CB015C
:101EA0007BE0B595A795979587957A95D1F7288585
:101EB00039854A855B85820F931FA41FB51F880E45
:101EC000991EAA1EBB1E032C04C0880C991CAA1CB8
:101ED000BB1C0A94D2F732E0830E911CA11CB11CEA
:101EE000E2E0B594A79497948794EA95D1F72C856E
:101EF0003D854E855F85281939094A095B0980E5CA
:101F000093ECA0E0B0E0BC01CD0104C095958795AD
:101F1000779567953A94D2F70E94932A97FD0BC064
:101F2000660F771F881F991FA30192010E949628B0
:101F300069017A010AC0A30192010E9496286901F1
:101F40007A01CC0CDD1CEE1CFF1C9927F7FC9A953E
:101F50008F2D7E2D6D2D9B01AC010E94932A9B013C
:101F6000AC01AEEDBBE00E944C284C01BB2497FCB9
:101F7000B094AB2CA3E4B3EEA70196010E945A28BB
:101F8000BB2797FDB095AB2F880D991DAA1DBB1DD2
:101F90008153914FAF4FBF4F44E0B595A7959795AB
:101FA00087954A95D1F7BC01CD016C0D7D1D8E1D25
:101FB0009F1D0E947629F801608371838283938339
:101FC0002F960FB6F894DEBF0FBECDBFDF91CF9135
:101FD0001F910F91FF90EF90DF90CF90BF90AF9047
:101FE0009F908F907F906F905F904F903F9008955B
:101FF0000F931F93CF93DF9300D000D0CDB7DEB700
:102000008B0124E2FB0111922A95E9F744E250E0AA
:1020100060E070E0F8014083518362837383FC01C8
:102020004381548165817681F801448355836683B9
:10203000778346E050E060E070E040875187628738
:102040007387108A118A128A138ABE016F5F7F4FCD
:102050000E94110E20E030E048EC52E469817A8160
:102060008B819C810E94CC28F801648B758B868BB8
:10207000978B81E00F900F900F900F90DF91CF9191
:102080001F910F910895CF93DF93CDB7DEB72897B7
:102090000FB6F894DEBF0FBECDBFAC019CEC9983A8
:1020A0009A839B839C839D831E821F8218869A013C
:1020B000E1E021153105C9F0611103C04115510559
:1020C00069F4D901A770BB27A45FBE4F8C91A1E032
:1020D000B0E0AC0FBD1FAE0FB11D8C9383E0369501
:1020E00027958A95E1F7EF5FE4CF611102C0452B98
:1020F00039F4E62FF0E0E45FFE4F8081898305C06C
:10210000F0E0E55FFE4F80818A8329813A814B812F
:102110005C816D817E818F81988528960FB6F894B9
:10212000DEBF0FBECDBFDF91CF910895CF93DF9378
:10213000DC01FB01EC01C359DE4F688179812296F5
:102140009881828140815181823028F0BA0181E0FA
:10215000838390E027C0ED01C059DE4F288139818B
:10216000EA01C223D323D2960D90BC91A02DCA17A9
:10217000DB07C1F4C9018095909563E0880F991F32
:102180006A95E1F784239523892B51F083E0220F90
:10219000331F8A95E1F72760BA016223732301C0D8
:1021A000BA0195E071836083928381E0DF91CF91E2
:1021B00008954F925F926F927F92AF92BF92CF92AB
:1021C000DF92EF92FF920F931F93CF93DF93CDB7E0
:1021D000DEB728970FB6F894DEBF0FBECDBF8C01D7
:1021E000CB01D22E642F0E94431029013A015B01DA
:1021F0007C01F80182A582FD04C087A590A90E94F8
:10220000D303F80187A590A9DD2011F060E001C09B
:1022100061E00E940F18F801C7A4D0A849825A8231
:102220006B827C82AD82BE82EF82F886F6012685C3
:10223000AE014F5F5F4F6AE0C6010E946303F60183
:102240002685AE014F5F5F4F60E1C6010E946303C8
:10225000F601478161E1C6010E943F03F801B4A87D
:10226000C7A4D0A80E94F80B2B013C016FEFC60158
:102270000E94200380FF1EC06FEFC6010E94200352
:1022800084FF06C040E167E0C6010E943F0310C022
:102290000E94F80BDC01CB0184199509A609B70946
:1022A00080369105A105B10508F381E0F601878725
:1022B000F12C30C0F601F780EF2CBF1408F4EB2CA2
:1022C000F6018085811102C0FE1801C0F12CC60103
:1022D0000E940A0380EA0E9419035801F7E0AF0E3A
:1022E000B11CEA0CEA1431F0F50181915F010E9402
:1022F0001903F8CFFF2029F080E00E941903FA9417
:10230000F9CFC6010E94070361E0C6010E940D03D8
:10231000FF24F394F80182A582FD0FC04181528110
:102320006381748187A590A90E943B19F82E60E013
:10233000F80187A590A90E940F188F2D28960FB637
:10234000F894DEBF0FBECDBFDF91CF911F910F91EB
:10235000FF90EF90DF90CF90BF90AF907F906F9005
:102360005F904F9008958F929F92AF92BF92CF92BD
:10237000DF92EF92FF920F931F93CF93DF93EC01C5
:102380007B01CCA8D12C860108501109DB011696DF
:102390009C918CE6890F833020F0983C09F0CFC0E7
:1023A00003C0943909F4E4C08BE6890F823018F039
:1023B000983C09F08EC06E0159EDC50ED11CD601B6
:1023C0002D913C91A801420F531F4139510520F036
:1023D000C852DF4F1882B1C05E01B8EDAB0EB11C20
:1023E000F5018081882309F415C1963929F0D701B8
:1023F00017969C919813A1C0FE01EB52FF4F4081AC
:102400005181F701848195814817590709F095C0DA
:102410004E01FBED8F0E911CD4018D919C91A80172
:10242000BE01615F7F4F820F931F0E94CE2AF6018B
:1024300080819181080F191F11830083D70116969F
:102440008C91863929F0F50180818150808373C099
:10245000D5011C92F7018781FE01E952FF4F80836D
:10246000833809F483C07E01FFECEF0EF11CF70105
:10247000A081B181CE018A1B9B0B8B539F4F80178C
:102480009107F8F032968AE001900D928A95E1F773
:10249000D7018D919C91F40160817181D6014D919C
:1024A0005C910A960E94CE2AF601808191810A965B
:1024B000D7012D913C911197820F931F8D939C937F
:1024C0003AC08FA598A90E94D3038AA581608AA7E4
:1024D00034C07E01BFECEB0EF11CF701A081B1818D
:1024E000CE01C5969D01281B390BC901800F911F94
:1024F0008B39910510F5E85CF10988E001900D92A7
:102500008A95E1F7D701ED91FC911197118700872A
:102510008D919C91BE01615F7F4FA8010A960E9438
:10252000CE2AB2E0CB0ED11CF70180819181C80E7A
:10253000D91ED182C08281E06DC080E06BC093382B
:1025400041F6DE01AF52BF4FFE01379688E00190A1
:102550000D928A95E1F7FE01E552FF4FCE010F96ED
:1025600091838083C752DF4F1983088382E052C072
:10257000F7018781873008F02BCFFE01EB52FF4F28
:1025800040815181D70114962D913C911597349734
:102590006F014217530739F4408151812D913C91CD
:1025A0004217530741F2F8E18F9FC0011124FE0149
:1025B000E153FF4F20813181AE01421B530B9A0141
:1025C0002B533F4F281739073CF48AA581608AA70F
:1025D0008FA598A90E94D303FE01379688E0D60103
:1025E00001900D928A95E1F7FE01E552FF4FBE0181
:1025F000615F7F4FA801808191810E94CE2AFE01F8
:10260000E752FF4F11830083C852DF4F888181500A
:10261000888391CFDF91CF911F910F91FF90EF9021
:10262000DF90CF90BF90AF909F908F9008952F92A2
:102630003F924F925F926F927F928F929F92AF9252
:10264000BF92CF92DF92EF92FF920F931F93CF939F
:10265000DF9300D01F92CDB7DEB7DC019A969C9134
:102660009A97892F827091FD19C0FD01E153FF4FA8
:10267000AD014B5C5F4F90FD07C020813181241B71
:10268000350B2937310554F020813181421753072A
:1026900008F47CC19E7F9A969C939A97BB83AA83E9
:1026A0000E94F80B2B013C0110E0CA80DB8027E080
:1026B000C20ED11C2A803B8031E9231A3EEF330A37
:1026C000F4E2AF2EF9E0BF2EEA81FB81E7A4F0A887
:1026D000F701808191818F3F910529F1828193815A
:1026E0008F3F910501F167E1C7010E949A03082F0E
:1026F000017080FD18C06FEFC7010E9420030E9487
:10270000F80BDC01CB0184199509A609B709EA8108
:10271000FB81E7A4F0A8893E9340A105B10528F00C
:1027200081E0F7018787812F31C1C7010E940A0329
:1027300080E60E9419038FEF0E941903982EC701AB
:102740000E940703F0E2F91558F462EEC7010E94F7
:10275000200362E070E080E090E00E94BE0B01C0C8
:10276000092DEA81FB8104AB083038F46AE070E09F
:1027700080E090E00E94BE0BA7CFEA81FB81E7A436
:10278000F0A8F7018781801708F4082FF7019085DA
:10279000911103C0801B898301C01982C7010E9467
:1027A0000A0381E60E9419034601015038F08FEFB9
:1027B0000E941903F40181934F01F7CF098100238F
:1027C00029F08FEF0E9419030150F9CFC7010E9431
:1027D000070340E767E0C7010E943F03EA81FB81EE
:1027E00061857285CB01009759F0282F277026301C
:1027F00008F06ACFE3E096958795EA95E1F7F3CF85
:10280000EA81FB81158582A993A96817790709F0E8
:1028100043C0123809F458CF103891F4643279402B
:10282000F1F0EA81FB81B286A18642E064E279E0C0
:10283000CF010E94DC146AE070E080E090E049C0C3
:10284000133C69F46115710551F0EA81FB817087D1
:1028500067831286118640E060E070E041C0EA8143
:10286000FB8181A5882319F017FF0CC002C0113C21
:1028700049F48CE6810F833028F0183C19F01338A6
:1028800009F051CFB6018A819B810E94B311823039
:1028900009F01ACF83E87AC06034710509F070C07E
:1028A000123C01F5EA81FB8122A523FD0DCF843284
:1028B000F9E09F0709F408CFEA81FB812781308581
:1028C0003287218790878783F101608170E080E003
:1028D00090E00E94BE0BEA81FB816185728542E037
:1028E000CF0151C0B6018A819B810E94B311082F8C
:1028F000EA81FB818081882309F43EC022A933A9A3
:10290000C90153E0969587955A95E1F7892B21F0F7
:102910008CEB92E10197F1F7C901837099279C0133
:1029200048E552E0249FC001259F900D349F900DF3
:1029300011240E94B50BEA81FB8121A9222381F099
:1029400030E021503109C901880F991F280F391F24
:1029500061E070E002C0660F771F2A95E2F702C0BF
:1029600060E070E083E0660F771F8A95E1F744E04E
:102970008A819B810E94DC14023009F0A5CE8ACFA7
:1029800041E08A819B810E94DC149ECE0F900F90C3
:102990000F90DF91CF911F910F91FF90EF90DF90FB
:1029A000CF90BF90AF909F908F907F906F905F90EF
:1029B0004F903F902F900895CF92DF92EF92FF9229
:1029C0000F931F93CF93DF9300D000D0CDB7DEB726
:1029D000FC0195859B012115310561F0822F8770DF
:1029E000863030F483E0369527958A95E1F7F3CF6A
:1029F00080E097C09154EE24E3949F3708F0E12CD7
:102A0000F42E6B018F0119821A821B821C827A8339
:102A100069834B83BE016F5F7F4FCF010E94961089
:102A200069817A812C814B81C8010E94D910F1E023
:102A3000FF1227C0811102C0F12C6AC089819A81DE
:102A40008C159D0501F5EE20F1F081ECF8018587EC
:102A500087819085928781879A838983FB821C82F4
:102A6000BE016F5F7F4FC8010E94961088E0F80199
:102A700084AB69817A812C814B81C8010E94D91075
:102A800002C08823C9F289819A818C159D0519F4A9
:102A9000FF24F3943DC0FF2019F0F3E0FF12F8CFBC
:102AA000EE20B1F3F80182A582FF11C0418152816D
:102AB0006381748187A590A90E943B19F80182A5C2
:102AC0008B7F82A760E087A590A90E940F18F8016C
:102AD00087A590A90E9408040E94F80B6B017C0155
:102AE000C8010E941713813C99F20E94F80BAB01B8
:102AF000BC014C195D096E097F09F8018581968139
:102B0000A0E0B0E084179507A607B70748F794CF71
:102B1000F80182A582FD04C087A590A90E9408043F
:102B20008F2D0F900F900F900F90DF91CF911F91ED
:102B30000F91FF90EF90DF90CF900895EF92FF926A
:102B40000F931F93CF93DF93EC017B01BA018AA906
:102B50009BA9F70191838083DE01179688E001909D
:102B60000D928A95E1F72115310529F0A901CE01D1
:102B70000F960E94CE2AF7016281738108331105F6
:102B800061F06034710511F444E001C043E0601766
:102B9000710709F442E0B80101C040E0CE01DF91C5
:102BA000CF911F910F91FF90EF900C94DC142F9216
:102BB0003F924F925F926F927F928F929F92AF92CD
:102BC000BF92CF92DF92EF92FF920F931F93CF931A
:102BD000DF93EC017B015A01690148010E94F80B67
:102BE0004BA45CA46DA47EA4DC01CB0184199509DF
:102BF000A609B7094997A105B10528F4CE010E949D
:102C0000171387FFEBCF8CE891E00197F1F789E18B
:102C1000C816D104B0F488E08C0D8CAB8401960109
:102C2000A501B701CE010E949E15182F882311F02F
:102C300011E092C00E94F80B6BA77CA78DA79EA7FE
:102C40008BC0E1E9CE16D10408F085C0C60168E169
:102C500070E00E94AF2A21E0892B09F420E0C60130
:102C600068E170E00E94AF2A722E760EF701828131
:102C700093818034910539F08AA584608AA78FA555
:102C800098A90E94D303F7014680512C612C84E956
:102C9000282E96E9392EF7017782F1E07F1204C0E1
:102CA000F7013682478208C0611003C0F70126820F
:102CB00003C085E9F7018683E8E16E9EA001112437
:102CC0009601241B350B2931310510F028E130E045
:102CD00088E0820F8CAB4A0D5B1D8401B701CE01E9
:102CE0000E949E15182F81110BC062E070E080E0F9
:102CF00090E00E94BE0B5394F2E0F51560F606C01A
:102D00007A946394772011F0512CC5CFF701468255
:102D10008AA582FF12C049815A816B817C818FA56F
:102D200098A90E943B19182F8FA598A90E94080402
:102D300060E08FA598A90E940F188AA58B7F8AA7AB
:102D4000112349F0772009F473CF0E94F80B6BA789
:102D50007CA78DA79EA710E0812FDF91CF911F91B7
:102D60000F91FF90EF90DF90CF90BF90AF909F902A
:102D70008F907F906F905F904F903F902F9008952D
:102D8000EF92FF920F931F93CF938C017B0166E02C
:102D90000E949A03C82FC77D82E0E816F10431F43F
:102DA000C0628BE990E0A0E0B0E00DC0EA94EF28AB
:102DB00029F085E590E0A0E0B0E005C0C86081E4BE
:102DC00090E0A0E0B0E0F801808B918BA28BB38BF8
:102DD0004C2F66E0C8010E943F0366E0C8010E94D4
:102DE0009A0391E08C1390E0892FCF911F910F915E
:102DF000FF90EF900895CF93DF93EC016DE10E9477
:102E00009A03482F44606DE1CE010E943F036CE1BC
:102E1000CE010E949A03482F4F636CE1CE010E94BD
:102E20003F0381E08887DF91CF910895009769F093
:102E3000FC0101900020E9F73197AF01481B590BC5
:102E4000BC018BE692E00C94D60880E090E00895F7
:102E50000F931F93CF93DF938C01C0E0D0E0F80174
:102E6000EC0FFD1F6491662371F0E0916B02F0910D
:102E70006C020190F081E02D8BE692E00995892BA0
:102E800011F02196ECCFCE01DF91CF911F910F91E0
:102E90000895CF93DF930E942817EC018AE691E012
:102EA0000E9416178C0F9D1FDF91CF9108952091DE
:102EB0006A0290916902213208F04AC0809146026C
:102EC0008111FCCF32E03093460231E0309345026D
:102ED0003FEF309344021092430220934202A9E450
:102EE000B2E042E252E0FA013E2F341B321718F4EE
:102EF0003D913193F9CF1092210220912102990F37
:102F0000922B9093210290912002913061F41092C3
:102F10002002909121029093BB009091BC0093FD00
:102F2000F8CF95EC01C095EE9093BC0090914602CD
:102F30009230E1F3909144029F3F79F080914402F6
:102F4000803241F080914402803331F084E005C04A
:102F500081E003C082E001C083E010924802109239
:102F60006A02109247020895909146029111FCCF97
:102F700091E090934602909345022FEF20934402F4
:102F800010924302280F20934202909321029091C5
:102F900021029E6E9093210290912002913061F463
:102FA00010922002909121029093BB009091BC005E
:102FB00093FDF8CF95EC01C095EE9093BC009091F5
:102FC00046029130E1F390914302981710F48091FA
:102FD0004302A2E2B2E020E032E0F9019E2F921B10
:102FE000981718F49D919193F9CF0895CF93C82F16
:102FF00081E08093470287E780936902109248023C
:1030000010926A0264EF88E093E00E948F0A6C2FAE
:1030100088E093E00E948F0ACF910C9457171F937A
:10302000CF93DF93EC01162F61E00E949A03482FA3
:10303000112311F0416001C04E7F61E0CE01DF91AC
:10304000CF911F910C943F037F928F929F92AF92EA
:10305000BF92CF92DF92EF92FF920F931F93CF9385
:10306000DF93CDB7DEB728970FB6F894DEBF0FBE5B
:10307000CDBFFC019B012115310559F0822F8770CE
:10308000863008F0E4C0A3E036952795AA95E1F7CD
:10309000F2CF62AB73AB87A590A9DC012D913C9177
:1030A0002F3F310509F4D3C0DC0112962D913C91DC
:1030B00013972F3F310509F4CAC0E72EF62E8F0172
:1030C00060E00E940F18F80187A590A90E94FB16E6
:1030D000D801D2968D919C91D39766E070E00E94C2
:1030E000AF2A482F440F4B5FB0E14B9FA001112442
:1030F000456064E0F80187A590A90E943F0389E13B
:1031000090E0A0E0B0E0F80181839283A383B483D0
:103110008BE490E09683858382A993A940E02FEF0A
:103120003FEFB90168237923672B39F073E0220F51
:10313000331F7A95E1F74F5FF4CFF80141AB20954B
:103140003095E059FE4F3183208363E03695279513
:103150006A95E1F73397A9014823592351834083A6
:103160002115310559F043E0969587954A95E1F789
:1031700053E0369527955A95E1F7F2CFF801E159DA
:10318000FE4F808386E0782E88248394912C7A9455
:10319000FFEF7F1609F454C0672D8F2D9E2D0E94DE
:1031A0004310D8019F96CD90DC90D09729833A8325
:1031B0004B835C836D837E838F839887A72CB12C90
:1031C00071100BC0F601468550E0BE016F5F7F4F66
:1031D000C60109960E94CE2A03C0F1E07F1208C002
:1031E000F501E65AFC4F6491D6011E962C9105C05C
:1031F000F501E65AFC4F649121E0AE014F5F5F4F4D
:10320000C6010E946303F501EC5AFC4F6491F6017C
:103210004781C6010E943F0362E0C6010E949A03F3
:10322000F501E25BFC4FE491940101C0220FEA95A5
:10323000EAF7482F422B62E0C6010E943F03A7CF66
:10324000D8019F968D919C91D0970E940804289652
:103250000FB6F894DEBF0FBECDBFDF91CF911F91A7
:103260000F91FF90EF90DF90CF90BF90AF909F9025
:103270008F907F9008954F925F926F927F928F927E
:103280009F92AF92BF92CF92DF92EF92FF92CF9335
:10329000DF93EC014A015B010E94F80B6B017C019A
:1032A000240135018FE5480E511C611C711C67E13A
:1032B000CE010E949A0384FD39C06FEFCE010E94B7
:1032C000200384FF22C040E167E0CE010E943F035B
:1032D00060E0CE010E940D0361E0CE010E940D036B
:1032E0000E94F80BDC01CB018C199D09AE09BF09C6
:1032F00088159905AA05BB0540F060E0CE010E9443
:103300000D03CE010E943C030FC00E94F80BDC01AC
:10331000CB018C199D09AE09BF09481659066A06EA
:103320007B0628F681E08F8780E005C060E0CE0153
:103330000E940D0381E0DF91CF91FF90EF90DF902D
:10334000CF90BF90AF909F908F907F906F905F9045
:103350004F900895AF92BF92CF92DF92EF92FF927B
:103360000F931F93CF93DF93CDB7DEB728970FB698
:10337000F894DEBF0FBECDBFDC01ED91FC91E432CD
:10338000F94011F480E02AC06901142F5B017C012F
:103390000E94F80BF701808191818432994091F36A
:1033A0001C821B8280910401909105019C012F5F7A
:1033B0003F4F30930501209304019E838D831F832B
:1033C00008E310E09601A501BE016F5F7F4FD701B2
:1033D00018968D919C9119970E94D71528960FB633
:1033E000F894DEBF0FBECDBFDF91CF911F910F913B
:1033F000FF90EF90DF90CF90BF90AF900895CF9364
:1034000028E130E040E764E373E08091320390917B
:1034100033030E94AA19C82F811112C08091320370
:10342000909133030E94BB0781110AC040ED57E021
:1034300060E070E080913203909133030E94FD04BC
:103440008C2FCF9108958F929F92AF92BF920F933E
:103450001F93CF93DF93CDB7DEB7A1970FB6F89444
:10346000DEBF0FBECDBF19A2423008F44AE08E0184
:103470000F5D1F4F842E912CA12CB12CA50194011E
:103480000E949628E62FB901CA0101501109EA30BD
:1034900014F4E05D01C0E95CD801EC93232B242BEC
:1034A000252B61F7C8010E941617A1960FB6F89454
:1034B000DEBF0FBECDBFDF91CF911F910F91BF90A7
:1034C000AF909F908F900895CF93DF93682F70E017
:1034D00080E090E04AE00E94231AEC018AE691E045
:1034E0000E9416178C0F9D1FDF91CF91089590E0D9
:1034F000FC01E555FC4F2491FC01E956FC4F8491F9
:10350000882399F090E0880F991FFC01E357FC4F46
:10351000A591B491FC01ED57FC4F859194918FB723
:10352000F894EC91E22BEC938FBF0895CF92DF9249
:10353000EF92FF92CF93DF936B017C01E0916B02DE
:10354000F0916C020190F081E02D6DE28BE692E04B
:103550000995EC0166277727CB016C197D098E0947
:103560009F094AE00E94231A8C0F9D1FDF91CF9183
:10357000FF90EF90DF90CF900895CF93DF938091ED
:103580006A0390916B030E944E048DE7809377034A
:103590004DE765E080916A0390916B030E943F03C1
:1035A00061E070E080916A0390916B030E94C01605
:1035B000C0916C03D0916D0381E089A7809166036F
:1035C000882399F084E299E09093650380936403E3
:1035D00040E45FE160E070E084E693E00E94FD0477
:1035E00021E0892BB1F420E014C086E090E00E9435
:1035F00037269093680380936703109269031092B3
:1036000065031092640360E070E0CE010E9424180C
:1036100021E0822FDF91CF910895EF92FF920F93D7
:103620001F93CF93DF931F92CDB7DEB7E42E9F9306
:103630008F938DE793E09F938F9369830E94232458
:103640006981E60E0F900F900F900F9005E713E041
:103650006E1599F0FF24F394F60E8EEE94E00E941E
:103660009A031F928F931F930F930E9423240F900E
:103670000F900F900F906F2DEBCF82E793E09F9309
:103680008F930E9423240F900F900F90DF91CF9182
:103690001F910F91FF90EF9008952F923F924F92BC
:1036A0005F926F927F928F929F92AF92BF92CF92D2
:1036B000DF92EF92FF920F931F93CF93DF931F92AE
:1036C000CDB7DEB7562E342E6DB67EB69F938F9350
:1036D0008CE693E09F938F930E942324350C0F90E8
:1036E0000F900F900F9088E6C82E83E0D82E93E6B7
:1036F000A92E93E0B92E531409F452C08DB69EB68C
:103700002091FC04022F10E08DB79EB7801B910B17
:103710000FB6F8949EBF0FBE8DBFEDB7FEB73196C2
:103720007F0122242394250C8EEE94E029830E94AD
:103730000A03852D8F710E941903270129812E0DFF
:10374000241549F08FEF29830E941903F201819318
:103750002F012981F5CF8EEE94E00E940703DF92BE
:10376000CF920E9423240E0D1F1D0F900F90015029
:1037700011090E151F0568F0F80180811F928F93C3
:10378000BF92AF920E9423240F900F900F900F9042
:10379000EECF0FB6F8949EBE0FBE8DBE522CABCFAF
:1037A00080E693E09F938F930E9423240F900F90C5
:1037B0000FB6F8947EBE0FBE6DBE0F90DF91CF9115
:1037C0001F910F91FF90EF90DF90CF90BF90AF903F
:1037D0009F908F907F906F905F904F903F902F9031
:1037E00008950895CF93DF93CDB7DEB7A8970FB6AE
:1037F000F894DEBF0FBECDBF789484B5826084BDDF
:1038000084B5816084BD85B5826085BD85B58160E4
:1038100085BD80916E00816080936E001092810062
:10382000809181008260809381008091810081601D
:1038300080938100809180008160809380008091DE
:10384000B10084608093B1008091B000816080936A
:10385000B00080917A00846080937A0080917A0031
:10386000826080937A0080917A008E7F80937A00C4
:1038700080917A00806880937A001092C10086E07F
:103880000E94771A61E086E00E94690BE0917B025A
:10389000F0917C0282E08083E0917702F0917802DF
:1038A0001082E0917902F0917A0288E08083109290
:1038B0008302E0917F02F091800286E08083E091B4
:1038C0007D02F0917E02808180618083E0917D02A3
:1038D000F0917E02808188608083E0917D02F0918A
:1038E0007E02808180688083E0917D02F0917E027B
:1038F00080818F7D808360E070E08BEF92E00E949A
:10390000D82389E090E00E9417288093010110E2FB
:10391000C12E13E0D12E76010FE010E0C8010E9405
:103920001728F70181937F010F5F1F4F0F3111059A
:10393000A9F781EF90E00E942817809101010E9471
:10394000641A83EE90E00E94281705E611E09E01BC
:103950002F5F3F4F7901F60181916F011F928F9385
:103960001F930F93FF92EF920E94F82AC7010E94C3
:1039700016170F900F900F900F900F900F90F0E38D
:10398000CF16F3E0DF0639F78AE691E00E941617BA
:1039900010929601109295011092480210926A02BC
:1039A0001092460281E0809345021092200261E06D
:1039B00082E10E94690B61E083E10E94690B8091C2
:1039C000B9008E7F8093B9008091B9008D7F80937C
:1039D000B90080E28093B80085E48093BC00B70111
:1039E00080ED0E94ED0D89818535E1F583E08093BE
:1039F000970168E971E08AEA0E94D40D6AE971E0F2
:103A00008CEA0E94D40D6CE971E08EEA0E94D40D1C
:103A10006EE971E080EB0E947C0D60EA71E082EB60
:103A20000E947C0D62EA71E084EB0E947C0D64EAE6
:103A300071E086EB0E94D40D66EA71E088EB0E948B
:103A4000D40D68EA71E08AEB0E94D40D6AEA71E055
:103A50008CEB0E94D40D6CEA71E08EEB0E94D40DC9
:103A600081E001C080E080930F05811104C081E0F6
:103A700091E00E94491780910101823038F48091D1
:103A80002003811101C081E0809301018CE692E066
:103A90000E9449178EEE94E00E944E048EEE94E050
:103AA0000E94FB164FE361E08EEE94E00E943F031C
:103AB0004FEF64E08EEE94E00E943F0366E08EEEEE
:103AC00094E00E949A03482F476066E08EEE94E0EF
:103AD0000E943F0380E592E00E9428178091010137
:103AE000809366030E94641A0E94BD1A6FEF8EEEE7
:103AF00094E00E942003282F30E0982F91701F92AD
:103B00009F9335952795277033273F932F9384FBF9
:103B1000992790F91F929F9385FB992790F91F92FF
:103B20009F9386FB992790F91F929F931F928F93E3
:103B300089E191E09F938F930E94232442E06AE001
:103B400084E192E00E944D1B44E06CE087E092E04B
:103B50000E940D1B41E060E18EEF91E00E944D1B41
:103B600046E061E183EF91E00E940D1B41E061E0DE
:103B70008CEE91E00E940D1B41E062E082EE91E04C
:103B80000E940D1B41E065E08BED91E00E940D1B52
:103B900041E066E082ED91E00E940D1B41E060E0B3
:103BA0008AEC91E00E940D1B42E06CE18CEB91E00D
:103BB0000E940D1B66E08EEE94E00E949A038872CC
:103BC0000FB6F894DEBF0FBECDBF803241F021E0CA
:103BD00090E0883009F020E0E22FF92F02C0E2E007
:103BE000F0E0EE0FFF1FEA54FE4F859194919F93F2
:103BF0008F9384EA91E09F938F930E942324E09116
:103C0000F404F0E0EE0FFF1FE056FE4F8591949113
:103C10009F938F9381E991E09F938F930E94232438
:103C200060E08EEE94E00E949A03182F61E08EEE21
:103C300094E00E949A030FB6F894DEBF0FBECDBF8A
:103C400013FD02C0882329F012FD06C0E1E0F0E078
:103C500005C0E0E0F0E002C0E2E0F0E0EE0FFF1FA0
:103C6000E557FE4F859194919F938F9388E791E05C
:103C70009F938F930E94232466E08EEE94E00E942F
:103C80009A038670E82FF0E0E059FE4F85919491F9
:103C90009F938F938FE591E09F938F930E942324AE
:103CA00086E392E00E94491784B7877F84BF8091A2
:103CB000600088618093600081E280936000809161
:103CC000600080648093600060E086E00E94690B81
:103CD00068EC70E080E090E00E94BE0B61E086E05E
:103CE0000E94690B81E292E00E9428170E94F80B63
:103CF0004AE00E94231A8AE691E00E9416170FB646
:103D0000F894DEBF0FBECDBF84E693E00E94B206FA
:103D10008091AE01882349F180914B0490914C042D
:103D2000815B934041F038F084E693E00E94B20654
:103D30000E942708F1CF8CEB92E00E9449178091F6
:103D4000AE01882381F040ED57E060E070E084E64A
:103D500093E00E94FD04892B31F48AEA92E00E94EC
:103D600049170E94BD1A1092AE018091FD0488236C
:103D700091F08FE892E00E9428176091FD0470E0B6
:103D800080E090E04AE00E94231A8AE691E00E94D7
:103D900016171092FD0480910001882309F440C099
:103DA00087E08093340381E090E090933603809322
:103DB0003503E0913003F091310380E1A7E3B3E0F4
:103DC00001900D928A95E1F70FE028E130E044E49C
:103DD00064E373E080913203909133030E94AA1947
:103DE000182F811114C080913203909133030E94E7
:103DF000BB0781110AC040ED57E060E070E08091A0
:103E00003203909133030E94FD040150F1F691E0DA
:103E1000812F89278093AE0188E792E00E9449179D
:103E20008EE480937C0062E070E080E090E00E948D
:103E3000BE0B80917A00806480937A0080917A0032
:103E400086FDFCCF209178008091790030E0382BFE
:103E5000032E000C440B550B64EB7BE281E190E0F8
:103E60000E942D28922FE32F742F652F8091160327
:103E7000882311F18E3008F08E5087708064809313
:103E80007C0080917A00806480937A0080917A002F
:103E900086FDFCCFA091780080917900B0E0B82B2E
:103EA000292F3E2F472F562F0E9457282FEF33E000
:103EB00040E050E00E942D282093190330931A030C
:103EC00040931B0350931C0380911D03853008F021
:103ED00058C0DA01C9018E549C40A109B10984314E
:103EE0009140A105B10530F48EE193E00E942817BE
:103EF00011E010C022363D404105510530F088E008
:103F000093E00E94281713E005C087EF92E00E941B
:103F1000281712E06091190370911A0380911B0316
:103F200090911C034AE00E94231A8AE691E00E94C5
:103F3000161780911E03811106C010931E0381E0A5
:103F400080931D031EC081131AC080911D038F5FD3
:103F500080931D0384EE92E00E94281760911E0357
:103F600070E080E090E04AE00E94231A80ED92E049
:103F70000E94281780911D030E94641A02C01092AB
:103F80001E0380911E03813009F478C0833009F04C
:103F90005AC08091190390911A03A0911B03B0910C
:103FA0001C03893620E19207A105B10508F066C01F
:103FB0008F363FE09307A105B105A8F09C01AD0144
:103FC0002E563F4041095109A4E1B0E00E944C281F
:103FD0002AEF30E040E050E00E942D28205B3F4F68
:103FE0004F4F5F4F53C081316EE09607A105B10579
:103FF000A8F09C01AD0120513E4041095109ACE3BC
:10400000B0E00E944C282EE531E040E050E00E94F4
:104010002D282C5E3F4F4F4F5F4F38C08D38EAE060
:104020009E07A105B10578F19C01AD012C583A40DD
:1040300041095109A4E1B0E00E944C2824E833E092
:1040400040E050E018C08230F1F480911903909163
:104050001A03A0911B03B0911C039C01AD012C58C5
:104060003A4041095109A4E6B0E00E944C2822ECF4
:1040700031E040E050E00E942D2808C024E630E006
:1040800040E050E003C020E030E0A90125363105D2
:104090004105510518F420931F0303C085E6809362
:1040A0001F038091AE01811120C280910F058823EA
:1040B00009F4A3C0B70188E095E00E94F80F20E062
:1040C00030E0A9016D897E898F89988D0E94C7286B
:1040D000882309F469C0CE0185960E94AD0D8091B8
:1040E000A2019091A3014DA15EA16FA178A59A01B3
:1040F000AB01281B390B41095109A091A001B091D6
:10410000A1010E944C284B015C013FE0B594A794AB
:10411000979487943A95D1F76091AA017091AB0179
:10412000CB01770FAA0BBB0BBC01CD014BE0660F97
:10413000771F881F991F4A95D1F72091AC013091C4
:10414000AD018901330F220B330BA9019801280D12
:10415000391D4A1D5B1D0E942D28D501C401820F07
:10416000931FA41FB51F0896A11DB11DBC01CD0151
:1041700054E095958795779567955A95D1F70E9464
:10418000762920E030E040E251E40E94CC2820E093
:1041900030E040E251E40E94262A0E943E297093BA
:1041A00011056093100506C080E090E8909311051A
:1041B0008093100520E030E0A9016D897E898F8908
:1041C000988D0E94C7288823F1F0BE016B5D7F4F58
:1041D00088E095E00E94110E20E030E040E251E4DA
:1041E0006DA17EA18FA198A50E94CC280E943E2996
:1041F00070931305609312050CC080E090E89093D3
:104200001105809310058FEF90E090931305809334
:10421000120580911E03813011F002E001C005E01B
:1042200087E08093340321E031E03093360320931C
:10423000350383E090E09093380380933703E09157
:104240003003F091310380E1A9E3B3E001900D92D6
:104250008A95E1F710E028E130E040E564E373E09F
:1042600080913203909133030E94AA19D82E8111B4
:1042700012C080913203909133030E94BB078111D9
:104280000AC040ED57E060E070E080913203909109
:1042900033030E94FD041F5FD11002C01013DBCF57
:1042A000D092AF0184E693E00E94B206E091060549
:1042B000F09107050190F081E02D86E095E00995E9
:1042C0006C01E0910605F09107050280F381E02D75
:1042D00086E095E0099507E00093340323E031E0A0
:1042E0003093360320933503E1E0F0E0F093380398
:1042F000E0933703D0923A03C092390390933C0382
:1043000080933B030E94FF19182F8093AF0184E62E
:1043100093E00E94B206112309F444C0E091140313
:10432000F09115030190F081E02D84E193E009956F
:104330004B015C01E0911403F09115030280F381BD
:10434000E02D84E193E00995182FE0911403F0919A
:1043500015030480F581E02D84E193E00995009335
:10436000340324E031E0309336032093350322E018
:1043700030E03093380320933703809239039092D2
:104380003A03A0923B03B0923C0310933D03809309
:104390003E030E94FF19182F8093AF0184E693E03B
:1043A0000E94B20681E018271093AE0111119DC042
:1043B0000E94F80B1B012C0180911E03813019F41F
:1043C00080E49CE902C084EF91E0712C00E028ECCD
:1043D000622E4C01A12CB12C0E94F80BDC01CB0108
:1043E00082199309A409B50988159905AA05BB0581
:1043F00008F074C0043011F00F5F10C0772011F086
:10440000639401C06A94F4E16F1629F024EB621200
:1044100004C0712C02C07724739400E0C62CD12C08
:1044200086E00E94771AC114D10411F460E005C03F
:104430003FEFC316D10429F461E086E00E94690BC6
:1044400044C0EAE3F3E084918330F9F048F481302A
:10445000B9F08230A1F584B5806284BD68BC35C0F6
:104460008730E9F0883019F1843049F58091800077
:10447000806280938000D0928B00C0928A0025C019
:1044800084B5806884BD67BC20C08091800080684E
:1044900080938000D0928900C092880016C08091DD
:1044A000B00080688093B0006092B3000EC080912D
:1044B000B00080628093B0006092B40006C0F0E863
:1044C000CF16D1040CF0B8CFB1CF84E693E00E94B0
:1044D000B2060E94270881117FCF05C061E086E007
:1044E0000E94690B11E01093AE0180911E03813090
:1044F00009F48FC088E493E00E9449176BE470E0F0
:1045000080E090E00E94BE0B80916403909165036F
:104510008432994071F11C821B8280910401909138
:1045200005019C012F5F3F4F30930501209304014B
:104530009E838D8385EC8F8308E310E020E030E0DC
:1045400040E050E0B70180916C0390916D030E94B0
:10455000D715882371F064E279E080916C03909123
:104560006D030E94241884E299E090936503809380
:10457000640360E08EEE94E00E940D0360E08EEE36
:1045800094E00E949A03482F4D7F60E08EEE94E005
:104590000E943F0360E086E00E94690B83B7817F41
:1045A000846083BF8091170391E0980F9093170365
:1045B00090911803891750F483B7816083BF83B744
:1045C000816083BF889583B78E7FEBCF83B78E7F63
:1045D00083BF809164008071809364001092170300
:1045E00061E086E00E94690B8EEE94E00E94BA03BF
:1045F0008EEE94E00E94080448EE53E060E070E024
:1046000084E693E00E94FD041092030110920201DF
:1046100024C08091AE01882301F180900101912C8A
:1046200030E3831A38EF930A880C991C880C991C84
:104630008DE691E00E941617092C000CAA08BB0811
:104640004AE0C501B4010E94231A8AE691E00E9463
:104650001617C501B4010E94BE0B0E94D20954CBAB
:10466000CF93DF93EBE6F2E01382128288EE93E0C1
:10467000A0E0B0E084839583A683B78327E131E08F
:104680003183208325EC30E03587248724EC30E02B
:104690003787268720EC30E0318B208B21EC30E00F
:1046A000338B228B22EC30E0358B248B26EC30E0F0
:1046B000378B268B118E128E138E148EE8E0F3E06A
:1046C0001382128284839583A683B78389E291E063
:1046D00091838083E6E0F5E081E691E09183808339
:1046E00085E491E09383828385E697E2A0E0B0E0E1
:1046F00085839683A783B0871186EEEEF4E087E08A
:1047000090E09183808388E090E093838283168297
:1047100080E28783108685E0868745E050E060E090
:1047200070E0448B558B668B778B1186ACE7B3E0DA
:10473000D096FC93EE939F9721EB33E030934C049B
:1047400020934B0429E534E0309358042093570418
:104750002DE434E098963C932E9397979B961D9268
:104760001D921D921C929E979A961C929A979996CA
:104770001C9299971C92C4E6D3E0FF83EE83B9871D
:10478000A887E0E3F3E020E233E031832083D383A2
:10479000C283E4E1F3E02BE331E031832083128232
:1047A00013828483118612861386DF91CF91089538
:1047B0000F931F93CF93DF93009731F46115710529
:1047C00019F480E090E03AC08B01EC016EE070E0FB
:1047D00081E090E00E941B26FC01892B91F380E888
:1047E00083830115110571F01387028781E88383A4
:1047F0008091140590911505892B21F4F0931505EE
:10480000E09314052097C9F0D187C0878381826027
:1048100083838091160590911705892B71F4F0938D
:104820001705E09316058091180590911905892BBD
:1048300021F4F0931905E0931805CF01DF91CF9192
:104840001F910F910895A0E0B0E0E9E2F4E20C942A
:104850006D28AE01495F5F4FDA016D917D91AD0129
:1048600004E115E0F80182819381DC0113962C911B
:104870001397286013962C930E944924D80112960E
:10488000ED91FC9113972381277F2383E4E00C941F
:104890008928ACE0B0E0EFE4F4E20C945F287C01FE
:1048A0006B018A01FC0117821682838181FFBDC1E1
:1048B000CE0101964C01F7019381F60193FD85919C
:1048C00093FF81916F01882309F4ABC1853239F4DC
:1048D00093FD859193FF81916F01853229F4B70192
:1048E00090E00E948127E7CF512C312C20E020322C
:1048F000A0F48B3269F030F4803259F0833269F4DD
:1049000020612CC08D3239F0803339F4216026C00B
:104910002260246023C0286021C027FD27C030ED1D
:10492000380F3A3078F426FF06C0FAE05F9E300D6B
:104930001124532E13C08AE0389E300D1124332EDB
:1049400020620CC08E3221F426FD6BC1206406C0AB
:104950008C3611F4206802C0883641F4F60193FDCC
:10496000859193FF81916F018111C1CF982F9F7D18
:104970009554933028F40C5F1F4FFFE3F9830DC06B
:10498000833631F0833771F0833509F05BC022C084
:10499000F801808189830E5F1F4F44244394512C7A
:1049A000540115C03801F2E06F0E711CF801A080AF
:1049B000B18026FF03C0652D70E002C06FEF7FEF6E
:1049C000C5012C870E9476272C0183012C852F7727
:1049D000222E17C03801F2E06F0E711CF801A08082
:1049E000B18026FF03C0652D70E002C06FEF7FEF3E
:1049F000C5012C870E9464272C012C852068222E5B
:104A0000830123FC1BC0832D90E048165906B0F4A7
:104A1000B70180E290E00E9481273A94F4CFF5013B
:104A200027FC859127FE81915F01B70190E00E94EC
:104A3000812731103A94F1E04F1A51084114510482
:104A400071F7E5C0843611F0893639F5F80127FF92
:104A500007C060817181828193810C5F1F4F08C004
:104A600060817181072E000C880B990B0E5F1F4F20
:104A70002F76722E97FF09C090958095709561955D
:104A80007F4F8F4F9F4F2068722E2AE030E0A401A5
:104A90000E94B927A82EA81844C0853729F42F7E74
:104AA000B22E2AE030E025C0F22FF97FBF2E8F36DC
:104AB000C1F018F4883579F0B4C0803719F0883720
:104AC00021F0AFC02F2F2061B22EB4FE0DC08B2D70
:104AD0008460B82E09C024FF0AC09F2F9660B92EAB
:104AE00006C028E030E005C020E130E002C020E14F
:104AF00032E0F801B7FE07C0608171818281938145
:104B00000C5F1F4F06C06081718180E090E00E5FF6
:104B10001F4FA4010E94B927A82EA818FB2DFF77CC
:104B20007F2E76FE0BC0372D3E7FA51450F474FE09
:104B30000AC072FC08C0372D3E7E05C0BA2C372D46
:104B400003C0BA2C01C0B52C34FF0DC0FE01EA0D24
:104B5000F11D8081803311F4397E09C032FF06C017
:104B6000B394B39404C0832F867809F0B39433FDD3
:104B700013C030FF06C05A2CB31418F4530C5B1842
:104B8000B32CB31468F4B70180E290E03C870E9434
:104B90008127B3943C85F5CFB31410F43B1801C0C2
:104BA000312C34FF12C0B70180E390E03C870E94B3
:104BB00081273C8532FF17C031FD03C088E790E0B4
:104BC00002C088E590E0B7010CC0832F867859F0C9
:104BD00031FF02C08BE201C080E237FD8DE2B701F8
:104BE00090E00E948127A51438F4B70180E390E09B
:104BF0000E9481275A94F7CFAA94F401EA0DF11D7F
:104C00008081B70190E00E948127A110F5CF332069
:104C100009F451CEB70180E290E00E9481273A94D6
:104C2000F6CFF7018681978102C08FEF9FEF2C9618
:104C3000E2E10C947B280F931F93CF93DF93869F21
:104C40008001879F100D969F100D1124C8010E94AE
:104C50003726EC01009729F0A80160E070E00E947F
:104C60006F27CE01DF91CF911F910F910895CF93C0
:104C7000DF938230910510F482E090E0E0911C0512
:104C8000F0911D0520E030E0C0E0D0E0309711F158
:104C90004081518148175907C0F04817590761F4FE
:104CA00082819381209719F09B838A832BC09093F4
:104CB0001D0580931C0526C02115310519F04217EA
:104CC000530718F49A01BE01DF01EF010280F3815E
:104CD000E02DDCCF2115310509F1281B390B2430DB
:104CE000310590F412968D919C9113976115710581
:104CF00021F0FB019383828304C090931D05809370
:104D00001C05FD01329644C0FD01E20FF31F8193A3
:104D10009193225031092D933C933AC020911A056A
:104D200030911B05232B41F420910801309109019A
:104D300030931B0520931A0520910601309107013D
:104D40002115310541F42DB73EB740910A0150912C
:104D50000B01241B350BE0911A05F0911B05E2179E
:104D6000F307A0F42E1B3F0B2817390778F0AC018E
:104D70004E5F5F4F2417350748F04E0F5F1F50936B
:104D80001B0540931A058193919302C0E0E0F0E087
:104D9000CF01DF91CF9108950F931F93CF93DF93AE
:104DA000009709F48CC0FC013297138212820091A3
:104DB0001C0510911D050115110581F4208131811B
:104DC000820F931F20911A0530911B052817390770
:104DD00079F5F0931B05E0931A0571C0D80140E006
:104DE00050E0AE17BF0750F412962D913C911397E7
:104DF000AD012115310509F1D901F3CF9D01DA018A
:104E00003383228360817181860F971F82179307F6
:104E100069F4EC0128813981260F371F2E5F3F4F3F
:104E2000318320838A819B8193838283452B29F45C
:104E3000F0931D05E0931C0542C01396FC93EE937E
:104E40001297ED01499159919E01240F351FE217E8
:104E5000F30771F480819181840F951F029611965A
:104E60009C938E938281938113969C938E93129739
:104E7000E0E0F0E0D80112968D919C911397009795
:104E800019F0F8018C01F6CF8D919C9198012E5F5D
:104E90003F4F820F931F20911A0530911B05281751
:104EA000390769F4309729F410921D0510921C05FA
:104EB00002C01382128210931B0500931A05DF9122
:104EC000CF911F910F910895FC01059061507040A2
:104ED0000110D8F7809590958E0F9F1F0895DC01E3
:104EE00001C06D9341505040E0F70895FC016150BE
:104EF000704001900110D8F7809590958E0F9F1FFC
:104F000008950F931F93CF93DF93FB01238121FD1E
:104F100003C08FEF9FEF28C022FF16C04681578144
:104F2000248135814217530744F4A081B1819D014A
:104F30002F5F3F4F318320838C93268137812F5FF2
:104F40003F4F3783268310C0EB01092F182F0084B1
:104F5000F185E02D0995892BE1F68E819F810196DF
:104F60009F838E83812F902FDF91CF911F910F917F
:104F70000895FA01AA27283051F1203181F1E894EF
:104F80006F936E7F6E5F7F4F8F4F9F4FAF4FB1E03C
:104F90003ED0B4E03CD0670F781F891F9A1FA11D37
:104FA000680F791F8A1F911DA11D6A0F711D811D38
:104FB000911DA11D20D009F468943F912AE0269FFD
:104FC00011243019305D3193DEF6CF010895462F5C
:104FD0004770405D4193B3E00FD0C9F7F6CF462F3D
:104FE0004F70405D4A3318F0495D31FD40524193A6
:104FF00002D0A9F7EACFB4E0A69597958795779563
:105000006795BA95C9F700976105710508959B01E9
:10501000AC010A2E06945795479537952795BA9572
:10502000C9F7620F731F841F951FA01D0895F9997A
:10503000FECF92BD81BDF89A992780B50895262F9D
:10504000F999FECF1FBA92BD81BD20BD0FB6F8946D
:10505000FA9AF99A0FBE01960895052E97FB1EF451
:1050600000940E94442857FD07D00E94962807FC10
:1050700003D04EF40C9444285095409530952195DA
:105080003F4F4F4F5F4F0895909580957095619574
:105090007F4F8F4F9F4F08950E94B828A59F900D76
:1050A000B49F900DA49F800D911D11240895B7FF0A
:1050B0000C944C280E944C28821B930B08952F922D
:1050C0003F924F925F926F927F928F929F92AF9298
:1050D000BF92CF92DF92EF92FF920F931F93CF93E5
:1050E000DF93CDB7DEB7CA1BDB0B0FB6F894DEBF7C
:1050F0000FBECDBF09942A88398848885F846E84A2
:105100007D848C849B84AA84B984C884DF80EE80EB
:10511000FD800C811B81AA81B981CE0FD11D0FB6F4
:10512000F894DEBF0FBECDBFED010895A1E21A2EA7
:10513000AA1BBB1BFD010DC0AA1FBB1FEE1FFF1F3B
:10514000A217B307E407F50720F0A21BB30BE40B8B
:10515000F50B661F771F881F991F1A9469F76095D2
:105160007095809590959B01AC01BD01CF0108958C
:10517000A29FB001B39FC001A39F700D811D112498
:10518000911DB29F700D811D1124911D08950E94E3
:10519000B12908F481E008950E94E0280C94EC29DC
:1051A0000E94E52958F00E94DE2940F029F45F3F73
:1051B00029F00C94D52951110C94202A0C94DB2948
:1051C0000E94FD2968F39923B1F3552391F3951BB0
:1051D000550BBB27AA2762177307840738F09F5F18
:1051E0005F4F220F331F441FAA1FA9F335D00E2E85
:1051F0003AF0E0E832D091505040E695001CCAF7F2
:105200002BD0FE2F29D0660F771F881FBB1F2617B4
:1052100037074807AB07B0E809F0BB0B802DBF018B
:10522000FF2793585F4F3AF09E3F510578F00C945A
:10523000D5290C94202A5F3FE4F3983ED4F3869559
:1052400077956795B795F7959F5FC9F7880F911D7B
:105250009695879597F90895E1E0660F771F881F67
:10526000BB1F621773078407BA0720F0621B730B1A
:10527000840BBA0BEE1F88F7E09508950E9445292C
:105280006894B1110C94202A08950E94052A88F090
:105290009F5798F0B92F9927B751B0F0E1F0660FFA
:1052A000771F881F991F1AF0BA95C9F714C0B1303B
:1052B00091F00E941F2AB1E008950C941F2A672FD5
:1052C000782F8827B85F39F0B93FCCF3869577956A
:1052D0006795B395D9F73EF4909580957095619553
:1052E0007F4F8F4F9F4F0895E89409C097FB3EF47E
:1052F00090958095709561957F4F8F4F9F4F992323
:10530000A9F0F92F96E9BB279395F69587957795A0
:105310006795B795F111F8CFFAF4BB0F11F460FF60
:105320001BC06F5F7F4F8F4F9F4F16C0882311F0B8
:1053300096E911C0772321F09EE8872F762F05C0CC
:10534000662371F096E8862F70E060E02AF09A9567
:10535000660F771F881FDAF7880F9695879597F95C
:105360000895990F0008550FAA0BE0E8FEEF1616F6
:105370001706E807F907C0F012161306E407F50749
:1053800098F0621B730B840B950B39F40A2661F0BD
:10539000232B242B252B21F408950A2609F4A14060
:1053A000A6958FEF811D811D089597F99F6780E86D
:1053B00070E060E008959FEF80EC089500240A9467
:1053C0001616170618060906089500240A941216E0
:1053D0001306140605060895092E0394000C11F413
:1053E000882352F0BB0F40F4BF2B11F460FF04C0C0
:1053F0006F5F7F4F8F4F9F4F089557FD9058440F19
:10540000551F59F05F3F71F04795880F97FB991F23
:1054100061F09F3F79F087950895121613061406E0
:10542000551FF2CF4695F1DF08C01616170618066D
:10543000991FF1CF86957105610508940895E89448
:10544000BB2766277727CB0197F908950E94392A51
:105450000C94EC290E94DE2938F00E94E52920F006
:10546000952311F00C94D5290C94DB2911240C946C
:10547000202A0E94FD2970F3959FC1F3950F50E0FB
:10548000551F629FF001729FBB27F00DB11D639FF6
:10549000AA27F00DB11DAA1F649F6627B00DA11D9C
:1054A000661F829F2227B00DA11D621F739FB00D42
:1054B000A11D621F839FA00D611D221F749F3327B2
:1054C000A00D611D231F849F600D211D822F762F4B
:1054D0006A2F11249F5750409AF0F1F088234AF028
:1054E000EE0FFF1FBB1F661F771F881F9150504094
:1054F000A9F79E3F510580F00C94D5290C94202AE1
:105500005F3FE4F3983ED4F3869577956795B7951A
:10551000F795E7959F5FC1F7FE2B880F911D969534
:10552000879597F90895DB018F939F930E944C28EC
:10553000BF91AF91A29F800D911DA39F900DB29F2F
:10554000900D11240895991B79E004C0991F9617B6
:1055500008F0961B881F7A95C9F780950895AA1BB5
:10556000BB1B51E107C0AA1FBB1FA617B70710F04E
:10557000A61BB70B881F991F5A95A9F78095909580
:10558000BC01CD010895EE0FFF1F0590F491E02DB1
:10559000099481E090E0F8940C941B2BFB01DC0152
:1055A00002C001900D9241505040D8F708956817FD
:1055B000790768F4FB01DC01E40FF51FA40FB51FA8
:1055C00002C002900E9241505040D8F708950C94BA
:1055D000CE2AFB01DC014150504048F001900D9271
:1055E0000020C9F701C01D9241505040E0F70895D6
:1055F000AEE0B0E0EEEFFAE20C946D280D891E8962
:1056000086E08C831A8309838FEF9FE79E838D83C7
:10561000AE01475E5F4F6F89788DCE0101960E9483
:1056200049242F813885F801E20FF31F10822E964E
:10563000E4E00C94892811E0C1EED1E004C0FE0141
:105640000E94C32A2196C23ED107C9F7F894FFCF22
:1056500001010100010000001E058000C33C33CEA3
:105660003EE3EC000000006909D6080109B00932E8
:105670000910092409000000008F0A5F0ABF0A33DD
:105680000A570A430A340A000000003B0238020DA0
:1056900002000000002608F9020C02F80FC40A00FC
:1056A000000000000000000C02C20AC20A00000054
:1056B000004502410225303258000D0A0045727241
:1056C000657572206D6573682C207265636F6E6EF0
:1056D00065637465722061707265732000424D507D
:0456E0003038350029
:107800000C94343C0C94513C0C94513C0C94513CE1
:107810000C94513C0C94513C0C94513C0C94513CB4
:107820000C94513C0C94513C0C94513C0C94513CA4
:107830000C94513C0C94513C0C94513C0C94513C94
:107840000C94513C0C94513C0C94513C0C94513C84
:107850000C94513C0C94513C0C94513C0C94513C74
:107860000C94513C0C94513C11241FBECFEFD8E036
:10787000DEBFCDBF11E0A0E0B1E0EAE8FFE702C063
:1078800005900D92A230B107D9F712E0A2E0B1E065
:1078900001C01D92AD30B107E1F70E942D3D0C945F
:1078A000C33F0C94003C982F95959595959595958B
:1078B000905D8F708A307CF0282F295A8091C0000B
:1078C00085FFFCCF9093C6008091C00085FFFCCF60
:1078D0002093C6000895282F205DF0CF982F809127
:1078E000C00085FFFCCF9093C6000895EF92FF92F1
:1078F0000F931F93EE24FF2487018091C00087FD22
:1079000017C00894E11CF11C011D111D81E2E8164D
:1079100081EAF80687E0080780E0180770F3E09135
:107920000401F091050109958091C00087FFE9CF1E
:107930008091C6001F910F91FF90EF9008950E94D3
:10794000763C982F8091C00085FFFCCF9093C600B5
:1079500091362CF490330CF09053892F089597555D
:10796000892F08951F930E949F3C182F0E949F3CCF
:107970001295107F810F1F9108951F93182F882350
:1079800021F00E94763C1150E1F71F9108951F935A
:10799000182F0E94763C803249F0809103018F5F5E
:1079A000809303018530C1F01F9108958091C0003C
:1079B00085FFFCCF84E18093C6008091C00085FFE5
:1079C000FCCF1093C6008091C00085FFFCCF80E102
:1079D0008093C6001F910895E0910401F091050184
:1079E00009951F9108950E94763C803241F0809164
:1079F00003018F5F80930301853081F008958091AA
:107A0000C00085FFFCCF84E18093C6008091C00058
:107A100085FFFCCF80E18093C6000895E0910401CA
:107A2000F09105010995089548EC50E08823A1F0F4
:107A30002D9A28EE33E0FA013197F1F721503040CA
:107A4000D1F72D9828EE33E0FA013197F1F7215064
:107A50003040D1F7815061F708953F924F925F9285
:107A60006F927F928F929F92AF92BF92CF92DF924E
:107A7000EF92FF920F931F93CF93DF93000082E06A
:107A80008093C00080E18093C4001092C50088E11B
:107A90008093C10086E08093C2005098589A259A3E
:107AA00081E00E94143D24E1F22E9EE1E92E85E959
:107AB000D82E0FE0C02E10E1B12EAA24A394B1E479
:107AC0009B2EA6E58A2EF2E57F2EE0E26E2E79E46B
:107AD000572E63E5462E50E5352E0E94763C8033C6
:107AE000B1F18133B9F1803409F46FC0813409F404
:107AF00076C0823409F485C0853409F488C08035A5
:107B000031F1823521F1813511F1853509F485C0D6
:107B1000863509F48DC0843609F496C0843709F49B
:107B200003C1853709F472C1863709F466C08091B4
:107B300003018F5F80930301853079F6E0910401A2
:107B4000F091050109950E94763C803351F60E9420
:107B5000F33CC3CF0E94763C803249F78091C0004D
:107B600085FFFCCFF092C6008091C00085FFFCCF5E
:107B70009092C6008091C00085FFFCCF8092C60025
:107B80008091C00085FFFCCF7092C6008091C0003C
:107B900085FFFCCF6092C6008091C00085FFFCCFBE
:107BA0005092C6008091C00085FFFCCF4092C60075
:107BB0008091C00085FFFCCF3092C6008091C0004C
:107BC00085FFFCCFB092C60088CF0E94763C8638F5
:107BD00008F4BDCF0E94763C0E94F33C7ECF0E9409
:107BE000763C803809F49CC0813809F40BC1823896
:107BF00009F430C1883909F48FC080E00E94C73C85
