:100000000C94EF010C9417020C9417020C94170235
:100010000C9417020C9417020C946B070C941702A3
:100020000C9417020C9417020C9417020C941702EC
:100030000C9417020C9417020C9417020C941702DC
:100040000C94A6150C9417020C9478140C9452146A
:100050000C9417020C9417020C9417020C941702BC
:100060000C94F0150C94170250415F4D415800500C
:10007000415F484947480050415F4C4F570050414D
:100080005F4D494E0031362062697473003820623A
:100090006974730044697361626C6564006E5246F2
:1000A00032344C30312B006E524632344C303100F9
:1000B0003235304B42505300324D42505300314D97
:1000C00042505300555549442073656E73657572EF
:1000D00020004E6F646549442073656E73657572C8
:1000E00020005354415455530909203D20307825B0
:1000F0003032782052585F44523D25782054585F62
:1001000044533D2578204D41585F52543D25782079
:1001100052585F505F4E4F3D25782054585F4655EA
:100120004C4C3D25780D0A00504120506F77657288
:1001300009203D2025530D0A007E0077006F0068DE
:1001400000435243204C656E67746809203D2025AA
:10015000530D0A0094008D0085004D6F64656C0995
:1001600009203D2025530D0A00A7009D004461741D
:1001700061205261746509203D2025530D0A00BE9F
:1001800000B800B00044594E50442F4645415455E4
:10019000524500434F4E464947090052465F53457A
:1001A0005455500052465F43480900454E5F52582F
:1001B0004144445200454E5F4141090052585F504E
:1001C000575F50302D360054585F41444452090067
:1001D00052585F414444525F50322D350052585FAF
:1001E000414444525F50302D310053657475702086
:1001F0007465726D696E652061707265732000436D
:100200006F6E6E6578696F6E206D65736820696EBC
:10021000697469616C69736500436F6E6E657869B6
:100220006F6E206D6573682061766563206E6F6404
:100230006549642000536574757020726164696F4C
:10024000005265717565746520444843502074728E
:10025000616E736D69736500486172647761726580
:10026000206661696C757265206465746563746588
:10027000642000526564656D617272616765207209
:100280006164696F005265636F6E6E6578696F6E49
:10029000206175206D65736800206E6220636F6E4B
:1002A0006669726D6174696F6E733A2000436F6E98
:1002B0006669726D6174696F6E2074797065200073
:1002C000416C696D656E746174696F6E2041412087
:1002D00000416C696D656E746174696F6E206C6944
:1002E000746869756D2000416C696D656E74617428
:1002F000696F6E207365637465757220004448549D
:10030000204572726F723A00005EBCE2613FDD838D
:10031000C29C7E20A3FD1F41009D23BE46DB65F8E5
:100320008C11AF32CA57E9740000000800020100C6
:10033000000304070000000000000000536C656526
:1003400070004E6F7576656175206E6F646520690B
:1003500064207265637520646520444843503A20E8
:10036000000001020304051112131415160A0B0CE8
:100370000D0E0F00000000230026002900040404D5
:10038000040404040402020202020203030303033E
:10039000030102040810204080010204081020011B
:1003A000020408102000000000240027002A00009A
:1003B000000000250028002B000D0A0025303278AF
:1003C0000020307800255309203D000D0A00203020
:1003D000782530327800255309203D000C22112465
:1003E0001FBECFEFD8E0DEBFCDBF11E0A0E0B1E08F
:1003F000E2E6F3E502C005900D92AE39B107D9F7F8
:1004000024E0AEE9B1E001C01D92A63FB207E1F7DA
:1004100011E0CFEED1E004C02197FE010E946629D1
:10042000CE3ED107C9F70E94D0190C94AF290C9485
:100430000000FC0121893289232B71F420E030E097
:1004400040E251E462817381848195810E94B128E8
:100450000E941528CB0108958FEF90E00895FC01CC
:1004600021893289232B71F420E030E040E251E40D
:1004700066817781808591850E94B1280E94152828
:10048000CB01089580E090E80895FC0182858330D7
:1004900089F44581568167817085483B8BE0580718
:1004A00061057105D8F081E04C3A5D406105710548
:1004B000B0F012C0823081F4458156816781708529
:1004C000443B8AE058076105710540F081E0473DF3
:1004D0005A406105710518F080E0089582E00895A2
:1004E000FC0183850895FC01658176818781908573
:1004F0000895419608954D9608958F929F92AF92D8
:10050000BF92EF92FF920F931F93CF93DF93CDB7DC
:10051000DEB72A970FB6F894DEBF0FBECDBFFC0141
:100520007A876987262F372F2F3F8FEF380711F4EF
:1005300082811CC02115310509F464C0808191813C
:100540000097B1F4558140E001C04F5F451709F4B1
:1005500056C0A381B481A80FB91F039611966D915F
:100560007C9112976217730781F78C9190E04CC0D1
:100570008432994009F443C07F011C821B82809120
:100580000401909105019C012F5F3F4F30930501BD
:10059000209304019E838D8386EC8F8308E310E013
:1005A00022E030E0AE01475F5F4FBE016F5F7F4FDB
:1005B000808591850E94D60C882309F10E949A15A6
:1005C0004B015C01F701808591850E94110B863CEF
:1005D00071F00E949A15DC01CB0188199909AA09CA
:1005E000BB098E379105A105B10560F308C0D7019D
:1005F0001896ED91FC9119978785908905C08FEF2A
:100600009FEF02C080E090E02A960FB6F894DEBF1C
:100610000FBECDBFDF91CF911F910F91FF90EF9053
:10062000BF90AF909F908F900895CF93C82F682F61
:1006300081EA91E00E9474138C2FCC0F990BCF911B
:100640000895FC0120813181828193812817390727
:1006500019F0822F0C94AA140895CF93DF93EC0124
:100660009CB59F7D9CBD9CB5937F9CBD9CB59C7F9C
:100670009CBD9DB591609DBD8A810E94AA148C8904
:100680009D89DF91CF910C94321561E00C942D037C
:1006900060E00C942D038EBD00000DB407FEFDCF6D
:1006A0008EB50895CF92DF92EF92FF920F931F9332
:1006B000CF93DF9300D01F92CDB7DEB77C01142F0C
:1006C0002A835B8369830E9448036981862F8F7127
:1006D00080620E944B03082FC12E5B81D52E2A8198
:1006E000120F1C1531F0F60181916F010E944B032E
:1006F000F8CFC7010E944503802F0F900F900F90F5
:10070000DF91CF911F910F91FF90EF90DF90CF90ED
:100710000895EF92FF921F93CF93DF931F92CDB76F
:10072000DEB77C0169830E9448036981862F8F713F
:100730000E944B038FEF0E944B03182FC7010E94AA
:100740004503812F0F90DF91CF911F91FF90EF9084
:1007500008952F923F924F925F926F927F928F9265
:100760009F92AF92BF92CF92DF92EF92FF920F9340
:100770001F93CF93DF93CDB7DEB768970FB6F8948A
:10078000DEBF0FBECDBF7C012A013B0167E1DC016A
:1007900016968D919C9117970E94890380FD03C046
:1007A00080E090E072C1F701868197810E9437084E
:1007B000D7011896ED91FC91199782A5826082A7C6
:1007C0006AE070E080E090E00E94601564E279E009
:1007D000F701808591850E94880E84E299E0D70117
:1007E0008D939C930E949A154B015C01212C312C16
:1007F000E0E4F0E0FC87EB87809104019091050133
:100800009C012F5F3F4F30930501209304019E8789
:100810008D87F2ECFF87D70118968D919C911997DF
:10082000FC0122A933A93A872987332089F0232D97
:1008300030E021503109A901440F551F240F351F05
:1008400001E010E002C0000F111F2A95E2F702C07C
:1008500000E010E020E030E040E050E0BE01675FE3
:100860007F4F0E94D60C0E949A15698B7A8B8B8BD6
:100870009C8BD12CD70118968D919C9119970E9431
:10088000110B823C99F4FE013196ED0DF11DED0D39
:10089000F11DD70118968D919C911997DC0117963F
:1008A0008D919C91189791838083D3940E949A157F
:1008B000DC01CB0129893A894B895C89821B930B26
:1008C000A40BB50BC897A105B10520F433E03D1585
:1008D00088F633C0D11031C00E949A15DC01CB01DB
:1008E00088199909AA09BB09481659066A067B06A0
:1008F00008F456CF222D30E02F5F3F4F832D90E03C
:100900000196289FB001299F700D389F700D11240A
:10091000675E7F4F660F771F072E000C880B990BC1
:100920000E94601581E0830D8370382E81E0820D76
:100930006AE00E944629292E5BCFC12C198ACD146A
:1009400008F046C043EC4F87D70112968C9112975E
:10095000888BFE013196EC0DF11DEC0DF11D00812F
:1009600011811C870B8720E030E040E050E0BE01A1
:10097000675F7F4F18968D919C9119970E94D60CB6
:100980000E949A156D8B7E8B8F8B988F0E949A1583
:10099000DC01CB012D893E894F89588D821B930B39
:1009A000A40BB50B813E9105A105B10548F4F701F3
:1009B000808591850E94110B898B803839F7CD2C69
:1009C00065E070E080E090E00E946015C394B7CFCE
:1009D0003989303809F080CFD7011896ED91FC9114
:1009E000199787859089009709F476CF36851296F6
:1009F0002C91321371CFF701918380838681978187
:100A00000E9437086AE070E080E090E00E94601584
:100A1000D7016D917C91119718968D919C911997A2
:100A20000E94880EF70160817181C7010E947D02DA
:100A3000D70112962C9130E082179307E1F0F7016D
:100A400060817181C7010E947D02D70112962C91AD
:100A5000129730E08217930771F064E279E01896FC
:100A60008D919C9119970E94880E84E299E0F7017C
:100A70009183808331CFD7011896ED91FC9119971E
:100A800082A58D7F82A78D919C9168960FB6F89470
:100A9000DEBF0FBECDBFDF91CF911F910F91FF90B1
:100AA000EF90DF90CF90BF90AF909F908F907F900E
:100AB0006F905F904F903F902F9008954F925F926C
:100AC0006F927F92AF92BF92DF92EF92FF920F935D
:100AD0001F93CF93DF93CDB7DEB729970FB6F89466
:100AE000DEBF0FBECDBF7C01DC0118968D919C91BD
:100AF00019970E94110BD82EF701808191818432C1
:100B0000994009F4CFC023ECD21204C081E0D70190
:100B10001A968C93F70182818111C4C08D2D8D7F2F
:100B2000843C09F09EC00084F185E02D5F0127E040
:100B3000A20EB11C8781908592878187978584EC6E
:100B4000D81278C09987D70112968C91129781118B
:100B500018C015964C9120E030E0841709F44BC082
:100B6000D7011396ED91FC911497E20FF31F2D5FBF
:100B70003F4F5081591303C0818192814DC08F5FD7
:100B8000ECCF992309F446C01C821B82809104019A
:100B9000909105019C012F5F3F4F309305012093F9
:100BA00004019E838D83DF8208E310E022E030E0C1
:100BB000AE01475F5F4FBE016F5F7F4FCF010E9465
:100BC000D60C8823C1F00E949A152B013C01F70135
:100BD000808591850E94110B843C81F00E949A15BA
:100BE000DC01CB0184199509A609B709873991055C
:100BF000A105B10560F38FEF9FEF0EC0D7011896E6
:100C0000ED91FC9119978785908997FF05C08EEF2C
:100C10009FEF02C080E090E09A83898308E310E0B0
:100C200022E030E0AE014F5F5F4FB501F7018085F4
:100C3000918514C0692F70E0C7010E947D029A83DC
:100C4000898308E310E022E030E0AE014F5F5F4FA0
:100C5000B501D70118968D919C9119970E94D60CD9
:100C600021C0B5ECDB121EC0F701A085B18580E084
:100C7000F70195818917B0F4F70123813481F901D7
:100C800093E0899FE00DF11D112441815281179657
:100C90002D913C9118974217530711F4128211823B
:100CA0008F5FE6CF8D2D29960FB6F894DEBF0FBE6D
:100CB000CDBFDF91CF911F910F91FF90EF90DF900B
:100CC000BF90AF907F906F905F904F900895CF92BC
:100CD000DF92EF92FF920F931F93CF93DF93CDB7E5
:100CE000DEB728970FB6F894DEBF0FBECDBF7C01EC
:100CF00084E0D82E92E8C92EDA94DD20F1F1F701D4
:100D00008081918184329940C1F1C7010E945E05C2
:100D100067E1F701868197810E94890381FD07C001
:100D2000F70180859185FC0122A520FF02C081E0AA
:100D30002AC01C821B822091040130910501A90167
:100D40004F5F5F4F50930501409304013E832D8315
:100D5000CF8208E310E020E030E040E050E0BE0148
:100D60006F5F7F4F0E94D60C81110DC067E670E067
:100D700080E090E00E946015BFCFF70186819781E7
:100D80000E94370880E028960FB6F894DEBF0FBEA9
:100D9000CDBFDF91CF911F910F91FF90EF90DF902A
:100DA000CF900895DF92EF92FF920F931F93CF930E
:100DB000DF93CDB7DEB7C054D1090FB6F894DEBFCC
:100DC0000FBECDBFE0907503F09076038BEDE81673
:100DD00082E0F80609F008F467C0D090E1020091C3
:100DE000E3021091E40284E6D81243C0A801013462
:100DF000110510F040E450E065EE72E0CE0101967E
:100E00000E947129C701801B910B0A97909376036A
:100E1000809375034AE950E0401B510BB8016B51B8
:100E20007D4F8BED92E00E947A291C811230D0F127
:100E3000109301011093900289E090E00E946527D1
:100E4000181729F0612F89E090E00E946D2748EE85
:100E500053E060E070E08EE892E00E94A9031092F7
:100E6000000182E493E00E94D9116AE070E0812FD2
:100E700017C09701201B310B2A503109309376039C
:100E8000209375034AE950E0401B510BB8016B51A8
:100E90007D4F8BED92E00E947A296AE070E08D2D03
:100EA0000E94DE1081E008C08EE892E00E94670692
:100EB00091E0982790939E01C05CDF4F0FB6F894A5
:100EC000DEBF0FBECDBFDF91CF911F910F91FF907D
:100ED000EF90DF9008951F920F920FB60F9211249A
:100EE0008F939F938091020190910301892B31F49C
:100EF00081E090E090930301809302019F918F9194
:100F00000F900FBE0F901F901895EF92FF921F93B6
:100F1000CF93DF931F92CDB7DEB77C0169830E9428
:100F200048036981862F0E944B03182FC7010E9436
:100F30004503812F0F90DF91CF911F91FF90EF908C
:100F4000089561EE0C948507EF92FF921F93CF9363
:100F5000DF9300D0CDB7DEB77C014A8369830E945E
:100F600048036981862F8F7180620E944B03182F7E
:100F70004A81842F0E944B03C7010E944503812FA1
:100F80000F900F90DF91CF911F91FF90EF900895F8
:100F9000EF92FF920F931F93CF938C017B0166E03A
:100FA0000E948903C82FC77D82E0E816F10431F45E
:100FB000C0628BE990E0A0E0B0E00DC0EA94EF28B9
:100FC00029F085E590E0A0E0B0E005C0C86081E4CC
:100FD00090E0A0E0B0E0F801808B918BA28BB38B06
:100FE0004C2F66E0C8010E94A40766E0C8010E9479
:100FF000890391E08C1390E0892FCF911F910F917D
:10100000FF90EF900895CF93DF93EC016DE10E9484
:101010008903482F44606DE1CE010E94A4076CE172
:10102000CE010E948903482F4F636CE1CE010E94DC
:10103000A40781E08887DF91CF910895CF93DF9354
:10104000EC0160E00E94890381FD0EC0482F4260E0
:1010500060E0CE010E94A40765E070E080E090E0CF
:10106000DF91CF910C946015DF91CF910895CF93CC
:10107000DF93EC0160E00E942103888999890E9436
:1010800032156DE1CE010E94890381FF07C0888976
:1010900099890E943215CE010E94A10760E0CE011D
:1010A0000E948903482F4E7F60E0CE010E94A40772
:1010B00062E0CE010E948903E1E6F3E0E49141E0C1
:1010C00050E001C0440FEA95EAF7482B62E0CE01F8
:1010D000DF91CF910C94A4078F929F92AF92BF9211
:1010E000CF92DF92EF92FF920F931F93CF93DF93F4
:1010F000EC017B01CCA8D12C860108501109DB0141
:1011000016969C918CE6890F833020F0983C09F06C
:10111000CFC003C0943909F4E4C08BE6890F823054
:1011200018F0983C09F08EC06E0159EDC50ED11C27
:10113000D6012D913C91A801420F531F4139510511
:1011400020F0C852DF4F1882B1C05E01B8EDAB0E7F
:10115000B11CF5018081882309F415C1963929F065
:10116000D70117969C919813A1C0FE01EB52FF4F37
:1011700040815181F701848195814817590709F011
:1011800095C04E01FBED8F0E911CD4018D919C9169
:10119000A801BE01615F7F4F820F931F0E947129DA
:1011A000F60180819181080F191F11830083D701F7
:1011B00016968C91863929F0F501808181508083C3
:1011C00073C0D5011C92F7018781FE01E952FF4FE0
:1011D0008083833809F483C07E01FFECEF0EF11C9D
:1011E000F701A081B181CE018A1B9B0B8B539F4FCE
:1011F00080179107F8F032968AE001900D928A9557
:10120000E1F7D7018D919C91F40160817181D60144
:101210004D915C910A960E947129F601808191811D
:101220000A96D7012D913C911197820F931F8D93B0
:101230009C933AC08FA598A90E9437088AA581601F
:101240008AA734C07E01BFECEB0EF11CF701A08130
:10125000B181CE01C5969D01281B390BC901800FB4
:10126000911F8B39910510F5E85CF10988E0019038
:101270000D928A95E1F7D701ED91FC9111971187B5
:1012800000878D919C91BE01615F7F4FA8010A96F6
:101290000E947129B2E0CB0ED11CF70180819181AF
:1012A000C80ED91ED182C08281E06DC080E06BC0C3
:1012B000933841F6DE01AF52BF4FFE01379688E00A
:1012C00001900D928A95E1F7FE01E552FF4FCE01A4
:1012D0000F9691838083C752DF4F1983088382E082
:1012E00052C0F7018781873008F02BCFFE01EB5207
:1012F000FF4F40815181D70114962D913C91159754
:1013000034976F014217530739F4408151812D9171
:101310003C914217530741F2F8E18F9FC00111241D
:10132000FE01E153FF4F20813181AE01421B530B7F
:101330009A012B533F4F281739073CF48AA5816047
:101340008AA78FA598A90E943708FE01379688E0E2
:10135000D60101900D928A95E1F7FE01E552FF4F0B
:10136000BE01615F7F4FA801808191810E94712938
:10137000FE01E752FF4F11830083C852DF4F88817F
:101380008150888391CFDF91CF911F910F91FF9072
:10139000EF90DF90CF90BF90AF909F908F90089587
:1013A000CF93DF93EC010E941E0860E0CE010E9403
:1013B0008903482F416060E0CE010E94A40740E706
:1013C00067E0CE010E94A40761E0CE010E942103E4
:1013D0008985882349F02E85AE01475F5F4F6AE01B
:1013E000CE010E94520314C062E0CE010E94890324
:1013F000E1E6F3E0E49121E030E001C0220FEA955C
:10140000EAF72095422F482362E0CE010E94A4070C
:101410006DE1CE010E94890381FF05C0CE01DF91FD
:10142000CF910C94A107DF91CF910895CF92DF92D5
:10143000EF92FF920F931F93CF93DF9300D000D0D2
:10144000CDB7DEB7FC0195859B012115310561F013
:10145000822F8770863030F483E0369527958A9501
:10146000E1F7F3CF80E097C09154EE24E3949F37E7
:1014700008F0E12CF42E6B018F0119821A821B8275
:101480001C827A8369834B83BE016F5F7F4FCF01DC
:101490000E944B1869817A812C814B81C8010E947E
:1014A0007117F1E0FF1227C0811102C0F12C6AC050
:1014B00089819A818C159D0501F5EE20F1F081EC72
:1014C000F801858787819085928781879A838983B0
:1014D000FB821C82BE016F5F7F4FC8010E944B18C8
:1014E00088E0F80184AB69817A812C814B81C80145
:1014F0000E94711702C08823C9F289819A818C15D4
:101500009D0519F4FF24F3943DC0FF2019F0F3E08A
:10151000FF12F8CFEE20B1F3F80182A582FF11C0CF
:10152000418152816381748187A590A90E949F0F98
:10153000F80182A58B7F82A760E087A590A90E9411
:10154000730EF80187A590A90E94D0090E949A15F0
:101550006B017C01C8010E94110B813C99F20E9431
:101560009A15AB01BC014C195D096E097F09F801A0
:1015700085819681A0E0B0E084179507A607B7079C
:1015800048F794CFF80182A582FD04C087A590A9F1
:101590000E94D0098F2D0F900F900F900F90DF9128
:1015A000CF911F910F91FF90EF90DF90CF90089512
:1015B000EF92FF920F931F93CF93DF93EC017B0188
:1015C000BA018AA99BA9F70191838083DE0117964E
:1015D00088E001900D928A95E1F72115310529F0F7
:1015E000A901CE010F960E947129F70162817381D2
:1015F0000833110561F06034710511F444E001C055
:1016000043E06017710709F442E0B80101C040E00F
:10161000CE01DF91CF911F910F91FF90EF900C942D
:10162000160A2F923F924F925F926F927F928F9203
:101630009F92AF92BF92CF92DF92EF92FF920F9361
:101640001F93CF93DF9300D01F92CDB7DEB7DC019D
:101650009A969C919A97892F827091FD19C0FD01ED
:10166000E153FF4FAD014B5C5F4F90FD07C0208100
:101670003181241B350B2937310554F0208131810C
:101680004217530708F47CC19E7F9A969C939A97C1
:10169000BB83AA830E949A152B013C0110E0CA80EB
:1016A000DB8027E0C20ED11C2A803B8031E9231A5F
:1016B0003EEF330AF4E2AF2EF9E0BF2EEA81FB8160
:1016C000E7A4F0A8F701808191818F3F910529F16E
:1016D000828193818F3F910501F167E1C7010E94EB
:1016E0008903082F017080FD18C06FEFC7010E94A9
:1016F00085070E949A15DC01CB0184199509A6097A
:10170000B709EA81FB81E7A4F0A8893E9340A105CF
:10171000B10528F081E0F7018787812F31C1C7012A
:101720000E94480380E60E944B038FEF0E944B0308
:10173000982EC7010E944503F0E2F91558F462EEB5
:10174000C7010E94850762E070E080E090E00E949F
:10175000601501C0092DEA81FB8104AB083038F423
:101760006AE070E080E090E00E946015A7CFEA8117
:10177000FB81E7A4F0A8F7018781801708F4082F00
:10178000F7019085911103C0801B898301C01982E4
:10179000C7010E94480381E60E944B0346010150A5
:1017A00038F08FEF0E944B03F40181934F01F7CF84
:1017B0000981002329F08FEF0E944B030150F9CFDC
:1017C000C7010E94450340E767E0C7010E94A407E4
:1017D000EA81FB8161857285CB01009759F0282F42
:1017E0002770263008F06ACFE3E096958795EA9552
:1017F000E1F7F3CFEA81FB81158582A993A96817E8
:10180000790709F043C0123809F458CF103891F421
:1018100064327940F1F0EA81FB81B286A18642E030
:1018200064E279E0CF010E94160A6AE070E080E08D
:1018300090E049C0133C69F46115710551F0EA81EB
:10184000FB81708767831286118640E060E070E05C
:1018500041C0EA81FB8181A5882319F017FF0CC0E4
:1018600002C0113C49F48CE6810F833028F0183C0B
:1018700019F0133809F051CFB6018A819B810E947B
:101880006C08823009F01ACF83E87AC060347105A1
:1018900009F070C0123C01F5EA81FB8122A523FD0D
:1018A0000DCF8432F9E09F0709F408CFEA81FB816C
:1018B000278130853287218790878783F101608176
:1018C00070E080E090E00E946015EA81FB81618514
:1018D000728542E0CF0151C0B6018A819B810E948E
:1018E0006C08082FEA81FB818081882309F43EC0BF
:1018F00022A933A9C90153E0969587955A95E1F736
:10190000892B21F08CEB92E10197F1F7C9018370EB
:1019100099279C0148E552E0249FC001259F900D26
:10192000349F900D11240E943215EA81FB8121A978
:10193000222381F030E021503109C901880F991F1D
:10194000280F391F61E070E002C0660F771F2A95EB
:10195000E2F702C060E070E083E0660F771F8A95CF
:10196000E1F744E08A819B810E94160A023009F067
:10197000A5CE8ACF41E08A819B810E94160A9ECE25
:101980000F900F900F90DF91CF911F910F91FF90CB
:10199000EF90DF90CF90BF90AF909F908F907F900F
:1019A0006F905F904F903F902F9008952F923F92AD
:1019B0004F925F926F927F928F929F92AF92BF925F
:1019C000CF92DF92EF92FF920F931F93CF93DF930B
:1019D000EC017B015A01690148010E949A154BA450
:1019E0005CA46DA47EA4DC01CB0184199509A60931
:1019F000B7094997A105B10528F4CE010E94110B42
:101A000087FFEBCF8CE891E00197F1F789E1C816E9
:101A1000D104B0F488E08C0D8CAB84019601A50153
:101A2000B701CE010E94D80A182F882311F011E0C7
:101A300092C00E949A156BA77CA78DA79EA78BC00A
:101A4000E1E9CE16D10408F085C0C60168E170E076
:101A50000E94522921E0892B09F420E0C60168E1A7
:101A600070E00E945229722E760EF70182819381D6
:101A70008034910539F08AA584608AA78FA598A93A
:101A80000E943708F7014680512C612C84E9282EEA
:101A900096E9392EF7017782F1E07F1204C0F70151
:101AA0003682478208C0611003C0F701268203C056
:101AB00085E9F7018683E8E16E9EA0011124960175
:101AC000241B350B2931310510F028E130E088E086
:101AD000820F8CAB4A0D5B1D8401B701CE010E94C1
:101AE000D80A182F81110BC062E070E080E090E00E
:101AF0000E9460155394F2E0F51560F606C07A94E2
:101B00006394772011F0512CC5CFF70146828AA546
:101B100082FF12C049815A816B817C818FA598A96F
:101B20000E949F0F182F8FA598A90E94D00960E0EE
:101B30008FA598A90E94730E8AA58B7F8AA711236F
:101B400049F0772009F473CF0E949A156BA77CA700
:101B50008DA79EA710E0812FDF91CF911F910F914C
:101B6000FF90EF90DF90CF90BF90AF909F908F90BD
:101B70007F906F905F904F903F902F9008951F93AC
:101B8000CF93DF93EC01888199812A813B81821771
:101B9000930719F061E00E94F6148A819B812881E5
:101BA00039812817390719F061E00E94F6141FB730
:101BB000F8948091A001811127C0E7E8F3E08491B7
:101BC000EBE9F3E09491E82FF0E0EE0FFF1FEB5507
:101BD000FC4FA591B491EC91E92321F461E08AE0F6
:101BE0000E94AA1461E08AE00E94F6148CB580611C
:101BF0008CBD8CB580648CBD61E08DE00E94F614D4
:101C000061E08BE00E94F6148091A0018F5F8093C9
:101C1000A0011FBF60E0CE010E94210361E0CE0160
:101C20000E942D0365E070E080E090E00E94601566
:101C30004CE060E0CE010E94A4074FE564E0CE01D5
:101C40000E94A40762E070E0CE010E94C8078823CA
:101C500011F081E08E8366E0CE010E948903182F87
:101C600060E070E0CE010E94C807CE010E944803E8
:101C700080E50E944B0383E70E944B03CE010E9444
:101C8000450340E06DE1CE010E94A40740E06CE115
:101C9000CE010E94A407188640E767E0CE010E94AB
:101CA000A4074CE465E0CE010E94A40762EECE01D9
:101CB0000E948507CE010E94A107CE010E941E0846
:101CC00060E0CE010E948903482F4E7F60E0CE0184
:101CD0000E94A407115081E01E3F08F080E0DF91D0
:101CE000CF911F9108951F93CF93DF93EC01162F8F
:101CF00061E00E948903482F112311F0416001C067
:101D00004E7F61E0CE01DF91CF911F910C94A4072B
:101D10007F928F929F92AF92BF92CF92DF92EF927B
:101D2000FF920F931F93CF93DF93CDB7DEB7289722
:101D30000FB6F894DEBF0FBECDBFFC019B0121158D
:101D4000310559F0822F8770863008F0E4C0A3E097
:101D500036952795AA95E1F7F2CF62AB73AB87A5CD
:101D600090A9DC012D913C912F3F310509F4D3C09E
:101D7000DC0112962D913C9113972F3F310509F408
:101D8000CAC0E72EF62E8F0160E00E94730EF801A4
:101D900087A590A90E940308D801D2968D919C91A5
:101DA000D39766E070E00E945229482F440F4B5FA2
:101DB000B0E14B9FA0011124456064E0F80187A5C4
:101DC00090A90E94A40789E190E0A0E0B0E0F801AA
:101DD00081839283A383B4838BE490E0968385838D
:101DE00082A993A940E02FEF3FEFB901682379233F
:101DF000672B39F073E0220F331F7A95E1F74F5FBD
:101E0000F4CFF80141AB20953095E059FE4F318376
:101E1000208363E0369527956A95E1F73397A9010A
:101E200048235923518340832115310559F043E05C
:101E3000969587954A95E1F753E0369527955A95FB
:101E4000E1F7F2CFF801E159FE4F808386E0782E6A
:101E500088248394912C7A94FFEF7F1609F454C060
:101E6000672D8F2D9E2D0E941E17D8019F96CD9015
:101E7000DC90D09729833A834B835C836D837E8388
:101E80008F839887A72CB12C71100BC0F601468563
:101E900050E0BE016F5F7F4FC60109960E94712915
:101EA00003C0F1E07F1208C0F501E359FC4F6491D3
:101EB000D6011E962C9105C0F501E359FC4F6491A3
:101EC00021E0AE014F5F5F4FC6010E945203F50152
:101ED000E959FC4F6491F6014781C6010E94A407AD
:101EE00062E0C6010E948903F501EF59FC4FE491BD
:101EF000940101C0220FEA95EAF7482F422B62E0D5
:101F0000C6010E94A407A7CFD8019F968D919C91EE
:101F1000D0970E94D00928960FB6F894DEBF0FBE66
:101F2000CDBFDF91CF911F910F91FF90EF90DF9088
:101F3000CF90BF90AF909F908F907F9008954F92D9
:101F40005F926F927F928F929F92AF92BF92CF9249
:101F5000DF92EF92FF92CF93DF93EC014A015B0196
:101F60000E949A156B017C01240135018FE5480E12
:101F7000511C611C711C67E1CE010E94890384FD24
:101F800039C06FEFCE010E94850784FF22C040E177
:101F900067E0CE010E94A40760E0CE010E94210309
:101FA00061E0CE010E9421030E949A15DC01CB0161
:101FB0008C199D09AE09BF0988159905AA05BB05AD
:101FC00040F060E0CE010E942103CE010E94A107F3
:101FD0000FC00E949A15DC01CB018C199D09AE0936
:101FE000BF09481659066A067B0628F681E08F87E6
:101FF00080E005C060E0CE010E94210381E0DF9116
:10200000CF91FF90EF90DF90CF90BF90AF909F90D7
:102010008F907F906F905F904F900895AF92BF9296
:10202000CF92DF92EF92FF920F931F93CF93DF93A4
:10203000CDB7DEB728970FB6F894DEBF0FBECDBF81
:10204000DC01ED91FC91E432F94011F480E02AC00A
:102050006901142F5B017C010E949A15F7018081B0
:1020600091818432994091F31C821B8280910401FA
:10207000909105019C012F5F3F4F30930501209304
:1020800004019E838D831F8308E310E09601A50160
:10209000BE016F5F7F4FD70118968D919C91199764
:1020A0000E94D60C28960FB6F894DEBF0FBECDBFA7
:1020B000DF91CF911F910F91FF90EF90DF90CF9024
:1020C000BF90AF900895CF93803311F442E301C0E5
:1020D00040E7282F30E06EE572E080915C0290913D
:1020E0005D020E940E10C82F811112C080915C0207
:1020F00090915D020E94670681110AC040ED57E091
:1021000060E070E080915C0290915D020E94A90302
:102110008C2FCF910895009769F0FC010190002069
:10212000E9F73197AF01481B590BBC0181EA91E0F7
:102130000C94E11280E090E008958F929F92AF920C
:10214000BF920F931F93CF93DF93CDB7DEB7A197C5
:102150000FB6F894DEBF0FBECDBF19A2423008F40F
:102160004AE08E010F5D1F4F842E912CA12CB12CC3
:10217000A50194010E94E427E62FB901CA0101508C
:102180001109EA3014F4E05D01C0E95CD801EC9378
:10219000232B242B252B61F7C8010E948B10A196BD
:1021A0000FB6F894DEBF0FBECDBFDF91CF911F9168
:1021B0000F91BF90AF909F908F900895CF93DF9332
:1021C000AB01672B61F4E091A101F091A2010190B4
:1021D000F081E02D682F81EA91E0099506C0682F13
:1021E00070E080E090E00E949D10EC0186E591E0B7
:1021F0000E948B108C0F9D1FDF91CF9108958091CD
:102200003204E0913304F0913404F8949181982BD6
:1022100091832281982F909529232283A2E0B0E018
:102220001197F1F7218192239183A0E1B0E01197FA
:10223000F1F790817894E6E6F0E03197F1F7982392
:1022400081E009F480E0089590913204E091330434
:10225000F0913404392F309580FF13C0F894228117
:10226000832F822382838181892B8183A0E1B0E047
:102270001197F1F78281982B928378948AE690E007
:1022800012C0F8942281832F822382838181892B3B
:102290008183AEE7B0E01197F1F78281982B9283AA
:1022A000789486E090E00197F1F708950F931F93DB
:1022B000CF93DF93082FC8E0D0E011E081E0912FA9
:1022C000902309F480E00E942411110F2197B1F7A7
:1022D000F894E0913304F0913404918180913204B8
:1022E000809589238183E0913304F09134049281B5
:1022F000809132048095892382837894DF91CF91F5
:102300001F910F910895EF92FF920F931F93CF9318
:10231000DF931F92CDB7DEB7182F85E599830E9412
:102320005611E12E9981F92E8701085F1F4FF701A1
:1023300081917F010E945611E016F106C1F70F90BE
:10234000DF91CF911F910F91FF90EF9008959091A1
:102350003204E0913304F0913404F8948181292F00
:1023600020958223818378948DE7815009F1308113
:102370003923D9F3F8948281822382838181892B46
:1023800081837894ACEBB3E01197F1F7F8948181F5
:1023900028232183A8E8B0E01197F1F780819823E2
:1023A00081E009F080E07894E0E3F3E03197F1F721
:1023B00008950F931F93CF93DF938C01C0E0D0E07B
:1023C000F801EC0FFD1F6491662371F0E091A1010B
:1023D000F091A2010190F081E02D81EA91E0099550
:1023E000892B11F02196ECCFCE01DF91CF911F9177
:1023F0000F9108958F929F92AF92BF92DF92EF92CA
:10240000FF920F931F93CF93DF93C82F162F282F80
:1024100030E0F901EF56FC4FD491F901E358FC4F3D
:10242000E491F0E0EE0FFF1FED58FC4FE590F490C3
:1024300010925F0410926004109261041092620482
:102440001092630461E00E94F61460E08C2F0E94F9
:10245000AA14612F70E080E090E00E94601561E0B6
:102460008C2F0E94AA148CE490E00197F1F760E0B1
:102470008C2F0E94F61428EC30E0F70180818D2328
:1024800031F421503109C9F78EEF9FEF4FC028EC8E
:1024900030E0F70180818D2321F021503109C9F707
:1024A000F3CF08E210E8D12C28EC30E0F70180816E
:1024B0008D2321F421503109C9F7E6CF0E943B1545
:1024C0004B015C0128EC30E0F70180818D2321F085
:1024D00021503109C9F7D8CF0E943B15DC01CB014F
:1024E00088199909AA09BB098997A105B10538F08E
:1024F000ED2DF0E0E35AFB4F8281812B8283212F67
:1025000030E0359527952115310511F0122F02C0C5
:10251000D39410E8015041F661E08C2F0E94F6142C
:1025200061E08C2F0E94AA1480E090E0DF91CF91AF
:102530001F910F91FF90EF90DF90BF90AF909F9011
:102540008F900895CF92DF92EF92FF92CF93DF9317
:102550006B017C01E091A101F091A2010190F08159
:10256000E02D6DE281EA91E00995EC01662777277D
:10257000CB016C197D098E099F094AE00E949D10CC
:102580008C0F9D1FDF91CF91FF90EF90DF90CF9048
:102590000895CF93DF93BC01990F880B990B97FF98
:1025A00003C00E94A21203C04AE00E949D10EC01E9
:1025B00086E591E00E948B108C0F9D1FDF91CF91DB
:1025C0000895CF92DF92EF92FF920F931F93CF93D4
:1025D000DF936C017A018B01C0E0D0E0CE15DF05FE
:1025E00089F0D8016D918D01D601ED91FC9101909A
:1025F000F081E02DC6010995892B11F47E0102C0FE
:102600002196ECCFC701DF91CF911F910F91FF90E1
:10261000EF90DF90CF900895FC01538D448D252FCE
:1026200030E0842F90E0821B930B541710F0CF966C
:10263000089501970895FC01918D828D981761F09E
:10264000828DDF01A80FB11D5D968C91928D9F5FE9
:102650009F73928F90E008958FEF9FEF0895FC0194
:10266000918D828D981731F0828DE80FF11D858D47
:1026700090E008958FEF9FEF0895FC01918D228DDA
:10268000892F90E0805C9F4F821B91098F7399275F
:10269000089581EA91E00E943D1321E0892B09F41D
:1026A00020E0822F0895FC01848DDF01A80FB11D69
:1026B000A35ABF4F2C91848D90E001968F73992778
:1026C000848FA689B7892C93A089B1898C91806465
:1026D0008C93938D848D981306C00288F389E02D26
:1026E00080818F7D80830895EF92FF920F931F93D7
:1026F000CF93DF93EC0181E0888F9B8D8C8D9813B5
:1027000005C0E889F989808185FD24C0F62E0B8DEE
:1027100010E00F5F1F4F0F731127E02E8C8DE81212
:102720000CC00FB607FCFACFE889F989808185FFD4
:10273000F5CFCE010E945313F1CF8B8DFE01E80F30
:10274000F11DE35AFF4FF0820B8FEA89FB898081EC
:10275000806207C0EE89FF896083E889F9898081FA
:102760008064808381E090E0DF91CF911F910F9191
:10277000FF90EF900895CF93DF93EC01888D88232D
:10278000C9F0EA89FB89808185FD05C0A889B989DE
:102790008C9186FD0FC00FB607FCF5CF808185FFB9
:1027A000F2CFA889B9898C9185FFEDCFCE010E9427
:1027B0005313E7CFDF91CF91089580E090E0892B0C
:1027C00029F00E94491381110C940000089585EDB1
:1027D0008093BC008091BC0084FDFCCF1092BD04AE
:1027E000089540919704262F30E0240F311D2132A7
:1027F0003105DCF42091BD042430C9F4FC0180E0F3
:1028000090E0861758F4309197042191DC01AB5881
:10281000BB4FA30FB11D2C930196F3CF809197046A
:10282000680F6093970480E0089581E0089582E046
:10283000089508958FEF9FEF08958FEF9FEF08950C
:102840008091740490E09195819591090895CF93BA
:10285000DF9300D0CDB7DEB7CB01642F49835A8315
:102860000E94F1134981842F5A81952F0F900F9068
:10287000DF91CF910895CF93DF931F92CDB7DEB74D
:10288000698361E0CE0101960E94F11381E090E03E
:102890000F90DF91CF910895089580E090E0089522
:1028A0000E946C291F920F920FB60F9211242F9342
:1028B0003F934F935F936F937F938F939F93AF93C8
:1028C000BF93EF93FF9381EA91E00E945313FF912E
:1028D000EF91BF91AF919F918F917F916F915F9198
:1028E0004F913F912F910F900FBE0F901F90189511
:1028F0001F920F920FB60F9211242F938F939F93D5
:10290000EF93FF93E091B101F091B2018081E091EA
:10291000B701F091B80182FD12C090818091BA0197
:102920008F5F8F732091BB01821751F0E091BA0144
:10293000F0E0EF55FE4F958F8093BA0101C0808182
:10294000FF91EF919F918F912F910F900FBE0F905C
:102950001F90189590E0FC01E85DFC4F3491FC015C
:10296000EF56FC4F2491FC01E358FC4FE491EE2319
:1029700009F43BC0332339F1333091F038F431306E
:10298000A9F0323001F584B58F7D12C0373091F057
:102990003830A1F03430B9F4809180008F7D03C0CD
:1029A000809180008F77809380000DC084B58F77F1
:1029B00084BD09C08091B0008F7703C08091B000C2
:1029C0008F7D8093B000F0E0EE0FFF1FE155FC4FCC
:1029D000A591B4918FB7F894EC91611103C0209543
:1029E0002E2301C02E2B2C938FBF0895CF93DF93FE
:1029F00090E0FC01EF56FC4F2491FC01E358FC4FA2
:102A00008491882361F190E0880F991FFC01EB55B8
:102A1000FC4FC591D491FC01E155FC4FA591B491B7
:102A2000611109C09FB7F89488812095822388831B
:102A3000EC912E230BC0623061F49FB7F89438817B
:102A4000822F809583238883EC912E2B2C939FBF1C
:102A500006C08FB7F894E8812E2B28838FBFDF91B3
:102A6000CF9108958330910528F0880F991F04971E
:102A70000197F1F708953FB7F8948091E804909199
:102A8000E904A091EA04B091EB0426B5A89B05C027
:102A90002F3F19F00196A11DB11D3FBFBA2FA92FDD
:102AA000982F8827820F911DA11DB11DBC01CD015A
:102AB00043E0660F771F881F991F4A95D1F7089545
:102AC0008F929F92AF92BF92CF92DF92EF92FF923E
:102AD0006B017C010E943B154B015C01C114D104C8
:102AE000E104F104F1F00E943B15DC01CB018819EF
:102AF0009909AA09BB09883E9340A105B10570F365
:102B000021E0C21AD108E108F10888EE880E83E0BE
:102B1000981EA11CB11CC114D104E104F10419F7E1
:102B2000DDCFFF90EF90DF90CF90BF90AF909F9060
:102B30008F9008952FB7F8946091E4047091E504A4
:102B40008091E6049091E7042FBF08951F920F92A1
:102B50000FB60F9211242F933F938F939F93AF93B0
:102B6000BF938091E4049091E504A091E604B091B4
:102B7000E7043091E30426E0230F2D3720F402967A
:102B8000A11DB11D05C029E8230F0396A11DB11D8C
:102B90002093E3048093E4049093E504A093E60477
:102BA000B093E7048091E8049091E904A091EA04CD
:102BB000B091EB040196A11DB11D8093E8049093A0
:102BC000E904A093EA04B093EB04BF91AF919F9105
:102BD0008F913F912F910F900FBE0F901F901895DE
:102BE0001F920F920FB60F9211242F933F934F9382
:102BF0005F936F937F938F939F93AF93BF93EF9365
:102C0000FF938091B900887F803609F49CC068F5F5
:102C1000883209F45BC090F4803109F454C038F470
:102C2000882309F4F6C0883009F44DC0F6C0883115
:102C300009F44CC0803209F45DC0EFC0803409F45F
:102C400068C048F4803309F455C0883309F0E5C002
:102C50008093BC04D8C0803509F44FC0883509F48E
:102C60005DC0883409F0D9C0D6C0883909F4C7C01E
:102C7000A8F4883709F467C038F4883609F463C0CB
:102C8000803709F460C0C9C0883809F4B8C08039F9
:102C900009F45FC0803809F0C0C05BC0803B09F414
:102CA00086C038F4803A09F466C0883A09F47FC0D7
:102CB000B4C0803C09F4A7C0883C09F4A4C0883B98
:102CC00009F48AC0AAC08091E20410C09091E10486
:102CD0008091E004981770F5E091E10481E08E0F97
:102CE0008093E104F0E0E054FB4F80818093BB00CF
:102CF00085EC86C08093BC048EC0E091E10481E045
:102D00008E0F8093E1048091BB00F0E0E054FB4F14
:102D100080839091E1048091E0046EC0E091E10431
:102D200081E08E0F8093E1048091BB00F0E0E054DD
:102D3000FB4F80838091BF0481116DC081E080933F
:102D4000BE0484EA61C083E08093BD041092BB049A
:102D5000CFCF8091BB04803208F051C0E091BB041A
:102D600081E08E0F8093BB048091BB00F0E0E556BC
:102D7000FB4F8083BDCF85EC8093BC001092BD04D7
:102D80008091BB04803230F4E091BB04F0E0E55662
:102D9000FB4F10826091BB0470E0E0919904F091C8
:102DA0009A048BE994E009951092BB0436C084E044
:102DB0008093BD041092980410929704E0919504BA
:102DC000F0919604099580919704811105C081E0E6
:102DD0008093970410927504E091980481E08E0F1F
:102DE00080939804F0E0EB58FB4F80818093BB0008
:102DF0009091980480919704981708F479CF85E80A
:102E00008093BC000AC085EC8093BC001092BD0486
:102E100004C01092BC040E94E713FF91EF91BF9190
:102E2000AF919F918F917F916F915F914F913F9162
:102E30002F910F900FBE0F901F901895CF93DF9397
:102E4000CDB7DEB728970FB6F894DEBF0FBECDBF63
:102E5000AC019CEC99839A839B839C839D831E8207
:102E60001F8218869A01E1E021153105C9F0611130
:102E700003C04115510569F4D901A770BB27A65BB2
:102E8000BE4F8C91A1E0B0E0AC0FBD1FAE0FB11DE5
:102E90008C9383E0369527958A95E1F7EF5FE4CF31
:102EA000611102C0452B39F4E62FF0E0E65BFE4FDE
:102EB0008081898305C0F0E0E75BFE4F80818A83D3
:102EC00029813A814B815C816D817E818F819885DA
:102ED00028960FB6F894DEBF0FBECDBFDF91CF911D
:102EE00008954F925F926F927F92AF92BF92CF926E
:102EF000DF92EF92FF920F931F93CF93DF93CDB7A3
:102F0000DEB728970FB6F894DEBF0FBECDBF8C0199
:102F1000CB01D22E642F0E941E1729013A015B01BA
:102F20007C01F80182A582FD04C087A590A90E94BA
:102F30003708F80187A590A9DD2011F060E001C0F5
:102F400061E00E94730EF801C7A4D0A849825A829A
:102F50006B827C82AD82BE82EF82F886F601268586
:102F6000AE014F5F5F4F6AE0C6010E945203F60157
:102F70002685AE014F5F5F4F60E1C6010E9452039C
:102F8000F601478161E1C6010E94A407F801B4A8D7
:102F9000C7A4D0A80E949A152B013C016FEFC6016F
:102FA0000E94850780FF1EC06FEFC6010E94850743
:102FB00084FF06C040E167E0C6010E94A40710C07C
:102FC0000E949A15DC01CB0184199509A609B7095D
:102FD00080369105A105B10508F381E0F6018787E8
:102FE000F12C30C0F601F780EF2CBF1408F4EB2C65
:102FF000F6018085811102C0FE1801C0F12CC601C6
:103000000E94480380EA0E944B035801F7E0AF0E8C
:10301000B11CEA0CEA1431F0F50181915F010E94C4
:103020004B03F8CFFF2029F080E00E944B03FA9475
:10303000F9CFC6010E94450361E0C6010E94210349
:10304000FF24F394F80182A582FD0FC041815281D3
:103050006381748187A590A90E949F0FF82E60E07C
:10306000F80187A590A90E94730E8F2D28960FB6A0
:10307000F894DEBF0FBECDBFDF91CF911F910F91AE
:10308000FF90EF90DF90CF90BF90AF907F906F90C8
:103090005F904F900895CF93DF93DC01FB01EC012B
:1030A000C359DE4F6881798122969881828140815F
:1030B0005181823028F0BA0181E0838390E027C0FB
:1030C000ED01C059DE4F28813981EA01C223D323A3
:1030D000D2960D90BC91A02DCA17DB07C1F4C9018F
:1030E0008095909563E0880F991F6A95E1F7842396
:1030F0009523892B51F083E0220F331F8A95E1F746
:103100002760BA016223732301C0BA0195E071837D
:103110006083928381E0DF91CF910895CF93DF9315
:103120000E94D911EC0186E591E00E948B108C0F72
:103130009D1FDF91CF910895CF93DF9380919402EB
:10314000909195020E94BF0D8DE78093A1024DE7FB
:1031500065E080919402909195020E94A40761E03D
:1031600070E080919402909195020E94C807C091EE
:103170009602D091970281E089A7809190028823DE
:1031800099F084E299E090938F0280938E0240E45C
:103190005FE160E070E08EE892E00E94A90321E028
:1031A000892BB1F420E014C086E090E00E948525D0
:1031B00090939202809391021092930210928F0248
:1031C00010928E0260E070E0CE010E94880E21E035
:1031D000822FDF91CF910895EF92FF920F931F936B
:1031E000CF93DF931F92CDB7DEB7E42E9F938F93DB
:1031F00086ED93E09F938F9369830E947123698189
:10320000E60E0F900F900F900F900EEC13E06E15DE
:1032100099F0FF24F394F60E88E194E00E9489036C
:103220001F928F931F930F930E9471230F900F9003
:103230000F900F906F2DEBCF8BEC93E09F938F93BC
:103240000E9471230F900F900F90DF91CF911F91EB
:103250000F91FF90EF9008952F923F924F925F92BF
:103260006F927F928F929F92AF92BF92CF92DF9296
:10327000EF92FF920F931F93CF93DF931F92CDB7DF
:10328000DEB7562E342E6DB67EB69F938F9385ECA7
:1032900093E09F938F930E947123350C0F900F90B2
:1032A0000F900F9081ECC82E83E0D82E9CEBA92EB6
:1032B00093E0B92E531409F452C08DB69EB62091F6
:1032C0002604022F10E08DB79EB7801B910B0FB61E
:1032D000F8949EBF0FBE8DBFEDB7FEB731967F014C
:1032E00022242394250C88E194E029830E9448033A
:1032F000852D8F710E944B03270129812E0D2415E6
:1033000049F08FEF29830E944B03F20181932F0133
:103310002981F5CF88E194E00E944503DF92CF92A6
:103320000E9471230E0D1F1D0F900F900150110967
:103330000E151F0568F0F80180811F928F93BF92D0
:10334000AF920E9471230F900F900F900F90EECFCD
:103350000FB6F8949EBE0FBE8DBE522CABCF89EB3C
:1033600093E09F938F930E9471230F900F900FB65D
:10337000F8947EBE0FBE6DBE0F90DF91CF911F916E
:103380000F91FF90EF90DF90CF90BF90AF909F9004
:103390008F907F906F905F904F903F902F90089507
:1033A000CF93DF93CDB7DEB72E970FB6F894DEBF7D
:1033B0000FBECDBF789484B5826084BD84B5816032
:1033C00084BD85B5826085BD85B5816085BD8091F0
:1033D0006E00816080936E00109281008091810068
:1033E0008260809381008091810081608093810060
:1033F000809180008160809380008091B100846022
:103400008093B1008091B00081608093B000809182
:103410007A00846080937A0080917A008260809341
:103420007A0080917A008E7F80937A0080917A0072
:10343000806880937A001092C10061E086E00E946B
:10344000F61461E086E00E94AA14E091B101F091C7
:10345000B20182E08083E091AD01F091AE01108273
:10346000E091AF01F091B00188E080831092B90142
:10347000E091B501F091B60186E08083E091B3015F
:10348000F091B401808180618083E091B301F0917B
:10349000B401808188608083E091B301F091B40130
:1034A000808180688083E091B301F091B4018081D4
:1034B0008F7D808360E070E085E193E00E942623A9
:1034C00089E090E00E946527809301010AE4E02EE4
:1034D00002E0F02E67010FE010E0C8010E946527AE
:1034E000F60181936F010F5F1F4F0F311105A9F78F
:1034F00082ED90E00E94D9116AE070E080910101B4
:103500000E94DE1084EC90E00E94D91101E511E0E8
:10351000F70181917F011F928F931F930F9321E0F9
:1035200030E02C0F3D1F3F932F930E948C29CE013A
:1035300001960E948B100F900F900F900F900F909C
:103540000F903AE5E31632E0F30611F786E591E0D5
:103550000E948B1080910101823038F480914A02E0
:10356000811101C081E08093010185E392E00E9416
:103570008E1888E194E00E94BF0D88E194E00E94DB
:1035800003084FE361E088E194E00E94A4074FEF55
:1035900064E088E194E00E94A40766E088E194E09A
:1035A0000E948903482F476066E088E194E00E940A
:1035B000A40789E192E00E94D911809101018093D2
:1035C00090026AE070E00E94DE100E949C186FEF8B
:1035D00088E194E00E948507282F30E0982F9170B1
:1035E0001F929F9335952795277033273F932F93ED
:1035F00084FB992790F91F929F9385FB992790F957
:103600001F929F9386FB992790F91F929F931F9279
:103610008F9382EE90E09F938F930E94712342E0FC
:103620006AE08DED91E00E942C1944E06CE080EDA1
:1036300091E00E94EC1841E060E187EC91E00E948B
:103640002C1946E061E18CEB91E00E94EC1841E01E
:1036500061E085EB91E00E94EC1841E062E08BEACA
:1036600091E00E94EC1841E065E084EA91E00E945C
:10367000EC1841E066E08BE991E00E94EC1841E033
:1036800060E083E991E00E94EC1842E06CE185E89B
:1036900091E00E94EC1866E088E194E00E948903C2
:1036A00088720FB6F894DEBF0FBECDBF803241F0F6
:1036B00021E090E0883009F020E0E22FF92F02C0ED
:1036C000E2E0F0E0EE0FFF1FE158FE4F859194918C
:1036D0009F938F938DE691E09F938F930E94712328
:1036E000E0911E04F0E0EE0FFF1FE759FE4F8591B9
:1036F00094919F938F938AE591E09F938F930E947B
:10370000712360E088E194E00E948903182F61E052
:1037100088E194E00E9489030FB6F894DEBF0FBEE3
:10372000CDBF13FD02C0882329F012FD06C0E1E0E1
:10373000F0E005C0E0E0F0E002C0E2E0F0E0EE0F13
:10374000FF1FEC5AFE4F859194919F938F9381E4D4
:1037500091E09F938F930E94712366E088E194E04B
:103760000E9489038670E82FF0E0E75CFE4F8591A8
:1037700094919F938F9388E291E09F938F930E94FF
:1037800071238FEF91E00E948E1884B7877F84BFEA
:103790008091600088618093600081E28093600086
:1037A0008091600080648093600060E086E00E9409
:1037B000AA1468EC70E080E090E00E94601561E07F
:1037C00086E00E94AA148AEE91E00E94D9110E941C
:1037D0009A154AE00E949D1086E591E00E948B10A8
:1037E0000FB6F894DEBF0FBECDBF212C70EC372E84
:1037F00079E7472E74EC572E8DE494E037E0380FCC
:103800003D878EE892E00E945E0580919E018823AC
:1038100049F180917503909176038B5D924041F060
:1038200038F08EE892E00E945E050E94D206F1CF49
:1038300085E892E00E948E1880919E01882381F095
:1038400040ED57E060E070E08EE892E00E94A9034E
:10385000892B31F483E792E00E948E180E949C1815
:1038600010929E0180912704882359F088E592E008
:103870000E94D9118091270490E00E94C9121092F1
:10388000270480910001882309F440C087E08093D9
:103890005E0281E090E09093600280935F02E0918D
:1038A0005A02F0915B0280E1A1E6B2E001900D9234
:1038B0008A95E1F70FE028E130E044E46EE572E03C
:1038C00080915C0290915D020E940E10182F811170
:1038D00014C080915C0290915D020E946706811184
:1038E0000AC040ED57E060E070E080915C0290918A
:1038F0005D020E94A9030150F1F691E0812F892712
:1039000080939E0181E492E00E948E188EE4809361
:103910007C0062E070E080E090E00E9460158091A1
:103920007A00806480937A0080917A0086FDFCCFD3
:10393000209178008091790030E0382B032E000C24
:10394000440B550B64EB7BE281E190E00E947B2706
:10395000922FE32F742F652F80914002882311F15D
:103960008E3008F08E508770806480937C00809148
:103970007A00806480937A0080917A0086FDFCCF83
:10398000A091780080917900B0E0B82B292F3E2FCC
:10399000472F562F0E94A5272FEF33E040E050E03D
:1039A0000E947B27209343023093440240934502B8
:1039B0005093460280914702853008F05AC0DA01E0
:1039C000C9018E549C40A109B10984319140A105DF
:1039D000B10530F487EE92E00E94D91111E010C0D9
:1039E00022363D404105510530F081ED92E00E94C4
:1039F000D91113E005C080EC92E00E94D91112E0C9
:103A00006091430270914402809145029091460278
:103A10004AE00E949D1086E591E00E948B10809103
:103A20004802811106C01093480281E0809347024A
:103A300020C081131CC0809147028F5F8093470292
:103A40008DEA92E00E94D9116091480270E080E016
:103A500090E04AE00E949D1089E992E00E94D9110D
:103A60006AE070E0809147020E94DE1002C010926E
:103A7000480280914802813009F478C0833009F00F
:103A80005AC08091430290914402A0914502B091A6
:103A900046028936E0E19E07A105B10508F066C03F
:103AA0008F36FFE09F07A105B105A8F09C01AD018D
:103AB0002E563F4041095109A4E1B0E00E949A27E7
:103AC0002AEF30E040E050E00E947B27205B3F4F30
:103AD0004F4F5F4F53C081312EE09207A105B105D2
:103AE000A8F09C01AD0120513E4041095109ACE3D1
:103AF000B0E00E949A272EE531E040E050E00E94BD
:103B00007B272C5E3F4F4F4F5F4F38C08D383AE0D8
:103B10009307A105B10578F19C01AD012C583A40FD
:103B200041095109A4E1B0E00E949A2724E833E05A
:103B300040E050E018C08230F1F48091430290914F
:103B40004402A0914502B09146029C01AD012C585F
:103B50003A4041095109A4E6B0E00E949A2722ECBC
:103B600031E040E050E00E947B2708C024E630E0CE
:103B700040E050E003C020E030E0A90125363105E7
:103B80004105510518F42093490203C085E680934E
:103B90004902E0909E01E11006C1C2C1DA948DEFA6
:103BA00092E00E94D911C8018D1991090E94C91291
:103BB00068EE73E080E090E00E946015DD2089F1FE
:103BC00065E070E080E090E00E94601580916504FF
:103BD0008B3009F4AAC1863109F061C261E080919D
:103BE00064040E94FA11009709F4C8C12092570496
:103BF000309258044092590450925A0420925B0427
:103C000030925C0440925D0450925E04909367048D
:103C1000809366048091660490916704892B09F073
:103C2000BDCF1092400410923D0410923F041092B8
:103C30003E040DE314E0F801129244E0E533F4078A
:103C4000D9F70E94A7118823C9F080EF0E9456116E
:103C5000DD24D394C12CB12CFF24F3940E94FF10D7
:103C60008E870E94FF109E85913009F0CCC1813073
:103C700009F0E1C180E48F1508F4FDC110923D0404
:103C800010923F0410923E04F80112928F01F4E06A
:103C900005331F07C9F74CE050E06FEF70E081E497
:103CA00094E00E94BD2680914802813009F476C2DA
:103CB00002E087E080935E0281E091E090936002F1
:103CC00080935F0284E090E09093620280936102AF
:103CD000E0915A02F0915B0280E1A3E6B2E001902C
:103CE0000D928A95E1F710E028E130E040E56EE5BD
:103CF00072E080915C0290915D020E940E10F82E9D
:103D0000882309F44DC21F5FFF2009F45CC2F092C2
:103D10009F018EE892E00E945E0517E010935E021C
:103D200085E091E09093600280935F0281E090E0F3
:103D30009093620280936102E0913004F09131042B
:103D40000190F081E02D80E394E00995FC0198E07A
:103D5000A3E6B2E001900D929A95E1F7E09130046C
:103D6000F09131040280F381E02D80E394E0099525
:103D7000FC019CE0ABE6B2E001900D929A95E1F770
:103D800080E30E946310082F80939F018EE892E0E9
:103D90000E945E0501111AC211E01E2510939E01BA
:103DA000112309F491C280914802813009F491C035
:103DB0008CE393E00E948E186BE470E080E090E06A
:103DC0000E94601580918E0290918F0284329940FA
:103DD00081F11C821B8280910401909105019C015C
:103DE0002F5F3F4F30930501209304019E838D8305
:103DF00085EC8F8308E310E020E030E040E050E005
:103E0000BE016F5F7F4F80919602909197020E9452
:103E1000D60C882371F064E279E08091960290914B
:103E200097020E94880E84E299E090938F0280931B
:103E30008E0260E088E194E00E94210360E088E166
:103E400094E00E948903482F4D7F60E088E194E070
:103E50000E94A40760E086E00E94AA1483B7817FD5
:103E6000846083BF8091410291E0980F909341025A
:103E700090914202891750F483B7816083BF83B762
:103E8000816083BF889583B78E7FEBCF83B78E7FAA
:103E900083BF80916400807180936400109241021E
:103EA00061E086E00E94AA1488E194E00E941E0866
:103EB00088E194E00E94D00948EE53E060E070E0B1
:103EC0008EE892E00E94A903109203011092020171
:103ED00024C080919E01882301F1C0900101D12C62
:103EE00040E3C41A48EFD40ACC0CDD1CCC0CDD1C1A
:103EF0008DE791E00E948B100D2C000CEE08FF085E
:103F00004AE0C701B6010E949D1086E591E00E943B
:103F10008B10C701B6010E9460150E94DD1371CCA1
:103F200085E0D82E04E010E04BCE62E1809164047D
:103F30000E94FA11009709F059CEF0905F046F2D9E
:103F400070E080E090E00E944B28609357047093EB
:103F500058048093590490935A04C09061046C2DC6
:103F600070E080E090E00E944B2860935B047093C7
:103F70005C0480935D0490935E0438C0B09060044C
:103F8000A0905F046B2D70E07A2980E090E00E94A1
:103F90004B282DEC3CEC4CEC5DE30E94B128609387
:103FA0005704709358048093590490935A04C09016
:103FB0006204F09061048F2D8F776C2D70E0782B68
:103FC00080E090E00E944B282DEC3CEC4CEC5DE353
:103FD0000E94B128F7FC57C060935B0470935C04A7
:103FE00080935D0490935E04BA0CCB0CFC0C81E0D2
:103FF00090E0209163042F1102C080E090E0919541
:104000008195910903CE2C2D30E098131EC080912C
:104010003D04F81638F4F901ED5CFB4F82818D21E7
:1040200051F402C0F81639F090E058E05F1560F0E6
:10403000F0923E0409C0EC2DF0E0ED5CFB4F828174
:104040008D29828391E009C0BF2CF901ED5CFB4F03
:1040500022818D2D809582238283892F0E942411B5
:10406000F394DD0C19F4C394DD24D39467E06C154C
:1040700008F0F4CDFFCDB0923D04B11015C081E041
:1040800080933F0411C0DC01CB01B05880935B04E6
:1040900090935C04A0935D04B0935E04A5CF10924E
:1040A000670410926604B6CD80913504882309F424
:1040B000E5CDEDE4F4E0DF0158978C91819394E035
:1040C000E535F907C1F7ADE4B4E0E0E02D852A1746
:1040D00089F08D918E27E82FEF70F0E0E85FFC4FBC
:1040E000949182958F70E82FF0E0E85EFC4FE491A8
:1040F000E927ECCF80915404E813CDCD80914D0495
:10410000803119F0883209F03EC00E94A7118DE479
:1041100094E00E94831184E40E94561168EE73E0DB
:1041200080E090E00E946015F894E0913304F091F3
:10413000340491818091320480958923818378941D
:104140000E94A7118DE494E00E9483118EEB0E94DF
:10415000561101E414E059E0A52EA00E48E0C42E4B
:10416000D12CBB24B394F12C0E94FF108111FB28A9
:10417000BB0C31E0C31AD108B9F7F801F1928F01F5
:10418000AE12ECCF90CD89E591E00E948B1060E1FA
:1041900070E080914D040E94DE1085CD05E089CD50
:1041A00080915C0290915D020E9467068111ABCD07
:1041B00040ED57E060E070E080915C0290915D021C
:1041C0000E94A903A0CD10138FCDA1CDE09155047D
:1041D000F09156040190F081E02D85E594E0099579
:1041E0006C01E0915504F09156040280F381E02DBA
:1041F00085E594E0099510935E0222E031E030936A
:10420000600220935F0222E030E03093620220934C
:104210006102D0926402C09263029093660280931E
:10422000650288E10E946310082F80939F018EE849
:1042300092E00E945E05002309F4AECDE0913E02BB
:10424000F0913F020190F081E02D8EE392E009951C
:104250006B017C01E0913E02F0913F020280F3810C
:10426000E02D8EE392E00995082FE0913E02F09157
:104270003F020480F581E02D8EE392E009951093D2
:104280005E0224E031E03093600220935F0223E07D
:1042900030E03093620220936102C0926302D092B8
:1042A0006402E0926502F0926602009367028093D6
:1042B000680288E10E946310E82E80939F018EE8D7
:1042C00092E00E945E0568CD0E949A1569877A8700
:1042D0008B879C8780914802813019F480E49CE9A7
:1042E00002C084EF91E0712C00E028EC622E4C01BA
:1042F000A12CB12C3EE2C32E33E0D32E0E949A159E
:10430000DC01CB0129853A854B855C85821B930BAB
:10431000A40BB50B88159905AA05BB0508F074C058
:10432000043011F00F5F10C0772011F0639401C0CA
:104330006A94F4E16F1629F024EB621204C0712C28
:1043400002C07724739400E0E62CF12C61E086E053
:104350000E94F614E114F10411F460E005C03FEF8F
:10436000E316F10429F461E086E00E94AA1443C038
:10437000F60184918330F9F048F48130B9F082304D
:10438000A1F584B5806284BD68BC35C08730E9F092
:10439000883019F1843049F58091800080628093E3
:1043A0008000F0928B00E0928A0025C084B580687E
:1043B00084BD67BC20C080918000806880938000AD
:1043C000F0928900E092880016C08091B000806869
:1043D0008093B0006092B3000EC08091B000806204
:1043E0008093B0006092B40006C0F0E8EF16F104CC
:1043F0000CF0B9CFB2CF8EE892E00E945E050E9429
:10440000D20681117BCF05C061E086E00E94AA142C
:1044100011E010939E01C7CCCF93DF93CDB7DEB7E9
:104420002E970FB6F894DEBF0FBECDBF1092A40139
:104430001092A30188EE93E0A0E0B0E08093A50184
:104440009093A601A093A701B093A80120E131E0C9
:104450003093A2012093A10125EC30E03093AE010E
:104460002093AD0124EC30E03093B0012093AF01F4
:1044700020EC30E03093B2012093B10121EC30E028
:104480003093B4012093B30122EC30E03093B601B5
:104490002093B50126EC30E03093B8012093B701AA
:1044A0001092BA011092BB011092BC011092BD0192
:1044B00010926B0410926A0480936C0490936D04C4
:1044C000A0936E04B0936F0482E291E0909369042C
:1044D0008093680486E491E0909356048093550499
:1044E0008EEF9FEF909367048093660484E080933F
:1044F000640486E1809365048EE391E09093310437
:104500008093300460E082E10E94F614E3EAF3E075
:104510008491EFE8F3E0E491F0E0EE0FFF1FED5837
:10452000FC4F25913491FE013C96AE014C5F5F4FEC
:104530001292E417F507E1F789833B832A831C86EF
:104540001D861E868EE0FE013196A2E3B4E0019046
:104550000D928A95E1F728E134E087E090E09093AE
:1045600019048093180488E090E090931B048093D2
:104570001A0410921E0480E280931F0410922004FB
:1045800085E08093260445E050E060E070E04093D1
:104590002C0450932D0460932E0470932F041092DA
:1045A00021043093D6022093D5024BED52E0509374
:1045B00076034093750343E853E05093820340939E
:1045C000810347E753E05093CE024093CD0210920F
:1045D000D1021092D2021092D3021092D402109201
:1045E000D0021092CF021092A6023093950220932F
:1045F000940226EA32E030939702209396022AE44E
:1046000032E030935B0220935A022EE832E030937E
:104610005D0220935C0224E331E030933F0220935B
:104620003E02109240021092410280934202109288
:10463000470210924802109249022E960FB6F89443
:10464000DEBF0FBECDBFDF91CF9108950F931F93B3
:10465000CF93DF93009731F46115710519F480E071
:1046600090E03AC08B01EC016EE070E081E090E0F8
:104670000E946925FC01892B91F380E88383011551
:10468000110571F01387028781E883838091EC0420
:104690009091ED04892B21F4F093ED04E093EC0468
:1046A0002097C9F0D187C0878381826083838091FE
:1046B000EE049091EF04892B71F4F093EF04E093F2
:1046C000EE048091F0049091F104892B21F4F09391
:1046D000F104E093F004CF01DF91CF911F910F918E
:1046E0000895A0E0B0E0E7E7F3E20C94BB27AE0149
:1046F000495F5F4FDA016D917D91AD010CEE14E0E1
:10470000F80182819381DC0113962C911397286024
:1047100013962C930E949723D8011296ED91FC9149
:1047200013972381277F2383E4E00C94D727ACE001
:10473000B0E0EDE9F3E20C94AD277C016B018A0156
:10474000FC0117821682838181FFBDC1CE010196D3
:104750004C01F7019381F60193FD859193FF8191BF
:104760006F01882309F4ABC1853239F493FD85913B
:1047700093FF81916F01853229F4B70190E00E9487
:10478000CF26E7CF512C312C20E02032A0F48B3201
:1047900069F030F4803259F0833269F420612CC022
:1047A0008D3239F0803339F4216026C022602460D4
:1047B00023C0286021C027FD27C030ED380F3A30D4
:1047C00078F426FF06C0FAE05F9E300D1124532EC8
:1047D00013C08AE0389E300D1124332E20620CC0A5
:1047E0008E3221F426FD6BC1206406C08C3611F494
:1047F000206802C0883641F4F60193FD859193FF4D
:1048000081916F018111C1CF982F9F7D9554933075
:1048100028F40C5F1F4FFFE3F9830DC0833631F09E
:10482000833771F0833509F05BC022C0F8018081C5
:1048300089830E5F1F4F44244394512C540115C0AB
:104840003801F2E06F0E711CF801A080B18026FFE4
:1048500003C0652D70E002C06FEF7FEFC5012C87AC
:104860000E94C4262C0183012C852F77222E17C08D
:104870003801F2E06F0E711CF801A080B18026FFB4
:1048800003C0652D70E002C06FEF7FEFC5012C877C
:104890000E94B2262C012C852068222E830123FC45
:1048A0001BC0832D90E048165906B0F4B70180E292
:1048B00090E00E94CF263A94F4CFF50127FC859131
:1048C00027FE81915F01B70190E00E94CF26311051
:1048D0003A94F1E04F1A51084114510471F7E5C0C0
:1048E000843611F0893639F5F80127FF07C0608159
:1048F0007181828193810C5F1F4F08C0608171813B
:10490000072E000C880B990B0E5F1F4F2F76722E0F
:1049100097FF09C090958095709561957F4F8F4F57
:104920009F4F2068722E2AE030E0A4010E940727E2
:10493000A82EA81844C0853729F42F7EB22E2AE06D
:1049400030E025C0F22FF97FBF2E8F36C1F018F46A
:10495000883579F0B4C0803719F0883721F0AFC0BE
:104960002F2F2061B22EB4FE0DC08B2D8460B82E87
:1049700009C024FF0AC09F2F9660B92E06C028E008
:1049800030E005C020E130E002C020E132E0F80173
:10499000B7FE07C060817181828193810C5F1F4FD8
:1049A00006C06081718180E090E00E5F1F4FA4011E
:1049B0000E940727A82EA818FB2DFF777F2E76FED2
:1049C0000BC0372D3E7FA51450F474FE0AC072FC54
:1049D00008C0372D3E7E05C0BA2C372D03C0BA2C37
:1049E00001C0B52C34FF0DC0FE01EA0DF11D808120
:1049F000803311F4397E09C032FF06C0B394B394FA
:104A000004C0832F867809F0B39433FD13C030FFC0
:104A100006C05A2CB31418F4530C5B18B32CB314FF
:104A200068F4B70180E290E03C870E94CF26B394FF
:104A30003C85F5CFB31410F43B1801C0312C34FF82
:104A400012C0B70180E390E03C870E94CF263C85EE
:104A500032FF17C031FD03C088E790E002C088E54F
:104A600090E0B7010CC0832F867859F031FF02C067
:104A70008BE201C080E237FD8DE2B70190E00E9439
:104A8000CF26A51438F4B70180E390E00E94CF262A
:104A90005A94F7CFAA94F401EA0DF11D8081B70171
:104AA00090E00E94CF26A110F5CF332009F451CE1B
:104AB000B70180E290E00E94CF263A94F6CFF7014A
:104AC0008681978102C08FEF9FEF2C96E2E10C94D4
:104AD000C9270F931F93CF93DF93869F8001879FF2
:104AE000100D969F100D1124C8010E948525EC0120
:104AF000009729F0A80160E070E00E94BD26CE0179
:104B0000DF91CF911F910F910895CF93DF93823062
:104B1000910510F482E090E0E091F404F091F50446
:104B200020E030E0C0E0D0E0309711F140815181C9
:104B300048175907C0F04817590761F482819381DB
:104B4000209719F09B838A832BC09093F504809360
:104B5000F40426C02115310519F04217530718F443
:104B60009A01BE01DF01EF010280F381E02DDCCF6D
:104B70002115310509F1281B390B2430310590F43A
:104B800012968D919C9113976115710521F0FB018F
:104B90009383828304C09093F5048093F404FD0111
:104BA000329644C0FD01E20FF31F8193919322508E
:104BB00031092D933C933AC02091F2043091F304D3
:104BC000232B41F420910801309109013093F30423
:104BD0002093F2042091060130910701211531053F
:104BE00041F42DB73EB740910A0150910B01241BAF
:104BF000350BE091F204F091F304E217F307A0F40F
:104C00002E1B3F0B2817390778F0AC014E5F5F4F22
:104C10002417350748F04E0F5F1F5093F30440935D
:104C2000F2048193919302C0E0E0F0E0CF01DF91C4
:104C3000CF9108950F931F93CF93DF93009709F4BB
:104C40008CC0FC013297138212820091F4041091FF
:104C5000F5040115110581F420813181820F931F24
:104C60002091F2043091F3042817390779F5F09375
:104C7000F304E093F20471C0D80140E050E0AE17B5
:104C8000BF0750F412962D913C911397AD01211559
:104C9000310509F1D901F3CF9D01DA013383228374
:104CA00060817181860F971F8217930769F4EC0169
:104CB00028813981260F371F2E5F3F4F3183208394
:104CC0008A819B8193838283452B29F4F093F50499
:104CD000E093F40442C01396FC93EE931297ED0117
:104CE000499159919E01240F351FE217F30771F482
:104CF00080819181840F951F029611969C938E93CB
:104D00008281938113969C938E931297E0E0F0E05A
:104D1000D80112968D919C911397009719F0F80184
:104D20008C01F6CF8D919C9198012E5F3F4F820FA1
:104D3000931F2091F2043091F3042817390769F486
:104D4000309729F41092F5041092F40402C01382F3
:104D500012821093F3040093F204DF91CF911F911C
:104D60000F910895FC010590615070400110D8F733
:104D7000809590958E0F9F1F0895DC0101C06D9363
:104D800041505040E0F70895FC016150704001909F
:104D90000110D8F7809590958E0F9F1F08950F935F
:104DA0001F93CF93DF93FB01238121FD03C08FEF7E
:104DB0009FEF28C022FF16C046815781248135818C
:104DC0004217530744F4A081B1819D012F5F3F4FEB
:104DD000318320838C93268137812F5F3F4F378328
:104DE000268310C0EB01092F182F0084F185E02DD8
:104DF0000995892BE1F68E819F8101969F838E8391
:104E0000812F902FDF91CF911F910F910895FA017B
:104E1000AA27283051F1203181F1E8946F936E7FF9
:104E20006E5F7F4F8F4F9F4FAF4FB1E03ED0B4E0EA
:104E30003CD0670F781F891F9A1FA11D680F791F2B
:104E40008A1F911DA11D6A0F711D811D911DA11D3C
:104E500020D009F468943F912AE0269F112430194C
:104E6000305D3193DEF6CF010895462F4770405DE7
:104E70004193B3E00FD0C9F7F6CF462F4F70405D96
:104E80004A3318F0495D31FD4052419302D0A9F7F1
:104E9000EACFB4E0A6959795879577956795BA95EB
:104EA000C9F700976105710508959B01AC010A2EB1
:104EB00006945795479537952795BA95C9F7620F88
:104EC000731F841F951FA01D0895F999FECF92BDF1
:104ED00081BDF89A992780B50895262FF999FECFBC
:104EE0001FBA92BD81BD20BD0FB6F894FA9AF99A07
:104EF0000FBE01960895052E97FB1EF400940E94A4
:104F0000922757FD07D00E94E42707FC03D04EF4F8
:104F10000C94922750954095309521953F4F4F4FD7
:104F20005F4F089590958095709561957F4F8F4F55
:104F30009F4F08950E940628A59F900DB49F900D45
:104F4000A49F800D911D11240895B7FF0C949A27FA
:104F50000E949A27821B930B08952F923F924F92A3
:104F60005F926F927F928F929F92AF92BF92CF92F9
:104F7000DF92EF92FF920F931F93CF93DF93CDB702
:104F8000DEB7CA1BDB0B0FB6F894DEBF0FBECDBF7A
:104F900009942A88398848885F846E847D848C844B
:104FA0009B84AA84B984C884DF80EE80FD800C8154
:104FB0001B81AA81B981CE0FD11D0FB6F894DEBF37
:104FC0000FBECDBFED010895A1E21A2EAA1BBB1B97
:104FD000FD010DC0AA1FBB1FEE1FFF1FA217B307C5
:104FE000E407F50720F0A21BB30BE40BF50B661FDB
:104FF000771F881F991F1A9469F76095709580959F
:1050000090959B01AC01BD01CF010895A29FB00115
:10501000B39FC001A39F700D811D1124911DB29FEC
:10502000700D811D1124911D08950E941C28689403
:10503000B1110C94AB2808950E94902888F09F57D6
:1050400098F0B92F9927B751B0F0E1F0660F771FAC
:10505000881F991F1AF0BA95C9F714C0B13091F0A2
:105060000E94AA28B1E008950C94AA28672F782FEF
:105070008827B85F39F0B93FCCF386957795679567
:10508000B395D9F73EF490958095709561957F4FD3
:105090008F4F9F4F0895E89409C097FB3EF4909579
:1050A0008095709561957F4F8F4F9F4F9923A9F001
:1050B000F92F96E9BB279395F69587957795679590
:1050C000B795F111F8CFFAF4BB0F11F460FF1BC0D4
:1050D0006F5F7F4F8F4F9F4F16C0882311F096E967
:1050E00011C0772321F09EE8872F762F05C0662315
:1050F00071F096E8862F70E060E02AF09A95660FCE
:10510000771F881FDAF7880F9695879597F9089586
:1051100057FD9058440F551F59F05F3F71F0479568
:10512000880F97FB991F61F09F3F79F0879508954D
:10513000121613061406551FF2CF4695F1DF08C06C
:10514000161617061806991FF1CF86957105610589
:1051500008940895E894BB2766277727CB0197F931
:1051600008950E94C4280C9435290E94272938F0FC
:105170000E942E2920F0952311F00C941E290C94E6
:10518000242911240C94AB280E94882870F3959F41
:10519000C1F3950F50E0551F629FF001729FBB272E
:1051A000F00DB11D639FAA27F00DB11DAA1F649FCA
:1051B0006627B00DA11D661F829F2227B00DA11D7D
:1051C000621F739FB00DA11D621F839FA00D611D03
:1051D000221F749F3327A00D611D231F849F600D24
:1051E000211D822F762F6A2F11249F5750409AF04D
:1051F000F1F088234AF0EE0FFF1FBB1F661F771FD9
:10520000881F91505040A9F79E3F510580F00C94A3
:105210001E290C94AB285F3FE4F3983ED4F38695A7
:1052200077956795B795F795E7959F5FC1F7FE2B43
:10523000880F911D9695879597F9089597F99F671F
:1052400080E870E060E008959FEF80EC089500240E
:105250000A941616170618060906089500240A94DB
:1052600012161306140605060895092E0394000C61
:1052700011F4882352F0BB0F40F4BF2B11F460FFF0
:1052800004C06F5F7F4F8F4F9F4F0895991B79E048
:1052900004C0991F961708F0961B881F7A95C9F7C6
:1052A00080950895AA1BBB1B51E107C0AA1FBB1F15
:1052B000A617B70710F0A61BB70B881F991F5A95A2
:1052C000A9F780959095BC01CD010895EE0FFF1FC1
:1052D0000590F491E02D099481E090E0F8940C940D
:1052E000AF29FB01DC0102C001900D9241505040FA
:1052F000D8F708956817790768F4FB01DC01E40F1B
:10530000F51FA40FB51F02C002900E9241505040ED
:10531000D8F708950C947129AEE0B0E0E2E9F9E223
:105320000C94BB270D891E8986E08C831A83098320
:105330008FEF9FE79E838D83AE01475E5F4F6F893E
:10534000788DCE0101960E9497232F813885F80130
:10535000E20FF31F10822E96E4E00C94D727F89406
:02536000FFCF7D
:105362000101010001000000F604800000000000BD
:105372007413E1120C13BB133D131B132F13000004
:1053820000003B1427144D14191420141D141A1470
:1053920000000000730270024502000000007B0260
:1053A2007902000000002F021902C33C33CE3EE313
:1053B200EC25303258000D0A004465766963652099
:1053C20066616D696C79206973206E6F74207265F5
:1053D200636F676E697A65643A203078004572724D
:1053E200657572206D6573682C207265636F6E6ED1
:0E53F20065637465722061707265732000003F
:107800000C94343C0C94513C0C94513C0C94513CE1
:107810000C94513C0C94513C0C94513C0C94513CB4
:107820000C94513C0C94513C0C94513C0C94513CA4
:107830000C94513C0C94513C0C94513C0C94513C94
:107840000C94513C0C94513C0C94513C0C94513C84
:107850000C94513C0C94513C0C94513C0C94513C74
:107860000C94513C0C94513C11241FBECFEFD8E036
:10787000DEBFCDBF11E0A0E0B1E0EAE8FFE702C063
:1078800005900D92A230B107D9F712E0A2E0B1E065
:1078900001C01D92AD30B107E1F70E942D3D0C945F
:1078A000C33F0C94003C982F95959595959595958B
:1078B000905D8F708A307CF0282F295A8091C0000B
:1078C00085FFFCCF9093C6008091C00085FFFCCF60
:1078D0002093C6000895282F205DF0CF982F809127
:1078E000C00085FFFCCF9093C6000895EF92FF92F1
:1078F0000F931F93EE24FF2487018091C00087FD22
:1079000017C00894E11CF11C011D111D81E2E8164D
:1079100081EAF80687E0080780E0180770F3E09135
:107920000401F091050109958091C00087FFE9CF1E
:107930008091C6001F910F91FF90EF9008950E94D3
:10794000763C982F8091C00085FFFCCF9093C600B5
:1079500091362CF490330CF09053892F089597555D
:10796000892F08951F930E949F3C182F0E949F3CCF
:107970001295107F810F1F9108951F93182F882350
:1079800021F00E94763C1150E1F71F9108951F935A
:10799000182F0E94763C803249F0809103018F5F5E
:1079A000809303018530C1F01F9108958091C0003C
:1079B00085FFFCCF84E18093C6008091C00085FFE5
:1079C000FCCF1093C6008091C00085FFFCCF80E102
:1079D0008093C6001F910895E0910401F091050184
:1079E00009951F9108950E94763C803241F0809164
:1079F00003018F5F80930301853081F008958091AA
:107A0000C00085FFFCCF84E18093C6008091C00058
:107A100085FFFCCF80E18093C6000895E0910401CA
:107A2000F09105010995089548EC50E08823A1F0F4
:107A30002D9A28EE33E0FA013197F1F721503040CA
:107A4000D1F72D9828EE33E0FA013197F1F7215064
:107A50003040D1F7815061F708953F924F925F9285
:107A60006F927F928F929F92AF92BF92CF92DF924E
:107A7000EF92FF920F931F93CF93DF93000082E06A
:107A80008093C00080E18093C4001092C50088E11B
:107A90008093C10086E08093C2005098589A259A3E
:107AA00081E00E94143D24E1F22E9EE1E92E85E959
:107AB000D82E0FE0C02E10E1B12EAA24A394B1E479
:107AC0009B2EA6E58A2EF2E57F2EE0E26E2E79E46B
:107AD000572E63E5462E50E5352E0E94763C8033C6
:107AE000B1F18133B9F1803409F46FC0813409F404
:107AF00076C0823409F485C0853409F488C08035A5
:107B000031F1823521F1813511F1853509F485C0D6
:107B1000863509F48DC0843609F496C0843709F49B
:107B200003C1853709F472C1863709F466C08091B4
:107B300003018F5F80930301853079F6E0910401A2
:107B4000F091050109950E94763C803351F60E9420
:107B5000F33CC3CF0E94763C803249F78091C0004D
:107B600085FFFCCFF092C6008091C00085FFFCCF5E
:107B70009092C6008091C00085FFFCCF8092C60025
:107B80008091C00085FFFCCF7092C6008091C0003C
:107B900085FFFCCF6092C6008091C00085FFFCCFBE
:107BA0005092C6008091C00085FFFCCF4092C60075
:107BB0008091C00085FFFCCF3092C6008091C0004C
:107BC00085FFFCCFB092C60088CF0E94763C8638F5
:107BD00008F4BDCF0E94763C0E94F33C7ECF0E9409
:107BE000763C803809F49CC0813809F40BC1823896
:107BF00009F430C1883909F48FC080E00E94C73C85
:107C00006CCF84E10E94BD3C0E94F33C66CF85E0CE
:107C10000E94BD3C0E94F33C60CF0E94763C809362
:107C200006010E94763C809307010E94F33C55CFE9
:107C30000E94763C803309F411C183E00E94BD3C70
:107C400080E00E94C73C49CF0E94763C80930902A5
:107C50000E94763C8093080280910C028E7F809374
:107C60000C020E94763C853409F409C18091080217
:107C700090910902892B89F000E010E00E94763C87
:107C8000F801E85FFE4F80830F5F1F4F809108026D
:107C9000909109020817190788F30E94763C8032F8
:107CA00009F045CF80910C0280FFF5C0609106017C
:107CB00070910701660F771F7093070160930601AB
:107CC000A0910802B09109021097C9F0E8E0F1E034
:107CD0009B01AD014E0F5F1FF999FECF32BD21BD53
:107CE000819180BDFA9AF99A2F5F3F4FE417F5070B
:107CF00099F76A0F7B1F70930701609306018091CB
:107D0000C00085FFFCCFF092C6008091C00085FFC7
:107D1000FCCFB092C600E1CE83E00E94C73CDDCE2E
:107D200082E00E94C73CD9CE0E94763C8093090233
:107D30000E94763C80930802809106019091070191
:107D4000880F991F90930701809306010E94763C4B
:107D5000853409F49AC080910C028E7F80930C02C6
:107D60000E94763C803209F0B8CE8091C00085FF39
:107D7000FCCFF092C600A0910802B09109021097C2
:107D8000C1F180910C02082F0170182F1695117007
:107D9000E0910601F0910701AF014F5F5F4FBA011B
:107DA00020E030E00023B1F4112339F49491809164
:107DB000C00085FFFCCF9093C6002F5F3F4FCB01E3
:107DC0000196FA012A173B0780F4BC014F5F5F4F11
:107DD000002351F3F999FECFF2BDE1BDF89A90B5B9
:107DE0008091C00085FFFCCFE6CF709307016093C0
:107DF00006018091C00085FDE5CE8091C00085FF21
:107E0000F8CFE0CE81E00E94C73C67CE0E94763C6E
:107E1000803209F08CCE8091C00085FFFCCFF092BB
:107E2000C6008091C00085FFFCCFE092C600809123
:107E3000C00085FFFCCFD092C6008091C00085FFB6
:107E4000FCCFC092C6008091C00085FFFCCFB092ED
:107E5000C60043CE80E10E94C73C3FCE0E94763CE4
:107E60000E94763C182F0E94763C112309F483C0AF
:107E7000113009F484C08FE00E94C73C2ECE80915F
:107E80000C02816080930C02F1CE80910C02816023
:107E900080930C0265CF809107018823880F880B9F
:107EA0008A2180930B028091060190910701880F2F
:107EB000991F90930701809306018091080280FF2B
:107EC00009C08091080290910902019690930902DD
:107ED00080930802F894F999FECF1127E0910601EA
