:100000000C9400010C948D220C9466220C9428010F
:100010000C9428010C9428010C94CF230C942801F3
:100020000C9428010C9428010C9428010C942801AC
:100030000C9428010C9428010C9428010C9428019C
:100040000C941C220C9428010C94EA210C94C421D9
:100050000C9428010C9428010C9428010C9428017C
:100060000C94B4220C94280141DB01000000000034
:100070000000000000000000000000000000000080
:10008000000000000000000000000000010000006F
:100090000000000000000000000000000000000060
:1000A000000000000000000000000000E0EB7A7C8F
:1000B0003B41B8AE1656E3FAF19FC46ADA098DEBFC
:1000C0009C32B1FD866205165F49B8005F9C95BC05
:1000D000A3508C24B1D0B1559C83EF5B04445CC425
:1000E000581C8E86D8224EDDD09F1157ECFFFFFFA3
:1000F000FFFFFFFFFFFFFFFFFFFFFFFFFFFFFFFF10
:10010000FFFFFFFFFFFFFFFFFFFFFF7F000000007B
:10011000250028002B00555549442073656E7365F2
:100120007572200000000000240027002A0053659B
:10013000747570207465726D696E6520617072658A
:10014000732000005EBCE2613FDD83C29C7E20A381
:10015000FD1F41009D23BE46DB65F88C11AF32CAFE
:1001600057E97400000008000201000003040700C2
:10017000000000000000000001020304051112133A
:100180001415160A0B0C0D0E0FB02AAE7DEECBBB6C
:10019000B1FC036FDDDC7D76670CE81F0DA3A0AA20
:1001A0001EB0BD726B2B4C8A7E34FC3760F41E226D
:1001B000A00BFB188460A57772657870616E64206F
:1001C00033322D62797465206B0000000023002615
:1001D00000290004040404040404040202020202CC
:1001E00002030303030303010204081020408001FB
:1001F00002040810200102040810200072244C247C
:1002000011241FBECFEFD8E0DEBFCDBF11E0A0E0CC
:10021000B1E0E4E1F7E602C005900D92AA39B1071A
:10022000D9F724E0AAE9B1E001C01D92AD34B207CC
:10023000E1F710E0CFEFD0E004C02197FE010E946B
:100240003D32CE3FD107C9F70E94BB250C947D33C8
:100250000C9400002F923F924F925F926F927F9288
:100260008F929F92AF92BF92CF92DF92EF92FF92C6
:100270000F931F93CF93DF93CDB7DEB7C554D1094A
:100280000FB6F894DEBF0FBECDBFFC017AAB69ABF1
:100290009CAB8BABCB01805C9F4F9F018B01D80146
:1002A0004D915D916D917D918D01D9014D935D933E
:1002B0006D937D939D018017910789F7408951893E
:1002C0006289738940805180628073804D8A5E8A22
:1002D0006F8A788E40A851A862A873A8C0A0D1A048
:1002E000E2A0F3A084889588A688B78889829A823C
:1002F000AB82BC820481158126813781098F1A8FD8
:100300002B8F3C8F84A995A9A6A9B7A98D8F9E8F05
:10031000AF8FB8A384A095A0A6A0B7A021968CAE5D
:100320009DAEAEAEBFAE2197008D118D228D338D67
:100330000D831E832F83388780859185A285B385A1
:1003400089A79AA7ABA7BCA780AC91ACA2ACB3AC71
:10035000898A9A8AAB8ABC8A00A511A522A533A5F1
:100360000DA31EA32FA338A7848D958DA68DB78DC1
:1003700084849584A684B78489869A86AB86BC8655
:1003800004AD15AD26AD37AD09A31AA32BA33CA32D
:1003900084A495A4A6A4B7A48DA69EA6AFA6B8AA29
:1003A0001AE0212E8D889E88AF88B88C840E951E09
:1003B000A61EB71E482459246A247B2482012301E7
:1003C0003801C40CD51CE61CF71C4C255D256E2598
:1003D0007F258A019B010F2EFCE0000F111F221FB9
:1003E000331FFA95D1F7F02D032E34E176956795FA
:1003F000579547953A95D1F7302D402B512B622BCD
:10040000732B95018401040F151F261F371F0D8BB9
:100410001E8B2F8B388F4026512662267326942CF4
:10042000A52CB62C872C8DAA9EAAAFAAB8AE8C0C90
:100430009D1CAE1CBF1C89AE9AAEABAEBCAE4825AF
:1004400059256A257B256A017B0127E0CC0CDD1C40
:10045000EE1CFF1C2A95D1F72A013B0139E1769465
:100460006794579447943A95D1F74C285D286E28A5
:100470007F284D865E866F86788A89809A80AB80D9
:10048000BC80C98CDA8CEB8CFC8C8C0C9D1CAE1C5B
:10049000BF1CCD8CDE8CEF8CF8A0C824D924EA24B4
:1004A000FB2486016701780121960CAD1DAD2EADB0
:1004B0003FAD21970C0D1D1D2E1D3F1D49815A81F9
:1004C0006B817C8140275127622773272A013B01DA
:1004D000032E3CE0440C551C661C771C3A95D1F762
:1004E000302D032E34E176956795579547953A95CB
:1004F000D1F7302D44295529662977292401350162
:10050000440E551E661E771E498E5A8E6B8E7C8E4B
:10051000C424D524E624F7247C2C8D2C9E2C6F2C0F
:100520006D8E7E8E8F8E98A2600E711E821E931E1F
:1005300021966CAE7DAE8EAE9FAE21974625572597
:10054000682579258A019B01689416F8000F111F10
:10055000221F331F1694D1F76A017B0149E1F694FB
:10056000E794D794C7944A95D1F7C02AD12AE22AB2
:10057000F32AC982DA82EB82FC82C9A4DAA4EBA452
:10058000FCA40D811E812F813885C00ED11EE21E74
:10059000F31E09891A892B893C890C251D252E25D6
:1005A0003F25A80189019A018DA09EA0AFA0B8A403
:1005B000800E911EA21EB31E4D815E816F817885D3
:1005C000482559256A257B252A013B01032E3CE05D
:1005D000440C551C661C771C3A95D1F7302D032E20
:1005E00034E176956795579547953A95D1F7302D33
:1005F000442955296629772926013701440E551EBD
:10060000661E771E498A5A8A6B8A7C8A04251525BC
:1006100026253725D02EE12EF22EC32E2596CCAEE0
:10062000DDAEEEAEFFAE25978C0C9D1CAE1CBF1C44
:10063000482559256A257B258A019B01689416F86F
:10064000000F111F221F331F1694D1F72A013B01FF
:1006500049E176946794579447944A95D1F7402A94
:10066000512A622A732A4D825E826F82788649847B
:100670005A846B847C84480E591E6A1E7B1E09A115
:100680001AA12BA13CA10425152526253725680193
:1006900089019601CDA4DEA4EFA4F8A8C00ED11E56
:1006A000E21EF31E8C259D25AE25BF25AC01BD01A4
:1006B000032E3CE0440F551F661F771F3A95D1F774
:1006C000302D072E74E1B695A795979587957A9565
:1006D000D1F7702D842B952BA62BB72BB301A2013C
:1006E000480F591F6A1F7B1F49875A876B877C8772
:1006F0000427152726273727502F032F322F212F86
:10070000152F26013701400E511E621E731E49A689
:100710005AA66BA67CA684259525A625B7252C016F
:100720003D0147E0440C551C661C771C4A95D1F7E7
:1007300059E1B695A795979587955A95D1F784294C
:100740009529A629B7294D885E886F88788CC9803D
:10075000DA80EB80FC804C0C5D1C6E1C7F1C042539
:10076000152526253725780189019701800E911ED0
:10077000A21EB31E49815A816B817C81482559256F
:100780006A257B256A017B010B2EBCE0CC0CDD1CAD
:10079000EE1CFF1CBA95D1F7B02D032E34E17695EF
:1007A0006795579547953A95D1F7302D4C295D2996
:1007B0006E297F2973016201C40ED51EE61EF71E45
:1007C000CD8ADE8AEF8AF88E0C251D252E253F2541
:1007D000502E612E722E432E49A25AA26BA27CA2E9
:1007E000480C591C6A1C7B1C4DA25EA26FA278A605
:1007F000930182010427152726273727B901A8016D
:10080000689416F8440F551F661F771F1694D1F78A
:100810002801390129E176946794579447942A95E1
:10082000D1F7442A552A662A772A49825A826B824E
:100830007C82898C9A8CAB8CBC8CCD80DE80EF80E6
:10084000F8848C0C9D1CAE1CBF1C4DA85EA86FA824
:1008500078AC482459246A247B247201230137018F
:10086000C9A4DAA4EBA4FCA4C40CD51CE61CF71C98
:100870004D815E816F8178854C255D256E257F25B4
:100880008A019B010F2EFCE0000F111F221F331F56
:10089000FA95D1F7F02D032E34E1769567955795AB
:1008A00047953A95D1F7302D402B512B622B732B66
:1008B00095018401040F151F261F371F098F1A8FFA
:1008C0002B8F3C8F4026512662267326142D472CF1
:1008D000762C652C512E46015701840C951CA61CC4
:1008E000B71C8DA69EA6AFA6B8AA482559256A258D
:1008F0007B258A019B01689416F8000F111F221FA7
:10090000331F1694D1F75A016B0149E1D694C7946D
:10091000B794A7944A95D1F7A02AB12AC22AD32A1C
:10092000AD82BE82CF82D88689889A88AB88BC88FF
:10093000880E991EAA1EBB1E0D8D1E8D2F8D38A1EF
:10094000082519252A253B25680189019601C9AC8E
:10095000DAACEBACFCACC00ED11EE21EF31E8C2553
:100960009D25AE25BF25AC01BD01032E3CE0440F03
:10097000551F661F771F3A95D1F7302D072E74E16A
:10098000B695A795979587957A95D1F7702D842B75
:10099000952BA62BB72BB501A401480F591F6A1F31
:1009A0007B1F49A75AA76BA77CA7042715272627D3
:1009B0003727902EA12EB22E832E8D8E9E8EAF8E37
:1009C000B8A2C80CD91CEA1CFB1C8C259D25AE25A1
:1009D000BF258C019D0147E0000F111F221F331F0F
:1009E0004A95D1F759E1B695A795979587955A9568
:1009F000D1F7802B912BA22BB32B8D849E84AF84B7
:100A0000B88809851A852B853C85800E911EA21E0B
:100A1000B31E89869A86AB86BC8625968CAC9DAC27
:100A2000AEACBFAC259729853A854B855C8582267F
:100A30009326A426B526A40145015A0121960CADA2
:100A40001DAD2EAD3FAD2197080D191D2A1D3B1D73
:100A50000DAB1EAB2FAB38AF4D855E856F857889AA
:100A600040275127622773278A019B010F2EFCE044
:100A7000000F111F221F331FFA95D1F7F02D032EFF
:100A800034E176956795579547953A95D1F7302D8E
:100A9000402B512B622B732B09851A852B853C85A6
:100AA000040F151F261F371F09871A872B873C87BE
:100AB00080269126A226B326182D292D3A2D0B2DFE
:100AC000098B1A8B2B8B3C8B8DA89EA8AFA8B8AC3A
:100AD000800E911EA21EB31E21968CAE9DAEAEAEB0
:100AE000BFAE2197482559256A257B254A015B0120
:100AF00027E0880C991CAA1CBB1C2A95D1F739E168
:100B000076956795579547953A95D1F7482959298C
:100B10006A297B292A94211045CC408B518B628B0A
:100B2000738B0D891E892F89388D00831183228351
:100B3000338340AA51AA62AA73AAC0A2D1A2E2A298
:100B4000F3A229813A814B815C81248B358B468BC2
:100B5000578B498D5A8D6B8D7C8D4483558366836D
:100B600077834D8C5E8C6F8C78A044AA55AA66AAB8
:100B700077AA21966CAC7DAC8EAC9FAC219764A219
:100B800075A286A297A28D809E80AF80B884808E49
:100B9000918EA28EB38EA9A4BAA4CBA4DCA4A08605
:100BA000B186C286D386C988DA88EB88FC88C0AE55
:100BB000D1AEE2AEF3AEEDA0FEA00FA118A5E0A667
:100BC000F1A602A713A7848F958FA68FB78F0985EB
:100BD0001A852B853C85048715872687378729A1A9
:100BE0003AA14BA15CA124AF35AF46AF57AF4DA59D
:100BF0005EA56FA578A944A755A766A777A7E05C6F
:100C0000FF4FABA9BCA94D915D916D917D91BCAB9E
:100C1000ABABA9A9BAA90D911D912D913D91BAAB8C
:100C2000A9ABABA9BCA91497400F511F621F731F3A
:100C30004D935D936D937C9313974BA85CA8E4153B
:100C4000F505F9F6CB5BDF4F0FB6F894DEBF0FBEAC
:100C5000CDBFDF91CF911F910F91FF90EF90DF906B
:100C6000CF90BF90AF909F908F907F906F905F904C
:100C70004F903F902F9008958330910528F0880F72
:100C8000991F04970197F1F7089580E190E0089586
:100C90008091DF02E091E002F091E102F89491810D
:100CA000982B91832281382F309523232283A2E031
:100CB000B0E01197F1F7918193239183A0E1B0E027
:100CC0001197F1F790817894E6E6F0E03197F1F72B
:100CD000982381E009F480E008959091DF02E0918B
:100CE000E002F091E102292F209580FF14C0F894D2
:100CF0008281822382838181892B8183A0E1B0E07C
:100D00001197F1F78281982B928378948AE690E08C
:100D10000197F1F70895F89482818223828381817B
:100D2000892B8183AEE7B0E01197F1F78281982B90
:100D30009283789486E090E0EBCF0F931F93CF934C
:100D4000DF93082FC8E0D0E011E081E0902F9123DD
:100D500009F480E00E946D06110F2197B1F7F89415
:100D6000E091E002F091E10291818091DF028095B3
:100D700089238183E091E002F091E10292818091E8
:100D8000DF028095892382837894DF91CF911F9130
:100D90000F9108950F931F93CF93DF938C0185E5F7
:100DA0000E949D06E801085F1F4F89910E949D06E1
:100DB000C017D107D1F7DF91CF911F910F910895FF
:100DC00094B7977F94BF9091600098619093600072
:100DD00091E2909360009091600090649093600025
:100DE00014BEA89593B7917F946093BFF89490E652
:100DF00095BF90E495BF789490E0891749F023B7A8
:100E0000216023BF889523B72E7F23BF9F5FF5CF37
:100E100083B78E7F83BF84B7877F84BF8091600054
:100E2000886180936000109260008091600080640F
:100E300080936000809164008071809364000895C5
:100E400081E0809313020895419608954D96089588
:100E5000FC0182850895FC016481758186819781FA
:100E600008958E5B9F4FFC01808108950895AF9295
:100E7000BF92CF92DF92EF92FF920F931F93CF9387
:100E8000DF936C017B018B01040F151FEB015E01E9
:100E9000AE18BF08C017D10759F06991D601ED917E
:100EA000FC910190F081E02DC6010995892B79F71D
:100EB000C501DF91CF911F910F91FF90EF90DF90CF
:100EC000CF90BF90AF900895FC01538D448D252F96
:100ED00030E0842F90E0821B930B541710F0CF96D4
:100EE000089501970895FC01918D828D981761F006
:100EF000A28DAE0FBF2FB11D5D968C91928D9F5F1D
:100F00009F73928F90E008958FEF9FEF0895FC01FB
:100F1000918D828D981731F0828DE80FF11D858DAE
:100F200090E008958FEF9FEF0895FC01918D228D41
:100F3000892F90E0805C9F4F821B91098F739927C6
:100F400008958AE192E00E94950721E0892B09F437
:100F500020E0822F089580E090E0892B29F00E9404
:100F6000A10781110C9400000895FC01A48DA80F25
:100F7000B92FB11DA35ABF4F2C91848D90E00196DB
:100F80008F739927848FA689B7892C93A089B189FB
:100F90008C91837080648C93938D848D981306C09C
:100FA0000288F389E02D80818F7D80830895EF9200
:100FB000FF920F931F93CF93DF93EC0181E0888F13
:100FC0009B8D8C8D98131AC0E889F989808185FFE3
:100FD00015C09FB7F894EE89FF896083E889F98985
:100FE00080818370806480839FBF81E090E0DF9187
:100FF000CF911F910F91FF90EF900895F62E0B8DDA
:1010000010E00F5F1F4F0F731127E02E8C8D8E1194
:101010000CC00FB607FCFACFE889F989808185FFFB
:10102000F5CFCE010E94B507F1CFEB8DEC0FFD2F70
:10103000F11DE35AFF4FF0829FB7F8940B8FEA89B6
:10104000FB8980818062CFCF0F931F93CF93DF9373
:101050008C01D0E0C0E0F801EC0FFD1F6491662325
:1010600041F08AE192E00E94D707892B11F0219686
:10107000F2CFCE01DF91CF911F910F910895CF93C1
:10108000DF93EC01888D8823B9F0AA89BB89E889B0
:10109000F9898C9185FD03C0808186FD0DC00FB656
:1010A00007FCF7CF8C9185FFF2CF808185FFEDCFD4
:1010B000CE010E94B507E9CFDF91CF91089590E06E
:1010C000FC01ED59FE4F2491FC01E951FE4F349192
:1010D000FC01ED52FE4FE491EE23C9F0222339F0DA
:1010E000233001F1A8F4213019F1223029F1F0E088
:1010F000EE0FFF1FE45FFE4FA591B4918FB7F894F8
:10110000EC91611126C030953E233C938FBF08952A
:101110002730A9F02830C9F0243049F780918000A9
:101120008F7D03C0809180008F7780938000DFCF18
:1011300084B58F7784BDDBCF84B58F7DFBCF809165
:10114000B0008F778093B000D2CF8091B0008F7DB8
:10115000F9CF3E2BDACFCF93DF9390E0FC01E9513A
:10116000FE4F24918D529E4FFC0184918823D1F033
:1011700090E0880F991FFC01EC5DFE4FA591B491A2
:10118000FC01E45FFE4FC591D49161110EC09FB781
:10119000F8948C91E22FE0958E238C932881E223A2
:1011A000E8839FBFDF91CF9108958FB7F894EC91BA
:1011B000E22BEC938FBFF6CF8E3008F08E50877005
:1011C000806480937C0080917A00806480937A00B0
:1011D00080917A0086FDFCCF809178009091790013
:1011E00008953FB7F89480910A0290910B02A09164
:1011F0000C02B0910D0226B5A89B05C02F3F19F037
:101200000196A11DB11D3FBFBA2FA92F982F882786
:10121000BC01CD01620F711D811D911D43E0660F60
:10122000771F881F991F4A95D1F708958F929F9233
:10123000AF92BF92CF92DF92EF92FF926B017C014F
:101240000E94F1084B015C01C114D104E104F104D6
:10125000B9F00E94F108681979098A099B09683E6A
:1012600073408105910580F321E0C21AD108E1089D
:10127000F10888EE880E83E0981EA11CB11CE4CF13
:10128000FF90EF90DF90CF90BF90AF909F908F90A6
:1012900008958F929F92AF92BF92DF92EF92FF924A
:1012A0000F931F93CF93DF93C82F162F90E0FC016D
:1012B000E951FE4FD491FC01ED52FE4FE491F0E074
:1012C000EE0FFF1FE753FE4FE590F49010920C03D2
:1012D00010920D0310920E0310920F031092100340
:1012E00061E08C2F0E94AB0860E08C2F0E945F08A9
:1012F000612F70E090E080E00E94160961E08C2F81
:101300000E945F088CE490E00197F1F760E08C2F79
:101310000E94AB0888EC90E0F70120812D2381F436
:101320000197D1F78EEF9FEFDF91CF911F910F9132
:10133000FF90EF90DF90BF90AF909F908F900895B7
:1013400088EC90E0F70120812D2319F00197D1F767
:10135000E9CF08E210E8D12C88EC90E0F701208179
:101360002D2319F40197D1F7DDCF0E94F1084B012D
:101370005C0188EC90E0F70120812D2319F00197A2
:10138000D1F7D0CF0E94F108681979098A099B0921
:10139000693271058105910538F0ED2DF0E0EE5FC1
:1013A000FC4F8285812B8287169511F4D39410E827
:1013B000015091F661E08C2F0E94AB0861E08C2F08
:1013C0000E945F0890E080E0AFCF2FB7F894609163
:1013D00006027091070280910802909109022FBFC6
:1013E0000895089585ED8093BC008091BC0084FD34
:1013F000FCCF1092DF0108952091BB01260F332707
:10140000331F21323105ECF42091DF01FC0190E023
:1014100080E0243069F082E00895A091BB01219121
:10142000AC0145565E4FA40FB52FB11D2C9301960C
:10143000861798F38091BB01680F6093BB0180E031
:10144000089581E008958FEF9FEF08958FEF9FEF4C
:10145000089580919A0190E0919581959109089560
:10146000CF93DF93CB01EA01642F0E94FC09CE01E8
:10147000DF91CF910895CF93DF931F92CDB7DEB761
:10148000698361E0CE0101960E94FC0981E090E051
:101490000F90DF91CF91089590E080E0089521E0D2
:1014A000FC018085811101C020E0822F08956F9298
:1014B0007F928F929F92AF92BF92CF92DF92EF92E4
:1014C000FF920F931F93CF93DF93FC0123AD211164
:1014D000E7C0DB019B01240F351F4296DFEFA21707
:1014E000B30709F4DDC0CD91FC01F2A0E1A000A09A
:1014F000000CEE1CFF1C000CEE1CFF1C000CEE1C74
:10150000D48C058C0694D7940694D7940694D794DB
:101510000488C588000CCC1C000CCC1C00891189E7
:10152000029512950F70107F012B0084B184000C7E
:10153000BB1C000CBB1C000CBB1CA3809280018058
:10154000000C991CAA1C000C991C000C991C000C86
:10155000991C80A48E2470A087247D24648C76241A
:101560006C24748967267027608976276B255085DF
:1015700065275A254081542797260E2C0522902452
:10158000E6209E24052E0620902407219026072C75
:101590000094B0209B24062F009504270F2C0A20CE
:1015A0000025AC200A25FC200F25DD220D25092C65
:1015B0000D2200250C270295102F107F81260F7019
:1015C00000A701A000A202A001A203A002A204A001
:1015D00003A205A004A206A005A207A0FF24880C70
:1015E000FF1C880CFF1C880CFF1C082806A2F7A211
:1015F000058C048E068C058E078C068E028CFF24CB
:101600007694F7947694F7947694F7940F28078E4F
:10161000728E0588048A0688058A0788068A008CE7
:10162000FF246694F7940F28078A608E0188008A49
:101630000288018A0388028A0684038A0784FF24B9
:101640007695F7940F2806867787018400860284B2
:10165000018603840286048403860584FF2466953C
:10166000F7946695F7940F280486658701800082B9
:10167000028001820380028204800382058004824A
:10168000068005820780FF245695F7945695F794B7
:101690005695F7940F2806825783CC2FC9251FCF64
:1016A000DF91CF911F910F91FF90EF90DF90CF903E
:1016B000BF90AF909F908F907F906F9008955F92B2
:1016C0006F927F928F929F92AF92BF92CF92DF9252
:1016D000EF92FF920F931F93CF93DF93A42FD52FF9
:1016E000262F572E302FCC2DFC017096F2A0E1A0B2
:1016F00000A0000CEE1CFF1C000CEE1CFF1C000CDC
:10170000EE1CD48C058C0694D7940694D79406943A
:10171000D7940488C588000CCC1C000CCC1C008914
:101720001189029512950F70107F012B0084B184EE
:10173000000CBB1C000CBB1C000CBB1CA3809280CB
:101740000180000C991CAA1C000C991C000C991C0F
:10175000000C991C80A48E2470A087247D24648CA6
:1017600076246C24748967267027608976276B2518
:10177000508565275A254081542797260E2C05222F
:101780009024E6209E24052E0620902407219026F2
:10179000072C0094B0209B24062F009504270F2CC3
:1017A0000A200025AC200A25FC200F25D3220D2578
:1017B000092C0C2200250A270295102F107F812664
:1017C0000F7000A701A000A202A001A203A002A224
:1017D00004A003A205A004A206A005A207A0FF245E
:1017E000880CFF1C880CFF1C880CFF1C082806A214
:1017F000F7A2058C048E068C058E078C068E028C53
:10180000FF247694F7947694F7947694F7940F28BF
:10181000078E728E0588048A0688058A0788068ADC
:10182000008CFF246694F7940F28078A608E018845
:10183000008A0288018A0388028A0684038A078450
:10184000FF247695F7940F28068677870184008613
:101850000284018603840286048403860584FF24AF
:101860006695F7946695F7940F280486658701803E
:10187000008202800182038002820480038205804C
:101880000482068005820780FF245695F7945695BA
:10189000F7945695F7940F28068257838A2F892547
:1018A00090E0B0E0A0E0F2A0E1A000A0000CEE1CEF
:1018B000FF1C000CEE1CFF1C000CEE1CD48C058CD5
:1018C0000694D7940694D7940694D7940488C58830
:1018D000000CCC1C000CCC1C0089118902951295BF
:1018E0000F70107F012B0084B184000CBB1C000C16
:1018F000BB1C000CBB1CA38092800180000C991CB7
:10190000AA1C000C991C000C991C000C991C80A4AA
:101910008E2470A087247D24648C76246C247489A2
:1019200067267027608976276B25508565275A259D
:101930004081542797260E2C05229024E6209E24D1
:10194000052E0620902407219026072C0094B02015
:101950009B24062F009504270F2C0A200025AC207D
:101960000A25FC200F25D3220D25092C0C22002549
:101970000D270295102F107F81260F7000A701A060
:1019800000A202A001A203A002A204A003A205A03B
:1019900004A206A005A207A0FF24880CFF1C880C47
:1019A000FF1C880CFF1C082806A2F7A2058C048ED9
:1019B000068C058E078C068E028CFF247694F79495
:1019C0007694F7947694F7940F28078E728E058894
:1019D000048A0688058A0788068A008CFF24669494
:1019E000F7940F28078A608E0188008A0288018A8E
:1019F0000388028A0684038A0784FF247695F79475
:101A00000F28068677870184008602840186038476
:101A10000286048403860584FF246695F794669500
:101A2000F7940F2804866587018000820280018276
:101A3000038002820480038205800482068005827E
:101A40000780FF245695F7945695F7945695F7948A
:101A50000F2806825783DD2FD925F2A0E1A000A030
:101A6000000CEE1CFF1C000CEE1CFF1C000CEE1CFE
:101A7000D48C058C0694D7940694D7940694D79466
:101A80000488C588000CCC1C000CCC1C0089118972
:101A9000029512950F70107F012B0084B184000C09
:101AA000BB1C000CBB1C000CBB1CA38092800180E3
:101AB000000C991CAA1C000C991C000C991C000C11
:101AC000991C80A48E2470A087247D24648C7624A5
:101AD0006C24748967267027608976276B2550856A
:101AE00065275A254081542797260E2C05229024DD
:101AF000E6209E24052E0620902407219026072C00
:101B00000094B0209B24062F009504270F2C0A2058
:101B10000025AC200A25FC200F25D3220D25092CF9
:101B20000C22002502270295102F107F81260F70AE
:101B300000A701A000A202A001A203A002A204A08B
:101B400003A205A004A206A005A207A0FF24880CFA
:101B5000FF1C880CFF1C880CFF1C082806A2F7A29B
:101B6000058C048E068C058E078C068E028CFF2455
:101B70007694F7947694F7947694F7940F28078EDA
:101B8000728E0588048A0688058A0788068A008C72
:101B9000FF246694F7940F28078A608E0188008AD4
:101BA0000288018A0388028A0684038A0784FF2444
:101BB0007695F7940F28068677870184008602843D
:101BC000018603840286048403860584FF246695C7
:101BD000F7946695F7940F28048665870180008244
:101BE00002800182038002820480038205800482D5
:101BF000068005820780FF245695F7945695F79442
:101C00005695F7940F2806825783222F2925422FB5
:101C100050E070E060E0BA01552744275D2B842B2B
:101C2000952BA62BB72BF2A0E1A000A0000CEE1C78
:101C3000FF1C000CEE1CFF1C000CEE1CD48C058C51
:101C40000694D7940694D7940694D7940488C588AC
:101C5000000CCC1C000CCC1C00891189029512953B
:101C60000F70107F012B0084B184000CBB1C000C92
:101C7000BB1C000CBB1CA38092800180000C991C33
:101C8000AA1C000C991C000C991C000C991C80A427
:101C90008E2470A087247D24648C76246C2474891F
:101CA00067267027608976276B25508565275A251A
:101CB0004081542797260E2C05229024E6209E244E
:101CC000052E0620902407219026072C0094B02092
:101CD0009B24062F009504270F2C0A200025AC20FA
:101CE0000A25FC200F25D3220D25092C0C220025C6
:101CF00005250295102F107F81260F7000A701A0E7
:101D000000A202A001A203A002A204A003A205A0B7
:101D100004A206A005A207A0FF24880CFF1C880CC3
:101D2000FF1C880CFF1C082806A2F7A2058C048E55
:101D3000068C058E078C068E028CFF247694F79411
:101D40007694F7947694F7940F28078E728E058810
:101D5000048A0688058A0788068A008CFF24669410
:101D6000F7940F28078A608E0188008A0288018A0A
:101D70000388028A0684038A0784FF247695F794F1
:101D80000F280686778701840086028401860384F3
:101D90000286048403860584FF246695F79466957D
:101DA000F7940F28048665870180008202800182F3
:101DB00003800282048003820580048206800582FB
:101DC0000780FF245695F7945695F7945695F79407
:101DD0000F2806825783E52DE925BC01CD019E2BF6
:101DE000DF91CF911F910F91FF90EF90DF90CF90F7
:101DF000BF90AF909F908F907F906F905F9008956D
:101E00008F929F92AF92BF92CF92DF92EF92FF920A
:101E10000F931F93CF93DF93EC017B016A010FEFC8
:101E20001FEF980141E050E060E070E00E945F0B1E
:101E30000FEF1FEF980140E050E0BA01CE010E9481
:101E40005F0B0FEF1FEF980140E050E0BA01CE01A9
:101E50000E945F0B0FEF1FEF980140E050E0BA01C6
:101E6000CE010E945F0B00E010E0980140E050E0DE
:101E7000BA01CE010E945F0B00E010E0980140E043
:101E800050E0BA01CE010E945F0B00E010E0980123
:101E900040E050E0BA01CE010E945F0B00E010E08C
:101EA000980140E050E0BA01CE010E945F0BDF9143
:101EB000CF911F910F91FF90EF90DF90CF90BF9047
:101EC000AF909F908F9008955F926F927F928F92C4
:101ED0009F92AF92BF92CF92DF92EF92FF920F93B9
:101EE0001F93CF93DF93EC017B016A0189018BADD6
:101EF000811109C04FEF5FEFBA01CE0102960E9437
:101F0000000F81E08BAFC601D7019701200F311F71
:101F1000FE017296A217B30709F4DBC0EC015990D9
:101F2000CE01F2A0E1A000A0000CEE1CFF1C000CF2
:101F3000EE1CFF1C000CEE1CD48C058C0694D79470
:101F40000694D7940694D7940488C588000CCC1CBA
:101F5000000CCC1C00891189029512950F70107F1E
:101F6000012B0084B184000CBB1C000CBB1C000CBA
:101F7000BB1CA38092800180000C991CAA1C000C41
:101F8000991C000C991C000C991C80A48E2470A034
:101F900087247D24648C76246C24748967267027BA
:101FA000608976276B25508565275A2540815427FF
:101FB00097260E2C05229024E6209E24052E06202E
:101FC000902407219026072C0094B0209B24062FF4
:101FD000009504270F2C0A200025AC200A25FC20A0
:101FE0000F250D25952409250295102F107F812698
:101FF0000F7000A701A000A202A001A203A002A2EC
:1020000004A003A205A004A206A005A207A0FF2425
:10201000880CFF1C880CFF1C880CFF1C082806A2DB
:10202000F7A2058C048E068C058E078C068E028C1A
:10203000FF247694F7947694F7947694F7940F2887
:10204000078E728E0588048A0688058A0788068AA4
:10205000008CFF246694F7940F28078A608E01880D
:10206000008A0288018A0388028A0684038A078418
:10207000FF247695F7940F280686778701840086DB
:102080000284018603840286048403860584FF2477
:102090006695F7946695F7940F2804866587018006
:1020A0000082028001820380028204800382058014
:1020B0000482068005820780FF245695F794569582
:1020C000F7945695F7940F2806825783C92DCD9320
:1020D00021CFDF91CF911F910F91FF90EF90DF9073
:1020E000CF90BF90AF909F908F907F906F905F90B8
:1020F00008952F923F924F925F926F927F928F92AC
:102100009F92AF92BF92CF92DF92EF92FF920F9386
:102110001F93CF93DF93EC018B017A0129018BADE3
:10212000811109C04FEF5FEFBA01CE0102960E9404
:10213000000F81E08BAFC701D8019801240D351D38
:102140001E0142E1240E311CDFEF512CA217B30710
:1021500009F4E0C0FC01C191CF01F101F2A0E1A0BE
:1021600000A0000CEE1CFF1C000CEE1CFF1C000C61
:10217000EE1CD48C058C0694D7940694D7940694C0
:10218000D7940488C588000CCC1C000CCC1C00899A
:102190001189029512950F70107F012B0084B18474
:1021A000000CBB1C000CBB1C000CBB1CA380928051
:1021B0000180000C991CAA1C000C991C000C991C95
:1021C000000C991C80A48E2470A087247D24648C2C
:1021D00076246C24748967267027608976276B259E
:1021E000508565275A254081542797260E2C0522B5
:1021F0009024E6209E24052E062090240721902678
:10220000072C0094B0209B24062F009504270F2C48
:102210000A200025AC200A25FC200F25DD220D25F3
:10222000092C052000250C270295102F107F8126F0
:102230000F7000A701A000A202A001A203A002A2A9
:1022400004A003A205A004A206A005A207A0FF24E3
:10225000880CFF1C880CFF1C880CFF1C082806A299
:10226000F7A2058C048E068C058E078C068E028CD8
:10227000FF247694F7947694F7947694F7940F2845
:10228000078E728E0588048A0688058A0788068A62
:10229000008CFF246694F7940F28078A608E0188CB
:1022A000008A0288018A0388028A0684038A0784D6
:1022B000FF247695F7940F28068677870184008699
:1022C0000284018603840286048403860584FF2435
:1022D0006695F7946695F7940F28048665870180C4
:1022E00000820280018203800282048003820580D2
:1022F0000482068005820780FF245695F794569540
:10230000F7945695F7940F2806825783CC2FC9254A
:10231000CD931CCFDF91CF911F910F91FF90EF9044
:10232000DF90CF90BF90AF909F908F907F906F90F5
:102330005F904F903F902F9008950F931F93CF93EE
:10234000DF9300E010E021E030E0081B190B2109C9
:102350003109890101501109FB01DA01AB01405E2D
:102360005F4F219131918D919C91119782279327F5
:1023700080239123BF016250710928273927EB017F
:10238000398328832D913C911197822793278D9330
:102390009D93E417F50729F7DF91CF911F910F91D6
:1023A00008956F927F928F929F92AF92BF92CF9239
:1023B000DF92EF92FF920F931F93CF93DF93FC0175
:1023C0003B01CA01EF01AB01405E5F4F9F01C12C91
:1023D000D12C7601D3010D911D913D01DC016D9150
:1023E0007D91CD016701EE24FF2446015701B1E044
:1023F0008B229924AA24BB246801F12CE12CC61A53
:10240000D70AE108F108C818D908EA08FB08D90179
:10241000CD92DD929D0146155705E1F66701EE2448
:10242000FF24B3E1CB22DD24EE24FF2480819181BF
:10243000B0E0A0E08C199D09AE09BF0991838083AB
:102440009F01225E3F4FCD01AA27BB2781709927AC
:10245000AA27BB274A815B8170E060E07A018B018B
:10246000E81AF90A0A0B1B0BD801C701A701FB8266
:10247000EA8222962C173D0731F75F77578F468FF8
:10248000DF91CF911F910F91FF90EF90DF90CF9050
:10249000BF90AF909F908F907F906F9008958F9294
:1024A0009F92AF92BF92CF92DF92EF92FF920F93E3
:1024B0001F93CF93DF93CDB7DEB7A0970FB6F894F5
:1024C000DEBF0FBECDBFFC019C01AE014F5F5F4F71
:1024D000BC01605E7F4F8A01A3E18A2E912CA12C62
:1024E000B12CD901ED90FD909D01D501C4018E0D57
:1024F0009F1DA11DB11D6C017D01D801CD92DD9202
:102500008D014701AA24BB242617370751F72F8DC9
:1025100038A17901FF0CEE08FE2CC701809590953B
:102520003F7738A32F8F00811181DA012D913D91E2
:10253000AD01202731272E213F212027312721934C
:1025400031936E177F0779F7A0960FB6F894DEBF28
:102550000FBECDBFDF91CF911F910F91FF90EF90F4
:10256000DF90CF90BF90AF909F908F9008958F9203
:102570009F92AF92BF92EF92FF92CF93DF93FB01B6
:10258000EA01DC019B01205E3F4F40E050E0BA01D0
:10259000E190F19089909990B12CA12C8E0C9F1C08
:1025A000A11CB11C480D591D6A1D7B1D4D935D93E7
:1025B000AB0166277727E217F30751F7DF91CF9139
:1025C000FF90EF90BF90AF909F908F900C944F1220
:1025D0002F923F924F925F926F927F928F929F9233
:1025E000AF92BF92CF92DF92EF92FF920F931F9321
:1025F000CF93DF934C01FB01C68DD78D2D2F221F6A
:102600002227221F30E0A3E1B0E00E945D306B0181
:102610007C01DF77D78FC68F1F018F0150E05801F3
:102620000E5F1F4FD50190962D913C91A6E2B0E030
:102630000E945D30E501288139812B013C01420E69
:10264000531E611C711CC40CD51CE61CF71CD80160
:102650001297CD92DC926701EE24FF245F5F451351
:10266000DECF5031C1F0A52FB0E0AA0FBB1FED01A6
:10267000CE0FDF1F89919991C80ED91EE11CF11C64
:10268000CE010297DC01CD92DC926701EE24FF249B
:102690005F5F503179F7A6E2B0E0A70196010E9492
:1026A00028306B017C01468D578D252F221F222754
:1026B000221F30E0A3E1B0E00E945D306C0D7D1D73
:1026C0008E1D9F1D5F77578F468F9F01205E3F4F66
:1026D000DF014D915D91640F751F811D911DAD014D
:1026E00042505109EA0179836883BC018827992700
:1026F0002A173B0771F79F0143E150E060E070E06B
:10270000E901899199919E01480F591F611D711D21
:102710005F8F4E8FAB0166277727A217B30781F72C
:1027200086AD97ADAC01550F440B542F9F7797AFF3
:1027300086AFF401D1016D917D911D015E968D9161
:102740009C915F9786279727842395238627972731
:10275000819391932A173B0769F7DF91CF911F91DE
:102760000F91FF90EF90DF90CF90BF90AF909F9030
:102770008F907F906F905F904F903F902F90089533
:102780002F923F924F925F926F927F928F929F9281
:10279000AF92BF92CF92DF92EF92FF920F931F936F
:1027A000CF93DF93CDB7DEB7C454D1090FB6F894F9
:1027B000DEBF0FBECDBF6C011B01DB01AD90BC9035
:1027C000FE0131964A01B0E28B0E911C7A01412C38
:1027D000512C32012296EFAF22972396FFAF239719
:1027E000D7012D913D917D01D5010E945D30460EAE
:1027F000571E681E791E4192519223016624772448
:102800008E149F0469F75AA249A27101B2E0EB0E3F
:10281000F11CFE01B39680E2280E311CD7014D90C9
:102820005D907D018F01005211093A01812C912C9C
:102830005401D3012D913D913D01D2010E945D30A3
:10284000D8012D913D912596BFAFAEAF2597620F70
:10285000731F811D911D860E971EA81EB91ED801DB
:102860008D929C924501AA24BB2425960EAD1FADE6
:1028700025970E171F07E9F6F801819291922E1401
:102880003F0461F640E122966FAD229723967FAD1B
:102890002397C6010E94E812CC5BDF4F0FB6F89475
:1028A000DEBF0FBECDBFDF91CF911F910F91FF9083
:1028B000EF90DF90CF90BF90AF909F908F907F90E0
:1028C0006F905F904F903F902F9008951F93CF93FC
:1028D000DF93DC015F961C915F9730E020E080E0A1
:1028E00060E071E0F901E557FF4F949191279F77E0
:1028F000F901E657FF4FED016F9644915A91452734
:10290000942B3197AC17BD07C1F7AB01491B510997
:10291000852B205E3F4F203A310521F7DF91CF9183
:102920001F910895AB010C94C013680F791FFC012F
:102930001082019668177907D1F70895CF93DF9336
:10294000EC0160E270E009960E9495141D821E82DF
:102950001F828FEF93E09AA789A71CA61BA61EA62D
:102960001DA618AA1FA6DF91CF910895CF93DF93DC
:10297000EC018C810E94DC0829A53AA582179307F7
:1029800014F49AA789A72BA53CA52817390714F496
:102990009CA78BA74A815B819A01281B390B2227B0
:1029A000330F221F33276DA57EA560FF37C09D81A1
:1029B000921791F08E81803278F4FE01E80FF11DBC
:1029C0009185990F922B91879F819F5F9F8398306C
:1029D00018F08F5F8E831F828FA598A9820F931F97
:1029E00098AB8FA76F5F7F4F7EA76DA7611574406F
:1029F00094F02BA53CA569A57AA5261B370B20389A
:102A0000310574F4CE010E949E1481E0888780E035
:102A100092E09B838A83DF91CF9108952D83DCCF51
:102A20009C012C5C314028363105C0F44E81483180
:102A300080F050E09A01220F331F220F331FE881EC
:102A4000F9810284F385E02DBE01675F7F4FCE01DF
:102A50000995CE010E949E141886DDCF9C013A95FF
:102A600021303240E8F020E032E0B901681B790BF8
:102A7000CB0177FD079623E0959587952A95E1F799
:102A8000481B590B5B834A838A819B8197FF11C046
:102A90001B821A82CE010E949E1481E08887BBCFE0
:102AA000811592401CF441505109ECCF4F5F5F4FAC
:102AB000E9CF8115944074F38FEF93E09B838A8371
:102AC000E9CF2EE431E0FC01318320830C949E1485
:102AD0007F928F929F92AF92BF92CF92DF92EF92AE
:102AE000FF920F931F93CF93DF93CDB7DEB760971D
:102AF0000FB6F894DEBF0FBECDBF5C0180E1FB01D5
:102B0000DE01119601900D928A95E1F7F501128A86
:102B1000138A148A158A168A178A108E118E128EBD
:102B2000138E148E158E178E168E11A210A212A25D
:102B300013A214A215A216A217A210A611A613A6DC
:102B400012A615A614A616A617A610AA11AA12AAAE
:102B500013AA14AA15AA16AA17AA10AE11AE12AE7D
:102B600013AE4501F2E08F0E911CF50142815381B5
:102B700064817581CC24CA94DC2C76010FEF1FEFA1
:102B80009801C4010E945F0BF50146815781608561
:102B900071850FEF1FEF9801C4010E945F0BF501D3
:102BA00042855385648575850FEF1FEF9801C40139
:102BB0000E945F0BF50146855785608971890FEF8B
:102BC0001FEF9801C4010E945F0B49815A816B81FC
:102BD0007C810FEF1FEF9801C4010E945F0B4D81B4
:102BE0005E816F8178850FEF1FEF9801C4010E940D
:102BF0005F0B49855A856B857C850FEF1FEF980128
:102C0000C4010E945F0B4D855E856F8578890FEF4B
:102C10001FEF9801C4010E945F0BF50142815381AF
:102C200064817581F1E04F270FEF1FEF9801C40118
:102C30000E945F0BF50146815781608571850FEF1A
:102C40001FEF9801C4010E945F0BF5014285538577
:102C5000648575850FEF1FEF9801C4010E945F0B1B
:102C6000F50146855785608971890FEF1FEF98013F
:102C7000C4010E945F0B2BE0722EF501428153814B
:102C800064817581CC24CA94DC2C76010FEF1FEF90
:102C90009801C4010E945F0BF50146815781608550
:102CA00071850FEF1FEF9801C4010E945F0BF501C2
:102CB00042855385648575850FEF1FEF9801C40128
:102CC0000E945F0BF50146855785608971890FEF7A
:102CD0001FEF9801C4010E945F0B7A947110CDCF51
:102CE00060E170E0CE0101960E94951481E060964B
:102CF0000FB6F894DEBF0FBECDBFDF91CF911F910D
:102D00000F91FF90EF90DF90CF90BF90AF909F908A
:102D10008F907F9008954031510511F40C946815FF
:102D200080E008956AE370E002960C949514EF92A7
:102D3000FF920F931F93CF93DF93CDB7DEB76097CA
:102D40000FB6F894DEBF0FBECDBF10E04131510584
:102D500030F58A017B01DC01ED91FC910688F78951
:102D6000E02DBE016F5F7F4F0995DE011196F701DF
:102D70000E0D1F1D20E0E017F10729F08D919191B4
:102D80008927282BF8CF80E091E0821B9109192F29
:102D9000117060E170E0CE0101960E949514812FC0
:102DA00060960FB6F894DEBF0FBECDBFDF91CF9116
:102DB0001F910F91FF90EF90089520E331E0FC0107
:102DC00021933193CF016AE370E00C94951460E293
:102DD00070E00C949514FC012081318182819381F3
:102DE0002817390719F0822F0C945F080895CF93A4
:102DF000DF93EC018CB58F7D8CBD8CB5837F8CBD52
:102E00008CB58C7F8CBD8DB581608DBD8A810E9413
:102E10005F088C899D89DF91CF910C943C0661E01D
:102E20000C94F71660E00C94F7168EBD00000DB4FC
:102E300007FEFDCF8EB508951F93CF93DF93EC016E
:102E40000E94121781EE0E941517182FCE010E94C2
:102E50000F17812FDF91CF911F9108950F931F932B
:102E6000CF93DF938C01C62FD42F0E9412178C2F83
:102E70008F7180620E941517C82F8D2F0E94151721
:102E8000C8010E940F178C2FDF91CF911F910F91D6
:102E90000895CF92DF92EF92FF920F931F93CF93FB
:102EA000DF937C01C62F6A01122F0E9412178C2F0C
:102EB0008F7180620E941517082FE601115020F0D3
:102EC00089910E941517FACFC7010E940F17802F12
:102ED000DF91CF911F910F91FF90EF90DF90CF90F6
:102EE00008951F93CF93DF93EC01162F0E941217C2
:102EF000812F0E9415178FEF0E941517182FCE01F2
:102F00000E940F17812FDF91CF911F91089560E0EC
:102F100085EC92E00E94EB1660E085EC92E00E9466
:102F20007117482F4D7F60E085EC92E00C942E17CE
:102F3000CF93DF93C82FAB01813059F5E4E8F1E07E
:102F400064912091D30285EC92E00E944917D0E071
:102F5000FE01E358FE4F64914091CC0285EC92E073
:102F60000E942E1762E085EC92E00E947117FE012C
:102F7000E958FE4FE49141E050E001C0440FEA956A
:102F8000EAF7482B62E085EC92E0DF91CF910C9458
:102F90002E17E5E8F1E0649121E0D5CF0F931F9360
:102FA000CF938C0166E085EC92E00E947117C82FE8
:102FB000C77D85E590E0A0E0B0E00230110529F47E
:102FC000C0628BE990E0A0E0B0E08093D5029093DE
:102FD000D602A093D702B093D8024C2F66E085ECBE
:102FE00092E00E942E1766E085EC92E00E94711735
:102FF00091E0C81390E0892FCF911F910F91089510
:103000000F931F93CF938C01C62F66E00E94711718
:10301000887FC43058F4CC0FCF5F4C2F482B66E02C
:10302000C801CF911F910F910C942E17C7E0F5CFD7
:10303000CF93DF93EC0160E00E94711781FD0EC019
:10304000482F426060E0CE010E942E1765E070E0DC
:1030500080E090E0DF91CF910C941609DF91CF9141
:103060000895CF93DF93EC0160E00E94EB1688890E
:1030700099890E943C066DE1CE010E94711781FF83
:1030800007C0888999890E943C06CE010E941C17BE
:1030900060E0CE010E947117482F4E7F60E0CE01A4
:1030A0000E942E1762E0CE010E947117E7E7F1E05F
:1030B000E49141E050E001C0440FEA95EAF7482B63
:1030C00062E0CE01DF91CF910C942E17CF93DF9366
:1030D000EC010E94181860E0CE010E947117482F81
:1030E000416060E0CE010E942E1740E767E0CE010C
:1030F0000E942E1761E0CE010E94EB16898588237D
:1031000099F02E85AE01475F5F4F6AE0CE010E94C5
:1031100049176DE1CE010E94711781FF1AC0CE01DF
:10312000DF91CF910C941C1762E0CE010E947117C1
:10313000E7E7F1E0E49121E030E001C0220FEA95F9
:10314000EAF72095422F482362E0CE010E942E1715
:10315000E0CFDF91CF9108954F925F926F927F926F
:103160008F929F92AF92BF92CF92DF92EF92FF9297
:103170000F931F93CF93DF93982E892E1092B10354
:1031800080918F038F5F80938F0386E0E82E98E213
:10319000A92EBB24B394F090B103F1108CC0EA9433
:1031A000EE2009F488C080914C0390914D030E9459
:1031B0003118C0914C03D0914D031F81012F113262
:1031C00008F000E28885101B811110E0CE010E94FA
:1031D000121780EB0E941517C92CD82C015030F023
:1031E000F60181916F010E941517F8CF115020F060
:1031F00080E00E941517FACFCE010E940F1761E000
:10320000CE010E94EB160E94E5092B013C01CE0184
:103210000E9412178FEF0E941517182FCE010E94DF
:103220000F171073B1F50E94E50964197509860935
:103230009709603671058105910548F381E08F8714
:10324000F092B10368E080914C0390914D030E948D
:10325000711720918B0330918C03215F3F4F309386
:103260008C0320938B038F7020918D0330918E03FC
:10327000820F932F911D90938E0380938D038091E5
:103280004C0390914D030E946618C5010197F1F718
:1032900082CF60E0CE010E94EB1640E767E0CE01EE
:1032A0000E942E1784FF04C0CE010E941C17C8CFB5
:1032B000FF24F394C5CF8F2DDF91CF911F910F91F4
:1032C000FF90EF90DF90CF90BF90AF909F908F9046
:1032D0007F906F905F904F900895CF93DF93EC01B4
:1032E000BC016C5F7F4F2CE130E0AB018EE493E0DA
:1032F0000E947910CE01DF91CF910C94AC18FC01A3
:1033000021893289232B81F420E030E040E251E42E
:1033100062817381848195810E94D0310E94E33063
:10332000CB01693E734010F08FEF90E00895CF938A
:10333000DF93EC0189899A8960E070E8892B61F458
:1033400020E030E040E251E46E817F8188859985FC
:103350000E94D0310E94E330CB018C509E4F893EB9
:103360009340B8F48B899C89811520E8920759F025
:10337000861B970B97FF03C0919581959109C39781
:1033800014F060E070E87C8B6B8BCB01DF91CF9108
:10339000089560E070E8F9CFFC018185833091F4F5
:1033A0004481558166817781483B8BE058076105F0
:1033B0007105D8F081E04C3A5D4061057105A0F0DF
:1033C00080E012C08230E1F74481558166817781C7
:1033D000443B9AE059076105710530F081E0473DB3
:1033E0005A406105710560F7089582E0089565E02F
:1033F000FC01848195810C94711766E0FC01848145
:1034000095810E94711790E0959587958370089536
:103410008091DF02E091E002F091E102F894918165
:10342000282F20959223918378943DE7315011F114
:1034300090819823D9F3F894928192239283918179
:10344000982B91837894ACEBB3E01197F1F7F89453
:10345000918192239183A8E8B0E01197F1F79081D0
:10346000982381E009F080E07894E0E3F3E031977D
:10347000F1F7089580E00895FC0101900020E9F73C
:103480003197AF01481B590BBC018AE192E00C94C3
:1034900037078F929F92AF92BF920F931F93CF9354
:1034A000DF93CDB7DEB7A1970FB6F894DEBF0FBE9E
:1034B000CDBF19A2423008F44AE08E010F5D1F4FC4
:1034C000842E912CB12CA12CA50194010E943B309B
:1034D000E62FB901CA01EA30F4F4E05DD801EE93B9
:1034E0008D01232B242B252B79F790E080E010977A
:1034F00019F0CD010E943C1AA1960FB6F894DEBFD8
:103500000FBECDBFDF91CF911F910F91BF90AF90B4
:103510009F908F900895E95CE1CFEF92FF920F9317
:103520001F93CF93DF937C018C01CFE0D0E0CE01DD
:103530000E94E92FF80181938F012196CF31D105A7
:10354000B1F7C701DF91CF911F910F91FF90EF90DD
:1035500008950F931F93CF93DF93CDB7DEB7609796
:103560000FB6F894DEBF0FBECDBF8C01CE01019621
:103570000E948D1A80E1FE013196D80101900D92D2
:103580008A95E1F760960FB6F894DEBF0FBECDBF07
:10359000DF91CF911F910F910895EF92FF920F93BA
:1035A0001F93CF93DF937C018C01C0E2D0E0CE016A
:1035B0000E94E92FF80181938F012196C034D10533
:1035C000B1F7C701DF91CF911F910F91FF90EF905D
:1035D0000895CF93DF93EB010E94E92F8883CE01FA
:1035E000DF91CF9108950F931F93CF93DF93C5EB96
:1035F000D3E088A999A9AAA9BBA90196A11DB11DCB
:1036000088AB99ABAAABBBABBE0185EF93E00E9440
:103610002A0180E3E5EFF3E0A5ECB3E001900D9221
:103620008A95E1F70E94F1080CA91DA92EA93FA9CE
:10363000DC01CB0180279127A227B3278CAB9DAB60
:10364000AEABBFABDF91CF911F910F9108955F9209
:103650006F927F928F929F92AF92BF92CF92DF92A2
:10366000EF92FF920F931F93CF93DF93CDB7DEB707
:1036700060970FB6F894DEBF0FBECDBF3B01542E4E
:10368000852E5C0122E0A20EB11CFC0183AD8111EC
:1036900006C04FEF5FEFBA01C5010E94000F40E086
:1036A00050E0BA01C5010E94000F94E1992ECC248C
:1036B000CA94DC2C76010FEF1FEF980140E050E038
:1036C000BA01C5010E945F0B9A949110F0CF0FEFE1
:1036D0001FEF980140E050E0BA01C5010E945F0B66
:1036E00069837A838B839C830FEF1FEF980140E0FF
:1036F00050E0BA01C5010E945F0B6D837E838F830A
:1037000098870FEF1FEF980140E050E0BA01C50124
:103710000E945F0B69877A878B879C870FEF1FEF6B
:10372000980140E050E0BA01C5010E945F0B6D872F
:103730007E878F87988B452D582D4131510510F08C
:1037400040E150E0BE016F5F7F4FC3010E946D33C7
:1037500060E170E0CE0101960E94951460960FB66C
:10376000F894DEBF0FBECDBFDF91CF911F910F91B7
:10377000FF90EF90DF90CF90BF90AF909F908F9091
:103780007F906F905F9008954031510551F4DC01B6
:10379000129680E1FB0101900D928A95E1F781E09C
:1037A000089580E008958091E5039091E603A0914B
:1037B000E703B091E8030196A11DB11D8093E503D5
:1037C0009093E603A093E703B093E80365EB73E0FF
:1037D00085EF93E00E942A014FE250E060ED73E034
:1037E00085EF93E00E94F12FE5EFF3E044E254E02F
:1037F0006CEA8191682728E0862F062E000C990B31
:10380000880F892F881F990B8D71660F68272150AB
:1038100099F74E175F0769F78FEF93E00E94FB2F30
:103820000E94F31A0E94E5096093370470933804EC
:103830008093390490933A0408950F931F93CF9384
:10384000DF938C01EB01CA0123E0969587952A95B9
:10385000E1F78617970740F0209731F0AB0183E03E
:10386000440F551F8A95E1F7209135048091360465
:10387000382F3F7160E871E0621B730B46175707E2
:10388000C8F5240F351F20933504932F9F71807E38
:10389000892B80933604209799F1CE01C133D1054D
:1038A00010F080E390E0C81BD90BA5ECB3E0F80161
:1038B000800F911F31912C9123272D93E817F90741
:1038C000C9F78F010E94F31A209739F780913604C7
:1038D00085FF19C020913504382F3F7120383140C1
:1038E00090F08F7D80933604DF91CF911F910F91DF
:1038F0000C94D31B90E890933504807E8160C9CFEF
:103900000E94F31AE3CFDF91CF911F910F91089599
:10391000CB01BA01A9010C941D1CCF92DF92EF924A
:10392000FF92CF93DF93EC0140E150E069EB71E04F
:1039300085EB93E00E94D02F40E350E069E871E00E
:1039400085EC93E00E94D02F40E350E060ED73E0FF
:1039500085EF93E00E94D92FE5EFF3E044E254E0D5
:103960008CEA9191892798E0282F082E000C330BC0
:10397000220F232F221F330B2D71880F8227915086
:1039800099F74E175F0769F79091240498131CC0AC
:10399000E5ECF3E025EF33E0C190D190E190F190B8
:1039A000AF014450510984A595A5A6A5B7A5C82681
:1039B000D926EA26FB26DA01CD92DD92ED92FC9221
:1039C00013972E173F0741F7109235048091360464
:1039D000807E8062809336040E94F31A209769F0FB
:1039E000FE0101900020E9F73197BF016C1B7D0BB0
:1039F00050E040E0CE010E941D1C50E040E063E139
:103A000070E084E791E00E941D1CF894A89584B7AB
:103A1000877F84BF8091600088618093600080E42C
:103A20008093600078940E94D31B80913604806458
:103A300080933604DF91CF91FF90EF90DF90CF908D
:103A40000895CF92DF92EF92FF920F931F93CF933F
:103A5000DF938C01EB018091360486FD04C090E079
:103A600080E00E948D1C2091350480913604382F0F
:103A70003F71A901A3E055954795AA95E1F74C1729
:103A80005D0708F041C010923504807E80933604B3
:103A90008091360487FF47C050E040E070E060E06E
:103AA00090E080E00E941D1C809136048F77809307
:103AB0003604109248048091E5039091E603A091AA
:103AC000E703B091E8030196A11DB11D8093E503C2
:103AD0009093E603A093E703B093E80365EB73E0EC
:103AE00085EF93E00E942A01AE0165EF73E0C80103
:103AF0000E946D33DF91CF911F910F91FF90EF9056
:103B0000DF90CF900C94F31AAE01F3E0440F551FF1
:103B1000FA95E1F7241B350B20933504932F9F7101
:103B2000807E892BB3CFF89480911902803208F4FB
:103B30003FC020911502309116024091170250911A
:103B4000180210921502109216021092170210928B
:103B50001802109219027894A9E0B0E00E9428306F
:103B60009B01AC01EBE05695479537952795EA9573
:103B7000D1F72627372748275927A1E0B0E80E9428
:103B80002830C090C503D090C603E090C703F090E2
:103B9000C803DC01CB018C259D25AE25BF25809374
:103BA000C5039093C603A093C703B093C80383CF04
:103BB000789481CFCF93DF93CDB7DEB7C055D109CD
:103BC0000FB6F894DEBF0FBECDBF209190032F5FDC
:103BD0002093900329E029A3E0914A03F0914B033D
:103BE00020812AA31CA21BA21EA21DA298A78FA3FC
:103BF000CE0189960E94A91ACE0181960E94AC1826
:103C00008091B103882309F463C08091B4038823B1
:103C100009F460C060E170E0CE018F5B9F4F0E94AD
:103C2000211D8091B4038823A1F06AE370E080E550
:103C300093E00E94951440E150E061E973E08EE466
:103C400093E00E94C41B81112DC088E891E00E947E
:103C50003C1A89E08983E0914A03F0914B0380810B
:103C60008A8381E090E09C838B838EEF9FEF9E831D
:103C70008D8380E1FE01EF5BFF4FDE01179601901F
:103C80000D928A95E1F7CE0101960E94AC1882E070
:103C9000C05BDF4F0FB6F894DEBF0FBECDBFDF9124
:103CA000CF910895BE016F5B7F4F8EE493E00E9439
:103CB0006815811103C080E991E0C9CF46E150E069
:103CC000BE016F5D7F4F8EE493E00E94570AC1CF23
:103CD00080E0DECF81E0DCCFCF93DF93CDB7DEB7DE
:103CE000A0970FB6F894DEBF0FBECDBF99E09983C1
:103CF000E0914A03F0914B0390819A832FEF3FEFBD
:103D00003C832B833E832D8390E098878F83809123
:103D1000B403BE01675F7F4F8823A9F040E150E004
:103D20008EE493E00E94271B1092B203CE0101960D
:103D30000E94AC18A0960FB6F894DEBF0FBECDBFA0
:103D4000DF91CF91089580E1FB0111928A95E9F707
:103D5000EBCF2F923F924F925F926F927F928F9212
:103D60009F92AF92BF92CF92DF92EF92FF920F930A
:103D70001F93CF93DF93CDB7DEB7CB50D2400FB6B2
:103D8000F894DEBF0FBECDBFC85FDD4F9983888337
:103D9000C850D240C65FDD4F79836883CA50D24095
:103DA0004115510509F4C9C280E2FA01DE01AF5B99
:103DB000BF4F01900D928A95E1F7A1968EAD9FAD10
:103DC000A1979F77A1969FAF8EAFA197CE018F5BF2
:103DD0009F4F0E944F128170C95FDD4F8883C7508B
:103DE000D240CE018F599F4FFC0132962EE1DF0168
:103DF0001D922A95E9F721E030E0FC013183208310
:103E00009E012F553F4F10E2D901E12F1D92EA95F7
:103E1000E9F7BE016F577F4FFE01EF5BFF4FDB01FC
:103E2000412F01900D924A95E1F7AE014F535F4F3C
:103E3000FC01DA0101900D921A95E1F7FFEFCA5FDC
:103E4000DD4FF883C650D240E12CAFE1CD5FDD4FAE
:103E5000A883C350D24010E4712E5B016C01942EF4
:103E6000852E8901C65FDD4FE881F981CA50D240B5
:103E7000CD5FDD4FB881C350D240EB0FF11D6080A4
:103E80006720E624F12CA501B601C7010E949D110F
:103E9000492D582DB801C7010E949D11A801B601F6
:103EA000CE018F519F4F0E94B712BE016F517F4FBD
:103EB000CE018F579E4F0E949214A801B601CE01E9
:103EC0008F5F9E4F0E94D111BE016F5F7E4FCE016A
:103ED0008F559E4F0E949214AE014F555E4FBE010A
:103EE0006F577E4FCE018F599E4F0E94D111492DA1
:103EF000582DB501CE018F5D9E4F0E94B712492DFE
:103F0000582DB501CE018F5B9E4F0E94D111AE019D
:103F10004F515F4FBE016F5B7E4FCE018F539E4F5F
:103F20000E94C013AE014F5F5E4FBE016F5D7E4FBA
:103F3000CE018F519E4F0E94C013AE014F515E4F74
:103F4000BE016F537E4FC5010E94B712B501C50176
:103F50000E949214AE014F515E4FBE016F537E4FCF
:103F6000892D982D0E94D111692D782D892D982D9C
:103F70000E949214AE014F5B5F4F692D782D892D01
:103F8000982D0E94C013AE014F555E4FBE016F5772
:103F90007E4FC6010E94C013E8E6F0E045915491BF
:103FA000FE01EF59FE4FCC5FDD4FF983E883C4502B
:103FB000D240E056F140B1E6EB2EFF24F394EC0E34
:103FC000FD1E20E2E20EF11CCE018F599E4FCF5F05
:103FD000DD4F99838883C150D240212C312C21019F
:103FE000CF5FDD4FA881B981C150D2402D913D9165
:103FF000CF5FDD4FB983A883C150D240DA010E9460
:104000005D30260E371E481E591E21923192120134
:1040100044245524CF5FDD4F28813981C150D240DF
:10402000E216F306E9F63AA229A2EAE6F0E0E59004
:10403000F490FE013396212C312C2101CC5FDD4F11
:10404000A881B981C450D2402D913D91CC5FDD4F04
:10405000B983A883C450D240D7010E945D30DF01EC
:104060002D913D91AB01BC01420F531F611D711D8C
:10407000420D531D641D751D518340831B01442453
:104080005524FD01CF5FDD4F28813981C150D240D9
:10409000CC5FDD4F88819981C450D2402817390701
:1040A00069F63CA22BA242E0BE016F5F7F4FC801C0
:1040B0000E94E812AE014F575E4FB801C8010E943E
:1040C000B712AE014F595E4FB801C8010E94C0132C
:1040D0007694E62CE694711011C0CD5FDD4F988187
:1040E000C350D2409150CD5FDD4F9883C350D24032
:1040F000E62CE794EE24E79440E8742ECA5FDD4F87
:10410000A881C650D240A150CA5FDD4FA883C650D7
:10411000D240A111A7CEF12CA501B601C7010E9482
:104120009D11AE014F535F4FBE016F557F4FC701C9
:104130000E949D11BE016F557F4FCE0101960E94D6
:10414000921439E0F32EBE016F5F7F4FCB010E94C6
:104150009214FA94F110F7CFAE014F555F4FBE01A4
:104160006F5F7F4FCE018F539F4F0E94C01327E197
:10417000F22E9AE0E92EBE016F5F7F4FCB010E94C5
:104180009214EA94E110F7CFAE014F5F5F4FBE018A
:104190006F537F4FCB010E94C013FA94F110E9CF07
:1041A000BE016F537F4FCE0101960E949214AE0163
:1041B0004F5F5F4FBE016F537F4FCB010E94C01313
:1041C00088E0F82EBE016F5F7F4FCB010E949214F2
:1041D000AE014F5F5F4FBE016F537F4FCB010E9417
:1041E000C013FA94F110EECFCE0101960E94E716AB
:1041F000BE016F537F4FCB010E949214BE016F53DB
:104200007F4FCB010E949214A801BE016F537F4FD4
:10421000CB010E94C013BE016F537F4FCB010E94A0
:104220009214BE016F537F4FCB010E949214A801DC
:10423000BE016F537F4FCB010E94C013BE016F536D
:104240007F4FCB010E949214A801BE016F537F4F94
:10425000CB010E94C013AE014F535F4FB601C601A0
:104260000E94C01380E2F601C85FDD4FA881B981CA
:10427000C850D24001900D928A95E1F7CE018F5B34
:104280009F4F0E94E716C6010E94E716C5010E94D3
:10429000E716C8010E94E716CE018F539F4F0E9478
:1042A000E716CE018F519F4F0E94E716CE018F5F18
:1042B0009E4F0E94E716CE018F5D9E4F0E94E7162B
:1042C000CE018F5B9E4F0E94E716CE018F599E4F05
:1042D0000E94E716CE018F579E4F0E94E716CE012F
:1042E0008F559E4F0E94E716CE018F539E4F0E941E
:1042F000E716CE018F519E4F0E94E716C95FDD4F32
:104300008881C750D240C55FDD4F0FB6F894DEBF3D
:104310000FBECDBFDF91CF911F910F91FF90EF9016
:10432000DF90CF90BF90AF909F908F907F906F90D5
:104330005F904F903F902F9008958EE1E1E4F0E080
:10434000EC0FFD1F3296DF011D928A95E9F789E097
:1043500090E023969FAF8EAF239738CD0E946833AD
:10436000CF93DF93EC010E94DD16CE01DF91CF9158
:104370000C94DF32CF93DF93EC010E946115CE01E4
:10438000DF91CF910C94DF321F920F920FB60F92F4
:1043900011242F933F934F935F936F937F938F934A
:1043A0009F93AF93BF93EF93FF938AE192E00E94B4
:1043B000B507FF91EF91BF91AF919F918F917F9141
:1043C0006F915F914F913F912F910F900FBE0F9082
:1043D0001F9018951F920F920FB60F9211242F93D2
:1043E0008F939F93EF93FF93E0912A02F0912B021A
:1043F0008081E0913002F091310282FD1BC09081FA
:10440000809133028F5F8F7320913402821741F0C5
:10441000E0913302F0E0E65EFD4F958F809333022A
:10442000FF91EF919F918F912F910F900FBE0F9061
:104430001F9018958081F4CF1F920F920FB60F92A4
:1044400011242F933F938F939F93AF93BF938091AA
:10445000060290910702A0910802B09109023091E2
:10446000050226E0230F2D3758F50296A11DB11D38
:10447000209305028093060290930702A0930802FE
:10448000B093090280910A0290910B02A0910C0254
:10449000B0910D020196A11DB11D80930A02909367
:1044A0000B02A0930C02B0930D02BF91AF919F91AC
:1044B0008F913F912F910F900FBE0F901F901895E5
:1044C00029E8230F0396A11DB11DD2CF1F920F9291
:1044D0000FB60F9211242F933F934F935F936F93D7
:1044E0007F938F939F93AF93BF93EF93FF93E0914D
:1044F0000201F09103010995FF91EF91BF91AF91F6
:104500009F918F917F916F915F914F913F912F91EB
:104510000F900FBE0F901F9018951F920F920FB61D
:104520000F9211242F933F934F935F936F937F9339
:104530008F939F93AF93BF93EF93FF93E09100010D
:10454000F09101010995FF91EF91BF91AF919F917A
:104550008F917F916F915F914F913F912F910F902C
:104560000FBE0F901F9018951F920F920FB60F92CB
:1045700011242F933F934F935F936F937F938F9368
:104580009F93AF93BF93EF93FF938091B900887F80
:10459000803609F44AC0F0F5883209F4A5C018F550
:1045A000803109F499C0B8F4882309F4F5C0883043
:1045B00009F492C0FF91EF91BF91AF919F918F91BC
:1045C0007F916F915F914F913F912F910F900FBE0F
:1045D0000F901F901895883109F486C0803251F7EA
:1045E0008093DE0114C0803409F49BC040F4803312
:1045F000B9F38833F9F68093DE0185ECAEC08035DF
:1046000009F483C0883509F494C0883499F60E946F
:10461000F209D0CF883909F48AC038F5883729F0F3
:1046200050F4883611F0803729F683E08093DF015B
:104630001092DD0155C0883809F479C0803919F02D
:10464000803809F0B7CF8091DD01803208F06FC06B
:10465000E091DD0181E08E0F8093DD018091BB0050
:10466000F0E0E354FE4F80833BC0803B39F0D0F450
:10467000803A09F477C0883A09F09CCF84E08093AF
:10468000DF011092BC011092BB01F0E0E0E009955F
:104690008091BB0181110FC081E08093BB0110921A
:1046A0009B0109C0803C09F4A8CF883C09F4A5CF40
:1046B000883B09F07FCFE091BC0181E08E0F8093B1
:1046C000BC01F0E0E556FE4F80818093BB009091E5
:1046D000BC018091BB0129C0809104028093BB0082
:1046E00085EC8093BC0066CF90910302809102021A
:1046F000981758F5E091030281E08E0F8093030232
:10470000F0E0EE51FE4F8081E9CFE091030281E0BD
:104710008E0F809303028091BB00F0E0EE51FE4FBC
:10472000808390910302809102029817C8F285E875
:10473000D8CFE091030281E08E0F80930302809135
:10474000BB00F0E0EE51FE4F80838091E1018111CA
:104750005ECF81E08093E00184EA8093BC001092F8
:10476000DF0128CF85EC8093BC001092DF0180919F
:10477000DD01803230F4E091DD01F0E0E354FE4FE2
:1047800010826091DD0170E08DEB91E0F0E0E0E0FF
:1047900009951092DD010ECF1092DE0138CF1F92E5
:1047A0000F920FB60F9211242F934F935F936F9335
:1047B0007F938F939F93AF93BF93209184008091B9
:1047C000150290911602A0911702B0911802820F63
:1047D000911DA11DB11D8093150290931602A09307
:1047E0001702B09318028091150290911602A091C1
:1047F0001702B09118024091150250911602609173
:104800001702709118022AE0880F991FAA1FBB1F78
:104810002A95D1F7840F951FA61FB71F8093150205
:1048200090931602A0931702B0931802809115027C
:1048300090911602A0911702B091180240911502B2
:1048400050911602609117027091180226E0B695F9
:10485000A795979587952A95D1F784279527A62719
:10486000B7278093150290931602A0931702B09376
:104870001802809119028F5F80931902BF91AF9146
:104880009F918F917F916F915F914F912F910F9099
:104890000FBE0F901F9018958EE691E090934903FC
:1048A000809348038EE493E00E94DD1687E193E055
:1048B0000E946115F894A89584B7877F84BFE0E6CD
:1048C000F0E08081886180831082789460E470E0F9
:1048D00085EB93E00E94951460E470E085EF93E02F
:1048E0000C9495141F93CF93DF93CDB7DEB72E971B
:1048F0000FB6F894DEBF0FBECDBF10921D0210920E
:104900001C0288EE93E0A0E0B0E080931E0290933A
:104910001F02A0932002B093210284E191E09093C2
:104920001B0280931A0285EC90E0909327028093FB
:10493000260284EC90E0909329028093280280EC78
:1049400090E090932B0280932A0281EC90E0909368
:104950002D0280932C0282EC90E090932F028093A2
:104960002E0286EC90E090933102809330021092F8
:1049700033021092340210923502109236021092D5
:10498000350480913604807880628F778093360476
:1049900010923704109238041092390410923A049D
:1049A00080E89EEEA6E3B0E080933B0490933C0445
:1049B000A0933D04B0933E04109247041092480423
:1049C00086E691E090930303809302038EEF9FEFBE
:1049D000909314038093130380E090E89093160360
:1049E0008093150384E08093110386E18093120382
:1049F0008EE591E09093DE028093DD0260E082E13B
:104A00000E94AB08E9EFF1E08491E5EEF1E0E4917A
:104A1000F0E0EE0FFF1FE753FE4F259134911B8608
:104A20001A86198618861F821E821D821C8289831F
:104A30003B832A831C861D861E868EE0FE013196EE
:104A4000AFEDB2E001900D928A95E1F78EE491E02E
:104A5000909318038093170380E092E090931A03D9
:104A6000809319038FE080931B0311E010931F03C1
:104A700060E00E94AB0860E08FE00E945F0887E181
:104A800093E00E949E1487E090E09093C60280938A
:104A9000C50288E090E09093C8028093C70210920C
:104AA000CB0280E28093CC021092CD0285E080930D
:104AB000D30285E090E0A0E0B0E08093D90290932B
:104AC000DA02A093DB02B093DC021092CE028FEFE9
:104AD0008093C2021092C3028EE691E09093490344
:104AE0008093480380E391E090934F0380934E03BB
:104AF00010928903EAE8F3E087E0DF011D928A95CE
:104B0000E9F71092B1031093B2031092B40389E055
:104B100091E090934B0380934A0385EC92E090934D
:104B20004D0380934C03BE016F5F7F4F8EE090E09A
:104B30000E94E91A81E09981913009F080E0809328
:104B4000B30386E291E09093B8028093B70210928B
:104B5000B9021092BA021092BF021092C0021092D3
:104B6000C1022E960FB6F894DEBF0FBECDBFDF9107
:104B7000CF911F910895CF93DF93CDB7DEB7CD547A
:104B8000D1090FB6F894DEBF0FBECDBF789484B5BF
:104B9000826084BD84B5816084BD85B5826085BD39
:104BA00085B5816085BD80916E00816080936E00C7
:104BB00010928100809181008260809381008091B9
:104BC000810081608093810080918000816080936A
:104BD00080008091B10084608093B1008091B0002A
:104BE00081608093B00080917A00846080937A0025
:104BF00080917A00826080937A0080917A008E7F23
:104C000080937A0080917A00806880937A00109275
:104C1000C10061E086E00E94AB0861E086E00E948E
:104C20005F08E0912A02F0912B0282E08083E091FC
:104C30002602F09127021082E0912802F0912902C9
:104C400088E0808310923202E0912E02F0912F02D0
:104C500086E08083E0912C02F0912D0280818061BA
:104C60008083E0912C02F0912D0280818860808306
:104C7000E0912C02F0912D02808180688083E09188
:104C80002C02F0912D0280818F7D8083CE010196D0
:104C90000E948D1A86E191E00E942408CE010196BF
:104CA0007C016E0191E1C90ED11CD7011D917D01DE
:104CB000103120F486E891E00E943C1A612F70E0E8
:104CC00090E080E040E10E94491AEC14FD0469F78D
:104CD00087E991E00E943C1A8091360486FD04C069
:104CE000CE0101960E948D1C66E071E08AE090E0A2
:104CF0000E94E91A80E09DEDADE6B0E080933B04B0
:104D000090933C04A0933D04B0933E04E09147048B
:104D1000E43068F481E08E0F80934704F0E0EE0FFA
:104D2000FF1FE15CFB4F87E193E0918380838091DB
:104D3000C5029091C6022091C7023091C802821725
:104D4000930719F061E00E94AB088091C70290912F
:104D5000C8022091C5023091C6022817390719F000
:104D600061E00E94AB081FB7F89480910E02811198
:104D700027C0EDEDF1E08491E1EFF1E09491E82FAF
:104D8000F0E0EE0FFF1FEC5DFE4FA591B491EC91AA
:104D9000E92321F461E08AE00E945F0861E08AE093
:104DA0000E94AB088CB580618CBD8CB580648CBDD5
:104DB00061E08DE00E94AB0861E08BE00E94AB08EF
:104DC00080910E028F5F80930E021FBF60E085EC22
:104DD00092E00E94EB1661E085EC92E00E94F716EB
:104DE00065E070E080E090E00E9416094CE060E031
:104DF00085EC92E00E942E174FE564E085EC92E08E
:104E00000E942E1782E090E00E94CE17882319F0AE
:104E100081E08093CB0266E085EC92E00E947117FE
:104E200090E080E00E94CE1785EC92E00E9412177D
:104E300080E50E94151783E70E94151785EC92E024
:104E40000E940F1740E06DE185EC92E00E942E1762
:104E500040E06CE185EC92E00E942E171092CD02AA
:104E600040E767E085EC92E00E942E174CE465E095
:104E700085EC92E00E942E1785EC92E00E941217BA
:104E800082EE0E94151785EC92E00E940F1785ECC8
:104E900092E00E941C1785EC92E00E94181860E0D6
:104EA00085EC92E00E947117482F4E7F60E085EC00
:104EB00092E00E942E174EE565E085EC92E00E949C
:104EC0002E174FE361E085EC92E00E942E174FE42D
:104ED00064E085EC92E00E942E1782E090E00E9450
:104EE000CE1760E085EC92E00E947117482F4C606D
:104EF00060E085EC92E00E942E1760E085EC92E085
:104F00000E9400180E94871760E086E00E945F08F8
:104F100068EC70E080E090E00E94160961E086E0B5
:104F20000E945F088EE291E00E9424080E94E50939
:104F30004AE00E94491A87E991E00E943C1A812CBC
:104F400000EC902E09E7A02E04ECB02E222423942E
:104F5000312C10E080914704181788F4E12FF0E01D
:104F6000EE0FFF1FE15CFB4F80819181DC01ED9131
:104F7000FC910680F781E02D09951F5FEBCFF89437
:104F800080911902803208F4E7C020911502309117
:104F900016024091170250911802109215021092B9
:104FA00016021092170210921802109219027894A9
:104FB000A9E0B0E00E9428309B01AC01ABE056951F
:104FC000479537952795AA95D1F72627372748275C
:104FD0005927A1E0B0E80E942830AB01BC01209124
:104FE000350480913604382F3F712C5F3F4F3F715D
:104FF0002138B1E03B0708F0A5C020933504932F7A
:105000009F71807E892B809336042091480484E030
:10501000289FF0011124EB53FC4F80819181A281E4
:10502000B38184279527A627B72780839183A283FE
:10503000B3832F5F20934804809136042C3008F40A
:1050400087C0109248048F778093360450E040E088
:1050500070E060E090E080E00E941D1C0E94E50985
:1050600000913704109138042091390430913A04AA
:10507000601B710B820B930B00913B0410913C045D
:1050800020913D0430913E04601771078207930719
:1050900010F00E94D31B80918F03813140F48091E6
:1050A0008B0390918C038130914008F475C066E0C9
:1050B00080914C0390914D030E947117682F70E00E
:1050C00075956795162F137060918D0370918E03FF
:1050D00090E080E00E9419316B017C0160918B03AC
:1050E00070918C0390E080E00E9419319B01AC012B
:1050F000C701B6010E9471306B017C0120E030E0F5
:1051000048EC52E40E94D0310E94EA3084E6861BCB
:1051100080938A032AE939E949E55FE3C701B601CB
:105120000E94CB311816D4F461E0133021F52AE93E
:1051300039E949E15EE3C701B6010E946C3087FF9F
:1051400021C018C090E890933504807E81605BCFC9
:1051500080688093360482CF789480CF2AE939E939
:1051600049E15EE3C701B6010E946C3087FF0AC0C7
:10517000112341F06FEF610F80914C0390914D032B
:105180000E94001810928C0310928B0310928E03D1
:1051900010928D0310928F031092140280910801D7
:1051A000882309F4D0C2809113028111CCC280916E
:1051B00007018111C8C2109208018EE480937C001F
:1051C00062E070E080E090E00E94160980917A0031
:1051D000806480937A0080917A0086FDFCCF809174
:1051E000780020917900322F282F032E000C440BD9
:1051F000550B64EB7BE281E190E00E94093069018C
:105200007A018091B902882379F00E94DC08DC01E0
:10521000A70196010E9433302FEF33E040E050E0C9
:105220000E94093069017A01C092BB02D092BC028F
:10523000E092BD02F092BE028091BF028530F0F490
:10524000B701A6014E545C406109710991E04431F7
:1052500051406105710548F093E0E2E6CE16EDE0BD
:10526000DE06E104F10408F492E02091C00221116D
:1052700059C09093C00281E08093BF028091C00228
:10528000813009F49BC0833009F087C0F9E6CF165E
:10529000F0E1DF06E104F10408F090C02FE6C21649
:1052A0002FE0D206E104F10408F443C0A7019601FF
:1052B0002E563F4041095109A4E1B0E00E94283038
:1052C0002AEF30E040E050E00E940930205B3F4F81
:1052D0004F4F5F4F253631054105510508F077C026
:1052E0002093C10280910601833009F029C361E057
:1052F00086E00E945F0806E0015009F410C165E0F5
:1053000070E080E090E00E941609809112038B30DB
:1053100009F461C0863109F4B1C0109214031092EF
:10532000130374C0291302C08F5FA6CF1092C0026E
:10533000A5CF81E1C8168EE0D806E104F104A8F0FB
:10534000A701960120513E4041095109ACE3B0E06C
:105350000E9428302EE531E040E050E00E94093004
:105360002C5E3F4F4F4F5F4FB5CF9DE8C9169AE077
:10537000D906E104F10438F1A70196012C583A400E
:1053800041095109A4E1B0E00E94283024E833E04B
:1053900040E050E00E9409309DCF8230A1F4A70187
:1053A00096012C583A4041095109A4E6B0E00E9408
:1053B000283022EC31E040E050E0ECCF24E630E051
:1053C00040E050E087CF20E030E0A90183CF85E6C0
:1053D0008093C10287CF62E1809111030E94490945
:1053E000009711F18092040390920503A0920603A6
:1053F000B09207038092080390920903A0920A03D7
:10540000B0920B03909314038093130380911303C2
:1054100090911403892B09F482C068EE73E080E058
:1054200090E00E94160968CF10910C03612F70E084
:1054300090E080E00E9419316093040370930503AB
:105440008093060390930703F0900E036F2D70E096
:1054500090E080E00E941931609308037093090383
:1054600080930A0390930B031F0D81E090E020913D
:10547000100312134EC090E080E04BC061E08091B9
:1054800011030E944909009709F0ACCF10910D0358
:10549000D0900C0360910C0370910D037627672761
:1054A000762790E080E00E9419312DEC3CEC4CEC2A
:1054B0005DE30E94D03160930403709305038093F1
:1054C000060390930703E0900F03F0900E036F2DF7
:1054D0006F77762F6E2D90E080E00E9419312DECD1
:1054E0003CEC4CEC5DE30E94D031F7FC16C06093BD
:1054F00008037093090380930A0390930B031D0D17
:10550000E10EFE0C81E090E020911003F21609F408
:10551000B2CF91958195910975CF9058E8CF1092AF
:10552000ED021092EA021092EC021092EB0210923D
:10553000E9021092E8021092E7021092E60210923D
:10554000E5021092E4021092E3021092E2020E943D
:10555000081A882309F180EF0E949D0601E0E12CE2
:10556000D12C11E00E944806F82E0E944806A1E0C6
:10557000FA1249C1813009F065C1113468F0D09246
:10558000EA02D11003C081E08093EC028091E20234
:10559000E2EEF2E081116CC11092EA021092EC028C
:1055A0001092EB021092E9021092E8021092E702C8
:1055B0001092E6021092E5021092E4021092E302C9
:1055C0001092E2024CE050E06FEF70E08EEE92E05D
:1055D0000E947633809107018111ABC081E091E098
:1055E0000E94DA1D182F8091B103882309F4A1C00D
:1055F000123018F081E08093070109E00983E091FF
:105600004A03F0914B0380818A83812F90E09C8331
:105610008B8385E091E09E838D8388E0EAEFF2E062
:10562000DE01179601900D928A95E1F78CE0EEEE7F
:10563000F2E0DE011F9601900D928A95E1F7CE010E
:1056400001960E946D19882309F473C062E0D62E7A
:10565000D10E82E093E00E9497197C0182E093E0F2
:105660000E947F190983E0914A03F0914B03208146
:105670002A8321E0210F30E03C832B8322E031E0BC
:105680003E832D83F886EF829A878987CE01019623
:105690000E946D19882309F44CC04090BB025090C1
:1056A000BC026090BD027090BE02F090C10287EB18
:1056B00092E00E94CC190983E0914A03F0914B03D8
:1056C00090819A832D2D30E03C832B8324E031E0C0
:1056D0003E832D834F82588669867A86FB868C8727
:1056E000CE0101960E946D190983E0914A03F09161
:1056F0004B0380818A8383E0810F90E09C838B83BE
:1057000086E091E09E838D8380918A038F8388E475
:1057100093E00E94FD19888788E493E00E94F719BE
:105720008987CE0101960E946D1984E0810F0E9445
:105730006C1E0E94E50960930F0270931002809323
:105740001102909312029091C40281E0890F8F7030
:10575000907F892B8093C40290910601933009F4C5
:1057600035C18FEF8093C202F090C2020F2D10E07E
:1057700061E086E00E94AB080115110509F042C105
:1057800060E086E00E945F0880910601823009F4A3
:1057900080C1833019F0813009F003C377247394FA
:1057A00032E0632E43E0542E54E0452E67E185EC51
:1057B00092E00E94711780FDF6C110921302E090F2
:1057C0004C03F0904D03F701178100E2103208F40A
:1057D000012FD70118968C91101B811110E0C70181
:1057E0000E94121781E60E9415176E01B1E2CB0EDE
:1057F000D11C015008F465C18FEF0E941517F60106
:1058000081936F01F6CFEE2DF0E0F81211C0809178
:10581000EA021817A8F4DF01A352BD4F15968C9128
:10582000802381F4F12C193010F41093EB02D12E67
:10583000E352FD4F8581902F9095892385830BC07E
:105840008113F0CFEE2DF0E0E352FD4F8581802BE8
:105850008583FF24F3948F2D0E946D061F5F000F38
:1058600011F4E39401E0B7E0BE1508F07BCE85CEDD
:105870008191878B22E0EA3EF207D1F7AAEFB2E0EE
:1058800028E0E0E0215089F08D918E27E82FEF701D
:10589000F0E0ED5BFE4F949182958F70E82FF0E081
:1058A000ED5AFE4FE491E927EDCF809101038E136D
:1058B00089CE8091FA02803119F0883209F08ACEBF
:1058C0000E94081A8AEF92E00E94CA0684E40E94AD
:1058D0009D0668EE73E080E090E00E941609F8945F
:1058E000E091E002F091E10291818091DF028095E8
:1058F0008923818378940E94081A8AEF92E00E949B
:10590000CA068EEB0E949D060EEE12E0E7EFEE2E29
:10591000E2E0FE2E78E0C72ED12C712C6624639431
:105920000E94480681117628660C81E0C81AD108C9
:10593000B9F7D8017D928D01EA16FB0659F74ACED8
:10594000823009F0F6CE88E090E00E94DA1DF82E51
:10595000882309F4EECE082F10E089E08983E091D6
:105960004A03F0914B0380818A831C830B8384E07C
:1059700090E09E838D838AE1E1E9F3E0DE011796F2
:1059800001900D928A95E1F7CE0101960E94AC1824
:10599000882309F4CECE0F5F1F4F1C830B8385E055
:1059A00090E09E838D8386E0EBEAF3E0DE011796BC
:1059B00001900D928A95E1F7CE0101960E94AC18F4
:1059C000882309F4B6CE82E08F0DB1CE8F7009F036
:1059D000CBCE8091C2029091C302992359F08F5F80
:1059E0008093C2028091C2028A3031F481E08093B8
:1059F000C302BACE8150F4CF883C09F0B5CE1092E4
:105A0000C302B2CE0F3F110511F461E0BACEE9E650
:105A1000F1E0E491E33019F140F4E130B1F0E2302B
:105A2000C9F0003811058CF7ABCEE73011F1E83042
:105A300041F1E430B1F78091800080628093800072
:105A400010938B0000938A009FCE84B5806884BD3C
:105A5000F7BC9ACE84B5806284BDF8BC95CE8091A7
:105A600080008068809380001093890000938800F4
:105A70008BCE8091B00080688093B000F092B3002C
:105A800083CE8091B00080628093B000F092B40029
:105A90007BCE0E94E50900910F0210911002209127
:105AA000110230911202601B710B820B930B693C47
:105AB00071058105910508F471CE81E0809308019C
:105AC0006DCE115020F08FEF0E941517FACFC7014D
:105AD0000E940F1740E767E0C7010E942E1789A1B7
