:100000000C94C7000C94EF000C94EF000C94EF00DC
:100010000C94EF000C94EF000C944C070C94EF0040
:100020000C94EF000C94EF000C94EF000C94EF0094
:100030000C94EF000C94EF000C94EF000C94EF0084
:100040000C946E0A0C94EF000C9440090C941A095D
:100050000C94EF000C94EF000C94EF000C94EF0064
:100060000C94B80A0C94EF004E6F7576656175209C
:100070006E6F646520696420726563752064652015
:10008000444843503A2000526571756574652044B8
:10009000484350207472616E736D697365005555E5
:1000A00049442073656E7365757220004E6F6465F8
:1000B00049442073656E736575722000000000006E
:1000C000240027002A005072657400436F6E6E652D
:1000D00078696F6E206D65736820636F6D706C65F5
:1000E000746500436F6E6E6578696F6E206D657321
:1000F000682061766563206E6F6465496420004402
:100100004854204572726F723A00005EBCE2613F53
:10011000DD83C29C7E20A3FD1F41009D23BE46DBE4
:1001200065F88C11AF32CA57E97400000000250051
:1001300028002B0000000008000201000003040753
:10014000000000000000000000010203040511127D
:10015000131415160A0B0C0D0E0F000000002300DF
:100160002600290004040404040404040202020218
:10017000020203030303030301020408102040806A
:10018000010204081020010204081020461D112459
:100190001FBECFEFD8E0DEBFCDBF11E0A0E0B1E0E1
:1001A000E0EBF8E402C005900D92A438B107D9F74E
:1001B00024E0A4E8B1E001C01D92A13DB207E1F73F
:1001C00010E0C7ECD0E004C02197FE010E94D922C4
:1001D000C63CD107C9F70E94CB170C9456240C9447
:1001E0000000FC0121893289232B71F420E030E0EA
:1001F00040E251E462817381848195810E942422CE
:100200000E948821CB0108958FEF90E00895FC01B2
:1002100021893289232B71F420E030E040E251E45F
:1002200066817781808591850E9424220E948821A1
:10023000CB01089580E090E80895FC014581568146
:1002400067817085DB01CA0189549D40A109B1090C
:1002500083369105A105B10540F081E04E3B5A403F
:100260006105710518F080E0089581E00895FC01B2
:1002700045815681678170854934FDE05F076105DE
:10028000710528F1433D8FE058076105710508F0BD
:1002900046C04B30EFE05E0761057105E0F5433481
:1002A000FEE05F0761057105C0F19A01AB012055C1
:1002B000310941095109A0E7BEEF0E941B212DE33E
:1002C00030EF4FEF5FEF0E94EE2080E522C0DB01B0
:1002D000CA0180589C40A109B109893C9105A1053A
:1002E000B105E8F0433A8AE0580761057105C8F0A6
:1002F0009A01AB012456310941095109A7E8BEEF23
:100300000E941B2124EE33EF4FEF5FEF0E94EE209F
:1003100084E6820F089580E508958FE0089584E6CD
:10032000089580E00895FC0165817681878190853C
:100330000895419608954D9608958F929F92AF9299
:10034000BF92EF92FF920F931F93CF93DF93CDB79E
:10035000DEB72A970FB6F894DEBF0FBECDBFFC0103
:100360007A876987262F372F2F3F8FEF380711F4B1
:1003700082811CC02115310509F464C080819181FE
:100380000097B1F4558140E001C04F5F451709F473
:1003900056C0A381B481A80FB91F039611966D9121
:1003A0007C9112976217730781F78C9190E04CC093
:1003B0008432994009F443C07F011C821B828091E2
:1003C0000401909105019C012F5F3F4F309305017F
:1003D000209304019E838D8386EC8F8308E310E0D5
:1003E00022E030E0AE01475F5F4FBE016F5F7F4F9D
:1003F000808591850E94D915882309F10E94620A9F
:100400004B015C01F701808591850E949713863C22
:1004100071F00E94620ADC01CB0188199909AA09CE
:10042000BB098E379105A105B10560F308C0D7015E
:100430001896ED91FC9119978785908905C08FEFEB
:100440009FEF02C080E090E02A960FB6F894DEBFDE
:100450000FBECDBFDF91CF911F910F91FF90EF9015
:10046000BF90AF909F908F9008954F925F926F9240
:100470007F92AF92BF92DF92EF92FF920F931F9302
:10048000CF93DF93CDB7DEB729970FB6F894DEBFD1
:100490000FBECDBF7C01DC0118968D919C91199700
:1004A0000E949713D82EF701808191818432994060
:1004B00009F4CFC023ECD21204C081E0D7011A9610
:1004C0008C93F70182818111C4C08D2D8D7F843C76
:1004D00009F09EC00084F185E02D5F0127E0A20EA7
:1004E000B11C8781908592878187978584ECD8128B
:1004F00078C09987D70112968C911297811118C0F4
:1005000015964C9120E030E0841709F44BC0D701D8
:100510001396ED91FC911497E20FF31F2D5F3F4F5F
:100520005081591303C0818192814DC08F5FECCF00
:10053000992309F446C01C821B828091040190918A
:1005400005019C012F5F3F4F30930501209304016B
:100550009E838D83DF8208E310E022E030E0AE016D
:10056000475F5F4FBE016F5F7F4FCF010E94D9157C
:100570008823C1F00E94620A2B013C01F7018085AB
:1005800091850E949713843C81F00E94620ADC01ED
:10059000CB0184199509A609B70987399105A105E9
:1005A000B10560F38FEF9FEF0EC0D7011896ED9164
:1005B000FC9119978785908997FF05C08EEF9FEF73
:1005C00002C080E090E09A83898308E310E022E093
:1005D00030E0AE014F5F5F4FB501F7018085918537
:1005E00014C0692F70E0C7010E949D019A8389831E
:1005F00008E310E022E030E0AE014F5F5F4FB5014D
:10060000D70118968D919C9119970E94D91521C0F8
:10061000B5ECDB121EC0F701A085B18580E0F701C3
:1006200095818917B0F4F70123813481F90193E0B2
:10063000899FE00DF11D11244181528117962D9162
:100640003C9118974217530711F4128211828F5F61
:10065000E6CF8D2D29960FB6F894DEBF0FBECDBF25
:10066000DF91CF911F910F91FF90EF90DF90BF909E
:10067000AF907F906F905F904F900895FC01208124
:100680003181828193812817390719F0822F0C94C8
:1006900072090895CF93DF93EC019CB59F7D9CBDBB
:1006A0009CB5937F9CBD9CB59C7F9CBD9DB5916086
:1006B0009DBD8A810E9472098C899D89DF91CF91AD
:1006C0000C94FA0961E00C944A0360E00C944A032C
:1006D0008EBD00000DB407FEFDCF8EB50895EF92DC
:1006E000FF921F93CF93DF931F92CDB7DEB77C01AC
:1006F00069830E9465036981862F8F710E94680358
:100700008FEF0E946803182FC7010E946203812F98
:100710000F90DF91CF911F91FF90EF9008952F924E
:100720003F924F925F926F927F928F929F92AF9281
:10073000BF92CF92DF92EF92FF920F931F93CF93CE
:10074000DF93CDB7DEB768970FB6F894DEBF0FBE64
:10075000CDBF7C012A013B0167E1DC0116968D913A
:100760009C9117970E946F0380FD03C080E090E08A
:1007700072C1F701868197810E94FE11D7011896F8
:10078000ED91FC91199782A5826082A76AE070E0E2
:1007900080E090E00E94280A64E279E0F701808519
:1007A00091850E94EA0D84E299E0D7018D939C9394
:1007B0000E94620A4B015C01212C312CE0E4F0E044
:1007C000FC87EB8780910401909105019C012F5FCC
:1007D0003F4F30930501209304019E878D87F2ECF3
:1007E000FF87D70118968D919C911997FC0122A93A
:1007F00033A93A872987332089F0232D30E021500F
:100800003109A901440F551F240F351F01E010E0E5
:1008100002C0000F111F2A95E2F702C000E010E0AD
:1008200020E030E040E050E0BE01675F7F4F0E9473
:10083000D9150E94620A698B7A8B8B8B9C8BD12C89
:10084000D70118968D919C9119970E949713823C1D
:1008500099F4FE013196ED0DF11DED0DF11DD7015D
:1008600018968D919C911997DC0117968D919C910A
:10087000189791838083D3940E94620ADC01CB0194
:1008800029893A894B895C89821B930BA40BB50B90
:10089000C897A105B10520F433E03D1588F633C0B3
:1008A000D11031C00E94620ADC01CB01881999097C
:1008B000AA09BB09481659066A067B0608F456CFF2
:1008C000222D30E02F5F3F4F832D90E00196289F2F
:1008D000B001299F700D389F700D1124675E7F4F06
:1008E000660F771F072E000C880B990B0E94280AB1
:1008F00081E0830D8370382E81E0820D6AE00E94D2
:10090000B922292E5BCFC12C198ACD1408F046C01C
:1009100043EC4F87D70112968C911297888BFE017A
:100920003196EC0DF11DEC0DF11D008111811C873C
:100930000B8720E030E040E050E0BE01675F7F4F72
:1009400018968D919C9119970E94D9150E94620A60
:100950006D8B7E8B8F8B988F0E94620ADC01CB019E
:100960002D893E894F89588D821B930BA40BB50BA3
:10097000813E9105A105B10548F4F7018085918577
:100980000E949713898B803839F7CD2C65E070E091
:1009900080E090E00E94280AC394B7CF39893038AC
:1009A00009F080CFD7011896ED91FC9119978785B2
:1009B0009089009709F476CF368512962C913213E0
:1009C00071CFF70191838083868197810E94FE1108
:1009D0006AE070E080E090E00E94280AD7016D9103
:1009E0007C91119718968D919C9119970E94EA0D10
:1009F000F70160817181C7010E949D01D7011296A4
:100A00002C9130E082179307E1F0F701608171814A
:100A1000C7010E949D01D70112962C91129730E0D8
:100A20008217930771F064E279E018968D919C919A
:100A300019970E94EA0D84E299E0F701918380837F
:100A400031CFD7011896ED91FC91199782A58D7F32
:100A500082A78D919C9168960FB6F894DEBF0FBE69
:100A6000CDBFDF91CF911F910F91FF90EF90DF905D
:100A7000CF90BF90AF909F908F907F906F905F903E
:100A80004F903F902F900895CF92DF92EF92FF9278
:100A90000F931F93CF93DF93CDB7DEB728970FB691
:100AA000F894DEBF0FBECDBF7C0184E0D82E92E863
:100AB000C92EDA94DD20F1F1F70180819181843231
:100AC0009940C1F1C7010E94350267E1F7018681B3
:100AD00097810E946F0381FD07C0F7018085918592
:100AE000FC0122A520FF02C081E02AC01C821B82DB
:100AF0002091040130910501A9014F5F5F4F509390
:100B00000501409304013E832D83CF8208E310E06A
:100B100020E030E040E050E0BE016F5F7F4F0E9478
:100B2000D91581110DC067E670E080E090E00E9469
:100B3000280ABFCFF701868197810E94FE1180E0CD
:100B400028960FB6F894DEBF0FBECDBFDF91CF91D0
:100B50001F910F91FF90EF90DF90CF9008952F920B
:100B60003F924F925F926F927F928F929F92AF923D
:100B7000BF92CF92DF92EF92FF920F931F93CF938A
:100B8000DF93CDB7DEB7C254D1090FB6F894DEBFFC
:100B90000FBECDBF809100018823D1F187E0809303
:100BA000B70281E090E09093B9028093B802E0919F
:100BB000B302F091B40280E1AAEBB2E001900D9291
:100BC0008A95E1F71FE028E130E044E467EB72E04A
:100BD0008091B5029091B6020E94860F811114C0D7
:100BE0008091B5029091B6020E94440581110AC01D
:100BF00040ED57E060E070E08091B5029091B60260
:100C00000E948F031150F9F687E890E00E94BD170B
:100C10000E94620A1B012C018AE992E00E943701BE
:100C2000843619F480E49CE902C088EE93E02296B1
:100C30001FAE2297E12C28ECF22E4C01A12CB12CF6
:100C40003AE9C32ED12C0E94620ADC01CB01821941
:100C50009309A409B50988159905AA05BB0508F0EB
:100C6000FEC084E0E81611F0E39417C02296EFADC1
:100C70002297EE2311F0F39401C0FA94F4E1FF16E9
:100C800039F084EBF81208C022961FAE229704C0F8
:100C9000E1E02296EFAF2297E12C0F2D10E061E00A
:100CA00086E00E94BE090115110511F460E004C040
:100CB0000F3F110529F461E086E00E94720943C0EC
:100CC000EAE3F1E084918330F9F048F48130B9F03F
:100CD0008230A1F584B5806284BDF8BC34C0873011
:100CE000E9F0883019F1843049F580918000806204
:100CF0008093800010938B0000938A0024C084B5F9
:100D0000806884BDF7BC1FC080918000806880939C
:100D10008000109389000093880015C08091B00076
:100D200080688093B000F092B3000DC08091B00055
:100D300080628093B000F092B40005C000381105C5
:100D40000CF0B9CFB3CF87EE92E00E9435026090ED
:100D5000CE037090CF03F4E36F16F3E07F0609F043
:100D600008F46EC020913A0300913C0310913D03BA
:100D7000243609F045C0A8010134110510F040E403
:100D800050E06EE373E0CE0101960E94112486EFDD
:100D90009FEF801B910B680E791E7092CF036092BB
:100DA000CE03A601401B510BB801625C7C4F84E36B
:100DB00093E00E941A241C81123008F444CF10934F
:100DC00001011093E90289E090E00E94D8201817F1
:100DD00029F0612F89E090E00E94E02048EE53E086
:100DE00060E070E087EE92E00E948F0310920001B5
:100DF00088E690E00E949C176AE070E0812F1DC099
:100E000086EF9FEF801B910B680E791E7092CF03C7
:100E10006092CE03A601401B510BB801625C7C4F6F
:100E200084E393E023962FAF23970E941A246AE06D
:100E300070E023962FAD2397822F0E94651003CF79
:100E400087EE92E00E9444058111FDCE44EF51E00F
:100E500060E070E087EE92E00E948F03F4CE61E0E4
:100E600086E0CE5BDF4F0FB6F894DEBF0FBECDBF7E
:100E7000DF91CF911F910F91FF90EF90DF90CF9076
:100E8000BF90AF909F908F907F906F905F904F90AA
:100E90003F902F900C9472091F920F920FB60F92F1
:100EA00011248F939F938091020190910301892BCC
:100EB00031F481E090E090930301809302019F91CF
:100EC0008F910F900FBE0F901F901895CF92DF92C9
:100ED000EF92FF920F931F93CF93DF936C017A01F0
:100EE0008B01C0E0D0E0CE15DF0589F0D8016D910F
:100EF0008D01D601ED91FC910190F081E02DC601AC
:100F00000995892B11F47E0102C02196ECCFC7010F
:100F1000DF91CF911F910F91FF90EF90DF90CF90D5
:100F20000895FC01538D448D252F30E0842F90E0EF
:100F3000821B930B541710F0CF96089501970895D4
:100F4000FC01918D828D981761F0828DDF01A80FD1
:100F5000B11D5D968C91928D9F5F9F73928F90E0F3
:100F600008958FEF9FEF0895FC01918D828D981762
:100F700031F0828DE80FF11D858D90E008958FEF9F
:100F80009FEF0895FC01918D228D892F90E0805C68
:100F90009F4F821B91098F73992708958DEF91E0E0
:100FA0000E94C20721E0892B09F420E0822F0895D6
:100FB000FC01848DDF01A80FB11DA35ABF4F2C91F6
:100FC000848D90E001968F739927848FA689B789C5
:100FD0002C93A089B1898C9180648C93938D848D9E
:100FE000981306C00288F389E02D80818F7D80836D
:100FF0000895EF92FF920F931F93CF93DF93EC012D
:1010000081E0888F9B8D8C8D981305C0E889F989C4
:10101000808185FD24C0F62E0B8D10E00F5F1F4FE1
:101020000F731127E02E8C8DE8120CC00FB607FC51
:10103000FACFE889F989808185FFF5CFCE010E943A
:10104000D807F1CF8B8DFE01E80FF11DE35AFF4F5A
:10105000F0820B8FEA89FB898081806207C0EE896C
:10106000FF896083E889F98980818064808381E0D9
:1010700090E0DF91CF911F910F91FF90EF90089535
:10108000CF93DF93EC01888D8823C9F0EA89FB892F
:10109000808185FD05C0A889B9898C9186FD0FC026
:1010A0000FB607FCF5CF808185FFF2CFA889B989FB
:1010B0008C9185FFEDCFCE010E94D807E7CFDF915D
:1010C000CF91089580E090E0892B29F00E94CE070F
:1010D00081110C940000089585ED8093BC008091EF
:1010E000BC0084FDFCCF1092CE0108954091A80170
:1010F000262F30E0240F311D21323105DCF4209100
:10110000CE012430C9F4FC0180E090E0861758F449
:101110003091A8012191DC01AA57BE4FA30FB11D48
:101120002C930196F3CF8091A801680F6093A801DA
:1011300080E0089581E0089582E0089508958FEF9A
:101140009FEF08958FEF9FEF08958091850190E0C4
:101150009195819591090895CF93DF9300D0CDB7F4
:10116000DEB7CB01642F49835A830E9476084981F8
:10117000842F5A81952F0F900F90DF91CF91089572
:10118000CF93DF931F92CDB7DEB7698361E0CE01C5
:1011900001960E94760881E090E00F90DF91CF9158
:1011A0000895089580E090E00895CF93DF93DC01E7
:1011B000FB01EC01C359DE4F688179812296988149
:1011C000828140815181823028F0BA0181E083839D
:1011D00090E027C0ED01C059DE4F28813981EA0136
:1011E000C223D323D2960D90BC91A02DCA17DB0742
:1011F000C1F4C9018095909563E0880F991F6A95A5
:10120000E1F784239523892B51F083E0220F331FCC
:101210008A95E1F72760BA016223732301C0BA01FE
:1012200095E071836083928381E0DF91CF9108958F
:101230000E940C241F920F920FB60F9211242F932D
:101240003F934F935F936F937F938F939F93AF934E
:10125000BF93EF93FF938DEF91E00E94D807FF912A
:10126000EF91BF91AF919F918F917F916F915F911E
:101270004F913F912F910F900FBE0F901F90189597
:101280001F920F920FB60F9211242F938F939F935B
:10129000EF93FF93E0910D02F0910E028081E091B7
:1012A0001302F091140282FD12C090818091160207
:1012B0008F5F8F7320911702821751F0E091160211
:1012C000F0E0E350FE4F958F8093160201C08081BD
:1012D000FF91EF919F918F912F910F900FBE0F90E3
:1012E0001F90189590E0FC01EC5CFE4F3491FC01DE
:1012F000E858FE4F2491FC01EC59FE4FE491EE2397
:1013000009F43BC0332339F1333091F038F43130F4
:10131000A9F0323001F584B58F7D12C0373091F0DD
:101320003830A1F03430B9F4809180008F7D03C053
:10133000809180008F77809380000DC084B58F7777
:1013400084BD09C08091B0008F7703C08091B00048
:101350008F7D8093B000F0E0EE0FFF1FE65DFE4F43
:10136000A591B4918FB7F894EC91611103C02095C9
:101370002E2301C02E2B2C938FBF0895CF93DF9384
:1013800090E0FC01E858FE4F2491FC01EC59FE4F1F
:101390008491882361F190E0880F991FFC01E45447
:1013A000FF4FC591D491FC01E65DFE4FA591B4912C
:1013B000611109C09FB7F8948881209582238883A2
:1013C000EC912E230BC0623061F49FB7F894388102
:1013D000822F809583238883EC912E2B2C939FBFA3
:1013E00006C08FB7F894E8812E2B28838FBFDF913A
:1013F000CF9108958330910528F0880F991F0497A5
:101400000197F1F708953FB7F8948091F901909111
:10141000FA01A091FB01B091FC0126B5A89B05C083
:101420002F3F19F00196A11DB11D3FBFBA2FA92F63
:10143000982F8827820F911DA11DB11DBC01CD01E0
:1014400043E0660F771F881F991F4A95D1F70895CB
:101450008F929F92AF92BF92CF92DF92EF92FF92C4
:101460006B017C010E94030A4B015C01C114D10491
:10147000E104F104F1F00E94030ADC01CB018819B8
:101480009909AA09BB09883E9340A105B10570F3EB
:1014900021E0C21AD108E108F10888EE880E83E045
:1014A000981EA11CB11CC114D104E104F10419F768
:1014B000DDCFFF90EF90DF90CF90BF90AF909F90E7
:1014C0008F9008952FB7F8946091F5017091F6010F
:1014D0008091F7019091F8012FBF08951F920F920C
:1014E0000FB60F9211242F933F938F939F93AF9337
:1014F000BF938091F5019091F601A091F701B09111
:10150000F8013091F40126E0230F2D3720F40296E4
:10151000A11DB11D05C029E8230F0396A11DB11D12
:101520002093F4018093F5019093F601A093F701C5
:10153000B093F8018091F9019091FA01A091FB011B
:10154000B091FC010196A11DB11D8093F90190930A
:10155000FA01A093FB01B093FC01BF91AF919F9161
:101560008F913F912F910F900FBE0F901F90189564
:101570001F920F920FB60F9211242F933F934F9308
:101580005F936F937F938F939F93AF93BF93EF93EB
:10159000FF938091B900887F803609F49CC068F57C
:1015A000883209F45BC090F4803109F454C038F4F7
:1015B000882309F4F6C0883009F44DC0F6C088319C
:1015C00009F44CC0803209F45DC0EFC0803409F4E6
:1015D00068C048F4803309F455C0883309F0E5C089
:1015E0008093CD01D8C0803509F44FC0883509F407
:1015F0005DC0883409F0D9C0D6C0883909F4C7C0A5
:10160000A8F4883709F467C038F4883609F463C051
:10161000803709F460C0C9C0883809F4B8C080397F
:1016200009F45FC0803809F0C0C05BC0803B09F49A
:1016300086C038F4803A09F466C0883A09F47FC05D
:10164000B4C0803C09F4A7C0883C09F4A4C0883B1E
:1016500009F48AC0AAC08091F30110C09091F201F0
:101660008091F101981770F5E091F20181E08E0F01
:101670008093F201F0E0EF52FE4F80818093BB0037
:1016800085EC86C08093CD018EC0E091F20181E0AF
:101690008E0F8093F2018091BB00F0E0EF52FE4F7D
:1016A00080839091F2018091F1016EC0E091F2018E
:1016B00081E08E0F8093F2018091BB00F0E0EF5249
:1016C000FE4F80838091D00181116DC081E08093B5
:1016D000CF0184EA61C083E08093CE011092CC01F7
:1016E000CFCF8091CC01803208F051C0E091CC0185
:1016F00081E08E0F8093CC018091BB00F0E0E45537
:10170000FE4F8083BDCF85EC8093BC001092CE014C
:101710008091CC01803230F4E091CC01F0E0E455CE
:10172000FE4F10826091CC0170E0E091AA01F0912F
:10173000AB018CEA91E009951092CC0136C084E0AF
:101740008093CE011092A9011092A801E091A60108
:10175000F091A70109958091A801811105C081E050
:101760008093A80110928601E091A90181E08E0F7B
:101770008093A901F0E0EA57FE4F80818093BB007F
:101780009091A9018091A801981708F479CF85E874
:101790008093BC000AC085EC8093BC001092CE01FF
:1017A00004C01092CD010E946C08FF91EF91BF918F
:1017B000AF919F918F917F916F915F914F913F91E9
:1017C0002F910F900FBE0F901F901895CF93DF931E
:1017D000CDB7DEB728970FB6F894DEBF0FBECDBFEA
:1017E000AC019CEC99839A839B839C839D831E828E
:1017F0001F8218869A01E1E021153105C9F06111B7
:1018000003C04115510569F4D901A770BB27A45F36
:10181000BE4F8C91A1E0B0E0AC0FBD1FAE0FB11D6B
:101820008C9383E0369527958A95E1F7EF5FE4CFB7
:10183000611102C0452B39F4E62FF0E0E45FFE4F62
:101840008081898305C0F0E0E55FFE4F80818A8357
:1018500029813A814B815C816D817E818F81988560
:1018600028960FB6F894DEBF0FBECDBFDF91CF91A3
:1018700008954F925F926F927F92AF92BF92CF92F4
:10188000DF92EF92FF920F931F93CF93DF93CDB729
:10189000DEB728970FB6F894DEBF0FBECDBF8C0120
:1018A000CB01D22E642F0E94E60B29013A015B0185
:1018B0007C01F80182A582FD04C087A590A90E9441
:1018C000FE11F80187A590A9DD2011F060E001C0AC
:1018D00061E00E94D50DF801C7A4D0A849825A82C0
:1018E0006B827C82AD82BE82EF82F886F60126850D
:1018F000AE014F5F5F4F6AE0C6010E945C15F601C2
:101900002685AE014F5F5F4F60E1C6010E945C1506
:10191000F601478161E1C6010E948611F801B4A871
:10192000C7A4D0A80E94620A2B013C016FEFC60138
:101930000E94671180FF1EC06FEFC6010E946711F1
:1019400084FF06C040E167E0C6010E94861110C016
:101950000E94620ADC01CB0184199509A609B70926
:1019600080369105A105B10508F381E0F60187876E
:10197000F12C30C0F601F780EF2CBF1408F4EB2CEB
:10198000F6018085811102C0FE1801C0F12CC6014C
:101990000E94650380EA0E9468035801F7E0AF0ED9
:1019A000B11CEA0CEA1431F0F50181915F010E944B
:1019B0006803F8CFFF2029F080E00E946803FA94C2
:1019C000F9CFC6010E94620361E0C6010E943E0396
:1019D000FF24F394F80182A582FD0FC0418152815A
:1019E0006381748187A590A90E94170FF82E60E08B
:1019F000F80187A590A90E94D50D8F2D28960FB6C6
:101A0000F894DEBF0FBECDBFDF91CF911F910F9134
:101A1000FF90EF90DF90CF90BF90AF907F906F904E
:101A20005F904F900895CF92DF92EF92FF920F93C5
:101A30001F93CF93DF9300D000D0CDB7DEB7FC016A
:101A400095859B012115310561F0822F87708630C5
:101A500030F483E0369527958A95E1F7F3CF80E05F
:101A600097C09154EE24E3949F3708F0E12CF42EB4
:101A70006B018F0119821A821B821C827A8369830F
:101A80004B83BE016F5F7F4FCF010E94D5086981F4
:101A90007A812C814B81C8010E94390CF1E0FF1240
:101AA00027C0811102C0F12C6AC089819A818C15EE
:101AB0009D0501F5EE20F1F081ECF8018587878125
:101AC0009085928781879A838983FB821C82BE01DD
:101AD0006F5F7F4FC8010E94D50888E0F80184AB92
:101AE00069817A812C814B81C8010E94390C02C026
:101AF0008823C9F289819A818C159D0519F4FF24E8
:101B0000F3943DC0FF2019F0F3E0FF12F8CFEE2070
:101B1000B1F3F80182A582FF11C041815281638136
:101B2000748187A590A90E94170FF80182A58B7F69
:101B300082A760E087A590A90E94D50DF80187A52E
:101B400090A90E9493150E94620A6B017C01C80152
:101B50000E949713813C99F20E94620AAB01BC017A
:101B60004C195D096E097F09F80185819681A0E015
:101B7000B0E084179507A607B70748F794CFF80198
:101B800082A582FD04C087A590A90E9493158F2D80
:101B90000F900F900F900F90DF91CF911F910F91A9
:101BA000FF90EF90DF90CF9008951F93CF93DF9336
:101BB000EC01162F61E00E946F03482F112311F0F2
:101BC000416001C04E7F61E0CE01DF91CF911F9156
:101BD0000C9486117F928F929F92AF92BF92CF9278
:101BE000DF92EF92FF920F931F93CF93DF93CDB7C6
:101BF000DEB728970FB6F894DEBF0FBECDBFFC014D
:101C00009B012115310559F0822F8770863008F02D
:101C1000FAC0A3E036952795AA95E1F7F2CF62AB1B
:101C200073AB87A590A9DC012D913C912F3F310525
:101C300009F4E9C0DC0112962D913C9113972F3FD6
:101C4000310509F4E0C0E72EF62E8F0160E00E9416
:101C5000D50DF801C7A4D0A86DE1C6010E946F039D
:101C6000482F44606DE1C6010E9486116CE1C601F7
:101C70000E946F03482F4F636CE1C6010E948611DA
:101C800081E0D60118968C93F80182A993A966E0A9
:101C900070E00E94C522482F440F4B5FF0E14F9F38
:101CA000A0011124456064E0D8019F968D919C911C
:101CB000D0970E94861189E190E0A0E0B0E0F801A1
:101CC00081839283A383B4838BE490E0968385839E
:101CD00082A993A940E02FEF3FEFB9016823792350
:101CE000672B39F073E0220F331F7A95E1F74F5FCE
:101CF000F4CFF80141AB20953095E059FE4F318388
:101D0000208363E0369527956A95E1F73397A9011B
:101D100048235923518340832115310559F043E06D
:101D2000969587954A95E1F753E0369527955A950C
:101D3000E1F7F2CFF801E159FE4F808386E0782E7B
:101D400088248394912C7A94FFEF7F1609F454C071
:101D5000672D8F2D9E2D0E94E60BD8019F96CD906A
:101D6000DC90D09729833A834B835C836D837E8399
:101D70008F839887A72CB12C71100BC0F601468574
:101D800050E0BE016F5F7F4FC60109960E9411248B
:101D900003C0F1E07F1208C0F501EC5AFE4F6491D8
:101DA000D6011E962C9105C0F501EC5AFE4F6491A8
:101DB00021E0AE014F5F5F4FC6010E945C15F50147
:101DC000E25BFE4F6491F6014781C6010E948611D5
:101DD00062E0C6010E946F03F501E85BFE4FE491EB
:101DE000940101C0220FEA95EAF7482F422B62E0E6
:101DF000C6010E948611A7CFD8019F968D919C9114
:101E0000D0970E94931528960FB6F894DEBF0FBEA8
:101E1000CDBFDF91CF911F910F91FF90EF90DF9099
:101E2000CF90BF90AF909F908F907F9008954F92EA
:101E30005F926F927F928F929F92AF92BF92CF925A
:101E4000DF92EF92FF92CF93DF93EC014A015B01A7
:101E50000E94620A6B017C01240135018FE5480E66
:101E6000511C611C711C67E1CE010E946F0384FD4F
:101E700039C06FEFCE010E94671184FF22C040E19C
:101E800067E0CE010E94861160E0CE010E943E0311
:101E900061E0CE010E943E030E94620ADC01CB0198
:101EA0008C199D09AE09BF0988159905AA05BB05BE
:101EB00040F060E0CE010E943E03CE010E948311FB
:101EC0000FC00E94620ADC01CB018C199D09AE098A
:101ED000BF09481659066A067B0628F681E08F87F7
:101EE00080E005C060E0CE010E943E0381E0DF910A
:101EF000CF91FF90EF90DF90CF90BF90AF909F90E9
:101F00008F907F906F905F904F900895AF92BF92A7
:101F1000CF92DF92EF92FF920F931F93CF93DF93B5
:101F2000CDB7DEB728970FB6F894DEBF0FBECDBF92
:101F3000DC01ED91FC91E432F94011F480E02AC01B
:101F40006901142F5B017C010E94620AF701808104
:101F500091818432994091F31C821B82809104010B
:101F6000909105019C012F5F3F4F30930501209315
:101F700004019E838D831F8308E310E09601A50171
:101F8000BE016F5F7F4FD70118968D919C91199775
:101F90000E94D91528960FB6F894DEBF0FBECDBFAC
:101FA000DF91CF911F910F91FF90EF90DF90CF9035
:101FB000BF90AF900895FF920F931F93CF93DF933D
:101FC000803319F422E3F22E02C090E7F92E14E1D7
:101FD000C82FD0E09E014F2D67EB72E08091B502D3
:101FE0009091B6020E94860F082F811114C0809133
:101FF000B5029091B6020E94440581110AC040EDDD
:1020000057E060E070E08091B5029091B6020E94C6
:102010008F031150F9F6802FDF91CF911F910F910F
:10202000FF900895009769F0FC0101900020E9F706
:102030003197AF01481B590BBC018DEF91E00C9417
:10204000660780E090E008958F929F92AF92BF92D2
:102050000F931F93CF93DF93CDB7DEB7A1970FB642
:10206000F894DEBF0FBECDBF19A2423008F44AE09B
:102070008E010F5D1F4F842E912CA12CB12CA50138
:1020800094010E945721E62FB901CA01015011099C
:10209000EA3014F4E05D01C0E95CD801EC93232B35
:1020A000242B252B61F7C8010E941210A1960FB6B0
:1020B000F894DEBF0FBECDBFDF91CF911F910F917E
:1020C000BF90AF909F908F900895CF93DF93AB0117
:1020D000672B61F4E091FD01F091FE010190F08128
:1020E000E02D682F8DEF91E0099506C0682F70E014
:1020F00080E090E00E942410EC0186E591E00E94CF
:1021000012108C0F9D1FDF91CF91089580918B0449
:10211000E0918C04F0918D04F8949181982B918337
:102120002281982F909529232283A2E0B0E0119775
:10213000F1F7218192239183A0E1B0E01197F1F7AB
:1021400090817894E6E6F0E03197F1F7982381E00A
:1021500009F480E0089590918B04E0918C04F09153
:102160008D04392F309580FF13C0F8942281832F7E
:10217000822382838181892B8183A0E1B0E0119742
:10218000F1F78281982B928378948AE690E012C0CE
:10219000F8942281832F822382838181892B8183FA
:1021A000AEE7B0E01197F1F78281982B9283789493
:1021B00086E090E00197F1F708950F931F93CF9376
:1021C000DF93082FC8E0D0E011E081E0912F902349
:1021D00009F480E00E94AB10110F2197B1F7F89439
:1021E000E0918C04F0918D04918180918B04809515
:1021F00089238183E0918C04F0918D0492818091F8
:102200008B048095892382837894DF91CF911F91ED
:102210000F910895EF92FF920F931F93CF93DF9347
:102220001F92CDB7DEB7182F85E599830E94DD1088
:10223000E12E9981F92E8701085F1F4FF7018191E7
:102240007F010E94DD10E016F106C1F70F90DF91CB
:10225000CF911F910F91FF90EF900895EF92FF9211
:102260000F931F93CF93DF93EC017B01BA018AA9EF
:102270009BA9F70191838083DE01179688E0019086
:102280000D928A95E1F72115310529F0A901CE01BA
:102290000F960E941124F7016281738108331105A2
:1022A00061F06034710511F444E001C043E060174F
:1022B000710709F442E0B80101C040E0CE01DF91AE
:1022C000CF911F910F91FF90EF900C94130DEF920F
:1022D000FF921F93CF93DF931F92CDB7DEB77C01A0
:1022E00069830E9465036981862F0E946803182F05
:1022F000C7010E946203812F0F90DF91CF911F9140
:10230000FF90EF90089561EE0C946711EF92FF92A9
:102310001F93CF93DF9300D0CDB7DEB77C014A8304
:1023200069830E9465036981862F8F7180620E9494
:102330006803182F4A81842F0E946803C7010E94F6
:102340006203812F0F900F90DF91CF911F91FF902B
:10235000EF900895EF92FF920F931F93CF938C010C
:102360007B0166E00E946F03C82FC77D82E0E816FC
:10237000F10431F4C0628BE990E0A0E0B0E00DC060
:10238000EA94EF2829F085E590E0A0E0B0E005C0F0
:10239000C86081E490E0A0E0B0E0F801808B918B10
:1023A000A28BB38B4C2F66E0C8010E94861166E0B9
:1023B000C8010E946F0391E08C1390E0892FCF91A8
:1023C0001F910F91FF90EF900895CF93DF93EC0151
:1023D00060E00E946F0381FD0EC0482F426060E004
:1023E000CE010E94861165E070E080E090E0DF9110
:1023F000CF910C94280ADF91CF910895CF93DF936A
:10240000EC0160E00E943E03888999890E94FA09E4
:102410006DE1CE010E946F0381FF07C08889998911
:102420000E94FA09CE010E94831160E0CE010E9451
:102430006F03482F4E7F60E0CE010E94861162E05C
:10244000CE010E946F03E8E4F1E0E49141E050E046
:1024500001C0440FEA95EAF7482B62E0CE01DF9114
:10246000CF910C9486118F929F92AF92BF92CF9290
:10247000DF92EF92FF920F931F93CF93DF93EC01C4
:102480007B01CCA8D12C860108501109DB011696DE
:102490009C918CE6890F833020F0983C09F0CFC0E6
:1024A00003C0943909F4E4C08BE6890F823018F038
:1024B000983C09F08EC06E0159EDC50ED11CD601B5
:1024C0002D913C91A801420F531F4139510520F035
:1024D000C852DF4F1882B1C05E01B8EDAB0EB11C1F
:1024E000F5018081882309F415C1963929F0D701B7
:1024F00017969C919813A1C0FE01EB52FF4F4081AB
:102500005181F701848195814817590709F095C0D9
:102510004E01FBED8F0E911CD4018D919C91A80171
:10252000BE01615F7F4F820F931F0E941124F6014D
:1025300080819181080F191F11830083D70116969E
:102540008C91863929F0F50180818150808373C098
:10255000D5011C92F7018781FE01E952FF4F80836C
:10256000833809F483C07E01FFECEF0EF11CF70104
:10257000A081B181CE018A1B9B0B8B539F4F80178B
:102580009107F8F032968AE001900D928A95E1F772
:10259000D7018D919C91F40160817181D6014D919B
:1025A0005C910A960E941124F601808191810A961D
:1025B000D7012D913C911197820F931F8D939C937E
:1025C0003AC08FA598A90E94FE118AA581608AA7AA
:1025D00034C07E01BFECEB0EF11CF701A081B1818C
:1025E000CE01C5969D01281B390BC901800F911F93
:1025F0008B39910510F5E85CF10988E001900D92A6
:102600008A95E1F7D701ED91FC9111971187008729
:102610008D919C91BE01615F7F4FA8010A960E9437
:102620001124B2E0CB0ED11CF70180819181C80E3C
:10263000D91ED182C08281E06DC080E06BC093382A
:1026400041F6DE01AF52BF4FFE01379688E00190A0
:102650000D928A95E1F7FE01E552FF4FCE010F96EC
:1026600091838083C752DF4F1983088382E052C071
:10267000F7018781873008F02BCFFE01EB52FF4F27
:1026800040815181D70114962D913C911597349733
:102690006F014217530739F4408151812D913C91CC
:1026A0004217530741F2F8E18F9FC0011124FE0148
:1026B000E153FF4F20813181AE01421B530B9A0140
:1026C0002B533F4F281739073CF48AA581608AA70E
:1026D0008FA598A90E94FE11FE01379688E0D601C9
:1026E00001900D928A95E1F7FE01E552FF4FBE0180
:1026F000615F7F4FA801808191810E941124FE01BA
:10270000E752FF4F11830083C852DF4F8881815009
:10271000888391CFDF91CF911F910F91FF90EF9020
:10272000DF90CF90BF90AF909F908F9008952F92A1
:102730003F924F925F926F927F928F929F92AF9251
:10274000BF92CF92DF92EF92FF920F931F93CF939E
:10275000DF9300D01F92CDB7DEB7DC019A969C9133
:102760009A97892F827091FD19C0FD01E153FF4FA7
:10277000AD014B5C5F4F90FD07C020813181241B70
:10278000350B2937310554F0208131814217530729
:1027900008F47CC19E7F9A969C939A97BB83AA83E8
:1027A0000E94620A2B013C0110E0CA80DB8027E016
:1027B000C20ED11C2A803B8031E9231A3EEF330A36
:1027C000F4E2AF2EF9E0BF2EEA81FB81E7A4F0A886
:1027D000F701808191818F3F910529F18281938159
:1027E0008F3F910501F167E1C7010E946F03082F38
:1027F000017080FD18C06FEFC7010E9467110E9431
:10280000620ADC01CB0184199509A609B709EA819E
:10281000FB81E7A4F0A8893E9340A105B10528F00B
:1028200081E0F7018787812F31C1C7010E946503CD
:1028300080E60E9468038FEF0E946803982EC7010C
:102840000E946203F0E2F91558F462EEC7010E949B
:10285000671162E070E080E090E00E94280A01C009
:10286000092DEA81FB8104AB083038F46AE070E09E
:1028700080E090E00E94280AA7CFEA81FB81E7A4CC
:10288000F0A8F7018781801708F4082FF7019085D9
:10289000911103C0801B898301C01982C7010E9466
:1028A000650381E60E9468034601015038F08FEF0E
:1028B0000E946803F40181934F01F7CF098100233F
:1028C00029F08FEF0E9468030150F9CFC7010E94E1
:1028D000620340E767E0C7010E948611EA81FB813D
:1028E00061857285CB01009759F0282F277026301B
:1028F00008F06ACFE3E096958795EA95E1F7F3CF84
:10290000EA81FB81158582A993A96817790709F0E7
:1029100043C0123809F458CF103891F4643279402A
:10292000F1F0EA81FB81B286A18642E064E279E0BF
:10293000CF010E94130D6AE070E080E090E049C092
:10294000133C69F46115710551F0EA81FB817087D0
:1029500067831286118640E060E070E041C0EA8142
:10296000FB8181A5882319F017FF0CC002C0113C20
:1029700049F48CE6810F833028F0183C19F01338A5
:1029800009F051CFB6018A819B810E9433128230B7
:1029900009F01ACF83E87AC06034710509F070C07D
:1029A000123C01F5EA81FB8122A523FD0DCF843283
:1029B000F9E09F0709F408CFEA81FB812781308580
:1029C0003287218790878783F101608170E080E002
:1029D00090E00E94280AEA81FB816185728542E0CD
:1029E000CF0151C0B6018A819B810E943312082F0A
:1029F000EA81FB818081882309F43EC022A933A9A2
:102A0000C90153E0969587955A95E1F7892B21F0F6
:102A10008CEB92E10197F1F7C901837099279C0132
:102A200048E552E0249FC001259F900D349F900DF2
:102A300011240E94FA09EA81FB8121A9222381F055
:102A400030E021503109C901880F991F280F391F23
:102A500061E070E002C0660F771F2A95E2F702C0BE
:102A600060E070E083E0660F771F8A95E1F744E04D
:102A70008A819B810E94130D023009F0A5CE8ACF76
:102A800041E08A819B810E94130D9ECE0F900F9092
:102A90000F90DF91CF911F910F91FF90EF90DF90FA
:102AA000CF90BF90AF909F908F907F906F905F90EE
:102AB0004F903F902F900895CF92DF92EF92FF9228
:102AC0000F931F93CF93DF9300D01F92CDB7DEB744
:102AD0007C01142F2A835B8369830E9465036981CB
:102AE000862F8F7180620E946803082FC12E5B8140
:102AF000D52E2A81120F1C1531F0F60181916F013C
:102B00000E946803F8CFC7010E946203802F0F90D4
:102B10000F900F90DF91CF911F910F91FF90EF9049
:102B2000DF90CF900895CF93DF93EC010E94E511E1
:102B300060E0CE010E946F03482F416060E0CE014B
:102B40000E94861140E767E0CE010E94861161E095
:102B5000CE010E943E038985882349F02E85AE016F
:102B6000475F5F4F6AE0CE010E945C1514C062E0CF
:102B7000CE010E946F03E8E4F1E0E49121E030E04F
:102B800001C0220FEA95EAF72095422F482362E020
:102B9000CE010E9486116DE1CE010E946F0381FF7C
:102BA00005C0CE01DF91CF910C948311DF91CF91BD
:102BB00008952F923F924F925F926F927F928F92E1
:102BC0009F92AF92BF92CF92DF92EF92FF920F93BC
:102BD0001F93CF93DF93EC017B015A0169014801F8
:102BE0000E94620A4BA45CA46DA47EA4DC01CB010C
:102BF00084199509A609B7094997A105B10528F4D3
:102C0000CE010E94971387FFEBCF8CE891E00197EC
:102C1000F1F789E1C816D104B0F488E08C0D8CABD3
:102C200084019601A501B701CE010E942E11182F33
:102C3000882311F011E092C00E94620A6BA77CA762
:102C40008DA79EA78BC0E1E9CE16D10408F085C000
:102C5000C60168E170E00E94C52221E0892B09F4D9
:102C600020E0C60168E170E00E94C522722E760E57
:102C7000F701828193818034910539F08AA58460BF
:102C80008AA78FA598A90E94FE11F7014680512CB2
:102C9000612C84E9282E96E9392EF7017782F1E03C
:102CA0007F1204C0F7013682478208C0611003C05A
:102CB000F701268203C085E9F7018683E8E16E9E6D
:102CC000A00111249601241B350B2931310510F088
:102CD00028E130E088E0820F8CAB4A0D5B1D840157
:102CE000B701CE010E942E11182F81110BC062E096
:102CF00070E080E090E00E94280A5394F2E0F5151D
:102D000060F606C07A946394772011F0512CC5CFF9
:102D1000F70146828AA582FF12C049815A816B81E0
:102D20007C818FA598A90E94170F182F8FA598A9AD
:102D30000E94931560E08FA598A90E94D50D8AA5E1
:102D40008B7F8AA7112349F0772009F473CF0E9463
:102D5000620A6BA77CA78DA79EA710E0812FDF9149
:102D6000CF911F910F91FF90EF90DF90CF90BF9088
:102D7000AF909F908F907F906F905F904F903F901B
:102D80002F90089590918B04E0918C04F0918D0424
:102D9000F8948181292F20958223818378948DE76F
:102DA000815009F130813923D9F3F894828182234B
:102DB00082838181892B81837894ACEBB3E0119776
:102DC000F1F7F894818128232183A8E8B0E01197D6
:102DD000F1F78081982381E009F080E07894E0E3C6
:102DE000F3E03197F1F708958F929F92AF92BF92DF
:102DF000DF92EF92FF920F931F93CF93DF93C82F31
:102E0000162F282F30E0F901E858FE4FD491F90130
:102E1000EC59FE4FE491F0E0EE0FFF1FE65AFE4F33
:102E2000E590F4901092B8041092B9041092BA048C
:102E30001092BB041092BC0461E00E94BE0960E0E5
:102E40008C2F0E947209612F70E080E090E00E9458
:102E5000280A61E08C2F0E9472098CE490E00197AF
:102E6000F1F760E08C2F0E94BE0928EC30E0F701FA
:102E700080818D2331F421503109C9F78EEF9FEF06
:102E80004FC028EC30E0F70180818D2321F02150E4
:102E90003109C9F7F3CF08E210E8D12C28EC30E073
:102EA000F70180818D2321F421503109C9F7E6CF44
:102EB0000E94030A4B015C0128EC30E0F70180819D
:102EC0008D2321F021503109C9F7D8CF0E94030A80
:102ED000DC01CB0188199909AA09BB098997A105C9
:102EE000B10538F0ED2DF0E0EA54FB4F8281812BE3
:102EF0008283212F30E0359527952115310511F07A
:102F0000122F02C0D39410E8015041F661E08C2FDB
:102F10000E94BE0961E08C2F0E94720980E090E05F
:102F2000DF91CF911F910F91FF90EF90DF90BF90B5
:102F3000AF909F908F9008950F931F93CF93DF933F
:102F40008C01C0E0D0E0F801EC0FFD1F6491662316
:102F500071F0E091FD01F091FE010190F081E02D12
:102F60008DEF91E00995892B11F02196ECCFCE01E0
:102F7000DF91CF911F910F910895CF93DF930E941E
:102F80009C17EC0186E591E00E9412108C0F9D1FAA
:102F9000DF91CF910895CF93DF9300D000D0CDB7CC
:102FA000DEB7789484B5826084BD84B5816084BDC9
:102FB00085B5826085BD85B5816085BD80916E00D7
:102FC000816080936E001092810080918100826008
:102FD0008093810080918100816080938100809145
:102FE00080008160809380008091B1008460809334
:102FF000B1008091B00081608093B00080917A0030
:10300000846080937A0080917A00826080937A0055
:1030100080917A008E7F80937A0080917A00806818
:1030200080937A001092C10061E086E00E94BE09A0
:1030300061E086E00E947209E0910D02F0910E02BB
:1030400082E08083E0910902F0910A021082E0910F
:103050000B02F0910C0287E6808310921502E0913A
:103060001102F091120286E08083E0910F02F0914C
:103070001002808180618083E0910F02F091100244
:10308000808188608083E0910F02F091100280813E
:1030900080688083E0910F02F091100280818F7D23
:1030A000808389E090E00E94D8208093010173EA38
:1030B000E72E72E0F72E67010FE010E0C8010E94D2
:1030C000D820F60181936F010F5F1F4F0F3111055B
:1030D000A9F78CEA90E00E949C176AE070E080916A
:1030E00001010E9465108EE990E00E949C1761E545
:1030F000C62E61E0D62E8E010F5F1F4FF701819122
:103100007F011F928F93DF92CF921F930F930E94A4
:103110003324C8010E9412100F900F900F900F904F
:103120000F900F90F3EBEF16F2E0FF0639F786E50C
:1031300091E00E94121080910101823038F4809158
:10314000A302811101C081E08093010183EE90E030
:103150000E949C17809101018093E9026AE070E06F
:103160000E9465100091ED021091EE02F80180813D
:103170009181228133818217930719F061E00E94C7
:10318000BE09F80182819381208131812817390796
:1031900019F061E00E94BE09FFB6F89480918401A5
:1031A000811127C0EEE6F1E08491E2E8F1E094912C
:1031B000E82FF0E0EE0FFF1FE454FF4FA591B4910C
:1031C000EC91E92321F461E08AE00E94720961E058
:1031D0008AE00E94BE098CB580618CBD8CB580648C
:1031E0008CBD61E08DE00E94BE0961E08BE00E9431
:1031F000BE09809184018F5F80938401FFBE60E0EF
:10320000C8010E943E0361E0C8010E944A0365E0D4
:1032100070E080E090E00E94280A4CE060E0C80185
:103220000E9486114FE564E0C8010E94861162E0A9
:1032300070E0C8010E94AA11882319F081E0F8010A
:10324000868366E0C8010E946F0360E070E0C801F9
:103250000E94AA11C8010E94650380E50E946803CC
:1032600083E70E946803C8010E94620340E06DE1A9
:10327000C8010E94861140E06CE1C8010E948611DD
:10328000F801108640E767E0C8010E9486114CE40F
:1032900065E0C8010E94861162EEC8010E946711B4
:1032A000C8010E948311C8010E94E51160E0C801B5
:1032B0000E946F03482F4E7F60E0C8010E94861174
:1032C0008EE38093FA024EE365E08091ED029091E7
:1032D000EE020E94861160E070E08091ED02909114
:1032E000EE020E94AA110091EF021091F00281E01B
:1032F000F80181A78091E902882379F084E299E0BE
:103300009093E8028093E70240E65AEE60E070E0B6
:1033100087EE92E00E948F0313C086E090E00E9447
:10332000DF229093EB028093EA021092EC0210925B
:10333000E8021092E70260E070E0C8010E94EA0D26
:103340008BEC90E00E94BD1784B7877F84BF80918B
:10335000600088618093600081E2809360008091CA
:10336000600080648093600086EC90E00E94BD174E
:1033700060E086E00E94720968EC70E080E090E016
:103380000E94280A61E086E00E947209C12C30EC9C
:10339000D32E39E7E32E34ECF32E86EA94E0F7E0FF
:1033A000F80FFB8344244A9443E0542E612C712C83
:1033B0000E94AF05109203011092020105E065E042
:1033C00070E080E090E00E94280A8091BE048B307B
:1033D00041F562E18091BD040E94F416009759F511
:1033E0001091B804612F70E080E090E00E94BE214F
:1033F0006093B0047093B1048093B2049093B304CB
:10340000B090BA046B2D70E080E090E00E94BE2185
:103410006093B4047093B5048093B6049093B7049A
:1034200053C0863109F061C061E08091BD040E9403
:10343000F416009789F0C092B004D092B104E092E3
:10344000B204F092B304C092B404D092B504E092F6
:10345000B604F092B70444C0A090B9049090B804A8
:103460006A2D70E0792980E090E00E94BE212DEC69
:103470003CEC4CEC5DE30E9424226093B00470931A
:10348000B1048093B2049093B304B090BB04109144
:10349000BA04812F8F776B2D70E0782B80E090E05D
:1034A0000E94BE212DEC3CEC4CEC5DE30E942422FA
:1034B00017FDC6C06093B4047093B5048093B6043E
:1034C0009093B704A90CBA0C1B0D81E090E02091F9
:1034D000BC04211302C080E090E091958195910990
:1034E0009093C0048093BF0404C01092C004109253
:1034F000BF048091BF049091C004892BA9F10150B1
:103500008FEF90E00E949C1784E090E0801B91096F
:103510004C01092E000CAA08BB0897FF14C0E091CB
:10352000FD01F091FE010190F081E02D6DE28DEF43
:1035300091E0099566277727CB01681979098A09EF
:103540009B094AE003C04AE0C501B4010E9424106F
:1035500086E591E00E94121068EE73E080E090E052
:103560000E94280A01112BCF109299041092960400
:10357000109298041092970406E914E0F801129250
:1035800024E0EE38F207D9F70E94C216882309F426
:103590006FC280EF0E94DD10AA24A394912C312CDD
:1035A000BB24B3940E9486108C830E9486109C8159
:1035B000913019F48130C9F437C0292D30E09813C7
:1035C0001EC080919604B81638F4F901E457FB4FF9
:1035D00082818A2151F402C0B81639F090E088E067
:1035E0008B1560F0B092970409C0E92DF0E0E45724
:1035F000FB4F82818A29828391E009C03B2CF9012B
:10360000E457FB4F22818A2D809582238283892F64
:103610000E94AB10B394AA0C19F49394AA24A39417
:1036200097E0991508F0BECFE0E4EB1508F020C252
:1036300030929604311010C081E0809398040CC041
:10364000DC01CB01B0588093B4049093B504A093EF
:10365000B604B093B70436CF80918E04882309F462
:1036600007C2E6EAF4E0DF0158978C91819324E0E9
:10367000EE3AF207C1F7A6EAB4E0E0E02B812A17A0
:1036800089F08D918E27E82FEF70F0E0E65FFE4F16
:103690009491E82FE295EF70F0E0E65EFE4FE49142
:1036A000E927ECCF8091AD04E81749F04CE050E0F9
:1036B0006FEF70E08AE994E00E942C244FC0809163
:1036C000A604803119F0883209F03EC00E94C2166B
:1036D00086EA94E00E940A1184E40E94DD1068EEFC
:1036E00073E080E090E00E94280AF894E0918C0456
:1036F000F0918D04918180918B0480958923818341
:1037000078940E94C21686EA94E00E940A118EEB19
:103710000E94DD100AE914E029E0222E200E98E034
:10372000A92EB12C33243394912C0E948610811140
:103730009328330C81E0A81AB108B9F7F8019192E7
:103740008F012E12ECCF0AC089E591E00E94121081
:1037500060E170E08091A6040E9465108EE4809381
:103760007C0062E070E080E090E00E94280A809196
:103770007A00806480937A0080917A0086FDFCCF85
:10378000209178008091790030E0382B032E000CD6
:10379000440B550B64EB7BE281E190E00E94EE204C
:1037A000B901E42F952F80919C028823F9F08E3087
:1037B00008F08E508770806480937C0080917A003E
:1037C000806480937A0080917A0086FDFCCFA0917E
:1037D000780080917900B0E0B82B0E941821A301F5
:1037E00092010E94EE20B901E42F952F60939F0271
:1037F0007093A002E093A1029093A20287E08093CD
:10380000B70281E091E09093B9028093B80284E01E
:1038100090E09093BB028093BA02E091B302F091E2
:10382000B40280E1ACEBB2E001900D928A95E1F731
:1038300015E028E130E040E567EB72E08091B502E9
:103840009091B6020E94860F811114C08091B5023A
:103850009091B6020E94440581110AC040ED57E0E4
:1038600060E070E08091B5029091B6020E948F03F3
:103870001150F9F687E0382E3092B70285E091E0DA
:103880009093B9028093B802E1E0F0E0F093BB02BC
:10389000E093BA02E0918904F0918A040190F081EA
:1038A000E02D89E894E00995FC0198E0ACEBB2E0EA
:1038B00001900D929A95E1F7E0918904F0918A04C4
:1038C0000280F381E02D89E894E00995FC019CE0F9
:1038D000A4ECB2E001900D929A95E1F780E30E948A
:1038E000DB0FE091AE04F091AF040190F081E02D88
:1038F0008EEA94E009958C01E091AE04F091AF045A
:103900000280F381E02D8EEA94E009953092B702AF
:1039100022E031E03093B9022093B80222E030E097
:103920003093BB022093BA021093BD020093BC02F5
:103930009093BF028093BE0288E10E94DB0FE0916A
:103940009A02F0919B020190F081E02D8AE992E0C9
:1039500009954B015C01E0919A02F0919B02028073
:10396000F381E02D8AE992E00995182FE0919A02FF
:10397000F0919B020480F581E02D8AE992E009959F
:103980003092B70224E031E03093B9022093B802BC
:1039900023E030E03093BB022093BA028092BC0255
:1039A0009092BD02A092BE02B092BF021093C002DC
:1039B0008093C10288E10E94DB0F0E94AF058AE973
:1039C00092E00E943701843609F44FC08DE791E000
:1039D0000E94121086E591E00E94121060E081E7DB
:1039E00094E00E943E0360E081E794E00E946F0350
:1039F000482F4D7F60E081E794E00E94861160E0EF
:103A000086E00E94720983B7817F846083BF8091C2
:103A10009D0291E0980F90939D0290919E028917CC
:103A200050F483B7816083BF83B7816083BF88957B
:103A300083B78E7FEBCF83B78E7F83BF8091640087
:103A400080718093640010929D0261E086E00E9484
:103A5000720981E794E00E94931548EE53E060E01C
:103A600070E087EE92E00E948F030E946208A0CC73
:103A7000109296041092980410929704F8011292F2
:103A80008F01F4E00E381F07C9F710CECF93DF93F4
:103A9000CDB7DEB72E970FB6F894DEBF0FBECDBF01
:103AA000109200021092FF0188EE93E0A0E0B0E0D7
:103AB0008093010290930202A0930302B093040248
:103AC00027E131E03093FE012093FD0125EC30E049
:103AD00030930A022093090224EC30E030930C0268
:103AE00020930B0220EC30E030930E0220930D0265
:103AF00021EC30E03093100220930F0222EC30E0F2
:103B0000309312022093110226EC30E0309314021D
:103B100020931302109216021092170210921802AC
:103B2000109219021092C4041092C3048093C50429
:103B30009093C604A093C704B093C80489E291E0AF
:103B40009093C2048093C1048DE491E09093AF04FC
:103B50008093AE048EEF9FEF9093C0048093BF04D8
:103B600084E08093BD0486E18093BE0485E491E007
:103B700090938A048093890460E082E10E94BE09E8
:103B8000EAE8F1E08491E6E7F1E0E491F0E0EE0F9D
:103B9000FF1FE65AFE4F25913491FE013C96AE017F
:103BA0004C5F5F4F1292E417F507E1F789833B837F
:103BB0002A831C861D861E868EE0FE013196ABE8A8
:103BC000B4E001900D928A95E1F721E734E087E0B7
:103BD00090E0909372048093710488E090E0909359
:103BE0007404809373041092770480E280937804C5
:103BF0001092790485E080937F0445E050E060E016
:103C000070E040938504509386046093870470931A
:103C1000880410927A0430932F0320932E0344E3F8
:103C200053E05093CF034093CE034CED53E05093B9
:103C3000DB034093DA0340ED53E0509327034093B6
:103C4000260310922A0310922B0310922C03109239
:103C50002D0310922903109228031092FF02309333
:103C6000EE022093ED022FEF32E03093F00220932A
:103C7000EF0223EA32E03093B4022093B30227EE3E
:103C800032E03093B6022093B5022BE331E030935B
:103C90009B0220939A0210929C0210929D028093A4
:103CA0009E022E960FB6F894DEBF0FBECDBFDF91F9
:103CB000CF910895ACE0B0E0E0E6FEE10C94202165
:103CC0007C016B018A01FC0117821682838181FFCE
:103CD000BDC1CE0101964C01F7019381F60193FD20
:103CE000859193FF81916F01882309F4ABC18532DF
:103CF00039F493FD859193FF81916F01853229F409
:103D0000B70190E00E944220E7CF512C312C20E0F7
:103D10002032A0F48B3269F030F4803259F08332D3
:103D200069F420612CC08D3239F0803339F4216080
:103D300026C02260246023C0286021C027FD27C040
:103D400030ED380F3A3078F426FF06C0FAE05F9E77
:103D5000300D1124532E13C08AE0389E300D1124EB
:103D6000332E20620CC08E3221F426FD6BC12064FC
:103D700006C08C3611F4206802C0883641F4F60182
:103D800093FD859193FF81916F018111C1CF982F90
:103D90009F7D9554933028F40C5F1F4FFFE3F98308
:103DA0000DC0833631F0833771F0833509F05BC085
:103DB00022C0F801808189830E5F1F4F4424439401
:103DC000512C540115C03801F2E06F0E711CF8013E
:103DD000A080B18026FF03C0652D70E002C06FEFA8
:103DE0007FEFC5012C870E9437202C0183012C8591
:103DF0002F77222E17C03801F2E06F0E711CF801E8
:103E0000A080B18026FF03C0652D70E002C06FEF77
:103E10007FEFC5012C870E942C202C012C85206867
:103E2000222E830123FC1BC0832D90E048165906E7
:103E3000B0F4B70180E290E00E9442203A94F4CFBF
:103E4000F50127FC859127FE81915F01B70190E084
:103E50000E94422031103A94F1E04F1A5108411467
:103E6000510471F7E5C0843611F0893639F5F8014F
:103E700027FF07C060817181828193810C5F1F4F92
:103E800008C060817181072E000C880B990B0E5FB2
:103E90001F4F2F76722E97FF09C0909580957095D1
:103EA00061957F4F8F4F9F4F2068722E2AE030E040
:103EB000A4010E947A20A82EA81844C0853729F4AE
:103EC0002F7EB22E2AE030E025C0F22FF97FBF2EE0
:103ED0008F36C1F018F4883579F0B4C0803719F006
:103EE000883721F0AFC02F2F2061B22EB4FE0DC055
:103EF0008B2D8460B82E09C024FF0AC09F2F9660C6
:103F0000B92E06C028E030E005C020E130E002C054
:103F100020E132E0F801B7FE07C060817181828143
:103F200093810C5F1F4F06C06081718180E090E03B
:103F30000E5F1F4FA4010E947A20A82EA818FB2D07
:103F4000FF777F2E76FE0BC0372D3E7FA51450F4F1
:103F500074FE0AC072FC08C0372D3E7E05C0BA2C24
:103F6000372D03C0BA2C01C0B52C34FF0DC0FE01A3
:103F7000EA0DF11D8081803311F4397E09C032FFD2
:103F800006C0B394B39404C0832F867809F0B39429
:103F900033FD13C030FF06C05A2CB31418F4530C71
:103FA0005B18B32CB31468F4B70180E290E03C874F
:103FB0000E944220B3943C85F5CFB31410F43B1813
:103FC00001C0312C34FF12C0B70180E390E03C8780
:103FD0000E9442203C8532FF17C031FD03C088E7B4
:103FE00090E002C088E590E0B7010CC0832F86788E
:103FF00059F031FF02C08BE201C080E237FD8DE253
:10400000B70190E00E944220A51438F4B70180E384
:1040100090E00E9442205A94F7CFAA94F401EA0D4E
:10402000F11D8081B70190E00E944220A110F5CFE0
:10403000332009F451CEB70180E290E00E94422083
:104040003A94F6CFF7018681978102C08FEF9FEFF8
:104050002C96E2E10C943C21FC01059061507040EB
:104060000110D8F7809590958E0F9F1F0895FC0141
:104070006150704001900110D8F7809590958E0F97
:104080009F1F08950F931F93CF93DF93FB0123810D
:1040900021FD03C08FEF9FEF28C022FF16C046818D
:1040A0005781248135814217530744F4A081B1819F
:1040B0009D012F5F3F4F318320838C932681378171
:1040C0002F5F3F4F3783268310C0EB01092F182F36
:1040D0000084F185E02D0995892BE1F68E819F8181
:1040E00001969F838E83812F902FDF91CF911F9117
:1040F0000F910895FA01AA27283051F1203181F15A
:10410000E8946F936E7F6E5F7F4F8F4F9F4FAF4FDF
:10411000B1E03ED0B4E03CD0670F781F891F9A1FF2
:10412000A11D680F791F8A1F911DA11D6A0F711DA6
:10413000811D911DA11D20D009F468943F912AE0B2
:10414000269F11243019305D3193DEF6CF0108959A
:10415000462F4770405D4193B3E00FD0C9F7F6CFCB
:10416000462F4F70405D4A3318F0495D31FD405293
:10417000419302D0A9F7EACFB4E0A6959795879529
:1041800077956795BA95C9F7009761057105089508
:104190009B01AC010A2E06945795479537952795B4
:1041A000BA95C9F7620F731F841F951FA01D08954C
:1041B000F999FECF92BD81BDF89A992780B50895EF
:1041C000262FF999FECF1FBA92BD81BD20BD0FB633
:1041D000F894FA9AF99A0FBE01960895052E97FB66
:1041E0001EF400940E94052157FD07D00E9457211C
:1041F00007FC03D04EF40C94052150954095309562
:1042000021953F4F4F4F5F4F089590958095709542
:1042100061957F4F8F4F9F4F08950E947921A59FF1
:10422000900DB49F900DA49F800D911D11240895B1
:10423000B7FF0C940D210E940D21821B930B089552
:104240002F923F924F925F926F927F928F929F92A6
:10425000AF92BF92CF92DF92EF92FF920F931F9394
:10426000CF93DF93CDB7DEB7CA1BDB0B0FB6F89445
:10427000DEBF0FBECDBF09942A88398848885F8485
:104280006E847D848C849B84AA84B984C884DF80F6
:10429000EE80FD800C811B81AA81B981CE0FD11DDA
:1042A0000FB6F894DEBF0FBECDBFED010895A1E2B9
:1042B0001A2EAA1BBB1BFD010DC0AA1FBB1FEE1FA0
:1042C000FF1FA217B307E407F50720F0A21BB30BEB
:1042D000E40BF50B661F771F881F991F1A9469F767
:1042E00060957095809590959B01AC01BD01CF01C3
:1042F0000895A29FB001B39FC001A39F700D811DBF
:104300001124911DB29F700D811D1124911D0895DE
:104310000E948F216894B1110C941E2208950E946E
:10432000032288F09F5798F0B92F9927B751B0F022
:10433000E1F0660F771F881F991F1AF0BA95C9F729
:1043400014C0B13091F00E941D22B1E008950C9488
:104350001D22672F782F8827B85F39F0B93FCCF33B
:10436000869577956795B395D9F73EF490958095A6
:10437000709561957F4F8F4F9F4F0895E89409C0C6
:1043800097FB3EF490958095709561957F4F8F4F88
:104390009F4F9923A9F0F92F96E9BB279395F6959E
:1043A000879577956795B795F111F8CFFAF4BB0F1C
:1043B00011F460FF1BC06F5F7F4F8F4F9F4F16C080
:1043C000882311F096E911C0772321F09EE8872F0A
:1043D000762F05C0662371F096E8862F70E060E0C6
:1043E0002AF09A95660F771F881FDAF7880F96953F
:1043F000879597F9089557FD9058440F551F59F028
:104400005F3F71F04795880F97FB991F61F09F3FC1
:1044100079F087950895121613061406551FF2CFEA
:104420004695F1DF08C0161617061806991FF1CF3A
:1044300086957105610508940895E894BB27662761
:104440007727CB0197F908950E9437220C94A82270
:104450000E949A2238F00E94A12220F0952311F0A8
:104460000C9491220C94972211240C941E220E94E9
:10447000FB2170F3959FC1F3950F50E0551F629F8C
:10448000F001729FBB27F00DB11D639FAA27F00DAD
:10449000B11DAA1F649F6627B00DA11D661F829FD4
:1044A0002227B00DA11D621F739FB00DA11D621FB9
:1044B000839FA00D611D221F749F3327A00D611DD6
:1044C000231F849F600D211D822F762F6A2F1124B8
:1044D0009F5750409AF0F1F088234AF0EE0FFF1FEB
:1044E000BB1F661F771F881F91505040A9F79E3F42
:1044F000510580F00C9491220C941E225F3FE4F34E
:10450000983ED4F3869577956795B795F795E79597
:104510009F5FC1F7FE2B880F911D9695879597F9A0
:10452000089597F99F6780E870E060E008959FEF35
:1045300080EC089500240A9416161706180609063A
:10454000089500240A941216130614060506089509
:10455000092E0394000C11F4882352F0BB0F40F491
:10456000BF2B11F460FF04C06F5F7F4F8F4F9F4FD1
:104570000895991B79E004C0991F961708F0961BBF
:10458000881F7A95C9F780950895AA1BBB1B51E136
:1045900007C0AA1FBB1FA617B70710F0A61BB70BB3
:1045A000881F991F5A95A9F780959095BC01CD0158
:1045B0000895EE0FFF1F0590F491E02D0994CF931D
:1045C000DF938230910510F482E090E0E091CF0417
:1045D000F091D00420E030E0C0E0D0E0309711F15D
:1045E0004081518148175907C0F04817590761F4B5
:1045F00082819381209719F09B838A832BC09093AB
:10460000D0048093CF0426C02115310519F042173C
:10461000530718F49A01BE01DF01EF010280F38114
:10462000E02DDCCF2115310509F1281B390B243091
:10463000310590F412968D919C9113976115710537
:1046400021F0FB019383828304C09093D004809374
:10465000CF04FD01329644C0FD01E20FF31F8193A8
:104660009193225031092D933C933AC02091CD046F
:104670003091CE04232B41F420910801309109019F
:104680003093CE042093CD04209106013091070190
:104690002115310541F42DB73EB740910A015091E3
:1046A0000B01241B350BE091CD04F091CE04E217F1
:1046B000F307A0F42E1B3F0B2817390778F0AC0145
:1046C0004E5F5F4F2417350748F04E0F5F1F509322
:1046D000CE044093CD048193919302C0E0E0F0E0DA
:1046E000CF01DF91CF9108950F931F93CF93DF9365
:1046F000009709F48CC0FC0132971382128200915A
:10470000CF041091D0040115110581F4208131816D
:10471000820F931F2091CD043091CE0428173907C2
:1047200079F5F093CE04E093CD0471C0D80140E058
:1047300050E0AE17BF0750F412962D913C9113979D
:10474000AD012115310509F1D901F3CF9D01DA0140
:104750003383228360817181860F971F82179307AD
:1047600069F4EC0128813981260F371F2E5F3F4FF6
:10477000318320838A819B8193838283452B29F413
:10478000F093D004E093CF0442C01396FC93EE93D1
:104790001297ED01499159919E01240F351FE2179F
:1047A000F30771F480819181840F951F0296119611
:1047B0009C938E938281938113969C938E931297F0
:1047C000E0E0F0E0D80112968D919C91139700974C
:1047D00019F0F8018C01F6CF8D919C9198012E5F14
:1047E0003F4F820F931F2091CD043091CE042817A4
:1047F000390769F4309729F41092D0041092CF044D
:1048000002C0138212821093CE040093CD04DF9174
:10481000CF911F910F91089581E090E0F8940C944E
:104820005624FB01DC0102C001900D924150504022
:10483000D8F708956817790768F4FB01DC01E40FE5
:10484000F51FA40FB51F02C002900E9241505040B8
:10485000D8F708950C941124DC0101C06D934150E8
:104860005040E0F70895AEE0B0E0E9E3F4E20C94E4
:104870002E210D891E8986E08C831A8309838FEF90
:104880009FE79E838D83AE01475E5F4F6F89788D72
:10489000CE0101960E945A1E2F813885F801E20F41
:1048A000F31F10822E96E4E00C944A21F894FFCF77
:1048B0000101010001000000D1048000C33C33CE9F
:1048C0003EE3EC00000000F907660791074008C2CC
:1048D00007A007B40700000000C008AC08D2089E7B
:1048E00008A508A2089F0800000000930137011DD9
:1048F00001000000009B019901000000000701F188
:104900000025303258000D0A004465766963652041
:1049100066616D696C79206973206E6F74207265B1
:10492000636F676E697A65643A20307800536C650E
:0449300065700000AE
:107800000C94343C0C94513C0C94513C0C94513CE1
:107810000C94513C0C94513C0C94513C0C94513CB4
:107820000C94513C0C94513C0C94513C0C94513CA4
:107830000C94513C0C94513C0C94513C0C94513C94
:107840000C94513C0C94513C0C94513C0C94513C84
:107850000C94513C0C94513C0C94513C0C94513C74
:107860000C94513C0C94513C11241FBECFEFD8E036
:10787000DEBFCDBF11E0A0E0B1E0EAE8FFE702C063
:1078800005900D92A230B107D9F712E0A2E0B1E065
:1078900001C01D92AD30B107E1F70E942D3D0C945F
:1078A000C33F0C94003C982F95959595959595958B
:1078B000905D8F708A307CF0282F295A8091C0000B
:1078C00085FFFCCF9093C6008091C00085FFFCCF60
:1078D0002093C6000895282F205DF0CF982F809127
:1078E000C00085FFFCCF9093C6000895EF92FF92F1
:1078F0000F931F93EE24FF2487018091C00087FD22
:1079000017C00894E11CF11C011D111D81E2E8164D
:1079100081EAF80687E0080780E0180770F3E09135
:107920000401F091050109958091C00087FFE9CF1E
:107930008091C6001F910F91FF90EF9008950E94D3
:10794000763C982F8091C00085FFFCCF9093C600B5
:1079500091362CF490330CF09053892F089597555D
:10796000892F08951F930E949F3C182F0E949F3CCF
:107970001295107F810F1F9108951F93182F882350
:1079800021F00E94763C1150E1F71F9108951F935A
:10799000182F0E94763C803249F0809103018F5F5E
:1079A000809303018530C1F01F9108958091C0003C
:1079B00085FFFCCF84E18093C6008091C00085FFE5
:1079C000FCCF1093C6008091C00085FFFCCF80E102
:1079D0008093C6001F910895E0910401F091050184
:1079E00009951F9108950E94763C803241F0809164
:1079F00003018F5F80930301853081F008958091AA
:107A0000C00085FFFCCF84E18093C6008091C00058
:107A100085FFFCCF80E18093C6000895E0910401CA
:107A2000F09105010995089548EC50E08823A1F0F4
:107A30002D9A28EE33E0FA013197F1F721503040CA
:107A4000D1F72D9828EE33E0FA013197F1F7215064
:107A50003040D1F7815061F708953F924F925F9285
:107A60006F927F928F929F92AF92BF92CF92DF924E
:107A7000EF92FF920F931F93CF93DF93000082E06A
:107A80008093C00080E18093C4001092C50088E11B
:107A90008093C10086E08093C2005098589A259A3E
:107AA00081E00E94143D24E1F22E9EE1E92E85E959
:107AB000D82E0FE0C02E10E1B12EAA24A394B1E479
:107AC0009B2EA6E58A2EF2E57F2EE0E26E2E79E46B
:107AD000572E63E5462E50E5352E0E94763C8033C6
:107AE000B1F18133B9F1803409F46FC0813409F404
:107AF00076C0823409F485C0853409F488C08035A5
:107B000031F1823521F1813511F1853509F485C0D6
:107B1000863509F48DC0843609F496C0843709F49B
:107B200003C1853709F472C1863709F466C08091B4
:107B300003018F5F80930301853079F6E0910401A2
:107B4000F091050109950E94763C803351F60E9420
:107B5000F33CC3CF0E94763C803249F78091C0004D
:107B600085FFFCCFF092C6008091C00085FFFCCF5E
:107B70009092C6008091C00085FFFCCF8092C60025
:107B80008091C00085FFFCCF7092C6008091C0003C
:107B900085FFFCCF6092C6008091C00085FFFCCFBE
:107BA0005092C6008091C00085FFFCCF4092C60075
:107BB0008091C00085FFFCCF3092C6008091C0004C
:107BC00085FFFCCFB092C60088CF0E94763C8638F5
:107BD00008F4BDCF0E94763C0E94F33C7ECF0E9409
:107BE000763C803809F49CC0813809F40BC1823896
:107BF00009F430C1883909F48FC080E00E94C73C85
:107C00006CCF84E10E94BD3C0E94F33C66CF85E0CE
:107C10000E94BD3C0E94F33C60CF0E94763C809362
:107C200006010E94763C809307010E94F33C55CFE9
:107C30000E94763C803309F411C183E00E94BD3C70
:107C400080E00E94C73C49CF0E94763C80930902A5
:107C50000E94763C8093080280910C028E7F809374
:107C60000C020E94763C853409F409C18091080217
:107C700090910902892B89F000E010E00E94763C87
:107C8000F801E85FFE4F80830F5F1F4F809108026D
:107C9000909109020817190788F30E94763C8032F8
:107CA00009F045CF80910C0280FFF5C0609106017C
:107CB00070910701660F771F7093070160930601AB
:107CC000A0910802B09109021097C9F0E8E0F1E034
:107CD0009B01AD014E0F5F1FF999FECF32BD21BD53
:107CE000819180BDFA9AF99A2F5F3F4FE417F5070B
:107CF00099F76A0F7B1F70930701609306018091CB
:107D0000C00085FFFCCFF092C6008091C00085FFC7
:107D1000FCCFB092C600E1CE83E00E94C73CDDCE2E
:107D200082E00E94C73CD9CE0E94763C8093090233
:107D30000E94763C80930802809106019091070191
:107D4000880F991F90930701809306010E94763C4B
:107D5000853409F49AC080910C028E7F80930C02C6
:107D60000E94763C803209F0B8CE8091C00085FF39
:107D7000FCCFF092C600A0910802B09109021097C2
:107D8000C1F180910C02082F0170182F1695117007
:107D9000E0910601F0910701AF014F5F5F4FBA011B
:107DA00020E030E00023B1F4112339F49491809164
:107DB000C00085FFFCCF9093C6002F5F3F4FCB01E3
:107DC0000196FA012A173B0780F4BC014F5F5F4F11
:107DD000002351F3F999FECFF2BDE1BDF89A90B5B9
:107DE0008091C00085FFFCCFE6CF709307016093C0
:107DF00006018091C00085FDE5CE8091C00085FF21
:107E0000F8CFE0CE81E00E94C73C67CE0E94763C6E
:107E1000803209F08CCE8091C00085FFFCCFF092BB
:107E2000C6008091C00085FFFCCFE092C600809123
:107E3000C00085FFFCCFD092C6008091C00085FFB6
:107E4000FCCFC092C6008091C00085FFFCCFB092ED
:107E5000C60043CE80E10E94C73C3FCE0E94763CE4
:107E60000E94763C182F0E94763C112309F483C0AF
:107E7000113009F484C08FE00E94C73C2ECE80915F
:107E80000C02816080930C02F1CE80910C02816023
:107E900080930C0265CF809107018823880F880B9F
:107EA0008A2180930B028091060190910701880F2F
:107EB000991F90930701809306018091080280FF2B
:107EC00009C08091080290910902019690930902DD
:107ED00080930802F894F999FECF1127E0910601EA
:107EE000F0910701C8E0D1E0809108029091090269
:107EF000103091F40091570001700130D9F303E084
:107F000000935700E8950091570001700130D9F3B4
:107F100001E100935700E8950990199000915700EE
:107F200001700130D9F301E000935700E8951395F3
:107F3000103498F011270091570001700130D9F3E7
:107F400005E000935700E89500915700017001305B
:107F5000D9F301E100935700E8953296029709F0B2
:107F6000C7CF103011F00296E5CF11248091C000E8
:107F700085FFC5CEC8CE8EE10E94C73CAECD85E957
:0A7F80000E94C73CAACDF894FFCF81
:027F8A00800075
:040000030000780081
:00000001FF
