:100000000C9424020C944C020C944C020C944C0260
:100010000C944C020C944C020C9427100C944C023F
:100020000C944C020C944C020C944C020C944C0218
:100030000C944C020C944C020C944C020C944C0208
:100040000C94BE0E0C944C020C948C0E0C94660E08
:100050000C944C020C944C020C944C020C944C02E8
:100060000C94080F0C944C0250415F4D41580050C5
:10007000415F484947480050415F4C4F570050414D
:100080005F4D494E0031362062697473003820623A
:100090006974730044697361626C6564006E5246F2
:1000A00032344C30312B006E524632344C303100F9
:1000B0003235304B42505300324D42505300314D97
:1000C0004250530000000000250028002B00555529
:1000D00049442073656E736575722000424D503A35
:1000E000204572726575722C206465736163746952
:1000F00076652E0000000000240027002A005365CA
:10010000747570207465726D696E652061707265BA
:10011000732000526164696F20696E697469616C53
:10012000697365652C2065636F7574652062656110
:10013000636F6E2044484350004F75766572747546
:10014000726520726164696F005365747570207206
:100150006164696F004861726477617265206661ED
:10016000696C7572652064657465637465640020EC
:100170006E6220636F6E6669726D6174696F6E7313
:100180003A2000436F6E6669726D6174696F6E200C
:10019000747970652000416C696D656E7461746975
:1001A0006F6E2041412000416C696D656E74617411
:1001B000696F6E206C69746869756D2000416C69A7
:1001C0006D656E746174696F6E20736563746575B7
:1001D000722000444854204572726F723A00000049
:1001E00000080002010000030407000000000000F6
:1001F000000054797065206D6573736167652069CF
:100200006E636F6E6E753A200053656E736575721E
:1002100020707265742061207472616E736D6574F4
:1002200074726500416472657373652072657365ED
:10023000617520004E6F64652049442052657365E6
:100240007276653A20005265717565746520444880
:100250004350206563686563005265717565746518
:100260002044484350207472616E736D6973650059
:10027000416472657373652073657276657572206B
:100280000052656375206D65737361676520004674
:10029000696E206C65637475726520726573656143
:1002A00075004C6563747572652072657365617560
:1002B00000536C656570005472616E736D69737381
:1002C000696F6E206C656374757265732C2065723E
:1002D000726575723A2000000102030405111213C1
:1002E0001415160A0B0C0D0E0F5354415455530997
:1002F00009203D203078253032782052585F445212
:100300003D25782054585F44533D2578204D415871
:100310005F52543D25782052585F505F4E4F3D2527
:10032000782054585F46554C4C3D25780D0A0050B6
:100330004120506F77657209203D2025530D0A003A
:100340007E0077006F006800435243204C656E6763
:10035000746809203D2025530D0A0094008D008506
:10036000004D6F64656C0909203D2025530D0A007E
:10037000A7009D0044617461205261746509203DAD
:100380002025530D0A00BE00B800B00044594E505D
:10039000442F4645415455524500434F4E46494728
:1003A000090052465F53455455500052465F43483A
:1003B0000900454E5F52584144445200454E5F414A
:1003C00041090052585F50575F50302D3600545845
:1003D0005F41444452090052585F414444525F50C7
:1003E000322D350052585F414444525F50302D3118
:1003F000000D0A002530327800203078002553099E
:10040000203D000D0A002030782530327800255339
:1004100009203D00000000002300260029000404FC
:10042000040404040404020202020202030303039C
:100430000303010204081020408001020408102078
:10044000010204081020411011241FBECFEFD8E094
:10045000DEBFCDBF11E0A0E0B1E0E8E7F0E402C00C
:1004600005900D92A236B107D9F723E0A2E6B1E0DC
:1004700001C01D92A736B207E1F712E0C4E2D2E054
:1004800004C02197FE010E942520C332D107C9F77D
:100490000E94D5100C943A200C9400002091360252
:1004A00081E0213208F044C0809112028111FCCF1A
:1004B0008091350292E09093120291E090931102A4
:1004C0009FEF9093100210920F0220930E02A5E16D
:1004D000B2E0EEEEF1E090E0291331C01092ED01B0
:1004E0009091ED01880F892B8093ED018091EC01B3
:1004F000813049F51092EC018091ED018093BB00B1
:100500008091BC0083FDF8CF85EC8093BC00809186
:1005100012028230E1F3809110028F3FB1F080919E
:1005200010028032A1F080911002803391F084E0BB
:1005300010921402109236021092130208953D9107
:1005400031939F5FC9CF85EEE0CF80E0F1CF82E0AD
:10055000EFCF83E0EDCF982F809112028111FCCF75
:1005600081E080931202809311022FEF20931002FA
:1005700010920F02290F20930E028093ED018091BB
:10058000ED018E6E8093ED018091EC018130F9F4E4
:100590001092EC018091ED018093BB008091BC0032
:1005A00083FDF8CF85EC8093BC00809112028130EE
:1005B000E1F380910F02891710F490910F02AEEED3
:1005C000B1E0ECECF1E080E0891303C0089585EE22
:1005D000EACF2D9121938F5FF7CF8330910528F0DB
:1005E000880F991F04970197F1F70895FC018385FF
:1005F0000895FC0165817681878190850895FC01CD
:10060000848595850895FC018285938508950895D4
:100610000895AF92BF92CF92DF92EF92FF920F9325
:100620001F93CF93DF936C017B018B01040F151F88
:10063000EB015E01AE18BF08C017D10759F06991F0
:10064000D601ED91FC910190F081E02DC601099554
:10065000892B79F7C501DF91CF911F910F91FF9001
:10066000EF90DF90CF90BF90AF900895FC01538D35
:10067000448D252F30E0842F90E0821B930B54177C
:1006800010F0CF96089501970895FC01918D828D09
:10069000981761F0A28DAE0FBF2FB11D5D968C91A2
:1006A000928D9F5F9F73928F90E008958FEF9FEFE1
:1006B0000895FC01918D828D981731F0828DE80F9D
:1006C000F11D858D90E008958FEF9FEF0895FC0157
:1006D000918D228D892F90E0805C9F4F821B910924
:1006E0008F739927089587E392E00E94670321E0C2
:1006F000892B09F420E0822F089580E090E0892B77
:1007000029F00E94730381110C9400000895FC01EC
:10071000A48DA80FB92FB11DA35ABF4F2C91848D62
:1007200090E001968F739927848FA689B7892C93BF
:10073000A089B1898C91837080648C93938D848D12
:10074000981306C00288F389E02D80818F7D808315
:100750000895EF92FF920F931F93CF93DF93EC01D5
:1007600081E0888F9B8D8C8D98131AC0E889F98958
:10077000808185FF15C09FB7F894EE89FF8960835B
:10078000E889F98980818370806480839FBF81E0DC
:1007900090E0DF91CF911F910F91FF90EF9008951E
:1007A000F62E0B8D10E00F5F1F4F0F731127E02EF9
:1007B0008C8D8E110CC00FB607FCFACFE889F98931
:1007C000808185FFF5CFCE010E948703F1CFEB8DAD
:1007D000EC0FFD2FF11DE35AFF4FF0829FB7F89405
:1007E0000B8FEA89FB8980818062CFCF0F931F93A3
:1007F000CF93DF938C01D0E0C0E0F801EC0FFD1F38
:100800006491662341F087E392E00E94A903892B5B
:1008100011F02196F2CFCE01DF91CF911F910F9170
:100820000895CF93DF93EC01888D8823B9F0AA89CE
:10083000BB89E889F9898C9185FD03C0808186FD9B
:100840000DC00FB607FCF7CF8C9185FFF2CF8081EA
:1008500085FFEDCFCE010E948703E9CFDF91CF91D5
:10086000089590E0FC01E252FE4F2491FC01EE5C01
:10087000FB4F3491FC01E25EFB4FE491EE23C9F0A3
:10088000222339F0233001F1A8F4213019F122306C
:1008900029F1F0E0EE0FFF1FEC53FF4FA591B4914B
:1008A0008FB7F894EC91611126C030953E233C93AC
:1008B0008FBF08952730A9F02830C9F0243049F7B8
:1008C000809180008F7D03C0809180008F7780931E
:1008D0008000DFCF84B58F7784BDDBCF84B58F7D7B
:1008E000FBCF8091B0008F778093B000D2CF809102
:1008F000B0008F7DF9CF3E2BDACFCF93DF9390E01E
:10090000FC01EE5CFB4F2491825E9B4FFC018491C5
:100910008823D1F090E0880F991FFC01EC50FF4F25
:10092000A591B491FC01EC53FF4FC591D491611195
:100930000EC09FB7F8948C91E22FE0958E238C9394
:100940002881E223E8839FBFDF91CF9108958FB77D
:10095000F894EC91E22BEC938FBFF6CF3FB7F8946D
:100960008091AA019091AB01A091AC01B091AD0131
:1009700026B5A89B05C02F3F19F00196A11DB11DFA
:100980003FBFBA2FA92F982F8827BC01CD01620F36
:10099000711D811D911D43E0660F771F881F991FF0
:1009A0004A95D1F708958F929F92AF92BF92CF92BE
:1009B000DF92EF92FF926B017C010E94AE044B012B
:1009C0005C01C114D104E104F104B9F00E94AE0449
:1009D000681979098A099B09683E73408105910568
:1009E00080F321E0C21AD108E108F10888EE880EF0
:1009F00083E0981EA11CB11CE4CFFF90EF90DF9024
:100A0000CF90BF90AF909F908F9008958F929F92BC
:100A1000AF92BF92DF92EF92FF920F931F93CF930B
:100A2000DF93C82F162F90E0FC01EE5CFB4FD491B2
:100A3000FC01E25EFB4FE491F0E0EE0FFF1FEC5E85
:100A4000FB4FE590F49010925203109253031092D2
:100A50005403109255031092560361E08C2F0E94AC
:100A60007D0460E08C2F0E943104612F70E090E0E3
:100A700080E00E94D30461E08C2F0E9431048CE45A
:100A800090E00197F1F760E08C2F0E947D0488ECE4
:100A900090E0F70120812D2381F40197D1F78EEFAB
:100AA0009FEFDF91CF911F910F91FF90EF90DF901B
:100AB000BF90AF909F908F90089588EC90E0F701E1
:100AC00020812D2319F00197D1F7E9CF08E210E832
:100AD000D12C88EC90E0F70120812D2319F40197A7
:100AE000D1F7DDCF0E94AE044B015C0188EC90E0B1
:100AF000F70120812D2319F00197D1F7D0CF0E9463
:100B0000AE04681979098A099B0969327105810562
:100B1000910538F0ED2DF0E0E85BFC4F8285812BEC
:100B20008287169511F4D39410E8015091F661E094
:100B30008C2F0E947D0461E08C2F0E94310490E094
:100B400080E0AFCF2FB7F8946091A6017091A70114
:100B50008091A8019091A9012FBF089585ED809300
:100B6000BC008091BC0084FDFCCF1092120208955D
:100B700020918201260F3327331F21323105ECF4F7
:100B800020911202FC0190E080E0243069F082E0C4
:100B90000895A09182012191AC014E595E4FA40F9E
:100BA000B52FB11D2C930196861798F38091820181
:100BB000680F6093820180E0089581E008950895B0
:100BC000E091B3018091B201E81730F4F0E0E45312
:100BD000FE4F808190E008958FEF9FEF08959091F0
:100BE000B3018091B2012FEF3FEF981748F4E92F3E
:100BF000F0E0E453FE4F208130E09F5F9093B3011B
:100C0000C90108958091B2019091B301891B990B9C
:100C10000895CF92DF92EF92FF920F931F93CF939D
:100C2000DF937C01CB018A0120911302222389F0FA
:100C3000EB016B01C40ED51ECC15DD0569F0699181
:100C4000D701ED91FC910190F081E02DC70109954C
:100C5000F3CF642F0E94B805C801DF91CF911F9197
:100C60000F91FF90EF90DF90CF900895CF93DF9397
:100C70001F92CDB7DEB76983209113022223F9F0CA
:100C800020913602203258F021E030E0FC0133831D
:100C9000228390E080E00F90DF91CF9108958091C2
:100CA0001402E82FF0E0EB5EFD4F998190838F5F97
:100CB000809314028093360281E090E0ECCF61E0F3
:100CC000CE0101960E94B805F7CFCF93C82F81E0DF
:100CD0008093130287E780933502109214021092DA
:100CE000360264EF84ED92E00E9436066C2F84EDAC
:100CF00092E00E943606CF910C944E0290E080E084
:100D0000089508950895FC012081318182819381A5
:100D10002817390719F0822F0C9431040895CF93C6
:100D2000DF93EC018CB58F7D8CBD8CB5837F8CBD42
:100D30008CB58C7F8CBD8DB581608DBD8A810E9404
:100D400031048C899D89DF91CF910C94ED0261E093
:100D50000C948F0660E00C948F068EBD00000DB4DD
:100D600007FEFDCF8EB508951F93CF93DF93EC015F
:100D7000162F0E94AA06812F0E94AD06182FCE01C1
:100D80000E94A706812FDF91CF911F91089561EEF8
:100D90000C94B4060F931F93CF93DF938C01C62F4F
:100DA000D42F0E94AA068C2F8F7180620E94AD06FC
:100DB000C82F8D2F0E94AD06C8010E94A7068C2F58
:100DC000DF91CF911F910F910895CF92DF92EF9213
:100DD000FF920F931F93CF93DF93EC016B011F8161
:100DE000012F113208F000E28885101B811110E0FC
:100DF000CE010E94AA0680EA0E94AD06760101504B
:100E000030F0F70181917F010E94AD06F8CF1150BB
:100E100020F080E00E94AD06FACFCE010E94A70626
:100E200061E0CE010E9483060E94A2056B017C0155
:100E30006FEFCE010E94B4068073B9F40E94A20540
:100E40006C197D098E099F09603671058105910530
:100E500078F381E08F8780E0DF91CF911F910F9130
:100E6000FF90EF90DF90CF90089560E0CE010E9458
:100E7000830640E767E0CE010E94CA0684FF04C0F3
:100E8000CE010E94C706E7CF81E0E6CFCF92DF9286
:100E9000EF92FF920F931F93CF93DF937C01C62FA6
:100EA0006A01122F0E94AA068C2F8F7180620E9405
:100EB000AD06082FE601115020F089910E94AD0681
:100EC000FACFC7010E94A706802FDF91CF911F9113
:100ED0000F91FF90EF90DF90CF9008951F93CF93E5
:100EE000DF93EC01162F0E94AA06812F8F710E94BA
:100EF000AD068FEF0E94AD06182FCE010E94A70607
:100F0000812FDF91CF911F9108950F931F93CF935E
:100F10008C0166E082E293E00E946E07C82FC77DD5
:100F200085E590E0A0E0B0E00230110529F4C06250
:100F30008BE990E0A0E0B0E080933203909333031C
:100F4000A0933403B09335034C2F66E082E293E024
:100F50000E94CA0666E082E293E00E946E0791E07A
:100F6000C81390E0892FCF911F910F910895CF93CF
:100F7000DF93C82FAB01813059F5E4EEF2E06491C4
:100F80002091300382E293E00E944607D0E0FE0108
:100F9000E352FD4F64914091290382E293E00E9465
:100FA000CA0662E082E293E00E946E07FE01E95207
:100FB000FD4FE49141E050E001C0440FEA95EAF7AB
:100FC000482B62E082E293E0DF91CF910C94CA0655
:100FD000E5EEF2E0649121E0D5CFCF93DF93EC0111
:100FE00060E00E946E0781FD0EC0482F426060E005
:100FF000CE010E94CA0665E070E080E090E0DF91DB
:10100000CF910C94D304DF91CF910895CF93DF93C8
:10101000EC0160E00E948306888999890E94ED02B4
:101020006DE1CE010E946E0781FF07C08889998912
:101030000E94ED02CE010E94C70660E0CE010E9430
:101040006E07482F4E7F60E0CE010E94CA0662E024
:10105000CE010E946E07E7EDF2E0E49141E050E03E
:1010600001C0440FEA95EAF7482B62E0CE01DF9118
:10107000CF910C94CA06CF93DF93EC010E94ED0749
:1010800060E0CE010E946E07482F416060E0CE0113
:101090000E94CA0640E767E0CE010E94CA0661E0EE
:1010A000CE010E9483068985882399F02E85AE01A2
:1010B000475F5F4F6AE0CE010E9446076DE1CE01B7
:1010C0000E946E0781FF1AC0CE01DF91CF910C9470
:1010D000C70662E0CE010E946E07E7EDF2E0E49100
:1010E00021E030E001C0220FEA95EAF72095422F77
:1010F000482362E0CE010E94CA06E0CFDF91CF9183
:101100000895CF93DF9380910003909101030E9493
:101110000608D9EC8091000390910103D15089F029
:1011200062E073E00E94E506C82F882399F380915E
:101130000003909101030E943B088C2FDF91CF9117
:101140000895C0E0F4CFCF93C82F682F87E392E0D3
:101150000E94A9038C2FCC0F990BCF910895FC010D
:1011600021893289232B81F420E030E040E251E4F0
:1011700062817381848195810E94A81F0E94C01E94
:10118000CB01693E734010F08FEF90E00895CF934C
:10119000DF93EC0189899A8960E070E8892B61F41A
:1011A00020E030E040E251E46E817F8188859985BE
:1011B0000E94A81F0E94C01ECB018C509E4F893EEA
:1011C0009340B8F48B899C89811520E8920759F0E7
:1011D000861B970B97FF03C0919581959109C39743
:1011E00014F060E070E87C8B6B8BCB01DF91CF91CA
:1011F000089560E070E8F9CFFC018285833091F4B6
:101200004581568167817085483B8BE058076105B1
:101210007105D8F081E04C3A5D4061057105A0F0A0
:1012200080E012C08230E1F7458156816781708588
:10123000443B9AE059076105710530F081E0473D74
:101240005A406105710560F7089582E00895FC0138
:1012500001900020E9F73197AF01481B590BBC0101
:1012600087E392E00C94090386E591E00C9427094A
:10127000CF93DF930E94F603EC010E9434098C0F98
:101280009D1FDF91CF9108958F929F92AF92BF9251
:101290000F931F93CF93DF93CDB7DEB7A1970FB610
:1012A000F894DEBF0FBECDBF19A2423008F44AE069
:1012B0008E010F5D1F4F842E912CB12CA12CA50106
:1012C00094010E94181EE62FB901CA01EA30F4F415
:1012D000E05DD801EE938D01232B242B252B79F78C
:1012E00090E080E0109719F0CD010E942709A196A7
:1012F0000FB6F894DEBF0FBECDBFDF91CF911F9127
:101300000F91BF90AF909F908F900895E95CE1CFCF
:10131000FF920F931F93CF93DF93C62FD42F9F93EA
:101320008F938EE094E09F938F930E94BC19DC0F03
:101330000F900F900F900F9006E014E0CD17A1F0E2
:10134000FF24F394FC0E6C2F82E293E00E946E0760
:101350001F928F931F930F930E94BC190F900F90B1
:101360000F900F90CF2DEACF83E094E09F938F935F
:101370000E94BC190F900F90DF91CF911F910F9198
:10138000FF9008952F923F924F925F926F927F92BB
:101390008F929F92AF92BF92CF92DF92EF92FF9285
:1013A0000F931F93CF93DF931F92CDB7DEB7962E87
:1013B000342E4DB65EB69F938F938DEF93E09F933F
:1013C0008F930E94BC19390C0F900F900F900F90C3
:1013D00089EFC82E83E0D82E94EFA92E93E0B92E82
:1013E000931409F44EC06DB67EB620903003022DE2
:1013F00010E08DB79EB7801B910B0FB6F8949EBF7F
:101400000FBE8DBFEDB7FEB731967F01F1E0F90D4C
:10141000F98382E293E00E94AA06892D8F710E94CF
:10142000AD0647012A948FEF281631F00E94AD06D1
:10143000F40181934F01F6CF82E293E00E94A70668
:10144000DF92CF920E94BC190E0D1F1D0F900F90BE
:10145000015011090E151F0568F0F80180811F92D7
:101460008F93BF92AF920E94BC190F900F900F9074
:101470000F90EECF0FB6F8947EBE0FBE6DBE998072
:10148000AFCF81EF93E09F938F930E94BC190F9091
:101490000F900FB6F8945EBE0FBE4DBE0F90DF9159
:1014A000CF911F910F91FF90EF90DF90CF90BF9061
:1014B000AF909F908F907F906F905F904F903F90F4
:1014C0002F900895CF936FEF82E293E00E94B406CD
:1014D000282F30E0982F91701F929F93A901559566
:1014E0004795477055275F934F9384FB992790F951
:1014F0001F929F9385FB992790F91F929F9386FBDC
:10150000222720F91F922F931F928F9389EE92E04A
:101510009F938F930E94BC1942E06AE084EE93E0AF
:101520000E94C20944E06CE087ED93E00E948809C4
:1015300041E060E18EEC93E00E94C20946E061E187
:1015400083EC93E00E94880941E061E08CEB93E03A
:101550000E94880941E062E082EB93E00E948809E2
:1015600041E065E08BEA93E00E94880941E066E093
:1015700082EA93E00E94880941E060E08AE993E012
:101580000E94880942E06CE18CE893E00E9488099F
:1015900066E082E293E00E946E0788722DB73EB744
:1015A000225F3F4F0FB6F8943EBF0FBE2DBFE2E063
:1015B000F0E0803239F021E090E0883009F020E05E
:1015C000E22FF92FEE0FFF1FEA57FC4F8591949100
:1015D0009F938F9384E793E09F938F930E94BC190E
:1015E000E0912803F0E0EE0FFF1FE059FC4F8591DA
:1015F00094919F938F9381E693E09F938F930E94A2
:10160000BC1960E082E293E00E946E07C82F61E09F
:1016100082E293E00E946E072DB73EB7285F3F4FEE
:101620000FB6F8943EBF0FBE2DBFC3FD04C0F0E05F
:10163000E0E0882331F0E2E0F0E0C2FD02C0E1E04A
:10164000F0E0EE0FFF1FE55AFC4F859194919F93B8
:101650008F9388E493E09F938F930E94BC1966E078
:1016600082E293E00E946E07E82FF0E0F595E7959F
:10167000E370F0E0EE0FFF1FE05CFC4F859194916A
:101680009F938F938FE293E09F938F930E94BC1957
:101690008DB79EB708960FB6F8949EBF0FBE8DBF4C
:1016A000CF910895CF93C82F803120F489E591E040
:1016B0000E9427096C2F70E090E080E040E1CF911C
:1016C0000C9444091F93CF93DF93EB0191E0909327
:1016D000130297E79093350210921402109236028B
:1016E000682F84ED92E00E9436060E944E0282E04E
:1016F0000E94AB021092B3018093B20184ED92E09C
:101700000E94EF05182F84ED92E00E94EF0520E083
:10171000822B912B99838883DF91CF911F910C9419
:101720004E020F931F93CF93DF9300D0CDB7DEB758
:101730008C018EE20E94650665E070E080E090E03A
:101740000E94D304BE016F5F7F4F86EF0E94620B41
:1017500089819A81B0E0A0E0F80180839183A2831F
:10176000B3830F900F90DF91CF911F910F91089548
:101770000F931F93CF93DF9300D0CDB7DEB78B01CC
:10178000BE016F5F7F4F0E94620B89819A81F801D1
:10179000918380830F900F90DF91CF911F910F91D4
:1017A0000895CF93DF93EB0191E09093130297E7B5
:1017B000909335021092140210923602682F84ED35
:1017C00092E00E9436060E944E0281E00E94AB0227
:1017D0001092B3018093B20184ED92E00E94EF0574
:1017E0008883DF91CF910C944E022F923F924F92BB
:1017F0005F926F927F928F929F92AF92BF92CF92A1
:10180000DF92EF92FF921F93CF93DF93CDB7DEB7B6
:101810002B970FB6F894DEBF0FBECDBF1B01198208
:101820001A821B821C82CE0101960E94910B10919C
:10183000B401812F8295880F880F807C8C5C0E9478
:10184000650668E070E080E090E0113081F065E0CE
:1018500070E080E090E0113050F06EE070E080E0E9
:1018600090E0123021F06AE170E080E090E00E94A8
:10187000D304BE016B5F7F4F86EF0E94620B8D80A9
:101880009E80B12CA12CBA2CA92C982C8824BE01A6
:10189000695F7F4F88EF0E94D10B8F81880E911C6A
:1018A000A11CB11C8091C0019091C10129813A8194
:1018B0004B815C81281B390B41095109A091BE0164
:1018C000B091BF010E94CE1D2B013C01AFE0759489
:1018D000679457944794AA95D1F76091C801709185
:1018E000C901072E000C880B990BBBE0660F771F10
:1018F000881F991FBA95D1F72091CA013091CB0169
:10190000032E000C440B550B240D351D461D571D91
:101910000E94AF1D420E531E641E751E20EA421A1D
:101920002FE0520A61087108A3019201C301B201BC
:101930000E9415206B017C018CE0F594E794D7940C
:10194000C7948A95D1F7A091BA01B091BB010E94CA
:10195000D91D9B01AC019DE055954795379527957D
:101960009A95D1F7288739874A875B87A091C2016A
:10197000B091C301A70196010E94D91D9C01552772
:1019800037FD5095452F88859985AA85BB85280FF9
:10199000391F4A1F5B1F2E5F3F4F4F4F5F4F62E063
:1019A00055954795379527956A95D1F730584F4FFC
:1019B0005F4FA091BC01B091BD010E94CE1D9B0163
:1019C000AC017FE056954795379527957A95D1F7E5
:1019D000288739874A875B8788E090E0811B9109D7
:1019E00004C0B594A794979487948A95D2F7A09150
:1019F000C401B091C501A70196010E94D91D6B01D8
:101A00007C01EBE0F594E794D794C794EA95D1F77D
:101A1000A091B801B091B901A30192010E94D91D12
:101A2000FBE09595879577956795FA95D1F7C60E62
:101A3000D71EE81EF91E8091B6019091B701092EBC
:101A4000000CAA0BBB0B22E0880F991FAA1FBB1F1B
:101A50002A95D1F78C0D9D1DAE1DBF1D6C017D011A
:101A6000012E04C0CC0CDD1CEE1CFF1C0A94D2F726
:101A700032E0C30ED11CE11CF11C32E0F594E79476
:101A8000D794C7943A95D1F7A50194012C193D0933
:101A90004E095F0960E573EC80E090E004C0959525
:101AA0008795779567951A95D2F70E94152097FD2F
:101AB00061C0660F771F881F991F288539854A8561
:101AC0005B850E94181E69017A019927F7FC9A9597
:101AD0008F2D7E2D6D2D9B01AC010E9415209B0149
:101AE000AC01AEEDBBE00E94CE1D4B015C01A3E456
:101AF000B3EEA70196010E94DC1DBC01992777FD7A
:101B00009095892F4501BB2497FCB094AB2C680DB0
:101B1000791D8A1D9B1D6153714F8F4F9F4F44E06C
:101B200095958795779567954A95D1F76C0D7D1DAD
:101B30008E1D9F1D0E94F81ED1016D937D938D9384
:101B40009C9313972B960FB6F894DEBF0FBECDBFB4
:101B5000DF91CF911F91FF90EF90DF90CF90BF90DA
:101B6000AF909F908F907F906F905F904F903F903D
:101B70002F900895288539854A855B850E94181E17
:101B800069017A01CC0CDD1CEE1CFF1C9ECF0C946D
:101B9000731C0F931F93CF93DF9300D000D0CDB76A
:101BA000DEB78B01FB01349620E2DF011D922A95FE
:101BB000E9F744E250E060E070E0F80140835183CF
:101BC00062837383DC0113964D915D916D917C91DD
:101BD0001697448355836683778346E050E060E040
:101BE00070E04087518762877387108A118A128A52
:101BF000138ABE016F5F7F4F0E94F50B20E030E03B
:101C000048EC52E469817A818B819C810E944E1E4E
:101C1000D80154966D937D938D939C93579781E053
:101C20000F900F900F900F90DF91CF911F910F9118
:101C300008950F931F93CF93DF938C01EB0188E2FC
:101C4000FB0111928A95E9F74BE050E06BE571E0FA
:101C5000CE010E942B201B8681E090E0A0E0B0E046
:101C60008C879D87AE87BF87F80183819481A5818A
:101C7000B681888B998BAA8BBB8B86E090E0A0E025
:101C8000B0E08C8B9D8BAE8BBF8B1CA21DA21EA2C5
:101C90001FA280E090E8A9E8B4E4888F998FAA8F0A
:101CA000BB8F80E090E0A6E9B3E48C8F9D8FAE8F70
:101CB000BF8F8AE097EDA3E2BCE388A399A3AAA310
:101CC000BBA3DF91CF911F910F9108951F920F92A7
:101CD0000FB60F9211242F933F934F935F936F93FF
:101CE0007F938F939F93AF93BF93EF93FF9387E37C
:101CF00092E00E948703FF91EF91BF91AF919F9176
:101D00008F917F916F915F914F913F912F910F90A4
:101D10000FBE0F901F9018951F920F920FB60F9243
:101D200011242F938F939F93EF93FF93E09147029A
:101D3000F09148028081E0914D02F0914E0282FDC7
:101D40001BC09081809150028F5F8F732091510250
:101D5000821741F0E0915002F0E0E95CFD4F958F71
:101D600080935002FF91EF919F918F912F910F904F
:101D70000FBE0F901F9018958081F4CF1F920F9285
:101D80000FB60F9211242F933F938F939F93AF938E
:101D9000BF938091A6019091A701A091A801B09155
:101DA000A9013091A50126E0230F2D3758F50296A1
:101DB000A11DB11D2093A5018093A6019093A701B9
:101DC000A093A801B093A9018091AA019091AB01C1
:101DD000A091AC01B091AD010196A11DB11D809300
:101DE000AA019093AB01A093AC01B093AD01BF9158
:101DF000AF919F918F913F912F910F900FBE0F90B8
:101E00001F90189529E8230F0396A11DB11DD2CF6D
:101E10001F920F920FB60F9211242F933F934F935F
:101E20005F936F937F938F939F93AF93BF93EF9342
:101E3000FF938091B900887F803609F44AC0F0F59D
:101E4000883209F4A7C018F5803109F49BC0B8F4B2
:101E5000882309F4F9C0883009F494C0FF91EF9108
:101E6000BF91AF919F918F917F916F915F914F91B2
:101E70003F912F910F900FBE0F901F9018958831B2
:101E800009F488C0803251F78093100214C0803466
:101E900009F49DC040F48033B9F38833F9F6809398
:101EA000100285ECB0C0803509F485C0883509F48E
:101EB00096C0883499F60E94AE05D0CF883909F4CF
:101EC0008CC038F5883729F050F4883611F0803707
:101ED00029F683E0809312021092A40157C088383B
:101EE00009F47BC0803919F0803809F0B7CF8091B0
:101EF000A401803208F071C0E091A40181E08E0F4E
:101F00008093A4018091BB00F0E0EC57FE4F8083EA
:101F10003DC0803B39F0E0F4803A09F479C0883A5A
:101F200009F09CCF84E080931202109283011092FA
:101F30008201E091B001F091B10109958091820197
:101F400081110FC081E0809382011092620109C06B
:101F5000803C09F4A6CF883C09F4A3CF883B09F064
:101F60007DCFE091830181E08E0F80938301F0E0CB
:101F7000EE59FE4F80818093BB0090918301809148
:101F8000820129C08091ED018093BB0085EC809394
:101F9000BC0064CF90910F0280910E02981758F503
:101FA000E0910F0281E08E0F80930F02F0E0E2518A
:101FB000FE4F8081E9CFE0910F0281E08E0F809388
:101FC0000F028091BB00F0E0E251FE4F80839091C0
:101FD0000F0280910E029817C8F285E8D8CFE091E1
:101FE0000F0281E08E0F80930F028091BB00F0E022
:101FF000E251FE4F80838091110281115CCF81E01C
:102000008093EC0184EA8093BC001092120226CFE8
:1020100085EC8093BC00109212028091A401803262
:1020200030F4E091A401F0E0EC57FE4F1082609193
:10203000A40170E0E091AE01F091AF0184E891E07D
:1020400009951092A4010ACF1092100234CF1F926A
:102050000F920FB60F9211248F939F9380910001DE
:1020600090910101892B31F481E090E0909301017E
:10207000809300019F918F910F900FBE0F901F9042
:102080001895E7E3F2E01382128288EE93E0A0E075
:10209000B0E084839583A683B7832EE031E031835B
:1020A000208325EC30E03587248724EC30E0378727
:1020B000268720EC30E0318B208B21EC30E0338B15
:1020C000228B22EC30E0358B248B26EC30E0378BF2
:1020D000268B118E128E138E148EE4EDF2E0138295
:1020E000128284839583A683B78380E291E09183F3
:1020F0008083E8E4F3E082E591E0918380838EEFD2
:102100009FEF928B818B80E090E8948B838B84E0AF
:10211000878786E1808BEAE3F3E08AE491E09183AC
:1021200080838CE391E09383828385E697E2A0E04D
:10213000B0E085839683A783B0871186E2E2F3E05F
:1021400087E090E09183808388E090E093838283AE
:10215000168280E28783108685E0868745E050E01E
:1021600060E070E0448B558B668B778B1186ACEF0B
:10217000B2E02CEE32E011963C932E9323E031E056
:1021800013963C932E9312971596FC93EE93149707
:10219000E0EEF2E022E331E0318320831282138209
:1021A00084831186128613860895CF93DF93CDB76B
:1021B000DEB7E8970FB6F894DEBF0FBECDBF7894B8
:1021C00084B5826084BD84B5816084BD85B582603C
:1021D00085BD85B5816085BD80916E0081608093ED
:1021E0006E00109281008091810082608093810056
:1021F0008091810081608093810080918000816066
:10220000809380008091B10084608093B1008091C0
:10221000B00081608093B00080917A0084608093E8
:102220007A0080917A00826080937A0080917A00AF
:102230008E7F80937A0080917A00806880937A0004
:102240001092C10061E086E00E947D0461E086E0BA
:102250000E943104E0914702F091480282E08083BD
:10226000E0914302F09144021082E0914502F09126
:10227000460288E0808310924F02E0914B02F09179
:102280004C0286E08083E0914902F0914A0280810D
:1022900080618083E0914902F0914A0280818860E8
:1022A0008083E0914902F0914A02808180688083B6
:1022B000E0914902F0914A0280818F7D808370E035
:1022C00060E083EA98E00E9471198CEEE82E82E0CB
:1022D000F82E67010FE010E0C8010E94A71DD6018B
:1022E0008D936D010F5F1F4F0F311105A9F78EEC14
:1022F00090E00E94F6030CEF12E0F70181917F015C
:102300000E94520B0E151F05C1F70E94340910924E
:10231000B3011092B2011092140210923602109280
:10232000120211E0109311021092EC0161E082E1BF
:102330000E94310461E083E10E9431048091B90080
:102340008E7F8093B9008091B9008D7F8093B90012
:1023500080E28093B80085E48093BC0087E093E03E
:102360009093B1018093B00188E093E09093AF0126
:102370008093AE01BE016F5F7F4F80ED0E94D10B55
:102380008981853509F463C2109243038CED90E096
:102390000E94380980910301823070F481E08093BB
:1023A000030180E0ECEEF2E0803131F0919199236D
:1023B00009F48AC29093030189E491E00E943809EC
:1023C00080912203909123032091240330912503CF
:1023D0008217930719F061E00E947D048091240325
:1023E0009091250320912203309123032817390768
:1023F00019F061E00E947D041FB7F8948091B50147
:10240000811127C0E8E2F4E08491ECE3F4E09491D8
:10241000E82FF0E0EE0FFF1FEC50FF4FA591B491B5
:10242000EC91E92321F461E08AE00E94310461E04B
:102430008AE00E947D048CB580618CBD8CB580647F
:102440008CBD61E08DE00E947D0461E08BE00E9424
:102450007D048091B5018F5F8093B5011FBF60E05F
:1024600082E293E00E94830661E082E293E00E94B0
:102470008F0665E070E080E090E00E94D3044CE0BD
:1024800060E082E293E00E94CA064FE564E082E2E7
:1024900093E00E94CA0682E090E00E9485078823AC
:1024A00019F081E08093280366E082E293E00E94C5
:1024B0006E0790E080E00E94850782E293E00E9430
:1024C000AA0680E50E94AD0683E70E94AD0682E27F
:1024D00093E00E94A70640E06DE182E293E00E9453
:1024E000CA0640E06CE182E293E00E94CA061092C4
:1024F0002A0340E767E082E293E00E94CA064CE4C8
:1025000065E082E293E00E94CA0662EE82E293E016
:102510000E94B40682E293E00E94C70682E293E042
:102520000E94ED0760E082E293E00E946E07482F70
:102530004E7F60E082E293E00E94CA0644E265E0DA
:1025400082E293E00E94CA064FE361E082E293E0F8
:102550000E94CA0641EF64E082E293E00E94CA064C
:1025600082E090E00E94850760E082E293E00E94B2
:102570006E07482F4C6060E082E293E00E94CA063A
:1025800066E082E293E00E946E07887F482F4360F6
:1025900066E082E293E00E94CA068BE88DA384E5A0
:1025A0008EA382E98FA38EE088A789E289A71AA665
:1025B0001BA61CA6E4EEF2E0649120913003AE016C
:1025C0004B5D5F4F82E293E00E944607EEEDF2E042
:1025D00064914091290382E293E00E94CA0662E07E
:1025E00082E293E00E946E07E8EDF2E0E49141E0C0
:1025F00050E001C0440FEA95EAF7482B62E082E21E
:1026000093E00E94CA0689E391E00E94F6030E94CB
:10261000620A82E293E00E943B0883E191E00E941B
:10262000380984B7877F84BF809160008861809378
:10263000600081E2809360008091600080648093FC
:10264000600060E086E00E94310468EC70E080E0A9
:1026500090E00E94D30461E086E00E9431048EEF96
:1026600090E00E94F6030E94A2054AE00E944409FD
:102670000E94340921E030E02C0F3D1F205E3F4FC7
:1026800038AF2FAB412CB0EC5B2EB9E76B2EB4EC1E
:102690007B2E80913103882331F085E591E00E9403
:1026A0003809109231038EE480937C0062E070E080
:1026B00080E090E00E94D30480917A00806480934F
:1026C0007A0080917A0086FDFCCF8091780020917D
:1026D0007900322F282F032E000C440B550B64EB8E
:1026E0007BE281E190E00E94AF1D922FE32F742FD7
:1026F000652F8091E202882311F18E3008F08E5010
:102700008770806480937C0080917A0080648093DD
:102710007A0080917A0086FDFCCF80917800A091AC
:102720007900BA2FA82F292F3E2F472F562F0E940E
:10273000D91D2FEF33E040E050E00E94AF1D209301
:10274000E5023093E6024093E7025093E80280915D
:10275000E902853038F5DA01C9018E549C40A1099F
:10276000B10984319140A105B10508F0AFC08DEBEE
:1027700091E00E94F60311E06091E5027091E6029B
:102780008091E7029091E8024AE00E9444090E9489
:1027900034098091EA028111AAC01093EA0281E013
:1027A0008093E9028091EA02813009F40EC18330FE
:1027B00009F0F4C08091E5029091E602A091E70251
:1027C000B091E8028936E0E19E07A105B10508F065
:1027D000FCC08F36FFE09F07A105B10508F4ACC02F
:1027E0009C01AD012E563F4041095109A4E1B0E0E2
:1027F0000E94CE1D2AEF30E040E050E00E94AF1D65
:10280000205B3F4F4F4F5F4F253631054105510546
:1028100008F0E4C02093EB02F0900201F11093C2A3
:10282000A5E0DA2E04E010E065E070E080E090E0E2
:102830000E94D304809158038B3009F4D3C08631B1
:1028400009F41EC310925A0310925903E7C083E0A3
:102850008093B40166EB71E08AEA0E94B80B68EBE2
:1028600071E08CEA0E94B80B6AEB71E08EEA0E947C
:10287000B80B6CEB71E080EB0E94620B6EEB71E0C9
:1028800082EB0E94620B60EC71E084EB0E94620BB1
:1028900062EC71E086EB0E94B80B64EC71E088EBAF
:1028A0000E94B80B66EC71E08AEB0E94B80B68ECF2
:1028B00071E08CEB0E94B80B6AEC71E08EEB0E9429
:1028C000B80B1093430366CD8F5F6ECD22363D402B
:1028D0004105510530F087EA91E00E94F60313E0CC
:1028E0004BCF86E991E00E94F60312E045CF8113B9
:1028F00020C08091E9028F5F8093E90283E891E034
:102900000E94F6036091EA0270E090E080E04AE005
:102910000E9444098FE691E00E94F6036091E9026B
:1029200070E090E080E04AE00E9444090E9434098F
:1029300039CF1092EA0236CF81312EE09207A105FD
:10294000B105A8F09C01AD0120513E40410951095B
:10295000ACE3B0E00E94CE1D2EE531E040E050E057
:102960000E94AF1D2C5E3F4F4F4F5F4F4DCF8D38B4
:102970003AE09307A105B10568F19C01AD012C581F
:102980003A4041095109A4E1B0E00E94CE1D24E87B
:1029900033E040E050E00E94AF1D36CF8230D1F4EA
:1029A0002091E5023091E6024091E7025091E80261
:1029B0002C583A4041095109A4E6B0E00E94CE1DCE
:1029C00022EC31E040E050E0E6CF24E630E040E0A9
:1029D00050E01ACF20E030E0A90116CF85E68093C1
:1029E000EB021ACF62E1809157030E94060500971F
:1029F00009F41CC240924A0350924B0360924C036C
:102A000070924D0340924E0350924F0360925003D8
:102A10007092510390935A03809359038091590304
:102A200090915A03892BC9F0DA9483ED91E00E94CA
:102A3000F603B8016D197109072E000C880B990B6C
:102A40004AE00E9444090E94340968EE73E080E085
:102A500090E00E94D304D110E7CE809143038823F5
:102A600009F46DC2BE016F5F7F4F8CE393E00E945B
:102A7000C90D20E030E0A9016D897E898F89988D8C
:102A80000E94491E882309F453C2CE018D960E94EC
:102A9000910B8091C0019091C1012DA53EA54FA53C
:102AA00058A9281B390B41095109A091BE01B091C9
:102AB000BF010E94CE1D4B015C016FE0B594A7944D
:102AC000979487946A95D1F76091C8017091C90174
:102AD000072E000C880B990BEBE0660F771F881F01
:102AE000991FEA95D1F72091CA013091CB01032EAD
:102AF000000C440B550B280D391D4A1D5B1D0E940F
:102B0000AF1DCA01B901680D791D8A1D9B1D685F43
:102B10007F4F8F4F9F4FF4E09595879577956795F9
:102B2000FA95D1F70E94F81E20E030E040E251E42F
:102B30000E944E1E20E030E040E251E40E94A81FB7
:102B40000E94C01E709345036093440320E030E070
:102B5000A9016D897E898F89988D0E94491E8823DD
:102B600009F4F3C1BE01635D7F4F8CE393E00E94E3
:102B7000F50B20E030E040E251E46DA57EA58FA585
:102B800098A90E944E1E0E94C01E70934703609336
:102B9000460388E080930203E091FE02F091FF0279
:102BA000808180930303109205031092040381E057
:102BB00091E0909307038093060384E090E0909364
:102BC000090380930803E091FC02F091FD0280E18B
:102BD000AAE0B3E001900D928A95E1F7809100039D
:102BE000909101030E94060809EC809100039091E6
:102BF0000103015009F4B0C162E073E00E94E506F0
:102C0000182F882391F380910003909101030E9473
:102C10003B08112309F488C088E493E00E94C708A8
:102C20008C0188E493E00E94AF0858E0E52EE09222
:102C30000203E091FE02F091FF0220812093030342
:102C400022E031E0309305032093040341E050E09B
:102C5000509307034093060310930903009308035E
:102C600090930B0380930A030E948108882309F440
:102C70005BC02091440330914503809146039091BD
:102C80004703E0920203E091FE02F091FF024081CF
:102C90004093030343E051E0509305034093040342
:102CA00042E050E05093070340930603309309033A
:102CB0002093080390930B0380930A030E948108DA
:102CC000882391F18090E5029090E602A090E702BF
:102CD000B090E8021091EB0280EE92E00E94FC08B6
:102CE000E0920203E091FE02F091FF029081909346
:102CF000030324E031E0309305032093040323E031
:102D000030E03093070320930603809208039092EB
:102D10000903A0920A03B0920B0310930C03809353
:102D20000D030E948108F82E87EB92E00E94F603C3
:102D300061E0F6266F2D70E090E080E04AE00E94AE
:102D400044090E9434090E94A2054B015C01809154
:102D5000EA0230E4E32E3CE9F32E813059F0809111
:102D6000020144E6E42EF12C882321F020E2E22E39
:102D70002EE4F22E82EA92E00E9438091AAA00E0BC
:102D800018ECC701B0E0A0E08BAB9CABADABBEAB29
:102D90000E94A205681979098A099B092BA93CA9F7
:102DA0004DA95EA9621773078407950708F03BC217
:102DB000043009F4D3C00F5FE12EF12C61E086E00E
:102DC0000E947D04E114F10409F0D9C060E086E0BE
:102DD0000E94310467E182E293E00E946E0780FD69
:102DE000D7CF8091290390E2292E803208F4282E33
:102DF00090912A03382E32189111312C82E293E0FF
:102E00000E94AA0681E60E94AD069E012F5F3F4FF9
:102E1000790169012A945FEF251609F4F9C08FEF53
:102E20000E94AD06D6018D936D01F4CFE090520360
:102E30006E2D70E090E080E00E94F61E60934A03E1
:102E400070934B0380934C0390934D03C0905403B5
:102E50006C2D70E090E080E00E94F61E60934E03BF
:102E600070934F038093500390935103EC0C81E0D7
:102E700090E020915603E21257C090E080E054C0E9
:102E800061E0809157030E940605009709F0B2CDDA
:102E9000E0905303A090520360915203709153034A
:102EA00076276727762790E080E00E94F61E2DECBB
:102EB0003CEC4CEC5DE30E94A81F60934A037093C6
:102EC0004B0380934C0390934D03B0905503C090F7
:102ED00054036C2D6F77762F6B2D90E080E00E946D
:102EE000F61E2DEC3CEC4CEC5DE30E94A81F6093B9
:102EF0004E0370934F038093500390935103C7FE8A
:102F000009C0905860934E0370934F038093500311
:102F100090935103EA0CBE0CCB0C81E090E0209121
:102F20005603C21609F4A9CF91958195910972CDE6
:102F300080E090E8909345038093440307CE80E0BF
:102F400090E890934503809344038FEF90E0909333
:102F50004703809346031DCE10E055CE3AA9332394
:102F600039F01F5F143131F0143B39F005E024CF04
:102F70001150F8CF41E04AABF9CF1AAAF7CF5FEF73
:102F8000E516F10411F461E022CFE4EEF1E0849162
:102F9000833021F148F48130B9F08230D1F0F0E88B
:102FA000EF16F10484F712CF873011F1883041F128
:102FB0008430A9F780918000806280938000F09235
:102FC0008B00E0928A0006CF84B5806884BD17BD6F
:102FD00001CF84B5806284BD18BDFCCE8091800095
:102FE000806880938000F0928900E0928800F2CEA1
:102FF0008091B00080688093B0001093B300EACE57
:103000008091B00080628093B0001093B400E2CE53
:103010003A94BFEF3B1621F08FEF0E94AD06F8CF38
:1030200082E293E00E94A70640E767E082E293E035
:103030000E94CA0681E892E00E94F603F70181919E
:103040007F010E94520B2FA938AD2E153F05B1F715
:1030500088E591E00E9427090E943409E98038E060
:10306000E312B8CEFA8042E0F41609F47BC053E0D4
:10307000F512CBC080910201882309F4ABCE1DA6C6
:103080001EA68C818FA78D8188AB8E8189AB80E74E
:1030900092E00E94F60388E591E00E9427090E94D1
:1030A000340920913003AE01435D5F4F6AE082E254
:1030B00093E00E94460720913003AE01435D5F4FCD
:1030C00060E182E293E00E9446074091290361E1BA
:1030D00082E293E00E94CA060E94620A82E293E0C2
:1030E0000E940608E09202031092030381E090E040
:1030F0009093050380930403E091FC02F091FD029C
:1031000080E1A6E0B3E001900D928A95E1F780910D
:103110000003909101030E94060889ECE82E80913B
:10312000000390910103EA94EE20D1F062E073E095
:103130000E94E506F82E882391F380910003909178
:1031400001030E943B0882E293E00E943B0889E56C
:1031500092E0F11002C086E492E00E9438093ACE73
:10316000F12CEBCF85E0FE013496DE019D960190B7
:103170000D928A95E1F7FDA484E392E00E94F603A4
:103180006F2D70E090E080E04AE00E9444090E94C8
:103190003409FF2009F41ECEF092030110920201BF
:1031A00084E292E00E94F6038E01035D1F4F7E01D0
:1031B00092E3E90EF11C6801D8018D918D010E9406
:1031C000520B0E151F05C1F70E9434090E943409E5
:1031D000B60181E00E94B7078FEF8DA7B60182E0AC
:1031E0000E94B7070E94620A89E092E00E943809B3
:1031F00080E090E0892B09F44CCA0E947303882375
:1032000009F447CA0E94000044CA82EF91E00E947C
:10321000F6036F2D70E090E080E04AE00E944409E0
:103220000E943409D7CD8FE892E00E94380961E00E
:1032300086E00E9431048091EA028130C9F281EB7C
:1032400092E00E94380964E170E080E090E00E9422
:10325000D30460E082E293E00E94830660E082E2B1
:1032600093E00E946E07482F4D7F60E082E293E07A
:103270000E94CA0660E086E00E94310483B7817F25
:10328000846083BF8091E30291E0980F9093E30202
:103290009091E402891750F483B7816083BF83B7AC
:1032A000816083BF889583B78E7FEBCF83B78E7F96
:1032B00083BF809164008071809364001092E30268
:1032C00061E086E00E94310482E293E00E94ED0713
:1032D00082E293E00E943B081092010110920001EB
:1032E00087CF0F931F93CF93DF93009759F4611506
:1032F000710541F4F0E0E0E0CF01DF91CF911F9143
:103300000F9108958B01EC016EE070E081E090E098
:103310000E94BB1BFC01892B69F380E883830115A4
:10332000110571F01387028781E8838380915D0323
:1033300090915E03892B21F4F0935E03E0935D038B
:103340002097D1F2D187C087838182608383809167
:103350005F0390916003892B79F6F0936003E0930B
:103360005F038091610390916203892B29F6F093AA
:103370006203E0936103C0CFB0E0A0E0E2ECF9E1CA
:103380000C94EF1DAE01495F5F4FDA016D917D91A5
:10339000AD010DE513E0F80182819381DC01139604
:1033A0002C911397286013962C930E94E119D80151
:1033B0001296ED91FC912381277F2383E4E00C9406
:1033C0000B1EABE0B0E0E7EEF9E10C94E11D7C01EF
:1033D0003B018A01FC0117821682838181FFC8C1EB
:1033E000CE0101965C01F7019381F30193FD859174
:1033F00093FF81913F01882309F453C1853239F449
:1034000093FD859193FF81913F01853229F4B701A6
:1034100090E00E94191DE7CF912C212C312CFFE167
:10342000F31538F08B3211F190F4803209F18332C8
:1034300029F137FC3CC020ED280F2A3050F536FE2C
:1034400020C08AE0989E200D1124922E06C08D3255
:1034500091F0803371F7689430F8F30193FD859112
:1034600093FF81913F018111DACF21C0689431F837
:10347000689432F8F2CF689433F8EFCF689434F858
:10348000ECCFEAE02E9E200D1124222E689435F810
:10349000E4CF8E3229F436FC04C1689436F8DDCFCF
:1034A0008C3619F4689437F8D8CF8836B1F2982F53
:1034B0009F7D95549330E0F08336A1F18337C1F1BD
:1034C000833509F063C02801F2E04F0E511CF8016A
:1034D000C080D180692D70E036FC02C06FEF7FEFB5
:1034E000C6010E94FC1C4C01689437F882010AC096
:1034F0000C5F1F4FFFE3F98388248394912C6501AF
:10350000E89437F833FE2DC0522C8114910471F5E4
:10351000552009F468CFB70180E290E00E94191DA0
:103520005A94F6CFF801808189830E5F1F4FE4CF54
:103530002801F2E04F0E511CF801C080D180692DA6
:1035400070E036FC02C06FEF7FEFC6010E940E1DD7
:103550004C018201D5CFB70180E290E00E94191D95
:103560002A942814190409F0B0F7CECFF60137FCDD
:10357000859137FE81916F01B70190E00E94191D7E
:1035800051105A94F1E08F1A9108BFCF843619F088
:10359000893609F077C0F80137FE6BC06081718110
:1035A000828193810C5F1F4FF32DFF763F2E97FF93
:1035B00009C090958095709561957F4F8F4F9F4F73
:1035C000689437F82AE030E0A5010E94491DC82E12
:1035D000CA188C2C432C36FE0CC0E89440F8C91451
:1035E00040F434FE05C032FC03C0F32DFE7E4F2EA6
:1035F000892C44FE95C0FE01EC0DF11D80818033C5
:1036000009F087C0242D297E422E842D8870582EE3
:1036100043FC95C040FE8FC09C2C821418F42C0CE7
:10362000922C981844FE91C0B70180E390E00E946C
:10363000191D42FE09C088E790E041FE02C088E5FE
:1036400090E0B7010E94191DC91408F48AC0CA94F9
:10365000D12C9FEFC91AD90ACA0CDB1CF601829142
:103660006F01B70190E00E94191DAC14BD04B1F7C1
:103670004FCF60817181072E000C880B990B0E5F74
:103680001F4F92CFD32CE894D4F82AE030E085374E
:1036900039F1232D297FD22E8F3601F148F4883558
:1036A000A9F0F701868197812B96E2E10C94FD1D2C
:1036B000803749F08837A9F7D4FE02C06894D2F861
:1036C00020E130E00DC06894D4F8F6CF34FE03C09A
:1036D000822F8660D82E20E132E002C028E030E060
:1036E000F801D7FE0FC060817181828193810C5FE8
:1036F0001F4FA5010E94491DC82ECA183D2CE894F1
:1037000037F867CF6081718190E080E00E5F1F4FD6
:10371000F0CF42FC02C0839478CF8394839475CF1A
:10372000842D867809F471CFF6CFB70180E290E05E
:103730000E94191D83948214C0F3512C73CF522C14
:103740005818821408F46ECFF8CF842D867809F4C7
:103750007BCF8BE241FE80E247FC8DE2B70190E037
:1037600071CFB70180E390E00E94191D9A946CCF4D
:103770008FEF9FEF99CF0F931F93CF93DF93869F88
:103780008001879F100D969F100D1124C8010E9483
:10379000D71BEC01009729F0A80170E060E00E94BF
:1037A000071DCE01DF91CF911F910F9108950F93C7
:1037B0001F93CF93DF938230910510F482E090E065
:1037C000E0916503F091660330E020E0B0E0A0E016
:1037D000309799F42115310509F44AC0281B390B9B
:1037E00024303105D8F58A819B816115710589F1F5
:1037F000FB0193838283FE0111C0408151810281CC
:10380000138148175907E0F04817590799F41097A2
:1038100061F012960C93129713961C933296CF0177
:10382000DF91CF911F910F9108950093650310933D
:103830006603F4CF2115310551F04217530738F0D4
:10384000A901DB019A01BD01DF01F801C1CFEF0140
:10385000F9CF9093660380936503CDCFFE01E20F0D
:10386000F31F819391932250310939832883D7CF55
:103870002091630330916403232B41F420910601CE
:103880003091070130936403209363032091040176
:10389000309105012115310541F42DB73EB7409116
:1038A000080150910901241B350BE0916303F0914D
:1038B0006403E217F307A0F42E1B3F0B2817390708
:1038C00078F0AC014E5F5F4F2417350748F04E0F7C
:1038D0005F1F5093640340936303819391939FCF41
:1038E000F0E0E0E09CCFCF93DF930097E9F0FC019C
:1038F000329713821282A0916503B0916603ED01A5
:1039000030E020E01097A1F420813181820F931FD5
:1039100020916303309164032817390709F061C0CF
:10392000F0936403E0936303DF91CF910895EA017C
:10393000CE17DF07E8F54A815B819E0141155105ED
:10394000B1F7E901FB83EA8349915991C40FD51F6F
:10395000EC17FD0761F4808191810296840F951F19
:10396000E90199838883828193819B838A83F0E034
:10397000E0E012968D919C9113970097B9F52D91E7
:103980003C911197CD010296820F931F2091630302
:10399000309164032817390739F6309751F51092A2
:1039A000660310926503B0936403A0936303BCCFD6
:1039B000D383C28340815181840F951FC817D907D3
:1039C00061F44E5F5F4F88819981480F591F518381
:1039D00040838A819B81938382832115310509F07D
:1039E000B0CFF0936603E09365039ECFFD01DC0149
:1039F000C0CF13821282D7CFFC0105906150704076
:103A00000110D8F7809590958E0F9F1F0895DC01C7
:103A100001C06D9341505040E0F70895FC016150A2
:103A2000704001900110D8F7809590958E0F9F1FE0
:103A300008950F931F93CF93DF93182F092FEB0156
:103A40008B8181FD09C01FEF0FEF812F902FDF9138
:103A5000CF911F910F91089582FF14C02E813F8155
:103A60008C819D81281739073CF4E881F981CF01C9
:103A700001969983888310838E819F8101969F830D
:103A80008E83E3CFE885F985812F0995892BA1F3F2
:103A9000DACFFA01AA27283051F1203181F1E894D8
:103AA0006F936E7F6E5F7F4F8F4F9F4FAF4FB1E031
:103AB0003ED0B4E03CD0670F781F891F9A1FA11D2C
:103AC000680F791F8A1F911DA11D6A0F711D811D2D
:103AD000911DA11D20D009F468943F912AE0269FF2
:103AE00011243019305D3193DEF6CF010895462F51
:103AF0004770405D4193B3E00FD0C9F7F6CF462F32
:103B00004F70405D4A3318F0495D31FD405241939A
:103B100002D0A9F7EACFB4E0A69597958795779557
:103B20006795BA95C9F700976105710508959B01DE
:103B3000AC010A2E06945795479537952795BA9567
:103B4000C9F7620F731F841F951FA01D0895F9996F
:103B5000FECF92BD81BDF89A992780B50895052EB4
:103B600097FB1EF400940E94C61D57FD07D00E94CB
:103B7000181E07FC03D04EF40C94C61D50954095BA
:103B8000309521953F4F4F4F5F4F08959095809509
:103B9000709561957F4F8F4F9F4F08950E943A1EF9
:103BA000A59F900DB49F900DA49F800D911D112491
:103BB0000895B7FF0C94CE1D0E94CE1D821B930B5F
:103BC00008952F923F924F925F926F927F928F92C1
:103BD0009F92AF92BF92CF92DF92EF92FF920F939C
:103BE0001F93CF93DF93CDB7DEB7CA1BDB0B0FB6A6
:103BF000F894DEBF0FBECDBF09942A883988488863
:103C00005F846E847D848C849B84AA84B984C884F8
:103C1000DF80EE80FD800C811B81AA81B981CE0FEF
:103C2000D11D0FB6F894DEBF0FBECDBFED010895D4
:103C3000A1E21A2EAA1BBB1BFD010DC0AA1FBB1FB0
:103C4000EE1FFF1FA217B307E407F50720F0A21B22
:103C5000B30BE40BF50B661F771F881F991F1A948F
:103C600069F760957095809590959B01AC01BD01B9
:103C7000CF010895A29FB001B39FC001A39F700D13
:103C8000811D1124911DB29F700D811D1124911D64
:103C900008950E94331F08F481E008950E94621E77
:103CA0000C946E1F0E94671F58F00E94601F40F026
:103CB00029F45F3F29F00C94571F51110C94A21F57
:103CC0000C945D1F0E947F1F68F39923B1F3552365
:103CD00091F3951B550BBB27AA276217730784071F
:103CE00038F09F5F5F4F220F331F441FAA1FA9F3B5
:103CF00035D00E2E3AF0E0E832D091505040E695A3
:103D0000001CCAF72BD0FE2F29D0660F771F881F03
:103D1000BB1F261737074807AB07B0E809F0BB0BF6
:103D2000802DBF01FF2793585F4F3AF09E3F51050A
:103D300078F00C94571F0C94A21F5F3FE4F3983E59
:103D4000D4F3869577956795B795F7959F5FC9F7F3
:103D5000880F911D9695879597F90895E1E0660F74
:103D6000771F881FBB1F621773078407BA0720F0ED
:103D7000621B730B840BBA0BEE1F88F7E095089556
:103D80000E94C71E6894B1110C94A21F08950E944E
:103D9000871F88F09F5798F0B92F9927B751B0F037
:103DA000E1F0660F771F881F991F1AF0BA95C9F7BF
:103DB00014C0B13091F00E94A11FB1E008950C949D
:103DC000A11F672F782F8827B85F39F0B93FCCF350
:103DD000869577956795B395D9F73EF4909580953C
:103DE000709561957F4F8F4F9F4F0895E89409C05C
:103DF00097FB3EF490958095709561957F4F8F4F1E
:103E00009F4F9923A9F0F92F96E9BB279395F69533
:103E1000879577956795B795F111F8CFFAF4BB0FB1
:103E200011F460FF1BC06F5F7F4F8F4F9F4F16C015
:103E3000882311F096E911C0772321F09EE8872F9F
:103E4000762F05C0662371F096E8862F70E060E05B
:103E50002AF09A95660F771F881FDAF7880F9695D4
:103E6000879597F90895990F0008550FAA0BE0E878
:103E7000FEEF16161706E807F907C0F0121613062C
:103E8000E407F50798F0621B730B840B950B39F46C
:103E90000A2661F0232B242B252B21F408950A26D2
:103EA00009F4A140A6958FEF811D811D089597F912
:103EB0009F6780E870E060E008959FEF80EC0895D0
:103EC00000240A94161617061806090608950024F9
:103ED0000A9412161306140605060895092E039473
:103EE000000C11F4882352F0BB0F40F4BF2B11F4E7
:103EF00060FF04C06F5F7F4F8F4F9F4F089557FD46
:103F00009058440F551F59F05F3F71F04795880F47
:103F100097FB991F61F09F3F79F0879508951216DE
:103F200013061406551FF2CF4695F1DF08C016168A
:103F300017061806991FF1CF86957105610508943B
:103F40000895E894BB2766277727CB0197F9089552
:103F50000E94BB1F0C946E1F0E94601F38F00E94CD
:103F6000671F20F0952311F00C94571F0C945D1FD0
:103F700011240C94A21F0E947F1F70F3959FC1F320
:103F8000950F50E0551F629FF001729FBB27F00D07
:103F9000B11D639FAA27F00DB11DAA1F649F66275C
:103FA000B00DA11D661F829F2227B00DA11D621FAB
:103FB000739FB00DA11D621F839FA00D611D221F65
:103FC000749F3327A00D611D231F849F600D211D49
:103FD000822F762F6A2F11249F5750409AF0F1F0CC
:103FE00088234AF0EE0FFF1FBB1F661F771F881F35
:103FF00091505040A9F79E3F510580F00C94571FF7
:104000000C94A21F5F3FE4F3983ED4F38695779516
:104010006795B795F795E7959F5FC1F7FE2B880FDA
:10402000911D9695879597F90895DB018F939F933E
:104030000E94CE1DBF91AF91A29F800D911DA39FA5
:10404000900DB29F900D11240895EE0FFF1F059063
:10405000F491E02D0994FB01DC014150504048F0FF
:1040600001900D920020C9F701C01D9241505040AF
:08407000E0F70895F894FFCF7A
:104078000100010100006703800000000000A9039F
:1040880009033603110467034503590300000000C0
:10409800360609067E06DF050206EF05E005000084
:1040A8000000F902F602FC08000000008106C70DB6
:1040B8008206C90D190E000000000303FF0200006C
:1040C8000000C708AF080D0A003000424D503038D4
:0240D8003500B1
:00000001FF
