:100000000C94FC000C9409260C94E2250C94240119
:100010000C9424010C9424010C944F270C9424017B
:100020000C9424010C9424010C9424010C942401BC
:100030000C9424010C9424010C9424010C942401AC
:100040000C9498250C9424010C9466250C9440255E
:100050000C9424010C9424010C9424010C9424018C
:100060000C9430260C94240141DB010000000000B8
:100070000000000000000000000000000000000080
:10008000000000000000000000000000010000006F
:100090000000000000000000000000000000000060
:1000A000000000000000000000000000E0EB7A7C8F
:1000B0003B41B8AE1656E3FAF19FC46ADA098DEBFC
:1000C0009C32B1FD866205165F49B8005F9C95BC05
:1000D000A3508C24B1D0B1559C83EF5B04445CC425
:1000E000581C8E86D8224EDDD09F1157ECFFFFFFA3
:1000F000FFFFFFFFFFFFFFFFFFFFFFFFFFFFFFFF10
:10010000FFFFFFFFFFFFFFFFFFFFFF7F000000007B
:10011000250028002B00555549442073656E7365F2
:1001200075722000424D503A204572726575722CEE
:10013000206465736163746976652E0000000000B9
:10014000240027002A005365747570207465726D51
:10015000696E652061707265732000000000080000
:10016000020100000304070000000000000000007E
:1001700001020304051112131415160A0B0C0D0EBF
:100180000F000000002300260029000404040404DA
:100190000404040202020202020303030303030134
:1001A000020408102040800102040810200102040B
:1001B000081020B02AAE7DEECBBBB1FC036FDDDCB6
:1001C0007D76670CE81F0DA3A0AA1EB0BD726B2B35
:1001D0004C8A7E34FC3760F41E22A00BFB1884602E
:1001E000A57772657870616E642033322D62797400
:1001F00065206B00F227CC2711241FBECFEFD8E07B
:10020000DEBFCDBF11E0A0E0B1E0E6E9F0E702C05B
:1002100005900D92AE3CB107D9F724E0AEECB1E009
:1002200001C01D92A13DB207E1F710E0CBEFD0E095
:1002300004C02197FE010E94F636CA3FD107C9F7D4
:100240000E942F290C943E380C9400002091A802A3
:1002500081E0213208F044C0809184028111FCCFFA
:100260008091A70292E09093840291E090938302A0
:100270009FEF909382021092810220938002A7E860
:10028000B2E0E0E6F2E090E0291331C010925F02A4
:1002900090915F02880F892B80935F0280915E02AC
:1002A000813049F510925E0280915F028093BB001D
:1002B0008091BC0083FDF8CF85EC8093BC008091D9
:1002C00084028230E1F3809182028F3FB1F080910D
:1002D00082028032A1F080918202803391F084E02A
:1002E000109286021092A8021092850208953D9104
:1002F00031939F5FC9CF85EEE0CF80E0F1CF82E000
:10030000EFCF83E0EDCF982F809184028111FCCF55
:1003100081E080938402809383022FEF20938202F6
:1003200010928102290F2093800280935F028091B6
:100330005F028E6E80935F0280915E028130F9F4DD
:1003400010925E0280915F028093BB008091BC009E
:1003500083FDF8CF85EC8093BC00809184028130CE
:10036000E1F380918102891710F490918102A0E657
:10037000B2E0EEE3F2E080E0891303C0089585EE79
:10038000EACF2D9121938F5FF7CF2F923F924F921B
:100390005F926F927F928F929F92AF92BF92CF9215
:1003A000DF92EF92FF920F931F93CF93DF93CDB71E
:1003B000DEB7C554D1090FB6F894DEBF0FBECDBF6E
:1003C000FC017AAB69AB9CAB8BABCB01805C9F4FE4
:1003D0009F018B01D8014D915D916D917D918D01B2
:1003E000D9014D935D936D937D939D018017910786
:1003F00089F7408951896289738940805180628080
:1004000073804D8A5E8A6F8A788E40A851A862A850
:1004100073A8C0A0D1A0E2A0F3A084889588A68884
:10042000B78889829A82AB82BC8204811581268139
:100430003781098F1A8F2B8F3C8F84A995A9A6A984
:10044000B7A98D8F9E8FAF8FB8A384A095A0A6A0CB
:10045000B7A021968CAE9DAEAEAEBFAE2197008DFB
:10046000118D228D338D0D831E832F8338878085D8
:100470009185A285B38589A79AA7ABA7BCA780ACB5
:1004800091ACA2ACB3AC898A9A8AAB8ABC8A00A52B
:1004900011A522A533A50DA31EA32FA338A7848DD4
:1004A000958DA68DB78D84849584A684B78489861E
:1004B0009A86AB86BC8604AD15AD26AD37AD09A3D3
:1004C0001AA32BA33CA384A495A4A6A4B7A48DA689
:1004D0009EA6AFA6B8AA1AE0212E8D889E88AF8866
:1004E000B88C840E951EA61EB71E482459246A2473
:1004F0007B24820123013801C40CD51CE61CF71CA7
:100500004C255D256E257F258A019B010F2EFCE081
:10051000000F111F221F331FFA95D1F7F02D032E64
:1005200034E176956795579547953A95D1F7302DF3
:10053000402B512B622B732B95018401040F151F47
:10054000261F371F0D8B1E8B2F8B388F4026512671
:1005500062267326942CA52CB62C872C8DAA9EAAD5
:10056000AFAAB8AE8C0C9D1CAE1CBF1C89AE9AAE57
:10057000ABAEBCAE482559256A257B256A017B01B7
:1005800027E0CC0CDD1CEE1CFF1C2A95D1F72A01BC
:100590003B0139E176946794579447943A95D1F7A3
:1005A0004C285D286E287F284D865E866F86788A67
:1005B00089809A80AB80BC80C98CDA8CEB8CFC8CF7
:1005C0008C0C9D1CAE1CBF1CCD8CDE8CEF8CF8A05F
:1005D000C824D924EA24FB248601670178012196E6
:1005E0000CAD1DAD2EAD3FAD21970C0D1D1D2E1D6B
:1005F0003F1D49815A816B817C81402751276227A9
:1006000073272A013B01032E3CE0440C551C661C59
:10061000771C3A95D1F7302D032E34E17695679506
:10062000579547953A95D1F7302D44295529662994
:10063000772924013501440E551E661E771E498E0A
:100640005A8E6B8E7C8EC424D524E624F7247C2C11
:100650008D2C9E2C6F2C6D8E7E8E8F8E98A2600EB0
:10066000711E821E931E21966CAE7DAE8EAE9FAE25
:10067000219746255725682579258A019B0168948D
:1006800016F8000F111F221F331F1694D1F76A01AD
:100690007B0149E1F694E794D794C7944A95D1F742
:1006A000C02AD12AE22AF32AC982DA82EB82FC82AA
:1006B000C9A4DAA4EBA4FCA40D811E812F81388586
:1006C000C00ED11EE21EF31E09891A892B893C89AE
:1006D0000C251D252E253F25A80189019A018DA0F5
:1006E0009EA0AFA0B8A4800E911EA21EB31E4D8185
:1006F0005E816F817885482559256A257B252A01E9
:100700003B01032E3CE0440C551C661C771C3A95BB
:10071000D1F7302D032E34E176956795579547959F
:100720003A95D1F7302D4429552966297729260194
:100730003701440E551E661E771E498A5A8A6B8AF7
:100740007C8A0425152526253725D02EE12EF22E6C
:10075000C32E2596CCAEDDAEEEAEFFAE25978C0C4B
:100760009D1CAE1CBF1C482559256A257B258A0186
:100770009B01689416F8000F111F221F331F169457
:10078000D1F72A013B0149E1769467945794479445
:100790004A95D1F7402A512A622A732A4D825E82F5
:1007A0006F82788649845A846B847C84480E591EF3
:1007B0006A1E7B1E09A11AA12BA13CA104251525A7
:1007C00026253725680189019601CDA4DEA4EFA472
:1007D000F8A8C00ED11EE21EF31E8C259D25AE2565
:1007E000BF25AC01BD01032E3CE0440F551F661F21
:1007F000771F3A95D1F7302D072E74E1B695A7955E
:10080000979587957A95D1F7702D842B952BA62BEC
:10081000B72BB301A201480F591F6A1F7B1F4987DD
:100820005A876B877C870427152726273727502F61
:10083000032F322F212F152F26013701400E511E75
:10084000621E731E49A65AA66BA67CA68425952512
:10085000A625B7252C013D0147E0440C551C661C1C
:10086000771C4A95D1F759E1B695A7959795879545
:100870005A95D1F784299529A629B7294D885E88EC
:100880006F88788CC980DA80EB80FC804C0C5D1C12
:100890006E1C7F1C04251525262537257801890126
:1008A0009701800E911EA21EB31E49815A816B8151
:1008B0007C81482559256A257B256A017B010B2E01
:1008C000BCE0CC0CDD1CEE1CFF1CBA95D1F7B02DA2
:1008D000032E34E176956795579547953A95D1F76C
:1008E000302D4C295D296E297F2973016201C40EC8
:1008F000D51EE61EF71ECD8ADE8AEF8AF88E0C25FD
:100900001D252E253F25502E612E722E432E49A2E5
:100910005AA26BA27CA2480C591C6A1C7B1C4DA2DB
:100920005EA26FA278A693018201042715272627CD
:100930003727B901A801689416F8440F551F661FA0
:10094000771F1694D1F72801390129E1769467942D
:10095000579447942A95D1F7442A552A662A772A2C
:1009600049825A826B827C82898C9A8CAB8CBC8C3B
:10097000CD80DE80EF80F8848C0C9D1CAE1CBF1CEB
:100980004DA85EA86FA878AC482459246A247B241B
:10099000720123013701C9A4DAA4EBA4FCA4C40C9E
:1009A000D51CE61CF71C4D815E816F8178854C2536
:1009B0005D256E257F258A019B010F2EFCE0000F2F
:1009C000111F221F331FFA95D1F7F02D032E34E1AA
:1009D00076956795579547953A95D1F7302D402BE9
:1009E000512B622B732B95018401040F151F261FB9
:1009F000371F098F1A8F2B8F3C8F40265126622676
:100A00007326142D472C762C652C512E4601570148
:100A1000840C951CA61CB71C8DA69EA6AFA6B8AAD2
:100A2000482559256A257B258A019B01689416F87B
:100A3000000F111F221F331F1694D1F75A016B01AB
:100A400049E1D694C794B794A7944A95D1F7A02AC0
:100A5000B12AC22AD32AAD82BE82CF82D8868988A3
:100A60009A88AB88BC88880E991EAA1EBB1E0D8D65
:100A70001E8D2F8D38A1082519252A253B256801B3
:100A800089019601C9ACDAACEBACFCACC00ED11E4E
:100A9000E21EF31E8C259D25AE25BF25AC01BD01B0
:100AA000032E3CE0440F551F661F771F3A95D1F780
:100AB000302D072E74E1B695A795979587957A9571
:100AC000D1F7702D842B952BA62BB72BB501A40144
:100AD000480F591F6A1F7B1F49A75AA76BA77CA7FE
:100AE0000427152726273727902EA12EB22E832ED6
:100AF0008D8E9E8EAF8EB8A2C80CD91CEA1CFB1C32
:100B00008C259D25AE25BF258C019D0147E0000F5A
:100B1000111F221F331F4A95D1F759E1B695A795AA
:100B2000979587955A95D1F7802B912BA22BB32BB4
:100B30008D849E84AF84B88809851A852B853C8571
:100B4000800E911EA21EB31E89869A86AB86BC8635
:100B500025968CAC9DACAEACBFAC259729853A856B
:100B60004B855C8582269326A426B526A4014501E3
:100B70005A0121960CAD1DAD2EAD3FAD2197080D4C
:100B8000191D2A1D3B1D0DAB1EAB2FAB38AF4D857C
:100B90005E856F85788940275127622773278A01F0
:100BA0009B010F2EFCE0000F111F221F331FFA952F
:100BB000D1F7F02D032E34E176956795579547953B
:100BC0003A95D1F7302D402B512B622B732B098591
:100BD0001A852B853C85040F151F261F371F098793
:100BE0001A872B873C8780269126A226B326182DAC
:100BF000292D3A2D0B2D098B1A8B2B8B3C8B8DA815
:100C00009EA8AFA8B8AC800E911EA21EB31E21965E
:100C10008CAE9DAEAEAEBFAE2197482559256A2554
:100C20007B254A015B0127E0880C991CAA1CBB1C90
:100C30002A95D1F739E176956795579547953A9575
:100C4000D1F7482959296A297B292A94211045CCB2
:100C5000408B518B628B738B0D891E892F89388D48
:100C6000008311832283338340AA51AA62AA73AA04
:100C7000C0A2D1A2E2A2F3A229813A814B815C8178
:100C8000248B358B468B578B498D5A8D6B8D7C8D84
:100C900044835583668377834D8C5E8C6F8C78A0FC
:100CA00044AA55AA66AA77AA21966CAC7DAC8EACF4
:100CB0009FAC219764A275A286A297A28D809E8088
:100CC000AF80B884808E918EA28EB38EA9A4BAA470
:100CD000CBA4DCA4A086B186C286D386C988DA8874
:100CE000EB88FC88C0AED1AEE2AEF3AEEDA0FEA0C4
:100CF0000FA118A5E0A6F1A602A713A7848F958FD0
:100D0000A68FB78F09851A852B853C8504871587A3
:100D10002687378729A13AA14BA15CA124AF35AF23
:100D200046AF57AF4DA55EA56FA578A944A755A7B7
:100D300066A777A7E05CFF4FABA9BCA94D915D9179
:100D40006D917D91BCABABABA9A9BAA90D911D91D9
:100D50002D913D91BAABA9ABABA9BCA91497400F9B
:100D6000511F621F731F4D935D936D937C93139777
:100D70004BA85CA8E415F505F9F6CB5BDF4F0FB681
:100D8000F894DEBF0FBECDBFDF91CF911F910F91C1
:100D9000FF90EF90DF90CF90BF90AF909F908F909B
:100DA0007F906F905F904F903F902F900895833089
:100DB000910528F0880F991F04970197F1F708957E
:100DC00080E190E0089594B7977F94BF9091600080
:100DD00098619093600091E2909360009091600020
:100DE00090649093600014BEA89593B7917F94602F
:100DF00093BFF89490E695BF90E495BF789490E007
:100E0000891749F023B7216023BF889523B72E7F28
:100E100023BF9F5FF5CF83B78E7F83BF84B7877F64
:100E200084BF8091600088618093600010926000B0
:100E30008091600080648093600080916400807184
:100E400080936400089581E0809338020895FC0146
:100E5000848595850895FC01828593850895FC011C
:100E600082850895FC01648175818681978108954A
:100E70008E5B9F4FFC018081089508950895089529
:100E8000AF92BF92CF92DF92EF92FF920F931F9398
:100E9000CF93DF936C017B018B01040F151FEB01D6
:100EA0005E01AE18BF08C017D10759F06991D6018D
:100EB000ED91FC910190F081E02DC6010995892BFF
:100EC00079F7C501DF91CF911F910F91FF90EF90BE
:100ED000DF90CF90BF90AF900895FC01538D448D6B
:100EE000252F30E0842F90E0821B930B541710F0D5
:100EF000CF96089501970895FC01918D828D9817E2
:100F000061F0A28DAE0FBF2FB11D5D968C91928DB9
:100F10009F5F9F73928F90E008958FEF9FEF0895EA
:100F2000FC01918D828D981731F0828DE80FF11DB3
:100F3000858D90E008958FEF9FEF0895FC01918DCE
:100F4000228D892F90E0805C9F4F821B91098F73C7
:100F50009927089589EA92E00E949E0721E0892B53
:100F600009F420E0822F089580E090E0892B29F099
:100F70000E94AA0781110C9400000895FC01A48D21
:100F8000A80FB92FB11DA35ABF4F2C91848D90E0AB
:100F900001968F739927848FA689B7892C93A0898E
:100FA000B1898C91837080648C93938D848D981318
:100FB00006C00288F389E02D80818F7D80830895AB
:100FC000EF92FF920F931F93CF93DF93EC0181E099
:100FD000888F9B8D8C8D98131AC0E889F989808140
:100FE00085FF15C09FB7F894EE89FF896083E88973
:100FF000F98980818370806480839FBF81E090E065
:10100000DF91CF911F910F91FF90EF900895F62EF1
:101010000B8D10E00F5F1F4F0F731127E02E8C8D8B
:101020008E110CC00FB607FCFACFE889F9898081D0
:1010300085FFF5CFCE010E94BE07F1CFEB8DEC0FFF
:10104000FD2FF11DE35AFF4FF0829FB7F8940B8FED
:10105000EA89FB8980818062CFCF0F931F93CF9362
:10106000DF938C01D0E0C0E0F801EC0FFD1F64912C
:10107000662341F089EA92E00E94E007892B11F093
:101080002196F2CFCE01DF91CF911F910F9108955C
:10109000CF93DF93EC01888D8823B9F0AA89BB89AF
:1010A000E889F9898C9185FD03C0808186FD0DC09A
:1010B0000FB607FCF7CF8C9185FFF2CF808185FFBB
:1010C000EDCFCE010E94BE07E9CFDF91CF91089509
:1010D00090E0FC01E55AFE4F2491FC01E156FE4FE1
:1010E0003491FC01E557FE4FE491EE23C9F0222331
:1010F00039F0233001F1A8F4213019F1223029F11F
:10110000F0E0EE0FFF1FE45FFE4FA591B4918FB7A3
:10111000F894EC91611126C030953E233C938FBF2B
:1011200008952730A9F02830C9F0243049F780917C
:1011300080008F7D03C0809180008F778093800036
:10114000DFCF84B58F7784BDDBCF84B58F7DFBCFB8
:101150008091B0008F778093B000D2CF8091B000A3
:101160008F7DF9CF3E2BDACFCF93DF9390E0FC0158
:10117000E156FE4F249185579E4FFC0184918823B0
:10118000D1F090E0880F991FFC01E45CFE4FA5911F
:10119000B491FC01E45FFE4FC591D49161110EC082
:1011A0009FB7F8948C91E22FE0958E238C93288141
:1011B000E223E8839FBFDF91CF9108958FB7F89422
:1011C000EC91E22BEC938FBFF6CF8E3008F08E506F
:1011D0008770806480937C0080917A008064809323
:1011E0007A0080917A0086FDFCCF80917800909102
:1011F000790008953FB7F8948091160290911702F4
:10120000A0911802B091190226B5A89B05C02F3FE6
:1012100019F00196A11DB11D3FBFBA2FA92F982F1C
:101220008827BC01CD01620F711D811D911D43E016
:10123000660F771F881F991F4A95D1F708958F92DF
:101240009F92AF92BF92CF92DF92EF92FF926B018B
:101250007C010E94FA084B015C01C114D104E10435
:10126000F104B9F00E94FA08681979098A099B0902
:10127000683E73408105910580F321E0C21AD108D0
:10128000E108F10888EE880E83E0981EA11CB11CCD
:10129000E4CFFF90EF90DF90CF90BF90AF909F9002
:1012A0008F9008958F929F92AF92BF92DF92EF92AC
:1012B000FF920F931F93CF93DF93C82F162F90E0C9
:1012C000FC01E156FE4FD491FC01E557FE4FE4913D
:1012D000F0E0EE0FFF1FEF57FE4FE590F4901092F5
:1012E000820310928303109284031092850310925C
:1012F000860361E08C2F0E94B40860E08C2F0E946E
:101300006808612F70E090E080E00E941F0961E0B2
:101310008C2F0E9468088CE490E00197F1F760E060
:101320008C2F0E94B40888EC90E0F70120812D23D7
:1013300081F40197D1F78EEF9FEFDF91CF911F914D
:101340000F91FF90EF90DF90BF90AF909F908F90A4
:10135000089588EC90E0F70120812D2319F0019782
:10136000D1F7E9CF08E210E8D12C88EC90E0F70142
:1013700020812D2319F40197D1F7DDCF0E94FA08BF
:101380004B015C0188EC90E0F70120812D2319F0DE
:101390000197D1F7D0CF0E94FA08681979098A0914
:1013A0009B09693271058105910538F0ED2DF0E05A
:1013B000E858FC4F8285812B8287169511F4D394CF
:1013C00010E8015091F661E08C2F0E94B40861E0B2
:1013D0008C2F0E94680890E080E0AFCF2FB7F89480
:1013E0006091120270911302809114029091150283
:1013F0002FBF0895089585ED8093BC008091BC00B7
:1014000084FDFCCF1092840208952091EE01260FF6
:101410003327331F21323105ECF420918402FC0183
:1014200090E080E0243069F082E00895A091EE0120
:101430002191AC0142535E4FA40FB52FB11D2C93E7
:101440000196861798F38091EE01680F6093EE0184
:1014500080E0089581E00895E0911F0280911E02CE
:10146000E81730F4F0E0E25CFD4F808190E00895F1
:101470008FEF9FEF089590911F0280911E022FEF32
:101480003FEF981748F4E92FF0E0E25CFD4F208130
:1014900030E09F5F90931F02C901089580911E0262
:1014A00090911F02891B990B0895CF92DF92EF92C2
:1014B000FF920F931F93CF93DF937C01CB018A019F
:1014C00020918502222389F0EB016B01C40ED51E09
:1014D000CC15DD0569F06991D701ED91FC91019082
:1014E000F081E02DC7010995F3CF642F0E94050A12
:1014F000C801DF91CF911F910F91FF90EF90DF9086
:10150000CF900895CF93DF931F92CDB7DEB7698355
:10151000209185022223F9F02091A802203258F070
:1015200021E030E0FC013383228390E080E00F90E3
:10153000DF91CF91089580918602E82FF0E0E9577E
:10154000FD4F998190838F5F809386028093A802DC
:1015500081E090E0ECCF61E0CE0101960E94050AA7
:10156000F7CFCF93C82F81E08093850287E78093E0
:10157000A702109286021092A80264EF86E493E01C
:101580000E94820A6C2F86E493E00E94820ACF9127
:101590000C94260190E080E008950895089521E0DC
:1015A000FC018085811101C020E0822F08956F9297
:1015B0007F928F929F92AF92BF92CF92DF92EF92E3
:1015C000FF920F931F93CF93DF93FC0123AD211163
:1015D000E7C0DB019B01240F351F4296DFEFA21706
:1015E000B30709F4DDC0CD91FC01F2A0E1A000A099
:1015F000000CEE1CFF1C000CEE1CFF1C000CEE1C73
:10160000D48C058C0694D7940694D7940694D794DA
:101610000488C588000CCC1C000CCC1C00891189E6
:10162000029512950F70107F012B0084B184000C7D
:10163000BB1C000CBB1C000CBB1CA3809280018057
:10164000000C991CAA1C000C991C000C991C000C85
:10165000991C80A48E2470A087247D24648C762419
:101660006C24748967267027608976276B255085DE
:1016700065275A254081542797260E2C0522902451
:10168000E6209E24052E0620902407219026072C74
:101690000094B0209B24062F009504270F2C0A20CD
:1016A0000025AC200A25FC200F25DD220D25092C64
:1016B0000D2200250C270295102F107F81260F7018
:1016C00000A701A000A202A001A203A002A204A000
:1016D00003A205A004A206A005A207A0FF24880C6F
:1016E000FF1C880CFF1C880CFF1C082806A2F7A210
:1016F000058C048E068C058E078C068E028CFF24CA
:101700007694F7947694F7947694F7940F28078E4E
:10171000728E0588048A0688058A0788068A008CE6
:10172000FF246694F7940F28078A608E0188008A48
:101730000288018A0388028A0684038A0784FF24B8
:101740007695F7940F2806867787018400860284B1
:10175000018603840286048403860584FF2466953B
:10176000F7946695F7940F280486658701800082B8
:101770000280018203800282048003820580048249
:10178000068005820780FF245695F7945695F794B6
:101790005695F7940F2806825783CC2FC9251FCF63
:1017A000DF91CF911F910F91FF90EF90DF90CF903D
:1017B000BF90AF909F908F907F906F9008955F92B1
:1017C0006F927F928F929F92AF92BF92CF92DF9251
:1017D000EF92FF920F931F93CF93DF93A42FD52FF8
:1017E000262F572E302FCC2DFC017096F2A0E1A0B1
:1017F00000A0000CEE1CFF1C000CEE1CFF1C000CDB
:10180000EE1CD48C058C0694D7940694D794069439
:10181000D7940488C588000CCC1C000CCC1C008913
:101820001189029512950F70107F012B0084B184ED
:10183000000CBB1C000CBB1C000CBB1CA3809280CA
:101840000180000C991CAA1C000C991C000C991C0E
:10185000000C991C80A48E2470A087247D24648CA5
:1018600076246C24748967267027608976276B2517
:10187000508565275A254081542797260E2C05222E
:101880009024E6209E24052E0620902407219026F1
:10189000072C0094B0209B24062F009504270F2CC2
:1018A0000A200025AC200A25FC200F25D3220D2577
:1018B000092C0C2200250A270295102F107F812663
:1018C0000F7000A701A000A202A001A203A002A223
:1018D00004A003A205A004A206A005A207A0FF245D
:1018E000880CFF1C880CFF1C880CFF1C082806A213
:1018F000F7A2058C048E068C058E078C068E028C52
:10190000FF247694F7947694F7947694F7940F28BE
:10191000078E728E0588048A0688058A0788068ADB
:10192000008CFF246694F7940F28078A608E018844
:10193000008A0288018A0388028A0684038A07844F
:10194000FF247695F7940F28068677870184008612
:101950000284018603840286048403860584FF24AE
:101960006695F7946695F7940F280486658701803D
:10197000008202800182038002820480038205804B
:101980000482068005820780FF245695F7945695B9
:10199000F7945695F7940F28068257838A2F892546
:1019A00090E0B0E0A0E0F2A0E1A000A0000CEE1CEE
:1019B000FF1C000CEE1CFF1C000CEE1CD48C058CD4
:1019C0000694D7940694D7940694D7940488C5882F
:1019D000000CCC1C000CCC1C0089118902951295BE
:1019E0000F70107F012B0084B184000CBB1C000C15
:1019F000BB1C000CBB1CA38092800180000C991CB6
:101A0000AA1C000C991C000C991C000C991C80A4A9
:101A10008E2470A087247D24648C76246C247489A1
:101A200067267027608976276B25508565275A259C
:101A30004081542797260E2C05229024E6209E24D0
:101A4000052E0620902407219026072C0094B02014
:101A50009B24062F009504270F2C0A200025AC207C
:101A60000A25FC200F25D3220D25092C0C22002548
:101A70000D270295102F107F81260F7000A701A05F
:101A800000A202A001A203A002A204A003A205A03A
:101A900004A206A005A207A0FF24880CFF1C880C46
:101AA000FF1C880CFF1C082806A2F7A2058C048ED8
:101AB000068C058E078C068E028CFF247694F79494
:101AC0007694F7947694F7940F28078E728E058893
:101AD000048A0688058A0788068A008CFF24669493
:101AE000F7940F28078A608E0188008A0288018A8D
:101AF0000388028A0684038A0784FF247695F79474
:101B00000F28068677870184008602840186038475
:101B10000286048403860584FF246695F7946695FF
:101B2000F7940F2804866587018000820280018275
:101B3000038002820480038205800482068005827D
:101B40000780FF245695F7945695F7945695F79489
:101B50000F2806825783DD2FD925F2A0E1A000A02F
:101B6000000CEE1CFF1C000CEE1CFF1C000CEE1CFD
:101B7000D48C058C0694D7940694D7940694D79465
:101B80000488C588000CCC1C000CCC1C0089118971
:101B9000029512950F70107F012B0084B184000C08
:101BA000BB1C000CBB1C000CBB1CA38092800180E2
:101BB000000C991CAA1C000C991C000C991C000C10
:101BC000991C80A48E2470A087247D24648C7624A4
:101BD0006C24748967267027608976276B25508569
:101BE00065275A254081542797260E2C05229024DC
:101BF000E6209E24052E0620902407219026072CFF
:101C00000094B0209B24062F009504270F2C0A2057
:101C10000025AC200A25FC200F25D3220D25092CF8
:101C20000C22002502270295102F107F81260F70AD
:101C300000A701A000A202A001A203A002A204A08A
:101C400003A205A004A206A005A207A0FF24880CF9
:101C5000FF1C880CFF1C880CFF1C082806A2F7A29A
:101C6000058C048E068C058E078C068E028CFF2454
:101C70007694F7947694F7947694F7940F28078ED9
:101C8000728E0588048A0688058A0788068A008C71
:101C9000FF246694F7940F28078A608E0188008AD3
:101CA0000288018A0388028A0684038A0784FF2443
:101CB0007695F7940F28068677870184008602843C
:101CC000018603840286048403860584FF246695C6
:101CD000F7946695F7940F28048665870180008243
:101CE00002800182038002820480038205800482D4
:101CF000068005820780FF245695F7945695F79441
:101D00005695F7940F2806825783222F2925422FB4
:101D100050E070E060E0BA01552744275D2B842B2A
:101D2000952BA62BB72BF2A0E1A000A0000CEE1C77
:101D3000FF1C000CEE1CFF1C000CEE1CD48C058C50
:101D40000694D7940694D7940694D7940488C588AB
:101D5000000CCC1C000CCC1C00891189029512953A
:101D60000F70107F012B0084B184000CBB1C000C91
:101D7000BB1C000CBB1CA38092800180000C991C32
:101D8000AA1C000C991C000C991C000C991C80A426
:101D90008E2470A087247D24648C76246C2474891E
:101DA00067267027608976276B25508565275A2519
:101DB0004081542797260E2C05229024E6209E244D
:101DC000052E0620902407219026072C0094B02091
:101DD0009B24062F009504270F2C0A200025AC20F9
:101DE0000A25FC200F25D3220D25092C0C220025C5
:101DF00005250295102F107F81260F7000A701A0E6
:101E000000A202A001A203A002A204A003A205A0B6
:101E100004A206A005A207A0FF24880CFF1C880CC2
:101E2000FF1C880CFF1C082806A2F7A2058C048E54
:101E3000068C058E078C068E028CFF247694F79410
:101E40007694F7947694F7940F28078E728E05880F
:101E5000048A0688058A0788068A008CFF2466940F
:101E6000F7940F28078A608E0188008A0288018A09
:101E70000388028A0684038A0784FF247695F794F0
:101E80000F280686778701840086028401860384F2
:101E90000286048403860584FF246695F79466957C
:101EA000F7940F28048665870180008202800182F2
:101EB00003800282048003820580048206800582FA
:101EC0000780FF245695F7945695F7945695F79406
:101ED0000F2806825783E52DE925BC01CD019E2BF5
:101EE000DF91CF911F910F91FF90EF90DF90CF90F6
:101EF000BF90AF909F908F907F906F905F9008956C
:101F00008F929F92AF92BF92CF92DF92EF92FF9209
:101F10000F931F93CF93DF93EC017B016A010FEFC7
:101F20001FEF980141E050E060E070E00E94DF0B9D
:101F30000FEF1FEF980140E050E0BA01CE010E9480
:101F4000DF0B0FEF1FEF980140E050E0BA01CE0128
:101F50000E94DF0B0FEF1FEF980140E050E0BA0145
:101F6000CE010E94DF0B00E010E0980140E050E05D
:101F7000BA01CE010E94DF0B00E010E0980140E0C2
:101F800050E0BA01CE010E94DF0B00E010E09801A2
:101F900040E050E0BA01CE010E94DF0B00E010E00B
:101FA000980140E050E0BA01CE010E94DF0BDF91C2
:101FB000CF911F910F91FF90EF90DF90CF90BF9046
:101FC000AF909F908F9008955F926F927F928F92C3
:101FD0009F92AF92BF92CF92DF92EF92FF920F93B8
:101FE0001F93CF93DF93EC017B016A0189018BADD5
:101FF000811109C04FEF5FEFBA01CE0102960E9436
:10200000800F81E08BAFC601D7019701200F311FF0
:10201000FE017296A217B30709F4DBC0EC015990D8
:10202000CE01F2A0E1A000A0000CEE1CFF1C000CF1
:10203000EE1CFF1C000CEE1CD48C058C0694D7946F
:102040000694D7940694D7940488C588000CCC1CB9
:10205000000CCC1C00891189029512950F70107F1D
:10206000012B0084B184000CBB1C000CBB1C000CB9
:10207000BB1CA38092800180000C991CAA1C000C40
:10208000991C000C991C000C991C80A48E2470A033
:1020900087247D24648C76246C24748967267027B9
:1020A000608976276B25508565275A2540815427FE
:1020B00097260E2C05229024E6209E24052E06202D
:1020C000902407219026072C0094B0209B24062FF3
:1020D000009504270F2C0A200025AC200A25FC209F
:1020E0000F250D25952409250295102F107F812697
:1020F0000F7000A701A000A202A001A203A002A2EB
:1021000004A003A205A004A206A005A207A0FF2424
:10211000880CFF1C880CFF1C880CFF1C082806A2DA
:10212000F7A2058C048E068C058E078C068E028C19
:10213000FF247694F7947694F7947694F7940F2886
:10214000078E728E0588048A0688058A0788068AA3
:10215000008CFF246694F7940F28078A608E01880C
:10216000008A0288018A0388028A0684038A078417
:10217000FF247695F7940F280686778701840086DA
:102180000284018603840286048403860584FF2476
:102190006695F7946695F7940F2804866587018005
:1021A0000082028001820380028204800382058013
:1021B0000482068005820780FF245695F794569581
:1021C000F7945695F7940F2806825783C92DCD931F
:1021D00021CFDF91CF911F910F91FF90EF90DF9072
:1021E000CF90BF90AF909F908F907F906F905F90B7
:1021F00008952F923F924F925F926F927F928F92AB
:102200009F92AF92BF92CF92DF92EF92FF920F9385
:102210001F93CF93DF93EC018B017A0129018BADE2
:10222000811109C04FEF5FEFBA01CE0102960E9403
:10223000800F81E08BAFC701D8019801240D351DB7
:102240001E0142E1240E311CDFEF512CA217B3070F
:1022500009F4E0C0FC01C191CF01F101F2A0E1A0BD
:1022600000A0000CEE1CFF1C000CEE1CFF1C000C60
:10227000EE1CD48C058C0694D7940694D7940694BF
:10228000D7940488C588000CCC1C000CCC1C008999
:102290001189029512950F70107F012B0084B18473
:1022A000000CBB1C000CBB1C000CBB1CA380928050
:1022B0000180000C991CAA1C000C991C000C991C94
:1022C000000C991C80A48E2470A087247D24648C2B
:1022D00076246C24748967267027608976276B259D
:1022E000508565275A254081542797260E2C0522B4
:1022F0009024E6209E24052E062090240721902677
:10230000072C0094B0209B24062F009504270F2C47
:102310000A200025AC200A25FC200F25DD220D25F2
:10232000092C052000250C270295102F107F8126EF
:102330000F7000A701A000A202A001A203A002A2A8
:1023400004A003A205A004A206A005A207A0FF24E2
:10235000880CFF1C880CFF1C880CFF1C082806A298
:10236000F7A2058C048E068C058E078C068E028CD7
:10237000FF247694F7947694F7947694F7940F2844
:10238000078E728E0588048A0688058A0788068A61
:10239000008CFF246694F7940F28078A608E0188CA
:1023A000008A0288018A0388028A0684038A0784D5
:1023B000FF247695F7940F28068677870184008698
:1023C0000284018603840286048403860584FF2434
:1023D0006695F7946695F7940F28048665870180C3
:1023E00000820280018203800282048003820580D1
:1023F0000482068005820780FF245695F79456953F
:10240000F7945695F7940F2806825783CC2FC92549
:10241000CD931CCFDF91CF911F910F91FF90EF9043
:10242000DF90CF90BF90AF909F908F907F906F90F4
:102430005F904F903F902F9008950F931F93CF93ED
:10244000DF9300E010E021E030E0081B190B2109C8
:102450003109890101501109FB01DA01AB01405E2C
:102460005F4F219131918D919C91119782279327F4
:1024700080239123BF016250710928273927EB017E
:10248000398328832D913C911197822793278D932F
:102490009D93E417F50729F7DF91CF911F910F91D5
:1024A00008956F927F928F929F92AF92BF92CF9238
:1024B000DF92EF92FF920F931F93CF93DF93FC0174
:1024C0003B01CA01EF01AB01405E5F4F9F01C12C90
:1024D000D12C7601D3010D911D913D01DC016D914F
:1024E0007D91CD016701EE24FF2446015701B1E043
:1024F0008B229924AA24BB246801F12CE12CC61A52
:10250000D70AE108F108C818D908EA08FB08D90178
:10251000CD92DD929D0146155705E1F66701EE2447
:10252000FF24B3E1CB22DD24EE24FF2480819181BE
:10253000B0E0A0E08C199D09AE09BF0991838083AA
:102540009F01225E3F4FCD01AA27BB2781709927AB
:10255000AA27BB274A815B8170E060E07A018B018A
:10256000E81AF90A0A0B1B0BD801C701A701FB8265
:10257000EA8222962C173D0731F75F77578F468FF7
:10258000DF91CF911F910F91FF90EF90DF90CF904F
:10259000BF90AF909F908F907F906F9008958F9293
:1025A0009F92AF92BF92CF92DF92EF92FF920F93E2
:1025B0001F93CF93DF93CDB7DEB7A0970FB6F894F4
:1025C000DEBF0FBECDBFFC019C01AE014F5F5F4F70
:1025D000BC01605E7F4F8A01A3E18A2E912CA12C61
:1025E000B12CD901ED90FD909D01D501C4018E0D56
:1025F0009F1DA11DB11D6C017D01D801CD92DD9201
:102600008D014701AA24BB242617370751F72F8DC8
:1026100038A17901FF0CEE08FE2CC701809590953A
:102620003F7738A32F8F00811181DA012D913D91E1
:10263000AD01202731272E213F212027312721934B
:1026400031936E177F0779F7A0960FB6F894DEBF27
:102650000FBECDBFDF91CF911F910F91FF90EF90F3
:10266000DF90CF90BF90AF909F908F9008958F9202
:102670009F92AF92BF92EF92FF92CF93DF93FB01B5
:10268000EA01DC019B01205E3F4F40E050E0BA01CF
:10269000E190F19089909990B12CA12C8E0C9F1C07
:1026A000A11CB11C480D591D6A1D7B1D4D935D93E6
:1026B000AB0166277727E217F30751F7DF91CF9138
:1026C000FF90EF90BF90AF909F908F900C94CF129F
:1026D0002F923F924F925F926F927F928F929F9232
:1026E000AF92BF92CF92DF92EF92FF920F931F9320
:1026F000CF93DF934C01FB01C68DD78D2D2F221F69
:102700002227221F30E0A3E1B0E00E9406356B01D2
:102710007C01DF77D78FC68F1F018F0150E05801F2
:102720000E5F1F4FD50190962D913C91A6E2B0E02F
:102730000E940635E501288139812B013C01420EBA
:10274000531E611C711CC40CD51CE61CF71CD8015F
:102750001297CD92DC926701EE24FF245F5F451350
:10276000DECF5031C1F0A52FB0E0AA0FBB1FED01A5
:10277000CE0FDF1F89919991C80ED91EE11CF11C63
:10278000CE010297DC01CD92DC926701EE24FF249A
:102790005F5F503179F7A6E2B0E0A70196010E9491
:1027A000D1346B017C01468D578D252F221F2227A6
:1027B000221F30E0A3E1B0E00E9406356C0D7D1DC4
:1027C0008E1D9F1D5F77578F468F9F01205E3F4F65
:1027D000DF014D915D91640F751F811D911DAD014C
:1027E00042505109EA0179836883BC0188279927FF
:1027F0002A173B0771F79F0143E150E060E070E06A
:10280000E901899199919E01480F591F611D711D20
:102810005F8F4E8FAB0166277727A217B30781F72B
:1028200086AD97ADAC01550F440B542F9F7797AFF2
:1028300086AFF401D1016D917D911D015E968D9160
:102840009C915F9786279727842395238627972730
:10285000819391932A173B0769F7DF91CF911F91DD
:102860000F91FF90EF90DF90CF90BF90AF909F902F
:102870008F907F906F905F904F903F902F90089532
:102880002F923F924F925F926F927F928F929F9280
:10289000AF92BF92CF92DF92EF92FF920F931F936E
:1028A000CF93DF93CDB7DEB7C454D1090FB6F894F8
:1028B000DEBF0FBECDBF6C011B01DB01AD90BC9034
:1028C000FE0131964A01B0E28B0E911C7A01412C37
:1028D000512C32012296EFAF22972396FFAF239718
:1028E000D7012D913D917D01D5010E940635460EFF
:1028F000571E681E791E4192519223016624772447
:102900008E149F0469F75AA249A27101B2E0EB0E3E
:10291000F11CFE01B39680E2280E311CD7014D90C8
:102920005D907D018F01005211093A01812C912C9B
:102930005401D3012D913D913D01D2010E940635F4
:10294000D8012D913D912596BFAFAEAF2597620F6F
:10295000731F811D911D860E971EA81EB91ED801DA
:102960008D929C924501AA24BB2425960EAD1FADE5
:1029700025970E171F07E9F6F801819291922E1400
:102980003F0461F640E122966FAD229723967FAD1A
:102990002397C6010E946813CC5BDF4F0FB6F894F3
:1029A000DEBF0FBECDBFDF91CF911F910F91FF9082
:1029B000EF90DF90CF90BF90AF909F908F907F90DF
:1029C0006F905F904F903F902F9008951F93CF93FB
:1029D000DF93DC015F961C915F9730E020E080E0A0
:1029E00060E071E0F901E557FF4F949191279F77DF
:1029F000F901E657FF4FED016F9644915A91452733
:102A0000942B3197AC17BD07C1F7AB01491B510996
:102A1000852B205E3F4F203A310521F7DF91CF9182
:102A20001F910895AB010C944014680F791FFC01AD
:102A30001082019668177907D1F70895CF93DF9335
:102A4000EC0160E270E009960E9415151D821E825D
:102A50001F828FEF93E09AA789A71CA61BA61EA62C
:102A60001DA618AA1FA6DF91CF910895CF93DF93DB
:102A7000EC018C810E94E50829A53AA582179307ED
:102A800014F49AA789A72BA53CA52817390714F495
:102A90009CA78BA74A815B819A01281B390B2227AF
:102AA000330F221F33276DA57EA560FF37C09D81A0
:102AB000921791F08E81803278F4FE01E80FF11DBB
:102AC0009185990F922B91879F819F5F9F8398306B
:102AD00018F08F5F8E831F828FA598A9820F931F96
:102AE00098AB8FA76F5F7F4F7EA76DA7611574406E
:102AF00094F02BA53CA569A57AA5261B370B203899
:102B0000310574F4CE010E941E1581E0888780E0B3
:102B100092E09B838A83DF91CF9108952D83DCCF50
:102B20009C012C5C314028363105C0F44E8148317F
:102B300080F050E09A01220F331F220F331FE881EB
:102B4000F9810284F385E02DBE01675F7F4FCE01DE
:102B50000995CE010E941E151886DDCF9C013A957D
:102B600021303240E8F020E032E0B901681B790BF7
:102B7000CB0177FD079623E0959587952A95E1F798
:102B8000481B590B5B834A838A819B8197FF11C045
:102B90001B821A82CE010E941E1581E08887BBCF5E
:102BA000811592401CF441505109ECCF4F5F5F4FAB
:102BB000E9CF8115944074F38FEF93E09B838A8370
:102BC000E9CF2DE631E0FC01318320830C941E1502
:102BD0007F928F929F92AF92BF92CF92DF92EF92AD
:102BE000FF920F931F93CF93DF93CDB7DEB760971C
:102BF0000FB6F894DEBF0FBECDBF5C0180E1FB01D4
:102C0000DE01119601900D928A95E1F7F501128A85
:102C1000138A148A158A168A178A108E118E128EBC
:102C2000138E148E158E178E168E11A210A212A25C
:102C300013A214A215A216A217A210A611A613A6DB
:102C400012A615A614A616A617A610AA11AA12AAAD
:102C500013AA14AA15AA16AA17AA10AE11AE12AE7C
:102C600013AE4501F2E08F0E911CF50142815381B4
:102C700064817581CC24CA94DC2C76010FEF1FEFA0
:102C80009801C4010E94DF0BF501468157816085E0
:102C900071850FEF1FEF9801C4010E94DF0BF50152
:102CA00042855385648575850FEF1FEF9801C40138
:102CB0000E94DF0BF50146855785608971890FEF0A
:102CC0001FEF9801C4010E94DF0B49815A816B817B
:102CD0007C810FEF1FEF9801C4010E94DF0B4D8133
:102CE0005E816F8178850FEF1FEF9801C4010E940C
:102CF000DF0B49855A856B857C850FEF1FEF9801A7
:102D0000C4010E94DF0B4D855E856F8578890FEFCA
:102D10001FEF9801C4010E94DF0BF501428153812E
:102D200064817581F1E04F270FEF1FEF9801C40117
:102D30000E94DF0BF50146815781608571850FEF99
:102D40001FEF9801C4010E94DF0BF50142855385F6
:102D5000648575850FEF1FEF9801C4010E94DF0B9A
:102D6000F50146855785608971890FEF1FEF98013E
:102D7000C4010E94DF0B2BE0722EF50142815381CA
:102D800064817581CC24CA94DC2C76010FEF1FEF8F
:102D90009801C4010E94DF0BF501468157816085CF
:102DA00071850FEF1FEF9801C4010E94DF0BF50141
:102DB00042855385648575850FEF1FEF9801C40127
:102DC0000E94DF0BF50146855785608971890FEFF9
:102DD0001FEF9801C4010E94DF0B7A947110CDCFD0
:102DE00060E170E0CE0101960E94151581E06096C9
:102DF0000FB6F894DEBF0FBECDBFDF91CF911F910C
:102E00000F91FF90EF90DF90CF90BF90AF909F9089
:102E10008F907F9008954031510511F40C94E8157E
:102E200080E008956AE370E002960C941515EF9225
:102E3000FF920F931F93CF93DF93CDB7DEB76097C9
:102E40000FB6F894DEBF0FBECDBF10E04131510583
:102E500030F58A017B01DC01ED91FC910688F78950
:102E6000E02DBE016F5F7F4F0995DE011196F701DE
:102E70000E0D1F1D20E0E017F10729F08D919191B3
:102E80008927282BF8CF80E091E0821B9109192F28
:102E9000117060E170E0CE0101960E941515812F3E
:102EA00060960FB6F894DEBF0FBECDBFDF91CF9115
:102EB0001F910F91FF90EF9008952FE431E0FC01F6
:102EC00021933193CF016AE370E00C94151560E211
:102ED00070E00C941515FC01208131818281938171
:102EE0002817390719F0822F0C9468080895CF939A
:102EF000DF93EC018CB58F7D8CBD8CB5837F8CBD51
:102F00008CB58C7F8CBD8DB581608DBD8A810E9412
:102F100068088C899D89DF91CF910C94D70661E078
:102F20000C94771760E00C9477178EBD00000DB4F9
:102F300007FEFDCF8EB508951F93CF93DF93EC016D
:102F40000E94921781EE0E949517182FCE010E94C1
:102F50008F17812FDF91CF911F9108950F931F93AA
:102F6000CF93DF938C01C62FD42F0E9492178C2F02
:102F70008F7180620E949517C82F8D2F0E94951720
:102F8000C8010E948F178C2FDF91CF911F910F9155
:102F90000895CF92DF92EF92FF920F931F93CF93FA
:102FA000DF937C01C62F6A01122F0E9492178C2F8B
:102FB0008F7180620E949517082FE601115020F052
:102FC00089910E949517FACFC7010E948F17802F11
:102FD000DF91CF911F910F91FF90EF90DF90CF90F5
:102FE00008951F93CF93DF93EC01162F0E94921741
:102FF000812F0E9495178FEF0E949517182FCE01F1
:103000000E948F17812FDF91CF911F91089560E06B
:1030100080E693E00E946B1760E080E693E00E94F8
:10302000F117482F4D7F60E080E693E00C94AE17D7
:10303000CF93DF93C82FAB01813059F5ECE7F1E076
:10304000649120916E0380E693E00E94C917D0E05E
:10305000FE01EB58FE4F64914091670380E693E0D8
:103060000E94AE1762E080E693E00E94F117FE0135
:10307000E159FE4FE49141E050E001C0440FEA9570
:10308000EAF7482B62E080E693E0DF91CF910C9461
:10309000AE17EDE7F1E0649121E0D5CF0F931F93D8
:1030A000CF938C0166E080E693E00E94F117C82F71
:1030B000C77D85E590E0A0E0B0E00230110529F47D
:1030C000C0628BE990E0A0E0B0E080937003909341
:1030D0007103A0937203B09373034C2F66E080E6F4
:1030E00093E00E94AE1766E080E693E00E94F1173D
:1030F00091E0C81390E0892FCF911F910F9108950F
:103100000F931F93CF938C01C62F66E00E94F11797
:10311000887FC43058F4CC0FCF5F4C2F482B66E02B
:10312000C801CF911F910F910C94AE17C7E0F5CF56
:10313000CF93DF93EC0160E00E94F11781FD0EC098
:10314000482F426060E0CE010E94AE1765E070E05B
:1031500080E090E0DF91CF910C941F09DF91CF9137
:103160000895CF93DF93EC0160E00E946B1788898C
:1031700099890E94D7066DE1CE010E94F11781FF67
:1031800007C0888999890E94D706CE010E949C17A2
:1031900060E0CE010E94F117482F4E7F60E0CE0123
:1031A0000E94AE1762E0CE010E94F117EFE6F1E057
:1031B000E49141E050E001C0440FEA95EAF7482B62
:1031C00062E0CE01DF91CF910C94AE17CF93DF93E5
:1031D000EC010E94981860E0CE010E94F117482F80
:1031E000416060E0CE010E94AE1740E767E0CE018B
:1031F0000E94AE1761E0CE010E946B17898588237B
:1032000099F02E85AE01475F5F4F6AE0CE010E94C4
:10321000C9176DE1CE010E94F11781FF1AC0CE01DE
:10322000DF91CF910C949C1762E0CE010E94F117C0
:10323000EFE6F1E0E49121E030E001C0220FEA95F1
:10324000EAF72095422F482362E0CE010E94AE1794
:10325000E0CFDF91CF9108954F925F926F927F926E
:103260008F929F92AF92BF92CF92DF92EF92FF9296
:103270000F931F93CF93DF93982E892E10923504CE
:10328000809113048F5F8093130486E0E82E98E208
:10329000A92EBB24B394F0903504F1108CC0EA94AD
:1032A000EE2009F488C08091D0039091D1030E9450
:1032B000B118C091D003D091D1031F81012F1132D9
:1032C00008F000E28885101B811110E0CE010E94F9
:1032D000921780EB0E949517C92CD82C015030F022
:1032E000F60181916F010E949517F8CF115020F0DF
:1032F00080E00E949517FACFCE010E948F1761E0FF
:10330000CE010E946B170E94EE092B013C01CE01F9
:103310000E9492178FEF0E949517182FCE010E94DE
:103320008F171073B1F50E94EE09641975098609AB
:103330009709603671058105910548F381E08F8713
:10334000F092350468E08091D0039091D1030E94FF
:10335000F11720910F0430911004215F3F4F3093FB
:10336000100420930F048F702091110430911204E7
:10337000820F932F911D90931204809311048091DA
:10338000D0039091D1030E94E618C5010197F1F78F
:1033900082CF60E0CE010E946B1740E767E0CE016C
:1033A0000E94AE1784FF04C0CE010E949C17C8CFB4
:1033B000FF24F394C5CF8F2DDF91CF911F910F91F3
:1033C000FF90EF90DF90CF90BF90AF909F908F9045
:1033D0007F906F905F904F900895CF93DF93EC01B3
:1033E000BC016C5F7F4F2CE130E0AB0182ED93E0DC
:1033F0000E94F910CE01DF91CF910C942C19CF923D
:10340000DF92EF92FF920F931F930E94EE090091BB
:103410000A0110910B0120910C0130910D016B01FB
:103420007C01C01AD10AE20AF30A97018601409191
:1034300008015091090170E060E081E040175107F8
:103440006207730708F080E01F910F91FF90EF90E3
:10345000DF90CF900895FC0121893289232B81F4DC
:1034600020E030E040E251E4628173818481958103
:103470000E9479360E948C35CB01693E734010F072
:103480008FEF90E00895CF93DF93EC0189899A89BB
:1034900060E070E8892B61F420E030E040E251E424
:1034A0006E817F81888599850E9479360E948C354E
:1034B000CB018C509E4F893E9340B8F48B899C89F8
:1034C000811520E8920759F0861B970B97FF03C0E0
:1034D000919581959109C39714F060E070E87C8B19
:1034E0006B8BCB01DF91CF91089560E070E8F9CF4D
:1034F000FC018185833091F4448155816681778117
:10350000483B8BE0580761057105D8F081E04C3AE3
:103510005D4061057105A0F080E012C08230E1F7E6
:103520004481558166817781443B9AE05907610562
:10353000710530F081E0473D5A406105710560F743
:10354000089582E0089565E0FC01848195810C94E2
:10355000F11766E0FC01848195810E94F11790E0EB
:1035600095958795837008951F93CF93DF93EB0113
:1035700091E09093850297E79093A70210928602BC
:103580001092A802682F86E493E00E94820A0E94AB
:10359000260182E00E94830110921F0280931E0286
:1035A00086E493E00E943B0A182F86E493E00E9491
:1035B0003B0A20E0822B912B99838883DF91CF9166
:1035C0001F910C9426010F931F93CF93DF9300D08C
:1035D000CDB7DEB78C018EE20E94B10A65E070E0E3
:1035E00080E090E00E941F09BE016F5F7F4F86EF71
:1035F0000E94B41A89819A81B0E0A0E0F80180832A
:103600009183A283B3830F900F90DF91CF911F918D
:103610000F9108950F931F93CF93DF9300D0CDB7F1
:10362000DEB78B01BE016F5F7F4F0E94B41A8981A4
:103630009A81F801918380830F900F90DF91CF9151
:103640001F910F910895CF93DF93EB0191E0909339
:10365000850297E79093A702109286021092A80223
:10366000682F86E493E00E94820A0E94260181E08E
:103670000E94830110921F0280931E0286E493E051
:103680000E943B0A8883DF91CF910C9426012F92F0
:103690003F924F925F926F927F928F929F92AF92E2
:1036A000BF92CF92DF92EF92FF921F93CF93DF935F
:1036B000CDB7DEB72B970FB6F894DEBF0FBECDBFE8
:1036C0001B0119821A821B821C82CE0101960E9464
:1036D000E31A10912002812F8295880F880F807C39
:1036E0008C5C0E94B10A68E070E080E090E01130EC
:1036F00081F065E070E080E090E0113050F06EE025
:1037000070E080E090E0123021F06AE170E080E04B
:1037100090E00E941F09BE016B5F7F4F86EF0E9401
:10372000B41A8D809E80B12CA12CBA2CA92C982C77
:103730008824BE01695F7F4F88EF0E94231B8F8121
:10374000880E911CA11CB11C80912C0290912D021D
:1037500029813A814B815C81281B390B4109510930
:10376000A0912A02B0912B020E94D1342B013C017E
:10377000AFE07594679457944794AA95D1F76091F8
:10378000340270913502072E000C880B990BBBE0B8
:10379000660F771F881F991FBA95D1F720913602BF
:1037A00030913702032E000C440B550B240D351DB0
:1037B000461D571D0E94B234420E531E641E751ED4
:1037C00020EA421A2FE0520A61087108A30192010F
:1037D000C301B2010E94E6366B017C018CE0F594D6
:1037E000E794D794C7948A95D1F7A0912602B09117
:1037F00027020E94DC349B01AC019DE05595479562
:10380000379527959A95D1F7288739874A875B8717
:10381000A0912E02B0912F02A70196010E94DC34E4
:103820009C01552737FD5095452F88859985AA8598
:10383000BB85280F391F4A1F5B1F2E5F3F4F4F4F1D
:103840005F4F62E055954795379527956A95D1F773
:1038500030584F4F5F4FA0912802B09129020E942B
:10386000D1349B01AC017FE056954795379527955C
:103870007A95D1F7288739874A875B8788E090E077
:10388000811B910904C0B594A794979487948A9555
:10389000D2F7A0913002B0913102A70196010E94A7
:1038A000DC346B017C01EBE0F594E794D794C7948A
:1038B000EA95D1F7A0912402B0912502A3019201CB
:1038C0000E94DC34FBE09595879577956795FA958E
:1038D000D1F7C60ED71EE81EF91E809122029091E4
:1038E0002302092E000CAA0BBB0B22E0880F991FA4
:1038F000AA1FBB1F2A95D1F78C0D9D1DAE1DBF1DA4
:103900006C017D01012E04C0CC0CDD1CEE1CFF1CE3
:103910000A94D2F732E0C30ED11CE11CF11C32E054
:10392000F594E794D794C7943A95D1F7A5019401FB
:103930002C193D094E095F0960E573EC80E090E0C9
:1039400004C095958795779567951A95D2F70E944B
:10395000E63697FD61C0660F771F881F991F28857F
:1039600039854A855B850E94E43469017A0199278B
:10397000F7FC9A958F2D7E2D6D2D9B01AC010E9439
:10398000E6369B01AC01AEEDBBE00E94D1344B01A9
:103990005C01A3E4B3EEA70196010E94DF34BC01F1
:1039A000992777FD9095892F4501BB2497FCB0940A
:1039B000AB2C680D791D8A1D9B1D6153714F8F4F74
:1039C0009F4F44E095958795779567954A95D1F7F0
:1039D0006C0D7D1D8E1D9F1D0E94C435D1016D9300
:1039E0007D938D939C9313972B960FB6F894DEBF1F
:1039F0000FBECDBFDF91CF911F91FF90EF90DF9071
:103A0000CF90BF90AF909F908F907F906F905F907E
:103A10004F903F902F900895288539854A855B8582
:103A20000E94E43469017A01CC0CDD1CEE1CFF1C01
:103A30009ECFFC0101900020E9F73197AF01481BB0
:103A4000590BBC0189EA92E00C9440078F929F9237
:103A5000AF92BF920F931F93CF93DF93CDB7DEB793
:103A6000A1970FB6F894DEBF0FBECDBF19A24230AA
:103A700008F44AE08E010F5D1F4F842E912CB12C6B
:103A8000A12CA50194010E94E434E62FB901CA01DA
:103A9000EA30F4F4E05DD801EE938D01232B242B62
:103AA000252B79F790E080E0109719F0CD010E9466
:103AB000191DA1960FB6F894DEBF0FBECDBFDF91E2
:103AC000CF911F910F91BF90AF909F908F900895CD
:103AD000E95CE1CFEF92FF920F931F93CF93DF93B7
:103AE0007C018C01CFE0D0E0CE010E949234F8013D
:103AF00081938F012196CF31D105B1F7C701DF91B5
:103B0000CF911F910F91FF90EF9008950F931F9306
:103B1000CF93DF93CDB7DEB760970FB6F894DEBFD3
:103B20000FBECDBF8C01CE0101960E946A1D80E1BF
:103B3000FE013196D80101900D928A95E1F76096C9
:103B40000FB6F894DEBF0FBECDBFDF91CF911F91AE
:103B50000F910895EF92FF920F931F93CF93DF93EE
:103B60007C018C01C0E2D0E0CE010E949234F801C9
:103B700081938F012196C034D105B1F7C701DF9140
:103B8000CF911F910F91FF90EF900895CF93DF9306
:103B9000EB010E9492348883CE01DF91CF9108958A
:103BA0000F931F93CF93DF93C9E3D4E088A999A91A
:103BB000AAA9BBA90196A11DB11D88AB99ABAAAB5F
:103BC000BBABBE0189E794E00E94C50180E3E9E751
:103BD000F4E0A9E4B4E001900D928A95E1F70E9427
:103BE000FA080CA91DA92EA93FA9DC01CB01802749
:103BF0009127A227B3278CAB9DABAEABBFABDF91B8
:103C0000CF911F910F9108955F926F927F928F9243
:103C10009F92AF92BF92CF92DF92EF92FF920F935B
:103C20001F93CF93DF93CDB7DEB760970FB6F894AD
:103C3000DEBF0FBECDBF3B01542E852E5C0122E0BE
:103C4000A20EB11CFC0183AD811106C04FEF5FEFE6
:103C5000BA01C5010E94800F40E050E0BA01C501E1
:103C60000E94800F94E1992ECC24CA94DC2C76011A
:103C70000FEF1FEF980140E050E0BA01C5010E942C
:103C8000DF0B9A949110F0CF0FEF1FEF980140E0F7
:103C900050E0BA01C5010E94DF0B69837A838B83F0
:103CA0009C830FEF1FEF980140E050E0BA01C5017F
:103CB0000E94DF0B6D837E838F8398870FEF1FEF4A
:103CC000980140E050E0BA01C5010E94DF0B69870E
:103CD0007A878B879C870FEF1FEF980140E050E0B9
:103CE000BA01C5010E94DF0B6D877E878F87988B95
:103CF000452D582D4131510510F040E150E0BE01F5
:103D00006F5F7F4FC3010E94263860E170E0CE01F3
:103D100001960E94151560960FB6F894DEBF0FBE8F
:103D2000CDBFDF91CF911F910F91FF90EF90DF906A
:103D3000CF90BF90AF909F908F907F906F905F904B
:103D400008954031510551F4DC01129680E1FB01E8
:103D500001900D928A95E1F781E0089580E0089541
:103D60008091690490916A04A0916B04B0916C04F5
:103D70000196A11DB11D8093690490936A04A093DC
:103D80006B04B0936C0469E374E089E794E00E94EB
:103D9000C5014FE250E060ED73E089E794E00E94D6
:103DA0009A34E9E7F4E048EA54E06CEA8191682744
:103DB00028E0862F062E000C990B880F892F881F6C
:103DC000990B8D71660F6827215099F74E175F0781
:103DD00069F78FEF93E00E94A4340E94D01D0E94E7
:103DE000EE096093BB047093BC048093BD04909370
:103DF000BE0408950F931F93CF93DF938C01EB01C3
:103E0000CA0123E0969587952A95E1F786179707CB
:103E100040F0209731F0AB0183E0440F551F8A95A5
:103E2000E1F72091B9048091BA04382F3F7160E81E
:103E300071E0621B730B46175707C8F5240F351F37
:103E40002093B904932F9F71807E892B8093BA04AD
:103E5000209799F1CE01C133D10510F080E390E0B5
:103E6000C81BD90BA9E4B4E0F801800F911F319170
:103E70002C9123272D93E817F907C9F78F010E948A
:103E8000D01D209739F78091BA0485FF19C0209181
:103E9000B904382F3F712038314090F08F7D8093E6
:103EA000BA04DF91CF911F910F910C94B01E90E84E
:103EB0009093B904807E8160C9CF0E94D01DE3CF6A
:103EC000DF91CF911F910F910895CB01BA01A90104
:103ED0000C94FA1ECF92DF92EF92FF92CF93DF9372
:103EE000EC0140E150E063EE71E089E394E00E9470
:103EF000793440E350E063EB71E089E494E00E94A0
:103F0000793440E350E060ED73E089E794E00E948B
:103F10008234E9E7F4E048EA54E08CEA9191892799
:103F200098E0282F082E000C330B220F232F221F7E
:103F3000330B2D71880F8227915099F74E175F0729
:103F400069F79091A80498131CC0E9E4F4E029E70C
:103F500034E0C190D190E190F190AF01445051090B
:103F600084A595A5A6A5B7A5C826D926EA26FB2629
:103F7000DA01CD92DD92ED92FC9213972E173F0756
:103F800041F71092B9048091BA04807E80628093D8
:103F9000BA040E94D01D209769F0FE010190002014
:103FA000E9F73197BF016C1B7D0B50E040E0CE017B
:103FB0000E94FA1E50E040E063E170E081EA91E087
:103FC0000E94FA1EF894A89584B7877F84BF8091D9
:103FD000600088618093600080E480936000789442
:103FE0000E94B01E8091BA0480648093BA04DF916D
:103FF000CF91FF90EF90DF90CF900895CF92DF9216
:10400000EF92FF920F931F93CF93DF938C01EB01FD
:104010008091BA0486FD04C090E080E00E946A1F8F
:104020002091B9048091BA04382F3F71A901A3E00F
:1040300055954795AA95E1F74C175D0708F041C0E3
:104040001092B904807E8093BA048091BA0487FFED
:1040500047C050E040E070E060E090E080E00E9407
:10406000FA1E8091BA048F778093BA041092CC0420
:104070008091690490916A04A0916B04B0916C04E2
:104080000196A11DB11D8093690490936A04A093C9
:104090006B04B0936C0469E374E089E794E00E94D8
:1040A000C501AE0169E774E0C8010E942638DF91BE
:1040B000CF911F910F91FF90EF90DF90CF900C94D4
:1040C000D01DAE01F3E0440F551FFA95E1F7241B14
:1040D000350B2093B904932F9F71807E892BB3CF2A
:1040E000F89480913D02803208F43FC0209139025B
:1040F00030913A0240913B0250913C0210923902B9
:1041000010923A0210923B0210923C0210923D0231
:104110007894A9E0B0E00E94D1349B01AC01EBE0BF
:104120005695479537952795EA95D1F7262737274E
:1041300048275927A1E0B0E80E94D134C090490433
:10414000D0904A04E0904B04F0904C04DC01CB0189
:104150008C259D25AE25BF258093490490934A0464
:10416000A0934B04B0934C0483CF789481CFCF932A
:10417000DF93CDB7DEB7C055D1090FB6F894DEBFD7
:104180000FBECDBF209114042F5F2093140429E0AB
:1041900029A3E091CE03F091CF0320812AA31CA292
:1041A0001BA21EA21DA298A78FA3CE0189960E94D2
:1041B000861DCE0181960E942C198091350488239A
:1041C00009F463C080913804882309F460C060E179
:1041D00070E0CE018F5B9F4F0E94FE1F80913804DC
:1041E0008823A1F06AE370E084ED93E00E94151546
:1041F00040E150E065E174E082ED93E00E94A11E91
:1042000081112DC085EB91E00E94191D89E0898301
:10421000E091CE03F091CF0380818A8381E090E02A
:104220009C838B838EEF9FEF9E838D8380E1FE01C5
:10423000EF5BFF4FDE01179601900D928A95E1F733
:10424000CE0101960E942C1982E0C05BDF4F0FB6B1
:10425000F894DEBF0FBECDBFDF91CF910895BE01B0
:104260006F5B7F4F82ED93E00E94E815811103C0E0
:104270008DEB91E0C9CF46E150E0BE016F5D7F4F0D
:1042800082ED93E00E94D70AC1CF80E0DECF81E0CB
:10429000DCCFCF93DF93CDB7DEB7A0970FB6F894FE
:1042A000DEBF0FBECDBF99E09983E091CE03F091C0
:1042B000CF0390819A832FEF3FEF3C832B833E8384
:1042C0002D8390E098878F8380913804BE01675FCB
:1042D0007F4F8823A9F040E150E082ED93E00E94F7
:1042E000041E10923604CE0101960E942C19A0964D
:1042F0000FB6F894DEBF0FBECDBFDF91CF9108950A
:1043000080E1FB0111928A95E9F7EBCF0F931F93A0
:10431000CF93DF9300D000D0CDB7DEB78B01FB0188
:10432000349620E2DF011D922A95E9F744E250E03D
:1043300060E070E0F8014083518362837383DC01A5
:1043400013964D915D916D917C91169744835583A1
:104350006683778346E050E060E070E040875187F5
:1043600062877387108A118A128A138ABE016F5F6F
:104370007F4F0E94471B20E030E048EC52E4698107
:104380007A818B819C810E941A35D80154966D9355
:104390007D938D939C93579781E00F900F900F9092
:1043A0000F90DF91CF911F910F9108952F923F921F
:1043B0004F925F926F927F928F929F92AF92BF9235
:1043C000CF92DF92EF92FF920F931F93CF93DF93E1
:1043D000CDB7DEB7CB50D2400FB6F894DEBF0FBEDC
:1043E000CDBFC85FDD4F99838883C850D240C65F78
:1043F000DD4F79836883CA50D2404115510509F4D5
:10440000C9C280E2FA01DE01AF5BBF4F01900D929D
:104410008A95E1F7A1968EAD9FADA1979F77A19662
:104420009FAF8EAFA197CE018F5B9F4F0E94CF129F
:104430008170C95FDD4F8883C750D240CE018F594C
:104440009F4FFC0132962EE1DF011D922A95E9F77C
:1044500021E030E0FC01318320839E012F553F4F46
:1044600010E2D901E12F1D92EA95E9F7BE016F57DD
:104470007F4FFE01EF5BFF4FDB01412F01900D925B
:104480004A95E1F7AE014F535F4FFC01DA0101900D
:104490000D921A95E1F7FFEFCA5FDD4FF883C65022
:1044A000D240E12CAFE1CD5FDD4FA883C350D240B5
:1044B00010E4712E5B016C01942E852E8901C65F7C
:1044C000DD4FE881F981CA50D240CD5FDD4FB88120
:1044D000C350D240EB0FF11D60806720E624F12C21
:1044E000A501B601C7010E941D12492D582DB80122
:1044F000C7010E941D12A801B601CE018F519F4F26
:104500000E943713BE016F517F4FCE018F579E4FD0
:104510000E941215A801B601CE018F5F9E4F0E9426
:104520005112BE016F5F7E4FCE018F559E4F0E948C
:104530001215AE014F555E4FBE016F577E4FCE0133
:104540008F599E4F0E945112492D582DB501CE0111
:104550008F5D9E4F0E943713492D582DB501CE0116
:104560008F5B9E4F0E945112AE014F515F4FBE01B3
:104570006F5B7E4FCE018F539E4F0E944014AE0161
:104580004F5F5E4FBE016F5D7E4FCE018F519E4FDC
:104590000E944014AE014F515E4FBE016F537E4FDB
:1045A000C5010E943713B501C5010E941215AE0165
:1045B0004F515E4FBE016F537E4F892D982D0E9443
:1045C0005112692D782D892D982D0E941215AE015A
:1045D0004F5B5F4F692D782D892D982D0E944014D7
:1045E000AE014F555E4FBE016F577E4FC6010E9410
:1045F0004014E8E6F0E045915491FE01EF59FE4F7A
:10460000CC5FDD4FF983E883C450D240E056F140DF
:10461000B1E6EB2EFF24F394EC0EFD1E20E2E20E39
:10462000F11CCE018F599E4FCF5FDD4F9983888358
:10463000C150D240212C312C2101CF5FDD4FA88108
:10464000B981C150D2402D913D91CF5FDD4FB983EB
:10465000A883C150D240DA010E940635260E371ECB
:10466000481E591E21923192120144245524CF5FD5
:10467000DD4F28813981C150D240E216F306E9F6B8
:104680003AA229A2EAE6F0E0E590F490FE01339622
:10469000212C312C2101CC5FDD4FA881B981C45080
:1046A000D2402D913D91CC5FDD4FB983A883C4509A
:1046B000D240D7010E940635DF012D913D91AB011B
:1046C000BC01420F531F611D711D420D531D641D1E
:1046D000751D518340831B0144245524FD01CF5F88
:1046E000DD4F28813981C150D240CC5FDD4F8881B8
:1046F0009981C450D2402817390769F63CA22BA2F1
:1047000042E0BE016F5F7F4FC8010E946813AE0197
:104710004F575E4FB801C8010E943713AE014F5981
:104720005E4FB801C8010E9440147694E62CE694CE
:10473000711011C0CD5FDD4F9881C350D2409150B0
:10474000CD5FDD4F9883C350D240E62CE794EE2432
:10475000E79440E8742ECA5FDD4FA881C650D2406E
:10476000A150CA5FDD4FA883C650D240A111A7CE89
:10477000F12CA501B601C7010E941D12AE014F53D5
:104780005F4FBE016F557F4FC7010E941D12BE01D2
:104790006F557F4FCE0101960E94121539E0F32E1E
:1047A000BE016F5F7F4FCB010E941215FA94F1108A
:1047B000F7CFAE014F555F4FBE016F5F7F4FCE0108
:1047C0008F539F4F0E94401427E1F22E9AE0E92E6A
:1047D000BE016F5F7F4FCB010E941215EA94E1107A
:1047E000F7CFAE014F5F5F4FBE016F537F4FCB01DD
:1047F0000E944014FA94F110E9CFBE016F537F4F2D
:10480000CE0101960E941215AE014F5F5F4FBE01AF
:104810006F537F4FCB010E94401488E0F82EBE01F9
:104820006F5F7F4FCB010E941215AE014F5F5F4F4C
:10483000BE016F537F4FCB010E944014FA94F110D8
:10484000EECFCE0101960E946717BE016F537F4FD6
:10485000CB010E941215BE016F537F4FCB010E9406
:104860001215A801BE016F537F4FCB010E94401467
:10487000BE016F537F4FCB010E941215BE016F53D3
:104880007F4FCB010E941215A801BE016F537F4FCD
:10489000CB010E944014BE016F537F4FCB010E9499
:1048A0001215A801BE016F537F4FCB010E94401427
:1048B000AE014F535F4FB601C6010E94401480E223
:1048C000F601C85FDD4FA881B981C850D240019080
:1048D0000D928A95E1F7CE018F5B9F4F0E9467177B
:1048E000C6010E946717C5010E946717C8010E9490
:1048F0006717CE018F539F4F0E946717CE018F51CC
:104900009F4F0E946717CE018F5F9E4F0E946717CF
:10491000CE018F5D9E4F0E946717CE018F5B9E4F29
:104920000E946717CE018F599E4F0E946717CE01D4
:104930008F579E4F0E946717CE018F559E4F0E9442
:104940006717CE018F539E4F0E946717CE018F517C
:104950009E4F0E946717C95FDD4F8881C750D240C4
:10496000C55FDD4F0FB6F894DEBF0FBECDBFDF9140
:10497000CF911F910F91FF90EF90DF90CF90BF905C
:10498000AF909F908F907F906F905F904F903F90EF
:104990002F9008958EE1E1E4F0E0EC0FFD1F3296D8
:1049A000DF011D928A95E9F789E090E023969FAF99
:1049B0008EAF239738CD0E9421380C949837CF932F
:1049C000DF93EC010E94E115CE01DF91CF910C94B1
:1049D0009837CF93DF93EC010E945D17CE01DF91F2
:1049E000CF910C9498370F931F93CF93DF938C0143
:1049F000EB0188E2FB0111928A95E9F74BE050E068
:104A000064EC71E0CE010E942F381B8681E090E0BB
:104A1000A0E0B0E08C879D87AE87BF87F8018381D7
:104A20009481A581B681888B998BAA8BBB8B86E0FC
:104A300090E0A0E0B0E08C8B9D8BAE8BBF8B1CA276
:104A40001DA21EA21FA280E090E8A9E8B4E4888F0E
:104A5000998FAA8FBB8F80E090E0A6E9B3E48C8F9A
:104A60009D8FAE8FBF8F8AE097EDA3E2BCE388A352
:104A700099A3AAA3BBA3DF91CF911F910F91089592
:104A80001F920F920FB60F9211242F933F934F93C3
:104A90005F936F937F938F939F93AF93BF93EF93A6
:104AA000FF9389EA92E00E94BE07FF91EF91BF91C8
:104AB000AF919F918F917F916F915F914F913F91B6
:104AC0002F910F900FBE0F901F9018951F920F926D
:104AD0000FB60F9211242F938F939F93EF93FF9311
:104AE000E091B902F091BA028081E091BF02F091A9
:104AF000C00282FD1BC090818091C2028F5F8F73C4
:104B00002091C302821741F0E091C202F0E0E75524
:104B1000FD4F958F8093C202FF91EF919F918F91EE
:104B20002F910F900FBE0F901F9018958081F4CF9A
:104B30001F920F920FB60F9211242F933F938F93D2
:104B40009F93AF93BF938091120290911302A09113
:104B50001402B09115023091110226E0230F2D3777
:104B600058F50296A11DB11D2093110280931202E7
:104B700090931302A0931402B09315028091160231
:104B800090911702A0911802B09119020196A11DEF
:104B9000B11D8093160290931702A0931802B09350
:104BA0001902BF91AF919F918F913F912F910F90DB
:104BB0000FBE0F901F90189529E8230F0396A11D93
:104BC000B11DD2CF1F920F920FB60F9211242F93C7
:104BD0003F934F935F936F937F938F939F93AF9385
:104BE000BF93EF93FF93E0910201F09103010995C8
:104BF000FF91EF91BF91AF919F918F917F916F91B5
:104C00005F914F913F912F910F900FBE0F901F908A
:104C100018951F920F920FB60F9211242F933F9366
:104C20004F935F936F937F938F939F93AF93BF93B4
:104C3000EF93FF93E0910001F09101010995FF913D
:104C4000EF91BF91AF919F918F917F916F915F9104
:104C50004F913F912F910F900FBE0F901F9018957D
:104C60001F920F920FB60F9211242F933F934F93E1
:104C70005F936F937F938F939F93AF93BF93EF93C4
:104C8000FF938091B900887F803609F44AC0F0F51F
:104C9000883209F4A7C018F5803109F49BC0B8F434
:104CA000882309F4F9C0883009F494C0FF91EF918A
:104CB000BF91AF919F918F917F916F915F914F9134
:104CC0003F912F910F900FBE0F901F901895883134
:104CD00009F488C0803251F78093820214C0803476
:104CE00009F49DC040F48033B9F38833F9F680931A
:104CF000820285ECB0C0803509F485C0883509F49E
:104D000096C0883499F60E94FB09D0CF883909F4FF
:104D10008CC038F5883729F050F4883611F0803788
:104D200029F683E0809384021092100257C08838DD
:104D300009F47BC0803919F0803809F0B7CF809131
:104D40001002803208F071C0E091100281E08E0FF5
:104D5000809310028091BB00F0E0E051FE4F808311
:104D60003DC0803B39F0E0F4803A09F479C0883ADC
:104D700009F09CCF84E0809384021092EF0110929E
:104D8000EE01E0911C02F0911D0209958091EE0167
:104D900081110FC081E08093EE011092CE0109C015
:104DA000803C09F4A6CF883C09F4A3CF883B09F0E6
:104DB0007DCFE091EF0181E08E0F8093EF01F0E075
:104DC000E253FE4F80818093BB009091EF01809170
:104DD000EE0129C080915F028093BB0085EC809337
:104DE000BC0064CF9091810280918002981758F5A1
:104DF000E091810281E08E0F80938102F0E0E05A21
:104E0000FD4F8081E9CFE091810281E08E0F809398
:104E100081028091BB00F0E0E05AFD4F80839091C9
:104E20008102809180029817C8F285E8D8CFE0917E
:104E3000810281E08E0F809381028091BB00F0E0BF
:104E4000E05AFD4F80838091830281115CCF81E025
:104E500080935E0284EA8093BC001092840226CF85
:104E600085EC8093BC001092840280911002803205
:104E700030F4E0911002F0E0E051FE4F10826091BA
:104E8000100270E0E0911A02F0911B0280EF91E0B5
:104E90000995109210020ACF1092820234CF1F920D
:104EA0000F920FB60F9211242F934F935F936F932E
:104EB0007F938F939F93AF93BF93209184008091B2
:104EC000390290913A02A0913B02B0913C02820FCC
:104ED000911DA11DB11D8093390290933A02A093B8
:104EE0003B02B0933C028091390290913A02A0912A
:104EF0003B02B0913C024091390250913A026091DC
:104F00003B0270913C022AE0880F991FAA1FBB1F29
:104F10002A95D1F7840F951FA61FB71F80933902DA
:104F200090933A02A0933B02B0933C0280913902E5
:104F300090913A02A0913B02B0913C02409139021B
:104F400050913A0260913B0270913C0226E0B69586
:104F5000A795979587952A95D1F784279527A62712
:104F6000B7278093390290933A02A0933B02B09303
:104F70003C0280913D028F5F80933D02BF91AF91D3
:104F80009F918F917F916F915F914F912F910F9092
:104F90000FBE0F901F9018958BE991E09093CD0371
:104FA0008093CC0382ED93E00E945D178BE993E040
:104FB0000E94E115F894A89584B7877F84BFE0E646
:104FC000F0E08081886180831082789460E470E0F2
:104FD00089E394E00E94151560E470E089E794E0AD
:104FE0000C9415151F93CF93DF931F92CDB7DEB7A7
:104FF0001092AC021092AB0288EE93E0A0E0B0E019
:105000008093AD029093AE02A093AF02B093B00232
:1050100021E231E03093AA022093A90225EC30E08E
:105020003093B6022093B50224EC30E03093B802FE
:105030002093B70220EC30E03093BA022093B902FB
:1050400021EC30E03093BC022093BB0222EC30E034
:105050003093BE022093BD0226EC30E03093C002B4
:105060002093BF021092C2021092C3021092C40297
:105070001092C502109249031092480380934A038C
:1050800090934B03A0934C03B0934D0383E391E0C3
:1050900090934703809346031092B9048091BA0419
:1050A000807880628F778093BA041092BB0410924C
:1050B000BC041092BD041092BE0480E89EEEA6E3EC
:1050C000B0E08093BF049093C004A093C104B09358
:1050D000C2041092CB041092CC0483E991E0909327
:1050E0007903809378038EEF9FEF90938A038093E8
:1050F000890380E090E890938C0380938B0384E095
:105100008093870386E1809388038BE891E09093F6
:105110008E0380938D038DE791E0909390038093AD
:105120008F0385E697E2A0E0B0E08093920390932E
:105130009303A0939403B0939503109296038DE686
:1051400091E090939C0380939B0380E092E0909386
:105150009E0380939D038FE080939F0311E0109343
:10516000A30360E00E94B40860E08FE00E9468083A
:105170008BE993E00E941E1587E090E09093610315
:105180008093600388E090E09093630380936203D0
:105190001092660380E2809367031092680385E0B3
:1051A00080936E0385E090E0A0E0B0E0809374030C
:1051B00090937503A0937603B093770310926903DD
:1051C0008FEF80935D0310925E038BE991E09093E3
:1051D000CD038093CC038FE491E09093D30380932D
:1051E000D20310920D04EEE0F4E087E0DF011D929F
:1051F0008A95E9F71092350410933604109238041A
:1052000087E091E09093CF038093CE0380E693E014
:105210009093D1038093D003BE016F5F7F4F8EE0E8
:1052200090E00E94C61D81E09981913009F080E0F4
:105230008093370485E491E0909353038093520365
:10524000109254031092550310925A0310925B036C
:1052500010925C030F90DF91CF911F910895CF932F
:10526000DF93CDB7DEB7C155D1090FB6F894DEBFD5
:105270000FBECDBF789484B5826084BD84B5816053
:1052800084BD85B5826085BD85B5816085BD809111
:105290006E00816080936E00109281008091810089
:1052A0008260809381008091810081608093810081
:1052B000809180008160809380008091B100846043
:1052C0008093B1008091B00081608093B0008091A4
:1052D0007A00846080937A0080917A008260809363
:1052E0007A0080917A008E7F80937A0080917A0094
:1052F000806880937A001092C10061E086E00E948D
:10530000B40861E086E00E946808E091B902F0917B
:10531000BA0282E08083E091B502F091B602108279
:10532000E091B702F091B80288E080831092C10248
:10533000E091BD02F091BE0286E08083E091BB0265
:10534000F091BC02808180618083E091BB02F0918A
:10535000BC02808188608083E091BB02F091BC0236
:10536000808180688083E091BB02F091BC028081E3
:105370008F7D8083CE0101960E946A1D86E191E0B7
:105380000E942D08CE0101967C016E0191E1C90EAB
:10539000D11CD7011D917D01103120F483EB91E0E8
:1053A0000E94191D612F70E090E080E040E10E94B2
:1053B000261DEC14FD0469F78BEC91E00E94191D89
:1053C0008091BA0486FD04C0CE0101960E946A1F36
:1053D00069817A818B819C816115710581059105B7
:1053E00011F00E94703464E071E08AE090E00E9465
:1053F000C61D80E09DEDADE6B0E08093BF049093C4
:10540000C004A093C104B093C204E091CB04E43083
:1054100068F481E08E0F8093CB04F0E0EE0FFF1F65
:10542000ED53FB4F8BE993E09183808310921F0231
:1054300010921E02109286021092A802109284020C
:1054400011E01093830210925E0261E082E10E94FB
:10545000680861E083E10E9468088091B9008E7F4E
:105460008093B9008091B9008D7F8093B90080E26C
:105470008093B80085E48093BC008DE397E090931F
:105480001D0280931C028EE397E090931B02809391
:105490001A02BE016F5F7F4F80ED0E94231B89813E
:1054A000853509F430C11092960384E291E00E94A0
:1054B0002D088BEC91E00E94191D80916003909162
:1054C000610320916203309163038217930719F0FF
:1054D00061E00E94B408809162039091630320917F
:1054E0006003309161032817390719F061E00E94C9
:1054F000B4081FB7F89480912102811127C0E5E913
:10550000F1E08491E9EAF1E09491E82FF0E0EE0F08
:10551000FF1FE45CFE4FA591B491EC91E92321F4C7
:1055200061E08AE00E94680861E08AE00E94B408B5
:105530008CB580618CBD8CB580648CBD61E08DE0E4
:105540000E94B40861E08BE00E94B40880912102BF
:105550008F5F809321021FBF60E080E693E00E948E
:105560006B1761E080E693E00E94771765E070E0DA
:1055700080E090E00E941F094CE060E080E693E04C
:105580000E94AE174FE564E080E693E00E94AE17FC
:1055900082E090E00E944E18882319F081E0809309
:1055A000660366E080E693E00E94F11790E080E0F9
:1055B0000E944E1880E693E00E94921780E50E94B8
:1055C000951783E70E94951780E693E00E948F1756
:1055D00040E06DE180E693E00E94AE1740E06CE1B0
:1055E00080E693E00E94AE171092680340E767E000
:1055F00080E693E00E94AE174CE465E080E693E01D
:105600000E94AE1780E693E00E94921782EE0E94FD
:10561000951780E693E00E948F1780E693E00E9442
:105620009C1780E693E00E94981860E080E693E083
:105630000E94F117482F4E7F60E080E693E00E94C1
:10564000AE174EE565E080E693E00E94AE174FE3AB
:1056500061E080E693E00E94AE174FE464E080E6EC
:1056600093E00E94AE1782E090E00E944E1860E046
:1056700080E693E00E94F117482F4C6060E080E6DE
:1056800093E00E94AE1760E080E693E00E948018ED
:105690000E94071860E086E00E94680868EC70E0ED
:1056A00080E090E00E941F0961E086E00E946808A7
:1056B00086E491E00E942D080E94EE094AE00E94D3
:1056C000261D8BEC91E00E94191D812C80EC982EF8
:1056D00089E7A82E84ECB82E10E08091CB0418172F
:1056E00008F04EC0E12FF0E0EE0FFF1FED53FB4F2F
:1056F00080819181DC01ED91FC910680F781E02DA4
:1057000009951F5FEACF83E08093200262E272E096
:105710008AEA0E940A1B64E272E08CEA0E940A1B79
:1057200066E272E08EEA0E940A1B68E272E080EB99
:105730000E94B41A6AE272E082EB0E94B41A6CE230
:1057400072E084EB0E94B41A6EE272E086EB0E9473
:105750000A1B60E372E088EB0E940A1B62E372E0BE
:105760008AEB0E940A1B64E372E08CEB0E940A1B26
:1057700066E372E08EEB0E940A1B109396039DCEA7
:10578000F89480913D02803208F4EAC020913902F9
:1057900030913A0240913B0250913C021092390202
:1057A00010923A0210923B0210923C0210923D027B
:1057B0007894A9E0B0E00E94D1349B01AC011BE0D9
:1057C00056954795379527951A95D1F72627372768
:1057D00048275927A1E0B0E80E94D1342091B904AC
:1057E0004091BA04342F3F712C5F3F4F3F712138F5
:1057F000B1E03B0708F0A9C02093B904232F2F7113
:10580000342F307E232B2093BA04A091CC0424E0C3
:10581000A29FF0011124E75BFB4F008111812281DF
:105820003381AB01BC014027512762277327408396
:1058300051836283738391E09A0F9093CC0480919B
:10584000BA049C3008F488C01092CC048F778093FF
:10585000BA0450E040E070E060E090E080E00E9438
:10586000FA1E0E94EE090091BB041091BC04209125
:10587000BD043091BE04601B710B820B930B009131
:10588000BF041091C0042091C1043091C20460177C
:1058900071078207930710F00E94B01E80911304D5
:1058A000813140F480910F04909110048130914037
:1058B00008F476C066E08091D0039091D1030E94F5
:1058C000F117682F70E075956795162F137060912A
:1058D00011047091120490E080E00E94C2356B01C7
:1058E0007C0160910F047091100490E080E00E94B0
:1058F000C2359B01AC01C701B6010E941A356B018C
:105900007C0120E030E048EC52E40E9479360E94AD
:10591000933584E6861B80930E042AE939E949E52C
:105920005FE3C701B6010E9474361816DCF461E02B
:10593000133029F52AE939E949E15EE3C701B601E7
:105940000E94153587FF22C019C020E82093B904B2
:10595000242F207E216057CF80688093BA0481CFA6
:1059600078947FCF2AE939E949E15EE3C701B601BE
:105970000E94153587FF0AC0112341F06FEF610FB8
:105980008091D0039091D1030E948018109210044E
:1059900010920F041092120410921104109213042A
:1059A000109212010E94FF1980911101882309F4BD
:1059B0001BC380913802811117C380910E018111A0
:1059C00013C30E94FF19882309F40EC3109211011A
:1059D0008EE480937C0062E070E080E090E00E94C2
:1059E0001F0980917A00806480937A0080917A0008
:1059F00086FDFCCF8091780020917900322F282FEE
:105A0000032E000C440B550B64EB7BE281E190E02C
:105A10000E94B23469017A0180915403882379F09D
:105A20000E94E508DC01A70196010E94DC342FEFFB
:105A300033E040E050E00E94B23469017A01C09244
:105A40005603D0925703E0925803F0925903809185
:105A50005A038530F8F4B701A6014E545C40610941
:105A60007109443151406105710550F093E0A2E69F
:105A7000CA16ADE0DA06E104F10418F492E001C0C0
:105A800091E020915B03211159C090935B0381E069
:105A900080935A0380915B03813009F49BC083306B
:105AA00009F087C0B9E6CB16B0E1DB06E104F104EA
:105AB00008F090C0EFE6CE16EFE0DE06E104F10458
:105AC00008F443C0A70196012E563F4041095109F1
:105AD000A4E1B0E00E94D1342AEF30E040E050E091
