:100000000C9495010C94BD010C94BD010C94BD01A0
:100010000C94BD010C94BD010C940F080C94BD010F
:100020000C94BD010C94BD010C94BD010C94BD0158
:100030000C94BD010C94BD010C94BD010C94BD0148
:100040000C94D3100C94BD010C94A50F0C947F0F4D
:100050000C94BD010C94BD010C94BD010C94BD0128
:100060000C941D110C94BD01486172647761726536
:10007000206661696C75726520646574656374657A
:100080006420004E6F7576656175206E6F64652023
:100090006964207265637520646520444843503A62
:1000A0002000526571756574652044484350207482
:1000B00072616E736D697365000000000024002793
:1000C000002A000000000023002600290004040488
:1000D00004040404040202020202020303030303F1
:1000E00003010204081020408001020408102001CE
:1000F0000204081020000102030405111213141554
:10010000160A0B0C0D0E0F50415F4D415800504127
:100110005F484947480050415F4C4F570050415F8E
:100120004D494E003136206269747300382062698F
:1001300074730044697361626C6564006E52463288
:10014000344C30312B006E524632344C3031003258
:1001500035304B42505300324D42505300314D42E6
:10016000505300555549442073656E736575722070
:10017000004E6F646549442073656E736575722027
:1001800000424D503A204572726575722C206465AC
:10019000736163746976652E005354415455530955
:1001A00009203D203078253032782052585F445263
:1001B0003D25782054585F44533D2578204D4158C3
:1001C0005F52543D25782052585F505F4E4F3D2579
:1001D000782054585F46554C4C3D25780D0A005008
:1001E0004120506F77657209203D2025530D0A008C
:1001F0001D0116010E010701435243204C656E6735
:10020000746809203D2025530D0A0033012C012478
:10021000014D6F64656C0909203D2025530D0A00CE
:1002200046013C0144617461205261746509203DBE
:100230002025530D0A005D0157014F0144594E50CE
:10024000442F4645415455524500434F4E46494779
:10025000090052465F53455455500052465F43488B
:100260000900454E5F52584144445200454E5F419B
:1002700041090052585F50575F50302D3600545896
:100280005F41444452090052585F414444525F5018
:10029000322D350052585F414444525F50302D3169
:1002A000005072657400436F6E6E6578696F6E20E2
:1002B0006D65736820636F6D706C65746500436F66
:1002C0006E6E6578696F6E206D6573682061766506
:1002D00063206E6F64654964200044485420457271
:1002E000726F723A0000000000250028002B000009
:1002F00000000800020100000304070000000000E5
:100300000000000D0A0025303278002030780025EA
:100310005309203D000D0A00203078253032780046
:10032000255309203D00F31DF21D11241FBECFEF00
:10033000D8E0DEBFCDBF11E0A0E0B1E0EEE0F6E531
:1003400002C005900D92A238B107D9F725E0A2E8C6
:10035000B1E001C01D92AA31B207E1F711E0C4E992
:10036000D1E004C02197FE010E94A22AC339D1071F
:10037000C9F70E94A61E0C94FA2A0C940000089556
:10038000FC0121893289232B71F420E030E040E226
:1003900051E462817381848195810E94052A0E94C3
:1003A0001D29CB0108958FEF90E00895FC0121896C
:1003B0003289232B71F420E030E040E251E4668181
:1003C0007781808591850E94052A0E941D29CB0195
:1003D000089580E090E80895FC0145815681678189
:1003E0007085DB01CA0189549D40A109B10983369A
:1003F0009105A105B10540F081E04E3B5A406105F1
:10040000710518F080E0089581E00895FC014581B0
:100410005681678170854934FDE05F07610571058C
:1004200028F1433D8FE058076105710508F046C08B
:100430004B30EFE05E0761057105E0F54334FEE007
:100440005F0761057105C0F19A01AB0120553109C3
:1004500041095109A0E7BEEF0E9439282DE330EF92
:100460004FEF5FEF0E940C2880E522C0DB01CA013C
:1004700080589C40A109B109893C9105A105B105AD
:10048000E8F0433A8AE0580761057105C8F09A011F
:10049000AB012456310941095109A7E8BEEF0E947A
:1004A000392824EE33EF4FEF5FEF0E940C2884E6EB
:1004B000820F089580E508958FE0089584E60895F9
:1004C00080E00895FC01658176818781908508959B
:1004D000FC01848595850895FC01828593850895A6
:1004E0008F929F92AF92BF92EF92FF920F931F93C2
:1004F000CF93DF93CDB7DEB72A970FB6F894DEBF60
:100500000FBECDBFFC017A876987262F372F2F3F7B
:100510008FEF380711F482811CC02115310509F4D1
:1005200064C0808191810097B1F4558140E001C0A1
:100530004F5F451709F456C0A381B481A80FB91FB6
:10054000039611966D917C9112976217730781F74C
:100550008C9190E04CC08432994009F443C07F01F3
:100560001C821B8280910101909102019C012F5FEE
:100570003F4F30930201209301019E838D8386ECCF
:100580008F8308E310E022E030E0AE01475F5F4F69
:10059000BE016F5F7F4F808591850E94521988232D
:1005A00009F10E94C7104B015C01F701808591851C
:1005B0000E944717863C71F00E94C710DC01CB01F6
:1005C00088199909AA09BB098E379105A105B105BA
:1005D00060F308C0D7011896ED91FC9119978785B3
:1005E000908905C08FEF9FEF02C080E090E02A96CF
:1005F0000FB6F894DEBF0FBECDBFDF91CF911F9134
:100600000F91FF90EF90BF90AF909F908F900895C3
:100610004F925F926F927F92AF92BF92DF92EF9272
:10062000FF920F931F93CF93DF93CDB7DEB7299738
:100630000FB6F894DEBF0FBECDBF7C01DC0118966B
:100640008D919C9119970E944717D82EF7018081B0
:1006500091818432994009F4CFC023ECD21204C0B6
:1006600081E0D7011A968C93F70182818111C4C071
:100670008D2D8D7F843C09F09EC00084F185E02D96
:100680005F0127E0A20EB11C878190859287818748
:10069000978584ECD81278C09987D70112968C91EF
:1006A0001297811118C015964C9120E030E0841704
:1006B00009F44BC0D7011396ED91FC911497E20F0A
:1006C000F31F2D5F3F4F5081591303C081819281E9
:1006D0004DC08F5FECCF992309F446C01C821B826A
:1006E00080910101909102019C012F5F3F4F309357
:1006F0000201209301019E838D83DF8208E310E0D5
:1007000022E030E0AE01475F5F4FBE016F5F7F4F79
:10071000CF010E9452198823C1F00E94C7102B01FB
:100720003C01F701808591850E944717843C81F048
:100730000E94C710DC01CB0184199509A609B709ED
:1007400087399105A105B10560F38FEF9FEF0EC0CA
:10075000D7011896ED91FC9119978785908997FF9D
:1007600005C08EEF9FEF02C080E090E09A838983FE
:1007700008E310E022E030E0AE014F5F5F4FB501CB
:10078000F7018085918514C0692F70E0C7010E9430
:1007900070029A83898308E310E022E030E0AE0122
:1007A0004F5F5F4FB501D70118968D919C911997B6
:1007B0000E94521921C0B5ECDB121EC0F701A085C2
:1007C000B18580E0F70195818917B0F4F7012381A5
:1007D0003481F90193E0899FE00DF11D11244181DD
:1007E000528117962D913C9118974217530711F497
:1007F000128211828F5FE6CF8D2D29960FB6F89465
:10080000DEBF0FBECDBFDF91CF911F910F91FF9043
:10081000EF90DF90BF90AF907F906F905F904F9080
:1008200008950C94B226FC0120813181828193814C
:100830002817390719F0822F0C94D70F0895CF93FA
:10084000DF93EC019CB59F7D9CBD9CB5937F9CBDC7
:100850009CB59C7F9CBD9DB591609DBD8A810E9489
:10086000D70F8C899D89DF91CF910C945F1060E048
:100870000C941F048EBD00000DB407FEFDCF8EB595
:1008800008952F923F924F925F926F927F928F9234
:100890009F92AF92BF92CF92DF92EF92FF920F930F
:1008A0001F93CF93DF93CDB7DEB768970FB6F89459
:1008B000DEBF0FBECDBF7C012A013B0167E1DC0139
:1008C00016968D919C9117970E943A1580FD03C052
:1008D00080E090E072C1F701868197810E94AE1599
:1008E000D7011896ED91FC91199782A5826082A795
:1008F0006AE070E080E090E00E948D1064E279E0B0
:10090000F701808591850E94370984E299E0D7013B
:100910008D939C930E94C7104B015C01212C312CBC
:10092000E0E4F0E0FC87EB87809101019091020107
:100930009C012F5F3F4F30930201209301019E875E
:100940008D87F2ECFF87D70118968D919C911997AE
:10095000FC0122A933A93A872987332089F0232D66
:1009600030E021503109A901440F551F240F351FD4
:1009700001E010E002C0000F111F2A95E2F702C04B
:1009800000E010E020E030E040E050E0BE01675FB2
:100990007F4F0E9452190E94C710698B7A8B8B8BF4
:1009A0009C8BD12CD70118968D919C9119970E9400
:1009B0004717823C99F4FE013196ED0DF11DED0DC6
:1009C000F11DD70118968D919C911997DC0117960E
:1009D0008D919C91189791838083D3940E94C71026
:1009E000DC01CB0129893A894B895C89821B930BF5
:1009F000A40BB50BC897A105B10520F433E03D1554
:100A000088F633C0D11031C00E94C710DC01CB0181
:100A100088199909AA09BB09481659066A067B066E
:100A200008F456CF222D30E02F5F3F4F832D90E00A
:100A30000196289FB001299F700D389F700D1124D9
:100A4000675E7F4F660F771F072E000C880B990B90
:100A50000E948D1081E0830D8370382E81E0820D1D
:100A60006AE00E94822A292E5BCFC12C198ACD14FC
:100A700008F046C043EC4F87D70112968C9112972D
:100A8000888BFE013196EC0DF11DEC0DF11D0081FE
:100A900011811C870B8720E030E040E050E0BE0170
:100AA000675F7F4F18968D919C9119970E945219FC
:100AB0000E94C7106D8B7E8B8F8B988F0E94C71002
:100AC000DC01CB012D893E894F89588D821B930B08
:100AD000A40BB50B813E9105A105B10548F4F701C2
:100AE000808591850E944717898B803839F7CD2CF6
:100AF00065E070E080E090E00E948D10C394B7CF75
:100B00003989303809F080CFD7011896ED91FC91E2
:100B1000199787859089009709F476CF36851296C4
:100B20002C91321371CFF701918380838681978155
:100B30000E94AE156AE070E080E090E00E948D10A7
:100B4000D7016D917C91119718968D919C91199771
:100B50000E943709F70160817181C7010E9470020C
:100B6000D70112962C9130E082179307E1F0F7013C
:100B700060817181C7010E947002D70112962C9189
:100B8000129730E08217930771F064E279E01896CB
:100B90008D919C9119970E94370984E299E0F701A1
:100BA0009183808331CFD7011896ED91FC911997ED
:100BB00082A58D7F82A78D919C9168960FB6F8943F
:100BC000DEBF0FBECDBFDF91CF911F910F91FF9080
:100BD000EF90DF90CF90BF90AF909F908F907F90DD
:100BE0006F905F904F903F902F900895CF92DF923B
:100BF000EF92FF920F931F93CF93DF93CDB7DEB7A2
:100C000028970FB6F894DEBF0FBECDBF7C0184E0FD
:100C1000D82E92E8C92EDA94DD20F1F1F701808117
:100C2000918184329940C1F1C7010E94080367E1B4
:100C3000F701868197810E943A1581FD07C0F7016F
:100C400080859185FC0122A520FF02C081E02AC099
:100C50001C821B822091010130910201A9014F5F8A
:100C60005F4F50930201409301013E832D83CF8259
:100C700008E310E020E030E040E050E0BE016F5FAC
:100C80007F4F0E94521981110DC067E670E080E02D
:100C900090E00E948D10BFCFF701868197810E945E
:100CA000AE1580E028960FB6F894DEBF0FBECDBF1C
:100CB000DF91CF911F910F91FF90EF90DF90CF9038
:100CC000089508952F923F924F925F926F927F9274
:100CD0008F929F92AF92BF92CF92DF92EF92FF924C
:100CE0000F931F93CF93DF93CDB7DEB7C254D109D3
:100CF0000FB6F894DEBF0FBECDBF809100018823F0
:100D0000D1F187E08093B30281E090E09093B50247
:100D10008093B402E091AF02F091B00280E1A6EBC3
:100D2000B2E001900D928A95E1F71FE028E130E0F2
:100D300044E463EB72E08091B1029091B2020E94B0
:100D4000D30A811114C08091B1029091B2020E9425
:100D5000F60581110AC040ED57E060E070E0809137
:100D6000B1029091B2020E9441041150F9F682EA58
:100D700090E00E945C080E94C7101B012C0186E9CC
:100D800092E00E940602843619F480E49CE902C0D5
:100D900088EE93E022961FAE2297E12C28ECF22EEB
:100DA0004C01A12CB12C3AE9C32ED12C0E94C710C2
:100DB000DC01CB0182199309A409B50988159905AD
:100DC000AA05BB0508F0FFC084E0E81611F0E39423
:100DD00017C02296EFAD2297EE2311F0F39401C0D5
:100DE000FA94F4E1FF1639F084EBF81208C0229669
:100DF0001FAE229704C0E1E02296EFAF2297E12CCC
:100E00000F2D10E061E086E00E942310011511050E
:100E100011F460E004C00F3F110529F461E086E0A1
:100E20000E94D70F43C0E5EFF2E084918330F9F0E0
:100E300048F48130B9F08230A1F584B5806284BD78
:100E4000F8BC34C08730E9F0883019F1843049F5B6
:100E50008091800080628093800010938B000093CB
:100E60008A0024C084B5806884BDF7BC1FC080910F
:100E70008000806880938000109389000093880030
:100E800015C08091B00080688093B000F092B300EC
:100E90000DC08091B00080628093B000F092B400E9
:100EA00005C0003811050CF0B9CFB3CF83EE92E046
:100EB0000E9408036090CA037090CB03F0E36F16A2
:100EC000F3E07F0609F008F46AC020913603009130
:100ED000380310913903243609F043C0A8010134C6
:100EE000110510F040E450E06AE373E0CE01019692
:100EF0000E94AD2A86EF9FEF801B910B680E791E32
:100F00007092CB036092CA03A601401B510BB8013B
:100F1000665C7C4F80E393E00E94B62A1C8112300D
:100F200008F444CF109303011093E50289E090E0A8
:100F30000E94F627181729F0612F89E090E00E949F
:100F4000FE2748EE53E060E070E083EE92E00E94FE
:100F500041041092000183E890E00E943B08812F39
:100F60001BC086EF9FEF801B910B680E791E70925D
:100F7000CB036092CA03A601401B510BB801665C0B
:100F80007C4F80E393E023962FAF23970E94B62AED
:100F900023962FAD2397822F0E94FB1C07CF83EE51
:100FA00092E00E94F605811101CF44EF51E060E02C
:100FB00070E083EE92E00E944104892B09F0F6CEA6
:100FC0000E94730CF3CE80917C04882359F088E64C
:100FD00090E00E943B0880917C0490E00E943A0CD3
:100FE00010927C0461E086E0CE5BDF4F0FB6F89490
:100FF000DEBF0FBECDBFDF91CF911F910F91FF904C
:10100000EF90DF90CF90BF90AF909F908F907F90A8
:101010006F905F904F903F902F900C94D70F1F923E
:101020000F920FB60F9211248F939F93809104011A
:1010300090910501892B31F481E090E090930501B6
:10104000809304019F918F910F900FBE0F901F907E
:101050001895009769F0FC0101900020E9F731979D
:10106000AF01481B590BBC018DEE91E00C946B0D48
:1010700080E090E008950F931F93CF93DF938C014E
:10108000C0E0D0E0F801EC0FFD1F6491662371F021
:10109000E091ED01F091EE010190F081E02D8DEEF7
:1010A00091E00995892B11F02196ECCFCE01DF91CB
:1010B000CF911F910F910895CF93DF930E943B082A
:1010C000EC018DE691E00E9429088C0F9D1FDF91B5
:1010D000CF9108952091EC019091EB01213208F01D
:1010E0004AC08091C8018111FCCF32E03093C80121
:1010F00031E03093C7013FEF3093C6011092C50134
:101100002093C401ABECB1E044EA51E0FA013E2F78
:10111000341B321718F43D913193F9CF1092A3018B
:101120002091A301990F922B9093A3019091A2017A
:10113000913061F41092A2019091A3019093BB00B1
:101140009091BC0093FDF8CF95EC01C095EE909383
:10115000BC009091C8019230E1F39091C6019F3F8D
:1011600079F08091C601803241F08091C6018033D0
:1011700031F084E005C081E003C082E001C083E07B
:101180001092CA011092EC011092C9010895909139
:10119000C8019111FCCF91E09093C8019093C701D1
:1011A0002FEF2093C6011092C501280F2093C40190
:1011B0009093A3019091A3019E6E9093A3019091AF
:1011C000A201913061F41092A2019091A301909339
:1011D000BB009091BC0093FDF8CF95EC01C095EE5B
:1011E0009093BC009091C8019130E1F39091C501BA
:1011F000981710F48091C501A4EAB1E022E831E02B
:10120000F9019E2F921B981718F49D919193F9CF95
:101210000895CF93C82F81E08093C90187E7809319
:10122000EB011092CA011092EC0164EF8AE892E09F
:101230000E94FF0E6C2F8AE892E00E94FF0ECF9171
:101240000C946A081F93CF93DF93EC01162F61E093
:101250000E943A15482F112311F0416001C04E7FC2
:1012600061E0CE01DF91CF911F910C94DF147F924A
:101270008F929F92AF92BF92CF92DF92EF92FF92A6
:101280000F931F93CF93DF93CDB7DEB728970FB699
:10129000F894DEBF0FBECDBFFC019B0121153105C7
:1012A00059F0822F8770863008F0FAC0A3E0369597
:1012B0002795AA95E1F7F2CF62AB73AB87A590A90A
:1012C000DC012D913C912F3F310509F4E9C0DC018F
:1012D00012962D913C9113972F3F310509F4E0C0F0
:1012E000E72EF62E8F0160E00E942209F801C7A4C4
:1012F000D0A86DE1C6010E943A15482F44606DE107
:10130000C6010E94DF146CE1C6010E943A15482F05
:101310004F636CE1C6010E94DF1481E0D60118968C
:101320008C93F80182A993A966E070E00E948E2A4E
:10133000482F440F4B5FF0E14F9FA00111244560FF
:1013400064E0D8019F968D919C91D0970E94DF1404
:1013500089E190E0A0E0B0E0F80181839283A3836B
:10136000B4838BE490E09683858382A993A940E0BF
:101370002FEF3FEFB90168237923672B39F073E032
:10138000220F331F7A95E1F74F5FF4CFF80141AB9D
:1013900020953095E059FE4F3183208363E03695E8
:1013A00027956A95E1F73397A9014823592351837B
:1013B00040832115310559F043E0969587954A956C
:1013C000E1F753E0369527955A95E1F7F2CFF8010A
:1013D000E159FE4F808386E0782E88248394912CF7
:1013E0007A94FFEF7F1609F454C0672D8F2D9E2D40
:1013F0000E94D31AD8019F96CD90DC90D097298374
:101400003A834B835C836D837E838F839887A72C7D
:10141000B12C71100BC0F601468550E0BE016F5F24
:101420007F4FC60109960E94AD2A03C0F1E07F12EA
:1014300008C0F501EF5FFE4F6491D6011E962C9116
:1014400005C0F501EF5FFE4F649121E0AE014F5FF3
:101450005F4FC6010E940315F501E550FF4F6491EF
:10146000F6014781C6010E94DF1462E0C6010E94B6
:101470003A15F501EB50FF4FE491940101C0220FA2
:10148000EA95EAF7482F422B62E0C6010E94DF147A
:10149000A7CFD8019F968D919C91D0970E940C194F
:1014A00028960FB6F894DEBF0FBECDBFDF91CF9167
:1014B0001F910F91FF90EF90DF90CF90BF90AF9072
:1014C0009F908F907F9008954F925F926F927F923E
:1014D0008F929F92AF92BF92CF92DF92EF92FF9244
:1014E000CF93DF93EC014A015B010E94C7106B01AF
:1014F0007C01240135018FE5480E511C611C711CD3
:1015000067E1CE010E943A1584FD39C06FEFCE012C
:101510000E94C01484FF22C040E167E0CE010E9417
:10152000DF1460E0CE010E94130461E0CE010E944E
:1015300013040E94C710DC01CB018C199D09AE0970
:10154000BF0988159905AA05BB0540F060E0CE01EA
:101550000E941304CE010E94DC140FC00E94C71029
:10156000DC01CB018C199D09AE09BF09481659064B
:101570006A067B0628F681E08F8780E005C060E080
:10158000CE010E94130481E0DF91CF91FF90EF9094
:10159000DF90CF90BF90AF909F908F907F906F9093
:1015A0005F904F900895AF92BF92CF92DF92EF92EB
:1015B000FF920F931F93CF93DF93CDB7DEB728979A
:1015C0000FB6F894DEBF0FBECDBFDC01ED91FC91EC
:1015D000E432F94011F480E02AC06901142F5B0164
:1015E0007C010E94C710F70180819181843299406B
:1015F00091F31C821B8280910101909102019C0158
:101600002F5F3F4F30930201209301019E838D8312
:101610001F8308E310E09601A501BE016F5F7F4FB5
:10162000D70118968D919C9119970E94521928966E
:101630000FB6F894DEBF0FBECDBFDF91CF911F91E3
:101640000F91FF90EF90DF90CF90BF90AF900895F3
:10165000CF93DF93C4E128E130E040E763EB72E031
:101660008091B1029091B2020E94D30AD82F8111C9
:1016700014C08091B1029091B2020E94F6058111CE
:101680000AC040ED57E060E070E08091B1029091B7
:10169000B2020E944104C150F1F68D2FDF91CF912B
:1016A00008958F929F92AF92BF92DF92EF92FF9236
:1016B0000F931F93CF93DF93C82F162F282F30E05F
:1016C000F901EF51FF4FD491F901E353FF4FE4913A
:1016D000F0E0EE0FFF1FED53FF4FE590F4901092F6
:1016E0009D0410929E0410929F041092A0041092E8
:1016F000A10461E00E94231060E08C2F0E94D70FAC
:10170000612F70E080E090E00E948D1061E08C2FEE
:101710000E94D70F8CE490E00197F1F760E08C2FE6
:101720000E94231028EC30E0F70180818D2331F4F2
:1017300021503109C9F78EEF9FEF4FC028EC30E000
:10174000F70180818D2321F021503109C9F7F3CFB2
:1017500008E210E8D12C28EC30E0F70180818D23DD
:1017600021F421503109C9F7E6CF0E9468104B01DE
:101770005C0128EC30E0F70180818D2321F02150BD
:101780003109C9F7D8CF0E946810DC01CB01881954
:101790009909AA09BB098997A105B10538F0ED2D72
:1017A000F0E0E556FB4F8281812B8283212F30E0D0
:1017B000359527952115310511F0122F02C0D394CC
:1017C00010E8015041F661E08C2F0E94231061E087
:1017D0008C2F0E94D70F80E090E0DF91CF911F9176
:1017E0000F91FF90EF90DF90BF90AF909F908F9000
:1017F00008958F929F92AF92BF920F931F93CF93B2
:10180000DF93CDB7DEB7A1970FB6F894DEBF0FBE5A
:10181000CDBF19A2423008F44AE08E010F5D1F4F80
:10182000842E912CA12CB12CA50194010E94752825
:10183000E62FB901CA0101501109EA3014F4E05D44
:1018400001C0E95CD801EC93232B242B252B61F7F5
:10185000C8010E942908A1960FB6F894DEBF0FBEFA
:10186000CDBFDF91CF911F910F91BF90AF909F900F
:101870008F900895CF92DF92EF92FF92CF93DF93F4
:101880006C01990FEE08FF08F7FE1AC0E091ED0118
:10189000F091EE010190F081E02D6DE28DEE91E08E
:1018A0000995EC0166277727CB016C197D098E0914
:1018B0009F094AE00E94F90B7C01EC0EFD1E06C058
:1018C0004AE0C701B6010E94F90B7C018DE691E068
:1018D0000E9429088E0D9F1DDF91CF91FF90EF9000
:1018E000DF90CF9008951F93CF93DF93C091E902CB
:1018F000D091EA02888199812A813B8182179307DE
:1019000019F061E00E9423108A819B81288139812E
:101910002817390719F061E00E9423101FB7F894C7
:101920008091A604811127C0E7EDF0E08491EBEEF1
:10193000F0E09491E82FF0E0EE0FFF1FE754FF4F27
:10194000A591B491EC91E92321F461E08AE00E9431
:10195000D70F61E08AE00E9423108CB580618CBDB6
:101960008CB580648CBD61E08DE00E94231061E045
:101970008BE00E9423108091A6048F5F8093A604C1
:101980001FBF60E0CE010E94130461E0CE010E94FF
:101990001F0465E070E080E090E00E948D104CE054
:1019A00060E0CE010E94DF144FE564E0CE010E94AA
:1019B000DF1462E070E0CE010E945A15882311F016
:1019C00081E08E8366E0CE010E943A1560E070E00F
:1019D000CE010E945A15CE010E94370480E50E9474
:1019E0003A0483E70E943A04CE010E94BD1440E00D
:1019F0006DE1CE010E94DF1440E06CE1CE010E9457
:101A0000DF14188640E767E0CE010E94DF144CE443
:101A100065E0CE010E94DF1462EECE010E94C01488
:101A2000CE010E94DC14CE010E94951560E0CE012B
:101A30000E943A15482F4E7F60E0CE010E94DF14CD
:101A40008EE38093F6024EE365E08091E902909187
:101A5000EA020E94DF1462E070E08091E902909156
:101A6000EA020E945A15C091EB02D091EC0281E08B
:101A700089A78091E502882399F084E299E0909308
:101A8000E4028093E30240E45FE160E070E083EE13
:101A900092E00E94410421E0892BB1F420E014C0BF
:101AA00086E090E00E941D269093E7028093E60274
:101AB0001092E8021092E4021092E30260E070E0FB
:101AC000CE010E94370921E0822FDF91CF911F9133
:101AD00008950E94A82ACF92DF92EF92FF920F936F
:101AE0001F93CF93DF936C017A018B01C0E0D0E0AC
:101AF000CE15DF0589F0D8016D918D01D601ED91EC
:101B0000FC910190F081E02DC6010995892B11F41B
:101B10007E0102C02196ECCFC701DF91CF911F91CA
:101B20000F91FF90EF90DF90CF900895FC01538DBF
:101B3000448D252F30E0842F90E0821B930B5417A7
:101B400010F0CF96089501970895FC01918D828D34
:101B5000981761F0828DDF01A80FB11D5D968C9101
:101B6000928D9F5F9F73928F90E008958FEF9FEF0C
:101B70000895FC01918D828D981731F0828DE80FC8
:101B8000F11D858D90E008958FEF9FEF0895FC0182
:101B9000918D228D892F90E0805C9F4F821B91094F
:101BA0008F73992708958DEE91E00E94C70D21E073
:101BB000892B09F420E0822F0895FC01848DDF0138
:101BC000A80FB11DA35ABF4F2C91848D90E00196B0
:101BD0008F739927848FA689B7892C93A089B1899F
:101BE0008C9180648C93938D848D981306C00288A9
:101BF000F389E02D80818F7D80830895EF92FF929D
:101C00000F931F93CF93DF93EC0181E0888F9B8D1F
:101C10008C8D981305C0E889F989808185FD24C0E1
:101C2000F62E0B8D10E00F5F1F4F0F731127E02E64
:101C30008C8DE8120CC00FB607FCFACFE889F98941
:101C4000808185FFF5CFCE010E94DD0DF1CF8B8D18
:101C5000FE01E80FF11DE35AFF4FF0820B8FEA8976
:101C6000FB898081806207C0EE89FF896083E889F3
:101C7000F98980818064808381E090E0DF91CF9159
:101C80001F910F91FF90EF900895CF93DF93EC0198
:101C9000888D8823C9F0EA89FB89808185FD05C08C
:101CA000A889B9898C9186FD0FC00FB607FCF5CFC6
:101CB000808185FFF2CFA889B9898C9185FFEDCF0E
:101CC000CE010E94DD0DE7CFDF91CF91089580E036
:101CD00090E0892B29F00E94D30D81110C94000013
:101CE000089585ED8093BC008091BC0084FDFCCFFD
:101CF0001092C80108954091E204262F30E0240F8D
:101D0000311D21323105DCF42091C8012430C9F4A1
:101D1000FC0180E090E0861758F43091E2042191B4
:101D2000DC01A054BB4FA30FB11D2C930196F3CF40
:101D30008091E204680F6093E20480E0089581E0FE
:101D4000089582E008950895E091A8048091A70481
:101D5000E81730F4F0E0EE57FE4F808190E00895F0
:101D60008FEF9FEF08959091A8048091A704981792
:101D700050F4E92FF0E0EE57FE4F208130E09F5FF6
:101D80009093A80402C02FEF3FEFC90108958091FE
:101D9000A70490E02091A804821B91090895CF9296
:101DA000DF92EF92FF920F931F93CF93DF937C010B
:101DB000262F972F8A018091C901882391F0C62F81
:101DC000D72F6E01C40ED51ECC15DD0571F06991BB
:101DD000D701ED91FC910190F081E02DC7010995AB
:101DE000F3CF642F822F0E947B0EC801DF91CF9129
:101DF0001F910F91FF90EF90DF90CF900895CF93B8
:101E0000DF931F92CDB7DEB769832091C9012223EA
:101E1000D1F02091EC01203240F021E030E0FC01D3
:101E20003383228380E090E015C08091CA01E82FBF
:101E3000F0E0E553FE4F998190838F5F8093CA0154
:101E40008093EC0105C061E0CE0101960E947B0EFB
:101E500081E090E00F90DF91CF910895089580E0A8
:101E600090E008950F931F93CF93DF938C01EB01C4
:101E700088E2FB0111928A95E9F74BE050E06BE7AD
:101E800071E0CE010E94C82A1B8681E090E0A0E0AC
:101E9000B0E08C879D87AE87BF87F80183819481EE
:101EA000A581B681888B998BAA8BBB8B86E090E04D
:101EB000A0E0B0E08C8B9D8BAE8BBF8B1CA21DA2D3
:101EC0001EA21FA280E090E8A9E8B4E4888F998F51
:101ED000AA8FBB8F80E090E0A6E9B3E48C8F9D8F42
:101EE000AE8FBF8F8AE097EDA3E2BCE388A399A3EE
:101EF000AAA3BBA3DF91CF911F910F9108951F92C9
:101F00000F920FB60F9211242F933F934F935F932D
:101F10006F937F938F939F93AF93BF93EF93FF93B1
:101F20008DEE91E00E94DD0DFF91EF91BF91AF9199
:101F30009F918F917F916F915F914F913F912F91E1
:101F40000F900FBE0F901F9018951F920F920FB613
:101F50000F9211242F938F939F93EF93FF93E09110
:101F6000FD01F091FE018081E0910302F0910402F5
:101F700082FD12C09081809106028F5F8F73209145
:101F80000702821751F0E0910602F0E0E351FE4FA4
:101F9000958F8093060201C08081FF91EF919F9100
:101FA0008F912F910F900FBE0F901F90189590E07A
:101FB000FC01E151FD4F3491FC01EF51FF4F2491A1
:101FC000FC01E353FF4FE491EE2309F43BC03323BC
:101FD00039F1333091F038F43130A9F0323001F575
:101FE00084B58F7D12C0373091F03830A1F0343095
:101FF000B9F4809180008F7D03C0809180008F773D
:10200000809380000DC084B58F7784BD09C0809116
:10201000B0008F7703C08091B0008F7D8093B000B7
:10202000F0E0EE0FFF1FEB51FD4FA591B4918FB77C
:10203000F894EC91611103C020952E2301C02E2B42
:102040002C938FBF0895CF93DF9390E0FC01EF5165
:10205000FF4F2491FC01E353FF4F8491882361F1EA
:1020600090E0880F991FFC01E754FF4FC591D49170
:10207000FC01EB51FD4FA591B491611109C09FB7CF
:10208000F8948881209582238883EC912E230BC0BD
:10209000623061F49FB7F8943881822F8095832352
:1020A0008883EC912E2B2C939FBF06C08FB7F8949A
:1020B000E8812E2B28838FBFDF91CF910895833045
:1020C000910528F0880F991F04970197F1F708955B
:1020D0003FB7F89480910C0590910D05A0910E05E5
:1020E000B0910F0526B5A89B05C02F3F19F00196AA
:1020F000A11DB11D3FBFBA2FA92F982F8827820F8E
:10210000911DA11DB11DBC01CD0143E0660F771FDC
:10211000881F991F4A95D1F708958F929F92AF9289
:10212000BF92CF92DF92EF92FF926B017C010E94EF
:1021300068104B015C01C114D104E104F104F1F019
:102140000E946810DC01CB0188199909AA09BB0912
:10215000883E9340A105B10570F321E0C21AD10871
:10216000E108F10888EE880E83E0981EA11CB11CDE
:10217000C114D104E104F10419F7DDCFFF90EF9011
:10218000DF90CF90BF90AF909F908F9008952FB722
:10219000F894609108057091090580910A05909165
:1021A0000B052FBF08951F920F920FB60F921124A7
:1021B0002F933F938F939F93AF93BF938091080585
:1021C00090910905A0910A05B0910B053091070582
:1021D00026E0230F2D3720F40296A11DB11D05C066
:1021E00029E8230F0396A11DB11D209307058093B5
:1021F000080590930905A0930A05B0930B058091FB
:102200000C0590910D05A0910E05B0910F0501965A
:10221000A11DB11D80930C0590930D05A0930E0593
:10222000B0930F05BF91AF919F918F913F912F91E7
:102230000F900FBE0F901F9018951F920F920FB620
:102240000F9211242F933F934F935F936F937F933C
:102250008F939F93AF93BF93EF93FF938091B900B8
:10226000887F803609F49CC068F5883209F45BC029
:1022700090F4803109F454C038F4882309F4F6C08E
:10228000883009F44DC0F6C0883109F44CC0803262
:1022900009F45DC0EFC0803409F468C048F48033AD
:1022A00009F455C0883309F0E5C08093C601D8C051
:1022B000803509F44FC0883509F45DC0883409F0D1
:1022C000D9C0D6C0883909F4C7C0A8F4883709F442
:1022D00067C038F4883609F463C0803709F460C0F9
:1022E000C9C0883809F4B8C0803909F45FC08038A3
:1022F00009F0C0C05BC0803B09F486C038F4803A66
:1023000009F466C0883A09F47FC0B4C0803C09F47F
:10231000A7C0883C09F4A4C0883B09F48AC0AAC0BD
:102320008091A30110C09091C5018091C4019817BC
:1023300070F5E091C50181E08E0F8093C501F0E05A
:10234000EC55FE4F80818093BB0085EC86C0809366
:10235000C6018EC0E091C50181E08E0F8093C5015A
:102360008091BB00F0E0EC55FE4F80839091C50159
:102370008091C4016EC0E091C50181E08E0F809311
:10238000C5018091BB00F0E0EC55FE4F8083809149
:10239000C70181116DC081E08093A20184EA61C010
:1023A00083E08093C80110920605CFCF8091060587
:1023B000803208F051C0E091060581E08E0F8093D5
:1023C00006058091BB00F0E0EA51FB4F8083BDCF52
:1023D00085EC8093BC001092C80180910605803284
:1023E00030F4E0910605F0E0EA51FB4F1082609175
:1023F000060570E0E091E404F091E50486EE94E0D7
:1024000009951092060536C084E08093C8011092A9
:10241000E3041092E204E091E004F091E1040995F4
:102420008091E204811105C081E08093E204109262
:10243000C004E091E30481E08E0F8093E304F0E0B8
:10244000E054FB4F80818093BB009091E304809126
:10245000E204981708F479CF85E88093BC000AC09D
:1024600085EC8093BC001092C80104C01092C60194
:102470000E94710EFF91EF91BF91AF919F918F914B
:102480007F916F915F914F913F912F910F900FBE70
:102490000F901F9018950F931F93CF93DF9300D049
:1024A000CDB7DEB78C018EE20E94090965E070E0CD
:1024B00080E090E00E948D10BE016F5F7F4F86EF3D
:1024C0000E947E1A49815A8160E070E0F8014083E1
:1024D0005183628373830F900F90DF91CF911F918F
:1024E0000F9108953F924F925F926F927F928F92D9
:1024F0009F92AF92BF92CF92DF92EF92FF920F9393
:102500001F93CF93DF93CDB7DEB72F970FB6F89415
:10251000DEBF0FBECDBF8B0119821A821B821C82C7
:10252000CE0101960E944B128091A9048295880FDA
:10253000880F807C8C5C0E9409098091A9048130FD
:1025400069F038F0823079F46EE070E080E090E07D
:102550000EC065E070E080E090E009C068E070E0E7
:1025600080E090E004C06AE170E080E090E00E94CA
:102570008D10BE016B5F7F4F86EF0E947E1ACD806B
:10258000DE80E12CF12CFE2CED2CDC2CCC24BE01C9
:10259000695F7F4F88EF0E94AF1A3090A9048F8146
:1025A000C80ED11CE11CF11C88E090E08319910950
:1025B000A701960104C055954795379527958A95AB
:1025C000D2F72C873D874E875F878091B404909126
:1025D000B50449815A816B817C819A01AB01281B2A
:1025E000390B41095109A091B204B091B3040E9482
:1025F0002B286B017C01AFE0F594E794D794C79446
:10260000AA95D1F76091BC047091BD04CB01770FFE
:10261000AA0BBB0BBC01CD01BBE0660F771F881F67
:10262000991FBA95D1F72091BE043091BF0449019A
:10263000330FAA08BB08A7019601280D391D4A1DB2
:102640005B1D0E940C28C20ED31EE41EF51E30EA4C
:10265000C31A3FE0D30AE108F108A7019601C701B8
:10266000B6010E94722A9B01AC018CE055954795FA
:10267000379527958A95D1F7288739874A875B87C9
:102680008090AA049090AB04A091AE04B091AF04E6
:10269000A70196010E9436282B013C019DE075940C
:1026A0006794579447949A95D1F7A091B604B09146
:1026B000B704288539854A855B850E943628BB2763
:1026C00097FDB095AB2F840D951DA61DB71D0296E5
:1026D000A11DB11D32E0B595A795979587953A95BF
:1026E000D1F79C01AD0130584F4F5F4FA091B0041E
:1026F000B091B1040E942B282B013C014FE076944D
:102700006794579447944A95D1F7092C000CAA086E
:10271000BB0852E0880C991CAA1CBB1C5A95D1F727
:10272000A091B804B091B904288539854A855B85A4
:102730000E9436289B01AC016BE055954795379573
:1027400027956A95D1F7288739874A875B87A091B3
:10275000AC04B091AD04A70196010E943628DC01BB
:10276000CB017BE0B595A795979587957A95D1F79D
:10277000288539854A855B85820F931FA41FB51F65
:10278000880E991EAA1EBB1E032C04C0880C991C1F
:10279000AA1CBB1C0A94D2F732E0830E911CA11C28
:1027A000B11CE2E0B594A79497948794EA95D1F789
:1027B0002C853D854E855F85281939094A095B09B5
:1027C00080E593ECA0E0B0E0BC01CD0104C095959C
:1027D0008795779567953A94D2F70E94722A97FD6C
:1027E0000BC0660F771F881F991FA30192010E94DB
:1027F000752869017A010AC0A30192010E94752817
:1028000069017A01CC0CDD1CEE1CFF1C9927F7FC3A
:102810009A958F2D7E2D6D2D9B01AC010E94722A01
:102820009B01AC01AEEDBBE00E942B284C01BB2408
:1028300097FCB094AB2CA3E4B3EEA70196010E94E1
:102840003928BB2797FDB095AB2F880D991DAA1D80
:10285000BB1D8153914FAF4FBF4F44E0B595A79536
:10286000979587954A95D1F7BC01CD016C0D7D1DDB
:102870008E1D9F1D0E945529F801608371838283FC
:1028800093832F960FB6F894DEBF0FBECDBFDF91B6
:10289000CF911F910F91FF90EF90DF90CF90BF905D
:1028A000AF909F908F907F906F905F904F903F90F0
:1028B00008950F931F93CF93DF9300D000D0CDB72F
:1028C000DEB78B0124E2FB0111922A95E9F744E27D
:1028D00050E060E070E0F8014083518362837383CD
:1028E000FC014381548165817681F80144835583DD
:1028F0006683778346E050E060E070E04087518770
:1029000062877387108A118A128A138ABE016F5FE9
:102910007F4F0E94721220E030E048EC52E469815F
:102920007A818B819C810E94AB28F801648B758B26
:10293000868B978B81E00F900F900F900F90DF9117
:10294000CF911F910F9108950F931F93CF93DF9312
:1029500000D0CDB7DEB78B01BE016F5F7F4F0E9405
:102960007E1A89819A81F801918380830F900F905C
:10297000DF91CF911F910F91089561E00C941F0496
:10298000EF92FF921F93CF93DF931F92CDB7DEB7E5
:102990007C0169830E9437046981862F0E943A0472
:1029A000182FC7010E94BD14812F0F90DF91CF9186
:1029B0001F91FF90EF90089561EE0C94C014EF9278
:1029C000FF921F93CF93DF9300D0CDB7DEB77C018A
:1029D0004A8369830E9437046981862F8F718062E0
:1029E0000E943A04182F4A81842F0E943A04C7019A
:1029F0000E94BD14812F0F900F90DF91CF911F91F6
:102A0000FF90EF900895CF92DF92EF92FF920F9395
:102A10001F93CF93DF9300D01F92CDB7DEB77C0119
:102A2000142F2A835B8369830E9437046981862F70
:102A30008F7180620E943A04082FC12E5B81D52ECF
:102A40002A81120F1C1531F0F60181916F010E944D
:102A50003A04F8CFC7010E94BD14802F0F900F9049
:102A60000F90DF91CF911F910F91FF90EF90DF902A
:102A7000CF900895EF92FF921F93CF93DF931F9211
:102A8000CDB7DEB77C0169830E9437046981862F48
:102A90008F710E943A048FEF0E943A04182FC701E9
:102AA0000E94BD14812F0F90DF91CF911F91FF9055
:102AB000EF900895EF92FF920F931F93CF938C01A5
:102AC0007B0166E00E943A15C82FC77D82E0E816B8
:102AD000F10431F4C0628BE990E0A0E0B0E00DC0F9
:102AE000EA94EF2829F085E590E0A0E0B0E005C089
:102AF000C86081E490E0A0E0B0E0F801808B918BA9
:102B0000A28BB38B4C2F66E0C8010E94DF1466E0F5
:102B1000C8010E943A1591E08C1390E0892FCF9163
:102B20001F910F91FF90EF900895CF93DF93EC01E9
:102B300060E00E943A1581FD0EC0482F426060E0BF
:102B4000CE010E94DF1465E070E080E090E0DF914C
:102B5000CF910C948D10DF91CF910895CF93DF9397
:102B6000EC0160E00E941304888999890E945F103B
:102B70006DE1CE010E943A1581FF07C088899989CD
:102B80000E945F10CE010E94DC1460E0CE010E9422
:102B90003A15482F4E7F60E0CE010E94DF1462E0BC
:102BA000CE010E943A15E5EFF0E0E49141E050E0FB
:102BB00001C0440FEA95EAF7482B62E0CE01DF91AD
:102BC000CF910C94DF148F929F92AF92BF92CF92CD
:102BD000DF92EF92FF920F931F93CF93DF93EC015D
:102BE0007B01CCA8D12C860108501109DB01169677
:102BF0009C918CE6890F833020F0983C09F0CFC07F
:102C000003C0943909F4E4C08BE6890F823018F0D0
:102C1000983C09F08EC06E0159EDC50ED11CD6014D
:102C20002D913C91A801420F531F4139510520F0CD
:102C3000C852DF4F1882B1C05E01B8EDAB0EB11CB7
:102C4000F5018081882309F415C1963929F0D7014F
:102C500017969C919813A1C0FE01EB52FF4F408143
:102C60005181F701848195814817590709F095C072
:102C70004E01FBED8F0E911CD4018D919C91A8010A
:102C8000BE01615F7F4F820F931F0E94AD2AF60144
:102C900080819181080F191F11830083D701169637
:102CA0008C91863929F0F50180818150808373C031
:102CB000D5011C92F7018781FE01E952FF4F808305
:102CC000833809F483C07E01FFECEF0EF11CF7019D
:102CD000A081B181CE018A1B9B0B8B539F4F801724
:102CE0009107F8F032968AE001900D928A95E1F70B
:102CF000D7018D919C91F40160817181D6014D9134
:102D00005C910A960E94AD2AF601808191810A9613
:102D1000D7012D913C911197820F931F8D939C9316
:102D20003AC08FA598A90E94AE158AA581608AA78E
:102D300034C07E01BFECEB0EF11CF701A081B18124
:102D4000CE01C5969D01281B390BC901800F911F2B
:102D50008B39910510F5E85CF10988E001900D923E
:102D60008A95E1F7D701ED91FC91119711870087C2
:102D70008D919C91BE01615F7F4FA8010A960E94D0
:102D8000AD2AB2E0CB0ED11CF70180819181C80E33
:102D9000D91ED182C08281E06DC080E06BC09338C3
:102DA00041F6DE01AF52BF4FFE01379688E0019039
:102DB0000D928A95E1F7FE01E552FF4FCE010F9685
:102DC00091838083C752DF4F1983088382E052C00A
:102DD000F7018781873008F02BCFFE01EB52FF4FC0
:102DE00040815181D70114962D913C9115973497CC
:102DF0006F014217530739F4408151812D913C9165
:102E00004217530741F2F8E18F9FC0011124FE01E0
:102E1000E153FF4F20813181AE01421B530B9A01D8
:102E20002B533F4F281739073CF48AA581608AA7A6
:102E30008FA598A90E94AE15FE01379688E0D601AD
:102E400001900D928A95E1F7FE01E552FF4FBE0118
:102E5000615F7F4FA801808191810E94AD2AFE01B0
:102E6000E752FF4F11830083C852DF4F88818150A2
:102E7000888391CFDF91CF911F910F91FF90EF90B9
:102E8000DF90CF90BF90AF909F908F9008952F923A
:102E90003F924F925F926F927F928F929F92AF92EA
:102EA000BF92CF92DF92EF92FF920F931F93CF9337
:102EB000DF9300D01F92CDB7DEB7DC019A969C91CC
:102EC0009A97892F827091FD19C0FD01E153FF4F40
:102ED000AD014B5C5F4F90FD07C020813181241B09
:102EE000350B2937310554F02081318142175307C2
:102EF00008F47CC19E7F9A969C939A97BB83AA8381
:102F00000E94C7102B013C0110E0CA80DB8027E043
:102F1000C20ED11C2A803B8031E9231A3EEF330ACE
:102F2000F4E2AF2EF9E0BF2EEA81FB81E7A4F0A81E
:102F3000F701808191818F3F910529F182819381F1
:102F40008F3F910501F167E1C7010E943A15082FF3
:102F5000017080FD18C06FEFC7010E94C0140E946D
:102F6000C710DC01CB0184199509A609B709EA81CC
:102F7000FB81E7A4F0A8893E9340A105B10528F0A4
:102F800081E0F7018787812F31C1C7010E94370493
:102F900080E60E943A048FEF0E943A04982EC701FF
:102FA0000E94BD14F0E2F91558F462EEC7010E94C8
:102FB000C01462E070E080E090E00E948D1001C0DB
:102FC000092DEA81FB8104AB083038F46AE070E037
:102FD00080E090E00E948D10A7CFEA81FB81E7A4FA
:102FE000F0A8F7018781801708F4082FF701908572
:102FF000911103C0801B898301C01982C7010E94FF
:10300000370481E60E943A044601015038F08FEF00
:103010000E943A04F40181934F01F7CF0981002304
:1030200029F08FEF0E943A040150F9CFC7010E94A6
:10303000BD1440E767E0C7010E94DF14EA81FB810D
:1030400061857285CB01009759F0282F27702630B3
:1030500008F06ACFE3E096958795EA95E1F7F3CF1C
:10306000EA81FB81158582A993A96817790709F080
:1030700043C0123809F458CF103891F464327940C3
:10308000F1F0EA81FB81B286A18642E064E279E058
:10309000CF010E94001C6AE070E080E090E049C02F
:1030A000133C69F46115710551F0EA81FB81708769
:1030B00067831286118640E060E070E041C0EA81DB
:1030C000FB8181A5882319F017FF0CC002C0113CB9
:1030D00049F48CE6810F833028F0183C19F013383E
:1030E00009F051CFB6018A819B810E94E31582309D
:1030F00009F01ACF83E87AC06034710509F070C016
:10310000123C01F5EA81FB8122A523FD0DCF84321B
:10311000F9E09F0709F408CFEA81FB812781308518
:103120003287218790878783F101608170E080E09A
:1031300090E00E948D10EA81FB816185728542E0FA
:10314000CF0151C0B6018A819B810E94E315082FEF
:10315000EA81FB818081882309F43EC022A933A93A
:10316000C90153E0969587955A95E1F7892B21F08F
:103170008CEB92E10197F1F7C901837099279C01CB
:1031800048E552E0249FC001259F900D349F900D8B
:1031900011240E945F10EA81FB8121A9222381F082
:1031A00030E021503109C901880F991F280F391FBC
:1031B00061E070E002C0660F771F2A95E2F702C057
:1031C00060E070E083E0660F771F8A95E1F744E0E6
:1031D0008A819B810E94001C023009F0A5CE8ACF13
:1031E00041E08A819B810E94001C9ECE0F900F902F
:1031F0000F90DF91CF911F910F91FF90EF90DF9093
:10320000CF90BF90AF909F908F907F906F905F9086
:103210004F903F902F900895CF93DF93EC010E9441
:10322000951560E0CE010E943A15482F416060E09C
:10323000CE010E94DF1440E767E0CE010E94DF1458
:1032400061E0CE010E9413048985882349F02E8510
:10325000AE01475F5F4F6AE0CE010E94031514C0C4
:1032600062E0CE010E943A15E5EFF0E0E49121E042
:1032700030E001C0220FEA95EAF72095422F48235B
:1032800062E0CE010E94DF146DE1CE010E943A158A
:1032900081FF05C0CE01DF91CF910C94DC14DF914A
:1032A000CF9108952F923F924F925F926F927F92AB
:1032B0008F929F92AF92BF92CF92DF92EF92FF9246
:1032C0000F931F93CF93DF93EC017B015A016901A8
:1032D00048010E94C7104BA45CA46DA47EA4DC012D
:1032E000CB0184199509A609B7094997A105B1052C
:1032F00028F4CE010E94471787FFEBCF8CE891E0BE
:103300000197F1F789E1C816D104B0F488E08C0D7B
:103310008CAB84019601A501B701CE010E94C21CAD
:10332000182F882311F011E092C00E94C7106BA7DC
:103330007CA78DA79EA78BC0E1E9CE16D10408F02B
:1033400085C0C60168E170E00E948E2A21E0892BC9
:1033500009F420E0C60168E170E00E948E2A722E16
:10336000760EF701828193818034910539F08AA528
:1033700084608AA78FA598A90E94AE15F7014680A0
:10338000512C612C84E9282E96E9392EF701778299
:10339000F1E07F1204C0F7013682478208C0611055
:1033A00003C0F701268203C085E9F7018683E8E1BF
:1033B0006E9EA00111249601241B350B2931310585
:1033C00010F028E130E088E0820F8CAB4A0D5B1DE5
:1033D0008401B701CE010E94C21C182F81110BC0BD
:1033E00062E070E080E090E00E948D105394F2E083
:1033F000F51560F606C07A946394772011F0512C8D
:10340000C5CFF70146828AA582FF12C049815A8141
:103410006B817C818FA598A90E94640A182F8FA5C3
:1034200098A90E940C1960E08FA598A90E94220912
:103430008AA58B7F8AA7112349F0772009F473CFDF
:103440000E94C7106BA77CA78DA79EA710E0812FB5
:10345000DF91CF911F910F91FF90EF90DF90CF9070
:10346000BF90AF909F908F907F906F905F904F90A4
:103470003F902F900895CF93DF93DC01FB01EC0187
:10348000C359DE4F6881798122969881828140817B
:103490005181823028F0BA0181E0838390E027C017
:1034A000ED01C059DE4F28813981EA01C223D323BF
:1034B000D2960D90BC91A02DCA17DB07C1F4C901AB
:1034C0008095909563E0880F991F6A95E1F78423B2
:1034D0009523892B51F083E0220F331F8A95E1F762
:1034E0002760BA016223732301C0BA0195E071839A
:1034F0006083928381E0DF91CF9108951F93CF93F2
:10350000DF93EB0191E09093C90197E79093EB0172
:103510001092CA011092EC01682F8AE892E00E9492
:10352000FF0E0E946A0882E00E94C7081092A80459
:103530008093A7048AE892E00E94B30E182F8AE8CD
:1035400092E00E94B30E20E030E0312F822B932BCB
:1035500099838883DF91CF911F910C946A08CF9350
:10356000DF93EB0191E09093C90197E79093EB0112
:103570001092CA011092EC01682F8AE892E00E9432
:10358000FF0E0E946A0881E00E94C7081092A804FA
:103590008093A7048AE892E00E94B30E8883DF91AB
:1035A000CF910C946A08CF93DF93CDB7DEB72897FD
:1035B0000FB6F894DEBF0FBECDBFAC019CEC998373
:1035C0009A839B839C839D831E821F8218869A0107
:1035D000E1E021153105C9F0611103C04115510524
:1035E00069F4D901A770BB27AA59BE4F8C91A1E0FD
:1035F000B0E0AC0FBD1FAE0FB11D8C9383E03695CC
:1036000027958A95E1F7EF5FE4CF611102C0452B62
:1036100039F4E62FF0E0EA59FE4F8081898305C036
:10362000F0E0EB59FE4F80818A8329813A814B81FA
:103630005C816D817E818F81988528960FB6F89484
:10364000DEBF0FBECDBFDF91CF9108954F925F9245
:103650006F927F92AF92BF92CF92DF92EF92FF92E2
:103660000F931F93CF93DF93CDB7DEB728970FB695
:10367000F894DEBF0FBECDBF8C01CB01D22E642FDC
:103680000E94D31A29013A015B017C01F80182A54D
:1036900082FD04C087A590A90E94AE15F80187A5F8
:1036A00090A9DD2011F060E001C061E00E942209D4
:1036B000F801C7A4D0A849825A826B827C82AD826D
:1036C000BE82EF82F886F6012685AE014F5F5F4F1E
:1036D0006AE0C6010E940315F6012685AE014F5F20
:1036E0005F4F60E1C6010E940315F601478161E169
:1036F000C6010E94DF14F801B4A8C7A4D0A80E9494
:10370000C7102B013C016FEFC6010E94C01480FF5F
:103710001EC06FEFC6010E94C01484FF06C040E1C6
:1037200067E0C6010E94DF1410C00E94C710DC01D0
:10373000CB0184199509A609B70980369105A10521
:10374000B10508F381E0F6018787F12C30C0F6015E
:10375000F780EF2CBF1408F4EB2CF6018085811163
:1037600002C0FE1801C0F12CC6010E94370480EA95
:103770000E943A045801F7E0AF0EB11CEA0CEA14BB
:1037800031F0F50181915F010E943A04F8CFFF20EA
:1037900029F080E00E943A04FA94F9CFC6010E9411
:1037A000BD1461E0C6010E941304FF24F394F801E4
:1037B00082A582FD0FC0418152816381748187A5FA
:1037C00090A90E94640AF82E60E0F80187A590A9EC
:1037D0000E9422098F2D28960FB6F894DEBF0FBEE7
:1037E000CDBFDF91CF911F910F91FF90EF90DF90B0
:1037F000CF90BF90AF907F906F905F904F90089563
:10380000CF92DF92EF92FF920F931F93CF93DF93AC
:1038100000D000D0CDB7DEB7FC0195859B01211506
:10382000310561F0822F8770863030F483E0369561
:1038300027958A95E1F7F3CF80E097C09154EE2465
:10384000E3949F3708F0E12CF42E6B018F0119826D
:103850001A821B821C827A8369834B83BE016F5F4D
:103860007F4FCF010E943B1A69817A812C814B8165
:10387000C8010E94261BF1E0FF1227C0811102C07F
:10388000F12C6AC089819A818C159D0501F5EE2085
:10389000F1F081ECF8018587878190859287818797
:1038A0009A838983FB821C82BE016F5F7F4FC801B0
:1038B0000E943B1A88E0F80184AB69817A812C81EF
:1038C0004B81C8010E94261B02C08823C9F289814E
:1038D0009A818C159D0519F4FF24F3943DC0FF20B7
:1038E00019F0F3E0FF12F8CFEE20B1F3F80182A552
:1038F00082FF11C0418152816381748187A590A9A3
:103900000E94640AF80182A58B7F82A760E087A5E8
:1039100090A90E942209F80187A590A90E940C197C
:103920000E94C7106B017C01C8010E944717813CAF
:1039300099F20E94C710AB01BC014C195D096E09D8
:103940007F09F80185819681A0E0B0E08417950792
:10395000A607B70748F794CFF80182A582FD04C0F7
:1039600087A590A90E940C198F2D0F900F900F9092
:103970000F90DF91CF911F910F91FF90EF90DF900B
:10398000CF900895EF92FF920F931F93CF93DF9301
:10399000EC017B01BA018AA99BA9F701918380837D
:1039A000DE01179688E001900D928A95E1F72115C6
:1039B000310529F0A901CE010F960E94AD2AF70129
:1039C000628173810833110561F06034710511F46F
:1039D00044E001C043E06017710709F442E0B80118
:1039E00001C040E0CE01DF91CF911F910F91FF9078
:1039F000EF900C94001CCF93DF93682F70E080E071
:103A000090E04AE00E94F90BEC018DE691E00E9403
:103A100029088C0F9D1FDF91CF910895EF92FF929F
:103A20000F931F93CF93DF931F92CDB7DEB7E42E92
:103A30009F938F9380E293E09F938F9369830E947B
:103A400025246981E60E0F900F900F900F9008E1EA
:103A500013E06E1599F0FF24F394F60E8DE694E0D2
:103A60000E943A151F928F931F930F930E94252453
:103A70000F900F900F900F906F2DEBCF85E193E09B
:103A80009F938F930E9425240F900F900F90DF91AA
:103A9000CF911F910F91FF90EF9008952F923F9239
:103AA0004F925F926F927F928F929F92AF92BF924E
:103AB000CF92DF92EF92FF920F931F93CF93DF93FA
:103AC0001F92CDB7DEB7562E342E6DB67EB69F93BD
:103AD0008F938FE093E09F938F930E942524350C62
:103AE0000F900F900F900F908BE0C82E83E0D82E90
:103AF00096E0A92E93E0B92E531409F452C08DB666
:103B00009EB620917B04022F10E08DB79EB7801BDC
:103B1000910B0FB6F8949EBF0FBE8DBFEDB7FEB7E9
:103B200031967F0122242394250C8DE694E029838D
:103B30000E943704852D8F710E943A042701298144
:103B40002E0D241549F08FEF29830E943A04F201CB
:103B500081932F012981F5CF8DE694E00E94BD1459
:103B6000DF92CF920E9425240E0D1F1D0F900F9003
:103B7000015011090E151F0568F0F80180811F9290
:103B80008F93BF92AF920E9425240F900F900F90B9
:103B90000F90EECF0FB6F8949EBE0FBE8DBE522C86
:103BA000ABCF83E093E09F938F930E9425240F90E7
:103BB0000F900FB6F8947EBE0FBE6DBE0F90DF91D2
:103BC000CF911F910F91FF90EF90DF90CF90BF901A
:103BD000AF909F908F907F906F905F904F903F90AD
:103BE0002F9008950895CF93DF93EDEEF1E01382C7
:103BF000128288EE93E0A0E0B0E084839583A683F0
:103C0000B78320E131E03183208325EC30E0358734
:103C1000248724EC30E03787268720EC30E0318B96
:103C2000208B21EC30E0338B228B22EC30E0358B83
:103C3000248B26EC30E0378B268B118E128E138E60
:103C4000148EEAE8F2E01382128284839583A683BD
:103C5000B78382E291E091838083E3E9F4E082E636
:103C600091E0918380838EEF9FEF928B818B84E034
:103C7000878786E1808BE5E8F4E08AE591E091832F
:103C800080838EE391E09383828385E697E2A0E0D0
:103C9000B0E085839683A783B0871186EDE6F4E0D4
:103CA00087E090E09183808388E090E09383828333
:103CB000168280E28783108685E0868745E050E0A3
:103CC00060E070E0448B558B668B778B1186ABEF91
:103CD000B2E0D096FC93EE939F9720E333E03093CD
:103CE000CB032093CA0328ED33E03093D70320930E
:103CF000D6032CEC33E098963C932E9397979B96A3
:103D00001D921D921D921C929E979A961C929A97B4
:103D100099961C9299971C92C3EED2E0FF83EE8392
:103D2000B987A887EFEAF2E02FE932E031832083F8
:103D3000D383C283E6E9F2E024E331E031832083D8
:103D4000128213828483DF91CF910895CF93DF9302
:103D5000CDB7DEB7AC970FB6F894DEBF0FBECDBFC0
:103D6000789484B5826084BD84B5816084BD85B556
:103D7000826085BD85B5816085BD80916E00816062
:103D800080936E0010928100809181008260809308
:103D9000810080918100816080938100809180000A
:103DA0008160809380008091B10084608093B10035
:103DB0008091B00081608093B00080917A0084602F
:103DC00080937A0080917A00826080937A0080915B
:103DD0007A008E7F80937A0080917A008068809349
:103DE0007A001092C10061E086E00E94231061E039
:103DF00086E00E94D70FE091FD01F091FE0182E084
:103E00008083E091F901F091FA011082E091FB01C9
:103E1000F091FC0188E0808310920502E09101029C
:103E2000F091020286E08083E091FF01F0910002B0
:103E3000808180618083E091FF01F09100028081A8
:103E400088608083E091FF01F091000280818068AA
:103E50008083E091FF01F091000280818F7D80835B
:103E600089E090E00E94F627809303011FE9E12E8C
:103E700012E0F12E67010FE010E0C8010E94F62762
:103E8000F60181936F010F5F1F4F0F311105A9F7E5
:103E900081E791E00E943B08809103010E94FB1C96
:103EA00083E691E00E943B0800E711E09E012F5F4E
:103EB0003F4F5901F70181917F011F928F931F930B
:103EC0000F93BF92AF920E94D72AC5010E94290882
:103ED0000F900F900F900F900F900F90FFEAEF163A
:103EE000F2E0FF0639F78DE691E00E942908109272
:103EF000A8041092A7041092CA011092EC0110922B
:103F0000C80181E08093C7011092A20161E082E1C3
:103F10000E94D70F61E083E10E94D70F8091B90022
:103F20008E7F8093B9008091B9008D7F8093B90016
:103F300080E28093B80085E48093BC00B50180EDF9
:103F40000E94AF1A89818535E1F583E08093A90449
:103F50006AEA74E08AEA0E94A4146CEA74E08CEACB
:103F60000E94A4146EEA74E08EEA0E94A41460EB2E
:103F700074E080EB0E947E1A62EB74E082EB0E9498
:103F80007E1A64EB74E084EB0E947E1A66EB74E0A8
:103F900086EB0E94A41468EB74E088EB0E94A414E2
:103FA0006AEB74E08AEB0E94A4146CEB74E08CEB77
:103FB0000E94A4146EEB74E08EEB0E94A41481E0C6
:103FC00001C080E080938E04811104C081E891E0FB
:103FD0000E945C0880910301823038F480919F0236
:103FE000811101C081E0809303018EEB92E00E9479
:103FF0003B08809103018093E5020E94FB1C0E9414
:10400000730C86EA92E00E945C0866E08DE694E01C
:104010000E943A15887F482F456066E08DE694E05F
:104020000E94DF146FEF8DE694E00E94C014282FE9
:1040300030E0982F91701F929F93359527952770A8
:1040400033273F932F9384FB992790F91F929F93D7
:1040500085FB992790F91F929F9386FB992790F9EA
:104060001F929F931F928F9389E991E09F938F9363
:104070000E94252442E06AE084E992E00E944E1DFD
:1040800044E06CE087E892E00E940E1D41E060E1B0
:104090008EE792E00E944E1D46E061E183E792E0E8
:1040A0000E940E1D41E061E08CE692E00E940E1D30
:1040B00041E062E082E692E00E940E1D41E065E090
:1040C0008BE592E00E940E1D41E066E082E592E001
:1040D0000E940E1D41E060E08AE492E00E940E1D05
:1040E00042E06CE18CE392E00E940E1D66E08DE6FA
:1040F00094E00E943A1588720FB6F894DEBF0FBEA6
:10410000CDBF803241F021E090E0883009F020E01E
:10411000E22FF92F02C0E2E0F0E0EE0FFF1FEA5CB1
:10412000FD4F859194919F938F9384E292E09F93AA
:104130008F930E942524E0917304F0E0EE0FFF1F9F
:10414000E05EFD4F859194919F938F9381E192E082
:104150009F938F930E94252460E08DE694E00E9457
:104160003A15182F61E08DE694E00E943A150FB6DB
:10417000F894DEBF0FBECDBF13FD02C0882329F027
:1041800012FD06C0E1E0F0E005C0E0E0F0E002C0B2
:10419000E2E0F0E0EE0FFF1FE55FFD4F85919491A7
:1041A0009F938F9388EF91E09F938F930E94252494
:1041B00066E08DE694E00E943A158670E82FF0E004
:1041C000E051FE4F859194919F938F938FED91E0F5
:1041D0009F938F930E94252484B7877F84BF80910B
:1041E000600088618093600081E28093600080912C
:1041F000600080648093600081EA92E00E945C0825
:1042000060E086E00E94D70F68EC70E080E090E00C
:104210000E948D1061E086E00E94D70F0FB6F894DF
:10422000DEBF0FBECDBFC12C50ECD52E59E7E52E19
:1042300054ECF52E212C60E8362E0E946206109276
:1042400005011092040105E065E070E080E090E077
:104250000E948D108091A3048B3041F562E1809122
:10426000A2040E94510B009759F510919D04612FF3
:1042700070E080E090E00E94532960939504709371
:104280009604809397049093980490909F04692DCE
:1042900070E080E090E00E9453296093990470934D
:1042A0009A0480939B0490939C0453C0863109F038
:1042B00061C061E08091A2040E94510B009789F0D7
:1042C000C0929504D0929604E0929704F0929804DC
:1042D000C0929904D0929A04E0929B04F0929C04BC
:1042E00044C080909E0470909D04682D70E07729F2
:1042F00080E090E00E9453292DEC3CEC4CEC5DE317
:104300000E94052A60939504709396048093970405
:10431000909398049090A00410919F04812F8F7720
:10432000692D70E0782B80E090E00E9453292DECFD
:104330003CEC4CEC5DE30E94052A17FD7AC26093C9
:10434000990470939A0480939B0490939C04870C27
:10435000980C190D81E090E02091A104211302C076
:1043600080E090E09195819591099093A5048093C8
:10437000A40404C01092A5041092A4048091A40483
:104380009091A504892B99F001508AED92E00E944A
:104390003B0884E090E0801B91090E943A0C68EE93
:1043A00073E080E090E00E948D1001114DCF80916C
:1043B0008E04882309F4A8C0B50187E894E00E9420
:1043C000591420E030E0A9016D897E898F89988D8C
:1043D0000E94A628882309F469C0CE0185960E9410
:1043E0004B128091B4049091B5044DA15EA16FA1D0
:1043F00078A59A01AB01281B390B41095109A091FD
:10440000B204B091B3040E942B282B013C018FE031
:1044100075946794579447948A95D1F76091BC043A
:104420007091BD04CB01770FAA0BBB0BBC01CD0172
:104430002BE0660F771F881F991F2A95D1F72091CF
:10444000BE043091BF048901330F220B330BA90145
:104450009801240D351D461D571D0E940C28D301BF
:10446000C201820F931FA41FB51F0896A11DB11D85
:10447000BC01CD0134E095958795779567953A9580
:10448000D1F70E94552920E030E040E251E40E943B
:10449000AB2820E030E040E251E40E94052A0E946F
:1044A0001D297093900460938F0404C0309290048F
:1044B00020928F0420E030E0A9016D897E898F89E8
:1044C000988D0E94A6288823C1F0BE016B5D7F4FA6
:1044D00087E894E00E94721220E030E040E251E46C
:1044E0006DA17EA18FA198A50E94AB280E941D29D5
:1044F000709392046093910411C08FEF90E09093B9
:104500009204809391040AC03092900420928F0408
:10451000EFEFF0E0F0939204E09391048EE4809347
:104520007C0062E070E080E090E00E948D1080915D
:104530007A00806480937A0080917A0086FDFCCFB7
:10454000209178008091790030E0382B032E000C08
:10455000440B550B64EB7BE281E190E00E940C2858
:10456000E22F732F642F952F80919802882311F1E9
:104570008E3008F08E508770806480937C0080912C
:104580007A00806480937A0080917A0086FDFCCF67
:10459000A091780080917900B0E0B82B0E94362875
:1045A0002FEF33E040E050E00E940C28E22F732F01
:1045B000642F952FE0939B0270939C0260939D0261
:1045C00090939E0287E08093B30221E031E0309324
:1045D000B5022093B40284E090E09093B7028093F8
:1045E000B602E091AF02F091B00280E1A8EBB2E038
:1045F00001900D928A95E1F715E028E130E040E561
:1046000063EB72E08091B1029091B2020E94D30AF2
:10461000811114C08091B1029091B2020E94F605FE
:1046200081110AC040ED57E060E070E08091B10276
:104630009091B2020E9441041150F9F6E091930466
:10464000F09194040190F081E02D83E994E00995C4
:104650004C01E0919304F09194040280F381E02DE9
:1046600083E994E0099517E01093B302E2E0F1E0EA
:10467000F093B502E093B40221E030E03093B7024A
:104680002093B6029092B9028092B8029093BB0236
:104690008093BA020E94280BE0918504F091860471
:1046A0000190F081E02D85E894E009954C01E091BE
:1046B0008504F09186040280F381E02D85E894E082
:1046C00009951093B30223E031E03093B5022093B3
:1046D000B40222E030E03093B7022093B602909209
:1046E000B9028092B8029093BB028093BA020E94F2
:1046F000280BE0919602F09197020190F081E02D55
:1047000086E992E00995AB01BC01E0919602F09137
:1047100097020280F381E02D86E992E049A75AA72B
:104720006BA77CA70995082FE0919602F09197025C
:104730000480F581E02D86E992E009951093B3029B
:1047400024E031E03093B5022093B40223E030E05E
:104750003093B7022093B60249A55AA56BA57CA554
:104760004093B8025093B9026093BA027093BB02AF
:104770000093BC028093BD020E94280B0E94620637
:1047800086E992E00E940602843609F44FC085E76C
:1047900091E00E9429088DE691E00E94290860E0DE
:1047A0008DE694E00E94130460E08DE694E00E94A0
:1047B0003A15482F4D7F60E08DE694E00E94DF14AB
:1047C00060E086E00E94D70F83B7817F846083BF5B
:1047D0008091990291E0980F9093990290919A029A
:1047E000891750F483B7816083BF83B7816083BF2B
:1047F000889583B78E7FEBCF83B78E7F83BF809101
:1048000064008071809364001092990261E086E0F8
:104810000E94D70F8DE694E00E940C1948EE53E0F9
:1048200060E070E083EE92E00E9441040E94670E17
:1048300004CDDC01CB01B0588093990490939A0485
:10484000A0939B04B0939C0482CDA0E0B0E0EBE287
:10485000F4E20C944C28AE01495F5F4FDA016D9190
:104860007D91AD0100E115E0F80182819381DC01C9
:1048700013962C911397286013962C930E944B2427
:10488000D8011296ED91FC9113972381277F238302
:10489000E4E00C946828ACE0B0E0E1E5F4E20C94CC
:1048A0003E287C016B018A01FC01178216828381FC
:1048B00081FFBDC1CE0101964C01F7019381F60144
:1048C00093FD859193FF81916F01882309F4ABC11A
:1048D000853239F493FD859193FF81916F01853283
:1048E00029F4B70190E00E946027E7CF512C312CCA
:1048F00020E02032A0F48B3269F030F4803259F09D
:10490000833269F420612CC08D3239F0803339F460
:10491000216026C02260246023C0286021C027FDBA
:1049200027C030ED380F3A3078F426FF06C0FAE0A1
:104930005F9E300D1124532E13C08AE0389E300D37
:104940001124332E20620CC08E3221F426FD6BC15F
:10495000206406C08C3611F4206802C0883641F409
:10496000F60193FD859193FF81916F018111C1CF74
:10497000982F9F7D9554933028F40C5F1F4FFFE3D1
:10498000F9830DC0833631F0833771F0833509F038
:104990005BC022C0F801808189830E5F1F4F4424D1
:1049A0004394512C540115C03801F2E06F0E711C74
:1049B000F801A080B18026FF03C0652D70E002C021
:1049C0006FEF7FEFC5012C870E9455272C018301D3
:1049D0002C852F77222E17C03801F2E06F0E711C44
:1049E000F801A080B18026FF03C0652D70E002C0F1
:1049F0006FEF7FEFC5012C870E944A272C012C8581
:104A00002068222E830123FC1BC0832D90E04816D2
:104A10005906B0F4B70180E290E00E9460273A9412
:104A2000F4CFF50127FC859127FE81915F01B70145
:104A300090E00E94602731103A94F1E04F1A51083B
:104A40004114510471F7E5C0843611F0893639F507
:104A5000F80127FF07C060817181828193810C5F1B
:104A60001F4F08C060817181072E000C880B990BC5
:104A70000E5F1F4F2F76722E97FF09C0909580957D
:104A8000709561957F4F8F4F9F4F2068722E2AE05F
:104A900030E0A4010E949827A82EA81844C08537AA
:104AA00029F42F7EB22E2AE030E025C0F22FF97FC4
:104AB000BF2E8F36C1F018F4883579F0B4C0803736
:104AC00019F0883721F0AFC02F2F2061B22EB4FE2D
:104AD0000DC08B2D8460B82E09C024FF0AC09F2F03
:104AE0009660B92E06C028E030E005C020E130E035
:104AF00002C020E132E0F801B7FE07C06081718199
:104B0000828193810C5F1F4F06C06081718180E0BC
:104B100090E00E5F1F4FA4010E949827A82EA818AE
:104B2000FB2DFF777F2E76FE0BC0372D3E7FA51421
:104B300050F474FE0AC072FC08C0372D3E7E05C0DA
:104B4000BA2C372D03C0BA2C01C0B52C34FF0DC0D0
:104B5000FE01EA0DF11D8081803311F4397E09C018
:104B600032FF06C0B394B39404C0832F867809F053
:104B7000B39433FD13C030FF06C05A2CB31418F49D
:104B8000530C5B18B32CB31468F4B70180E290E0C7
:104B90003C870E946027B3943C85F5CFB31410F492
:104BA0003B1801C0312C34FF12C0B70180E390E004
:104BB0003C870E9460273C8532FF17C031FD03C04F
:104BC00088E790E002C088E590E0B7010CC0832F31
:104BD000867859F031FF02C08BE201C080E237FDD8
:104BE0008DE2B70190E00E946027A51438F4B70168
:104BF00080E390E00E9460275A94F7CFAA94F401D2
:104C0000EA0DF11D8081B70190E00E946027A1109C
:104C1000F5CF332009F451CEB70180E290E00E9435
:104C200060273A94F6CFF7018681978102C08FEF13
:104C30009FEF2C96E2E10C945A28CF93DF938230B9
:104C4000910510F482E090E0E0911805F0911905CB
:104C500020E030E0C0E0D0E0309711F14081518198
:104C600048175907C0F04817590761F482819381AA
:104C7000209719F09B838A832BC09093190580930A
:104C8000180526C02115310519F04217530718F4ED
:104C90009A01BE01DF01EF010280F381E02DDCCF3C
:104CA0002115310509F1281B390B2430310590F409
:104CB00012968D919C9113976115710521F0FB015E
:104CC0009383828304C09093190580931805FD0196
:104CD000329644C0FD01E20FF31F8193919322505D
:104CE00031092D933C933AC0209116053091170558
:104CF000232B41F4209108013091090130931705CD
:104D000020931605209106013091070121153105E8
:104D100041F42DB73EB740910A0150910B01241B7D
:104D2000350BE0911605F0911705E217F307A0F493
:104D30002E1B3F0B2817390778F0AC014E5F5F4FF1
:104D40002417350748F04E0F5F1F50931705409307
:104D500016058193919302C0E0E0F0E0CF01DF916E
:104D6000CF9108950F931F93CF93DF93009709F48A
:104D70008CC0FC01329713821282009118051091A9
:104D800019050115110581F420813181820F931FCE
:104D900020911605309117052817390779F5F093FA
:104DA0001705E093160571C0D80140E050E0AE173A
:104DB000BF0750F412962D913C911397AD01211528
:104DC000310509F1D901F3CF9D01DA013383228343
:104DD00060817181860F971F8217930769F4EC0138
:104DE00028813981260F371F2E5F3F4F3183208363
:104DF0008A819B8193838283452B29F4F093190543
:104E0000E093180542C01396FC93EE931297ED01C0
:104E1000499159919E01240F351FE217F30771F450
:104E200080819181840F951F029611969C938E9399
:104E30008281938113969C938E931297E0E0F0E029
:104E4000D80112968D919C911397009719F0F80153
:104E50008C01F6CF8D919C9198012E5F3F4F820F70
:104E6000931F20911605309117052817390769F40B
:104E7000309729F4109219051092180502C0138278
:104E800012821093170500931605DF91CF911F91A1
:104E90000F910895FC010590615070400110D8F702
:104EA000809590958E0F9F1F0895FC016150704072
:104EB00001900110D8F7809590958E0F9F1F08954F
:104EC0000F931F93CF93DF93FB01238121FD03C039
:104ED0008FEF9FEF28C022FF16C0468157812481A3
:104EE00035814217530744F4A081B1819D012F5FA2
:104EF0003F4F318320838C93268137812F5F3F4F33
:104F00003783268310C0EB01092F182F0084F18509
:104F1000E02D0995892BE1F68E819F8101969F8373
:104F20008E83812F902FDF91CF911F910F91089544
:104F3000FA01AA27283051F1203181F1E8946F93CA
:104F40006E7F6E5F7F4F8F4F9F4FAF4FB1E03ED070
:104F5000B4E03CD0670F781F891F9A1FA11D680F0E
:104F6000791F8A1F911DA11D6A0F711D811D911D41
:104F7000A11D20D009F468943F912AE0269F1124B6
:104F80003019305D3193DEF6CF010895462F47701A
:104F9000405D4193B3E00FD0C9F7F6CF462F4F7075
:104FA000405D4A3318F0495D31FD4052419302D0D3
:104FB000A9F7EACFB4E0A695979587957795679579
:104FC000BA95C9F700976105710508959B01AC0179
:104FD0000A2E06945795479537952795BA95C9F7A0
:104FE000620F731F841F951FA01D0895F999FECFAE
:104FF00092BD81BDF89A992780B50895262FF99919
:10500000FECF1FBA92BD81BD20BD0FB6F894FA9AAB
:10501000F99A0FBE01960895052E97FB1EF4009491
:105020000E94232857FD07D00E94752807FC03D053
:105030004EF40C94232850954095309521953F4F80
:105040004F4F5F4F089590958095709561957F4F74
:105050008F4F9F4F08950E949728A59F900DB49F52
:10506000900DA49F800D911D11240895B7FF0C94FD
:105070002B280E942B28821B930B08952F923F927E
:105080004F925F926F927F928F929F92AF92BF9258
:10509000CF92DF92EF92FF920F931F93CF93DF9304
:1050A000CDB7DEB7CA1BDB0B0FB6F894DEBF0FBE61
:1050B000CDBF09942A88398848885F846E847D84AE
:1050C0008C849B84AA84B984C884DF80EE80FD80B0
:1050D0000C811B81AA81B981CE0FD11D0FB6F89426
:1050E000DEBF0FBECDBFED010895A1E21A2EAA1BAF
:1050F000BB1BFD010DC0AA1FBB1FEE1FFF1FA21788
:10510000B307E407F50720F0A21BB30BE40BF50B84
:10511000661F771F881F991F1A9469F7609570950D
:10512000809590959B01AC01BD01CF010895A29F90
:10513000B001B39FC001A39F700D811D1124911D6B
:10514000B29F700D811D1124911D08950E94902918
:1051500008F481E008950E94BF280C94CB290E9496
:10516000C42958F00E94BD2940F029F45F3F29F07E
:105170000C94B42951110C94FF290C94BA290E9463
:10518000DC2968F39923B1F3552391F3951B550B53
:10519000BB27AA2762177307840738F09F5F5F4F0A
:1051A000220F331F441FAA1FA9F335D00E2E3AF049
:1051B000E0E832D091505040E695001CCAF72BD061
:1051C000FE2F29D0660F771F881FBB1F26173707B2
:1051D0004807AB07B0E809F0BB0B802DBF01FF27E4
:1051E00093585F4F3AF09E3F510578F00C94B429E4
:1051F0000C94FF295F3FE4F3983ED4F386957795AE
:105200006795B795F7959F5FC9F7880F911D96959C
:10521000879597F90895E1E0660F771F881FBB1FF8
:10522000621773078407BA0720F0621B730B840BA5
:10523000BA0BEE1F88F7E09508950E942429689420
:10524000B1110C94FF2908950E94E42988F09F571A
:1052500098F0B92F9927B751B0F0E1F0660F771F9A
:10526000881F991F1AF0BA95C9F714C0B13091F090
:105270000E94FE29B1E008950C94FE29672F782F33
:105280008827B85F39F0B93FCCF386957795679555
:10529000B395D9F73EF490958095709561957F4FC1
:1052A0008F4F9F4F0895E89409C097FB3EF4909567
:1052B0008095709561957F4F8F4F9F4F9923A9F0EF
:1052C000F92F96E9BB279395F6958795779567957E
:1052D000B795F111F8CFFAF4BB0F11F460FF1BC0C2
:1052E0006F5F7F4F8F4F9F4F16C0882311F096E955
:1052F00011C0772321F09EE8872F762F05C0662303
:1053000071F096E8862F70E060E02AF09A95660FBB
:10531000771F881FDAF7880F9695879597F9089574
:10532000990F0008550FAA0BE0E8FEEF16161706B6
:10533000E807F907C0F012161306E407F50798F01E
:10534000621B730B840B950B39F40A2661F0232B37
:10535000242B252B21F408950A2609F4A140A695B3
:105360008FEF811D811D089597F99F6780E870E098
:1053700060E008959FEF80EC089500240A941616CB
:10538000170618060906089500240A941216130633
:10539000140605060895092E0394000C11F48823C1
:1053A00052F0BB0F40F4BF2B11F460FF04C06F5FDD
:1053B0007F4F8F4F9F4F089557FD9058440F551FB3
:1053C00059F05F3F71F04795880F97FB991F61F087
:1053D0009F3F79F087950895121613061406551FFE
:1053E000F2CF4695F1DF08C0161617061806991F6A
:1053F000F1CF86957105610508940895E894BB275F
:1054000066277727CB0197F908950E94182A0C94F4
:10541000CB290E94BD2938F00E94C42920F0952391
:1054200011F00C94B4290C94BA2911240C94FF297E
:105430000E94DC2970F3959FC1F3950F50E0551F32
:10544000629FF001729FBB27F00DB11D639FAA27D9
:10545000F00DB11DAA1F649F6627B00DA11D661F28
:10546000829F2227B00DA11D621F739FB00DA11D49
:10547000621F839FA00D611D221F749F3327A00D03
:10548000611D231F849F600D211D822F762F6A2F9F
:1054900011249F5750409AF0F1F088234AF0EE0F04
:1054A000FF1FBB1F661F771F881F91505040A9F731
:1054B0009E3F510580F00C94B4290C94FF295F3F66
:1054C000E4F3983ED4F3869577956795B795F7956D
:1054D000E7959F5FC1F7FE2B880F911D96958795E5
:1054E00097F90895DB018F939F930E942B28BF911A
:1054F000AF91A29F800D911DA39F900DB29F900D23
:1055000011240895991B79E004C0991F961708F09B
:10551000961B881F7A95C9F780950895AA1BBB1B17
:1055200051E107C0AA1FBB1FA617B70710F0A61BA3
:10553000B70B881F991F5A95A9F780959095BC01C4
:10554000CD010895EE0FFF1F0590F491E02D099411
:1055500081E090E0F8940C94FA2AFB01DC0102C08F
:1055600001900D9241505040D8F70895681779077F
:1055700068F4FB01DC01E40FF51FA40FB51F02C0A6
:1055800002900E9241505040D8F708950C94AD2AE5
:10559000FB01DC014150504048F001900D92002089
:1055A000C9F701C01D9241505040E0F70895AEE0A8
:1055B000B0E0EDEDFAE20C944C280D891E8986E0EE
:1055C0008C831A8309838FEF9FE79E838D83AE01BF
:1055D000475E5F4F6F89788DCE0101960E944B2404
:1055E0002F813885F801E20FF31F10822E96E4E038
:1055F0000C94682811E0C4E9D1E004C0FE010E94C7
:0E560000A22A2196C539D107C9F7F894FFCF29
:10560E0001010001010000001A05800000000000E9
:10561E00FE0D6B0D960D450EC70DA50DB90D0000B7
:10562E000000FF0ECF0E2F0FA30EC70EB30EA40E4B
:10563E000000000062020602EC010000000061069C
:10564E001104BF015914320F0000000000000000C9
:10565E00BF01690D690D000000006C0268020000B8
:10566E000000D601C001C33C33CE3EE3EC0D0A0070
:10567E002530325800536C65657000424D503038FD
:02568E003500E5
:107800000C94343C0C94513C0C94513C0C94513CE1
:107810000C94513C0C94513C0C94513C0C94513CB4
:107820000C94513C0C94513C0C94513C0C94513CA4
:107830000C94513C0C94513C0C94513C0C94513C94
:107840000C94513C0C94513C0C94513C0C94513C84
:107850000C94513C0C94513C0C94513C0C94513C74
:107860000C94513C0C94513C11241FBECFEFD8E036
:10787000DEBFCDBF11E0A0E0B1E0EAE8FFE702C063
:1078800005900D92A230B107D9F712E0A2E0B1E065
:1078900001C01D92AD30B107E1F70E942D3D0C945F
:1078A000C33F0C94003C982F95959595959595958B
:1078B000905D8F708A307CF0282F295A8091C0000B
:1078C00085FFFCCF9093C6008091C00085FFFCCF60
:1078D0002093C6000895282F205DF0CF982F809127
:1078E000C00085FFFCCF9093C6000895EF92FF92F1
:1078F0000F931F93EE24FF2487018091C00087FD22
:1079000017C00894E11CF11C011D111D81E2E8164D
:1079100081EAF80687E0080780E0180770F3E09135
:107920000401F091050109958091C00087FFE9CF1E
:107930008091C6001F910F91FF90EF9008950E94D3
:10794000763C982F8091C00085FFFCCF9093C600B5
:1079500091362CF490330CF09053892F089597555D
:10796000892F08951F930E949F3C182F0E949F3CCF
:107970001295107F810F1F9108951F93182F882350
:1079800021F00E94763C1150E1F71F9108951F935A
:10799000182F0E94763C803249F0809103018F5F5E
:1079A000809303018530C1F01F9108958091C0003C
:1079B00085FFFCCF84E18093C6008091C00085FFE5
:1079C000FCCF1093C6008091C00085FFFCCF80E102
:1079D0008093C6001F910895E0910401F091050184
:1079E00009951F9108950E94763C803241F0809164
:1079F00003018F5F80930301853081F008958091AA
:107A0000C00085FFFCCF84E18093C6008091C00058
:107A100085FFFCCF80E18093C6000895E0910401CA
:107A2000F09105010995089548EC50E08823A1F0F4
:107A30002D9A28EE33E0FA013197F1F721503040CA
:107A4000D1F72D9828EE33E0FA013197F1F7215064
:107A50003040D1F7815061F708953F924F925F9285
:107A60006F927F928F929F92AF92BF92CF92DF924E
:107A7000EF92FF920F931F93CF93DF93000082E06A
:107A80008093C00080E18093C4001092C50088E11B
:107A90008093C10086E08093C2005098589A259A3E
:107AA00081E00E94143D24E1F22E9EE1E92E85E959
:107AB000D82E0FE0C02E10E1B12EAA24A394B1E479
:107AC0009B2EA6E58A2EF2E57F2EE0E26E2E79E46B
:107AD000572E63E5462E50E5352E0E94763C8033C6
:107AE000B1F18133B9F1803409F46FC0813409F404
:107AF00076C0823409F485C0853409F488C08035A5
:107B000031F1823521F1813511F1853509F485C0D6
:107B1000863509F48DC0843609F496C0843709F49B
:107B200003C1853709F472C1863709F466C08091B4
:107B300003018F5F80930301853079F6E0910401A2
:107B4000F091050109950E94763C803351F60E9420
:107B5000F33CC3CF0E94763C803249F78091C0004D
:107B600085FFFCCFF092C6008091C00085FFFCCF5E
:107B70009092C6008091C00085FFFCCF8092C60025
:107B80008091C00085FFFCCF7092C6008091C0003C
:107B900085FFFCCF6092C6008091C00085FFFCCFBE
:107BA0005092C6008091C00085FFFCCF4092C60075
:107BB0008091C00085FFFCCF3092C6008091C0004C
:107BC00085FFFCCFB092C60088CF0E94763C8638F5
:107BD00008F4BDCF0E94763C0E94F33C7ECF0E9409
:107BE000763C803809F49CC0813809F40BC1823896
:107BF00009F430C1883909F48FC080E00E94C73C85
:107C00006CCF84E10E94BD3C0E94F33C66CF85E0CE
:107C10000E94BD3C0E94F33C60CF0E94763C809362
:107C200006010E94763C809307010E94F33C55CFE9
:107C30000E94763C803309F411C183E00E94BD3C70
:107C400080E00E94C73C49CF0E94763C80930902A5
