:100000000C9401020C947D240C9456240C94290227
:100010000C9429020C9429020C94C3250C942902F7
:100020000C9429020C9429020C9429020C942902A4
:100030000C9429020C9429020C9429020C94290294
:100040000C940C240C9429020C94DA230C94B42301
:100050000C9429020C9429020C9429020C94290274
:100060000C94A4240C9429020001020408102040DE
:10007000801B36637C777BF26B6FC53001672BFE8C
:10008000D7AB76CA82C97DFA5947F0ADD4A2AF9CEE
:10009000A472C0B7FD9326363FF7CC34A5E5F171C5
:1000A000D8311504C723C31896059A071280E2EBCE
:1000B00027B27509832C1A1B6E5AA0523BD6B3295E
:1000C000E32F8453D100ED20FCB15B6ACBBE394AEB
:1000D0004C58CFD0EFAAFB434D338545F9027F50F2
:1000E0003C9FA851A3408F929D38F5BCB6DA2110F1
:1000F000FFF3D2CD0C13EC5F974417C4A77E3D6489
:100100005D197360814FDC222A908846EEB814DEB8
:100110005E0BDBE0323A0A4906245CC2D3AC629142
:1001200095E479E7C8376D8DD54EA96C56F4EA652C
:100130007AAE08BA78252E1CA6B4C6E8DD741F4B2B
:10014000BD8B8A703EB5664803F60E613557B98699
:10015000C11D9EE1F8981169D98E949B1E87E9CE46
:100160005528DF8CA1890DBFE6426841992D0FB05B
:1001700054BB1652096AD53036A538BF40A39E81BC
:10018000F3D7FB7CE339829B2FFF87348E4344C433
:10019000DEE9CB547B9432A6C2233DEE4C950B4254
:1001A000FAC34E082EA16628D924B2765BA2496D07
:1001B0008BD12572F8F66486689816D4A45CCC5D61
:1001C00065B6926C704850FDEDB9DA5E154657A7DA
:1001D0008D9D8490D8AB008CBCD30AF7E45805B849
:1001E000B34506D02C1E8FCA3F0F02C1AFBD03011D
:1001F000138A6B3A9111414F67DCEA97F2CFCEF048
:10020000B4E67396AC7422E7AD3585E2F937E81CA5
:1002100075DF6E47F11A711D29C5896FB7620EAA85
:1002200018BE1BFC563E4BC6D279209ADBC0FE7826
:10023000CD5AF41FDDA8338807C731B112105927F2
:1002400080EC5F60517FA919B54A0D2DE57A9F9327
:10025000C99CEFA0E03B4DAE2AF5B0C8EBBB3C8398
:10026000539961172B047EBA77D626E1691463553A
:10027000210C7D41DB0100000000000000000000B7
:10028000000000000000000000000000000000006E
:10029000000000000000000100000000000000005D
:1002A000000000000000000000000000000000004E
:1002B00000000000000000E0EB7A7C3B41B8AE1685
:1002C00056E3FAF19FC46ADA098DEB9C32B1FD86E0
:1002D0006205165F49B8005F9C95BCA3508C24B1A1
:1002E000D0B1559C83EF5B04445CC4581C8E86D807
:1002F000224EDDD09F1157ECFFFFFFFFFFFFFFFFF6
:10030000FFFFFFFFFFFFFFFFFFFFFFFFFFFFFFFFFD
:10031000FFFFFFFFFFFF7F00000000250028002BEC
:1003200000555549442073656E736575722000420F
:100330004D503A204572726575722C206465736168
:1003400063746976652E0000000000240027002AEF
:10035000005365747570207465726D696E652061F7
:1003600070726573200000000008000201000003A5
:100370000407000000000000000000010203040563
:100380001112131415160A0B0C0D0E0F00000000AD
:1003900023002600290004040404040404040202C7
:1003A00002020202030303030303010204081020F4
:1003B0004080010204081020010204081020B02A25
:1003C000AE7DEECBBBB1FC036FDDDC7D76670CE868
:1003D0001F0DA3A0AA1EB0BD726B2B4C8A7E34FCED
:1003E0003760F41E22A00BFB188460A57772657835
:1003F00070616E642033322D62797465206B5C26E7
:10040000402611241FBECFEFD8E0DEBFCDBF11E0E4
:10041000A0E0B1E0EAECFAE602C005900D92AE3F32
:10042000B107D9F724E0AEEFB1E001C01D92AE3EB6
:10043000B207E1F711E0C0E0D2E004C02197FE016D
:100440000E940934CF3FD107C9F70E9449270C9475
:1004500058350C9400002091DF0281E0213208F031
:1004600044C08091BB028111FCCF8091DE0292E0FA
:100470009093BB0291E09093BA029FEF9093B902E0
:100480001092B8022093B702AEEBB2E0E7E9F2E0D7
:1004900090E0291331C01092960290919602880F35
:1004A000892B8093960280919502813049F51092B4
:1004B0009502809196028093BB008091BC0083FDE1
:1004C000F8CF85EC8093BC008091BB028230E1F3D1
:1004D0008091B9028F3FB1F08091B9028032A1F0D2
:1004E0008091B902803391F084E01092BD021092A5
:1004F000DF021092BC0208953D9131939F5FC9CFF6
:1005000085EEE0CF80E0F1CF82E0EFCF83E0EDCF6A
:10051000982F8091BB028111FCCF81E08093BB02B8
:100520008093BA022FEF2093B9021092B802290FDC
:100530002093B70280939602809196028E6E8093EC
:100540009602809195028130F9F410929502809183
:1005500096028093BB008091BC0083FDF8CF85ECB0
:100560008093BC008091BB028130E1F38091B8029E
:10057000891710F49091B802A7E9B2E0E5E7F2E03C
:1005800080E0891303C0089585EEEACF2D91219371
:100590008F5FF7CF2F923F924F925F926F927F9231
:1005A0008F929F92AF92BF92CF92DF92EF92FF9283
:1005B0000F931F93CF93DF93CDB7DEB7C554D10907
:1005C0000FB6F894DEBF0FBECDBFFC017AAB69ABAE
:1005D0009CAB8BABCB01805C9F4F9F018B01D80103
:1005E0004D915D916D917D918D01D9014D935D93FB
:1005F0006D937D939D018017910789F740895189FB
:100600006289738940805180628073804D8A5E8ADE
:100610006F8A788E40A851A862A873A8C0A0D1A004
:10062000E2A0F3A084889588A688B78889829A82F8
:10063000AB82BC820481158126813781098F1A8F94
:100640002B8F3C8F84A995A9A6A9B7A98D8F9E8FC2
:10065000AF8FB8A384A095A0A6A0B7A021968CAE1A
:100660009DAEAEAEBFAE2197008D118D228D338D24
:100670000D831E832F83388780859185A285B3855E
:1006800089A79AA7ABA7BCA780AC91ACA2ACB3AC2E
:10069000898A9A8AAB8ABC8A00A511A522A533A5AE
:1006A0000DA31EA32FA338A7848D958DA68DB78D7E
:1006B00084849584A684B78489869A86AB86BC8612
:1006C00004AD15AD26AD37AD09A31AA32BA33CA3EA
:1006D00084A495A4A6A4B7A48DA69EA6AFA6B8AAE6
:1006E0001AE0212E8D889E88AF88B88C840E951EC6
:1006F000A61EB71E482459246A247B2482012301A4
:100700003801C40CD51CE61CF71C4C255D256E2554
:100710007F258A019B010F2EFCE0000F111F221F75
:10072000331FFA95D1F7F02D032E34E176956795B6
:10073000579547953A95D1F7302D402B512B622B89
:10074000732B95018401040F151F261F371F0D8B76
:100750001E8B2F8B388F4026512662267326942CB1
:10076000A52CB62C872C8DAA9EAAAFAAB8AE8C0C4D
:100770009D1CAE1CBF1C89AE9AAEABAEBCAE48256C
:1007800059256A257B256A017B0127E0CC0CDD1CFD
:10079000EE1CFF1C2A95D1F72A013B0139E1769422
:1007A0006794579447943A95D1F74C285D286E2862
:1007B0007F284D865E866F86788A89809A80AB8096
:1007C000BC80C98CDA8CEB8CFC8C8C0C9D1CAE1C18
:1007D000BF1CCD8CDE8CEF8CF8A0C824D924EA2471
:1007E000FB2486016701780121960CAD1DAD2EAD6D
:1007F0003FAD21970C0D1D1D2E1D3F1D49815A81B6
:100800006B817C8140275127622773272A013B0196
:10081000032E3CE0440C551C661C771C3A95D1F71E
:10082000302D032E34E176956795579547953A9587
:10083000D1F7302D4429552966297729240135011E
:10084000440E551E661E771E498E5A8E6B8E7C8E08
:10085000C424D524E624F7247C2C8D2C9E2C6F2CCC
:100860006D8E7E8E8F8E98A2600E711E821E931EDC
:1008700021966CAE7DAE8EAE9FAE21974625572554
:10088000682579258A019B01689416F8000F111FCD
:10089000221F331F1694D1F76A017B0149E1F694B8
:1008A000E794D794C7944A95D1F7C02AD12AE22A6F
:1008B000F32AC982DA82EB82FC82C9A4DAA4EBA40F
:1008C000FCA40D811E812F813885C00ED11EE21E31
:1008D000F31E09891A892B893C890C251D252E2593
:1008E0003F25A80189019A018DA09EA0AFA0B8A4C0
:1008F000800E911EA21EB31E4D815E816F81788590
:10090000482559256A257B252A013B01032E3CE019
:10091000440C551C661C771C3A95D1F7302D032EDC
:1009200034E176956795579547953A95D1F7302DEF
:10093000442955296629772926013701440E551E79
:10094000661E771E498A5A8A6B8A7C8A0425152579
:1009500026253725D02EE12EF22EC32E2596CCAE9D
:10096000DDAEEEAEFFAE25978C0C9D1CAE1CBF1C01
:10097000482559256A257B258A019B01689416F82C
:10098000000F111F221F331F1694D1F72A013B01BC
:1009900049E176946794579447944A95D1F7402A51
:1009A000512A622A732A4D825E826F827886498438
:1009B0005A846B847C84480E591E6A1E7B1E09A1D2
:1009C0001AA12BA13CA10425152526253725680150
:1009D00089019601CDA4DEA4EFA4F8A8C00ED11E13
:1009E000E21EF31E8C259D25AE25BF25AC01BD0161
:1009F000032E3CE0440F551F661F771F3A95D1F731
:100A0000302D072E74E1B695A795979587957A9521
:100A1000D1F7702D842B952BA62BB72BB301A201F8
:100A2000480F591F6A1F7B1F49875A876B877C872E
:100A30000427152726273727502F032F322F212F42
:100A4000152F26013701400E511E621E731E49A646
:100A50005AA66BA67CA684259525A625B7252C012C
:100A60003D0147E0440C551C661C771C4A95D1F7A4
:100A700059E1B695A795979587955A95D1F7842909
:100A80009529A629B7294D885E886F88788CC980FA
:100A9000DA80EB80FC804C0C5D1C6E1C7F1C0425F6
:100AA000152526253725780189019701800E911E8D
:100AB000A21EB31E49815A816B817C81482559252C
:100AC0006A257B256A017B010B2EBCE0CC0CDD1C6A
:100AD000EE1CFF1CBA95D1F7B02D032E34E17695AC
:100AE0006795579547953A95D1F7302D4C295D2953
:100AF0006E297F2973016201C40ED51EE61EF71E02
:100B0000CD8ADE8AEF8AF88E0C251D252E253F25FD
:100B1000502E612E722E432E49A25AA26BA27CA2A5
:100B2000480C591C6A1C7B1C4DA25EA26FA278A6C1
:100B3000930182010427152726273727B901A80129
:100B4000689416F8440F551F661F771F1694D1F747
:100B50002801390129E176946794579447942A959E
:100B6000D1F7442A552A662A772A49825A826B820B
:100B70007C82898C9A8CAB8CBC8CCD80DE80EF80A3
:100B8000F8848C0C9D1CAE1CBF1C4DA85EA86FA8E1
:100B900078AC482459246A247B247201230137014C
:100BA000C9A4DAA4EBA4FCA4C40CD51CE61CF71C55
:100BB0004D815E816F8178854C255D256E257F2571
:100BC0008A019B010F2EFCE0000F111F221F331F13
:100BD000FA95D1F7F02D032E34E176956795579568
:100BE00047953A95D1F7302D402B512B622B732B23
:100BF00095018401040F151F261F371F098F1A8FB7
:100C00002B8F3C8F4026512662267326142D472CAD
:100C1000762C652C512E46015701840C951CA61C80
:100C2000B71C8DA69EA6AFA6B8AA482559256A2549
:100C30007B258A019B01689416F8000F111F221F63
:100C4000331F1694D1F75A016B0149E1D694C7942A
:100C5000B794A7944A95D1F7A02AB12AC22AD32AD9
:100C6000AD82BE82CF82D88689889A88AB88BC88BC
:100C7000880E991EAA1EBB1E0D8D1E8D2F8D38A1AC
:100C8000082519252A253B25680189019601C9AC4B
:100C9000DAACEBACFCACC00ED11EE21EF31E8C2510
:100CA0009D25AE25BF25AC01BD01032E3CE0440FC0
:100CB000551F661F771F3A95D1F7302D072E74E127
:100CC000B695A795979587957A95D1F7702D842B32
:100CD000952BA62BB72BB501A401480F591F6A1FEE
:100CE0007B1F49A75AA76BA77CA704271527262790
:100CF0003727902EA12EB22E832E8D8E9E8EAF8EF4
:100D0000B8A2C80CD91CEA1CFB1C8C259D25AE255D
:100D1000BF258C019D0147E0000F111F221F331FCB
:100D20004A95D1F759E1B695A795979587955A9524
:100D3000D1F7802B912BA22BB32B8D849E84AF8473
:100D4000B88809851A852B853C85800E911EA21EC8
:100D5000B31E89869A86AB86BC8625968CAC9DACE4
:100D6000AEACBFAC259729853A854B855C8582263C
:100D70009326A426B526A40145015A0121960CAD5F
:100D80001DAD2EAD3FAD2197080D191D2A1D3B1D30
:100D90000DAB1EAB2FAB38AF4D855E856F85788967
:100DA00040275127622773278A019B010F2EFCE001
:100DB000000F111F221F331FFA95D1F7F02D032EBC
:100DC00034E176956795579547953A95D1F7302D4B
:100DD000402B512B622B732B09851A852B853C8563
:100DE000040F151F261F371F09871A872B873C877B
:100DF00080269126A226B326182D292D3A2D0B2DBB
:100E0000098B1A8B2B8B3C8B8DA89EA8AFA8B8ACF6
:100E1000800E911EA21EB31E21968CAE9DAEAEAE6C
:100E2000BFAE2197482559256A257B254A015B01DC
:100E300027E0880C991CAA1CBB1C2A95D1F739E124
:100E400076956795579547953A95D1F74829592949
:100E50006A297B292A94211045CC408B518B628BC7
:100E6000738B0D891E892F89388D0083118322830E
:100E7000338340AA51AA62AA73AAC0A2D1A2E2A255
:100E8000F3A229813A814B815C81248B358B468B7F
:100E9000578B498D5A8D6B8D7C8D4483558366832A
:100EA00077834D8C5E8C6F8C78A044AA55AA66AA75
:100EB00077AA21966CAC7DAC8EAC9FAC219764A2D6
:100EC00075A286A297A28D809E80AF80B884808E06
:100ED000918EA28EB38EA9A4BAA4CBA4DCA4A086C2
:100EE000B186C286D386C988DA88EB88FC88C0AE12
:100EF000D1AEE2AEF3AEEDA0FEA00FA118A5E0A624
:100F0000F1A602A713A7848F958FA68FB78F0985A7
:100F10001A852B853C85048715872687378729A165
:100F20003AA14BA15CA124AF35AF46AF57AF4DA559
:100F30005EA56FA578A944A755A766A777A7E05C2B
:100F4000FF4FABA9BCA94D915D916D917D91BCAB5B
:100F5000ABABA9A9BAA90D911D912D913D91BAAB49
:100F6000A9ABABA9BCA91497400F511F621F731FF7
:100F70004D935D936D937C9313974BA85CA8E415F8
:100F8000F505F9F6CB5BDF4F0FB6F894DEBF0FBE69
:100F9000CDBFDF91CF911F910F91FF90EF90DF9028
:100FA000CF90BF90AF909F908F907F906F905F9009
:100FB0004F903F902F9008958330910528F0880F2F
:100FC000991F04970197F1F7089594B7977F94BFFD
:100FD0009091600098619093600091E2909360001E
:100FE0009091600090649093600014BEA89593B7B0
:100FF000917F946093BFF89490E695BF90E495BF7D
:10100000789490E0891749F023B7216023BF889531
:1010100023B72E7F23BF9F5FF5CF83B78E7F83BF1C
:1010200084B7877F84BF809160008861809360006F
:1010300010926000809160008064809360008091D5
:101040006400807180936400089581E080936E0253
:101050000895FC01848595850895FC01828593851A
:101060000895FC0183850895FC016581768187815F
:1010700090850895FC018285089508950895089546
:10108000AF92BF92CF92DF92EF92FF920F931F9396
:10109000CF93DF936C017B018B01040F151FEB01D4
:1010A0005E01AE18BF08C017D10759F06991D6018B
:1010B000ED91FC910190F081E02DC6010995892BFD
:1010C00079F7C501DF91CF911F910F91FF90EF90BC
:1010D000DF90CF90BF90AF900895FC01538D448D69
:1010E000252F30E0842F90E0821B930B541710F0D3
:1010F000CF96089501970895FC01918D828D9817E0
:1011000061F0A28DAE0FBF2FB11D5D968C91928DB7
:101110009F5F9F73928F90E008958FEF9FEF0895E8
:10112000FC01918D828D981731F0828DE80FF11DB1
:10113000858D90E008958FEF9FEF0895FC01918DCC
:10114000228D892F90E0805C9F4F821B91098F73C5
:101150009927089580EE92E00E949E0821E0892B55
:1011600009F420E0822F089580E090E0892B29F097
:101170000E94AA0881110C9400000895FC01A48D1E
:10118000A80FB92FB11DA35ABF4F2C91848D90E0A9
:1011900001968F739927848FA689B7892C93A0898C
:1011A000B1898C91837080648C93938D848D981316
:1011B00006C00288F389E02D80818F7D80830895A9
:1011C000EF92FF920F931F93CF93DF93EC0181E097
:1011D000888F9B8D8C8D98131AC0E889F98980813E
:1011E00085FF15C09FB7F894EE89FF896083E88971
:1011F000F98980818370806480839FBF81E090E063
:10120000DF91CF911F910F91FF90EF900895F62EEF
:101210000B8D10E00F5F1F4F0F731127E02E8C8D89
:101220008E110CC00FB607FCFACFE889F9898081CE
:1012300085FFF5CFCE010E94BE08F1CFEB8DEC0FFC
:10124000FD2FF11DE35AFF4FF0829FB7F8940B8FEB
:10125000EA89FB8980818062CFCF0F931F93CF9360
:10126000DF938C01D0E0C0E0F801EC0FFD1F64912A
:10127000662341F080EE92E00E94E008892B11F095
:101280002196F2CFCE01DF91CF911F910F9108955A
:10129000CF93DF93EC01888D8823B9F0AA89BB89AD
:1012A000E889F9898C9185FD03C0808186FD0DC098
:1012B0000FB607FCF7CF8C9185FFF2CF808185FFB9
:1012C000EDCFCE010E94BE08E9CFDF91CF91089506
:1012D00090E0FC01EA59FC4F2491FC01E655FC4FDB
:1012E0003491FC01EA56FC4FE491EE23C9F022232D
:1012F00039F0233001F1A8F4213019F1223029F11D
:10130000F0E0EE0FFF1FE95EFC4FA591B4918FB79F
:10131000F894EC91611126C030953E233C938FBF29
:1013200008952730A9F02830C9F0243049F780917A
:1013300080008F7D03C0809180008F778093800034
:10134000DFCF84B58F7784BDDBCF84B58F7DFBCFB6
:101350008091B0008F778093B000D2CF8091B000A1
:101360008F7DF9CF3E2BDACFCF93DF9390E0FC0156
:10137000E655FC4F24918A569C4FFC0184918823AA
:10138000D1F090E0880F991FFC01E95BFC4FA5911B
:10139000B491FC01E95EFC4FC591D49161110EC07E
:1013A0009FB7F8948C91E22FE0958E238C9328813F
:1013B000E223E8839FBFDF91CF9108958FB7F89420
:1013C000EC91E22BEC938FBFF6CF8E3008F08E506D
:1013D0008770806480937C0080917A008064809321
:1013E0007A0080917A0086FDFCCF80917800909100
:1013F000790008953FB7F894809146029091470292
:10140000A0914802B091490226B5A89B05C02F3F84
:1014100019F00196A11DB11D3FBFBA2FA92F982F1A
:101420008827BC01CD01620F711D811D911D43E014
:10143000660F771F881F991F4A95D1F708958F92DD
:101440009F92AF92BF92CF92DF92EF92FF926B0189
:101450007C010E94FA094B015C01C114D104E10432
:10146000F104B9F00E94FA09681979098A099B09FF
:10147000683E73408105910580F321E0C21AD108CE
:10148000E108F10888EE880E83E0981EA11CB11CCB
:10149000E4CFFF90EF90DF90CF90BF90AF909F9000
:1014A0008F9008958F929F92AF92BF92DF92EF92AA
:1014B000FF920F931F93CF93DF93C82F162F90E0C7
:1014C000FC01E655FC4FD491FC01EA56FC4FE49137
:1014D000F0E0EE0FFF1FE457FC4FE590F490109200
:1014E0000C0410920D0410920E0410920F0410922E
:1014F000100461E08C2F0E94B40960E08C2F0E94E0
:101500006809612F70E090E080E00E941F0A61E0AE
:101510008C2F0E9468098CE490E00197F1F760E05D
:101520008C2F0E94B40988EC90E0F70120812D23D4
:1015300081F40197D1F78EEF9FEFDF91CF911F914B
:101540000F91FF90EF90DF90BF90AF909F908F90A2
:10155000089588EC90E0F70120812D2319F0019780
:10156000D1F7E9CF08E210E8D12C88EC90E0F70140
:1015700020812D2319F40197D1F7DDCF0E94FA09BC
:101580004B015C0188EC90E0F70120812D2319F0DC
:101590000197D1F7D0CF0E94FA09681979098A0911
:1015A0009B09693271058105910538F0ED2DF0E058
:1015B000EE5FFB4F8285812B8287169511F4D394C1
:1015C00010E8015091F661E08C2F0E94B40961E0AF
:1015D0008C2F0E94680990E080E0AFCF2FB7F8947D
:1015E00060914202709143028091440290914502C1
:1015F0002FBF0895089585ED8093BC008091BC00B5
:1016000084FDFCCF1092BB02089520911E02260F8C
:101610003327331F21323105ECF42091BB02FC014A
:1016200090E080E0243069F082E00895A0911E02ED
:101630002191AC0142505E4FA40FB52FB11D2C93E8
:101640000196861798F380911E02680F60931E0220
:1016500080E0089581E00895E0914F0280914E026C
:10166000E81730F4F0E0EB58FD4F808190E00895EA
:101670008FEF9FEF089590914F0280914E022FEFD0
:101680003FEF981748F4E92FF0E0EB58FD4F208129
:1016900030E09F5F90934F02C901089580914E0200
:1016A00090914F02891B990B0895CF92DF92EF9290
:1016B000FF920F931F93CF93DF937C01CB018A019D
:1016C0002091BC02222389F0EB016B01C40ED51ED0
:1016D000CC15DD0569F06991D701ED91FC91019080
:1016E000F081E02DC7010995F3CF642F0E94050B0F
:1016F000C801DF91CF911F910F91FF90EF90DF9084
:10170000CF900895CF93DF931F92CDB7DEB7698353
:101710002091BC022223F9F02091DF02203258F000
:1017200021E030E0FC013383228390E080E00F90E1
:10173000DF91CF9108958091BD02E82FF0E0E2544F
:10174000FD4F998190838F5F8093BD028093DF026C
:1017500081E090E0ECCF61E0CE0101960E94050BA4
:10176000F7CFCF93C82F81E08093BC0287E78093A7
:10177000DE021092BD021092DF0264EF8DE793E06B
:101780000E94820B6C2F8DE793E00E94820BCF9119
:101790000C942B0290E080E008950895089521E0D4
:1017A000FC018085811101C020E0822F0895BF9245
:1017B000CF92DF92EF92FF920F931F93CF93DF931D
:1017C000EC016B018A01790180E1B82EE114F1048A
:1017D00081F18A89803161F488819981DC01ED9100
:1017E000FC910284F385E02DA601B60109951A8AC1
:1017F0008A89BB2DB81B8B2FBE151F0411F008F072
:101800008E2D302FD8019A2F931B981760F4EA89F8
:1018100091E09E0F9A8BEC0DFD2DF11D2D91908185
:1018200092279083F0CF90E0E81AF90A080F191F69
:10183000CDCFDF91CF911F910F91FF90EF90DF906F
:10184000CF90BF9008950F931F93FC0107851685D5
:1018500025853485000F111F221F331F168725870A
:1018600034871385228531854085111F221F331F40
:10187000441F13872287318740871781268135814E
:101880004481111F221F331F441F17832683358372
:1018900044831381228131814081111F221F331F14
:1018A000441F1383228331834083112D110917783C
:1018B000012707871F910F9108952F923F924F9212
:1018C0005F926F927F928F929F92AF92BF92CF92D0
:1018D000DF92EF92FF920F931F93CF93DF93EC0170
:1018E0005B018A0179016C0182E4C80ED11C1E01E2
:1018F00094E4290E311C2E01A2E04A0E511C3E0137
:10190000B2E16B0E711C4E01E0E18E1A9108E114F8
:10191000F10409F448C0D6018C918031D9F4F10169
:1019200080819181DC01ED91FC910284F385E02DB1
:10193000A201B3010995F6011082FE0181E090E059
:101940002189820F911D818B892F99273197E81565
:10195000F905B1F7D6018C91B0E1B81B8B2FBE15FC
:101960001F0411F008F08E2D502F9501F8019E2FC5
:10197000951B981780F44191D6016C9191E0960FD8
:101980009C93DE01A60FB11D52969C919427D9011C
:101990009D939D01ECCF90E0E81AF90A080F191FFA
:1019A000A80EB91EB4CFDF91CF911F910F91FF9078
:1019B000EF90DF90CF90BF90AF909F908F907F90EF
:1019C0006F905F904F903F902F900895FB019A0188
:1019D000DC01AD5BBF4F4C91442341F0BC016E5C18
:1019E0007F4FAF018C5B9F4F0C94D70B08958C5B9E
:1019F0009F4FDC018D919C91DC01ED91FC91008465
:101A0000F185E02D099480E190E008958C5B9F4F73
:101A1000DC018D919C91DC01ED91FC910680F781B8
:101A2000E02D09940F931F93CF93DF9300E010E014
:101A300021E030E0081B190B21093109890101500F
:101A40001109FB01DA01AB01405E5F4F2191319139
:101A50008D919C9111978227932780239123BF0119
:101A60006250710928273927EB01398328832D918A
:101A70003C911197822793278D939D93E417F50747
:101A800029F7DF91CF911F910F9108956F927F9267
:101A90008F929F92AF92BF92CF92DF92EF92FF927E
:101AA0000F931F93CF93DF93FC013B01CA01EF011A
:101AB000AB01405E5F4F9F01C12CD12C7601D30159
:101AC0000D911D913D01DC016D917D91CD0167016D
:101AD000EE24FF2446015701B1E08B229924AA2469
:101AE000BB246801F12CE12CC61AD70AE108F108E1
:101AF000C818D908EA08FB08D901CD92DD929D01EA
:101B000046155705E1F66701EE24FF24B3E1CB2229
:101B1000DD24EE24FF2480819181B0E0A0E08C19C7
:101B20009D09AE09BF09918380839F01225E3F4FCB
:101B3000CD01AA27BB2781709927AA27BB274A81F5
:101B40005B8170E060E07A018B01E81AF90A0A0B08
:101B50001B0BD801C701A701FB82EA8222962C1732
:101B60003D0731F75F77578F468FDF91CF911F91F8
:101B70000F91FF90EF90DF90CF90BF90AF909F902C
:101B80008F907F906F9008958F929F92AF92BF92A7
:101B9000CF92DF92EF92FF920F931F93CF93DF9339
:101BA000CDB7DEB7A0970FB6F894DEBF0FBECDBF9E
:101BB000FC019C01AE014F5F5F4FBC01605E7F4F37
:101BC0008A01A3E18A2E912CA12CB12CD901ED9090
:101BD000FD909D01D501C4018E0D9F1DA11DB11D5C
:101BE0006C017D01D801CD92DD928D014701AA24BF
:101BF000BB242617370751F72F8D38A17901FF0C29
:101C0000EE08FE2CC701809590953F7738A32F8F63
:101C100000811181DA012D913D91AD0120273127FD
:101C20002E213F2120273127219331936E177F07E3
:101C300079F7A0960FB6F894DEBF0FBECDBFDF9147
:101C4000CF911F910F91FF90EF90DF90CF90BF90B9
:101C5000AF909F908F9008958F929F92AF92BF9276
:101C6000EF92FF92CF93DF93FB01EA01DC019B012E
:101C7000205E3F4F40E050E0BA01E190F190899042
:101C80009990B12CA12C8E0C9F1CA11CB11C480D4D
:101C9000591D6A1D7B1D4D935D93AB016627772708
:101CA000E217F30751F7DF91CF91FF90EF90BF90CC
:101CB000AF909F908F900C94C40D2F923F924F92B3
:101CC0005F926F927F928F929F92AF92BF92CF92CC
:101CD000DF92EF92FF920F931F93CF93DF934C010C
:101CE000FB01C68DD78D2D2F221F2227221F30E00A
:101CF000A3E1B0E00E9419326B017C01DF77D78F3E
:101D0000C68F1F018F0150E058010E5F1F4FD50194
:101D100090962D913C91A6E2B0E00E941932E50127
:101D2000288139812B013C01420E531E611C711C1C
:101D3000C40CD51CE61CF71CD8011297CD92DC927E
:101D40006701EE24FF245F5F4513DECF5031C1F001
:101D5000A52FB0E0AA0FBB1FED01CE0FDF1F8991A9
:101D60009991C80ED91EE11CF11CCE010297DC012D
:101D7000CD92DC926701EE24FF245F5F503179F74A
:101D8000A6E2B0E0A70196010E94E4316B017C015C
:101D9000468D578D252F221F2227221F30E0A3E1D9
:101DA000B0E00E9419326C0D7D1D8E1D9F1D5F7766
:101DB000578F468F9F01205E3F4FDF014D915D9110
:101DC000640F751F811D911DAD0142505109EA013B
:101DD00079836883BC01882799272A173B0771F705
:101DE0009F0143E150E060E070E0E9018991999141
:101DF0009E01480F591F611D711D5F8F4E8FAB01F2
:101E000066277727A217B30781F786AD97ADAC0198
:101E1000550F440B542F9F7797AF86AFF401D10134
:101E20006D917D911D015E968D919C915F978627A6
:101E300097278423952386279727819391932A17A1
:101E40003B0769F7DF91CF911F910F91FF90EF90C2
:101E5000DF90CF90BF90AF909F908F907F906F90CA
:101E60005F904F903F902F9008952F923F924F9206
:101E70005F926F927F928F929F92AF92BF92CF921A
:101E8000DF92EF92FF920F931F93CF93DF93CDB723
:101E9000DEB7C454D1090FB6F894DEBF0FBECDBF74
:101EA0006C011B01DB01AD90BC90FE0131964A0133
:101EB000B0E28B0E911C7A01412C512C32012296FA
:101EC000EFAF22972396FFAF2397D7012D913D9136
:101ED0007D01D5010E941932460E571E681E791EDB
:101EE000419251922301662477248E149F0469F74E
:101EF0005AA249A27101B2E0EB0EF11CFE01B396A9
:101F000080E2280E311CD7014D905D907D018F013C
:101F1000005211093A01812C912C5401D3012D91C9
:101F20003D913D01D2010E941932D8012D913D9180
:101F30002596BFAFAEAF2597620F731F811D911D10
:101F4000860E971EA81EB91ED8018D929C9245013F
:101F5000AA24BB2425960EAD1FAD25970E171F078B
:101F6000E9F6F801819291922E143F0461F640E166
:101F700022966FAD229723967FAD2397C6010E94CC
:101F80005D0ECC5BDF4F0FB6F894DEBF0FBECDBF4A
:101F9000DF91CF911F910F91FF90EF90DF90CF9045
:101FA000BF90AF909F908F907F906F905F904F9079
:101FB0003F902F9008951F93CF93DF93DC015F969E
:101FC0001C915F9730E020E080E060E071E0F90173
:101FD000EA56FD4F949191279F77F901EB56FD4FFB
:101FE000ED016F9644915A914527942B3197AC1788
:101FF000BD07C1F7AB01491B5109852B205E3F4F3F
:10200000203A310521F7DF91CF911F910895AB015F
:102010000C94350F680F791FFC0110820196681728
:102020007907D1F70895CF93DF93EC0160E270E078
:1020300009960E940A101D821E821F828FEF93E074
:102040009AA789A71CA61BA61EA61DA618AA1FA68E
:10205000DF91CF910895CF93DF93EC018C810E94A3
:10206000E50929A53AA58217930714F49AA789A729
:102070002BA53CA52817390714F49CA78BA74A81E8
:102080005B819A01281B390B2227330F221F33272C
:102090006DA57EA560FF37C09D81921791F08E815E
:1020A000803278F4FE01E80FF11D9185990F922B93
:1020B00091879F819F5F9F83983018F08F5F8E83F9
:1020C0001F828FA598A9820F931F98AB8FA76F5F70
:1020D0007F4F7EA76DA76115744094F02BA53CA59A
:1020E00069A57AA5261B370B2038310574F4CE017B
:1020F0000E94131081E0888780E092E09B838A83AE
:10210000DF91CF9108952D83DCCF9C012C5C314071
:1021100028363105C0F44E81483180F050E09A01F4
:10212000220F331F220F331FE881F9810284F385C8
:10213000E02DBE01675F7F4FCE010995CE010E9461
:1021400013101886DDCF9C013A9521303240E8F01B
:1021500020E032E0B901681B790BCB0177FD0796CF
:1021600023E0959587952A95E1F7481B590B5B83EA
:102170004A838A819B8197FF11C01B821A82CE01FC
:102180000E94131081E08887BBCF811592401CF418
:1021900041505109ECCF4F5F5F4FE9CF811594401B
:1021A00074F38FEF93E09B838A83E9CF26EA31E0D3
:1021B000FC01318320830C941310EF92FF920F9354
:1021C0001F93CF93DF93CDB7DEB760970FB6F89428
:1021D000DEBF0FBECDBF7C018B01DC0152968C911E
:1021E000803109F449C080E1F7013296DE01119691
:1021F00001900D928A95E1F7CE0101960E94230C81
:10220000D7015296EC91E00FF12FF11D808180589B
:102210008083F801BE016F5F7F4F9801205F3F4FC1
:102220008191DB019D91BD01AF0141505109892789
:10223000DA018C932E173F0799F760E170E0CE0129
:1022400001960E940A10D7018D919C91DC01ED91BD
:10225000FC910284F385E02DA801B80109956096F0
:102260000FB6F894DEBF0FBECDBFDF91CF911F91A7
:102270000F91FF90EF900895DB01B7016E5F7F4FE4
:1022800097012E5E3F4F8D91FB019191BF01AD01F2
:10229000415051098927FA0180836217730799F722
:1022A000D2CF62E470E002960C940A10CF93DF93D1
:1022B000EC012EE131E0FC0121933193CF0162E486
:1022C00070E00E940A1060E170E0CE018A5B9F4FCF
:1022D000DF91CF910C940A1060E270E00C940A1028
:1022E000FC01628170E06F5F7F4F84E0660F771FB3
:1022F0008A95E1F7838194810C940A104F925F9242
:102300006F927F928F929F92AF92BF92CF92DF9205
:10231000EF92FF920F931F93CF93DF93EC01FB019A
:102320003081818192812381A32FB0E0AD01440FE0
:10233000551F7BE1672E659E702C11247426482E54
:10234000512CA201440F551F659EB02C1124B426B8
:10235000692F70E07B01EE0CFF1C6F9C902C112408
:102360009E24422F50E08A01000F111F619E602CB5
:10237000112460267D01EE0CFF1CEE0CFF1C620197
:10238000CC0CDD1CCC0CDD1C0D2D11270E5E1E4F60
:10239000F80180808C246B01CC0CDD1CCC0CDD1C86
:1023A0000D2D11270E5E1E4FF801A080AC246A018E
:1023B000CC0CDD1CCC0CDD1C0D2D11270E5E1E4F30
:1023C000F801D080DC24E3E0AA0FBB1FEA95E1F717
:1023D0000B2F11270E5E1E4FF80110811A27F201F4
:1023E000A3E0EE0FFF1FAA95E1F7AF2FBB27AE5E6C
:1023F000BE4FAC91EA2703E0660F771F0A95E1F71D
:10240000A72FBB27AE5EBE4F0C916027A3E0440F01
:10241000551FAA95E1F7A52FBB27AE5EBE4F0C91C5
:102420004027AF2DBB27AE5EBE4F5C91E526E1266F
:10243000582F592752275A255E27562754275725A4
:102440005B255E255883532F5927522758255D2534
:1024500051275E2756275427B526B924B982C32EA3
:10246000C8262C25A226AE26A626A4269A24962483
:102470009E249A82C926C824CD24AC2DA127EA2700
:102480000E2F06270427072506250B83DF91CF9102
:102490001F910F91FF90EF90DF90CF90BF90AF9082
:1024A0009F908F907F906F905F904F900895CF9303
:1024B000DF93FC01EB015881B9819A812B81652F53
:1024C00070E0660F771F3BE1379F802D112468274E
:1024D000CB2FD0E0CC0FDD1F3D9F402D1124AC2F22
:1024E000A427C92FD0E0CC0FDD1F3D9F702D1124F4
:1024F0007C27C22FD0E0CC0FDD1F3D9F302D112453
:102500003C278B2F8927822786278A278083452F80
:10251000492742274A27472741835B272527272723
:10252000232722839527962793279383DF91CF91A3
:102530000895CF93DF93DC01EB01E881F0E0ED58E3
:10254000FE4FE491EC93ED85F0E0ED58FE4FE49101
:102550001196EC931197EA85F0E0ED58FE4FE49167
:102560001296EC931297EF81F0E0ED58FE4FE49154
:102570001396EC931397EC81F0E0ED58FE4FE49145
:102580001496EC931497E981F0E0ED58FE4FE49136
:102590001596EC931597EE85F0E0ED58FE4FE4911B
:1025A0001696EC931697EB85F0E0ED58FE4FE4910C
:1025B0001796EC931797E885F0E0ED58FE4FE491FD
:1025C0001896EC931897ED81F0E0ED58FE4FE491EA
:1025D0001996EC931997EA81F0E0ED58FE4FE491DB
:1025E0001A96EC931A97EF85F0E0ED58FE4FE491C0
:1025F0001B96EC931B97EC85F0E0ED58FE4FE491B1
:102600001C96EC931C97E985F0E0ED58FE4FE491A1
:102610001D96EC931D97EE81F0E0ED58FE4FE4918E
:102620001E96EC931E97EB81F0E0ED58FE4FE4917F
:102630001F96EC93DF91CF9108959F92AF92BF9236
:10264000CF92DF92EF92FF920F931F93CF93DF937E
:10265000CDB7DEB7A0970FB6F894DEBF0FBECDBFE3
:102660008C016B01DC011296EC90B0E1EB9EC00195
:102670001124F801E380F480E80EF91EFA019701B5
:10268000BE016F5F7F4F405F5F4F962EA72E8191F7
:10269000D9019D919D018927DB018D93BD01E4172F
:1026A000F507A9F7692D7A2DCE0141960E9499125E
:1026B000F801B280870100511109F1E0FB15A8F57E
:1026C000DE015196A8018D91FA019191AF019D0112
:1026D000215031098927F90180834E155F0599F74B
:1026E000BE016F5E7F4F892D9A2D0E947E11BE0123
:1026F0006B5E7F4FCE0105960E947E11BE01675E24
:102700007F4FCE0109960E947E11BE01635E7F4F0E
:10271000CE010D960E947E11692D7A2DCE01419633
:102720000E949912BA947801C5CFAE014F5E5F4FF7
:10273000D801C601FA012191AF013D912327FC0187
:102740002193CF01EA16FB06A9F7A0960FB6F894DD
:10275000DEBF0FBECDBFDF91CF911F910F91FF90D4
:10276000EF90DF90CF90BF90AF909F900895CF9360
:10277000DF93DC01EB01E881F0E0ED58FF4FE491DD
:10278000EC93ED81F0E0ED58FF4FE4911196EC935E
:102790001197EA85F0E0ED58FF4FE4911296EC9323
:1027A0001297EF85F0E0ED58FF4FE4911396EC930C
:1027B0001397EC81F0E0ED58FF4FE4911496EC9301
:1027C0001497E985F0E0ED58FF4FE4911596EC93EE
:1027D0001597EE85F0E0ED58FF4FE4911696EC93D7
:1027E0001697EB81F0E0ED58FF4FE4911796EC93CC
:1027F0001797E885F0E0ED58FF4FE4911896EC93B9
:102800001897ED85F0E0ED58FF4FE4911996EC93A1
:102810001997EA81F0E0ED58FF4FE4911A96EC9396
:102820001A97EF81F0E0ED58FF4FE4911B96EC937F
:102830001B97EC85F0E0ED58FF4FE4911C96EC936C
:102840001C97E981F0E0ED58FF4FE4911D96EC9361
:102850001D97EE81F0E0ED58FF4FE4911E96EC934A
:102860001E97EB85F0E0ED58FF4FE4911F96EC9337
:10287000DF91CF910895BF92CF92DF92EF92FF92B6
:102880000F931F93CF93DF93CDB7DEB7A0970FB60B
:10289000F894DEBF0FBECDBF7C016B01DC01139647
:1028A0000D911C91FA01A801BF01605F7F4F9E014D
:1028B0002F5F3F4F9191DA018D91AD019827D9019A
:1028C0009D939D01E617F707A9F7005F1F4FF701DA
:1028D000B280C80140967C0191E0BE016F5F7F4FDE
:1028E0009B15A0F5CE0141960E94B713BE016F5E05
:1028F0007F4FCE0101960E945712BE016B5E7F4F43
:10290000CE0105960E945712BE01675E7F4FCE0131
:1029100009960E945712BE01635E7F4FCE010D964D
:102920000E945712F801AE014F5F5F4FDA018D919F
:10293000AD0191919D01215031098927D9018C93D5
:10294000EE15FF0599F78F01BA94C3CFCE014196DA
:102950000E94B713AE014F5E5F4FF801C601DA0166
:102960002D91AD0131912327DC012D93CD01EE1680
:10297000FF06A9F7A0960FB6F894DEBF0FBECDBF35
:10298000DF91CF911F910F91FF90EF90DF90CF904B
:10299000BF90089580E290E008952CE331E0FC01BF
:1029A0003183208360EF70E005960C940A10FC01DF
:1029B00020813181828193812817390719F0822F74
:1029C0000C9468090895CF93DF93EC018CB58F7D4B
:1029D0008CBD8CB5837F8CBD8CB58C7F8CBD8DB54B
:1029E00081608DBD8A810E9468098C899D89DF91F3
:1029F000CF910C94DC0761E00C94E31460E00C943C
:102A0000E3148EBD00000DB407FEFDCF8EB5089512
:102A10001F93CF93DF93EC010E94FE1481EE0E947E
:102A20000115182FCE010E94FB14812FDF91CF9149
:102A30001F9108950F931F93CF93DF938C01C62F9F
:102A4000D42F0E94FE148C2F8F7180620E9401157A
:102A5000C82F8D2F0E940115C8010E94FB148C2FD6
:102A6000DF91CF911F910F910895CF92DF92EF9256
:102A7000FF920F931F93CF93DF937C01C62F6A01C0
:102A8000122F0E94FE148C2F8F7180620E940115FC
:102A9000082FE601115020F089910E940115FACF0C
:102AA000C7010E94FB14802FDF91CF911F910F91DE
:102AB000FF90EF90DF90CF9008951F93CF93DF9317
:102AC000EC01162F0E94FE14812F0E9401158FEF3A
:102AD0000E940115182FCE010E94FB14812FDF9157
:102AE000CF911F91089560E08AEE93E00E94D71481
:102AF00060E08AEE93E00E945D15482F4D7F60E014
:102B00008AEE93E00C941A15CF93DF93C82FAB0194
:102B1000813059F5E7E8F3E064912091F8038AEEFB
:102B200093E00E943515D0E0FE01E058FC4F64911F
:102B30004091F1038AEE93E00E941A1562E08AEE5A
:102B400093E00E945D15FE01E658FC4FE49141E0E0
:102B500050E001C0440FEA95EAF7482B62E08AEEA4
:102B600093E0DF91CF910C941A15E8E8F3E06491BB
:102B700021E0D5CF0F931F93CF938C0166E08AEEAF
:102B800093E00E945D15C82FC77D85E590E0A0E029
:102B9000B0E00230110529F4C0628BE990E0A0E0BA
:102BA000B0E08093FA039093FB03A093FC03B093EF
:102BB000FD034C2F66E08AEE93E00E941A1566E052
:102BC0008AEE93E00E945D1591E0C81390E0892F92
:102BD000CF911F910F9108950F931F93CF938C0165
:102BE000C62F66E00E945D15887FC43058F4CC0F74
:102BF000CF5F4C2F482B66E0C801CF911F910F91FA
:102C00000C941A15C7E0F5CFCF93DF93EC0160E089
:102C10000E945D1581FD0EC0482F426060E0CE012C
:102C20000E941A1565E070E080E090E0DF91CF919E
:102C30000C941F0ADF91CF910895CF93DF93EC019D
:102C400060E00E94D714888999890E94DC076DE1B1
:102C5000CE010E945D1581FF07C0888999890E9475
:102C6000DC07CE010E94081560E0CE010E945D15D0
:102C7000482F4E7F60E0CE010E941A1562E0CE011F
:102C80000E945D15EAE7F3E0E49141E050E001C005
:102C9000440FEA95EAF7482B62E0CE01DF91CF912D
:102CA0000C941A15CF93DF93EC010E94041660E098
:102CB000CE010E945D15482F416060E0CE010E9468
:102CC0001A1540E767E0CE010E941A1561E0CE01B7
:102CD0000E94D7148985882399F02E85AE01475F1D
:102CE0005F4F6AE0CE010E9435156DE1CE010E9472
:102CF0005D1581FF1AC0CE01DF91CF910C940815AC
:102D000062E0CE010E945D15EAE7F3E0E49121E084
:102D100030E001C0220FEA95EAF72095422F4823C0
:102D200062E0CE010E941A15E0CFDF91CF910895A5
:102D30004F925F926F927F928F929F92AF92BF92CB
:102D4000CF92DF92EF92FF920F931F93CF93DF9377
:102D5000982E892E1092E8038091B4038F5F8093A0
:102D6000B40386E0E82E98E2A92EBB24B394F09039
:102D7000E803F1108CC0EA94EE2009F488C0809139
:102D8000AB039091AC030E941D16C091AB03D09190
:102D9000AC031F81012F113208F000E28885101B5F
:102DA000811110E0CE010E94FE1480EB0E940115FB
:102DB000C92CD82C015030F0F60181916F010E948E
:102DC0000115F8CF115020F080E00E940115FACFD4
:102DD000CE010E94FB1461E0CE010E94D7140E9434
:102DE000EE0A2B013C01CE010E94FE148FEF0E94DF
:102DF0000115182FCE010E94FB141073B1F50E942B
:102E0000EE0A64197509860997096036710581050E
:102E1000910548F381E08F87F092E80368E08091A4
:102E2000AB039091AC030E945D152091B0033091EB
:102E3000B103215F3F4F3093B1032093B0038F70F4
:102E40002091B2033091B303820F932F911D909381
:102E5000B3038093B2038091AB039091AC030E94C3
:102E60005216C5010197F1F782CF60E0CE010E94B2
:102E7000D71440E767E0CE010E941A1584FF04C012
:102E8000CE010E940815C8CFFF24F394C5CF8F2D23
:102E9000DF91CF911F910F91FF90EF90DF90CF9036
:102EA000BF90AF909F908F907F906F905F904F906A
:102EB0000895CF93DF93EC01BC016C5F7F4F80914D
:102EC000AD039091AE03DC01ED91FC910484F58596
:102ED000E02D2CE130E0AB010995CE01DF91CF91DF
:102EE0000C949816FC0121893289232B81F420E06F
:102EF00030E040E251E462817381848195810E94D7
:102F00008C330E949F32CB01693E734010F08FEFEB
:102F100090E00895CF93DF93EC0189899A8960E06E
:102F200070E8892B61F420E030E040E251E46E81EA
:102F30007F81888599850E948C330E949F32CB01C6
:102F40008C509E4F893E9340B8F48B899C898115A3
:102F500020E8920759F0861B970B97FF03C09195C5
:102F600081959109C39714F060E070E87C8B6B8BBE
:102F7000CB01DF91CF91089560E070E8F9CFFC01BB
:102F80008285833091F44581568167817085483B05
:102F90008BE0580761057105D8F081E04C3A5D403F
:102FA00061057105A0F080E012C08230E1F7458133
:102FB000568167817085443B9AE059076105710528
:102FC00030F081E0473D5A406105710560F7089592
:102FD00082E00895CF93DF93EC0180E591E099833F
:102FE0008883CE01895A9F4F0E94CD14CE01DF9174
:102FF000CF910C94561165E0FC01868197810C9469
:103000005D1566E0FC01868197810E945D1590E068
:1030100095958795837008951F93CF93DF93EB0168
:1030200091E09093BC0297E79093DE021092BD026C
:103030001092DF02682F8DE793E00E94820B0E94BE
:103040002B0282E00E94880210924F0280934E026F
:103050008DE793E00E943B0B182F8DE793E00E94D1
:103060003B0B20E0822B912B99838883DF91CF91BA
:103070001F910C942B020F931F93CF93DF9300D0DB
:10308000CDB7DEB78C018EE20E94B10B65E070E037
:1030900080E090E00E941F0ABE016F5F7F4F86EFC5
:1030A0000E940C1889819A81B0E0A0E0F801808329
:1030B0009183A283B3830F900F90DF91CF911F91E3
:1030C0000F9108950F931F93CF93DF9300D0CDB747
:1030D000DEB78B01BE016F5F7F4F0E940C188981A4
:1030E0009A81F801918380830F900F90DF91CF91A7
:1030F0001F910F910895CF93DF93EB0191E090938F
:10310000BC0297E79093DE021092BD021092DF029C
:10311000682F8DE793E00E94820B0E942B0281E0D2
:103120000E94880210924F0280934E028DE793E036
:103130000E943B0B8883DF91CF910C942B022F923E
:103140003F924F925F926F927F928F929F92AF9237
:10315000BF92CF92DF92EF92FF921F93CF93DF93B4
:10316000CDB7DEB72B970FB6F894DEBF0FBECDBF3D
:103170001B0119821A821B821C82CE0101960E94B9
:103180003B1810915002812F8295880F880F807C08
:103190008C5C0E94B10B68E070E080E090E0113040
:1031A00081F065E070E080E090E0113050F06EE07A
:1031B00070E080E090E0123021F06AE170E080E0A1
:1031C00090E00E941F0ABE016B5F7F4F86EF0E9456
:1031D0000C188D809E80B12CA12CBA2CA92C982C77
:1031E0008824BE01695F7F4F88EF0E947B188F8122
:1031F000880E911CA11CB11C80915C0290915D0213
:1032000029813A814B815C81281B390B4109510985
:10321000A0915A02B0915B020E94E4312B013C0163
:10322000AFE07594679457944794AA95D1F760914D
:10323000640270916502072E000C880B990BBBE0AD
:10324000660F771F881F991FBA95D1F720916602E4
:1032500030916702032E000C440B550B240D351DD5
:10326000461D571D0E94C531420E531E641E751E19
:1032700020EA421A2FE0520A61087108A301920164
:10328000C301B2010E94F9336B017C018CE0F5941B
:10329000E794D794C7948A95D1F7A0915602B0913C
:1032A00057020E94EF319B01AC019DE05595479577
:1032B000379527959A95D1F7288739874A875B876D
:1032C000A0915E02B0915F02A70196010E94EF31CA
:1032D0009C01552737FD5095452F88859985AA85EE
:1032E000BB85280F391F4A1F5B1F2E5F3F4F4F4F73
:1032F0005F4F62E055954795379527956A95D1F7C9
:1033000030584F4F5F4FA0915802B09159020E9420
:10331000E4319B01AC017FE05695479537952795A1
:103320007A95D1F7288739874A875B8788E090E0CC
:10333000811B910904C0B594A794979487948A95AA
:10334000D2F7A0916002B0916102A70196010E949C
:10335000EF316B017C01EBE0F594E794D794C794CF
:10336000EA95D1F7A0915402B0915502A3019201C0
:103370000E94EF31FBE09595879577956795FA95D3
:10338000D1F7C60ED71EE81EF91E80915202909109
:103390005302092E000CAA0BBB0B22E0880F991FC9
:1033A000AA1FBB1F2A95D1F78C0D9D1DAE1DBF1DF9
:1033B0006C017D01012E04C0CC0CDD1CEE1CFF1C39
:1033C0000A94D2F732E0C30ED11CE11CF11C32E0AA
:1033D000F594E794D794C7943A95D1F7A501940151
:1033E0002C193D094E095F0960E573EC80E090E01F
:1033F00004C095958795779567951A95D2F70E94A1
:10340000F93397FD61C0660F771F881F991F2885C4
:1034100039854A855B850E94F73169017A019927D0
:10342000F7FC9A958F2D7E2D6D2D9B01AC010E948E
:10343000F9339B01AC01AEEDBBE00E94E4314B01DE
:103440005C01A3E4B3EEA70196010E94F231BC0136
:10345000992777FD9095892F4501BB2497FCB0945F
:10346000AB2C680D791D8A1D9B1D6153714F8F4FC9
:103470009F4F44E095958795779567954A95D1F745
:103480006C0D7D1D8E1D9F1D0E94D732D1016D9345
:103490007D938D939C9313972B960FB6F894DEBF74
:1034A0000FBECDBFDF91CF911F91FF90EF90DF90C6
:1034B000CF90BF90AF909F908F907F906F905F90D4
:1034C0004F903F902F900895288539854A855B85D8
:1034D0000E94F73169017A01CC0CDD1CEE1CFF1C47
:1034E0009ECFFC0101900020E9F73197AF01481B06
:1034F000590BBC0180EE92E00C9440088F929F9291
:10350000AF92BF920F931F93CF93DF93CDB7DEB7E8
:10351000A1970FB6F894DEBF0FBECDBF19A24230FF
:1035200008F44AE08E010F5D1F4F842E912CB12CC0
:10353000A12CA50194010E94F731E62FB901CA011F
:10354000EA30F4F4E05DD801EE938D01232B242BB7
:10355000252B79F790E080E0109719F0CD010E94BB
:10356000711AA1960FB6F894DEBF0FBECDBFDF91E2
:10357000CF911F910F91BF90AF909F908F90089522
:10358000E95CE1CF0F931F93CF93DF93C6E5D4E0BF
:1035900088A999A9AAA9BBA90196A11DB11D88ABAB
:1035A00099ABAAABBBABBE0186E994E00E94CA020C
:1035B00080E3E6E9F4E0A6E6B4E001900D928A9596
:1035C000E1F70E94FA090CA91DA92EA93FA9DC0167
:1035D000CB0180279127A227B3278CAB9DABAEAB45
:1035E000BFABDF91CF911F910F910895CF92DF92E2
:1035F000FF920F931F93CF93DF93CDB7DEB7C054E5
:10360000D1090FB6F894DEBF0FBECDBF2091B50330
:103610002F5F2093B50329E0F22EF9A2E091A903D0
:10362000F091AA0320812AA31CA21BA21EA21DA204
:1036300098A78FA3E091A703F091A80380E1DE0192
:10364000999601900D928A95E1F7CE0181960E949C
:1036500098168091E803882309F479C08091AD031E
:103660009091AE03009709F1DC01ED91FC91008887
:10367000F189E02D09950091AD031091AE03D801B9
:10368000ED91FC91C084D1840480F581E02DC801C6
:103690000995AC0166EB73E0C801F601099581114B
:1036A00006C080ED91E00E94711A81E041C08091D6
:1036B000AD039091AE03DC01ED91FC910284F385A2
:1036C000E02D40E150E066ED73E00995811103C003
:1036D00088ED91E0E8CF8091AD039091AE03DC01DD
:1036E000ED91FC910488F589E02D46E150E0BE01A2
:1036F0006F5D7F4F0995F982E091A903F091AA03CC
:1037000080818A8381E090E09C838B838EEF9FEFA2
:103710009E838D8380E1E6EDF3E0DE011796019054
:103720000D928A95E1F7CE0101960E94981682E0EB
:10373000C05CDF4F0FB6F894DEBF0FBECDBFDF9188
:10374000CF911F910F91FF90DF90CF90089580E06F
:10375000EFCFDF92EF92FF920F931F93CF93DF9300
:103760004032510509F079C0EC01259620E2FB01B9
:10377000DE0101900D922A95E1F7AC014B525F4FAB
:1037800061E008E0EC8C18819D8DB981FE8CAA81E6
:103790008F8D7B81083009F037C0E92FF0E0ED58BC
:1037A000FF4F3491E62FF0E0E859FF4FD490EF2D12
:1037B000F0E0ED58FF4F2491E82FF0E0ED58FF4F77
:1037C0000491EE2DF0E0ED58FF4F8491E32FED25AD
:1037D0001E2718A3E22FEB27E9A3E02FEA27EAA38D
:1037E000E82FE727EBA36F5F00E024960F5F4C17ED
:1037F0005D0709F0C7CF81E0DF91CF911F910F9155
:10380000FF90EF90DF900895EE2D0430F9F4F0E092
:10381000ED58FF4F3491E92FF0E0ED58FF4F249120
:10382000EF2DF0E0ED58FF4F9491E82FF0E0ED58C8
:10383000FF4F8491132718A3E22FEB27E9A3E92F69
:10384000EA27EAA3E82FE727EBA3CFCFE127E8A3F6
:10385000E92FEB27E9A3EF2DF3CF80E0CDCF8091C7
:10386000860490918704A0918804B0918904019600
:10387000A11DB11D8093860490938704A0938804B2
:10388000B093890466E574E086E994E00E94CA0278
:103890004FE250E060ED73E086E994E00E94AD31C4
:1038A000E6E9F4E045EC54E06CEA8191682728E011
:1038B000862F062E000C990B880F892F881F990BD5
:1038C0008D71660F6827215099F74E175F0769F7CA
:1038D0008FEF93E00E94B7310E94C21A0E94EE0A55
:1038E0006093D8047093D9048093DA049093DB0436
:1038F00008950F931F93CF93DF938C01EB01CA01BF
:1039000023E0969587952A95E1F78617970740F06B
:10391000209731F0AB0183E0440F551F8A95E1F702
:103920002091D6048091D704382F3F7160E871E070
:10393000621B730B46175707C8F5240F351F2093DA
:10394000D604932F9F71807E892B8093D704209774
:1039500099F1CE01C133D10510F080E390E0C81B8E
:10396000D90BA6E6B4E0F801800F911F31912C919C
:1039700023272D93E817F907C9F78F010E94C21A70
:10398000209739F78091D70485FF19C02091D6047C
:10399000382F3F712038314090F08F7D8093D704CD
:1039A000DF91CF911F910F910C942F1C90E8909371
:1039B000D604807E8160C9CF0E94C21AE3CFDF9116
:1039C000CF911F910F910895CB01BA01A9010C94D9
:1039D000791CCF92DF92EF92FF92CF93DF93EC01AD
:1039E00040E150E06EEE73E086E594E00E948C3199
:1039F00040E350E06EEB73E086E694E00E948C3189
:103A000040E350E060ED73E086E994E00E94953178
:103A1000E6E9F4E045EC54E08CEA9191892798E0DE
:103A2000282F082E000C330B220F232F221F330BBD
:103A30002D71880F8227915099F74E175F0769F70C
:103A40009091C50498131CC0E6E6F4E026E934E042
:103A5000C190D190E190F190AF014450510984A5FB
:103A600095A5A6A5B7A5C826D926EA26FB26DA017C
:103A7000CD92DD92ED92FC9213972E173F0741F7FE
:103A80001092D6048091D704807E80628093D70400
:103A90000E94C21A209769F0FE0101900020E9F708
:103AA0003197BF016C1B7D0B50E040E0CE010E94BE
:103AB000791C50E040E063E170E08FED91E00E94FE
:103AC000791CF894A89584B7877F84BF80916000A3
:103AD00088618093600080E48093600078940E9405
:103AE0002F1C8091D70480648093D704DF91CF91FD
:103AF000FF90EF90DF90CF900895CF92DF92EF92FA
:103B0000FF920F931F93CF93DF938C01EB01809172
:103B1000D70486FD04C090E080E00E94E91C20915B
:103B2000D6048091D704382F3F71A901A3E05595A1
:103B30004795AA95E1F74C175D0708F041C0109230
:103B4000D604807E8093D7048091D70487FF47C036
:103B500050E040E070E060E090E080E00E94791C7E
:103B60008091D7048F778093D7041092E9048091D5
:103B7000860490918704A0918804B09189040196ED
:103B8000A11DB11D8093860490938704A09388049F
:103B9000B093890466E574E086E994E00E94CA0265
:103BA000AE0166E974E0C8010E943935DF91CF911A
:103BB0001F910F91FF90EF90DF90CF900C94C21A5D
:103BC000AE01F3E0440F551FFA95E1F7241B350BC6
:103BD0002093D604932F9F71807E892BB3CFF894C6
:103BE00080917402803208F43FC0209170023091BD
:103BF0007102409172025091730210927002109201
:103C000071021092720210927302109274027894F0
:103C1000A9E0B0E00E94E4319B01AC01EBE05695D5
:103C2000479537952795EA95D1F7262737274827CF
:103C30005927A1E0B0E80E94E431C0906604D0901A
:103C40006704E0906804F0906904DC01CB018C25E6
:103C50009D25AE25BF258093660490936704A093AD
:103C60006804B093690483CF789481CFCF93DF93B6
:103C7000CDB7DEB7A0970FB6F894DEBF0FBECDBFAD
:103C800099E09983E091A903F091AA0390819A8326
:103C90002FEF3FEF3C832B833E832D8390E098876B
:103CA0008F838091AD039091AE03BE01675F7F4F1C
:103CB0000097C1F0DC01ED91FC910688F789E02DB9
:103CC00040E150E009951092E903CE0101960E946F
:103CD0009816A0960FB6F894DEBF0FBECDBFDF9149
:103CE000CF91089580E1FB0111928A95E9F7EBCF1E
:103CF0000F931F93CF93DF9300D000D0CDB7DEB7E3
:103D00008B01FB01349620E2DF011D922A95E9F731
:103D100044E250E060E070E0F80140835183628348
:103D20007383DC0113964D915D916D917C91169793
:103D3000448355836683778346E050E060E070E01B
:103D40004087518762877387108A118A128A138A83
:103D5000BE016F5F7F4F0E949F1820E030E048EC6B
:103D600052E469817A818B819C810E942D32D80135
:103D700054966D937D938D939C93579781E00F900C
:103D80000F900F900F90DF91CF911F910F91089599
:103D9000EF92FF920F931F93CF93DF93EC017C017F
:103DA00082E3E80EF11C8E010C5B1F4FB701C801C6
:103DB0000E94DD10FE019E01205F3F4F82A192A96B
:103DC000892782A33196E217F307C1F7FE01ED5B65
:103DD000FF4F10828FE0F70111928A95E9F7CF5BD0
:103DE000DF4F82E0888380E1F801828BDF91CF9101
:103DF0001F910F91FF90EF900895CF93DF93EC0107
:103E0000FC01ED5BFF4F8081882319F0CE010E94F9
:103E1000C81EBE016E5C7F4FCE018C5B9F4F0E941F
:103E2000DD109E01205F3F4F8AA19AA989278AA3AE
:103E30002196C217D307C1F7DF91CF910895EF9272
:103E4000FF920F931F93CF93DF9341315105F8F405
:103E50008A017B01EC010E94FD1EA296F7010E0D66
:103E60001F1D20E0E017F10729F089919191892722
:103E7000282BF8CF80E091E0821B9109892F817077
:103E8000DF91CF911F910F91FF90EF90089580E007
:103E9000F7CFEF92FF920F931F93CF93DF93EC0135
:103EA0008B017A010E94FD1EA7014131510510F0DE
:103EB00040E150E0BE016E5D7F4FC801DF91CF91C0
:103EC0001F910F91FF90EF900C943935CF92DF92B4
:103ED000EF92FF920F931F93CF93DF93EC016B014F
:103EE0008A017901FC01ED5BFF4F8081882319F085
:103EF000CE010E94C81EBE016E5C7F4F9701A801D3
:103F0000CE018C5B9F4F0E94D70B9701A801B60191
:103F1000CE01DF91CF911F910F91FF90EF90DF9035
:103F2000CF900C945D0CCF92DF92EF92FF920F93A3
:103F30001F93CF93DF93EC018B016A017901FC01A0
:103F4000ED5BFF4F8081882319F0CE010E94C81ECF
:103F50009701A601B801CE010E945D0CBE016E5C06
:103F60007F4F9701A801CE018C5B9F4FDF91CF91CE
:103F70001F910F91FF90EF90DF90CF900C94D70B93
:103F80008F929F92AF92BF92DF92EF92FF920F9328
:103F90001F93CF93DF934115510509F459C05A017E
:103FA0004B01EC017C0184E4E80EF11C8E010E5FF4
:103FB0001F4F80E1D82ED801ED2D1D92EA95E9F72B
:103FC000D7018D919C91DC01ED91FC910284F385E8
:103FD000E02DA801B8010995F701128AC7010296E0
:103FE000F801DC012D2D01900D922A95E1F70E9438
:103FF000230C9501A401B801C7010E94D70BB80199
:10400000C7010E94DD10DE019296F8018D2D01900E
:104010000D928A95E1F7FE01F2968FE0DF011D9285
:104020008A95E9F73F9681E08083F701D28A32973B
:10403000D082CD5BDF4F8883DF91CF911F910F91AD
:10404000FF90EF90DF90BF90AF909F908F9008957A
:1040500080E0F2CF2F923F924F925F926F927F92C9
:104060008F929F92AF92BF92CF92DF92EF92FF9288
:104070000F931F93CF93DF93CDB7DEB7CB50D240D2
:104080000FB6F894DEBF0FBECDBFC85FDD4F99837A
:104090008883C850D240C65FDD4F79836883CA5099
:1040A000D2404115510509F4C9C280E2FA01DE018E
:1040B000AF5BBF4F01900D928A95E1F7A1968EAD4F
:1040C0009FADA1979F77A1969FAF8EAFA197CE018D
:1040D0008F5B9F4F0E94C40D8170C95FDD4F888345
:1040E000C750D240CE018F599F4FFC0132962EE12E
:1040F000DF011D922A95E9F721E030E0FC013183D0
:1041000020839E012F553F4F10E2D901E12F1D92D0
:10411000EA95E9F7BE016F577F4FFE01EF5BFF4F56
:10412000DB01412F01900D924A95E1F7AE014F530B
:104130005F4FFC01DA0101900D921A95E1F7FFEF54
:10414000CA5FDD4FF883C650D240E12CAFE1CD5FAE
:10415000DD4FA883C350D24010E4712E5B016C0187
:10416000942E852E8901C65FDD4FE881F981CA5002
:10417000D240CD5FDD4FB881C350D240EB0FF11D6F
:1041800060806720E624F12CA501B601C7010E94DA
:10419000120D492D582DB801C7010E94120DA8011A
:1041A000B601CE018F519F4F0E942C0EBE016F5160
:1041B0007F4FCE018F579E4F0E940710A801B60176
:1041C000CE018F5F9E4F0E94460DBE016F5F7E4FF6
:1041D000CE018F559E4F0E940710AE014F555E4F86
:1041E000BE016F577E4FCE018F599E4F0E94460DE4
:1041F000492D582DB501CE018F5D9E4F0E942C0E8A
:10420000492D582DB501CE018F5B9E4F0E94460D62
:10421000AE014F515F4FBE016F5B7E4FCE018F539A
:104220009E4F0E94350FAE014F5F5E4FBE016F5D26
:104230007E4FCE018F519E4F0E94350FAE014F51E0
:104240005E4FBE016F537E4FC5010E942C0EB5011B
:10425000C5010E940710AE014F515E4FBE016F5362
:104260007E4F892D982D0E94460D692D782D892D20
:10427000982D0E940710AE014F5B5F4F692D782D7E
:10428000892D982D0E94350FAE014F555E4FBE010E
:104290006F577E4FC6010E94350FE3E7F2E045916C
:1042A0005491FE01EF59FE4FCC5FDD4FF983E88357
:1042B000C450D240E056F140B1E6EB2EFF24F39417
:1042C000EC0EFD1E20E2E20EF11CCE018F599E4F36
:1042D000CF5FDD4F99838883C150D240212C312C90
:1042E0002101CF5FDD4FA881B981C150D2402D910E
:1042F0003D91CF5FDD4FB983A883C150D240DA0131
:104300000E941932260E371E481E591E21923192E4
:10431000120144245524CF5FDD4F28813981C150DB
:10432000D240E216F306E9F63AA229A2E5E7F2E066
:10433000E590F490FE013396212C312C2101CC5FC5
:10434000DD4FA881B981C450D2402D913D91CC5F01
:10435000DD4FB983A883C450D240D7010E941932DF
:10436000DF012D913D91AB01BC01420F531F611D37
:10437000711D420D531D641D751D518340831B012A
:1043800044245524FD01CF5FDD4F28813981C15080
:10439000D240CC5FDD4F88819981C450D24028172C
:1043A000390769F63CA22BA242E0BE016F5F7F4F46
:1043B000C8010E945D0EAE014F575E4FB801C801A3
:1043C0000E942C0EAE014F595E4FB801C8010E94E9
:1043D000350F7694E62CE694711011C0CD5FDD4F59
:1043E0009881C350D2409150CD5FDD4F9883C35028
:1043F000D240E62CE794EE24E79440E8742ECA5F9E
:10440000DD4FA881C650D240A150CA5FDD4FA883BE
:10441000C650D240A111A7CEF12CA501B601C7010B
:104420000E94120DAE014F535F4FBE016F557F4F7B
:10443000C7010E94120DBE016F557F4FCE0101963C
:104440000E94071039E0F32EBE016F5F7F4FCB0152
:104450000E940710FA94F110F7CFAE014F555F4F4D
:10446000BE016F5F7F4FCE018F539F4F0E94350F6C
:1044700027E1F22E9AE0E92EBE016F5F7F4FCB015C
:104480000E940710EA94E110F7CFAE014F5F5F4F33
:10449000BE016F537F4FCB010E94350FFA94F1108C
:1044A000E9CFBE016F537F4FCE0101960E940710E6
:1044B000AE014F5F5F4FBE016F537F4FCB010E9434
:1044C000350F88E0F82EBE016F5F7F4FCB010E9451
:1044D0000710AE014F5F5F4FBE016F537F4FCB019F
:1044E0000E94350FFA94F110EECFCE0101960E9492
:1044F0006C11BE016F537F4FCB010E940710BE01AC
:104500006F537F4FCB010E940710A801BE016F536C
:104510007F4FCB010E94350FBE016F537F4FCB0100
:104520000E940710BE016F537F4FCB010E940710FE
:10453000A801BE016F537F4FCB010E94350FBE0112
:104540006F537F4FCB010E940710A801BE016F532C
:104550007F4FCB010E94350FAE014F535F4FB60125
:10456000C6010E94350F80E2F601C85FDD4FA881C9
:10457000B981C850D24001900D928A95E1F7CE01E1
:104580008F5B9F4F0E946C11C6010E946C11C50188
:104590000E946C11C8010E946C11CE018F539F4F75
:1045A0000E946C11CE018F519F4F0E946C11CE0161
:1045B0008F5F9E4F0E946C11CE018F5D9E4F0E94B7
:1045C0006C11CE018F5B9E4F0E946C11CE018F59F2
:1045D0009E4F0E946C11CE018F579E4F0E946C110E
:1045E000CE018F559E4F0E946C11CE018F539E4F6E
:1045F0000E946C11CE018F519E4F0E946C11C95FB9
:10460000DD4F8881C750D240C55FDD4F0FB6F894AB
:10461000DEBF0FBECDBFDF91CF911F910F91FF90F5
:10462000EF90DF90CF90BF90AF909F908F907F9052
:104630006F905F904F903F902F9008958EE1E1E44E
:10464000F0E0EC0FFD1F3296DF011D928A95E9F72D
:1046500089E090E023969FAF8EAF239738CDCF931C
:10466000DF93EC018AE090E00E94A5318883CE01BF
:10467000DF91CF910895CF93DF93EC010E94561103
:10468000CE01DF91CF910C94AB340C94AB34CF932B
:10469000DF93EC010E94D610CE01DF91CF910C94F4
:1046A000AB34CF93DF93EC010E94CD14CE01DF91A8
:1046B000CF910C94AB34CF93DF93EC010E94EA17B7
:1046C000CE01DF91CF910C94AB340E9434350F931F
:1046D0001F93CF93DF938C01EB0188E2FB011192D2
:1046E0008A95E9F74BE050E063EF71E0CE010E945C
:1046F00049351B8681E090E0A0E0B0E08C879D8783
:10470000AE87BF87F80183819481A581B681888BAC
:10471000998BAA8BBB8B86E090E0A0E0B0E08C8BFD
:104720009D8BAE8BBF8B1CA21DA21EA21FA280E080
:1047300090E8A9E8B4E4888F998FAA8FBB8F80E0B6
:1047400090E0A6E9B3E48C8F9D8FAE8FBF8F8AE097
:1047500097EDA3E2BCE388A399A3AAA3BBA3DF912F
:10476000CF911F910F9108951F920F920FB60F9244
:1047700011242F933F934F935F936F937F938F9366
:104780009F93AF93BF93EF93FF9380EE92E00E94CD
:10479000BE08FF91EF91BF91AF919F918F917F9153
:1047A0006F915F914F913F912F910F900FBE0F909E
:1047B0001F9018951F920F920FB60F9211242F93EE
:1047C0008F939F93EF93FF93E091F002F091F102AA
:1047D0008081E091F602F091F70282FD1BC090818A
:1047E0008091F9028F5F8F732091FA02821741F056
:1047F000E091F902F0E0E052FD4F958F8093F902CD
:10480000FF91EF919F918F912F910F900FBE0F907D
:104810001F9018958081F4CF1F920F920FB60F92C0
:1048200011242F933F938F939F93AF93BF938091C6
:10483000420290914302A0914402B091450230910E
:10484000410226E0230F2D3758F50296A11DB11D18
:10485000209341028093420290934302A09344022A
:10486000B09345028091460290914702A091480280
:10487000B09149020196A11DB11D8093460290930B
:104880004702A0934802B0934902BF91AF919F9114
:104890008F913F912F910F900FBE0F901F90189501
:1048A00029E8230F0396A11DB11DD2CF1F920F92AD
:1048B0000FB60F9211242F933F934F935F936F93F3
:1048C0007F938F939F93AF93BF93EF93FF93E09169
:1048D0000301F09104010995FF91EF91BF91AF9110
:1048E0009F918F917F916F915F914F913F912F9108
:1048F0000F900FBE0F901F9018951F920F920FB63A
:104900000F9211242F933F934F935F936F937F9355
:104910008F939F93AF93BF93EF93FF93E091010128
:10492000F09102010995FF91EF91BF91AF919F9195
:104930008F917F916F915F914F913F912F910F9048
:104940000FBE0F901F9018951F920F920FB60F92E7
:1049500011242F933F934F935F936F937F938F9384
:104960009F93AF93BF93EF93FF938091B900887F9C
:10497000803609F44AC0F0F5883209F4A7C018F56A
:10498000803109F49BC0B8F4882309F4F9C0883059
:1049900009F494C0FF91EF91BF91AF919F918F91D6
:1049A0007F916F915F914F913F912F910F900FBE2B
:1049B0000F901F901895883109F488C0803251F704
:1049C0008093B90214C0803409F49DC040F4803350
:1049D000B9F38833F9F68093B90285ECB0C080351D
:1049E00009F485C0883509F496C0883499F60E9488
:1049F000FB0AD0CF883909F48CC038F5883729F004
:104A000050F4883611F0803729F683E08093BB029A
:104A10001092400257C0883809F47BC0803919F0E1
:104A2000803809F0B7CF80914002803208F071C021
:104A3000E091400281E08E0F809340028091BB00A4
:104A4000F0E0E05EFD4F80833DC0803B39F0E0F454
:104A5000803A09F479C0883A09F09CCF84E08093C9
:104A6000BB0210921F0210921E02E0914C02F091C4
:104A70004D02099580911E0281110FC081E0809343
:104A80001E021092FE0109C0803C09F4A6CF883CAA
:104A900009F4A3CF883B09F07DCFE0911F0281E0AC
:104AA0008E0F80931F02F0E0E250FE4F80818093D2
:104AB000BB0090911F0280911E0229C08091960236
:104AC0008093BB0085EC8093BC0064CF9091B802CA
:104AD0008091B702981758F5E091B80281E08E0FE7
:104AE0008093B802F0E0E956FD4F8081E9CFE09174
:104AF000B80281E08E0F8093B8028091BB00F0E095
:104B0000E956FD4F80839091B8028091B7029817C3
:104B1000C8F285E8D8CFE091B80281E08E0F80938B
:104B2000B8028091BB00F0E0E956FD4F8083809190
:104B3000BA0281115CCF81E08093950284EA809370
:104B4000BC001092BB0226CF85EC8093BC00109273
:104B5000BB0280914002803230F4E0914002F0E0EC
:104B6000E05EFD4F10826091400270E0E0914A02E9
:104B7000F0914B0280E292E00995109240020ACF38
:104B80001092B90234CF1F920F920FB60F921124D8
:104B90002F934F935F936F937F938F939F93AF93D5
:104BA000BF93209184008091700290917102A09136
:104BB0007202B0917302820F911DA11DB11D8093ED
:104BC000700290937102A0937202B093730280916D
:104BD000700290917102A0917202B09173024091A3
:104BE00070025091710260917202709173022AE01A
:104BF000880F991FAA1FBB1F2A95D1F7840F951FF5
:104C0000A61FB71F8093700290937102A093720247
:104C1000B09373028091700290917102A091720220
:104C2000B0917302409170025091710260917202D2
:104C30007091730226E0B695A795979587952A956A
:104C4000D1F784279527A627B727809370029093E2
:104C50007102A0937202B0937302809174028F5F0D
:104C600080937402BF91AF919F918F917F916F91CB
:104C70005F914F912F910F900FBE0F901F9018953D
:104C800085E294E00E94D610F894A89584B7877FB7
:104C900084BFE0E6F0E080818861808310827894B0
:104CA00060E470E086E594E00E940A1060E470E041
:104CB00086E994E00C940A101F93CF93DF93E0EE03
:104CC000F2E01382128288EE93E0A0E0B0E08483E9
:104CD0009583A683B7832EE631E03183208325ECCC
:104CE00030E03587248724EC30E03787268720ECB6
:104CF00030E0318B208B21EC30E0338B228B22ECA7
:104D000030E0358B248B26EC30E0378B268B118EF0
:104D1000128E138E148EEDE7F3E0138212828483D9
:104D20009583A683B78380E891E091838083E6ED45
:104D3000F4E010828181807880628F778183109285
:104D4000D8041092D9041092DA041092DB0480E89F
:104D50009EEEA6E3B0E08093DC049093DD04A09384
:104D6000DE04B093DF041092E8041092E904E2E05C
:104D7000F4E08CEC91E0918380838EEF9FEF928B37
:104D8000818B80E090E8948B838B84E0878786E139
:104D9000808BE7E1F4E084EC91E09183808386EB03
:104DA00091E09383828385E697E2A0E0B0E085837B
:104DB0009683A783B0871186E5E2F4E086EA91E066
:104DC0009183808380E092E0938382838FE0848369
:104DD00011E0108760E00E94B40960E08FE00E945B
:104DE000680985E294E00E941310EAEEF3E087E0A0
:104DF00090E09183808388E090E0938382831682A1
:104E000080E28783108685E0868785E090E0A0E0D9
:104E1000B0E0848B958BA68BB78B1186A5EAB3E0A7
:104E20008CE991E011969C938E9319961C921E9298
:104E3000189787E02FEA33E0E901982F19929A95A5
:104E4000E9F71092E7031092E6031092E80310933B
:104E5000E90325E933E013963C932E9312972BE058
:104E600031E015963C932E9314971796FC93EE938E
:104E70001697E9E8F3E022E931E0318320831282DA
:104E800013828483118612861386DF91CF911F913E
:104E90000895CF93DF93CDB7DEB7C155D1090FB6D3
:104EA000F894DEBF0FBECDBF789484B5826084BD18
:104EB00084B5816084BD85B5826085BD85B581601E
:104EC00085BD80916E00816080936E00109281009C
:104ED0008091810082608093810080918100816057
:104EE0008093810080918000816080938000809118
:104EF000B10084608093B1008091B00081608093A4
:104F0000B00080917A00846080937A0080917A006A
:104F1000826080937A0080917A008E7F80937A00FD
:104F200080917A00806880937A001092C10061E0DD
:104F300086E00E94B40961E086E00E946809E09181
:104F4000F002F091F10282E08083E091EC02F091B6
:104F5000ED021082E091EE02F091EF0288E0808392
:104F60001092F802E091F402F091F50286E080835D
:104F7000E091F202F091F302808180618083E09100
:104F8000F202F091F302808188608083E091F20266
:104F9000F091F302808180688083E091F202F091C9
:104FA000F30280818F7D808355E9E52E53E0F52E55
:104FB00067010FE010E0C8010E94A531D6018D9372
:104FC0006D010F5F1F4F0F311105A9F781E293E0CB
:104FD0000E942D0945EAC42E43E0D42EF701119119
:104FE0007F01103120F481EF91E00E94711A612F4E
:104FF00070E090E080E040E10E947E1ACE14DF0471
:1050000069F78AEF91E00E94711A88E091E00E94AE
:105010002F2380910801833069F4CE0101960E940C
:105020002F2340E250E0BE016F5F7F4F86EB93E09D
:105030000E9442358091D70486FD04C085E993E043
:105040000E94E91C80E09DEDADE6B0E08093DC04B9
:105050009093DD04A093DE04B093DF04E091E804B4
:10506000E43068F481E08E0F8093E804F0E0EE0F06
:10507000FF1FE052FB4F85E294E091838083109202
:105080004F0210924E021092BD021092DF02109257
:10509000BB0211E01093BA021092950261E082E126
:1050A0000E94680961E083E10E9468098091B9006B
:1050B0008E7F8093B9008091B9008D7F8093B90075
:1050C00080E28093B80085E48093BC008DE398E093
:1050D00090934D0280934C028EE398E090934B02A4
:1050E00080934A02BE016F5F7F4F80ED0E947B1864
:1050F0008981853509F430C1109220048FE293E054
:105100000E942D098AEF91E00E94711A8091EA03B2
:105110009091EB032091EC033091ED0382179307FC
:1051200019F061E00E94B4098091EC039091ED03C5
:105130002091EA033091EB032817390719F061E059
:105140000E94B4091FB7F89480915102811127C0C1
:10515000E0EAF3E08491E4EBF3E09491E82FF0E0EF
:10516000EE0FFF1FE95BFC4FA591B491EC91E92391
:1051700021F461E08AE00E94680961E08AE00E940F
:10518000B4098CB580618CBD8CB580648CBD61E048
:105190008DE00E94B40961E08BE00E94B409809127
:1051A00051028F5F809351021FBF60E08AEE93E04F
:1051B0000E94D71461E08AEE93E00E94E31465E058
:1051C00070E080E090E00E941F0A4CE060E08AEE10
:1051D00093E00E941A154FE564E08AEE93E00E9486
:1051E0001A1582E090E00E94BA15882319F081E038
:1051F0008093F00366E08AEE93E00E945D1590E0F4
:1052000080E00E94BA158AEE93E00E94FE1480E5C9
:105210000E94011583E70E9401158AEE93E00E9427
:10522000FB1440E06DE18AEE93E00E941A1540E025
:105230006CE18AEE93E00E941A151092F20340E7A7
:1052400067E08AEE93E00E941A154CE465E08AEE6E
:1052500093E00E941A158AEE93E00E94FE1482EEFB
:105260000E9401158AEE93E00E94FB148AEE93E0FF
:105270000E9408158AEE93E00E94041660E08AEE10
:1052800093E00E945D15482F4E7F60E08AEE93E028
:105290000E941A154EE565E08AEE93E00E941A1509
:1052A0004FE361E08AEE93E00E941A154FE464E058
:1052B0008AEE93E00E941A1582E090E00E94BA15EF
:1052C00060E08AEE93E00E945D15482F4C6060E03C
:1052D0008AEE93E00E941A1560E08AEE93E00E9445
:1052E000EC150E94731560E086E00E94680968EC86
:1052F00070E080E090E00E941F0A61E086E00E947A
:10530000680981E593E00E942D090E94EE0A4AE0B7
:105310000E947E1A8AEF91E00E94711A812C80EC23
:10532000982E89E7A82E84ECB82E10E08091E8042E
:10533000181708F04EC0E12FF0E0EE0FFF1FE0520B
:10534000FB4F80819181DC01ED91FC910680F7811A
:10535000E02D09951F5FEACF83E08093500262E55C
:1053600072E08AEA0E94621864E572E08CEA0E94A8
:10537000621866E572E08EEA0E94621868E572E0E3
:1053800080EB0E940C186AE572E082EB0E940C1818
:105390006CE572E084EB0E940C186EE572E086EB1F
:1053A0000E94621860E672E088EB0E94621862E672
:1053B00072E08AEB0E94621864E672E08CEB0E9455
:1053C000621866E672E08EEB0E9462181093200469
:1053D0009DCEF89480917402803208F4E7C0209149
:1053E00070023091710240917202509173021092DA
:1053F0007002109271021092720210927302109257
:1054000074027894A9E0B0E00E94E4319B01AC0101
:10541000BBE05695479537952795BA95D1F726273E
:10542000372748275927A1E0B0E80E94E431AB01B3
:10543000BC012091D6048091D704382F3F712C5F96
:105440003F4F3F712138B1E03B0708F0A5C02093E2
:10545000D604932F9F71807E892B8093D70420914F
:10546000E90484E0289FF0011124EA59FB4F808170
:105470009181A281B38184279527A627B7278083AE
:105480009183A283B3832F5F2093E9048091D70493
:105490002C3008F487C01092E9048F778093D704EA
:1054A00050E040E070E060E090E080E00E94791C15
:1054B0000E94EE0A0091D8041091D9042091DA04D8
:1054C0003091DB04601B710B820B930B0091DC04A9
:1054D0001091DD042091DE043091DF046017710724
:1054E0008207930710F00E942F1C8091B403813132
:1054F00040F48091B0039091B1038130914008F461
:1055000075C066E08091AB039091AC030E945D157D
:10551000682F70E075956795162F13706091B20330
:105520007091B30390E080E00E94D5326B017C0162
:105530006091B0037091B10390E080E00E94D53299
:105540009B01AC01C701B6010E942D326B017C01A9
:1055500020E030E048EC52E40E948C330E94A632F6
:1055600084E6861B8093AF032AE939E949E55FE3C6
:10557000C701B6010E9487331816D4F461E01330D6
:1055800021F52AE939E949E15EE3C701B6010E9444
:10559000283287FF21C018C090E89093D604807EFF
:1055A00081605BCF80688093D70482CF789480CF6E
:1055B0002AE939E949E15EE3C701B6010E942832D0
:1055C00087FF0AC0112341F06FEF610F8091AB0399
:1055D0009091AC030E94EC151092B1031092B003AD
:1055E0001092B3031092B2031092B40310926F02A0
:1055F00080910A01882309F40CC380916E02811105
:1056000008C380910901811104C310920A018EE43C
:1056100080937C0062E070E080E090E00E941F0ACE
:1056200080917A00806480937A0080917A0086FD70
:10563000FCCF8091780020917900322F282F032E03
:10564000000C440B550B64EB7BE281E190E00E947F
:10565000C53169017A0180918B03882379F00E941A
:10566000E509DC01A70196010E94EF312FEF33E03D
:1056700040E050E00E94C53169017A01C0928E037A
:10568000D0928F03E0929003F09291038091920365
:105690008530F0F4B701A6014E545C4061097109F0
:1056A00091E0443151406105710548F093E0E2E634
:1056B000CE16EDE0DE06E104F10408F492E020915C
:1056C0009303211159C09093930381E08093920337
:1056D00080919303813009F49BC0833009F087C027
:1056E000F9E6CF16F0E1DF06E104F10408F090C01E
:1056F0002FE6C2162FE0D206E104F10408F443C0FD
:10570000A70196012E563F4041095109A4E1B0E09E
:105710000E94E4312AEF30E040E050E00E94C531C1
:10572000205B3F4F4F4F5F4F2536310541055105F7
:1057300008F077C02093940380910801833009F02A
:10574000D3C261E086E00E94680906E0015009F4D6
:1057500010C165E070E080E090E00E941F0A809137
:1057600012048B3009F461C0863109F4B1C0109283
:1057700014041092130474C0291302C08F5FA6CFC3
:1057800010929303A5CF81E1C8168EE0D806E104FC
:10579000F104A8F0A701960120513E4041095109AA
:1057A000ACE3B0E00E94E4312EE531E040E050E0AF
:1057B0000E94C5312C5E3F4F4F4F5F4FB5CF9DE8E4
:1057C000C9169AE0D906E104F10438F1A70196015F
:1057D0002C583A4041095109A4E1B0E00E94E4315B
:1057E00024E833E040E050E00E94C5319DCF823094
:1057F000A1F4A70196012C583A4041095109A4E6A9
:10580000B0E00E94E43122EC31E040E050E0ECCF27
:1058100024E630E040E050E087CF20E030E0A9010E
:1058200083CF85E68093940387CF62E18091110452
:105830000E94520A009711F180920404909205048C
:10584000A0920604B0920704809208049092090482
:10585000A0920A04B0920B04909314048093130452
:105860008091130490911404892B09F482C068EE8E
:1058700073E080E090E00E941F0A68CF10910C0452
:10588000612F70E090E080E00E94D53260930404C4
:10589000709305048093060490930704F0900E041F
:1058A0006F2D70E090E080E00E94D5326093080494
:1058B0007093090480930A0490930B041F0D81E0F8
:1058C00090E02091100412134EC090E080E04BC095
:1058D00061E0809111040E94520A009709F0ACCF58
:1058E00010910D04D0900C0460910C0470910D0483
:1058F00076276727762790E080E00E94D5322DEC4E
:105900003CEC4CEC5DE30E948C3360930404709398
:1059100005048093060490930704E0900F04F09030
:105920000E046F2D6F77762F6E2D90E080E00E9431
:10593000D5322DEC3CEC4CEC5DE30E948C33F7FC53
:1059400016C0609308047093090480930A0490932E
:105950000B041D0DE10EFE0C81E090E0209110047F
:10596000F21609F4B2CF91958195910975CF9058AF
:10597000E8CF80912004882309F4A9C1BE016F5F9C
:105980007F4F89E194E00E94781E20E030E0A90179
:105990006D897E898F89988D0E942832882309F429
:1059A0008FC1CE0185960E943B1880915C02909138
:1059B0005D022DA13EA14FA158A5281B390B41091D
:1059C0005109A0915A02B0915B020E94E4316B012F
:1059D0007C017FE0F594E794D794C7947A95D1F74A
:1059E0006091640270916502072E000C880B990B80
:1059F000EBE0660F771F881F991FEA95D1F720917A
:105A0000660230916702032E000C440B550B2C0DDF
:105A10003D1D4E1D5F1D0E94C531CA01B9016C0DAF
:105A20007D1D8E1D9F1D685F7F4F8F4F9F4FF4E040
:105A30009595879577956795FA95D1F70E94D73216
:105A400020E030E040E251E40E942D3220E030E0DE
:105A500040E251E40E948C330E949F3270932204F2
:105A60006093210420E030E0A9016D897E898F894F
:105A7000988D0E942832882309F42FC1BE016B5DE6
:105A80007F4F89E194E00E949F1820E030E040E2DF
:105A900051E46DA17EA18FA198A50E942D320E9494
:105AA0009F32709324046093230480910901811133
:105AB000A6C081E091E00E94F61AF82E8091E803DA
:105AC000882309F49CC0A1E0AF1518F481E080930D
:105AD000090182E094E00E948A178C0182E094E040
