:100000000C94B9010C94E1010C94E1010C94E10110
:100010000C94E1010C94E1010C946A080C94E10148
:100020000C94E1010C94E1010C94E1010C94E101C8
:100030000C94E1010C94E1010C94E1010C94E101B8
:100040000C948C0B0C94E1010C945E0A0C94380A0D
:100050000C94E1010C94E1010C94E1010C94E10198
:100060000C94D60B0C94E101206E6220636F6E66D7
:1000700069726D6174696F6E733A2000436F6E66CA
:1000800069726D6174696F6E2074797065200048C3
:1000900061726477617265206661696C7572652052
:1000A000646574656374656420005265636F6E6E89
:1000B0006578696F6E206175206D657368004E6F9D
:1000C0007576656175206E6F646520696420726560
:1000D000637520646520444843503A20005265719E
:1000E000756574652044484350207472616E736D69
:1000F0006973650050415F4D41580050415F484968
:1001000047480050415F4C4F570050415F4D494EAA
:10011000003136206269747300382062697473009C
:1001200044697361626C6564006E524632344C30CF
:10013000312B006E524632344C3031003235304B68
:1001400042505300324D42505300314D4250530003
:10015000555549442073656E7365757220004E6F66
:10016000646549442073656E73657572200053544D
:10017000415455530909203D2030782530327820EC
:1001800052585F44523D25782054585F44533D25D2
:1001900078204D41585F52543D25782052585F5089
:1001A0005F4E4F3D25782054585F46554C4C3D25B9
:1001B000780D0A00504120506F77657209203D206C
:1001C00025530D0A000A010301FB00F400435243CA
:1001D000204C656E67746809203D2025530D0A0088
:1001E0002001190111014D6F64656C0909203D2042
:1001F00025530D0A003301290144617461205261C5
:10020000746509203D2025530D0A004A0144013C34
:100210000144594E50442F464541545552450043E0
:100220004F4E464947090052465F534554555000CA
:1002300052465F43480900454E5F5258414444527C
:1002400000454E5F4141090052585F50575F5030A2
:100250002D360054585F41444452090052585F41C2
:100260004444525F50322D350052585F414444524D
:100270005F50302D31005072657400436F6E6E65B3
:1002800078696F6E206D65736820636F6D706C6543
:10029000746500436F6E6E6578696F6E206D65736F
:1002A000682061766563206E6F6465496420004450
:1002B0004854204572726F723A00005EBCE2613FA2
:1002C000DD83C29C7E20A3FD1F41009D23BE46DB33
:1002D00065F88C11AF32CA57E974536C65657000CC
:1002E00000000000250028002B000000000800028C
:1002F00001000003040700000000000000000001EE
:10030000020304051112131415160A0B0C0D0E0F1F
:100310000000000023002600290004040404040453
:1003200004040202020202020303030303030102A4
:100330000408102040800102040810200102040873
:1003400010200D0A00253032780020307800255327
:1003500009203D000D0A0020307825303278002534
:100360005309203D0000000000240027002A00005F
:10037000042111241FBECFEFD8E0DEBFCDBF11E0B6
:10038000A0E0B1E0EEE4F1E502C005900D92AE37D9
:10039000B107D9F724E0AEE7B1E001C01D92A33D5B
:1003A000B207E1F711E0C9EBD1E004C02197FE01EB
:1003B0000E945C28C83BD107C9F70E94521B0C94CD
:1003C000A5280C940000FC0121893289232B71F4AB
:1003D00020E030E040E251E46281738184819581C4
:1003E0000E94A7270E940B27CB0108958FEF90E072
:1003F0000895FC0121893289232B71F420E030E03B
:1004000040E251E466817781808591850E94A7272B
:100410000E940B27CB01089580E090E80895FC012D
:100420004581568167817085DB01CA0189549D40F1
:10043000A109B10983369105A105B10540F081E01C
:100440004E3B5A406105710518F080E0089581E047
:100450000895FC0165817681878190850895419694
:1004600008954D9608958F929F92AF92BF92EF920A
:10047000FF920F931F93CF93DF93CDB7DEB72A97E9
:100480000FB6F894DEBF0FBECDBFFC017A87698737
:10049000262F372F2F3F8FEF380711F482811CC092
:1004A0002115310509F464C0808191810097B1F470
:1004B000558140E001C04F5F451709F456C0A38144
:1004C000B481A80FB91F039611966D917C91129774
:1004D0006217730781F78C9190E04CC08432994089
:1004E00009F443C07F011C821B828091040190911A
:1004F00005019C012F5F3F4F3093050120930401BC
:100500009E838D8386EC8F8308E310E022E030E049
:10051000AE01475F5F4FBE016F5F7F4F8085918562
:100520000E948118882309F10E94800B4B015C0115
:10053000F701808591850E947616863C71F00E94B5
:10054000800BDC01CB0188199909AA09BB098E37F8
:100550009105A105B10560F308C0D7011896ED918A
:10056000FC9119978785908905C08FEF9FEF02C096
:1005700080E090E02A960FB6F894DEBF0FBECDBFA4
:10058000DF91CF911F910F91FF90EF90BF90AF90AF
:100590009F908F9008954F925F926F927F92AF924B
:1005A000BF92DF92EF92FF920F931F93CF93DF934F
:1005B000CDB7DEB729970FB6F894DEBF0FBECDBF1B
:1005C0007C01DC0118968D919C9119970E947616FA
:1005D000D82EF701808191818432994009F4CFC0EF
:1005E00023ECD21204C081E0D7011A968C93F70154
:1005F00082818111C4C08D2D8D7F843C09F09EC005
:100600000084F185E02D5F0127E0A20EB11C8781F7
:10061000908592878187978584ECD81278C09987D6
:10062000D70112968C911297811118C015964C9192
:1006300020E030E0841709F44BC0D7011396ED9108
:10064000FC911497E20FF31F2D5F3F4F5081591318
:1006500003C0818192814DC08F5FECCF992309F453
:1006600046C01C821B8280910401909105019C016F
:100670002F5F3F4F30930501209304019E838D83AC
:10068000DF8208E310E022E030E0AE01475F5F4F19
:10069000BE016F5F7F4FCF010E9481188823C1F098
:1006A0000E94800B2B013C01F701808591850E94FF
:1006B0007616843C81F00E94800BDC01CB0184190A
:1006C0009509A609B70987399105A105B10560F318
:1006D0008FEF9FEF0EC0D7011896ED91FC911997FF
:1006E0008785908997FF05C08EEF9FEF02C080E05D
:1006F00090E09A83898308E310E022E030E0AE01C5
:100700004F5F5F4FB501F7018085918514C0692F58
:1007100070E0C7010E9433029A83898308E310E0E6
:1007200022E030E0AE014F5F5F4FB501D701189670
:100730008D919C9119970E94811821C0B5ECDB1214
:100740001EC0F701A085B18580E0F701958189176A
:10075000B0F4F70123813481F90193E0899FE00D22
:10076000F11D11244181528117962D913C911897CA
:100770004217530711F4128211828F5FE6CF8D2D3D
:1007800029960FB6F894DEBF0FBECDBFDF91CF9193
:100790001F910F91FF90EF90DF90BF90AF907F90EF
:1007A0006F905F904F900895CF93C82F682F86EF7A
:1007B00091E00E9417098C2FCC0F990BCF910895CF
:1007C0000F931F93CF93DF93EC0189858530D0F58C
:1007D0004D815E816F8178858A019B010E541C409A
:1007E00021093109043111402105310538F0423623
:1007F0005D406105710520F492E003C091E001C005
:1008000093E02A85211104C09A8781E089871AC064
:10081000291317C08F5F89878CE790E00E946812C8
:100820006A8570E080E090E04AE00E942C1188E642
:1008300090E00E9468126AE070E089850E946D1164
:1008400001C01A868A85813009F45FC0833009F0BF
:1008500043C08D819E81AF81B8858F362FE092078E
:10086000A105B10578F09C01AD012456310941097B
:100870005109A6E0BFEF0E949E2628EE3FEE4FEF03
:100880005FEF3EC085372EE09207A105B10590F0DD
:100890009C01AD012055310941095109A6E0BFEF86
:1008A0000E949E2626EA30EF4FEF5FEF0E947126EE
:1008B00080E529C09C01AD0124513109410951094C
:1008C000A8E1BCEF0E949E262CE831EF4FEF5FEFCE
:1008D0000E94712684E117C08230C9F48D819E8107
:1008E000AF81B8859C01AD012456310941095109F8
:1008F000AEE3BEEF0E949E2622EB33EF4FEF5FEF99
:100900000E94712684E6820F03C084E601C080E065
:10091000DF91CF911F910F9108952F923F924F92A7
:100920005F926F927F928F929F92AF92BF92CF927F
:10093000DF92EF92FF920F931F93CF93DF93CDB788
:10094000DEB768970FB6F894DEBF0FBECDBF7C014F
:100950002A013B0167E1DC0116968D919C91179766
:100960000E944E1480FD03C080E090E072C1F70148
:10097000868197810E94DD14D7011896ED91FC9134
:10098000199782A5826082A76AE070E080E090E01B
:100990000E94460B64E279E0F701808591850E9410
:1009A000080F84E299E0D7018D939C930E94800BFD
:1009B0004B015C01212C312CE0E4F0E0FC87EB875B
:1009C00080910401909105019C012F5F3F4F30936E
:1009D0000501209304019E878D87F2ECFF87D701E4
:1009E00018968D919C911997FC0122A933A93A87F9
:1009F0002987332089F0232D30E021503109A901C6
:100A0000440F551F240F351F01E010E002C0000FF6
:100A1000111F2A95E2F702C000E010E020E030E06C
:100A200040E050E0BE01675F7F4F0E9481180E9446
:100A3000800B698B7A8B8B8B9C8BD12CD701189672
:100A40008D919C9119970E947616823C99F4FE0133
:100A50003196ED0DF11DED0DF11DD70118968D911B
:100A60009C911997DC0117968D919C911897918311
:100A70008083D3940E94800BDC01CB0129893A89C1
:100A80004B895C89821B930BA40BB50BC897A105FE
:100A9000B10520F433E03D1588F633C0D11031C0E4
:100AA0000E94800BDC01CB0188199909AA09BB09B6
:100AB000481659066A067B0608F456CF222D30E008
:100AC0002F5F3F4F832D90E00196289FB001299F13
:100AD000700D389F700D1124675E7F4F660F771F72
:100AE000072E000C880B990B0E94460B81E0830DAA
:100AF0008370382E81E0820D6AE00E943C28292E06
:100B00005BCFC12C198ACD1408F046C043EC4F8747
:100B1000D70112968C911297888BFE013196EC0DBD
:100B2000F11DEC0DF11D008111811C870B8720E068
:100B300030E040E050E0BE01675F7F4F18968D9136
:100B40009C9119970E9481180E94800B6D8B7E8B5F
:100B50008F8B988F0E94800BDC01CB012D893E8901
:100B60004F89588D821B930BA40BB50B813E9105C9
:100B7000A105B10548F4F701808591850E9476169C
:100B8000898B803839F7CD2C65E070E080E090E00B
:100B90000E94460BC394B7CF3989303809F080CF13
:100BA000D7011896ED91FC91199787859089009748
:100BB00009F476CF368512962C91321371CFF70156
:100BC00091838083868197810E94DD146AE070E0C2
:100BD00080E090E00E94460BD7016D917C911197C7
:100BE00018968D919C9119970E94080FF7016081CA
:100BF0007181C7010E943302D70112962C9130E017
:100C000082179307E1F0F70160817181C7010E94AB
:100C10003302D70112962C91129730E08217930776
:100C200071F064E279E018968D919C9119970E9479
:100C3000080F84E299E0F7019183808331CFD701D7
:100C40001896ED91FC91199782A58D7F82A78D91C1
:100C50009C9168960FB6F894DEBF0FBECDBFDF91B2
:100C6000CF911F910F91FF90EF90DF90CF90BF90A9
:100C7000AF909F908F907F906F905F904F903F903C
:100C80002F900895CF92DF92EF92FF920F931F93D0
:100C9000CF93DF93CDB7DEB728970FB6F894DEBFBA
:100CA0000FBECDBF7C0184E0D82E92E8C92EDA9425
:100CB000DD20F1F1F7018081918184329940C1F109
:100CC000C7010E94CB0267E1F701868197810E94EC
:100CD0004E1481FD07C0F70180859185FC0122A596
:100CE00020FF02C081E02AC01C821B8220910401E7
:100CF00030910501A9014F5F5F4F5093050140936B
:100D000004013E832D83CF8208E310E020E030E031
:100D100040E050E0BE016F5F7F4F0E94811881115B
:100D20000DC067E670E080E090E00E94460BBFCF08
:100D3000F701868197810E94DD1480E028960FB626
:100D4000F894DEBF0FBECDBFDF91CF911F910F9101
:100D5000FF90EF90DF90CF9008952F923F924F92A7
:100D60005F926F927F928F929F92AF92BF92CF923B
:100D7000DF92EF92FF920F931F93CF93DF93CDB744
:100D8000DEB7C254D1090FB6F894DEBF0FBECDBF97
:100D9000809100018823D1F187E08093B20281E045
:100DA00090E09093B4028093B302E091AE02F09190
:100DB000AF0280E1A5EBB2E001900D928A95E1F7D8
:100DC0001FE028E130E044E462EB72E08091B00281
:100DD0009091B1020E948E10811114C08091B002D6
:100DE0009091B1020E94420681110AC040ED57E085
:100DF00060E070E08091B0029091B1020E948D0499
:100E00001150F9F68DED90E00E94601A0E94800B5F
:100E10001B012C0180919D02813019F480E49CE932
:100E200002C088EE93E022961FAE2297E12C28ECB8
:100E3000F22E4C01A12CB12C3AE9C32ED12C0E94E8
:100E4000800BDC01CB0182199309A409B50988152F
:100E50009905AA05BB0508F011C184E0E81611F058
:100E6000E39417C02296EFAD2297EE2311F0F3948E
:100E700001C0FA94F4E1FF1639F084EBF81208C0CF
:100E800022961FAE229704C0E1E02296EFAF229790
:100E9000E12C0F2D10E061E086E00E94DC0A0115D4
:100EA000110511F460E004C00F3F110529F461E061
:100EB00086E00E94900A43C0E0EFF2E08491833024
:100EC000F9F048F48130B9F08230A1F584B5806240
:100ED00084BDF8BC34C08730E9F0883019F1843023
:100EE00049F58091800080628093800010938B0090
:100EF00000938A0024C084B5806884BDF7BC1FC0FD
:100F00008091800080688093800010938900009316
:100F1000880015C08091B00080688093B000F09286
:100F2000B3000DC08091B00080628093B000F09259
:100F3000B40005C0003811050CF0B9CFB3CF82EE74
:100F400092E00E94CB026090C9037090CA03FFE256
:100F50006F16F3E07F0609F008F46EC020913503A8
:100F60000091370310913803243609F045C0A801D9
:100F70000134110510F040E450E069E373E0CE0164
:100F800001960E94672886EF9FEF801B910B680EE9
:100F9000791E7092CA036092C903A601401B510BCF
:100FA000B801675C7C4F8FE293E00E9470281C813F
:100FB000123008F444CF109301011093E40289E049
:100FC00090E00E945B26181729F0612F89E090E0DD
:100FD0000E94632648EE53E060E070E082EE92E00B
:100FE0000E948D04109200018EEB90E00E94681226
:100FF0006AE070E0812F1DC086EF9FEF801B910B90
:10100000680E791E7092CA036092C903A601401B44
:10101000510BB801675C7C4F8FE293E023962FAFB2
:1010200023970E9470286AE070E023962FAD2397E3
:10103000822F0E946D1103CF82EE92E00E94420641
:101040008111FDCE4CED55E060E070E082EE92E063
:101050000E948D04892B09F0F2CE8AEA90E00E946A
:10106000601A0E946A198CE694E00E94A9144FE36A
:1010700061E08CE694E00E94F313E1CE80917B0462
:10108000882359F08FE890E00E94681280917B04D9
:1010900090E00E94311310927B0461E086E0CE5B09
:1010A000DF4F0FB6F894DEBF0FBECDBFDF91CF91FB
:1010B0001F910F91FF90EF90DF90CF90BF90AF9076
:1010C0009F908F907F906F905F904F903F902F9068
:1010D0000C94900A1F920F920FB60F9211248F93C7
:1010E0009F938091020190910301892B31F481E05B
:1010F00090E090930301809302019F918F910F9054
:101100000FBE0F901F901895CF92DF92EF92FF9233
:101110000F931F93CF93DF936C017A018B01C0E093
:10112000D0E0CE15DF0589F0D8016D918D01D60193
:10113000ED91FC910190F081E02DC6010995892B7C
:1011400011F47E0102C02196ECCFC701DF91CF914F
:101150001F910F91FF90EF90DF90CF900895FC01C9
:10116000538D448D252F30E0842F90E0821B930B0C
:10117000541710F0CF96089501970895FC01918DB2
:10118000828D981761F0828DDF01A80FB11D5D96E9
:101190008C91928D9F5F9F73928F90E008958FEF57
:1011A0009FEF0895FC01918D828D981731F0828D0B
:1011B000E80FF11D858D90E008958FEF9FEF089562
:1011C000FC01918D228D892F90E0805C9F4F821BC6
:1011D00091098F739927089586EF91E00E94E008A6
:1011E00021E0892B09F420E0822F0895FC01848DF1
:1011F000DF01A80FB11DA35ABF4F2C91848D90E041
:1012000001968F739927848FA689B7892C93A0891B
:10121000B1898C9180648C93938D848D981306C0D2
:101220000288F389E02D80818F7D80830895EF927D
:10123000FF920F931F93CF93DF93EC0181E0888F90
:101240009B8D8C8D981305C0E889F989808185FD77
:1012500024C0F62E0B8D10E00F5F1F4F0F73112768
:10126000E02E8C8DE8120CC00FB607FCFACFE8898F
:10127000F989808185FFF5CFCE010E94F608F1CF74
:101280008B8DFE01E80FF11DE35AFF4FF0820B8FAB
:10129000EA89FB898081806207C0EE89FF896083CB
:1012A000E889F98980818064808381E090E0DF9122
:1012B000CF911F910F91FF90EF900895CF93DF93FF
:1012C000EC01888D8823C9F0EA89FB89808185FD3E
:1012D00005C0A889B9898C9186FD0FC00FB607FC9F
:1012E000F5CF808185FFF2CFA889B9898C9185FFE0
:1012F000EDCFCE010E94F608E7CFDF91CF910895A0
:1013000080E090E0892B29F00E94EC0881110C9478
:101310000000089585ED8093BC008091BC0084FDA1
:10132000FCCF1092C70108954091A101262F30E013
:10133000240F311D21323105DCF42091C701243006
:10134000C9F4FC0180E090E0861758F43091A101C7
:101350002191DC01A158BE4FA30FB11D2C93019622
:10136000F3CF8091A101680F6093A10180E00895FF
:1013700081E0089582E0089508958FEF9FEF08952A
:101380008FEF9FEF089580917E0190E09195819578
:1013900091090895CF93DF9300D0CDB7DEB7CB018D
:1013A000642F49835A830E9494094981842F5A816A
:1013B000952F0F900F90DF91CF910895CF93DF93EA
:1013C0001F92CDB7DEB7698361E0CE0101960E941E
:1013D000940981E090E00F90DF91CF9108950895F6
:1013E00080E090E00895CF93DF93DC01FB01EC01F6
:1013F000C359DE4F6881798122969881828140812C
:101400005181823028F0BA0181E0838390E027C0C7
:10141000ED01C059DE4F28813981EA01C223D3236F
:10142000D2960D90BC91A02DCA17DB07C1F4C9015B
:101430008095909563E0880F991F6A95E1F7842362
:101440009523892B51F083E0220F331F8A95E1F712
:101450002760BA016223732301C0BA0195E071834A
:101460006083928381E0DF91CF9108950E9462288A
:101470001F920F920FB60F9211242F933F934F9309
:101480005F936F937F938F939F93AF93BF93EF93EC
:10149000FF9386EF91E00E94F608FF91EF91BF91D4
:1014A000AF919F918F917F916F915F914F913F91FC
:1014B0002F910F900FBE0F901F9018951F920F92B3
:1014C0000FB60F9211242F938F939F93EF93FF9357
:1014D000E0910602F09107028081E0910C02F09108
:1014E0000D0282FD12C0908180910F028F5F8F7379
:1014F00020911002821751F0E0910F02F0E0EA50C3
:10150000FE4F958F80930F0201C08081FF91EF9174
:101510009F918F912F910F900FBE0F901F90189554
:1015200090E0FC01E651FD4F3491FC01E25DFC4F7F
:101530002491FC01E65EFC4FE491EE2309F43BC0EC
:10154000332339F1333091F038F43130A9F03230AF
:1015500001F584B58F7D12C0373091F03830A1F09D
:101560003430B9F4809180008F7D03C08091800079
:101570008F77809380000DC084B58F7784BD09C0BC
:101580008091B0008F7703C08091B0008F7D8093F1
:10159000B000F0E0EE0FFF1FE052FD4FA591B491B7
:1015A0008FB7F894EC91611103C020952E2301C0F0
:1015B0002E2B2C938FBF0895CF93DF9390E0FC01E7
:1015C000E25DFC4F2491FC01E65EFC4F8491882390
:1015D00061F190E0880F991FFC01EB59FC4FC59118
:1015E000D491FC01E052FD4FA591B491611109C065
:1015F0009FB7F8948881209582238883EC912E23CD
:101600000BC0623061F49FB7F8943881822F8095C7
:1016100083238883EC912E2B2C939FBF06C08FB71A
:10162000F894E8812E2B28838FBFDF91CF91089506
:101630008330910528F0880F991F04970197F1F7DF
:1016400008953FB7F8948091F2019091F301A09131
:10165000F401B091F50126B5A89B05C02F3F19F004
:101660000196A11DB11D3FBFBA2FA92F982F882722
:10167000820F911DA11DB11DBC01CD0143E0660F7C
:10168000771F881F991F4A95D1F708958F929F92CF
:10169000AF92BF92CF92DF92EF92FF926B017C01EB
:1016A0000E94210B4B015C01C114D104E104F1043F
:1016B000F1F00E94210BDC01CB0188199909AA09DC
:1016C000BB09883E9340A105B10570F321E0C21A21
:1016D000D108E108F10888EE880E83E0981EA11C6D
:1016E000B11CC114D104E104F10419F7DDCFFF905E
:1016F000EF90DF90CF90BF90AF909F908F90089524
:101700002FB7F8946091EE017091EF018091F00194
:101710009091F1012FBF08951F920F920FB60F9273
:1017200011242F933F938F939F93AF93BF938091F7
:10173000EE019091EF01A091F001B091F101309193
:10174000ED0126E0230F2D3720F40296A11DB11DD7
:1017500005C029E8230F0396A11DB11D2093ED01BB
:101760008093EE019093EF01A093F001B093F1010B
:101770008091F2019091F301A091F401B091F501F3
:101780000196A11DB11D8093F2019093F301A093E6
:10179000F401B093F501BF91AF919F918F913F916B
:1017A0002F910F900FBE0F901F9018951F920F92C0
:1017B0000FB60F9211242F933F934F935F936F9324
:1017C0007F938F939F93AF93BF93EF93FF938091FA
:1017D000B900887F803609F49CC068F5883209F426
:1017E0005BC090F4803109F454C038F4882309F4C4
:1017F000F6C0883009F44DC0F6C0883109F44CC0F9
:10180000803209F45DC0EFC0803409F468C048F448
:10181000803309F455C0883309F0E5C08093C601D0
:10182000D8C0803509F44FC0883509F45DC08834CC
:1018300009F0D9C0D6C0883909F4C7C0A8F48837E0
:1018400009F467C038F4883609F463C0803709F4B6
:1018500060C0C9C0883809F4B8C0803909F45FC0D5
:10186000803809F0C0C05BC0803B09F486C038F402
:10187000803A09F466C0883A09F47FC0B4C0803C5D
:1018800009F4A7C0883C09F4A4C0883B09F48AC0C5
:10189000AAC08091EC0110C09091EB018091EA0107
:1018A000981770F5E091EB0181E08E0F8093EB01CA
:1018B000F0E0E653FE4F80818093BB0085EC86C04C
:1018C0008093C6018EC0E091EB0181E08E0F809382
:1018D000EB018091BB00F0E0E653FE4F80839091D6
:1018E000EB018091EA016EC0E091EB0181E08E0F87
:1018F0008093EB018091BB00F0E0E653FE4F8083C4
:101900008091C90181116DC081E08093C80184EA92
:1019100061C083E08093C7011092C501CFCF809151
:10192000C501803208F051C0E091C50181E08E0F01
:101930008093C5018091BB00F0E0EB55FE4F8083A2
:10194000BDCF85EC8093BC001092C7018091C5018A
:10195000803230F4E091C501F0E0EB55FE4F10828B
:101960006091C50170E0E091A301F091A40185EAC6
:1019700091E009951092C50136C084E08093C701BB
:101980001092A2011092A101E0919F01F091A0019B
:1019900009958091A101811105C081E08093A10189
:1019A00010927F01E091A20181E08E0F8093A2014D
:1019B000F0E0E158FE4F80818093BB009091A2013E
:1019C0008091A101981708F479CF85E88093BC0035
:1019D0000AC085EC8093BC001092C70104C010922D
:1019E000C6010E948A09FF91EF91BF91AF919F912B
:1019F0008F917F916F915F914F913F912F910F90B8
:101A00000FBE0F901F901895CF93DF93CDB7DEB721
:101A100028970FB6F894DEBF0FBECDBFAC019CEC8B
:101A200099839A839B839C839D831E821F82188641
:101A30009A01E1E021153105C9F0611103C041159A
:101A4000510569F4D901A770BB27A45FBE4F8C91E3
:101A5000A1E0B0E0AC0FBD1FAE0FB11D8C9383E0D1
:101A6000369527958A95E1F7EF5FE4CF611102C0C3
:101A7000452B39F4E62FF0E0E45FFE4F8081898347
:101A800005C0F0E0E55FFE4F80818A8329813A81BD
:101A90004B815C816D817E818F81988528960FB600
:101AA000F894DEBF0FBECDBFDF91CF9108954F9266
:101AB0005F926F927F92AF92BF92CF92DF92EF923E
:101AC000FF920F931F93CF93DF93CDB7DEB7289785
:101AD0000FB6F894DEBF0FBECDBF8C01CB01D22E66
:101AE000642F0E94040D29013A015B017C01F80179
:101AF00082A582FD04C087A590A90E94DD14F8018B
:101B000087A590A9DD2011F060E001C061E00E948E
:101B1000F30EF801C7A4D0A849825A826B827C8256
:101B2000AD82BE82EF82F886F6012685AE014F5F58
:101B30005F4F6AE0C6010E941714F6012685AE01C8
:101B40004F5F5F4F60E1C6010E941714F6014781A5
:101B500061E1C6010E94F313F801B4A8C7A4D0A89C
:101B60000E94800B2B013C016FEFC6010E94D41331
:101B700080FF1EC06FEFC6010E94D41384FF06C011
:101B800040E167E0C6010E94F31310C00E94800B81
:101B9000DC01CB0184199509A609B70980369105A6
:101BA000A105B10508F381E0F6018787F12C30C06B
:101BB000F601F780EF2CBF1408F4EB2CF6018085BA
:101BC000811102C0FE1801C0F12CC6010E94CA1387
:101BD00080EA0E94CD135801F7E0AF0EB11CEA0C69
:101BE000EA1431F0F50181915F010E94CD13F8CF25
:101BF000FF2029F080E00E94CD13FA94F9CFC601AE
:101C00000E94C71361E0C6010E94A313FF24F3944E
:101C1000F80182A582FD0FC04181528163817481E8
:101C200087A590A90E941F10F82E60E0F80187A5F3
:101C300090A90E94F30E8F2D28960FB6F894DEBF60
:101C40000FBECDBFDF91CF911F910F91FF90EF900D
:101C5000DF90CF90BF90AF907F906F905F904F904C
:101C60000895CF92DF92EF92FF920F931F93CF933D
:101C7000DF9300D000D0CDB7DEB7FC0195859B0186
:101C80002115310561F0822F8770863030F483E0B2
:101C9000369527958A95E1F7F3CF80E097C0915468
:101CA000EE24E3949F3708F0E12CF42E6B018F01B2
:101CB00019821A821B821C827A8369834B83BE013C
:101CC0006F5F7F4FCF010E94F30969817A812C8178
:101CD0004B81C8010E94570DF1E0FF1227C081110E
:101CE00002C0F12C6AC089819A818C159D0501F58D
:101CF000EE20F1F081ECF80185878781908592874D
:101D000081879A838983FB821C82BE016F5F7F4F2C
:101D1000C8010E94F30988E0F80184AB69817A81E7
:101D20002C814B81C8010E94570D02C08823C9F243
:101D300089819A818C159D0519F4FF24F3943DC087
:101D4000FF2019F0F3E0FF12F8CFEE20B1F3F80115
:101D500082A582FF11C0418152816381748187A570
:101D600090A90E941F10F80182A58B7F82A760E0D6
:101D700087A590A90E94F30EF80187A590A90E945B
:101D80003B180E94800B6B017C01C8010E947616F3
:101D9000813C99F20E94800BAB01BC014C195D099A
:101DA0006E097F09F80185819681A0E0B0E0841773
:101DB0009507A607B70748F794CFF80182A582FDDB
:101DC00004C087A590A90E943B188F2D0F900F90FB
:101DD0000F900F90DF91CF911F910F91FF90EF9097
:101DE000DF90CF9008951F93CF93DF93EC01162FD0
:101DF00061E00E944E14482F112311F0416001C090
:101E00004E7F61E0CE01DF91CF911F910C94F313CF
:101E10007F928F929F92AF92BF92CF92DF92EF927A
:101E2000FF920F931F93CF93DF93CDB7DEB7289721
:101E30000FB6F894DEBF0FBECDBFFC019B0121158C
:101E4000310559F0822F8770863008F0E4C0A3E096
:101E500036952795AA95E1F7F2CF62AB73AB87A5CC
:101E600090A9DC012D913C912F3F310509F4D3C09D
:101E7000DC0112962D913C9113972F3F310509F407
:101E8000CAC0E72EF62E8F0160E00E94F30EF80123
:101E900087A590A90E94A914D801D2968D919C91F2
:101EA000D39766E070E00E944828482F440F4B5FAC
:101EB000B0E14B9FA0011124456064E0F80187A5C3
:101EC00090A90E94F31389E190E0A0E0B0E0F8014E
:101ED00081839283A383B4838BE490E0968385838C
:101EE00082A993A940E02FEF3FEFB901682379233E
:101EF000672B39F073E0220F331F7A95E1F74F5FBC
:101F0000F4CFF80141AB20953095E059FE4F318375
:101F1000208363E0369527956A95E1F73397A90109
:101F200048235923518340832115310559F043E05B
:101F3000969587954A95E1F753E0369527955A95FA
:101F4000E1F7F2CFF801E159FE4F808386E0782E69
:101F500088248394912C7A94FFEF7F1609F454C05F
:101F6000672D8F2D9E2D0E94040DD8019F96CD9038
:101F7000DC90D09729833A834B835C836D837E8387
:101F80008F839887A72CB12C71100BC0F601468562
:101F900050E0BE016F5F7F4FC60109960E9467281F
:101FA00003C0F1E07F1208C0F501E65FFC4F6491C9
:101FB000D6011E962C9105C0F501E65FFC4F649199
:101FC00021E0AE014F5F5F4FC6010E941714F5017B
:101FD000EC5FFC4F6491F6014781C6010E94F31348
:101FE00062E0C6010E944E14F501E250FD4FE491FB
:101FF000940101C0220FEA95EAF7482F422B62E0D4
:10200000C6010E94F313A7CFD8019F968D919C9192
:10201000D0970E943B1828960FB6F894DEBF0FBEEB
:10202000CDBFDF91CF911F910F91FF90EF90DF9087
:10203000CF90BF90AF909F908F907F9008954F92D8
:102040005F926F927F928F929F92AF92BF92CF9248
:10205000DF92EF92FF92CF93DF93EC014A015B0195
:102060000E94800B6B017C01240135018FE5480E35
:10207000511C611C711C67E1CE010E944E1484FD4D
:1020800039C06FEFCE010E94D41384FF22C040E11B
:1020900067E0CE010E94F31360E0CE010E94A3131B
:1020A00061E0CE010E94A3130E94800BDC01CB01F2
:1020B0008C199D09AE09BF0988159905AA05BB05AC
:1020C00040F060E0CE010E94A313CE010E94F01305
:1020D0000FC00E94800BDC01CB018C199D09AE0959
:1020E000BF09481659066A067B0628F681E08F87E5
:1020F00080E005C060E0CE010E94A31381E0DF9183
:10210000CF91FF90EF90DF90CF90BF90AF909F90D6
:102110008F907F906F905F904F900895AF92BF9295
:10212000CF92DF92EF92FF920F931F93CF93DF93A3
:10213000CDB7DEB728970FB6F894DEBF0FBECDBF80
:10214000DC01ED91FC91E432F94011F480E02AC009
:102150006901142F5B017C010E94800BF7018081D3
:1021600091818432994091F31C821B8280910401F9
:10217000909105019C012F5F3F4F30930501209303
:1021800004019E838D831F8308E310E09601A5015F
:10219000BE016F5F7F4FD70118968D919C91199763
:1021A0000E94811828960FB6F894DEBF0FBECDBFEF
:1021B000DF91CF911F910F91FF90EF90DF90CF9023
:1021C000BF90AF900895FF920F931F93CF93DF932B
:1021D000803319F422E3F22E02C090E7F92E14E1C5
:1021E000C82FD0E09E014F2D62EB72E08091B002CB
:1021F0009091B1020E948E10082F811114C080911D
:10220000B0029091B1020E94420681110AC040EDD5
:1022100057E060E070E08091B0029091B1020E94BE
:102220008D041150F9F6802FDF91CF911F910F91FE
:10223000FF900895009769F0FC0101900020E9F7F4
:102240003197AF01481B590BBC0186EF91E00C940C
:10225000840880E090E008958F929F92AF92BF92A1
:102260000F931F93CF93DF93CDB7DEB7A1970FB630
:10227000F894DEBF0FBECDBF19A2423008F44AE089
:102280008E010F5D1F4F842E912CA12CB12CA50126
:1022900094010E94DA26E62FB901CA010150110902
:1022A000EA3014F4E05D01C0E95CD801EC93232B23
:1022B000242B252B61F7C8010E941A11A1960FB695
:1022C000F894DEBF0FBECDBFDF91CF911F910F916C
:1022D000BF90AF909F908F900895CF93DF93AB0105
:1022E000672B61F4E091F601F091F7010190F08124
:1022F000E02D682F86EF91E0099506C0682F70E009
:1023000080E090E00E942C11EC0186E591E00E94B3
:102310001A118C0F9D1FDF91CF9108958091860433
:10232000E0918704F0918804F8949181982B91832F
:102330002281982F909529232283A2E0B0E0119763
:10234000F1F7218192239183A0E1B0E01197F1F799
:1023500090817894E6E6F0E03197F1F7982381E0F8
:1023600009F480E0089590918604E0918704F0914B
:102370008804392F309580FF13C0F8942281832F71
:10238000822382838181892B8183A0E1B0E0119730
:10239000F1F78281982B928378948AE690E012C0BC
:1023A000F8942281832F822382838181892B8183E8
:1023B000AEE7B0E01197F1F78281982B9283789481
:1023C00086E090E00197F1F708950F931F93CF9364
:1023D000DF93082FC8E0D0E011E081E0912F902337
:1023E00009F480E00E94B311110F2197B1F7F8941E
:1023F000E0918704F0918804918180918604809512
:1024000089238183E0918704F091880492818091EF
:1024100086048095892382837894DF91CF911F91E0
:102420000F910895EF92FF920F931F93CF93DF9335
:102430001F92CDB7DEB7182F85E599830E94E5116D
:10244000E12E9981F92E8701085F1F4FF7018191D5
:102450007F010E94E511E016F106C1F70F90DF91B0
:10246000CF911F910F91FF90EF9008959091860466
:10247000E0918704F0918804F8948181292F2095B8
:102480008223818378948DE7815009F1308139234B
:10249000D9F3F8948281822382838181892B81837D
:1024A0007894ACEBB3E01197F1F7F894818128238D
:1024B0002183A8E8B0E01197F1F78081982381E0AB
:1024C00009F080E07894E0E3F3E03197F1F70895C4
:1024D0000F931F93CF93DF938C01C0E0D0E0F801FE
:1024E000EC0FFD1F6491662371F0E091F601F0910D
:1024F000F7010190F081E02D86EF91E00995892B9D
:1025000011F02196ECCFCE01DF91CF911F910F9169
:1025100008958F929F92AF92BF92DF92EF92FF92B7
:102520000F931F93CF93DF93C82F162F282F30E0E0
:10253000F901E25DFC4FD491F901E65EFC4FE491B4
:10254000F0E0EE0FFF1FE05FFC4FE590F49010927B
:10255000B3041092B4041092B5041092B604109211
:10256000B70461E00E94DC0A60E08C2F0E94900AB0
:10257000612F70E080E090E00E94460B61E08C2FBC
:102580000E94900A8CE490E00197F1F760E08C2FB4
:102590000E94DC0A28EC30E0F70180818D2331F4C1
:1025A00021503109C9F78EEF9FEF4FC028EC30E082
:1025B000F70180818D2321F021503109C9F7F3CF34
:1025C00008E210E8D12C28EC30E0F70180818D235F
:1025D00021F421503109C9F7E6CF0E94210B4B01AC
:1025E0005C0128EC30E0F70180818D2321F021503F
:1025F0003109C9F7D8CF0E94210BDC01CB01881922
:102600009909AA09BB098997A105B10538F0ED2DF3
:10261000F0E0EF54FB4F8281812B8283212F30E049
:10262000359527952115310511F0122F02C0D3944D
:1026300010E8015041F661E08C2F0E94DC0A61E055
:102640008C2F0E94900A80E090E0DF91CF911F9143
:102650000F91FF90EF90DF90BF90AF909F908F9081
:102660000895CF92DF92EF92FF92CF93DF936C01A8
:10267000990FEE08FF08F7FE1AC0E091F601F091FD
:10268000F7010190F081E02D6DE286EF91E0099570
:10269000EC0166277727CB016C197D098E099F090C
:1026A0004AE00E942C117C01EC0EFD1E06C04AE09F
:1026B000C701B6010E942C117C0186E591E00E94C1
:1026C0001A118E0D9F1DDF91CF91FF90EF90DF903B
:1026D000CF900895EF92FF920F931F93CF93DF93C4
:1026E000EC017B01BA018AA99BA9F7019183808340
:1026F000DE01179688E001900D928A95E1F7211589
:10270000310529F0A901CE010F960E946728F70133
:10271000628173810833110561F06034710511F431
:1027200044E001C043E06017710709F442E0B801DA
:1027300001C040E0CE01DF91CF911F910F91FF903A
:10274000EF900C94310EFC012081318182819381C4
:102750002817390719F0822F0C94900A0895CF9307
:10276000DF93EC019CB59F7D9CBD9CB5937F9CBD88
:102770009CB59C7F9CBD9DB591609DBD8A810E944A
:10278000900A8C899D89DF91CF910C94180B61E0A0
:102790000C94AF1360E00C94AF138EBD00000DB429
:1027A00007FEFDCF8EB50895EF92FF921F93CF9352
:1027B000DF931F92CDB7DEB77C0169830E94CA13F5
:1027C0006981862F0E94CD13182FC7010E94C7135D
:1027D000812F0F90DF91CF911F91FF90EF9008957F
:1027E00061EE0C94D413EF92FF921F93CF93DF937B
:1027F00000D0CDB7DEB77C014A8369830E94CA133B
:102800006981862F8F7180620E94CD13182F4A81B3
:10281000842F0E94CD13C7010E94C713812F0F90F0
:102820000F90DF91CF911F91FF90EF900895CF927D
:10283000DF92EF92FF920F931F93CF93DF9300D01D
:102840001F92CDB7DEB77C01142F2A835B83698387
:102850000E94CA136981862F8F7180620E94CD13F6
:10286000082FC12E5B81D52E2A81120F1C1531F045
:10287000F60181916F010E94CD13F8CFC7010E942C
:10288000C713802F0F900F900F90DF91CF911F9162
:102890000F91FF90EF90DF90CF900895EF92FF920D
:1028A0001F93CF93DF931F92CDB7DEB77C0169836F
:1028B0000E94CA136981862F8F710E94CD138FEFFA
:1028C0000E94CD13182FC7010E94C713812F0F90AC
:1028D000DF91CF911F91FF90EF900895EF92FF92BB
:1028E0000F931F93CF938C017B0166E00E944E14DF
:1028F000C82FC77D82E0E816F10431F4C0628BE98D
:1029000090E0A0E0B0E00DC0EA94EF2829F085E562
:1029100090E0A0E0B0E005C0C86081E490E0A0E0F5
:10292000B0E0F801808B918BA28BB38B4C2F66E0CB
:10293000C8010E94F31366E0C8010E944E1491E0A2
:102940008C1390E0892FCF911F910F91FF90EF9002
:102950000895CF93DF93EC016DE10E944E14482F50
:1029600044606DE1CE010E94F3136CE1CE010E9440
:102970004E14482F4F636CE1CE010E94F31381E0A7
:102980008887DF91CF910895CF93DF93EC0160E0CA
:102990000E944E1481FD0EC0482F426060E0CE01BF
:1029A0000E94F31365E070E080E090E0DF91CF914A
:1029B0000C94460BDF91CF910895CF93DF93EC01F8
:1029C00060E00E94A313888999890E94180B6DE129
:1029D000CE010E944E1481FF07C0888999890E9408
:1029E000180BCE010E94F01360E0CE010E944E143D
:1029F000482F4E7F60E0CE010E94F31362E0CE01CB
:102A00000E944E14EEEFF2E0E49141E050E001C08C
:102A1000440FEA95EAF7482B62E0CE01DF91CF91AF
:102A20000C94F3138F929F92AF92BF92CF92DF924A
:102A3000EF92FF920F931F93CF93DF93EC017B01F3
:102A4000CCA8D12C860108501109DB0116969C9167
:102A50008CE6890F833020F0983C09F0CFC003C08A
:102A6000943909F4E4C08BE6890F823018F0983C61
:102A700009F08EC06E0159EDC50ED11CD6012D9105
:102A80003C91A801420F531F4139510520F0C85213
:102A9000DF4F1882B1C05E01B8EDAB0EB11CF5017D
:102AA0008081882309F415C1963929F0D70117963A
:102AB0009C919813A1C0FE01EB52FF4F40815181C0
:102AC000F701848195814817590709F095C04E0197
:102AD000FBED8F0E911CD4018D919C91A801BE013C
:102AE000615F7F4F820F931F0E946728F6018081EC
:102AF0009181080F191F11830083D70116968C91BD
:102B0000863929F0F50180818150808373C0D50119
:102B10001C92F7018781FE01E952FF4F80838338C1
:102B200009F483C07E01FFECEF0EF11CF701A081D8
:102B3000B181CE018A1B9B0B8B539F4F801791074E
:102B4000F8F032968AE001900D928A95E1F7D7016C
:102B50008D919C91F40160817181D6014D915C91C0
:102B60000A960E946728F601808191810A96D70112
:102B70002D913C911197820F931F8D939C933AC096
:102B80008FA598A90E94DD148AA581608AA734C008
:102B90007E01BFECEB0EF11CF701A081B181CE01EB
:102BA000C5969D01281B390BC901800F911F8B39D8
:102BB000910510F5E85CF10988E001900D928A9585
:102BC000E1F7D701ED91FC911197118700878D9165
:102BD0009C91BE01615F7F4FA8010A960E94672801
:102BE000B2E0CB0ED11CF70180819181C80ED91EB5
:102BF000D182C08281E06DC080E06BC0933841F625
:102C0000DE01AF52BF4FFE01379688E001900D9272
:102C10008A95E1F7FE01E552FF4FCE010F969183B1
:102C20008083C752DF4F1983088382E052C0F701C7
:102C30008781873008F02BCFFE01EB52FF4F408198
:102C40005181D70114962D913C91159734976F01BE
:102C50004217530739F4408151812D913C9142171D
:102C6000530741F2F8E18F9FC0011124FE01E153A7
:102C7000FF4F20813181AE01421B530B9A012B5330
:102C80003F4F281739073CF48AA581608AA78FA592
:102C900098A90E94DD14FE01379688E0D6010190C4
:102CA0000D928A95E1F7FE01E552FF4FBE01615F8B
:102CB0007F4FA801808191810E946728FE01E75221
:102CC000FF4F11830083C852DF4F88818150888372
:102CD00091CFDF91CF911F910F91FF90EF90DF90F7
:102CE000CF90BF90AF909F908F9008952F923F927A
:102CF0004F925F926F927F928F929F92AF92BF920C
:102D0000CF92DF92EF92FF920F931F93CF93DF93B7
:102D100000D01F92CDB7DEB7DC019A969C919A97AE
:102D2000892F827091FD19C0FD01E153FF4FAD0164
:102D30004B5C5F4F90FD07C020813181241B350B18
:102D40002937310554F0208131814217530708F4A7
:102D50007CC19E7F9A969C939A97BB83AA830E947C
:102D6000800B2B013C0110E0CA80DB8027E0C20E03
:102D7000D11C2A803B8031E9231A3EEF330AF4E26A
:102D8000AF2EF9E0BF2EEA81FB81E7A4F0A8F7019E
:102D9000808191818F3F910529F1828193818F3FBD
:102DA000910501F167E1C7010E944E14082F0170DF
:102DB00080FD18C06FEFC7010E94D4130E94800BE2
:102DC000DC01CB0184199509A609B709EA81FB81C9
:102DD000E7A4F0A8893E9340A105B10528F081E061
:102DE000F7018787812F31C1C7010E94CA1380E68E
:102DF0000E94CD138FEF0E94CD13982EC7010E9421
:102E0000C713F0E2F91558F462EEC7010E94D4131B
:102E100062E070E080E090E00E94460B01C0092D66
:102E2000EA81FB8104AB083038F46AE070E080E0AE
:102E300090E00E94460BA7CFEA81FB81E7A4F0A8AF
:102E4000F7018781801708F4082FF7019085911109
:102E500003C0801B898301C01982C7010E94CA1365
:102E600081E60E94CD134601015038F08FEF0E9499
:102E7000CD13F40181934F01F7CF0981002329F08D
:102E80008FEF0E94CD130150F9CFC7010E94C713E5
:102E900040E767E0C7010E94F313EA81FB81618587
:102EA0007285CB01009759F0282F2770263008F043
:102EB0006ACFE3E096958795EA95E1F7F3CFEA814B
:102EC000FB81158582A993A96817790709F043C08A
:102ED000123809F458CF103891F464327940F1F087
:102EE000EA81FB81B286A18642E064E279E0CF010B
:102EF0000E94310E6AE070E080E090E049C0133C2F
:102F000069F46115710551F0EA81FB81708767836F
:102F10001286118640E060E070E041C0EA81FB81EA
:102F200081A5882319F017FF0CC002C0113C49F499
:102F30008CE6810F833028F0183C19F0133809F023
:102F400051CFB6018A819B810E941215823009F00F
:102F50001ACF83E87AC06034710509F070C0123C62
:102F600001F5EA81FB8122A523FD0DCF8432F9E032
:102F70009F0709F408CFEA81FB81278130853287DA
:102F8000218790878783F101608170E080E090E085
:102F90000E94460BEA81FB816185728542E0CF0188
:102FA00051C0B6018A819B810E941215082FEA81C7
:102FB000FB818081882309F43EC022A933A9C9017D
:102FC00053E0969587955A95E1F7892B21F08CEB84
:102FD00092E10197F1F7C901837099279C0148E5B7
:102FE00052E0249FC001259F900D349F900D112425
:102FF0000E94180BEA81FB8121A9222381F030E095
:1030000021503109C901880F991F280F391F61E02C
:1030100070E002C0660F771F2A95E2F702C060E0F9
:1030200070E083E0660F771F8A95E1F744E08A81BC
:103030009B810E94310E023009F0A5CE8ACF41E07B
:103040008A819B810E94310E9ECE0F900F900F902F
:10305000DF91CF911F910F91FF90EF90DF90CF9074
:10306000BF90AF909F908F907F906F905F904F90A8
:103070003F902F900895CF93DF93EC010E94C414EA
:1030800060E0CE010E944E14482F416060E0CE0106
:103090000E94F31340E767E0CE010E94F31361E062
:1030A000CE010E94A3138985882349F02E85AE01A5
:1030B000475F5F4F6AE0CE010E94171414C062E0C0
:1030C000CE010E944E14EEEFF2E0E49121E030E0F8
:1030D00001C0220FEA95EAF72095422F482362E0CB
:1030E000CE010E94F3136DE1CE010E944E1481FFC8
:1030F00005C0CE01DF91CF910C94F013DF91CF91F9
:1031000008952F923F924F925F926F927F928F928B
:103110009F92AF92BF92CF92DF92EF92FF920F9366
:103120001F93CF93DF93EC017B015A0169014801A2
:103130000E94800B4BA45CA46DA47EA4DC01CB0197
:1031400084199509A609B7094997A105B10528F47D
:10315000CE010E94761687FFEBCF8CE891E00197B5
:10316000F1F789E1C816D104B0F488E08C0D8CAB7E
:1031700084019601A501B701CE010E946A13182FA0
:10318000882311F011E092C00E94800B6BA77CA7EE
:103190008DA79EA78BC0E1E9CE16D10408F085C0AB
:1031A000C60168E170E00E94482821E0892B09F4FB
:1031B00020E0C60168E170E00E944828722E760E79
:1031C000F701828193818034910539F08AA584606A
:1031D0008AA78FA598A90E94DD14F7014680512C7B
:1031E000612C84E9282E96E9392EF7017782F1E0E7
:1031F0007F1204C0F7013682478208C0611003C005
:10320000F701268203C085E9F7018683E8E16E9E17
:10321000A00111249601241B350B2931310510F032
:1032200028E130E088E0820F8CAB4A0D5B1D840101
:10323000B701CE010E946A13182F81110BC062E002
:1032400070E080E090E00E94460B5394F2E0F515A8
:1032500060F606C07A946394772011F0512CC5CFA4
:10326000F70146828AA582FF12C049815A816B818B
:103270007C818FA598A90E941F10182F8FA598A94F
:103280000E943B1860E08FA598A90E94F30E8AA5C2
:103290008B7F8AA7112349F0772009F473CF0E940E
:1032A000800B6BA77CA78DA79EA710E0812FDF91D5
:1032B000CF911F910F91FF90EF90DF90CF90BF9033
:1032C000AF909F908F907F906F905F904F903F90C6
:1032D0002F9008951F93CF93DF93C091E802D09170
:1032E000E902888199812A813B818217930719F02D
:1032F00061E00E94DC0A8A819B812881398128173C
:10330000390719F061E00E94DC0A1FB7F894809138
:10331000C804811127C0E4E2F3E08491E8E3F3E01C
:103320009491E82FF0E0EE0FFF1FEB59FC4FA591B1
:10333000B491EC91E92321F461E08AE00E94900AC3
:1033400061E08AE00E94DC0A8CB580618CBD8CB59E
:1033500080648CBD61E08DE00E94DC0A61E08BE05E
:103360000E94DC0A8091C8048F5F8093C8041FBF4D
:1033700060E0CE010E94A31361E0CE010E94AF1372
:1033800065E070E080E090E00E94460B4CE060E079
:10339000CE010E94F3134FE564E0CE010E94F313C7
:1033A00062E070E0CE010E946E14882311F081E08B
:1033B0008E8366E0CE010E944E1460E070E0CE0184
:1033C0000E946E14CE010E94CA1380E50E94CD13A4
:1033D00083E70E94CD13CE010E94C71340E06DE148
:1033E000CE010E94F31340E06CE1CE010E94F31382
:1033F000188640E767E0CE010E94F3134CE465E0D5
:10340000CE010E94F31362EECE010E94D413CE01CE
:103410000E94F013CE010E94C41460E0CE010E940D
:103420004E14482F4E7F60E0CE010E94F3138DE7CB
:103430008093F5024DE765E08091E8029091E90202
:103440000E94F31362E070E08091E8029091E9023B
:103450000E946E14C091EA02D091EB0281E089A72C
:103460008091E402882399F084E299E09093E3024A
:103470008093E20240E45FE160E070E082EE92E07F
:103480000E948D0421E0892BB1F420E014C086E075
:1034900090E00E947B249093E6028093E5021092D4
:1034A000E7021092E3021092E20260E070E0CE01C7
:1034B0000E94080F21E0822FDF91CF911F91089584
:1034C000CF93DF930E946812EC0186E591E00E94A1
:1034D0001A118C0F9D1FDF91CF910895EF92FF92EB
:1034E0000F931F93CF93DF931F92CDB7DEB7E42ED8
:1034F0009F938F938FE593E09F938F9369830E94AF
:1035000067226981E60E0F900F900F900F9007E5EC
:1035100013E06E1599F0FF24F394F60E8CE694E018
:103520000E944E141F928F931F930F930E94672245
:103530000F900F900F900F906F2DEBCF84E593E0DD
:103540009F938F930E9467220F900F900F90DF91AF
:10355000CF911F910F91FF90EF9008952F923F927E
:103560004F925F926F927F928F929F92AF92BF9293
:10357000CF92DF92EF92FF920F931F93CF93DF933F
:103580001F92CDB7DEB7562E342E6DB67EB69F9302
:103590008F938EE493E09F938F930E946722350C64
:1035A0000F900F900F900F908AE4C82E83E0D82ED2
:1035B00095E4A92E93E0B92E531409F452C08DB6A8
:1035C0009EB620917A04022F10E08DB79EB7801B23
:1035D000910B0FB6F8949EBF0FBE8DBFEDB7FEB72F
:1035E00031967F0122242394250C8CE694E02983D4
:1035F0000E94CA13852D8F710E94CD132701298146
:103600002E0D241549F08FEF29830E94CD13F2016E
:1036100081932F012981F5CF8CE694E00E94C71396
:10362000DF92CF920E9467220E0D1F1D0F900F9008
:10363000015011090E151F0568F0F80180811F92D5
:103640008F93BF92AF920E9467220F900F900F90BE
:103650000F90EECF0FB6F8949EBE0FBE8DBE522CCB
:10366000ABCF82E493E09F938F930E9467220F90E9
:103670000F900FB6F8947EBE0FBE6DBE0F90DF9117
:10368000CF911F910F91FF90EF90DF90CF90BF905F
:10369000AF909F908F907F906F905F904F903F90F2
:1036A0002F900895CF93DF93CDB7DEB72A970FB64B
:1036B000F894DEBF0FBECDBF789484B5826084BD20
:1036C00084B5816084BD85B5826085BD85B5816026
:1036D00085BD80916E00816080936E0010928100A4
:1036E000809181008260809381008091810081605F
:1036F0008093810080918000816080938000809120
:10370000B10084608093B1008091B00081608093AB
:10371000B00080917A00846080937A0080917A0072
:10372000826080937A0080917A008E7F80937A0005
:1037300080917A00806880937A001092C10061E0E5
:1037400086E00E94DC0A61E086E00E94900AE09137
:103750000602F091070282E08083E0910202F0917C
:1037600003021082E0910402F091050288E0808358
:1037700010920E02E0910A02F0910B0286E0808323
:10378000E0910802F0910902808180618083E091DC
:103790000802F0910902808188608083E09108022C
:1037A000F0910902808180688083E0910802F091A5
:1037B000090280818F7D808360E070E084ED93E07A
:1037C0000E941C2289E090E00E945B268093010108
:1037D0001EE9E12E12E0F12E67010FE010E0C801B2
:1037E0000E945B26F60181936F010F5F1F4F0F311F
:1037F0001105A9F78EE591E00E9468126AE070E079
:10380000809101010E946D1180E591E00E94681293
:1038100001E511E09E012F5F3F4F1901F7018191F2
:103820007F011F928F931F930F933F922F920E94BD
:103830008228C1010E941A110F900F900F900F90D3
:103840000F900F90FEEAEF16F2E0FF0639F786E5DB
:1038500091E00E941A1180910101823038F4809128
:103860009E02811101C081E08093010183E992E011
:103870000E946812809101018093E4026AE070E086
:103880000E946D110E946A198CE694E00E94A914AE
:103890004FE361E08CE694E00E94F3138BE792E043
:1038A0000E94601A66E08CE694E00E944E14887FC5
:1038B000482F456066E08CE694E00E94F3136FEFBA
:1038C0008CE694E00E94D413282F30E0982F91705A
:1038D0001F929F9335952795277033273F932F93FA
:1038E00084FB992790F91F929F9385FB992790F964
:1038F0001F929F9386FB992790F91F929F931F9287
:103900008F938EE691E09F938F930E94672242E00F
:103910006AE089E692E00E94AE1A44E06CE08CE531
:1039200092E00E946E1A41E060E183E592E00E941D
:10393000AE1A46E061E188E492E00E946E1A41E02E
:1039400061E081E492E00E946E1A41E062E087E368
:1039500092E00E946E1A41E065E080E392E00E94EE
:103960006E1A41E066E087E292E00E946E1A41E042
:1039700060E08FE192E00E946E1A42E06CE181E12A
:1039800092E00E946E1A66E08CE694E00E944E146B
:1039900088720FB6F894DEBF0FBECDBF803241F003
:1039A00021E090E0883009F020E0E22FF92F02C0FA
:1039B000E2E0F0E0EE0FFF1FE55FFD4F859194918F
:1039C0009F938F9389EF91E09F938F930E9467223B
:1039D000E0917204F0E0EE0FFF1FEB50FE4F859177
:1039E00094919F938F9386EE91E09F938F930E9483
:1039F000672260E08CE694E00E944E14182F61E08C
:103A00008CE694E00E944E140FB6F894DEBF0FBE11
:103A1000CDBF13FD02C0882329F012FD06C0E1E0EE
:103A2000F0E005C0E0E0F0E002C0E2E0F0E0EE0F20
:103A3000FF1FE052FE4F859194919F938F938DECE1
:103A400091E09F938F930E94672266E08CE694E05A
:103A50000E944E148670E82FF0E0EB53FE4F8591E4
:103A600094919F938F9384EB91E09F938F930E9407
:103A7000672284B7877F84BF8091600088618093CC
:103A8000600081E280936000809160008064809398
:103A9000600086E792E00E94601A60E086E00E9483
:103AA000900A68EC70E080E090E00E94460B61E0D4
:103AB00086E00E94900A0FB6F894DEBF0FBECDBF1D
:103AC000C12C50ECD52E59E7E52E54ECF52E81EAA9
:103AD00094E037E0380F398744244A9463E0562E47
:103AE000612C712C0E94AD0605E065E070E080E07D
:103AF00090E00E94460B8091B9048B3041F562E161
:103B00008091B8040E948912009759F51091B3046E
:103B1000612F70E080E090E00E9441276093AB0449
:103B20007093AC048093AD049093AE04B090B50450
:103B30006B2D70E080E090E00E9441276093AF041D
:103B40007093B0048093B1049093B20453C0863153
:103B500009F061C061E08091B8040E948912009769
:103B600089F0C092AB04D092AC04E092AD04F09224
:103B7000AE04C092AF04D092B004E092B104F092CF
:103B8000B20444C0A090B4049090B3046A2D70E0D5
:103B9000792980E090E00E9441272DEC3CEC4CEC30
:103BA0005DE30E94A7276093AB047093AC048093FD
:103BB000AD049093AE04B090B6041091B504812F7B
:103BC0008F776B2D70E0782B80E090E00E9441278A
:103BD0002DEC3CEC4CEC5DE30E94A72717FD39C0AF
:103BE0006093AF047093B0048093B1049093B204D7
:103BF000A90CBA0C1B0D81E090E02091B7042113B1
:103C000002C080E090E09195819591099093BB046A
:103C10008093BA0404C01092BB041092BA0480913D
:103C2000BA049091BB04892B01F101508FEA92E014
:103C30000E94681284E090E0801B91090E94311379
:103C400068EE73E080E090E00E94460B002369F08C
:103C50004CCFDC01CB01B0588093AF049093B004FB
:103C6000A093B104B093B204C3CF10929404109205
:103C70009104109293041092920401E914E0F80167
:103C8000129284E0E938F807D9F70E9436128823A7
:103C900009F4ACC280EF0E94E511AA24A394912CF0
:103CA000812CBB24B3940E948E118A870E948E11AE
:103CB0009A85913019F48130C9F437C0292D30E04C
:103CC00098131EC080919104B81638F4F901E95791
:103CD000FB4F82818A2151F402C0B81639F090E07E
:103CE000E8E0EB1560F0B092920409C0E92DF0E035
:103CF000E957FB4F82818A29828391E009C08B2C8E
:103D0000F901E957FB4F22818A2D80958223828316
:103D1000892F0E94B311B394AA0C19F49394AA2486
:103D2000A394F7E0F91508F0BECF20E42B1508F0B6
:103D30005DC280929104811003C081E0809393045E
:103D400080918904882309F451C2E1EAF4E0DF019B
:103D500058978C91819334E0E93AF307C1F7A1EACF
:103D6000B4E0E0E029852A1789F08D918E27E82FAD
:103D7000EF70F0E0E654FD4F949182958F70E82F3C
:103D8000F0E0E653FD4FE491E927ECCF8091A804E1
:103D9000E81749F04CE050E06FEF70E085E994E0FF
:103DA0000E94B32550C08091A104803119F088325F
:103DB00009F03FC00E94361281EA94E00E9412127C
:103DC00084E40E94E51168EE73E080E090E00E94D8
:103DD000460BF894E0918704F091880491818091DA
:103DE000860480958923818378940E94361281EA23
:103DF00094E00E9412128EEB0E94E51105E914E096
:103E000099E0900F38E0832E912CAA24A394B12C32
:103E10009A870E948E119A858111BA28AA0C31E0E6
:103E2000831A9108A9F7F801B1928F019E13EACF86
:103E30000AC089E591E00E941A1160E170E080916A
:103E4000A1040E946D118EE480937C0062E070E01A
:103E500080E090E00E94460B80917A00806480931D
:103E60007A0080917A0086FDFCCF209178008091C5
:103E7000790030E0382B032E000C440B550B64EB1B
:103E80007BE281E190E00E947126E22F732F642F84
:103E9000952F80919502882301F18E3008F08E5085
:103EA0008770806480937C0080917A008064809326
:103EB0007A0080917A0086FDFCCFA09178008091F5
:103EC0007900B0E0B82B0E949B26A30192010E94CA
:103ED0007126E22F732F642F952FE0939802709331
:103EE000990260939A0290939B029AE0B92E01E0A6
:103EF00011E020E1822EF7E0F093B2021093B402B9
:103F00000093B30224E030E03093B6022093B50270
:103F1000E091AE02F091AF02A7EBB2E0882D0190E4
:103F20000D928A95E1F785E0A82E28E130E040E582
:103F300062EB72E08091B0029091B1020E948E100B
:103F4000982E811115C08091B0029091B1020E940B
:103F5000420681110AC040ED57E060E070E08091B8
:103F6000B0029091B1020E948D04AA94A110DDCFFD
:103F7000BA94BB2021F0992009F4BDCF03C0992049
:103F800009F4A2C017E01093B20285E091E090938B
:103F9000B4028093B30281E090E09093B6028093E4
:103FA000B502E0918404F09185040190F081E02D48
:103FB00084E894E00995FC0198E0A7EBB2E0019059
:103FC0000D929A95E1F7E0918404F09185040280C6
:103FD000F381E02D84E894E00995FC019CE0AFEBCF
:103FE000B2E001900D929A95E1F780E30E94E31010
:103FF000E091A904F091AA040190F081E02D89EAF2
:1040000094E009955C01E091A904F091AA04028072
:10401000F381E02D89EA94E009951093B20222E041
:1040200031E03093B4022093B30222E030E03093C9
:10403000B6022093B502B092B802A092B702909354
:10404000BA028093B90288E10E94E310E0919302E2
:10405000F09194020190F081E02D83E992E00995BE
:104060004B015C01E0919302F09194020280F38194
:10407000E02D83E992E00995082FE0919302F091F9
:1040800094020480F581E02D83E992E00995109374
:10409000B20224E031E03093B4022093B30223E073
:1040A00030E03093B6022093B5028092B70290922E
:1040B000B802A092B902B092BA020093BB028093F8
:1040C000BC0288E10E94E3100E94AD0680919D022F
:1040D000813009F488C08AED92E00E94601A8091D4
:1040E000E2029091E3028432994071F11C821B82BA
:1040F00080910401909105019C012F5F3F4F309307
:104100000501209304019E838D8385EC8F8308E352
:1041100010E020E030E040E050E0B1018091EA02A0
:104120009091EB020E948118882371F064E279E09B
:104130008091EA029091EB020E94080F84E299E0DC
:104140009093E3028093E20260E08CE694E00E94A8
:10415000A31360E08CE694E00E944E14482F4D7F3C
:1041600060E08CE694E00E94F31360E086E00E9439
:10417000900A83B7817F846083BF8091960291E02B
:10418000980F9093960290919702891750F483B7F5
:10419000816083BF83B7816083BF889583B78E7F3B
:1041A000EBCF83B78E7F83BF809164008071809353
:1041B00064001092960261E086E00E94900A8CE60C
:1041C00094E00E94C4148CE694E00E943B1848EEF0
:1041D00053E060E070E082EE92E00E948D04109265
:1041E0000301109202010E9480097CCC109291047C
:1041F0001092930410929204F80112928F01F4E04D
:1042000009381F07C9F7C6CDCF93DF93CDB7DEB707
:104210002E970FB6F894DEBF0FBECDBF1092F901F6
:104220001092F80188EE93E0A0E0B0E08093FA01EC
:104230009093FB01A093FC01B093FD0127E131E0D5
:104240003093F7012093F60125EC30E03093030220
:104250002093020224EC30E0309305022093040204
:1042600020EC30E0309307022093060221EC30E08E
:10427000309309022093080222EC30E030930B02C5
:1042800020930A0226EC30E030930D0220930C02BA
:1042900010920F021092100210921102109212024C
:1042A0001092BF041092BE048093C0049093C10486
:1042B000A093C204B093C30489E291E09093BD043B
:1042C0008093BC048DE491E09093AA048093A904A8
:1042D0008EEF9FEF9093BB048093BA0484E08093A9
:1042E000B80486E18093B90485E491E09093850455
:1042F0008093840460E082E10E94DC0AE0E4F3E061
:104300008491ECE2F3E0E491F0E0EE0FFF1FE05F58
:10431000FC4F25913491FE013C96AE014C5F5F4FFE
:104320001292E417F507E1F789833B832A831C8601
:104330001D861E868EE0FE013196A6E8B4E001904F
:104340000D928A95E1F72CE634E087E090E09093B7
:104350006D0480936C0488E090E090936F048093E8
:104360006E041092720480E28093730410927404BD
:1043700085E080937A0445E050E060E070E040938F
:10438000800450938104609382047093830410929C
:10439000750430932A03209329034FE253E050938E
:1043A000CA034093C90347ED53E05093D6034093AB
:1043B000D5034BEC53E0509322034093210310921A
:1043C00025031092260310922703109228031092BF
:1043D0002403109223031092FA023093E9022093EF
:1043E000E8022AEF32E03093EB022093EA022EE952
:1043F00032E03093AF022093AE0222EE32E03093EF
:10440000B1022093B0022BE331E030939402209369
:104410009302109295021092960280939702109246
:104420009C0210929D022E960FB6F894DEBF0FBE2E
:10443000CDBFDF91CF9108950F931F93CF93DF935B
:10444000009731F46115710519F480E090E03AC0ED
:104450008B01EC016EE070E081E090E00E945F244F
:10446000FC01892B91F380E883830115110571F01C
:104470001387028781E883838091C9049091CA04DD
:10448000892B21F4F093CA04E093C9042097C9F062
:10449000D187C0878381826083838091CB04909190
:1044A000CC04892B71F4F093CC04E093CB0480917D
:1044B000CD049091CE04892B21F4F093CE04E093A7
:1044C000CD04CF01DF91CF911F910F910895A0E00E
:1044D000B0E0EDE6F2E20C94B126AE01495F5F4F29
:1044E000DA016D917D91AD0109EC14E0F801828152
:1044F0009381DC0113962C911397286013962C93CB
:104500000E948D22D8011296ED91FC911397238180
:10451000277F2383E4E00C94CD26ACE0B0E0E3E910
:10452000F2E20C94A3267C016B018A01FC01178244
:104530001682838181FFBDC1CE0101964C01F70136
:104540009381F60193FD859193FF81916F018823FB
:1045500009F4ABC1853239F493FD859193FF8191C4
:104560006F01853229F4B70190E00E94C525E7CF9D
:10457000512C312C20E02032A0F48B3269F030F441
:10458000803259F0833269F420612CC08D3239F0C9
:10459000803339F4216026C02260246023C0286063
:1045A00021C027FD27C030ED380F3A3078F426FFC0
:1045B00006C0FAE05F9E300D1124532E13C08AE02E
:1045C000389E300D1124332E20620CC08E3221F41F
:1045D00026FD6BC1206406C08C3611F4206802C031
:1045E000883641F4F60193FD859193FF81916F0127
:1045F0008111C1CF982F9F7D9554933028F40C5F83
:104600001F4FFFE3F9830DC0833631F0833771F01C
:10461000833509F05BC022C0F801808189830E5F79
:104620001F4F44244394512C540115C03801F2E02B
:104630006F0E711CF801A080B18026FF03C0652DAC
:1046400070E002C06FEF7FEFC5012C870E94BA2592
:104650002C0183012C852F77222E17C03801F2E020
:104660006F0E711CF801A080B18026FF03C0652D7C
:1046700070E002C06FEF7FEFC5012C870E94A82574
:104680002C012C852068222E830123FC1BC0832D46
:1046900090E048165906B0F4B70180E290E00E941D
:1046A000C5253A94F4CFF50127FC859127FE819129
:1046B0005F01B70190E00E94C52531103A94F1E006
:1046C0004F1A51084114510471F7E5C0843611F0B6
:1046D000893639F5F80127FF07C060817181828131
:1046E00093810C5F1F4F08C060817181072E000C01
:1046F000880B990B0E5F1F4F2F76722E97FF09C004
:1047000090958095709561957F4F8F4F9F4F206852
:10471000722E2AE030E0A4010E94FD25A82EA818E0
:1047200044C0853729F42F7EB22E2AE030E025C020
:10473000F22FF97FBF2E8F36C1F018F4883579F04B
:10474000B4C0803719F0883721F0AFC02F2F206117
:10475000B22EB4FE0DC08B2D8460B82E09C024FF8C
:104760000AC09F2F9660B92E06C028E030E005C031
:1047700020E130E002C020E132E0F801B7FE07C0DE
:1047800060817181828193810C5F1F4F06C06081BF
:10479000718180E090E00E5F1F4FA4010E94FD2513
:1047A000A82EA818FB2DFF777F2E76FE0BC0372D85
:1047B0003E7FA51450F474FE0AC072FC08C0372D69
:1047C0003E7E05C0BA2C372D03C0BA2C01C0B52CD3
:1047D00034FF0DC0FE01EA0DF11D8081803311F41C
:1047E000397E09C032FF06C0B394B39404C0832F4E
:1047F000867809F0B39433FD13C030FF06C05A2CFD
:10480000B31418F4530C5B18B32CB31468F4B70149
:1048100080E290E03C870E94C525B3943C85F5CFAB
:10482000B31410F43B1801C0312C34FF12C0B7018F
:1048300080E390E03C870E94C5253C8532FF17C08D
:1048400031FD03C088E790E002C088E590E0B70141
:104850000CC0832F867859F031FF02C08BE201C073
:1048600080E237FD8DE2B70190E00E94C525A514D6
:1048700038F4B70180E390E00E94C5255A94F7CF41
:10488000AA94F401EA0DF11D8081B70190E00E9425
:10489000C525A110F5CF332009F451CEB70180E230
:1048A00090E00E94C5253A94F6CFF7018681978162
:1048B00002C08FEF9FEF2C96E2E10C94BF260F937E
:1048C0001F93CF93DF93869F8001879F100D969F44
:1048D000100D1124C8010E947B24EC01009729F0DF
:1048E000A80160E070E00E94B325CE01DF91CF9176
:1048F0001F910F910895CF93DF938230910510F4AB
:1049000082E090E0E091D104F091D20420E030E028
:10491000C0E0D0E0309711F140815181481759072C
:10492000C0F04817590761F482819381209719F0EC
:104930009B838A832BC09093D2048093D10426C09A
:104940002115310519F04217530718F49A01BE01D9
:10495000DF01EF010280F381E02DDCCF211531056D
:1049600009F1281B390B2430310590F412968D91F2
:104970009C9113976115710521F0FB01938382834C
:1049800004C09093D2048093D104FD01329644C0B8
:10499000FD01E20FF31F81939193225031092D9372
:1049A0003C933AC02091CF043091D004232B41F4A2
:1049B00020910801309109013093D0042093CF0455
:1049C00020910601309107012115310541F42DB7E1
:1049D0003EB740910A0150910B01241B350BE09129
:1049E000CF04F091D004E217F307A0F42E1B3F0B85
:1049F0002817390778F0AC014E5F5F4F2417350751
:104A000048F04E0F5F1F5093D0044093CF04819322
:104A1000919302C0E0E0F0E0CF01DF91CF910895E3
:104A20000F931F93CF93DF93009709F48CC0FC0181
:104A30003297138212820091D1041091D204011591
:104A4000110581F420813181820F931F2091CF04C1
:104A50003091D0042817390779F5F093D004E0930A
:104A6000CF0471C0D80140E050E0AE17BF0750F44A
:104A700012962D913C911397AD012115310509F145
:104A8000D901F3CF9D01DA013383228360817181E3
:104A9000860F971F8217930769F4EC0128813981EB
:104AA000260F371F2E5F3F4F318320838A819B81E2
:104AB00093838283452B29F4F093D204E093D104AD
:104AC00042C01396FC93EE931297ED0149915991D0
:104AD0009E01240F351FE217F30771F48081918145
:104AE000840F951F029611969C938E9382819381D9
:104AF00013969C938E931297E0E0F0E0D801129603
:104B00008D919C911397009719F0F8018C01F6CFC5
:104B10008D919C9198012E5F3F4F820F931F2091A2
:104B2000CF043091D0042817390769F4309729F45D
:104B30001092D2041092D10402C0138212821093F8
:104B4000D0040093CF04DF91CF911F910F9108956E
:104B5000FC010590615070400110D8F78095909548
:104B60008E0F9F1F0895DC0101C06D93415050408E
:104B7000E0F70895FC016150704001900110D8F7F2
:104B8000809590958E0F9F1F08950F931F93CF933D
:104B9000DF93FB01238121FD03C08FEF9FEF28C02E
:104BA00022FF16C046815781248135814217530761
:104BB00044F4A081B1819D012F5F3F4F3183208359
:104BC0008C93268137812F5F3F4F3783268310C018
:104BD000EB01092F182F0084F185E02D0995892B11
:104BE000E1F68E819F8101969F838E83812F902F86
:104BF000DF91CF911F910F910895FA01AA272830D4
:104C000051F1203181F1E8946F936E7F6E5F7F4F99
:104C10008F4F9F4FAF4FB1E03ED0B4E03CD0670F15
:104C2000781F891F9A1FA11D680F791F8A1F911D68
:104C3000A11D6A0F711D811D911DA11D20D009F4B8
:104C400068943F912AE0269F11243019305D3193FA
:104C5000DEF6CF010895462F4770405D4193B3E0E3
:104C60000FD0C9F7F6CF462F4F70405D4A3318F08A
:104C7000495D31FD4052419302D0A9F7EACFB4E03B
:104C8000A6959795879577956795BA95C9F70097F3
:104C90006105710508959B01AC010A2E0694579594
:104CA000479537952795BA95C9F7620F731F841FEB
:104CB000951FA01D0895F999FECF92BD81BDF89A68
:104CC000992780B50895262FF999FECF1FBA92BD76
:104CD00081BD20BD0FB6F894FA9AF99A0FBE0196DD
:104CE0000895052E97FB1EF400940E94882657FD18
:104CF00007D00E94DA2607FC03D04EF40C948826D5
:104D000050954095309521953F4F4F4F5F4F0895F7
:104D100090958095709561957F4F8F4F9F4F089527
:104D20000E94FC26A59F900DB49F900DA49F800D1E
:104D3000911D11240895B7FF0C9490260E9490268F
:104D4000821B930B08952F923F924F925F926F9226
:104D50007F928F929F92AF92BF92CF92DF92EF920B
:104D6000FF920F931F93CF93DF93CDB7DEB7CA1B8C
:104D7000DB0B0FB6F894DEBF0FBECDBF09942A88B7
:104D8000398848885F846E847D848C849B84AA845F
:104D9000B984C884DF80EE80FD800C811B81AA81EC
:104DA000B981CE0FD11D0FB6F894DEBF0FBECDBFB7
:104DB000ED010895A1E21A2EAA1BBB1BFD010DC037
:104DC000AA1FBB1FEE1FFF1FA217B307E407F507BB
:104DD00020F0A21BB30BE40BF50B661F771F881F97
:104DE000991F1A9469F760957095809590959B012D
:104DF000AC01BD01CF010895A29FB001B39FC001D6
:104E0000A39F700D811D1124911DB29F700D811DF6
:104E10001124911D08950E9412276894B1110C94D9
:104E2000A12708950E94862788F09F5798F0B92FF0
:104E30009927B751B0F0E1F0660F771F881F991FCF
:104E40001AF0BA95C9F714C0B13091F00E94A027AA
:104E5000B1E008950C94A027672F782F8827B85FBA
:104E600039F0B93FCCF3869577956795B395D9F727
:104E70003EF490958095709561957F4F8F4F9F4F31
:104E80000895E89409C097FB3EF49095809570953D
:104E900061957F4F8F4F9F4F9923A9F0F92F96E986
:104EA000BB279395F695879577956795B795F111FB
:104EB000F8CFFAF4BB0F11F460FF1BC06F5F7F4F98
:104EC0008F4F9F4F16C0882311F096E911C07723AA
:104ED00021F09EE8872F762F05C0662371F096E8B3
:104EE000862F70E060E02AF09A95660F771F881F82
:104EF000DAF7880F9695879597F9089557FD90589A
:104F0000440F551F59F05F3F71F04795880F97FB8D
:104F1000991F61F09F3F79F0879508951216130647
:104F20001406551FF2CF4695F1DF08C01616170676
:104F30001806991FF1CF86957105610508940895AB
:104F4000E894BB2766277727CB0197F908950E943D
:104F5000BA270C942B280E941D2838F00E94242880
:104F600020F0952311F00C9414280C941A28112485
:104F70000C94A1270E947E2770F3959FC1F3950F93
:104F800050E0551F629FF001729FBB27F00DB11DCD
:104F9000639FAA27F00DB11DAA1F649F6627B00D5D
:104FA000A11D661F829F2227B00DA11D621F739F46
:104FB000B00DA11D621F839FA00D611D221F749F54
:104FC0003327A00D611D231F849F600D211D822F9B
:104FD000762F6A2F11249F5750409AF0F1F08823C2
:104FE0004AF0EE0FFF1FBB1F661F771F881F9150EF
:104FF0005040A9F79E3F510580F00C9414280C9462
:10500000A1275F3FE4F3983ED4F3869577956795A3
:10501000B795F795E7959F5FC1F7FE2B880F911D18
:105020009695879597F9089597F99F6780E870E0BE
:1050300060E008959FEF80EC089500240A9416160E
:10504000170618060906089500240A941216130676
:10505000140605060895092E0394000C11F4882304
:1050600052F0BB0F40F4BF2B11F460FF04C06F5F20
:105070007F4F8F4F9F4F0895991B79E004C0991F70
:10508000961708F0961B881F7A95C9F780950895A2
:10509000AA1BBB1B51E107C0AA1FBB1FA617B7075E
:1050A00010F0A61BB70B881F991F5A95A9F780957A
:1050B0009095BC01CD010895EE0FFF1F0590F4916E
:1050C000E02D099481E090E0F8940C94A528FB0170
:1050D000DC0102C001900D9241505040D8F7089574
:1050E0006817790768F4FB01DC01E40FF51FA40FD2
:1050F000B51F02C002900E9241505040D8F708955B
:105100000C946728AEE0B0E0E8E8F8E20C94B12631
:105110000D891E8986E08C831A8309838FEF9FE7B0
:105120009E838D83AE01475E5F4F6F89788DCE0180
:1051300001960E948D222F813885F801E20FF31F1E
:0E51400010822E96E4E00C94CD26F894FFCF5A
:10514E000101010001000000D3048000C33C33CEF6
:10515E003EE3EC0000000017098408AF085E09E08A
:10516E0008BE08D20800000000DE09CA09F009BC1A
:10517E0009C309C009BD09000000002902E0030FA0
:10518E00020000000031022F0200000000F901E3CE
:10519E000125303258000D0A00446576696365209A
:1051AE0066616D696C79206973206E6F742072650B
:0E51BE00636F676E697A65643A20307800008E
:107800000C94343C0C94513C0C94513C0C94513CE1
:107810000C94513C0C94513C0C94513C0C94513CB4
:107820000C94513C0C94513C0C94513C0C94513CA4
:107830000C94513C0C94513C0C94513C0C94513C94
:107840000C94513C0C94513C0C94513C0C94513C84
:107850000C94513C0C94513C0C94513C0C94513C74
:107860000C94513C0C94513C11241FBECFEFD8E036
:10787000DEBFCDBF11E0A0E0B1E0EAE8FFE702C063
:1078800005900D92A230B107D9F712E0A2E0B1E065
:1078900001C01D92AD30B107E1F70E942D3D0C945F
:1078A000C33F0C94003C982F95959595959595958B
:1078B000905D8F708A307CF0282F295A8091C0000B
:1078C00085FFFCCF9093C6008091C00085FFFCCF60
:1078D0002093C6000895282F205DF0CF982F809127
:1078E000C00085FFFCCF9093C6000895EF92FF92F1
:1078F0000F931F93EE24FF2487018091C00087FD22
:1079000017C00894E11CF11C011D111D81E2E8164D
:1079100081EAF80687E0080780E0180770F3E09135
:107920000401F091050109958091C00087FFE9CF1E
:107930008091C6001F910F91FF90EF9008950E94D3
:10794000763C982F8091C00085FFFCCF9093C600B5
:1079500091362CF490330CF09053892F089597555D
:10796000892F08951F930E949F3C182F0E949F3CCF
:107970001295107F810F1F9108951F93182F882350
:1079800021F00E94763C1150E1F71F9108951F935A
:10799000182F0E94763C803249F0809103018F5F5E
:1079A000809303018530C1F01F9108958091C0003C
:1079B00085FFFCCF84E18093C6008091C00085FFE5
:1079C000FCCF1093C6008091C00085FFFCCF80E102
:1079D0008093C6001F910895E0910401F091050184
:1079E00009951F9108950E94763C803241F0809164
:1079F00003018F5F80930301853081F008958091AA
:107A0000C00085FFFCCF84E18093C6008091C00058
:107A100085FFFCCF80E18093C6000895E0910401CA
:107A2000F09105010995089548EC50E08823A1F0F4
:107A30002D9A28EE33E0FA013197F1F721503040CA
:107A4000D1F72D9828EE33E0FA013197F1F7215064
:107A50003040D1F7815061F708953F924F925F9285
:107A60006F927F928F929F92AF92BF92CF92DF924E
:107A7000EF92FF920F931F93CF93DF93000082E06A
:107A80008093C00080E18093C4001092C50088E11B
:107A90008093C10086E08093C2005098589A259A3E
:107AA00081E00E94143D24E1F22E9EE1E92E85E959
:107AB000D82E0FE0C02E10E1B12EAA24A394B1E479
:107AC0009B2EA6E58A2EF2E57F2EE0E26E2E79E46B
:107AD000572E63E5462E50E5352E0E94763C8033C6
:107AE000B1F18133B9F1803409F46FC0813409F404
:107AF00076C0823409F485C0853409F488C08035A5
:107B000031F1823521F1813511F1853509F485C0D6
:107B1000863509F48DC0843609F496C0843709F49B
:107B200003C1853709F472C1863709F466C08091B4
:107B300003018F5F80930301853079F6E0910401A2
:107B4000F091050109950E94763C803351F60E9420
:107B5000F33CC3CF0E94763C803249F78091C0004D
:107B600085FFFCCFF092C6008091C00085FFFCCF5E
:107B70009092C6008091C00085FFFCCF8092C60025
:107B80008091C00085FFFCCF7092C6008091C0003C
:107B900085FFFCCF6092C6008091C00085FFFCCFBE
:107BA0005092C6008091C00085FFFCCF4092C60075
:107BB0008091C00085FFFCCF3092C6008091C0004C
:107BC00085FFFCCFB092C60088CF0E94763C8638F5
:107BD00008F4BDCF0E94763C0E94F33C7ECF0E9409
:107BE000763C803809F49CC0813809F40BC1823896
:107BF00009F430C1883909F48FC080E00E94C73C85
:107C00006CCF84E10E94BD3C0E94F33C66CF85E0CE
:107C10000E94BD3C0E94F33C60CF0E94763C809362
:107C200006010E94763C809307010E94F33C55CFE9
:107C30000E94763C803309F411C183E00E94BD3C70
:107C400080E00E94C73C49CF0E94763C80930902A5
:107C50000E94763C8093080280910C028E7F809374
:107C60000C020E94763C853409F409C18091080217
:107C700090910902892B89F000E010E00E94763C87
:107C8000F801E85FFE4F80830F5F1F4F809108026D
:107C9000909109020817190788F30E94763C8032F8
:107CA00009F045CF80910C0280FFF5C0609106017C
:107CB00070910701660F771F7093070160930601AB
:107CC000A0910802B09109021097C9F0E8E0F1E034
:107CD0009B01AD014E0F5F1FF999FECF32BD21BD53
:107CE000819180BDFA9AF99A2F5F3F4FE417F5070B
:107CF00099F76A0F7B1F70930701609306018091CB
:107D0000C00085FFFCCFF092C6008091C00085FFC7
:107D1000FCCFB092C600E1CE83E00E94C73CDDCE2E
:107D200082E00E94C73CD9CE0E94763C8093090233
:107D30000E94763C80930802809106019091070191
:107D4000880F991F90930701809306010E94763C4B
:107D5000853409F49AC080910C028E7F80930C02C6
:107D60000E94763C803209F0B8CE8091C00085FF39
:107D7000FCCFF092C600A0910802B09109021097C2
:107D8000C1F180910C02082F0170182F1695117007
:107D9000E0910601F0910701AF014F5F5F4FBA011B
:107DA00020E030E00023B1F4112339F49491809164
:107DB000C00085FFFCCF9093C6002F5F3F4FCB01E3
:107DC0000196FA012A173B0780F4BC014F5F5F4F11
:107DD000002351F3F999FECFF2BDE1BDF89A90B5B9
:107DE0008091C00085FFFCCFE6CF709307016093C0
:107DF00006018091C00085FDE5CE8091C00085FF21
:107E0000F8CFE0CE81E00E94C73C67CE0E94763C6E
:107E1000803209F08CCE8091C00085FFFCCFF092BB
:107E2000C6008091C00085FFFCCFE092C600809123
:107E3000C00085FFFCCFD092C6008091C00085FFB6
:107E4000FCCFC092C6008091C00085FFFCCFB092ED
:107E5000C60043CE80E10E94C73C3FCE0E94763CE4
:107E60000E94763C182F0E94763C112309F483C0AF
:107E7000113009F484C08FE00E94C73C2ECE80915F
:107E80000C02816080930C02F1CE80910C02816023
:107E900080930C0265CF809107018823880F880B9F
:107EA0008A2180930B028091060190910701880F2F
:107EB000991F90930701809306018091080280FF2B
:107EC00009C08091080290910902019690930902DD
:107ED00080930802F894F999FECF1127E0910601EA
:107EE000F0910701C8E0D1E0809108029091090269
:107EF000103091F40091570001700130D9F303E084
:107F000000935700E8950091570001700130D9F3B4
:107F100001E100935700E8950990199000915700EE
:107F200001700130D9F301E000935700E8951395F3
:107F3000103498F011270091570001700130D9F3E7
:107F400005E000935700E89500915700017001305B
:107F5000D9F301E100935700E8953296029709F0B2
:107F6000C7CF103011F00296E5CF11248091C000E8
:107F700085FFC5CEC8CE8EE10E94C73CAECD85E957
:0A7F80000E94C73CAACDF894FFCF81
:027F8A00800075
:040000030000780081
:00000001FF
