:100000000C94A2010C94CA010C94CA010C94CA016C
:100010000C94CA010C94CA010C940B080C94CA01EC
:100020000C94CA010C94CA010C94CA010C94CA0124
:100030000C94CA010C94CA010C94CA010C94CA0114
:100040000C942D0B0C94CA010C94FF090C94D90943
:100050000C94CA010C94CA010C94CA010C94CA01F4
:100060000C94770B0C94CA014861726477617265D5
:10007000206661696C75726520646574656374657A
:100080006420005265636F6E6E6578696F6E2061E3
:1000900075206D657368004E6F7576656175206EAD
:1000A0006F6465206964207265637520646520440F
:1000B0004843503A20005265717565746520444884
:1000C0004350207472616E736D6973650050415FB7
:1000D0004D41580050415F484947480050415F4CEE
:1000E0004F570050415F4D494E00313620626974D0
:1000F00073003820626974730044697361626C65CF
:1001000064006E524632344C30312B006E5246320F
:10011000344C3031003235304B42505300324D4276
:10012000505300314D42505300555549442073659A
:100130006E7365757220004E6F6465494420736567
:100140006E7365757220005354415455530909204C
:100150003D203078253032782052585F44523D257A
:10016000782054585F44533D2578204D41585F52C4
:10017000543D25782052585F505F4E4F3D257820E2
:1001800054585F46554C4C3D25780D0A005041208F
:10019000506F77657209203D2025530D0A00E3005A
:1001A000DC00D400CD00435243204C656E67746878
:1001B00009203D2025530D0A00F900F200EA004D08
:1001C0006F64656C0909203D2025530D0A000C0160
:1001D000020144617461205261746509203D20254B
:1001E000530D0A0023011D01150144594E50442F9F
:1001F0004645415455524500434F4E464947090034
:1002000052465F53455455500052465F43480900DB
:10021000454E5F52584144445200454E5F414109AA
:100220000052585F50575F50302D360054585F4190
:10023000444452090052585F414444525F50322DA9
:10024000350052585F414444525F50302D310050C8
:1002500072657400436F6E6E6578696F6E206D65B0
:10026000736820636F6D706C65746500436F6E6EAC
:100270006578696F6E206D657368206176656320AF
:100280006E6F646549642000444854204572726F63
:10029000723A00005EBCE2613FDD83C29C7E20A317
:1002A000FD1F41009D23BE46DB65F88C11AF32CAAD
:1002B00057E97400000000250028002B0000000012
:1002C0000800020100000304070000000000000015
:1002D000000001020304051112131415160A0B0C79
:1002E0000D0E0F0000000023002600290004040466
:1002F00004040404040202020202020303030303CF
:1003000003010204081020408001020408102001AB
:1003100002040810200D0A002530327800203078C1
:1003200000255309203D000D0A0020307825303289
:100330007800255309203D0000000000240027001C
:100340002A00682011241FBECFEFD8E0DEBFCDBF4A
:1003500011E0A0E0B1E0EEE0F0E502C005900D9202
:10036000A438B107D9F724E0A4E8B1E001C01D9298
:10037000A73DB207E1F711E0C2EAD1E004C021973E
:10038000FE010E94BC27C13AD107C9F70E94EC1AAE
:100390000C9405280C940000FC0121893289232B40
:1003A00071F420E030E040E251E4628173818481A5
:1003B00095810E9407270E946B26CB0108958FEF3D
:1003C00090E00895FC0121893289232B71F420E00B
:1003D00030E040E251E466817781808591850E941A
:1003E00007270E946B26CB01089580E090E80895CE
:1003F000FC014581568167817085DB01CA01895402
:100400009D40A109B10983369105A105B10540F0D0
:1004100081E04E3B5A406105710518F080E0089577
:1004200081E00895FC0145815681678170854934DA
:10043000FDE05F076105710528F1433D8FE0580736
:100440006105710508F046C04B30EFE05E076105BD
:100450007105E0F54334FEE05F0761057105C0F109
:100460009A01AB012055310941095109A0E7BEEFBE
:100470000E94FE252DE330EF4FEF5FEF0E94D12564
:1004800080E522C0DB01CA0180589C40A109B10966
:10049000893C9105A105B105E8F0433A8AE0580787
:1004A00061057105C8F09A01AB0124563109410973
:1004B0005109A7E8BEEF0E94FE2524EE33EF4FEF6F
:1004C0005FEF0E94D12584E6820F089580E50895AC
:1004D0008FE0089584E6089580E00895FC01658129
:1004E0007681878190850895419608954D96089567
:1004F0008F929F92AF92BF92EF92FF920F931F93B2
:10050000CF93DF93CDB7DEB72A970FB6F894DEBF4F
:100510000FBECDBFFC017A876987262F372F2F3F6B
:100520008FEF380711F482811CC02115310509F4C1
:1005300064C0808191810097B1F4558140E001C091
:100540004F5F451709F456C0A381B481A80FB91FA6
:10055000039611966D917C9112976217730781F73C
:100560008C9190E04CC08432994009F443C07F01E3
:100570001C821B8280910401909105019C012F5FD8
:100580003F4F30930501209304019E838D8386ECB9
:100590008F8308E310E022E030E0AE01475F5F4F59
:1005A000BE016F5F7F4F808591850E94FA17882377
:1005B00009F10E94210B4B015C01F70180859185B7
:1005C0000E94EF15863C71F00E94210BDC01CB01EB
:1005D00088199909AA09BB098E379105A105B105AA
:1005E00060F308C0D7011896ED91FC9119978785A3
:1005F000908905C08FEF9FEF02C080E090E02A96BF
:100600000FB6F894DEBF0FBECDBFDF91CF911F9123
:100610000F91FF90EF90BF90AF909F908F900895B3
:100620004F925F926F927F92AF92BF92DF92EF9262
:10063000FF920F931F93CF93DF93CDB7DEB7299728
:100640000FB6F894DEBF0FBECDBF7C01DC0118965B
:100650008D919C9119970E94EF15D82EF7018081FA
:1006600091818432994009F4CFC023ECD21204C0A6
:1006700081E0D7011A968C93F70182818111C4C061
:100680008D2D8D7F843C09F09EC00084F185E02D86
:100690005F0127E0A20EB11C878190859287818738
:1006A000978584ECD81278C09987D70112968C91DF
:1006B0001297811118C015964C9120E030E08417F4
:1006C00009F44BC0D7011396ED91FC911497E20FFA
:1006D000F31F2D5F3F4F5081591303C081819281D9
:1006E0004DC08F5FECCF992309F446C01C821B825A
:1006F00080910401909105019C012F5F3F4F309341
:100700000501209304019E838D83DF8208E310E0BE
:1007100022E030E0AE01475F5F4FBE016F5F7F4F69
:10072000CF010E94FA178823C1F00E94210B2B01F0
:100730003C01F701808591850E94EF15843C81F092
:100740000E94210BDC01CB0184199509A609B70988
:1007500087399105A105B10560F38FEF9FEF0EC0BA
:10076000D7011896ED91FC9119978785908997FF8D
:1007700005C08EEF9FEF02C080E090E09A838983EE
:1007800008E310E022E030E0AE014F5F5F4FB501BB
:10079000F7018085918514C0692F70E0C7010E9420
:1007A00078029A83898308E310E022E030E0AE010A
:1007B0004F5F5F4FB501D70118968D919C911997A6
:1007C0000E94FA1721C0B5ECDB121EC0F701A0850C
:1007D000B18580E0F70195818917B0F4F701238195
:1007E0003481F90193E0899FE00DF11D11244181CD
:1007F000528117962D913C9118974217530711F487
:10080000128211828F5FE6CF8D2D29960FB6F89454
:10081000DEBF0FBECDBFDF91CF911F910F91FF9033
:10082000EF90DF90BF90AF907F906F905F904F9070
:100830000895CF93C82F682F8CEF91E00E94BA08DB
:100840008C2FCC0F990BCF9108958EBD00000DB465
:1008500007FEFDCF8EB508952F923F924F925F9283
:100860006F927F928F929F92AF92BF92CF92DF92C0
:10087000EF92FF920F931F93CF93DF93CDB7DEB725
:1008800068970FB6F894DEBF0FBECDBF7C012A017A
:100890003B0167E1DC0116968D919C9117970E94B0
:1008A000C71380FD03C080E090E072C1F70186812C
:1008B00097810E945614D7011896ED91FC911997D3
:1008C00082A5826082A76AE070E080E090E00E94EA
:1008D000E70A64E279E0F701808591850E94A90E1C
:1008E00084E299E0D7018D939C930E94210B4B01E8
:1008F0005C01212C312CE0E4F0E0FC87EB87809157
:100900000401909105019C012F5F3F4F3093050139
:10091000209304019E878D87F2ECFF87D7011896FC
:100920008D919C911997FC0122A933A93A872987B7
:10093000332089F0232D30E021503109A901440FE3
:10094000551F240F351F01E010E002C0000F111FDA
:100950002A95E2F702C000E010E020E030E040E03D
:1009600050E0BE01675F7F4F0E94FA170E94210B83
:10097000698B7A8B8B8B9C8BD12CD70118968D91A0
:100980009C9119970E94EF15823C99F4FE013196D3
:10099000ED0DF11DED0DF11DD70118968D919C9176
:1009A0001997DC0117968D919C91189791838083FC
:1009B000D3940E94210BDC01CB0129893A894B8910
:1009C0005C89821B930BA40BB50BC897A105B105DD
:1009D00020F433E03D1588F633C0D11031C00E94B9
:1009E000210BDC01CB0188199909AA09BB0948161A
:1009F00059066A067B0608F456CF222D30E02F5F99
:100A00003F4F832D90E00196289FB001299F700DE4
:100A1000389F700D1124675E7F4F660F771F072E7A
:100A2000000C880B990B0E94E70A81E0830D83700C
:100A3000382E81E0820D6AE00E949C27292E5BCF30
:100A4000C12C198ACD1408F046C043EC4F87D7015A
:100A500012968C911297888BFE013196EC0DF11D48
:100A6000EC0DF11D008111811C870B8720E030E027
:100A700040E050E0BE01675F7F4F18968D919C91DA
:100A800019970E94FA170E94210B6D8B7E8B8F8B1A
:100A9000988F0E94210BDC01CB012D893E894F8963
:100AA000588D821B930BA40BB50B813E9105A105BC
:100AB000B10548F4F701808591850E94EF15898B77
:100AC000803839F7CD2C65E070E080E090E00E943E
:100AD000E70AC394B7CF3989303809F080CFD701FE
:100AE0001896ED91FC91199787859089009709F4E4
:100AF00076CF368512962C91321371CFF701918300
:100B00008083868197810E9456146AE070E080E0BD
:100B100090E00E94E70AD7016D917C911197189699
:100B20008D919C9119970E94A90EF70160817181A6
:100B3000C7010E947802D70112962C9130E08217EB
:100B40009307E1F0F70160817181C7010E9478028B
:100B5000D70112962C91129730E08217930771F00B
:100B600064E279E018968D919C9119970E94A90EE4
:100B700084E299E0F7019183808331CFD701189601
:100B8000ED91FC91199782A58D7F82A78D919C9103
:100B900068960FB6F894DEBF0FBECDBFDF91CF9140
:100BA0001F910F91FF90EF90DF90CF90BF90AF908B
:100BB0009F908F907F906F905F904F903F902F907D
:100BC0000895CF92DF92EF92FF920F931F93CF93EE
:100BD000DF93CDB7DEB728970FB6F894DEBF0FBE10
:100BE000CDBF7C0184E0D82E92E8C92EDA94DD20B6
:100BF000F1F1F7018081918184329940C1F1C701FF
:100C00000E94100367E1F701868197810E94C71354
:100C100081FD07C0F70180859185FC0122A520FF99
:100C200002C081E02AC01C821B8220910401309105
:100C30000501A9014F5F5F4F5093050140930401E7
:100C40003E832D83CF8208E310E020E030E040E0D7
:100C500050E0BE016F5F7F4F0E94FA1781110DC0F7
:100C600067E670E080E090E00E94E70ABFCFF701FE
:100C7000868197810E94561480E028960FB6F894DA
:100C8000DEBF0FBECDBFDF91CF911F910F91FF90BF
:100C9000EF90DF90CF9008952F923F924F925F9206
:100CA0006F927F928F929F92AF92BF92CF92DF927C
:100CB000EF92FF920F931F93CF93DF93CDB7DEB7E1
:100CC000C254D1090FB6F894DEBF0FBECDBF8091DC
:100CD00000018823D1F187E08093B60281E090E0A3
:100CE0009093B8028093B702E091B202F091B30200
:100CF00080E1A9EBB2E001900D928A95E1F71FE047
:100D000028E130E044E466EB72E08091B402909117
:100D1000B5020E942F10811114C08091B4029091ED
:100D2000B5020E94E10581110AC040ED57E060E084
:100D300070E08091B4029091B5020E942C04115091
:100D4000F9F686EB90E00E94FA190E94210B1B0134
:100D50002C0189E992E00E941202843619F480E4A1
:100D60009CE902C088EE93E022961FAE2297E12C08
:100D700028ECF22E4C01A12CB12C3AE9C32ED12C37
:100D80000E94210BDC01CB0182199309A409B5094A
:100D900088159905AA05BB0508F011C184E0E8167D
:100DA00011F0E39417C02296EFAD2297EE2311F0D5
:100DB000F39401C0FA94F4E1FF1639F084EBF812D1
:100DC00008C022961FAE229704C0E1E02296EFAF42
:100DD0002297E12C0F2D10E061E086E00E947D0A51
:100DE0000115110511F460E004C00F3F110529F44D
:100DF00061E086E00E94310A43C0E3ECF2E08491B6
:100E00008330F9F048F48130B9F08230A1F584B52F
:100E1000806284BDF8BC34C08730E9F0883019F1B5
:100E2000843049F580918000806280938000109327
:100E30008B0000938A0024C084B5806884BDF7BC11
:100E40001FC080918000806880938000109389008B
:100E50000093880015C08091B00080688093B00036
:100E6000F092B3000DC08091B00080628093B0001A
:100E7000F092B40005C0003811050CF0B9CFB3CF23
:100E800086EE92E00E9410036090CD037090CE0336
:100E9000F3E36F16F3E07F0609F008F46EC02091CB
:100EA000390300913B0310913C03243609F045C0FF
:100EB000A8010134110510F040E450E06DE373E047
:100EC000CE0101960E94C72786EF9FEF801B910BF2
:100ED000680E791E7092CE036092CD03A601401B6E
:100EE000510BB801635C7C4F83E393E00E94D027F1
:100EF0001C81123008F444CF109301011093E802D2
:100F000089E090E00E94BB25181729F0612F89E045
:100F100090E00E94C32548EE53E060E070E086EE6A
:100F200092E00E942C041092000187E990E00E9458
:100F3000E3186AE070E0812F1DC086EF9FEF801BF1
:100F4000910B680E791E7092CE036092CD03A601BC
:100F5000401B510BB801635C7C4F83E393E0239605
:100F60002FAF23970E94D0276AE070E023962FAD21
:100F70002397822F0E940E1103CF86EE92E00E94EB
:100F8000E1058111FDCE4CED55E060E070E086EEAC
:100F900092E00E942C04892B09F0F2CE83E890E0C5
:100FA0000E94FA190E94041980E794E00E9422141A
:100FB0004FE361E080E794E00E946C13E1CE809102
:100FC0007F04882359F088E690E00E94E31880911E
:100FD0007F0490E00E94B11210927F0461E086E0ED
:100FE000CE5BDF4F0FB6F894DEBF0FBECDBFDF91F3
:100FF000CF911F910F91FF90EF90DF90CF90BF9016
:10100000AF909F908F907F906F905F904F903F90A8
:101010002F900C94310A1F920F920FB60F92112449
:101020008F939F938091020190910301892B31F45A
:1010300081E090E090930301809302019F918F9152
:101040000F900FBE0F901F901895CF92DF92EF92E6
:10105000FF920F931F93CF93DF936C017A018B0163
:10106000C0E0D0E0CE15DF0589F0D8016D918D018B
:10107000D601ED91FC910190F081E02DC60109951A
:10108000892B11F47E0102C02196ECCFC701DF91BC
:10109000CF911F910F91FF90EF90DF90CF90089527
:1010A0000E94C2278CEF91E00E948D0821E0892BDD
:1010B00009F420E0822F0895FC01538D448D252FE3
:1010C00030E0842F90E0821B930B541710F0CF96E2
:1010D000089501970895FC01918D828D981761F014
:1010E000828DDF01A80FB11D5D968C91928D9F5F5F
:1010F0009F73928F90E008958FEF9FEF0895FC010A
:10110000918D828D981731F0828DE80FF11D858DBC
:1011100090E008958FEF9FEF0895FC01918D228D4F
:10112000892F90E0805C9F4F821B91098F739927D4
:101130000895FC01848DDF01A80FB11DA35ABF4F94
:101140002C91848D90E001968F739927848FA689C6
:10115000B7892C93A089B1898C9180648C93938DED
:10116000848D981306C00288F389E02D80818F7DDD
:1011700080830895EF92FF920F931F93CF93DF9395
:10118000EC0181E0888F9B8D8C8D981305C0E889D8
:10119000F989808185FD24C0F62E0B8D10E00F5F4C
:1011A0001F4F0F731127E02E8C8DE8120CC00FB665
:1011B00007FCFACFE889F989808185FFF5CFCE0158
:1011C0000E949908F1CF8B8DFE01E80FF11DE35AC3
:1011D000FF4FF0820B8FEA89FB898081806207C014
:1011E000EE89FF896083E889F98980818064808342
:1011F00081E090E0DF91CF911F910F91FF90EF90F0
:101200000895CF93DF93EC01888D8823C9F0EA8994
:10121000FB89808185FD05C0A889B9898C9186FDEF
:101220000FC00FB607FCF5CF808185FFF2CFA889EC
:10123000B9898C9185FFEDCFCE010E949908E7CF47
:10124000DF91CF91089580E090E0892B29F00E94F2
:10125000520881110C940000089585ED8093BC0024
:101260008091BC0084FDFCCF1092CD010895409187
:10127000A701262F30E0240F311D21323105DCF487
:101280002091CD012430C9F4FC0180E090E0861764
:1012900058F43091A7012191DC01AB57BE4FA30F49
:1012A000B11D2C930196F3CF8091A701680F609335
:1012B000A70180E0089581E0089582E008950895EF
:1012C0008FEF9FEF08958FEF9FEF08958091840136
:1012D00090E09195819591090895CF93DF9300D087
:1012E000CDB7DEB7CB01642F49835A830E943709FB
:1012F0004981842F5A81952F0F900F90DF91CF91C4
:101300000895CF93DF931F92CDB7DEB7698361E075
:10131000CE0101960E94370981E090E00F90DF91A5
:10132000CF910895089580E090E00895CF93DF93E2
:10133000DC01FB01EC01C359DE4F68817981229603
:101340009881828140815181823028F0BA0181E008
:10135000838390E027C0ED01C059DE4F2881398199
:10136000EA01C223D323D2960D90BC91A02DCA17B7
:10137000DB07C1F4C9018095909563E0880F991F40
:101380006A95E1F784239523892B51F083E0220F9E
:10139000331F8A95E1F72760BA016223732301C0E6
:1013A000BA0195E071836083928381E0DF91CF91F0
:1013B00008951F920F920FB60F9211242F933F930F
:1013C0004F935F936F937F938F939F93AF93BF934D
:1013D000EF93FF938CEF91E00E949908FF91EF91BA
:1013E000BF91AF919F918F917F916F915F914F913D
:1013F0003F912F910F900FBE0F901F9018951F9245
:101400000F920FB60F9211242F938F939F93EF9308
:10141000FF93E0910C02F0910D028081E0911202A5
:10142000F091130282FD12C09081809115028F5FAE
:101430008F7320911602821751F0E0911502F0E0AF
:10144000E450FE4F958F8093150201C08081FF917B
:10145000EF919F918F912F910F900FBE0F901F9042
:10146000189590E0FC01E354FD4F3491FC01EF5FCF
:10147000FC4F2491FC01E351FD4FE491EE2309F46C
:101480003BC0332339F1333091F038F43130A9F0D7
:10149000323001F584B58F7D12C0373091F038308D
:1014A000A1F03430B9F4809180008F7D03C0809129
:1014B00080008F77809380000DC084B58F7784BDC6
:1014C00009C08091B0008F7703C08091B0008F7DFC
:1014D0008093B000F0E0EE0FFF1FED54FD4FA5919B
:1014E000B4918FB7F894EC91611103C020952E232D
:1014F00001C02E2B2C938FBF0895CF93DF9390E0E4
:10150000FC01EF5FFC4F2491FC01E351FD4F8491FE
:10151000882361F190E0880F991FFC01E85CFC4F83
:10152000C591D491FC01ED54FD4FA591B491611189
:1015300009C09FB7F8948881209582238883EC9115
:101540002E230BC0623061F49FB7F8943881822F4C
:10155000809583238883EC912E2B2C939FBF06C00C
:101560008FB7F894E8812E2B28838FBFDF91CF911E
:1015700008958330910528F0880F991F04970197EB
:10158000F1F708953FB7F8948091F8019091F9012F
:10159000A091FA01B091FB0126B5A89B05C02F3F91
:1015A00019F00196A11DB11D3FBFBA2FA92F982F89
:1015B0008827820F911DA11DB11DBC01CD0143E003
:1015C000660F771F881F991F4A95D1F708958F924C
:1015D0009F92AF92BF92CF92DF92EF92FF926B01F8
:1015E0007C010E94C20A4B015C01C114D104E104D8
:1015F000F104F1F00E94C20ADC01CB0188199909BB
:10160000AA09BB09883E9340A105B10570F321E00A
:10161000C21AD108E108F10888EE880E83E0981E0E
:10162000A11CB11CC114D104E104F10419F7DDCFF0
:10163000FF90EF90DF90CF90BF90AF909F908F90F2
:1016400008952FB7F8946091F4017091F50180919D
:10165000F6019091F7012FBF08951F920F920FB6D8
:101660000F9211242F933F938F939F93AF93BF9328
:101670008091F4019091F501A091F601B091F701EC
:101680003091F30126E0230F2D3720F40296A11D9F
:10169000B11D05C029E8230F0396A11DB11D20939C
:1016A000F3018093F4019093F501A093F601B093B8
:1016B000F7018091F8019091F901A091FA01B091A0
:1016C000FB010196A11DB11D8093F8019093F901D2
:1016D000A093FA01B093FB01BF91AF919F918F91BD
:1016E0003F912F910F900FBE0F901F9018951F9252
:1016F0000F920FB60F9211242F933F934F935F9346
:101700006F937F938F939F93AF93BF93EF93FF93C9
:101710008091B900887F803609F49CC068F58832D2
:1017200009F45BC090F4803109F454C038F4882384
:1017300009F4F6C0883009F44DC0F6C0883109F4C8
:101740004CC0803209F45DC0EFC0803409F468C039
:1017500048F4803309F455C0883309F0E5C080931C
:10176000CC01D8C0803509F44FC0883509F45DC07C
:10177000883409F0D9C0D6C0883909F4C7C0A8F4A4
:10178000883709F467C038F4883609F463C08037B5
:1017900009F460C0C9C0883809F4B8C0803909F4B8
:1017A0005FC0803809F0C0C05BC0803B09F486C0D0
:1017B00038F4803A09F466C0883A09F47FC0B4C0AE
:1017C000803C09F4A7C0883C09F4A4C0883B09F414
:1017D0008AC0AAC08091F20110C09091F10180915D
:1017E000F001981770F5E091F10181E08E0F809380
:1017F000F101F0E0E053FE4F80818093BB0085EC67
:1018000086C08093CC018EC0E091F10181E08E0F03
:101810008093F1018091BB00F0E0E053FE4F8083A4
:101820009091F1018091F0016EC0E091F10181E0B1
:101830008E0F8093F1018091BB00F0E0E053FE4FEA
:1018400080838091CF0181116DC081E08093CE01B2
:1018500084EA61C083E08093CD011092CB01CFCFA9
:101860008091CB01803208F051C0E091CB0181E042
:101870008E0F8093CB018091BB00F0E0E555FE4FC9
:101880008083BDCF85EC8093BC001092CD01809108
:10189000CB01803230F4E091CB01F0E0E555FE4F12
:1018A00010826091CB0170E0E091A901F091AA0152
:1018B0008BEA91E009951092CB0136C084E08093C9
:1018C000CD011092A8011092A701E091A501F0911D
:1018D000A60109958091A701811105C081E080933F
:1018E000A70110928501E091A80181E08E0F8093FD
:1018F000A801F0E0EB57FE4F80818093BB009091F0
:10190000A8018091A701981708F479CF85E8809302
:10191000BC000AC085EC8093BC001092CD0104C0CD
:101920001092CC010E942D09FF91EF91BF91AF91D0
:101930009F918F917F916F915F914F913F912F91E7
:101940000F900FBE0F901F901895CF93DF93CDB7D8
:10195000DEB728970FB6F894DEBF0FBECDBFAC013F
:101960009CEC99839A839B839C839D831E821F8218
:1019700018869A01E1E021153105C9F0611103C013
:101980004115510569F4D901A770BB27A45FBE4F6B
:101990008C91A1E0B0E0AC0FBD1FAE0FB11D8C93D8
:1019A00083E0369527958A95E1F7EF5FE4CF6111E3
:1019B00002C0452B39F4E62FF0E0E45FFE4F808152
:1019C000898305C0F0E0E55FFE4F80818A8329812D
:1019D0003A814B815C816D817E818F8198852896CB
:1019E0000FB6F894DEBF0FBECDBFDF91CF91089543
:1019F0004F925F926F927F92AF92BF92CF92DF929F
:101A0000EF92FF920F931F93CF93DF93CDB7DEB783
:101A100028970FB6F894DEBF0FBECDBF8C01CB0167
:101A2000D22E642F0E94A50C29013A015B017C0192
:101A3000F80182A582FD04C087A590A90E945614D2
:101A4000F80187A590A9DD2011F060E001C061E0F8
:101A50000E94940EF801C7A4D0A849825A826B82D2
:101A60007C82AD82BE82EF82F886F6012685AE01C9
:101A70004F5F5F4F6AE0C6010E949013F601268512
:101A8000AE014F5F5F4F60E1C6010E949013F60107
:101A9000478161E1C6010E946C13F801B4A8C7A494
:101AA000D0A80E94210B2B013C016FEFC6010E94C0
:101AB0004D1380FF1EC06FEFC6010E944D1384FFBF
:101AC00006C040E167E0C6010E946C1310C00E948E
:101AD000210BDC01CB0184199509A609B7098036D1
:101AE0009105A105B10508F381E0F6018787F12C86
:101AF00030C0F601F780EF2CBF1408F4EB2CF60190
:101B00008085811102C0FE1801C0F12CC6010E941F
:101B10004A1380EA0E9425045801F7E0AF0EB11C79
:101B2000EA0CEA1431F0F50181915F010E9425046D
:101B3000F8CFFF2029F080E00E942504FA94F9CF25
:101B4000C6010E94471361E0C6010E942313FF24CF
:101B5000F394F80182A582FD0FC041815281638117
:101B6000748187A590A90E94C00FF82E60E0F8014B
:101B700087A590A90E94940E8F2D28960FB6F894F1
:101B8000DEBF0FBECDBFDF91CF911F910F91FF90B0
:101B9000EF90DF90CF90BF90AF907F906F905F906D
:101BA0004F900895CF92DF92EF92FF920F931F9381
:101BB000CF93DF9300D000D0CDB7DEB7FC01958581
:101BC0009B012115310561F0822F8770863030F43A
:101BD00083E0369527958A95E1F7F3CF80E097C0AB
:101BE0009154EE24E3949F3708F0E12CF42E6B011E
:101BF0008F0119821A821B821C827A8369834B832C
:101C0000BE016F5F7F4FCF010E94960969817A8183
:101C10002C814B81C8010E94F80CF1E0FF1227C013
:101C2000811102C0F12C6AC089819A818C159D05B1
:101C300001F5EE20F1F081ECF80185878781908530
:101C4000928781879A838983FB821C82BE016F5FA2
:101C50007F4FC8010E94960988E0F80184AB698132
:101C60007A812C814B81C8010E94F80C02C0882324
:101C7000C9F289819A818C159D0519F4FF24F3948A
:101C80003DC0FF2019F0F3E0FF12F8CFEE20B1F3D2
:101C9000F80182A582FF11C0418152816381748164
:101CA00087A590A90E94C00FF80182A58B7F82A70B
:101CB00060E087A590A90E94940EF80187A590A9DD
:101CC0000E94B4170E94210B6B017C01C8010E9485
:101CD000EF15813C99F20E94210BAB01BC014C191C
:101CE0005D096E097F09F80185819681A0E0B0E069
:101CF00084179507A607B70748F794CFF80182A580
:101D000082FD04C087A590A90E94B4178F2D0F9063
:101D10000F900F900F90DF91CF911F910F91FF9037
:101D2000EF90DF90CF9008951F93CF93DF93EC0156
:101D3000162F61E00E94C713482F112311F0416054
:101D400001C04E7F61E0CE01DF91CF911F910C94D5
:101D50006C137F928F929F92AF92BF92CF92DF923D
:101D6000EF92FF920F931F93CF93DF93CDB7DEB720
:101D700028970FB6F894DEBF0FBECDBFFC019B01C4
:101D80002115310559F0822F8770863008F0E4C0A4
:101D9000A3E036952795AA95E1F7F2CF62AB73AB36
:101DA00087A590A9DC012D913C912F3F310509F4C5
:101DB000D3C0DC0112962D913C9113972F3F310532
:101DC00009F4CAC0E72EF62E8F0160E00E94940E3F
:101DD000F80187A590A90E942214D801D2968D916E
:101DE0009C91D39766E070E00E94A827482F440F8B
:101DF0004B5FB0E14B9FA0011124456064E0F80106
:101E000087A590A90E946C1389E190E0A0E0B0E062
:101E1000F80181839283A383B4838BE490E096835B
:101E2000858382A993A940E02FEF3FEFB901682392
:101E30007923672B39F073E0220F331F7A95E1F78E
:101E40004F5FF4CFF80141AB20953095E059FE4F3C
:101E50003183208363E0369527956A95E1F73397C0
:101E6000A90148235923518340832115310559F095
:101E700043E0969587954A95E1F753E03695279587
:101E80005A95E1F7F2CFF801E159FE4F808386E0E1
:101E9000782E88248394912C7A94FFEF7F1609F48E
:101EA00054C0672D8F2D9E2D0E94A50CD8019F96A2
:101EB000CD90DC90D09729833A834B835C836D83EC
:101EC0007E838F839887A72CB12C71100BC0F601ED
:101ED000468550E0BE016F5F7F4FC60109960E94A4
:101EE000C72703C0F1E07F1208C0F501E352FD4FA0
:101EF0006491D6011E962C9105C0F501E352FD4F69
:101F0000649121E0AE014F5F5F4FC6010E949013C4
:101F1000F501E952FD4F6491F6014781C6010E9427
:101F20006C1362E0C6010E94C713F501EF52FD4F2A
:101F3000E491940101C0220FEA95EAF7482F422B61
:101F400062E0C6010E946C13A7CFD8019F968D91C5
:101F50009C91D0970E94B41728960FB6F894DEBFD4
:101F60000FBECDBFDF91CF911F910F91FF90EF90EA
:101F7000DF90CF90BF90AF909F908F907F9008950B
:101F80004F925F926F927F928F929F92AF92BF9289
:101F9000CF92DF92EF92FF92CF93DF93EC014A0151
:101FA0005B010E94210B6B017C01240135018FE54F
:101FB000480E511C611C711C67E1CE010E94C713C1
:101FC00084FD39C06FEFCE010E944D1384FF22C003
:101FD00040E167E0CE010E946C1360E0CE010E94F8
:101FE000231361E0CE010E9423130E94210BDC0128
:101FF000CB018C199D09AE09BF0988159905AA0561
:10200000BB0540F060E0CE010E942313CE010E9488
:1020100069130FC00E94210BDC01CB018C199D09B3
:10202000AE09BF09481659066A067B0628F681E004
:102030008F8780E005C060E0CE010E94231381E01D
:10204000DF91CF91FF90EF90DF90CF90BF90AF9056
:102050009F908F907F906F905F904F900895AF9278
:10206000BF92CF92DF92EF92FF920F931F93CF9385
:10207000DF93CDB7DEB728970FB6F894DEBF0FBE5B
:10208000CDBFDC01ED91FC91E432F94011F480E028
:102090002AC06901142F5B017C010E94210BF7010A
:1020A000808191818432994091F31C821B828091BE
:1020B0000401909105019C012F5F3F4F3093050172
:1020C000209304019E838D831F8308E310E0960113
:1020D000A501BE016F5F7F4FD70118968D919C912E
:1020E00019970E94FA1728960FB6F894DEBF0FBE14
:1020F000CDBFDF91CF911F910F91FF90EF90DF90B7
:10210000CF90BF90AF900895FF920F931F93CF93FE
:10211000DF93803319F422E3F22E02C090E7F92E08
:1021200014E1C82FD0E09E014F2D66EB72E0809144
:10213000B4029091B5020E942F10082F811114C093
:102140008091B4029091B5020E94E10581110AC00C
:1021500040ED57E060E070E08091B4029091B502EC
:102160000E942C041150F9F6802FDF91CF911F911E
:102170000F91FF900895009769F0FC0101900020F5
:10218000E9F73197AF01481B590BBC018CEF91E087
:102190000C94250880E090E008958F929F92AF9272
:1021A000BF920F931F93CF93DF93CDB7DEB7A19765
:1021B0000FB6F894DEBF0FBECDBF19A2423008F4AF
:1021C0004AE08E010F5D1F4F842E912CA12CB12C63
:1021D000A50194010E943A26E62FB901CA010150D7
:1021E0001109EA3014F4E05D01C0E95CD801EC9318
:1021F000232B242B252B61F7C8010E94BB10A1962D
:102200000FB6F894DEBF0FBECDBFDF91CF911F9107
:102210000F91BF90AF909F908F900895CF93DF93D1
:10222000AB01672B61F4E091FC01F091FD0101909D
:10223000F081E02D682F8CEF91E0099506C0682FA2
:1022400070E080E090E00E94CD10EC0186E591E026
:102250000E94BB108C0F9D1FDF91CF91089580913C
:102260008A04E0918B04F0918C04F8949181982B6E
:1022700091832281982F909529232283A2E0B0E0B8
:102280001197F1F7218192239183A0E1B0E011979A
:10229000F1F790817894E6E6F0E03197F1F7982332
:1022A00081E009F480E0089590918A04E0918B0424
:1022B000F0918C04392F309580FF13C0F89422815F
:1022C000832F822382838181892B8183A0E1B0E0E7
:1022D0001197F1F78281982B928378948AE690E0A7
:1022E00012C0F8942281832F822382838181892BDB
:1022F0008183AEE7B0E01197F1F78281982B92834A
:10230000789486E090E00197F1F708950F931F937A
:10231000CF93DF93082FC8E0D0E011E081E0912F48
:10232000902309F480E00E945411110F2197B1F716
:10233000F894E0918B04F0918C04918180918A044F
:10234000809589238183E0918B04F0918C049281A4
:1023500080918A048095892382837894DF91CF913C
:102360001F910F910895EF92FF920F931F93CF93B8
:10237000DF931F92CDB7DEB7182F85E599830E94B2
:102380008611E12E9981F92E8701085F1F4FF70111
:1023900081917F010E948611E016F106C1F70F902E
:1023A000DF91CF911F910F91FF90EF900895909141
:1023B0008A04E0918B04F0918C04F8948181292F98
:1023C00020958223818378948DE7815009F13081B3
:1023D0003923D9F3F8948281822382838181892BE6
:1023E00081837894ACEBB3E01197F1F7F894818195
:1023F00028232183A8E8B0E01197F1F78081982382
:1024000081E009F080E07894E0E3F3E03197F1F7C0
:1024100008958F929F92AF92BF92DF92EF92FF92B8
:102420000F931F93CF93DF93C82F162F282F30E0E1
:10243000F901EF5FFC4FD491F901E351FD4FE491B5
:10244000F0E0EE0FFF1FED51FD4FE590F49010927C
:10245000B7041092B8041092B9041092BA04109202
:10246000BB0461E00E947D0A60E08C2F0E94310A6B
:10247000612F70E080E090E00E94E70A61E08C2F1D
:102480000E94310A8CE490E00197F1F760E08C2F14
:102490000E947D0A28EC30E0F70180818D2331F421
:1024A00021503109C9F78EEF9FEF4FC028EC30E083
:1024B000F70180818D2321F021503109C9F7F3CF35
:1024C00008E210E8D12C28EC30E0F70180818D2360
:1024D00021F421503109C9F7E6CF0E94C20A4B010D
:1024E0005C0128EC30E0F70180818D2321F0215040
:1024F0003109C9F7D8CF0E94C20ADC01CB01881983
:102500009909AA09BB098997A105B10538F0ED2DF4
:10251000F0E0EB54FB4F8281812B8283212F30E04E
:10252000359527952115310511F0122F02C0D3944E
:1025300010E8015041F661E08C2F0E947D0A61E0B5
:102540008C2F0E94310A80E090E0DF91CF911F91A3
:102550000F91FF90EF90DF90BF90AF909F908F9082
:102560000895CF92DF92EF92FF92CF93DF936C01A9
:10257000990FEE08FF08F7FE1AC0E091FC01F091F8
:10258000FD010190F081E02D6DE28CEF91E0099565
:10259000EC0166277727CB016C197D098E099F090D
:1025A0004AE00E94CD107C01EC0EFD1E06C04AE000
:1025B000C701B6010E94CD107C0186E591E00E9422
:1025C000BB108E0D9F1DDF91CF91FF90EF90DF909C
:1025D000CF900895EF92FF920F931F93CF93DF93C5
:1025E000EC017B01BA018AA99BA9F7019183808341
:1025F000DE01179688E001900D928A95E1F721158A
:10260000310529F0A901CE010F960E94C727F701D5
:10261000628173810833110561F06034710511F432
:1026200044E001C043E06017710709F442E0B801DB
:1026300001C040E0CE01DF91CF911F910F91FF903B
:10264000EF900C94D20DFC01208131818281938125
:102650002817390719F0822F0C94310A0895CF9367
:10266000DF93EC019CB59F7D9CBD9CB5937F9CBD89
:102670009CB59C7F9CBD9DB591609DBD8A810E944B
:10268000310A8C899D89DF91CF910C94B90A61E060
:102690000C942F1360E00C942F13EF92FF921F9372
:1026A000CF93DF931F92CDB7DEB77C0169830E9481
:1026B0004A136981862F0E942504182FC7010E94A2
:1026C0004713812F0F90DF91CF911F91FF90EF90D3
:1026D000089561EE0C944D13EF92FF921F93CF93E8
:1026E000DF9300D0CDB7DEB77C014A8369830E94B7
:1026F0004A136981862F8F7180620E942504182FEA
:102700004A81842F0E942504C7010E944713812F0C
:102710000F900F90DF91CF911F91FF90EF90089550
:10272000CF92DF92EF92FF920F931F93CF93DF939D
:1027300000D01F92CDB7DEB77C01142F2A835B83B4
:1027400069830E944A136981862F8F7180620E947B
:102750002504082FC12E5B81D52E2A81120F1C154E
:1027600031F0F60181916F010E942504F8CFC70175
:102770000E944713802F0F900F900F90DF91CF9101
:102780001F910F91FF90EF90DF90CF900895EF92FF
:10279000FF921F93CF93DF931F92CDB7DEB77C01DB
:1027A00069830E944A136981862F8F710E942504D4
:1027B0008FEF0E942504182FC7010E944713812F15
:1027C0000F90DF91CF911F91FF90EF900895EF92BE
:1027D000FF920F931F93CF938C017B0166E00E94C1
:1027E000C713C82FC77D82E0E816F10431F4C06238
:1027F0008BE990E0A0E0B0E00DC0EA94EF2829F06A
:1028000085E590E0A0E0B0E005C0C86081E490E01C
:10281000A0E0B0E0F801808B918BA28BB38B4C2FA2
:1028200066E0C8010E946C1366E0C8010E94C713ED
:1028300091E08C1390E0892FCF911F910F91FF9021
:10284000EF900895CF93DF93EC016DE10E94C713E1
:10285000482F44606DE1CE010E946C136CE1CE0103
:102860000E94C713482F4F636CE1CE010E946C1386
:1028700081E08887DF91CF910895CF93DF93EC01BA
:1028800060E00E94C71381FD0EC0482F426060E0E7
:10289000CE010E946C1365E070E080E090E0DF9173
:1028A000CF910C94E70ADF91CF910895CF93DF93F6
:1028B000EC0160E00E942313888999890E94B90A7B
:1028C0006DE1CE010E94C71381FF07C088899989F5
:1028D0000E94B90ACE010E94691360E0CE010E94F5
:1028E000C713482F4E7F60E0CE010E946C1362E058
:1028F000CE010E94C713E1EDF2E0E49141E050E027
:1029000001C0440FEA95EAF7482B62E0CE01DF915F
:10291000CF910C946C138F929F92AF92BF92CF92F3
:10292000DF92EF92FF920F931F93CF93DF93EC010F
:102930007B01CCA8D12C860108501109DB01169629
:102940009C918CE6890F833020F0983C09F0CFC031
:1029500003C0943909F4E4C08BE6890F823018F083
:10296000983C09F08EC06E0159EDC50ED11CD60100
:102970002D913C91A801420F531F4139510520F080
:10298000C852DF4F1882B1C05E01B8EDAB0EB11C6A
:10299000F5018081882309F415C1963929F0D70102
:1029A00017969C919813A1C0FE01EB52FF4F4081F6
:1029B0005181F701848195814817590709F095C025
:1029C0004E01FBED8F0E911CD4018D919C91A801BD
:1029D000BE01615F7F4F820F931F0E94C727F601E0
:1029E00080819181080F191F11830083D7011696EA
:1029F0008C91863929F0F50180818150808373C0E4
:102A0000D5011C92F7018781FE01E952FF4F8083B7
:102A1000833809F483C07E01FFECEF0EF11CF7014F
:102A2000A081B181CE018A1B9B0B8B539F4F8017D6
:102A30009107F8F032968AE001900D928A95E1F7BD
:102A4000D7018D919C91F40160817181D6014D91E6
:102A50005C910A960E94C727F601808191810A96AF
:102A6000D7012D913C911197820F931F8D939C93C9
:102A70003AC08FA598A90E9456148AA581608AA79A
:102A800034C07E01BFECEB0EF11CF701A081B181D7
:102A9000CE01C5969D01281B390BC901800F911FDE
:102AA0008B39910510F5E85CF10988E001900D92F1
:102AB0008A95E1F7D701ED91FC9111971187008775
:102AC0008D919C91BE01615F7F4FA8010A960E9483
:102AD000C727B2E0CB0ED11CF70180819181C80ECF
:102AE000D91ED182C08281E06DC080E06BC0933876
:102AF00041F6DE01AF52BF4FFE01379688E00190EC
:102B00000D928A95E1F7FE01E552FF4FCE010F9637
:102B100091838083C752DF4F1983088382E052C0BC
:102B2000F7018781873008F02BCFFE01EB52FF4F72
:102B300040815181D70114962D913C91159734977E
:102B40006F014217530739F4408151812D913C9117
:102B50004217530741F2F8E18F9FC0011124FE0193
:102B6000E153FF4F20813181AE01421B530B9A018B
:102B70002B533F4F281739073CF48AA581608AA759
:102B80008FA598A90E945614FE01379688E0D601B9
:102B900001900D928A95E1F7FE01E552FF4FBE01CB
:102BA000615F7F4FA801808191810E94C727FE014C
:102BB000E752FF4F11830083C852DF4F8881815055
:102BC000888391CFDF91CF911F910F91FF90EF906C
:102BD000DF90CF90BF90AF909F908F9008952F92ED
:102BE0003F924F925F926F927F928F929F92AF929D
:102BF000BF92CF92DF92EF92FF920F931F93CF93EA
:102C0000DF9300D01F92CDB7DEB7DC019A969C917E
:102C10009A97892F827091FD19C0FD01E153FF4FF2
:102C2000AD014B5C5F4F90FD07C020813181241BBB
:102C3000350B2937310554F0208131814217530774
:102C400008F47CC19E7F9A969C939A97BB83AA8333
:102C50000E94210B2B013C0110E0CA80DB8027E0A1
:102C6000C20ED11C2A803B8031E9231A3EEF330A81
:102C7000F4E2AF2EF9E0BF2EEA81FB81E7A4F0A8D1
:102C8000F701808191818F3F910529F182819381A4
:102C90008F3F910501F167E1C7010E94C713082F1B
:102CA000017080FD18C06FEFC7010E944D130E9494
:102CB000210BDC01CB0184199509A609B709EA812A
:102CC000FB81E7A4F0A8893E9340A105B10528F057
:102CD00081E0F7018787812F31C1C7010E944A1324
:102CE00080E60E9425048FEF0E942504982EC701DC
:102CF0000E944713F0E2F91558F462EEC7010E94F2
:102D00004D1362E070E080E090E00E94E70A01C0AD
:102D1000092DEA81FB8104AB083038F46AE070E0E9
:102D200080E090E00E94E70AA7CFEA81FB81E7A458
:102D3000F0A8F7018781801708F4082FF701908524
:102D4000911103C0801B898301C01982C7010E94B1
:102D50004A1381E60E9425044601015038F08FEFA6
:102D60000E942504F40181934F01F7CF09810023CC
:102D700029F08FEF0E9425040150F9CFC7010E946E
:102D8000471340E767E0C7010E946C13EA81FB81AB
:102D900061857285CB01009759F0282F2770263066
:102DA00008F06ACFE3E096958795EA95E1F7F3CFCF
:102DB000EA81FB81158582A993A96817790709F033
:102DC00043C0123809F458CF103891F46432794076
:102DD000F1F0EA81FB81B286A18642E064E279E00B
:102DE000CF010E94D20D6AE070E080E090E049C01F
:102DF000133C69F46115710551F0EA81FB8170871C
:102E000067831286118640E060E070E041C0EA818D
:102E1000FB8181A5882319F017FF0CC002C0113C6B
:102E200049F48CE6810F833028F0183C19F01338F0
:102E300009F051CFB6018A819B810E948B148230A8
:102E400009F01ACF83E87AC06034710509F070C0C8
:102E5000123C01F5EA81FB8122A523FD0DCF8432CE
:102E6000F9E09F0709F408CFEA81FB8127813085CB
:102E70003287218790878783F101608170E080E04D
:102E800090E00E94E70AEA81FB816185728542E059
:102E9000CF0151C0B6018A819B810E948B14082FFB
:102EA000EA81FB818081882309F43EC022A933A9ED
:102EB000C90153E0969587955A95E1F7892B21F042
:102EC0008CEB92E10197F1F7C901837099279C017E
:102ED00048E552E0249FC001259F900D349F900D3E
:102EE00011240E94B90AEA81FB8121A9222381F0E1
:102EF00030E021503109C901880F991F280F391F6F
:102F000061E070E002C0660F771F2A95E2F702C009
:102F100060E070E083E0660F771F8A95E1F744E098
:102F20008A819B810E94D20D023009F0A5CE8ACF02
:102F300041E08A819B810E94D20D9ECE0F900F901E
:102F40000F90DF91CF911F910F91FF90EF90DF9045
:102F5000CF90BF90AF909F908F907F906F905F9039
:102F60004F903F902F900895CF93DF93EC010E94F4
:102F70003D1460E0CE010E94C713482F416060E01D
:102F8000CE010E946C1340E767E0CE010E946C13F3
:102F900061E0CE010E9423138985882349F02E85A4
:102FA000AE01475F5F4F6AE0CE010E94901314C0EC
:102FB00062E0CE010E94C713E1EDF2E0E49121E06E
:102FC00030E001C0220FEA95EAF72095422F48230E
:102FD00062E0CE010E946C136DE1CE010E94C71326
:102FE00081FF05C0CE01DF91CF910C946913DF9171
:102FF000CF9108952F923F924F925F926F927F925E
:103000008F929F92AF92BF92CF92DF92EF92FF92F8
:103010000F931F93CF93DF93EC017B015A0169015A
:1030200048010E94210B4BA45CA46DA47EA4DC018A
:10303000CB0184199509A609B7094997A105B105DE
:1030400028F4CE010E94EF1587FFEBCF8CE891E0CA
:103050000197F1F789E1C816D104B0F488E08C0D2E
:103060008CAB84019601A501B701CE010E94EA1242
:10307000182F882311F011E092C00E94210B6BA73A
:103080007CA78DA79EA78BC0E1E9CE16D10408F0DE
:1030900085C0C60168E170E00E94A82721E0892B65
:1030A00009F420E0C60168E170E00E94A827722EB2
:1030B000760EF701828193818034910539F08AA5DB
:1030C00084608AA78FA598A90E945614F7014680AC
:1030D000512C612C84E9282E96E9392EF70177824C
:1030E000F1E07F1204C0F7013682478208C0611008
:1030F00003C0F701268203C085E9F7018683E8E172
:103100006E9EA00111249601241B350B2931310537
:1031100010F028E130E088E0820F8CAB4A0D5B1D97
:103120008401B701CE010E94EA12182F81110BC051
:1031300062E070E080E090E00E94E70A5394F2E0E1
:10314000F51560F606C07A946394772011F0512C3F
:10315000C5CFF70146828AA582FF12C049815A81F4
:103160006B817C818FA598A90E94C00F182F8FA515
:1031700098A90E94B41760E08FA598A90E94940EA8
:103180008AA58B7F8AA7112349F0772009F473CF92
:103190000E94210B6BA77CA78DA79EA710E0812F13
:1031A000DF91CF911F910F91FF90EF90DF90CF9023
:1031B000BF90AF909F908F907F906F905F904F9057
:1031C0003F902F9008950F931F93CF93DF938C011F
:1031D000C0E0D0E0F801EC0FFD1F6491662371F0B0
:1031E000E091FC01F091FD010190F081E02D8CEF68
:1031F00091E00995892B11F02196ECCFCE01DF915A
:10320000CF911F910F9108951F93CF93DF93C0919A
:10321000EC02D091ED02888199812A813B8182174D
:10322000930719F061E00E947D0A8A819B812881C1
:1032300039812817390719F061E00E947D0A1FB70C
:10324000F8948091CC04811127C0E7EFF2E08491DB
:10325000EBE0F3E09491E82FF0E0EE0FFF1FE85C65
:10326000FC4FA591B491EC91E92321F461E08AE04F
:103270000E94310A61E08AE00E947D0A8CB580617B
:103280008CBD8CB580648CBD61E08DE00E947D0AB0
:1032900061E08BE00E947D0A8091CC048F5F809377
:1032A000CC041FBF60E0CE010E94231361E0CE0179
:1032B0000E942F1365E070E080E090E00E94E70A32
:1032C0004CE060E0CE010E946C134FE564E0CE015B
:1032D0000E946C1362E070E0CE010E94E713882325
:1032E00011F081E08E8366E0CE010E94C71360E09A
:1032F00070E0CE010E94E713CE010E944A1380E5E0
:103300000E94250483E70E942504CE010E944713F2
:1033100040E06DE1CE010E946C1340E06CE1CE0113
:103320000E946C13188640E767E0CE010E946C1380
:103330004CE465E0CE010E946C1362EECE010E9467
:103340004D13CE010E946913CE010E943D1460E02E
:10335000CE010E94C713482F4E7F60E0CE010E942D
:103360006C138DE78093F9024DE765E08091EC02E4
:103370009091ED020E946C1362E070E08091EC028B
:103380009091ED020E94E713C091EE02D091EF02FE
:1033900081E089A78091E802882399F084E299E08E
:1033A0009093E7028093E60240E45FE160E070E022
:1033B00086EE92E00E942C0421E0892BB1F420E0FB
:1033C00014C086E090E00E94DB239093EA02809391
:1033D000E9021092EB021092E7021092E60260E01E
:1033E00070E0CE010E94A90E21E0822FDF91CF91E3
:1033F0001F910895CF93DF930E94E318EC0186E5B7
:1034000091E00E94BB108C0F9D1FDF91CF9108951A
:10341000EF92FF920F931F93CF93DF931F92CDB73D
:10342000DEB7E42E9F938F9382E393E09F938F9375
:1034300069830E94C7216981E60E0F900F900F905B
:103440000F900AE213E06E1599F0FF24F394F60E44
:1034500080E794E00E94C7131F928F931F930F93EE
:103460000E94C7210F900F900F900F906F2DEBCF00
:1034700087E293E09F938F930E94C7210F900F9054
:103480000F90DF91CF911F910F91FF90EF900895D2
:103490002F923F924F925F926F927F928F929F9264
:1034A000AF92BF92CF92DF92EF92FF920F931F9352
:1034B000CF93DF931F92CDB7DEB7562E342E6DB665
:1034C0007EB69F938F9381E293E09F938F930E94A8
:1034D000C721350C0F900F900F900F908DE1C82EE3
:1034E00083E0D82E98E1A92E93E0B92E531409F465
:1034F00052C08DB69EB620917E04022F10E08DB78B
:103500009EB7801B910B0FB6F8949EBF0FBE8DBF68
:10351000EDB7FEB731967F0122242394250C80E776
:1035200094E029830E944A13852D8F710E942504FF
:10353000270129812E0D241549F08FEF29830E9440
:103540002504F20181932F012981F5CF80E794E0D2
:103550000E944713DF92CF920E94C7210E0D1F1DBC
:103560000F900F90015011090E151F0568F0F8011A
:1035700080811F928F93BF92AF920E94C7210F90BC
:103580000F900F900F90EECF0FB6F8949EBE0FBE27
:103590008DBE522CABCF85E193E09F938F930E9419
:1035A000C7210F900F900FB6F8947EBE0FBE6DBE70
:1035B0000F90DF91CF911F910F91FF90EF90DF90CF
:1035C000CF90BF90AF909F908F907F906F905F90C3
:1035D0004F903F902F900895CF93DF9300D01F928C
:1035E000CDB7DEB7789484B5826084BD84B5816040
:1035F00084BD85B5826085BD85B5816085BD8091BE
:103600006E00816080936E00109281008091810035
:10361000826080938100809181008160809381002D
:10362000809180008160809380008091B1008460EF
:103630008093B1008091B00081608093B000809150
:103640007A00846080937A0080917A00826080930F
:103650007A0080917A008E7F80937A0080917A0040
:10366000806880937A001092C10061E086E00E9439
:103670007D0A61E086E00E94310AE0910C02F0913F
:103680000D0282E08083E0910802F091090210822D
:10369000E0910A02F0910B0288E0808310921402FC
:1036A000E0911002F091110286E08083E0910E0219
:1036B000F0910F02808180618083E0910E02F09191
:1036C0000F02808188608083E0910E02F0910F02EA
:1036D000808180688083E0910E02F0910F028081EA
:1036E0008F7D808360E070E089E194E00E947C211E
:1036F00089E090E00E94BB258093010182EAE82ED8
:1037000082E0F82E67010FE010E0C8010E94BB259F
:10371000F60181936F010F5F1F4F0F311105A9F75C
:1037200087E391E00E94E3186AE070E08091010174
:103730000E940E1189E291E00E94E31801E5C02E7B
:1037400001E0D02E8E010F5F1F4FF70181917F01A5
:103750001F928F93DF92CF921F930F930E94E227C5
:10376000C8010E94BB100F900F900F900F900F9008
:103770000F90F2EBEF16F2E0FF0639F786E591E0E5
:103780000E94BB1080910101823038F48091A20226
:10379000811101C081E0809301018CE692E00E94DA
:1037A000E318809101018093E8026AE070E00E94D2
:1037B0000E110E94041980E794E00E9422144FE346
:1037C00061E080E794E00E946C1384E592E00E943F
:1037D000FA1966E080E794E00E94C713887F482FBB
:1037E000456066E080E794E00E946C136FEF80E72D
:1037F00094E00E944D13282F30E0982F91701F9273
:103800009F9335952795277033273F932F9384FBFC
:10381000992790F91F929F9385FB992790F91F9202
:103820009F9386FB992790F91F929F931F928F93E6
:1038300087E491E09F938F930E94C72142E06AE062
:1038400082E492E00E94481A44E06CE085E392E052
:103850000E94081A41E060E18CE292E00E94481A5E
:1038600046E061E181E292E00E94081A41E061E0F5
:103870008AE192E00E94081A41E062E080E192E071
:103880000E94081A41E065E089E092E00E94081A6F
:1038900041E066E080E092E00E94081A41E060E0CA
:1038A00088EF91E00E94081A42E06CE18AEE91E014
:1038B0000E94081A66E080E794E00E94C7138872AD
:1038C0000FB6F894DEBF0FBECDBF803241F021E0CD
:1038D00090E0883009F020E0E22FF92F02C0E2E00A
:1038E000F0E0EE0FFF1FEC51FE4F859194919F93F6
:1038F0008F9382ED91E09F938F930E94C721E09177
:103900007604F0E0EE0FFF1FE253FE4F8591949195
:103910009F938F938FEB91E09F938F930E94C7218A
:1039200060E080E794E00E94C713182F61E080E711
:1039300094E00E94C7130FB6F894DEBF0FBECDBF50
:1039400013FD02C0882329F012FD06C0E1E0F0E07B
:1039500005C0E0E0F0E002C0E2E0F0E0EE0FFF1FA3
:10396000E754FE4F859194919F938F9386EA91E05F
:103970009F938F930E94C72166E080E794E00E94A6
:10398000C7138670E82FF0E0E256FE4F85919491C0
:103990009F938F938DE891E09F938F930E94C7210F
:1039A00084B7877F84BF80916000886180936000C6
:1039B00081E2809360008091600080648093600069
:1039C0008FE492E00E94FA1960E086E00E94310ADA
:1039D00068EC70E080E090E00E94E70A61E086E039
:1039E0000E94310A0FB6F894DEBF0FBECDBFC12CC6
:1039F00060ECD62E69E7E62E64ECF62E85EA94E0BC
:103A000077E0372E380E44244A94E3E05E2E612C92
:103A1000712C0E944C06109203011092020105E0E5
:103A200065E070E080E090E00E94E70A8091BD04CC
:103A30008B3041F562E18091BC040E94091200972D
:103A400059F51091B704612F70E080E090E00E947A
:103A5000A1266093AF047093B0048093B104909357
:103A6000B204B090B9046B2D70E080E090E00E9449
:103A7000A1266093B3047093B4048093B50490932B
:103A8000B60453C0863109F061C061E08091BC0486
:103A90000E940912009789F0C092AF04D092B0043E
:103AA000E092B104F092B204C092B304D092B40494
:103AB000E092B504F092B60444C0A090B80490908F
:103AC000B7046A2D70E0792980E090E00E94A12679
:103AD0002DEC3CEC4CEC5DE30E9407276093AF04B7
:103AE0007093B0048093B1049093B204B090BA0480
:103AF0001091B904812F8F776B2D70E0782B80E0C7
:103B000090E00E94A1262DEC3CEC4CEC5DE30E9481
:103B1000072717FD39C06093B3047093B4048093F2
:103B2000B5049093B604A90CBA0C1B0D81E090E08B
:103B30002091BB04211302C080E090E09195819513
:103B400091099093BF048093BE0404C01092BF04F7
:103B50001092BE048091BE049091BF04892B01F1A4
:103B6000015088E892E00E94E31884E090E0801B16
:103B700091090E94B11268EE73E080E090E00E942B
:103B8000E70A002369F04CCFDC01CB01B0588093E9
:103B9000B3049093B404A093B504B093B604C3CF18
:103BA0001092980410929504109297041092960423
:103BB00005E914E0F801129234E0ED38F307D9F783
:103BC0000E94D711882309F475C280EF0E948611E4
:103BD000AA24A394912C812CBB24B3940E942F116E
:103BE0008B830E942F119B81913019F48130C9F48D
:103BF00037C0292D30E098131EC080919504B81667
:103C000038F4F901E557FB4F82818A2151F402C053
:103C1000B81639F090E088E08B1560F0B092960409
:103C200009C0E92DF0E0E557FB4F82818A298283A4
:103C300091E009C08B2CF901E557FB4F22818A2DB9
:103C4000809582238283892F0E945411B394AA0CF9
:103C500019F49394AA24A39497E0991508F0BECF81
:103C6000E0E4EB1508F026C280929504811003C0B1
:103C700081E08093970480918D04882309F41AC20F
:103C8000E5EAF4E0DF0158978C91819324E0ED3A66
:103C9000F207C1F7A5EAB4E0E0E03A1689F08D91A9
:103CA0008E27E82FEF70F0E0ED56FD4F949182954E
:103CB0008F70E82FF0E0ED55FD4FE491E927EDCF4F
:103CC0008091AC04E81749F04CE050E06FEF70E0F1
:103CD00089E994E00E9413254FC08091A5048031AA
:103CE00019F0883209F03EC00E94D71185EA94E0AD
:103CF0000E94B31184E40E94861168EE73E080E0B4
:103D000090E00E94E70AF894E0918B04F0918C0413
:103D1000918180918A0480958923818378940E947F
:103D2000D71185EA94E00E94B3118EEB0E948611B0
:103D300009E914E049E0242E200E38E0832E912C6E
:103D4000AA24A394B12C0E942F118111BA28AA0C85
:103D500021E0821A9108B9F7F801B1928F012E1271
:103D6000ECCF0AC089E591E00E94BB1060E170E0F1
:103D70008091A5040E940E118EE480937C0062E085
:103D800070E080E090E00E94E70A80917A00806411
:103D900080937A0080917A0086FDFCCF2091780094
:103DA0008091790030E0382B032E000C440B550B2A
:103DB00064EB7BE281E190E00E94D125E22F732F3A
:103DC000642F952F80919B02882301F18E3008F09B
:103DD0008E508770806480937C0080917A0080642C
:103DE00080937A0080917A0086FDFCCFA0917800C4
:103DF00080917900B0E0B82B0E94FB25A3019201CD
:103E00000E94D125E22F732F642F952FE0939E02FD
:103E100070939F026093A0029093A1021AE087E042
:103E2000982EAA24A394BA2C20E1822E9092B60256
:103E3000B092B802A092B70224E030E03093BA0208
:103E40002093B902E091B202F091B302ABEBB2E081
:103E5000882D01900D928A95E1F705E028E130E088
:103E600040E566EB72E08091B4029091B5020E9449
:103E70002F10282E811114C08091B4029091B502A8
:103E80000E94E10581110AC040ED57E060E070E05A
:103E90008091B4029091B5020E942C040150F1F679
:103EA000115021F0222009F4C1CF03C0222009F4CF
:103EB000A2C017E01093B60285E091E09093B8029B
:103EC0008093B70281E090E09093BA028093B902A8
:103ED000E0918804F09189040190F081E02D88E858
:103EE00094E00995FC0198E0ABEBB2E001900D92F3
:103EF0009A95E1F7E0918804F09189040280F381BA
:103F0000E02D88E894E00995FC019CE0A3ECB2E088
:103F100001900D929A95E1F780E30E948410E09160
:103F2000AD04F091AE040190F081E02D8DEA94E0B3
:103F300009955C01E091AD04F091AE040280F3813B
:103F4000E02D8DEA94E009951093B60222E031E06D
:103F50003093B8022093B70222E030E03093BA02E7
:103F60002093B902B092BC02A092BB029093BE0211
:103F70008093BD0288E10E948410E0919902F09143
:103F80009A020190F081E02D89E992E009954B01B8
:103F90005C01E0919902F0919A020280F381E02D98
:103FA00089E992E00995082FE0919902F0919A022F
:103FB0000480F581E02D89E992E009951093B6021D
:103FC00024E031E03093B8022093B70223E030E0E0
:103FD0003093BA022093B9028092BB029092BC0245
:103FE000A092BD02B092BE020093BF028093C002B5
:103FF00088E10E9484100E944C0689E992E00E94A8
:104000001202843609F453C08DE791E00E94BB1080
:1040100086E591E00E94BB1060E080E794E00E949A
:10402000231360E080E794E00E94C713482F4D7F80
:1040300060E080E794E00E946C1360E086E00E94FC
:10404000310A83B7817F846083BF80919C0291E0B5
:10405000980F90939C0290919D02891750F483B71A
:10406000816083BF83B7816083BF889583B78E7F6C
:10407000EBCF83B78E7F83BF809164008071809384
:10408000640010929C0261E086E00E94310A80E7A1
:1040900094E00E943D1480E794E00E94B41748EE3B
:1040A00053E060E070E086EE92E00E942C040E94F3
:1040B0002309AFCC109295041092970410929604A5
:1040C000F80112928F01F4E00D381F07C9F7FCCDFB
:1040D000CF93DF93CDB7DEB72E970FB6F894DEBF40
:1040E0000FBECDBF1092FF011092FE0188EE93E04B
:1040F000A0E0B0E08093000290930102A09302023E
:10410000B093030227E131E03093FD012093FC01DD
:1041100025EC30E0309309022093080224EC30E0D3
:1041200030930B0220930A0220EC30E030930D0212
:1041300020930C0221EC30E030930F0220930E020A
:1041400022EC30E0309311022093100226EC30E094
:10415000309313022093120210921502109216024D
:1041600010921702109218021092C3041092C20407
:104170008093C4049093C504A093C604B093C7046D
:1041800089E291E09093C1048093C0048DE491E0B2
:104190009093AE048093AD048EEF9FEF9093BF0495
:1041A0008093BE0484E08093BC0486E18093BD04C8
:1041B00085E491E0909389048093880460E082E133
:1041C0000E947D0AE3E1F3E08491EFEFF2E0E491F5
:1041D000F0E0EE0FFF1FED51FD4F25913491FE01F0
:1041E0003C96AE014C5F5F4F1292E417F507E1F782
:1041F00089833B832A831C861D861E868EE0FE01F2
:104200003196AAE8B4E001900D928A95E1F720E793
:1042100034E087E090E0909371048093700488E02C
:1042200090E090937304809372041092760480E27D
:10423000809377041092780485E080937E0445E0B3
:1042400050E060E070E040938404509385046093F4
:104250008604709387041092790430932E03209380
:104260002D0343E353E05093CE034093CD034BED36
:1042700053E05093DA034093D9034FEC53E050934B
:104280002603409325031092290310922A031092CB
:104290002B0310922C0310922803109227031092E4
:1042A000FE023093ED022093EC022EEF32E03093C9
:1042B000EF022093EE0222EA32E03093B302209321
:1042C000B20226EE32E03093B5022093B4022BE323
:1042D00031E030939A022093990210929B0210923F
:1042E0009C0280939D022E960FB6F894DEBF0FBEFF
:1042F000CDBFDF91CF9108950F931F93CF93DF939D
:10430000009731F46115710519F480E090E03AC02E
:104310008B01EC016EE070E081E090E00E94BF2331
:10432000FC01892B91F380E883830115110571F05D
:104330001387028781E883838091CD049091CE0416
:10434000892B21F4F093CE04E093CD042097C9F09B
:10435000D187C0878381826083838091CF049091CD
:10436000D004892B71F4F093D004E093CF048091B2
:10437000D1049091D204892B21F4F093D204E093DC
:10438000D104CF01DF91CF911F910F910895A0E04B
:10439000B0E0EDECF1E20C941126AE01495F5F4F05
:1043A000DA016D917D91AD010DEC14E0F80182818F
:1043B0009381DC0113962C911397286013962C930C
:1043C0000E94ED21D8011296ED91FC911397238163
:1043D000277F2383E4E00C942D26ACE0B0E0E3EFEC
:1043E000F1E20C9403267C016B018A01FC01178227
:1043F0001682838181FFBDC1CE0101964C01F70178
:104400009381F60193FD859193FF81916F0188233C
:1044100009F4ABC1853239F493FD859193FF819105
:104420006F01853229F4B70190E00E942525E7CF7E
:10443000512C312C20E02032A0F48B3269F030F482
:10444000803259F0833269F420612CC08D3239F00A
:10445000803339F4216026C02260246023C02860A4
:1044600021C027FD27C030ED380F3A3078F426FF01
:1044700006C0FAE05F9E300D1124532E13C08AE06F
:10448000389E300D1124332E20620CC08E3221F460
:1044900026FD6BC1206406C08C3611F4206802C072
:1044A000883641F4F60193FD859193FF81916F0168
:1044B0008111C1CF982F9F7D9554933028F40C5FC4
:1044C0001F4FFFE3F9830DC0833631F0833771F05E
:1044D000833509F05BC022C0F801808189830E5FBB
:1044E0001F4F44244394512C540115C03801F2E06D
:1044F0006F0E711CF801A080B18026FF03C0652DEE
:1045000070E002C06FEF7FEFC5012C870E941A2573
:104510002C0183012C852F77222E17C03801F2E061
:104520006F0E711CF801A080B18026FF03C0652DBD
:1045300070E002C06FEF7FEFC5012C870E94082555
:104540002C012C852068222E830123FC1BC0832D87
:1045500090E048165906B0F4B70180E290E00E945E
:1045600025253A94F4CFF50127FC859127FE81910A
:104570005F01B70190E00E94252531103A94F1E0E7
:104580004F1A51084114510471F7E5C0843611F0F7
:10459000893639F5F80127FF07C060817181828172
:1045A00093810C5F1F4F08C060817181072E000C42
:1045B000880B990B0E5F1F4F2F76722E97FF09C045
:1045C00090958095709561957F4F8F4F9F4F206894
:1045D000722E2AE030E0A4010E945D25A82EA818C2
:1045E00044C0853729F42F7EB22E2AE030E025C062
:1045F000F22FF97FBF2E8F36C1F018F4883579F08D
:10460000B4C0803719F0883721F0AFC02F2F206158
:10461000B22EB4FE0DC08B2D8460B82E09C024FFCD
:104620000AC09F2F9660B92E06C028E030E005C072
:1046300020E130E002C020E132E0F801B7FE07C01F
:1046400060817181828193810C5F1F4F06C0608100
:10465000718180E090E00E5F1F4FA4010E945D25F4
:10466000A82EA818FB2DFF777F2E76FE0BC0372DC6
:104670003E7FA51450F474FE0AC072FC08C0372DAA
:104680003E7E05C0BA2C372D03C0BA2C01C0B52C14
:1046900034FF0DC0FE01EA0DF11D8081803311F45D
:1046A000397E09C032FF06C0B394B39404C0832F8F
:1046B000867809F0B39433FD13C030FF06C05A2C3E
:1046C000B31418F4530C5B18B32CB31468F4B7018B
:1046D00080E290E03C870E942525B3943C85F5CF8D
:1046E000B31410F43B1801C0312C34FF12C0B701D1
:1046F00080E390E03C870E9425253C8532FF17C06F
:1047000031FD03C088E790E002C088E590E0B70182
:104710000CC0832F867859F031FF02C08BE201C0B4
:1047200080E237FD8DE2B70190E00E942525A514B7
:1047300038F4B70180E390E00E9425255A94F7CF22
:10474000AA94F401EA0DF11D8081B70190E00E9466
:104750002525A110F5CF332009F451CEB70180E211
:1047600090E00E9425253A94F6CFF7018681978143
:1047700002C08FEF9FEF2C96E2E10C941F260F935F
:104780001F93CF93DF93869F8001879F100D969F85
:10479000100D1124C8010E94DB23EC01009729F0C1
:1047A000A80160E070E00E941325CE01DF91CF9157
:1047B0001F910F910895CF93DF938230910510F4EC
:1047C00082E090E0E091D504F091D60420E030E062
:1047D000C0E0D0E0309711F140815181481759076E
:1047E000C0F04817590761F482819381209719F02E
:1047F0009B838A832BC09093D6048093D50426C0D4
:104800002115310519F04217530718F49A01BE011A
:10481000DF01EF010280F381E02DDCCF21153105AE
:1048200009F1281B390B2430310590F412968D9133
:104830009C9113976115710521F0FB01938382838D
:1048400004C09093D6048093D504FD01329644C0F1
:10485000FD01E20FF31F81939193225031092D93B3
:104860003C933AC02091D3043091D404232B41F4DB
:1048700020910801309109013093D4042093D3048E
:1048800020910601309107012115310541F42DB722
:104890003EB740910A0150910B01241B350BE0916A
:1048A000D304F091D404E217F307A0F42E1B3F0BBE
:1048B0002817390778F0AC014E5F5F4F2417350792
:1048C00048F04E0F5F1F5093D4044093D30481935C
:1048D000919302C0E0E0F0E0CF01DF91CF91089525
:1048E0000F931F93CF93DF93009709F48CC0FC01C3
:1048F0003297138212820091D5041091D6040115CB
:10490000110581F420813181820F931F2091D304FE
:104910003091D4042817390779F5F093D404E09343
:10492000D30471C0D80140E050E0AE17BF0750F487
:1049300012962D913C911397AD012115310509F186
:10494000D901F3CF9D01DA01338322836081718124
:10495000860F971F8217930769F4EC01288139812C
:10496000260F371F2E5F3F4F318320838A819B8123
:1049700093838283452B29F4F093D604E093D504E6
:1049800042C01396FC93EE931297ED014991599111
:104990009E01240F351FE217F30771F48081918186
:1049A000840F951F029611969C938E93828193811A
:1049B00013969C938E931297E0E0F0E0D801129644
:1049C0008D919C911397009719F0F8018C01F6CF07
:1049D0008D919C9198012E5F3F4F820F931F2091E4
:1049E000D3043091D4042817390769F4309729F497
:1049F0001092D6041092D50402C013821282109332
:104A0000D4040093D304DF91CF911F910F910895A7
:104A1000FC010590615070400110D8F78095909589
:104A20008E0F9F1F0895DC0101C06D9341505040CF
:104A3000E0F70895FC016150704001900110D8F733
:104A4000809590958E0F9F1F08950F931F93CF937E
:104A5000DF93FB01238121FD03C08FEF9FEF28C06F
:104A600022FF16C0468157812481358142175307A2
:104A700044F4A081B1819D012F5F3F4F318320839A
:104A80008C93268137812F5F3F4F3783268310C059
:104A9000EB01092F182F0084F185E02D0995892B52
:104AA000E1F68E819F8101969F838E83812F902FC7
:104AB000DF91CF911F910F910895FA01AA27283015
:104AC00051F1203181F1E8946F936E7F6E5F7F4FDB
:104AD0008F4F9F4FAF4FB1E03ED0B4E03CD0670F57
:104AE000781F891F9A1FA11D680F791F8A1F911DAA
:104AF000A11D6A0F711D811D911DA11D20D009F4FA
:104B000068943F912AE0269F11243019305D31933B
:104B1000DEF6CF010895462F4770405D4193B3E024
:104B20000FD0C9F7F6CF462F4F70405D4A3318F0CB
:104B3000495D31FD4052419302D0A9F7EACFB4E07C
:104B4000A6959795879577956795BA95C9F7009734
:104B50006105710508959B01AC010A2E06945795D5
:104B6000479537952795BA95C9F7620F731F841F2C
:104B7000951FA01D0895F999FECF92BD81BDF89AA9
:104B8000992780B50895262FF999FECF1FBA92BDB7
:104B900081BD20BD0FB6F894FA9AF99A0FBE01961E
:104BA0000895052E97FB1EF400940E94E82557FDFA
:104BB00007D00E943A2607FC03D04EF40C94E82557
:104BC00050954095309521953F4F4F4F5F4F089539
:104BD00090958095709561957F4F8F4F9F4F089569
:104BE0000E945C26A59F900DB49F900DA49F800D00
:104BF000911D11240895B7FF0C94F0250E94F02513
:104C0000821B930B08952F923F924F925F926F9267
:104C10007F928F929F92AF92BF92CF92DF92EF924C
:104C2000FF920F931F93CF93DF93CDB7DEB7CA1BCD
:104C3000DB0B0FB6F894DEBF0FBECDBF09942A88F8
:104C4000398848885F846E847D848C849B84AA84A0
:104C5000B984C884DF80EE80FD800C811B81AA812D
:104C6000B981CE0FD11D0FB6F894DEBF0FBECDBFF8
:104C7000ED010895A1E21A2EAA1BBB1BFD010DC078
:104C8000AA1FBB1FEE1FFF1FA217B307E407F507FC
:104C900020F0A21BB30BE40BF50B661F771F881FD8
:104CA000991F1A9469F760957095809590959B016E
:104CB000AC01BD01CF010895A29FB001B39FC00117
:104CC000A39F700D811D1124911DB29F700D811D38
:104CD0001124911D08950E9472266894B1110C94BC
:104CE000012708950E94E62688F09F5798F0B92F73
:104CF0009927B751B0F0E1F0660F771F881F991F11
:104D00001AF0BA95C9F714C0B13091F00E9400278B
:104D1000B1E008950C940027672F782F8827B85F9B
:104D200039F0B93FCCF3869577956795B395D9F768
:104D30003EF490958095709561957F4F8F4F9F4F72
:104D40000895E89409C097FB3EF49095809570957E
:104D500061957F4F8F4F9F4F9923A9F0F92F96E9C7
:104D6000BB279395F695879577956795B795F1113C
:104D7000F8CFFAF4BB0F11F460FF1BC06F5F7F4FD9
:104D80008F4F9F4F16C0882311F096E911C07723EB
:104D900021F09EE8872F762F05C0662371F096E8F4
:104DA000862F70E060E02AF09A95660F771F881FC3
:104DB000DAF7880F9695879597F9089557FD9058DB
:104DC000440F551F59F05F3F71F04795880F97FBCF
:104DD000991F61F09F3F79F0879508951216130689
:104DE0001406551FF2CF4695F1DF08C016161706B8
:104DF0001806991FF1CF86957105610508940895ED
:104E0000E894BB2766277727CB0197F908950E947E
:104E10001A270C948B270E947D2738F00E94842744
:104E200020F0952311F00C9474270C947A27112408
:104E30000C9401270E94DE2670F3959FC1F3950F15
:104E400050E0551F629FF001729FBB27F00DB11D0E
:104E5000639FAA27F00DB11DAA1F649F6627B00D9E
:104E6000A11D661F829F2227B00DA11D621F739F87
:104E7000B00DA11D621F839FA00D611D221F749F95
:104E80003327A00D611D231F849F600D211D822FDC
:104E9000762F6A2F11249F5750409AF0F1F0882303
:104EA0004AF0EE0FFF1FBB1F661F771F881F915030
:104EB0005040A9F79E3F510580F00C9474270C9444
:104EC00001275F3FE4F3983ED4F386957795679585
:104ED000B795F795E7959F5FC1F7FE2B880F911D5A
:104EE0009695879597F9089597F99F6780E870E000
:104EF00060E008959FEF80EC089500240A94161650
:104F0000170618060906089500240A9412161306B7
:104F1000140605060895092E0394000C11F4882345
:104F200052F0BB0F40F4BF2B11F460FF04C06F5F61
:104F30007F4F8F4F9F4F0895991B79E004C0991FB1
:104F4000961708F0961B881F7A95C9F780950895E3
:104F5000AA1BBB1B51E107C0AA1FBB1FA617B7079F
:104F600010F0A61BB70B881F991F5A95A9F78095BB
:104F70009095BC01CD010895EE0FFF1F0590F491AF
:104F8000E02D099481E090E0F8940C940528FB0151
:104F9000DC0102C001900D9241505040D8F70895B5
:104FA0006817790768F4FB01DC01E40FF51FA40F13
:104FB000B51F02C002900E9241505040D8F708959C
:104FC0000C94C727AEE0B0E0E8EEF7E20C941126AF
:104FD0000D891E8986E08C831A8309838FEF9FE7F2
:104FE0009E838D83AE01475E5F4F6F89788DCE01C2
:104FF00001960E94ED212F813885F801E20FF31F01
:0E50000010822E96E4E00C942D26F894FFCF3B
:10500E000101010001000000D7048000C33C33CE33
:10501E003EE3EC00000000BA0825085C0801098D8B
:10502E00086B087F080000000081096D0993095F75
:10503E0009660963096009000000006E021202F899
:10504E0001000000007602740200000000E201CCB4
:10505E000125303258000D0A0044657669636520DB
:10506E0066616D696C79206973206E6F742072654C
:10507E00636F676E697A65643A20307800536C65A9
:04508E006570000049
:107800000C94343C0C94513C0C94513C0C94513CE1
:107810000C94513C0C94513C0C94513C0C94513CB4
:107820000C94513C0C94513C0C94513C0C94513CA4
:107830000C94513C0C94513C0C94513C0C94513C94
:107840000C94513C0C94513C0C94513C0C94513C84
:107850000C94513C0C94513C0C94513C0C94513C74
:107860000C94513C0C94513C11241FBECFEFD8E036
:10787000DEBFCDBF11E0A0E0B1E0EAE8FFE702C063
:1078800005900D92A230B107D9F712E0A2E0B1E065
:1078900001C01D92AD30B107E1F70E942D3D0C945F
:1078A000C33F0C94003C982F95959595959595958B
:1078B000905D8F708A307CF0282F295A8091C0000B
:1078C00085FFFCCF9093C6008091C00085FFFCCF60
:1078D0002093C6000895282F205DF0CF982F809127
:1078E000C00085FFFCCF9093C6000895EF92FF92F1
:1078F0000F931F93EE24FF2487018091C00087FD22
:1079000017C00894E11CF11C011D111D81E2E8164D
:1079100081EAF80687E0080780E0180770F3E09135
:107920000401F091050109958091C00087FFE9CF1E
:107930008091C6001F910F91FF90EF9008950E94D3
:10794000763C982F8091C00085FFFCCF9093C600B5
:1079500091362CF490330CF09053892F089597555D
:10796000892F08951F930E949F3C182F0E949F3CCF
:107970001295107F810F1F9108951F93182F882350
:1079800021F00E94763C1150E1F71F9108951F935A
:10799000182F0E94763C803249F0809103018F5F5E
:1079A000809303018530C1F01F9108958091C0003C
:1079B00085FFFCCF84E18093C6008091C00085FFE5
:1079C000FCCF1093C6008091C00085FFFCCF80E102
:1079D0008093C6001F910895E0910401F091050184
:1079E00009951F9108950E94763C803241F0809164
:1079F00003018F5F80930301853081F008958091AA
:107A0000C00085FFFCCF84E18093C6008091C00058
:107A100085FFFCCF80E18093C6000895E0910401CA
:107A2000F09105010995089548EC50E08823A1F0F4
:107A30002D9A28EE33E0FA013197F1F721503040CA
:107A4000D1F72D9828EE33E0FA013197F1F7215064
:107A50003040D1F7815061F708953F924F925F9285
:107A60006F927F928F929F92AF92BF92CF92DF924E
:107A7000EF92FF920F931F93CF93DF93000082E06A
:107A80008093C00080E18093C4001092C50088E11B
:107A90008093C10086E08093C2005098589A259A3E
:107AA00081E00E94143D24E1F22E9EE1E92E85E959
:107AB000D82E0FE0C02E10E1B12EAA24A394B1E479
:107AC0009B2EA6E58A2EF2E57F2EE0E26E2E79E46B
:107AD000572E63E5462E50E5352E0E94763C8033C6
:107AE000B1F18133B9F1803409F46FC0813409F404
:107AF00076C0823409F485C0853409F488C08035A5
:107B000031F1823521F1813511F1853509F485C0D6
:107B1000863509F48DC0843609F496C0843709F49B
:107B200003C1853709F472C1863709F466C08091B4
:107B300003018F5F80930301853079F6E0910401A2
:107B4000F091050109950E94763C803351F60E9420
:107B5000F33CC3CF0E94763C803249F78091C0004D
:107B600085FFFCCFF092C6008091C00085FFFCCF5E
:107B70009092C6008091C00085FFFCCF8092C60025
:107B80008091C00085FFFCCF7092C6008091C0003C
:107B900085FFFCCF6092C6008091C00085FFFCCFBE
:107BA0005092C6008091C00085FFFCCF4092C60075
:107BB0008091C00085FFFCCF3092C6008091C0004C
:107BC00085FFFCCFB092C60088CF0E94763C8638F5
:107BD00008F4BDCF0E94763C0E94F33C7ECF0E9409
:107BE000763C803809F49CC0813809F40BC1823896
:107BF00009F430C1883909F48FC080E00E94C73C85
:107C00006CCF84E10E94BD3C0E94F33C66CF85E0CE
:107C10000E94BD3C0E94F33C60CF0E94763C809362
:107C200006010E94763C809307010E94F33C55CFE9
:107C30000E94763C803309F411C183E00E94BD3C70
:107C400080E00E94C73C49CF0E94763C80930902A5
:107C50000E94763C8093080280910C028E7F809374
:107C60000C020E94763C853409F409C18091080217
:107C700090910902892B89F000E010E00E94763C87
:107C8000F801E85FFE4F80830F5F1F4F809108026D
:107C9000909109020817190788F30E94763C8032F8
:107CA00009F045CF80910C0280FFF5C0609106017C
:107CB00070910701660F771F7093070160930601AB
:107CC000A0910802B09109021097C9F0E8E0F1E034
:107CD0009B01AD014E0F5F1FF999FECF32BD21BD53
:107CE000819180BDFA9AF99A2F5F3F4FE417F5070B
:107CF00099F76A0F7B1F70930701609306018091CB
:107D0000C00085FFFCCFF092C6008091C00085FFC7
:107D1000FCCFB092C600E1CE83E00E94C73CDDCE2E
:107D200082E00E94C73CD9CE0E94763C8093090233
:107D30000E94763C80930802809106019091070191
:107D4000880F991F90930701809306010E94763C4B
:107D5000853409F49AC080910C028E7F80930C02C6
:107D60000E94763C803209F0B8CE8091C00085FF39
:107D7000FCCFF092C600A0910802B09109021097C2
:107D8000C1F180910C02082F0170182F1695117007
:107D9000E0910601F0910701AF014F5F5F4FBA011B
:107DA00020E030E00023B1F4112339F49491809164
:107DB000C00085FFFCCF9093C6002F5F3F4FCB01E3
:107DC0000196FA012A173B0780F4BC014F5F5F4F11
:107DD000002351F3F999FECFF2BDE1BDF89A90B5B9
:107DE0008091C00085FFFCCFE6CF709307016093C0
:107DF00006018091C00085FDE5CE8091C00085FF21
:107E0000F8CFE0CE81E00E94C73C67CE0E94763C6E
:107E1000803209F08CCE8091C00085FFFCCFF092BB
:107E2000C6008091C00085FFFCCFE092C600809123
:107E3000C00085FFFCCFD092C6008091C00085FFB6
:107E4000FCCFC092C6008091C00085FFFCCFB092ED
:107E5000C60043CE80E10E94C73C3FCE0E94763CE4
:107E60000E94763C182F0E94763C112309F483C0AF
:107E7000113009F484C08FE00E94C73C2ECE80915F
:107E80000C02816080930C02F1CE80910C02816023
:107E900080930C0265CF809107018823880F880B9F
:107EA0008A2180930B028091060190910701880F2F
:107EB000991F90930701809306018091080280FF2B
:107EC00009C08091080290910902019690930902DD
:107ED00080930802F894F999FECF1127E0910601EA
:107EE000F0910701C8E0D1E0809108029091090269
:107EF000103091F40091570001700130D9F303E084
:107F000000935700E8950091570001700130D9F3B4
:107F100001E100935700E8950990199000915700EE
:107F200001700130D9F301E000935700E8951395F3
:107F3000103498F011270091570001700130D9F3E7
:107F400005E000935700E89500915700017001305B
:107F5000D9F301E100935700E8953296029709F0B2
:107F6000C7CF103011F00296E5CF11248091C000E8
:107F700085FFC5CEC8CE8EE10E94C73CAECD85E957
:0A7F80000E94C73CAACDF894FFCF81
:027F8A00800075
:040000030000780081
:00000001FF
