:100000000C949F010C94C7010C94C7010C94C70178
:100010000C94C7010C94C7010C94D0080C94C70130
:100020000C94C7010C94C7010C94C7010C94C70130
:100030000C94C7010C94C7010C94C7010C94C70120
:100040000C9484130C94C7010C9456120C94301227
:100050000C94C7010C94C7010C94C7010C94C70100
:100060000C94CE130C94C701486172647761726579
:10007000206661696C75726520646574656374657A
:100080006420005265636F6E6E6578696F6E2061E3
:1000900075206D657368004E6F7576656175206EAD
:1000A0006F6465206964207265637520646520440F
:1000B0004843503A20005265717565746520444884
:1000C0004350207472616E736D69736500000000A7
:1000D00000250028002B000000000800020100009D
:1000E000030407000000000000000050415F4D4184
:1000F000580050415F484947480050415F4C4F57B6
:100100000050415F4D494E003136206269747300E2
:100110003820626974730044697361626C656400BD
:100120006E524632344C30312B006E524632344CD3
:100130003031003235304B42505300324D42505333
:1001400000314D42505300555549442073656E733C
:1001500065757220004E6F646549442073656E7347
:100160006575722000424D503A2045727265757275
:100170002C206465736163746976652E0053544165
:100180005455530909203D203078253032782052CB
:10019000585F44523D25782054585F44533D25789C
:1001A000204D41585F52543D25782052585F505F92
:1001B0004E4F3D25782054585F46554C4C3D257890
:1001C0000D0A00504120506F77657209203D2025AF
:1001D000530D0A000101FA00F200EB0043524320E4
:1001E0004C656E67746809203D2025530D0A001781
:1001F00001100108014D6F64656C0909203D20253F
:10020000530D0A002A012001446174612052617477
:100210006509203D2025530D0A0041013B013301B2
:1002200044594E50442F4645415455524500434F82
:100230004E464947090052465F53455455500052B7
:10024000465F43480900454E5F52584144445200BE
:10025000454E5F4141090052585F50575F50302D65
:10026000360054585F41444452090052585F41449B
:1002700044525F50322D350052585F414444525F22
:1002800050302D31005072657400436F6E6E65788A
:10029000696F6E206D65736820636F6D706C657437
:1002A0006500436F6E6E6578696F6E206D6573686B
:1002B0002061766563206E6F646549642000444860
:1002C00054204572726F723A00000000002300262D
:1002D00000290004040404040404040202020202CB
:1002E00002030303030303010204081020408001FA
:1002F0000204081020010204081020000102030477
:10030000051112131415160A0B0C0D0E0F0D0A0011
:10031000253032780020307800255309203D000D2B
:100320000A002030782530327800255309203D001E
:1003300000000000240027002A00AB231B1E11240C
:100340001FBECFEFD8E0DEBFCDBF11E0A0E0B1E02F
:10035000ECE5F7E502C005900D92A238B107D9F798
:1003600025E0A2E8B1E001C01D92AA31B207E1F791
:1003700011E0CEE9D1E004C02197FE010E94492B93
:10038000CD39D107C9F70E941C1E0C94A12B0C94E7
:1003900000000895FC0121893289232B71F420E0AB
:1003A00030E040E251E462817381848195810E9452
:1003B000AC2A0E94C429CB0108958FEF90E00895E4
:1003C000FC0121893289232B71F420E030E040E2E6
:1003D00051E466817781808591850E94AC2A0E94D4
:1003E000C429CB01089580E090E80895FC0145817F
:1003F000568167817085DB01CA0189549D40A1093E
:10040000B10983369105A105B10540F081E04E3B6D
:100410005A406105710518F080E0089581E0089563
:10042000FC0145815681678170854934FDE05F0795
:100430006105710528F1433D8FE05807610571059D
:1004400008F046C04B30EFE05E0761057105E0F54E
:100450004334FEE05F0761057105C0F19A01AB010D
:100460002055310941095109A0E7BEEF0E94E0285B
:100470002DE330EF4FEF5FEF0E94B32880E522C0FD
:10048000DB01CA0180589C40A109B109893C910552
:10049000A105B105E8F0433A8AE058076105710506
:1004A000C8F09A01AB012456310941095109A7E866
:1004B000BEEF0E94E02824EE33EF4FEF5FEF0E9483
:1004C000B32884E6820F089580E508958FE00895AB
:1004D00084E6089580E00895FC0165817681878136
:1004E00090850895FC01848595850895FC01828599
:1004F000938508958F929F92AF92BF92EF92FF9251
:100500000F931F93CF93DF93CDB7DEB72A970FB624
:10051000F894DEBF0FBECDBFFC017A876987262F16
:10052000372F2F3F8FEF380711F482811CC0211520
:10053000310509F464C0808191810097B1F455813F
:1005400040E001C04F5F451709F456C0A381B48154
:10055000A80FB91F039611966D917C91129762179F
:10056000730781F78C9190E04CC08432994009F474
:1005700043C07F011C821B82809104019091050180
:100580009C012F5F3F4F30930501209304019E8310
:100590008D8386EC8F8308E310E022E030E0AE012B
:1005A000475F5F4FBE016F5F7F4F808591850E94DF
:1005B000680F882309F10E9478134B015C01F70151
:1005C000808591850E94A30D863C71F00E9478136E
:1005D000DC01CB0188199909AA09BB098E3791055D
:1005E000A105B10560F308C0D7011896ED91FC9103
:1005F00019978785908905C08FEF9FEF02C080E033
:1006000090E02A960FB6F894DEBF0FBECDBFDF9103
:10061000CF911F910F91FF90EF90BF90AF909F905F
:100620008F9008954F925F926F927F92AF92BF9298
:10063000DF92EF92FF920F931F93CF93DF93CDB78B
:10064000DEB729970FB6F894DEBF0FBECDBF7C0191
:10065000DC0118968D919C9119970E94A30DD82EBC
:10066000F701808191818432994009F4CFC023EC55
:10067000D21204C081E0D7011A968C93F7018281CF
:100680008111C4C08D2D8D7F843C09F09EC00084F3
:10069000F185E02D5F0127E0A20EB11C87819085D6
:1006A00092878187978584ECD81278C09987D70183
:1006B00012968C911297811118C015964C9120E0DA
:1006C00030E0841709F44BC0D7011396ED91FC91EB
:1006D0001497E20FF31F2D5F3F4F5081591303C052
:1006E000818192814DC08F5FECCF992309F446C080
:1006F0001C821B8280910401909105019C012F5F57
:100700003F4F30930501209304019E838D83DF8248
:1007100008E310E022E030E0AE01475F5F4FBE012A
:100720006F5F7F4FCF010E94680F8823C1F00E9446
:1007300078132B013C01F701808591850E94A30D60
:10074000843C81F00E947813DC01CB018419950967
:10075000A609B70987399105A105B10560F38FEFA7
:100760009FEF0EC0D7011896ED91FC9119978785E0
:10077000908997FF05C08EEF9FEF02C080E090E068
:100780009A83898308E310E022E030E0AE014F5FF6
:100790005F4FB501F7018085918514C0692F70E026
:1007A000C7010E947A029A83898308E310E022E05D
:1007B00030E0AE014F5F5F4FB501D70118968D91C4
:1007C0009C9119970E94680F21C0B5ECDB121EC0E6
:1007D000F701A085B18580E0F70195818917B0F414
:1007E000F70123813481F90193E0899FE00DF11D28
:1007F00011244181528117962D913C9118974217EF
:10080000530711F4128211828F5FE6CF8D2D299646
:100810000FB6F894DEBF0FBECDBFDF91CF911F9111
:100820000F91FF90EF90DF90BF90AF907F906F900F
:100830005F904F9008950C945227CF93C82F682F44
:1008400086E592E00E94AF108C2FCC0F990BCF91D0
:100850000895FC0120813181828193812817390715
:1008600019F0822F0C9488120895CF93DF93EC0136
:100870009CB59F7D9CBD9CB5937F9CBD9CB59C7F8A
:100880009CBD9DB591609DBD8A810E9488128C8916
:100890009D89DF91CF910C94101361E00C94350485
:1008A00060E00C9435048EBD00000DB407FEFDCF52
:1008B0008EB50895EF92FF921F93CF93DF931F920F
:1008C000CDB7DEB77C0169830E9450046981862F11
:1008D0000E945304182FC7010E944D04812F0F90CE
:1008E000DF91CF911F91FF90EF90089561EE0C94EE
:1008F0005A04EF92FF921F93CF93DF9300D0CDB7AE
:10090000DEB77C014A8369830E9450046981862F87
:100910008F7180620E945304182F4A81842F0E9495
:100920005304C7010E944D04812F0F900F90DF9157
:10093000CF911F91FF90EF900895CF92DF92EF92A9
:10094000FF920F931F93CF93DF9300D01F92CDB7E9
:10095000DEB77C01142F2A835B8369830E945004D5
:100960006981862F8F7180620E945304082FC12EE7
:100970005B81D52E2A81120F1C1531F0F601819171
:100980006F010E945304F8CFC7010E944D04802FCD
:100990000F900F900F90DF91CF911F910F91FF90CB
:1009A000EF90DF90CF900895EF92FF921F93CF9337
:1009B000DF931F92CDB7DEB77C0169830E9450049C
:1009C0006981862F8F710E9453048FEF0E94530418
:1009D000182FC7010E944D04812F0F90DF91CF91F6
:1009E0001F91FF90EF9008952F923F924F925F9248
:1009F0006F927F928F929F92AF92BF92CF92DF922F
:100A0000EF92FF920F931F93CF93DF93CDB7DEB793
:100A100068970FB6F894DEBF0FBECDBF7C012A01E8
:100A20003B0167E1DC0116968D919C9117970E941E
:100A3000D40480FD03C080E090E072C1F70186819C
:100A400097810E94EF09D7011896ED91FC911997B3
:100A500082A5826082A76AE070E080E090E00E9458
:100A60003E1364E279E0F701808591850E940819C0
:100A700084E299E0D7018D939C930E9478134B01F7
:100A80005C01212C312CE0E4F0E0FC87EB878091C5
:100A90000401909105019C012F5F3F4F30930501A8
:100AA000209304019E878D87F2ECFF87D70118966B
:100AB0008D919C911997FC0122A933A93A87298726
:100AC000332089F0232D30E021503109A901440F52
:100AD000551F240F351F01E010E002C0000F111F49
:100AE0002A95E2F702C000E010E020E030E040E0AC
:100AF00050E0BE01675F7F4F0E94680F0E9478132D
:100B0000698B7A8B8B8B9C8BD12CD70118968D910E
:100B10009C9119970E94A30D823C99F4FE01319695
:100B2000ED0DF11DED0DF11DD70118968D919C91E4
:100B30001997DC0117968D919C911897918380836A
:100B4000D3940E947813DC01CB0129893A894B891F
:100B50005C89821B930BA40BB50BC897A105B1054B
:100B600020F433E03D1588F633C0D11031C00E9427
:100B70007813DC01CB0188199909AA09BB09481629
:100B800059066A067B0608F456CF222D30E02F5F07
:100B90003F4F832D90E00196289FB001299F700D53
:100BA000389F700D1124675E7F4F660F771F072EE9
:100BB000000C880B990B0E943E1381E0830D83701B
:100BC000382E81E0820D6AE00E94292B292E5BCF0E
:100BD000C12C198ACD1408F046C043EC4F87D701C9
:100BE00012968C911297888BFE013196EC0DF11DB7
:100BF000EC0DF11D008111811C870B8720E030E096
:100C000040E050E0BE01675F7F4F18968D919C9148
:100C100019970E94680F0E9478136D8B7E8B8F8BC3
:100C2000988F0E947813DC01CB012D893E894F8972
:100C3000588D821B930BA40BB50B813E9105A1052A
:100C4000B10548F4F701808591850E94A30D898B39
:100C5000803839F7CD2C65E070E080E090E00E94AC
:100C60003E13C394B7CF3989303809F080CFD7010C
:100C70001896ED91FC91199787859089009709F452
:100C800076CF368512962C91321371CFF70191836E
:100C90008083868197810E94EF096AE070E080E09E
:100CA00090E00E943E13D7016D917C9111971896A8
:100CB0008D919C9119970E940819F70160817181AB
:100CC000C7010E947A02D70112962C9130E0821758
:100CD0009307E1F0F70160817181C7010E947A02F8
:100CE000D70112962C91129730E08217930771F07A
:100CF00064E279E018968D919C9119970E940819E9
:100D000084E299E0F7019183808331CFD70118966F
:100D1000ED91FC91199782A58D7F82A78D919C9171
:100D200068960FB6F894DEBF0FBECDBFDF91CF91AE
:100D30001F910F91FF90EF90DF90CF90BF90AF90F9
:100D40009F908F907F906F905F904F903F902F90EB
:100D50000895CF92DF92EF92FF920F931F93CF935C
:100D6000DF93CDB7DEB728970FB6F894DEBF0FBE7E
:100D7000CDBF7C0184E0D82E92E8C92EDA94DD2024
:100D8000F1F1F7018081918184329940C1F1C7016D
:100D90000E94120367E1F701868197810E94D404C3
:100DA00081FD07C0F70180859185FC0122A520FF08
:100DB00002C081E02AC01C821B8220910401309174
:100DC0000501A9014F5F5F4F509305014093040156
:100DD0003E832D83CF8208E310E020E030E040E046
:100DE00050E0BE016F5F7F4F0E94680F81110DC000
:100DF00067E670E080E090E00E943E13BFCFF7010D
:100E0000868197810E94EF0980E028960FB6F894BA
:100E1000DEBF0FBECDBFDF91CF911F910F91FF902D
:100E2000EF90DF90CF90089508952F923F924F92C8
:100E30005F926F927F928F929F92AF92BF92CF926A
:100E4000DF92EF92FF920F931F93CF93DF93CDB773
:100E5000DEB7C254D1090FB6F894DEBF0FBECDBFC6
:100E6000809100018823D1F187E080931C0381E009
:100E700090E090931E0380931D03E0911803F0917E
:100E8000190380E1AFE1B3E001900D928A95E1F79B
:100E90001FE028E130E044E46CE173E080911A0344
:100EA00090911B030E948E1A811114C080911A0325
:100EB00090911B030E94A90681110AC040ED57E0E2
:100EC00060E070E080911A0390911B030E94F4048B
:100ED0001150F9F686EB90E00E942D180E947813CD
:100EE0001B012C018FEF92E00E941002843619F44E
:100EF00080E49CE902C088EE93E022961FAE229720
:100F0000E12C28ECF22E4C01A12CB12C3AE9C32E95
:100F1000D12C0E947813DC01CB0182199309A4091A
:100F2000B50988159905AA05BB0508F00DC184E02F
:100F3000E81611F0E39417C02296EFAD2297EE2346
:100F400011F0F39401C0FA94F4E1FF1639F084EB48
:100F5000F81208C022961FAE229704C0E1E0229644
:100F6000EFAF2297E12C0F2D10E061E086E00E94A8
:100F7000D4120115110511F460E004C00F3F1105F2
:100F800029F461E086E00E94881243C0EDEDF0E0B4
:100F900084918330F9F048F48130B9F08230A1F5C2
:100FA00084B5806284BDF8BC34C08730E9F08830F5
:100FB00019F1843049F5809180008062809380002F
:100FC00010938B0000938A0024C084B5806884BD90
:100FD000F7BC1FC0809180008068809380001093D0
:100FE00089000093880015C08091B00080688093CC
:100FF000B000F092B3000DC08091B0008062809389
:10100000B000F092B40005C0003811050CF0B9CF63
:10101000B3CF8CE493E00E9412036090330470908D
:101020003404F9E96F16F3E07F0609F008F46AC0AA
:1010300020919F030091A1031091A203243609F08F
:1010400043C0A8010134110510F040E450E063EA08
:1010500073E0CE0101960E94542B86EF9FEF801B18
:10106000910B680E791E7092340460923304A601CD
:10107000401B510BB8016D557C4F89E993E00E94EC
:101080005D2B1C81123008F444CF109301011093A2
:101090004E0389E090E00E949D28181729F0612FE7
:1010A00089E090E00E94A52848EE53E060E070E0FF
:1010B0008CE493E00E94F4041092000187E990E030
:1010C0000E940C18812F1BC086EF9FEF801B910B95
:1010D000680E791E7092340460923304A601401B9E
:1010E000510BB8016D557C4F89E993E023962FAFE2
:1010F00023970E945D2B23962FAD2397822F0E946A
:10110000241D07CF8CE493E00E94A906811101CF32
:101110004CED55E060E070E08CE493E00E94F40454
:10112000892B09F0F6CE83E890E00E942D180E94EA
:101130002E1C86ED94E00E94BB094FE361E086ED32
:1011400094E00E947904E5CE8091E504882359F06B
:1011500088E690E00E940C188091E50490E00E94DF
:10116000F51B1092E50461E086E0CE5BDF4F0FB621
:10117000F894DEBF0FBECDBFDF91CF911F910F91CD
:10118000FF90EF90DF90CF90BF90AF909F908F90A7
:101190007F906F905F904F903F902F900C948812AB
:1011A0001F920F920FB60F9211248F939F938091ED
:1011B000020190910301892B31F481E090E090933A
:1011C0000301809302019F918F910F900FBE0F90AA
:1011D0001F901895CF93DF93DC01FB01EC01C359FD
:1011E000DE4F688179812296988182814081518188
:1011F000823028F0BA0181E0838390E027C0ED01BE
:10120000C059DE4F28813981EA01C223D323D29607
:101210000D90BC91A02DCA17DB07C1F4C9018095C0
:10122000909563E0880F991F6A95E1F784239523D1
:10123000892B51F083E0220F331F8A95E1F7276055
:10124000BA016223732301C0BA0195E07183608300
:10125000928381E0DF91CF910895CF93DF93CDB753
:10126000DEB728970FB6F894DEBF0FBECDBFAC0136
:101270009CEC99839A839B839C839D831E821F820F
:1012800018869A01E1E021153105C9F0611103C00A
:101290004115510569F4D901A770BB27A45FBE4F62
:1012A0008C91A1E0B0E0AC0FBD1FAE0FB11D8C93CF
:1012B00083E0369527958A95E1F7EF5FE4CF6111DA
:1012C00002C0452B39F4E62FF0E0E45FFE4F808149
:1012D000898305C0F0E0E55FFE4F80818A83298124
:1012E0003A814B815C816D817E818F8198852896C2
:1012F0000FB6F894DEBF0FBECDBFDF91CF9108953A
:10130000EF92FF920F931F93CF938C017B0166E0C6
:101310000E94D404C82FC77D82E0E816F10431F49E
:10132000C0628BE990E0A0E0B0E00DC0EA94EF2845
:1013300029F085E590E0A0E0B0E005C0C86081E458
:1013400090E0A0E0B0E0F801808B918BA28BB38B92
:101350004C2F66E0C8010E94790466E0C8010E9433
:10136000D40491E08C1390E0892FCF911F910F91BD
:10137000FF90EF900895CF93DF93EC016DE10E9411
:10138000D404482F44606DE1CE010E9479046CE1E1
:10139000CE010E94D404482F4F636CE1CE010E941D
:1013A000790481E08887DF91CF910895CF93DF930F
:1013B000EC0160E00E94D40481FD0EC0482F426021
:1013C00060E0CE010E94790465E070E080E090E08A
:1013D000DF91CF910C943E13DF91CF910895CF937D
:1013E000DF93EC0160E00E942904888999890E94BA
:1013F00010136DE1CE010E94D40481FF07C08889DB
:1014000099890E941013CE010E94760460E0CE01FB
:101410000E94D404482F4E7F60E0CE010E947904E0
:1014200062E0CE010E94D404EBEFF2E0E49141E0EF
:1014300050E001C0440FEA95EAF7482B62E0CE0184
:10144000DF91CF910C9479044F925F926F927F92CB
:10145000AF92BF92CF92DF92EF92FF920F931F93C2
:10146000CF93DF93CDB7DEB728970FB6F894DEBFE2
:101470000FBECDBF8C01CB01D22E642F0E942D094F
:1014800029013A015B017C01F80182A582FD04C0BB
:1014900087A590A90E94EF09F80187A590A9DD20F2
:1014A00011F060E001C061E00E94F318F801C7A4E8
:1014B000D0A849825A826B827C82AD82BE82EF8242
:1014C000F886F6012685AE014F5F5F4F6AE0C601E0
:1014D0000E949D04F6012685AE014F5F5F4F60E1DB
:1014E000C6010E949D04F601478161E1C6010E9488
:1014F0007904F801B4A8C7A4D0A80E9478132B01DE
:101500003C016FEFC6010E945A0480FF1EC06FEFBE
:10151000C6010E945A0484FF06C040E167E0C6018C
:101520000E94790410C00E947813DC01CB01841959
:101530009509A609B70980369105A105B10508F3FB
:1015400081E0F6018787F12C30C0F601F780EF2C9F
:10155000BF1408F4EB2CF6018085811102C0FE183F
:1015600001C0F12CC6010E94500480EA0E9453047D
:101570005801F7E0AF0EB11CEA0CEA1431F0F501A6
:1015800081915F010E945304F8CFFF2029F080E091
:101590000E945304FA94F9CFC6010E944D0461E001
:1015A000C6010E942904FF24F394F80182A582FD5C
:1015B0000FC0418152816381748187A590A90E94E7
:1015C0001F1AF82E60E0F80187A590A90E94F31871
:1015D0008F2D28960FB6F894DEBF0FBECDBFDF91DA
:1015E000CF911F910F91FF90EF90DF90CF90BF9020
:1015F000AF907F906F905F904F9008958F929F92E1
:10160000AF92BF92CF92DF92EF92FF920F931F9310
:10161000CF93DF93EC017B01CCA8D12C860108503D
:101620001109DB0116969C918CE6890F833020F01E
:10163000983C09F0CFC003C0943909F4E4C08BE6AC
:10164000890F823018F0983C09F08EC06E0159ED78
:10165000C50ED11CD6012D913C91A801420F531FFC
:101660004139510520F0C852DF4F1882B1C05E01E8
:10167000B8EDAB0EB11CF5018081882309F415C1CA
:10168000963929F0D70117969C919813A1C0FE01B5
:10169000EB52FF4F40815181F701848195814817BA
:1016A000590709F095C04E01FBED8F0E911CD40136
:1016B0008D919C91A801BE01615F7F4F820F931FA6
:1016C0000E94542BF60180819181080F191F11830C
:1016D0000083D70116968C91863929F0F501808117
:1016E0008150808373C0D5011C92F7018781FE0170
:1016F000E952FF4F8083833809F483C07E01FFECF9
:10170000EF0EF11CF701A081B181CE018A1B9B0B6A
:101710008B539F4F80179107F8F032968AE0019023
:101720000D928A95E1F7D7018D919C91F40160812A
:101730007181D6014D915C910A960E94542BF6015D
:10174000808191810A96D7012D913C911197820F4A
:10175000931F8D939C933AC08FA598A90E94EF097F
:101760008AA581608AA734C07E01BFECEB0EF11C14
:10177000F701A081B181CE01C5969D01281B390BCF
:10178000C901800F911F8B39910510F5E85CF109B3
:1017900088E001900D928A95E1F7D701ED91FC91D7
:1017A0001197118700878D919C91BE01615F7F4FDA
:1017B000A8010A960E94542BB2E0CB0ED11CF7016F
:1017C00080819181C80ED91ED182C08281E06DC016
:1017D00080E06BC0933841F6DE01AF52BF4FFE018F
:1017E000379688E001900D928A95E1F7FE01E55267
:1017F000FF4FCE010F9691838083C752DF4F19832D
:10180000088382E052C0F7018781873008F02BCF30
:10181000FE01EB52FF4F40815181D70114962D916B
:101820003C91159734976F014217530739F4408163
:1018300051812D913C914217530741F2F8E18F9F5E
:10184000C0011124FE01E153FF4F20813181AE011F
:10185000421B530B9A012B533F4F281739073CF477
:101860008AA581608AA78FA598A90E94EF09FE0129
:10187000379688E0D60101900D928A95E1F7FE0136
:10188000E552FF4FBE01615F7F4FA80180819181CA
:101890000E94542BFE01E752FF4F11830083C85270
:1018A000DF4F88818150888391CFDF91CF911F9145
:1018B0000F91FF90EF90DF90CF90BF90AF909F90EF
:1018C0008F900895CF93DF93EC010E94D60960E0DA
:1018D000CE010E94D404482F416060E0CE010E94F6
:1018E000790440E767E0CE010E94790461E0CE010F
:1018F0000E9429048985882349F02E85AE01475F1F
:101900005F4F6AE0CE010E949D0414C062E0CE01E8
:101910000E94D404EBEFF2E0E49121E030E001C05A
:10192000220FEA95EAF72095422F482362E0CE0184
:101930000E9479046DE1CE010E94D40481FF05C0AC
:10194000CE01DF91CF910C947604DF91CF91089571
:10195000CF92DF92EF92FF920F931F93CF93DF937B
:1019600000D000D0CDB7DEB7FC0195859B012115D5
:10197000310561F0822F8770863030F483E0369530
:1019800027958A95E1F7F3CF80E097C09154EE2434
:10199000E3949F3708F0E12CF42E6B018F0119823C
:1019A0001A821B821C827A8369834B83BE016F5F1C
:1019B0007F4FCF010E94EA0869817A812C814B8197
:1019C000C8010E94240AF1E0FF1227C0811102C061
:1019D000F12C6AC089819A818C159D0501F5EE2054
:1019E000F1F081ECF8018587878190859287818766
:1019F0009A838983FB821C82BE016F5F7F4FC8017F
:101A00000E94EA0888E0F80184AB69817A812C8120
:101A10004B81C8010E94240A02C08823C9F289812F
:101A20009A818C159D0519F4FF24F3943DC0FF2085
:101A300019F0F3E0FF12F8CFEE20B1F3F80182A520
:101A400082FF11C0418152816381748187A590A971
:101A50000E941F1AF80182A58B7F82A760E087A5EC
:101A600090A90E94F318F80187A590A90E94620C22
:101A70000E9478136B017C01C8010E94A30D813C78
:101A800099F20E947813AB01BC014C195D096E09F3
:101A90007F09F80185819681A0E0B0E08417950761
:101AA000A607B70748F794CFF80182A582FD04C0C6
:101AB00087A590A90E94620C8F2D0F900F900F9018
:101AC0000F90DF91CF911F910F91FF90EF90DF90DA
:101AD000CF900895EF92FF920F931F93CF93DF93D0
:101AE000EC017B01BA018AA99BA9F701918380834C
:101AF000DE01179688E001900D928A95E1F7211595
:101B0000310529F0A901CE010F960E94542BF7014F
:101B1000628173810833110561F06034710511F43D
:101B200044E001C043E06017710709F442E0B801E6
:101B300001C040E0CE01DF91CF911F910F91FF9046
:101B4000EF900C94A80C2F923F924F925F926F925D
:101B50007F928F929F92AF92BF92CF92DF92EF923D
:101B6000FF920F931F93CF93DF9300D01F92CDB7B7
:101B7000DEB7DC019A969C919A97892F827091FD2D
:101B800019C0FD01E153FF4FAD014B5C5F4F90FD6C
:101B900007C020813181241B350B2937310554F0D2
:101BA000208131814217530708F47CC19E7F9A96A9
:101BB0009C939A97BB83AA830E9478132B013C01C4
:101BC00010E0CA80DB8027E0C20ED11C2A803B8057
:101BD00031E9231A3EEF330AF4E2AF2EF9E0BF2ECB
:101BE000EA81FB81E7A4F0A8F701808191818F3F12
:101BF000910529F1828193818F3F910501F167E180
:101C0000C7010E94D404082F017080FD18C06FEF37
:101C1000C7010E945A040E947813DC01CB01841989
:101C20009509A609B709EA81FB81E7A4F0A8893ED6
:101C30009340A105B10528F081E0F7018787812F46
:101C400031C1C7010E94500480E60E9453048FEF07
:101C50000E945304982EC7010E944D04F0E2F9152A
:101C600058F462EEC7010E945A0462E070E080E01E
:101C700090E00E943E1301C0092DEA81FB8104AB74
:101C8000083038F46AE070E080E090E00E943E1393
:101C9000A7CFEA81FB81E7A4F0A8F701878180172D
:101CA00008F4082FF7019085911103C0801B8983E8
:101CB00001C01982C7010E94500481E60E945304AA
:101CC0004601015038F08FEF0E945304F4018193D4
:101CD0004F01F7CF0981002329F08FEF0E945304B1
:101CE0000150F9CFC7010E944D0440E767E0C701EA
:101CF0000E947904EA81FB8161857285CB0100979E
:101D000059F0282F2770263008F06ACFE3E0969527
:101D10008795EA95E1F7F3CFEA81FB81158582A9E2
:101D200093A96817790709F043C0123809F458CF0E
:101D3000103891F464327940F1F0EA81FB81B28687
:101D4000A18642E064E279E0CF010E94A80C6AE03B
:101D500070E080E090E049C0133C69F461157105C2
:101D600051F0EA81FB81708767831286118640E01B
:101D700060E070E041C0EA81FB8181A5882319F011
:101D800017FF0CC002C0113C49F48CE6810F833070
:101D900028F0183C19F0133809F051CFB6018A81A8
:101DA0009B810E94FE0A823009F01ACF83E87AC034
:101DB0006034710509F070C0123C01F5EA81FB81C5
:101DC00022A523FD0DCF8432F9E09F0709F408CF47
:101DD000EA81FB812781308532872187908787833D
:101DE000F101608170E080E090E00E943E13EA81A2
:101DF000FB816185728542E0CF0151C0B6018A81C5
:101E00009B810E94FE0A082FEA81FB818081882342
:101E100009F43EC022A933A9C90153E096958795DC
:101E20005A95E1F7892B21F08CEB92E10197F1F7BC
:101E3000C901837099279C0148E552E0249FC001A5
:101E4000259F900D349F900D11240E941013EA815C
:101E5000FB8121A9222381F030E021503109C90101
:101E6000880F991F280F391F61E070E002C0660FCC
:101E7000771F2A95E2F702C060E070E083E0660F0A
:101E8000771F8A95E1F744E08A819B810E94A80C24
:101E9000023009F0A5CE8ACF41E08A819B810E9461
:101EA000A80C9ECE0F900F900F90DF91CF911F91B5
:101EB0000F91FF90EF90DF90CF90BF90AF909F90E9
:101EC0008F907F906F905F904F903F902F900895EC
:101ED0002F923F924F925F926F927F928F929F923A
:101EE000AF92BF92CF92DF92EF92FF920F931F9328
:101EF000CF93DF93EC017B015A01690148010E94F5
:101F000078134BA45CA46DA47EA4DC01CB018419DE
:101F10009509A609B7094997A105B10528F4CE018D
:101F20000E94A30D87FFEBCF8CE891E00197F1F7BA
:101F300089E1C816D104B0F488E08C0D8CAB840123
:101F40009601A501B701CE010E946A0D182F8823C2
:101F500011F011E092C00E9478136BA77CA78DA7A7
:101F60009EA78BC0E1E9CE16D10408F085C0C6015A
:101F700068E170E00E94352B21E0892B09F420E014
:101F8000C60168E170E00E94352B722E760EF701D3
:101F9000828193818034910539F08AA584608AA773
:101FA0008FA598A90E94EF09F7014680512C612C5A
:101FB00084E9282E96E9392EF7017782F1E07F1225
:101FC00004C0F7013682478208C0611003C0F701E0
:101FD000268203C085E9F7018683E8E16E9EA001B1
:101FE00011249601241B350B2931310510F028E10D
:101FF00030E088E0820F8CAB4A0D5B1D8401B70195
:10200000CE010E946A0D182F81110BC062E070E0B2
:1020100080E090E00E943E135394F2E0F51560F6E4
:1020200006C07A946394772011F0512CC5CFF70144
:1020300046828AA582FF12C049815A816B817C81C8
:102040008FA598A90E941F1A182F8FA598A90E94E2
:10205000620C60E08FA598A90E94F3188AA58B7F77
:102060008AA7112349F0772009F473CF0E947813CF
:102070006BA77CA78DA79EA710E0812FDF91CF9142
:102080001F910F91FF90EF90DF90CF90BF90AF9096
:102090009F908F907F906F905F904F903F902F9088
:1020A0000895FC01538D448D252F30E0842F90E05E
:1020B000821B930B541710F0CF9608950197089543
:1020C000FC01918D828D981761F0828DDF01A80F40
:1020D000B11D5D968C91928D9F5F9F73928F90E062
:1020E00008958FEF9FEF0895FC01918D828D9817D1
:1020F00031F0828DE80FF11D858D90E008958FEF0E
:102100009FEF0895FC01918D228D892F90E0805CD6
:102110009F4F821B91098F7399270895FC01848D2D
:10212000DF01A80FB11DA35ABF4F2C91848D90E001
:1021300001968F739927848FA689B7892C93A089DC
:10214000B1898C9180648C93938D848D981306C093
:102150000288F389E02D80818F7D80830895EF923E
:10216000FF920F931F93CF93DF93EC0181E0888F51
:102170009B8D8C8D981305C0E889F989808185FD38
:1021800024C0F62E0B8D10E00F5F1F4F0F73112729
:10219000E02E8C8DE8120CC00FB607FCFACFE88950
:1021A000F989808185FFF5CFCE010E948E10F1CF95
:1021B0008B8DFE01E80FF11DE35AFF4FF0820B8F6C
:1021C000EA89FB898081806207C0EE89FF8960838C
:1021D000E889F98980818064808381E090E0DF91E3
:1021E000CF911F910F91FF90EF900895CF93DF93C0
:1021F000EC01888D8823C9F0EA89FB89808185FDFF
:1022000005C0A889B9898C9186FD0FC00FB607FC5F
:10221000F5CF808185FFF2CFA889B9898C9185FFA0
:10222000EDCFCE010E948E10E7CFDF91CF910895C0
:1022300080E090E0892B29F00E94F01781110C9426
:102240000000089585ED8093BC008091BC0084FD62
:10225000FCCF1092310208954091A401262F30E066
:10226000240F311D21323105DCF42091310224305C
:10227000C9F4FC0180E090E0861758F43091A40185
:102280002191DC01AE57BE4FA30FB11D2C930196D7
:10229000F3CF8091A401680F6093A40180E00895BA
:1022A00081E0089582E008950895E091D30180913E
:1022B000D201E81730F4F0E0E551FE4F808190E064
:1022C00008958FEF9FEF08959091D3018091D201EF
:1022D000981750F4E92FF0E0E551FE4F208130E0EF
:1022E0009F5F9093D30102C02FEF3FEFC901089584
:1022F0008091D20190E02091D301821B9109089531
:10230000CF92DF92EF92FF920F931F93CF93DF93C1
:102310007C01262F972F8A0180913202882391F029
:10232000C62FD72F6E01C40ED51ECC15DD0571F05A
:102330006991D701ED91FC910190F081E02DC701E9
:102340000995F3CF642F822F0E942C11C801DF91D1
:10235000CF911F910F91FF90EF90DF90CF90089554
:10236000CF93DF931F92CDB7DEB7698320913202FE
:102370002223D1F020915502203240F021E030E0BC
:10238000FC013383228380E090E015C0809133020A
:10239000E82FF0E0EC5CFD4F998190838F5F809394
:1023A00033028093550205C061E0CE0101960E9480
:1023B0002C1181E090E00F90DF91CF910895089566
:1023C00080E090E008950F931F93CF93DF938C01EB
:1023D000EB0188E2FB0111928A95E9F74BE050E0AE
:1023E0006DE671E0CE010E946F2B1B8681E090E0CC
:1023F000A0E0B0E08C879D87AE87BF87F80183811E
:102400009481A581B681888B998BAA8BBB8B86E042
:1024100090E0A0E0B0E08C8B9D8BAE8BBF8B1CA2BC
:102420001DA21EA21FA280E090E8A9E8B4E4888F54
:10243000998FAA8FBB8F80E090E0A6E9B3E48C8FE0
:102440009D8FAE8FBF8F8AE097EDA3E2BCE388A398
:1024500099A3AAA3BBA3DF91CF911F910F910895D8
:102460001F920F920FB60F9211242F933F934F9309
:102470005F936F937F938F939F93AF93BF93EF93EC
:10248000FF9386E592E00E948E10FF91EF91BF913D
:10249000AF919F918F917F916F915F914F913F91FC
:1024A0002F910F900FBE0F901F9018951F920F92B3
:1024B0000FB60F9211242F938F939F93EF93FF9357
:1024C000E0916602F09167028081E0916C02F091E8
:1024D0006D0282FD12C0908180916F028F5F8F73B9
:1024E00020917002821751F0E0916F02F0E0EA5AF9
:1024F000FD4F958F80936F0201C08081FF91EF9116
:102500009F918F912F910F900FBE0F901F90189554
:1025100090E0FC01E952FF4F3491FC01E951FD4F7D
:102520002491FC01ED52FD4FE491EE2309F43BC0F0
:10253000332339F1333091F038F43130A9F03230AF
:1025400001F584B58F7D12C0373091F03830A1F09D
:102550003430B9F4809180008F7D03C08091800079
:102560008F77809380000DC084B58F7784BD09C0BC
:102570008091B0008F7703C08091B0008F7D8093F1
:10258000B000F0E0EE0FFF1FE353FF4FA591B491B1
:102590008FB7F894EC91611103C020952E2301C0F0
:1025A0002E2B2C938FBF0895CF93DF9390E0FC01E7
:1025B000E951FD4F2491FC01ED52FD4F8491882398
:1025C00061F190E0880F991FFC01E05DFC4FC5911F
:1025D000D491FC01E353FF4FA591B491611109C05F
:1025E0009FB7F8948881209582238883EC912E23CD
:1025F0000BC0623061F49FB7F8943881822F8095C8
:1026000083238883EC912E2B2C939FBF06C08FB71A
:10261000F894E8812E2B28838FBFDF91CF91089506
:102620008330910528F0880F991F04970197F1F7DF
:1026300008953FB7F8948091CE019091CF01A09179
:10264000D001B091D10126B5A89B05C02F3F19F04C
:102650000196A11DB11D3FBFBA2FA92F982F882722
:10266000820F911DA11DB11DBC01CD0143E0660F7C
:10267000771F881F991F4A95D1F708958F929F92CF
:10268000AF92BF92CF92DF92EF92FF926B017C01EB
:102690000E9419134B015C01C114D104E104F1043F
:1026A000F1F00E941913DC01CB0188199909AA09DC
:1026B000BB09883E9340A105B10570F321E0C21A21
:1026C000D108E108F10888EE880E83E0981EA11C6D
:1026D000B11CC114D104E104F10419F7DDCFFF905E
:1026E000EF90DF90CF90BF90AF909F908F90089524
:1026F0002FB7F8946091CA017091CB018091CC0101
:102700009091CD012FBF08951F920F920FB60F9297
:1027100011242F933F938F939F93AF93BF938091F7
:10272000CA019091CB01A091CC01B091CD01309123
:10273000C90126E0230F2D3720F40296A11DB11DFB
:1027400005C029E8230F0396A11DB11D2093C901DF
:102750008093CA019093CB01A093CC01B093CD019B
:102760008091CE019091CF01A091D001B091D10183
:102770000196A11DB11D8093CE019093CF01A0932E
:10278000D001B093D101BF91AF919F918F913F91B3
:102790002F910F900FBE0F901F9018951F920F92C0
:1027A0000FB60F9211242F933F934F935F936F9324
:1027B0007F938F939F93AF93BF93EF93FF938091FA
:1027C000B900887F803609F49CC068F5883209F426
:1027D0005BC090F4803109F454C038F4882309F4C4
:1027E000F6C0883009F44DC0F6C0883109F44CC0F9
:1027F000803209F45DC0EFC0803409F468C048F449
:10280000803309F455C0883309F0E5C080932F0266
:10281000D8C0803509F44FC0883509F45DC08834CC
:1028200009F0D9C0D6C0883909F4C7C0A8F48837E0
:1028300009F467C038F4883609F463C0803709F4B6
:1028400060C0C9C0883809F4B8C0803909F45FC0D5
:10285000803809F0C0C05BC0803B09F486C038F402
:10286000803A09F466C0883A09F47FC0B4C0803C5D
:1028700009F4A7C0883C09F4A4C0883B09F48AC0C5
:10288000AAC080910C0210C090912E0280912D025E
:10289000981770F5E0912E0281E08E0F80932E0242
:1028A000F0E0E35FFD4F80818093BB0085EC86C044
:1028B00080932F028EC0E0912E0281E08E0F8093D4
:1028C0002E028091BB00F0E0E35FFD4F808390918A
:1028D0002E0280912D026EC0E0912E0281E08E0FBB
:1028E00080932E028091BB00F0E0E35FFD4F808378
:1028F0008091300281116DC081E080930B0284EAE7
:1029000061C083E0809331021092C801CFCF8091E3
:10291000C801803208F051C0E091C80181E08E0FFB
:102920008093C8018091BB00F0E0E855FE4F8083A2
:10293000BDCF85EC8093BC00109231028091C8011C
:10294000803230F4E091C801F0E0E855FE4F10828B
:102950006091C80170E0E091A601F091A70188EABA
:1029600091E009951092C80136C084E0809331024D
:102970001092A5011092A401E091A201F091A3018F
:1029800009958091A401811105C081E08093A40183
:1029900010928201E091A50181E08E0F8093A50144
:1029A000F0E0EE57FE4F80818093BB009091A5012F
:1029B0008091A401981708F479CF85E88093BC0032
:1029C0000AC085EC8093BC001092310204C01092C2
:1029D0002F020E942211FF91EF91BF91AF919F9121
:1029E0008F917F916F915F914F913F912F910F90B8
:1029F0000FBE0F901F9018951F93CF93DF93EB019D
:102A000091E09093320297E7909354021092330230
:102A100010925502682F83EF92E00E94B0110E943D
:102A20003B1882E00E9498181092D3018093D20143
:102A300083EF92E00E946411182F83EF92E00E94CE
:102A4000641120E030E0312F822B932B998388830F
:102A5000DF91CF911F910C943B180F931F93CF934D
:102A6000DF9300D0CDB7DEB78C018EE20E94DA187A
:102A700065E070E080E090E00E943E13BE016F5F71
:102A80007F4F86EF0E94FC1449815A8160E070E01C
:102A9000F80140835183628373830F900F90DF911D
:102AA000CF911F910F9108950F931F93CF93DF93B1
:102AB00000D0CDB7DEB78B01BE016F5F7F4F0E94A4
:102AC000FC1489819A81F801918380830F900F9083
:102AD000DF91CF911F910F910895CF93DF93EB0179
:102AE00091E09093320297E7909354021092330250
:102AF00010925502682F83EF92E00E94B0110E945D
:102B00003B1881E00E9498181092D3018093D20163
:102B100083EF92E00E9464118883DF91CF910C943F
:102B20003B183F924F925F926F927F928F929F924B
:102B3000AF92BF92CF92DF92EF92FF920F931F93CB
:102B4000CF93DF93CDB7DEB72F970FB6F894DEBFE4
:102B50000FBECDBF8B0119821A821B821C82CE014F
:102B600001960E942D158091D4018295880F880FBF
:102B7000807C8C5C0E94DA188091D401813069F0ED
:102B800038F0823079F46EE070E080E090E00EC0C2
:102B900065E070E080E090E009C068E070E080E00F
:102BA00090E004C06AE170E080E090E00E943E1393
:102BB000BE016B5F7F4F86EF0E94FC14CD80DE80EC
:102BC000E12CF12CFE2CED2CDC2CCC24BE01695F19
:102BD0007F4F88EF0E946D153090D4018F81C80E11
:102BE000D11CE11CF11C88E090E083199109A70138
:102BF000960104C055954795379527958A95D2F744
:102C00002C873D874E875F878091DF019091E0019F
:102C100049815A816B817C819A01AB01281B390B58
:102C200041095109A091DD01B091DE010E94D22835
:102C30006B017C01AFE0F594E794D794C794AA9513
:102C4000D1F76091E7017091E801CB01770FAA0BF2
:102C5000BB0BBC01CD01BBE0660F771F881F991F1E
:102C6000BA95D1F72091E9013091EA014901330F7A
:102C7000AA08BB08A7019601280D391D4A1D5B1D36
:102C80000E94B328C20ED31EE41EF51E30EAC31AFA
:102C90003FE0D30AE108F108A7019601C701B60198
:102CA0000E94192B9B01AC018CE0559547953795F7
:102CB00027958A95D1F7288739874A875B8780903F
:102CC000D5019090D601A091D901B091DA01A70168
:102CD00096010E94DD282B013C019DE075946794CC
:102CE000579447949A95D1F7A091E101B091E201F0
:102CF000288539854A855B850E94DD28BB2797FD9D
:102D0000B095AB2F840D951DA61DB71D0296A11D74
:102D1000B11D32E0B595A795979587953A95D1F76E
:102D20009C01AD0130584F4F5F4FA091DB01B09136
:102D3000DC010E94D2282B013C014FE0769467947D
:102D4000579447944A95D1F7092C000CAA08BB0860
:102D500052E0880C991CAA1CBB1C5A95D1F7A09173
:102D6000E301B091E401288539854A855B850E949D
:102D7000DD289B01AC016BE055954795379527956C
:102D80006A95D1F7288739874A875B87A091D70151
:102D9000B091D801A70196010E94DD28DC01CB018A
:102DA0007BE0B595A795979587957A95D1F7288576
:102DB00039854A855B85820F931FA41FB51F880E36
:102DC000991EAA1EBB1E032C04C0880C991CAA1CA9
:102DD000BB1C0A94D2F732E0830E911CA11CB11CDB
:102DE000E2E0B594A79497948794EA95D1F72C855F
:102DF0003D854E855F85281939094A095B0980E5BB
:102E000093ECA0E0B0E0BC01CD0104C0959587959E
:102E1000779567953A94D2F70E94192B97FD0BC0CE
:102E2000660F771F881F991FA30192010E941C291A
:102E300069017A010AC0A30192010E941C2969015B
:102E40007A01CC0CDD1CEE1CFF1C9927F7FC9A952F
:102E50008F2D7E2D6D2D9B01AC010E94192B9B01A6
:102E6000AC01AEEDBBE00E94D2284C01BB2497FC24
:102E7000B094AB2CA3E4B3EEA70196010E94E02826
:102E8000BB2797FDB095AB2F880D991DAA1DBB1DC3
:102E90008153914FAF4FBF4F44E0B595A79597959C
:102EA00087954A95D1F7BC01CD016C0D7D1D8E1D16
:102EB0009F1D0E94FC29F8016083718382839383A4
:102EC0002F960FB6F894DEBF0FBECDBFDF91CF9126
:102ED0001F910F91FF90EF90DF90CF90BF90AF9038
:102EE0009F908F907F906F905F904F903F9008954C
:102EF0000F931F93CF93DF9300D000D0CDB7DEB7F1
:102F00008B0124E2FB0111922A95E9F744E250E09B
:102F100060E070E0F8014083518362837383FC01B9
:102F20004381548165817681F801448355836683AA
:102F3000778346E050E060E070E040875187628729
:102F40007387108A118A128A138ABE016F5F7F4FBE
:102F50000E94911520E030E048EC52E469817A81CA
:102F60008B819C810E945229F801648B758B868B22
:102F7000978B81E00F900F900F900F90DF91CF9182
:102F80001F910F910895CF92DF92EF92FF920F93CE
:102F90001F93CF93DF936C017A018B01C0E0D0E0E7
:102FA000CE15DF0589F0D8016D918D01D601ED9127
:102FB000FC910190F081E02DC6010995892B11F457
:102FC0007E0102C02196ECCFC701DF91CF911F9106
:102FD0000F91FF90EF90DF90CF9008950E944F2BBC
:102FE00086E592E00E94821021E0892B09F420E01E
:102FF000822F0895009769F0FC0101900020E9F705
:103000003197AF01481B590BBC0186E592E00C9447
:10301000C31780E090E008950F931F93CF93DF9341
:103020008C01C0E0D0E0F801EC0FFD1F6491662335
:1030300071F0E0915602F09157020190F081E02D7D
:1030400086E592E00995892B11F02196ECCFCE010F
:10305000DF91CF911F910F910895CF93DF930E943D
:103060000C18EC0189E791E00E94FA178C0F9D1F64
:10307000DF91CF9108952091550290915402213211
:1030800008F04AC0809131028111FCCF32E03093C8
:10309000310231E0309330023FEF30932F02109233
:1030A0002E0220932D02A4E3B2E04DE052E0FA019B
:1030B0003E2F341B321718F43D913193F9CF109203
:1030C0000C0220910C02990F922B90930C0290917C
:1030D0000B02913061F410920B0290910C029093CC
:1030E000BB009091BC0093FDF8CF95EC01C095EE2C
:1030F0009093BC00909131029230E1F390912F02B5
:103100009F3F79F080912F02803241F080912F0211
:10311000803331F084E005C081E003C082E001C06B
:1031200083E01092330210925502109232020895F9
:10313000909131029111FCCF91E0909331029093E4
:1031400030022FEF20932F0210922E02280F20938F
:103150002D0290930C0290910C029E6E90930C02A3
:1031600090910B02913061F410920B0290910C023D
:103170009093BB009091BC0093FDF8CF95EC01C0FB
:1031800095EE9093BC00909131029130E1F39091D3
:103190002E02981710F480912E02ADE0B2E02BEED3
:1031A00031E0F9019E2F921B981718F49D9191938D
:1031B000F9CF0895CF93C82F81E08093320287E73B
:1031C00080935402109233021092550264EF83EF01
:1031D00092E00E94B0116C2F83EF92E00E94B01138
:1031E000CF910C943B181F93CF93DF93EC01162FD4
:1031F00061E00E94D404482F112311F0416001C006
:103200004E7F61E0CE01DF91CF911F910C94790444
:103210007F928F929F92AF92BF92CF92DF92EF9266
:10322000FF920F931F93CF93DF93CDB7DEB728970D
:103230000FB6F894DEBF0FBECDBFFC019B01211578
:10324000310559F0822F8770863008F0E4C0A3E082
:1032500036952795AA95E1F7F2CF62AB73AB87A5B8
:1032600090A9DC012D913C912F3F310509F4D3C089
:10327000DC0112962D913C9113972F3F310509F4F3
:10328000CAC0E72EF62E8F0160E00E94F318F80105
:1032900087A590A90E94BB09D801D2968D919C91D7
:1032A000D39766E070E00E94352B482F440F4B5FA8
:1032B000B0E14B9FA0011124456064E0F80187A5AF
:1032C00090A90E94790489E190E0A0E0B0E0F801C3
:1032D00081839283A383B4838BE490E09683858378
:1032E00082A993A940E02FEF3FEFB901682379232A
:1032F000672B39F073E0220F331F7A95E1F74F5FA8
:10330000F4CFF80141AB20953095E059FE4F318361
:10331000208363E0369527956A95E1F73397A901F5
:1033200048235923518340832115310559F043E047
:10333000969587954A95E1F753E0369527955A95E6
:10334000E1F7F2CFF801E159FE4F808386E0782E55
:1033500088248394912C7A94FFEF7F1609F454C04B
:10336000672D8F2D9E2D0E942D09D8019F96CD90FF
:10337000DC90D09729833A834B835C836D837E8373
:103380008F839887A72CB12C71100BC0F60146854E
:1033900050E0BE016F5F7F4FC60109960E94542B1B
:1033A00003C0F1E07F1208C0F501E95FFC4F6491B2
:1033B000D6011E962C9105C0F501E95FFC4F649182
:1033C00021E0AE014F5F5F4FC6010E949D04F501F1
:1033D000EF5FFC4F6491F6014781C6010E947904BA
:1033E00062E0C6010E94D404F501E550FD4FE4916E
:1033F000940101C0220FEA95EAF7482F422B62E0C0
:10340000C6010E947904A7CFD8019F968D919C9107
:10341000D0970E94620C28960FB6F894DEBF0FBEBC
:10342000CDBFDF91CF911F910F91FF90EF90DF9073
:10343000CF90BF90AF909F908F907F9008954F92C4
:103440005F926F927F928F929F92AF92BF92CF9234
:10345000DF92EF92FF92CF93DF93EC014A015B0181
:103460000E9478136B017C01240135018FE5480E21
:10347000511C611C711C67E1CE010E94D40484FDC3
:1034800039C06FEFCE010E945A0484FF22C040E190
:1034900067E0CE010E94790460E0CE010E94290419
:1034A00061E0CE010E9429040E947813DC01CB0167
:1034B0008C199D09AE09BF0988159905AA05BB0598
:1034C00040F060E0CE010E942904CE010E94760403
:1034D0000FC00E947813DC01CB018C199D09AE0945
:1034E000BF09481659066A067B0628F681E08F87D1
:1034F00080E005C060E0CE010E94290481E0DF91F8
:10350000CF91FF90EF90DF90CF90BF90AF909F90C2
:103510008F907F906F905F904F900895AF92BF9281
:10352000CF92DF92EF92FF920F931F93CF93DF938F
:10353000CDB7DEB728970FB6F894DEBF0FBECDBF6C
:10354000DC01ED91FC91E432F94011F480E02AC0F5
:103550006901142F5B017C010E947813F7018081BF
:1035600091818432994091F31C821B8280910401E5
:10357000909105019C012F5F3F4F309305012093EF
:1035800004019E838D831F8308E310E09601A5014B
:10359000BE016F5F7F4FD70118968D919C9119974F
:1035A0000E94680F28960FB6F894DEBF0FBECDBFFD
:1035B000DF91CF911F910F91FF90EF90DF90CF900F
:1035C000BF90AF900895CF93DF93C4E128E130E03E
:1035D00040E76CE173E080911A0390911B030E9415
:1035E0008E1AD82F811114C080911A0390911B0359
:1035F0000E94A90681110AC040ED57E060E070E02A
:1036000080911A0390911B030E94F404C150F1F6BB
:103610008D2FDF91CF9108958F929F92AF92BF929D
:10362000DF92EF92FF920F931F93CF93DF93C82FF8
:10363000162F282F30E0F901E951FD4FD491F901FF
:10364000ED52FD4FE491F0E0EE0FFF1FE753FD4F09
:10365000E590F49010920605109207051092080567
:103660001092090510920A0561E00E94D41260E0F0
:103670008C2F0E948812612F70E080E090E00E9401
:103680003E1361E08C2F0E9488128CE490E0019739
:10369000F1F760E08C2F0E94D41228EC30E0F701A3
:1036A00080818D2331F421503109C9F78EEF9FEFCE
:1036B0004FC028EC30E0F70180818D2321F02150AC
:1036C0003109C9F7F3CF08E210E8D12C28EC30E03B
:1036D000F70180818D2321F421503109C9F7E6CF0C
:1036E0000E9419134B015C0128EC30E0F701808146
:1036F0008D2321F021503109C9F7D8CF0E94191329
:10370000DC01CB0188199909AA09BB098997A10590
:10371000B10538F0ED2DF0E0EC5FFA4F8281812B9E
:103720008283212F30E0359527952115310511F041
:10373000122F02C0D39410E8015041F661E08C2FA3
:103740000E94D41261E08C2F0E94881280E090E0E9
:10375000DF91CF911F910F91FF90EF90DF90BF907D
:10376000AF909F908F9008958F929F92AF92BF924B
:103770000F931F93CF93DF93CDB7DEB7A1970FB60B
:10378000F894DEBF0FBECDBF19A2423008F44AE064
:103790008E010F5D1F4F842E912CA12CB12CA50101
:1037A00094010E941C29E62FB901CA010150110998
:1037B000EA3014F4E05D01C0E95CD801EC93232BFE
:1037C000242B252B61F7C8010E94FA17A1960FB68A
:1037D000F894DEBF0FBECDBFDF91CF911F910F9147
:1037E000BF90AF909F908F900895CF92DF92EF920D
:1037F000FF92CF93DF936C01990FEE08FF08F7FE5D
:103800001AC0E0915602F09157020190F081E02D2C
:103810006DE286E592E00995EC0166277727CB01FA
:103820006C197D098E099F094AE00E94B41B7C0136
:10383000EC0EFD1E06C04AE0C701B6010E94B41B93
:103840007C0189E791E00E94FA178E0D9F1DDF91A0
:10385000CF91FF90EF90DF90CF9008951F93CF937B
:10386000DF93C0915203D0915303888199812A81BB
:103870003B818217930719F061E00E94D4128A817C
:103880009B81288139812817390719F061E00E944E
:10389000D4121FB7F89480910F05811127C0EDED68
:1038A000F2E08491E1EFF2E09491E82FF0E0EE0F86
:1038B000FF1FE05DFC4FA591B491EC91E92321F449
:1038C00061E08AE00E94881261E08AE00E94D412DE
:1038D0008CB580618CBD8CB580648CBD61E08DE061
:1038E0000E94D41261E08BE00E94D41280910F05F7
:1038F0008F5F80930F051FBF60E0CE010E942904F7
:1039000061E0CE010E94350465E070E080E090E067
:103910000E943E134CE060E0CE010E9479044FE526
:1039200064E0CE010E94790462E070E0CE010E9462
:103930008009882311F081E08E8366E0CE010E9429
:10394000D40460E070E0CE010E948009CE010E94A4
:10395000500480E50E94530483E70E945304CE0183
:103960000E944D0440E06DE1CE010E94790440E0E8
:103970006CE1CE010E947904188640E767E0CE0131
:103980000E9479044CE465E0CE010E94790462EE65
:10399000CE010E945A04CE010E947604CE010E94FC
:1039A000D60960E0CE010E94D404482F4E7F60E02B
:1039B000CE010E9479048DE780935F034DE765E0B7
:1039C00080915203909153030E94790462E070E069
:1039D00080915203909153030E948009C091540337
:1039E000D091550381E089A780914E03882399F0F7
:1039F00084E299E090934D0380934C0340E45FE1AF
:103A000060E070E08CE493E00E94F40421E0892BF4
:103A1000B1F420E014C086E090E00E94BD269093AF
:103A2000500380934F031092510310924D03109254
:103A30004C0360E070E0CE010E94081921E0822F63
:103A4000DF91CF911F910895CF93DF93682F70E09E
:103A500080E090E04AE00E94B41BEC0189E791E02D
:103A60000E94FA178C0F9D1FDF91CF910895EF925E
:103A7000FF920F931F93CF93DF931F92CDB7DEB7C3
:103A8000E42E9F938F938AE293E09F938F936983B1
:103A90000E94A9246981E60E0F900F900F900F905D
:103AA00002E213E06E1599F0FF24F394F60E86ED12
:103AB00094E00E94D4041F928F931F930F930E944F
:103AC000A9240F900F900F900F906F2DEBCF8FE1E7
:103AD00093E09F938F930E94A9240F900F900F90D3
:103AE000DF91CF911F910F91FF90EF9008952F924A
:103AF0003F924F925F926F927F928F929F92AF927E
:103B0000BF92CF92DF92EF92FF920F931F93CF93CA
:103B1000DF931F92CDB7DEB7562E342E6DB67EB62C
:103B20009F938F9389E193E09F938F930E94A924A1
:103B3000350C0F900F900F900F9085E1C82E83E009
:103B4000D82E90E1A92E93E0B92E531409F452C057
:103B50008DB69EB62091E404022F10E08DB79EB77B
:103B6000801B910B0FB6F8949EBF0FBE8DBFEDB7B3
:103B7000FEB731967F0122242394250C86ED94E034
:103B800029830E945004852D8F710E9453042701C0
:103B900029812E0D241549F08FEF29830E945304AB
:103BA000F20181932F012981F5CF86ED94E00E94E7
:103BB0004D04DF92CF920E94A9240E0D1F1D0F907D
:103BC0000F90015011090E151F0568F0F801808152
:103BD0001F928F93BF92AF920E94A9240F900F90D3
:103BE0000F900F90EECF0FB6F8949EBE0FBE8DBE15
:103BF000522CABCF8DE093E09F938F930E94A9242A
:103C00000F900F900FB6F8947EBE0FBE6DBE0F9052
:103C1000DF91CF911F910F91FF90EF90DF90CF90A8
:103C2000BF90AF909F908F907F906F905F904F90DC
:103C30003F902F9008950895CF93DF93CDB7DEB7CF
:103C4000AC970FB6F894DEBF0FBECDBF789484B5A5
:103C5000826084BD84B5816084BD85B5826085BD88
:103C600085B5816085BD80916E00816080936E0016
:103C70001092810080918100826080938100809108
:103C800081008160809381008091800081608093B9
:103C900080008091B10084608093B1008091B00079
:103CA00081608093B00080917A00846080937A0074
:103CB00080917A00826080937A0080917A008E7F72
:103CC00080937A0080917A00806880937A001092C5
:103CD000C10061E086E00E94D41261E086E00E94AB
:103CE0008812E0916602F091670282E08083E091A1
:103CF0006202F09163021082E0916402F091650229
:103D000088E0808310926E02E0916A02F0916B026B
:103D100086E08083E0916802F09169028081806191
:103D20008083E0916802F0916902808188608083DD
:103D3000E0916802F0916902808180688083E0915F
:103D40006802F091690280818F7D808360E070E07D
:103D50008DE194E00E945E2489E090E00E949D281D
:103D60008093010118E0E12E13E0F12E67010FE0CE
:103D700010E0C8010E949D28F60181936F010F5F3A
:103D80001F4F0F311105A9F785E591E00E940C182E
:103D9000809101010E94241D87E491E00E940C188B
:103DA00004E711E09E012F5F3F4F5901F701819118
:103DB0007F011F928F931F930F93BF92AF920E9428
:103DC0007E2BC5010E94FA170F900F900F900F9055
:103DD0000F900F90F8E1EF16F3E0FF0639F789E74F
:103DE00091E00E94FA171092D3011092D201109222
:103DF0003302109255021092310281E0809330021A
:103E000010920B0261E082E10E94881261E083E17E
:103E10000E9488128091B9008E7F8093B9008091B2
:103E2000B9008D7F8093B90080E28093B80085E46B
:103E30008093BC00B50180ED0E946D1589818535A8
:103E4000E1F583E08093D40165ED71E08AEA0E9498
:103E5000541567ED71E08CEA0E94541569ED71E02C
:103E60008EEA0E9454156BED71E080EB0E94FC1409
:103E70006DED71E082EB0E94FC146FED71E084EB5C
:103E80000E94FC1461EE71E086EB0E94541563EE13
:103E900071E088EB0E94541565EE71E08AEB0E9498
:103EA000541567EE71E08CEB0E94541569EE71E0D9
:103EB0008EEB0E94541581E001C080E08093F704EE
:103EC000811104C085E691E00E942D1880910101C6
:103ED000823038F480910803811101C081E0809321
:103EE000010182EA92E00E940C1880910101809306
:103EF0004E030E94241D0E942E1C86ED94E00E9419
:103F0000BB094FE361E086ED94E00E9479048AE802
:103F100092E00E942D1866E086ED94E00E94D404A1
:103F2000887F482F436066E086ED94E00E94790424
:103F30006FEF86ED94E00E945A04282F30E0982F0E
:103F400091701F929F9335952795277033273F9344
:103F50002F9384FB992790F91F929F9385FB9927B4
:103F600090F91F929F9386FB992790F91F929F9338
:103F70001F928F938DE791E09F938F930E94A924C6
:103F800042E06AE088E792E00E94771D44E06CE03E
:103F90008BE692E00E94371D41E060E182E692E00C
:103FA0000E94771D46E061E187E592E00E94371D9F
:103FB00041E061E080E592E00E94371D41E062E06F
:103FC00086E492E00E94371D41E065E08FE392E0D5
:103FD0000E94371D41E066E086E392E00E94371DB3
:103FE00041E060E08EE292E00E94371D42E06CE129
:103FF00080E292E00E94371D66E086ED94E00E9428
:10400000D40488720FB6F894DEBF0FBECDBF8032E5
:1040100041F021E090E0883009F020E0E22FF92F14
:1040200002C0E2E0F0E0EE0FFF1FE65EFD4F85917B
:1040300094919F938F9388E092E09F938F930E9437
:10404000A924E091DC04F0E0EE0FFF1FEC5FFD4FD0
:10405000859194919F938F9385EF91E09F938F9398
:104060000E94A92460E086ED94E00E94D404182FF9
:1040700061E086ED94E00E94D4040FB6F894DEBFB0
:104080000FBECDBF13FD02C0882329F012FD06C06C
:10409000E1E0F0E005C0E0E0F0E002C0E2E0F0E0E6
:1040A000EE0FFF1FE151FE4F859194919F938F93E7
:1040B0008CED91E09F938F930E94A92466E086ED9A
:1040C00094E00E94D4048670E82FF0E0EC52FE4F9A
:1040D000859194919F938F9383EC91E09F938F931D
:1040E0000E94A92484B7877F84BF80916000886183
:1040F0008093600081E28093600080916000806422
:104100008093600085E892E00E942D1860E086E0D0
:104110000E94881268EC70E080E090E00E943E13FC
:1041200061E086E00E9488120FB6F894DEBF0FBEF1
:10413000CDBFC12C50ECD52E59E7E52E54ECF52E11
:10414000212C60E8362E0E94150710920301109270
:10415000020105E065E070E080E090E00E943E131F
:1041600080910C058B3041F562E180910B050E9436
:104170000C1B009759F510910605612F70E080E047
:1041800090E00E94FA296093FE047093FF048093EC
:1041900000059093010590900805692D70E080E07E
:1041A00090E00E94FA2960930205709303058093C2
:1041B00004059093050553C0863109F061C061E0A4
:1041C00080910B050E940C1B009789F0C092FE04A1
:1041D000D092FF04E0920005F0920105C092020522
:1041E000D0920305E0920405F092050544C080904A
:1041F000070570900605682D70E0772980E090E053
:104200000E94FA292DEC3CEC4CEC5DE30E94AC2AB8
:104210006093FE047093FF04809300059093010562
:104220009090090510910805812F8F77692D70E016
:10423000782B80E090E00E94FA292DEC3CEC4CECCD
:104240005DE30E94AC2A17FD7AC260930205709369
:1042500003058093040590930505870C980C190DB0
:1042600081E090E020910A05211302C080E090E0F7
:1042700091958195910990930E0580930D0504C049
:1042800010920E0510920D0580910D0590910E056E
:10429000892B99F001508EEB92E00E940C1884E07B
:1042A00090E0801B91090E94F51B68EE73E080E0AE
:1042B00090E00E943E1301114DCF8091F7048823B6
:1042C00009F4A8C0B50180EF94E00E94781720E0BF
:1042D00030E0A9016D897E898F89988D0E944D29D2
:1042E000882309F469C0CE0185960E942D1580911E
:1042F000DF019091E0014DA15EA16FA178A59A0127
:10430000AB01281B390B41095109A091DD01B09186
:10431000DE010E94D2282B013C018FE07594679446
:10432000579447948A95D1F76091E7017091E8011D
:10433000CB01770FAA0BBB0BBC01CD012BE0660FA5
:10434000771F881F991F2A95D1F72091E901309195
:10435000EA018901330F220B330BA9019801240DC7
:10436000351D461D571D0E94B328D301C201820F7F
:10437000931FA41FB51F0896A11DB11DBC01CD013F
:1043800034E095958795779567953A95D1F70E9492
:10439000FC2920E030E040E251E40E94522920E074
:1043A00030E040E251E40E94AC2A0E94C42970939C
:1043B000F9046093F80404C03092F9042092F804E0
:1043C00020E030E0A9016D897E898F89988D0E9457
:1043D0004D298823C1F0BE016B5D7F4F80EF94E0D3
:1043E0000E94911520E030E040E251E46DA17EA1F1
:1043F0008FA198A50E9452290E94C4297093FB04A2
:104400006093FA0411C08FEF90E09093FB048093C7
:10441000FA040AC03092F9042092F804EFEFF0E0B9
:10442000F093FB04E093FA048EE480937C0062E056
:1044300070E080E090E00E943E1380917A008064FA
:1044400080937A0080917A0086FDFCCF20917800DD
:104450008091790030E0382B032E000C440B550B73
:1044600064EB7BE281E190E00E94B328E22F732F9E
:10447000642F952F80910103882311F18E3008F06D
:104480008E508770806480937C0080917A00806475
:1044900080937A0080917A0086FDFCCFA09178000D
:1044A00080917900B0E0B82B0E94DD282FEF33E037
:1044B00040E050E00E94B328E22F732F642F952F25
:1044C000E09304037093050360930603909307033E
:1044D00087E080931C0321E031E030931E0320939A
:1044E0001D0384E090E09093200380931F03E091EC
:1044F0001803F091190380E1A1E2B3E001900D925D
:104500008A95E1F715E028E130E040E56CE173E0E1
:1045100080911A0390911B030E948E1A811114C07E
:1045200080911A0390911B030E94A90681110AC071
:1045300040ED57E060E070E080911A0390911B031A
:104540000E94F4041150F9F6E091FC04F091FD048E
:104550000190F081E02D8CEF94E009954C01E09101
:10456000FC04F091FD040280F381E02D8CEF94E0D7
:10457000099517E010931C03E2E0F1E0F0931E03AD
:10458000E0931D0321E030E03093200320931F03CC
:10459000909222038092210390932403809323031B
:1045A0000E94E31AE091EE04F091EF040190F08193
:1045B000E02D8EEE94E009954C01E091EE04F0912F
:1045C000EF040280F381E02D8EEE94E009951093C4
:1045D0001C0323E031E030931E0320931D0322E0EF
:1045E00030E03093200320931F03909222038092A7
:1045F000210390932403809323030E94E31AE09104
:10460000FF02F09100030190F081E02D8FEF92E026
:104610000995AB01BC01E091FF02F091000302801B
:10462000F381E02D8FEF92E049A75AA76BA77CA7F3
:104630000995082FE091FF02F09100030480F581B5
:10464000E02D8FEF92E0099510931C0324E031E0F8
:1046500030931E0320931D0323E030E030932003AA
:1046600020931F0349A55AA56BA57CA54093210360
:104670005093220360932303709324030093250334
:10468000809326030E94E31A0E9415078FEF92E0A1
:104690000E941002843609F44FC08CE791E00E941A
:1046A000FA1789E791E00E94FA1760E086ED94E03E
:1046B0000E94290460E086ED94E00E94D404482F13
:1046C0004D7F60E086ED94E00E94790460E086E032
:1046D0000E94881283B7817F846083BF8091020328
:1046E00091E0980F9093020390910303891750F47F
:1046F00083B7816083BF83B7816083BF889583B7A9
:104700008E7FEBCF83B78E7F83BF809164008071F3
:10471000809364001092020361E086E00E94881298
:1047200086ED94E00E94620C48EE53E060E070E099
:104730008CE493E00E94F4040E94181104CDDC0183
:10474000CB01B0588093020590930305A093040514
:10475000B093050582CDCF93DF93E6E5F2E01382B7
:10476000128288EE93E0A0E0B0E084839583A68374
:10477000B78327E131E03183208325EC30E03587B2
:10478000248724EC30E03787268720EC30E0318B1B
:10479000208B21EC30E0338B228B22EC30E0358B08
:1047A000248B26EC30E0378B268B118E128E138EE5
:1047B000148EE3EFF2E01382128284839583A68342
:1047C000B78389E291E091838083ECEFF4E089E69E
:1047D00091E0918380838EEF9FEF928B818B84E0B9
:1047E000878786E1808BEEEEF4E081E691E09183AD
:1047F000808385E491E09383828385E697E2A0E05D
:10480000B0E085839683A783B0871186E6EDF4E058
:1048100087E090E09183808388E090E093838283B7
:10482000168280E28783108685E0868745E050E027
:1048300060E070E0448B558B668B778B1186A4E625
:10484000B3E0D096FC93EE939F9729E933E0309341
:1048500034042093330421E434E030934004209363
:104860003F0425E334E098963C932E9397979B96CC
:104870001D921D921D921C929E979A961C929A9739
:1048800099961C9299971C92CCE4D3E0FF83EE8317
:10489000B987A887E8E1F3E028E033E0318320839B
:1048A000D383C283EFEFF2E02BE331E03183208347
:1048B000128213828483DF91CF9108950F931F9307
:1048C000CF93DF93009731F46115710519F480E0FF
:1048D00090E03AC08B01EC016EE070E081E090E086
:1048E0000E94A126FC01892B91F380E883830115A6
:1048F000110571F01387028781E883838091100589
:1049000090911105892B21F4F0931105E093100586
:104910002097C9F0D187C08783818260838380918B
:10492000120590911305892B71F4F0931305E09310
:1049300012058091140590911505892B21F4F093AF
:104940001505E0931405CF01DF91CF911F910F91D1
:104950000895A0E0B0E0EFEAF4E20C94F328AE0191
:10496000495F5F4FDA016D917D91AD0100E115E086
:10497000F80182819381DC0113962C9113972860B2
:1049800013962C930E94CF24D8011296ED91FC919E
:1049900013972381277F2383E4E00C940F29ACE055
:1049A000B0E0E5EDF4E20C94E5287C016B018A01AE
:1049B000FC0117821682838181FFBDC1CE01019661
:1049C0004C01F7019381F60193FD859193FF81914D
:1049D0006F01882309F4ABC1853239F493FD8591C9
:1049E00093FF81916F01853229F4B70190E00E9415
:1049F0000728E7CF512C312C20E02032A0F48B3255
:104A000069F030F4803259F0833269F420612CC0AF
:104A10008D3239F0803339F4216026C02260246061
:104A200023C0286021C027FD27C030ED380F3A3061
:104A300078F426FF06C0FAE05F9E300D1124532E55
:104A400013C08AE0389E300D1124332E20620CC032
:104A50008E3221F426FD6BC1206406C08C3611F421
:104A6000206802C0883641F4F60193FD859193FFDA
:104A700081916F018111C1CF982F9F7D9554933003
:104A800028F40C5F1F4FFFE3F9830DC0833631F02C
:104A9000833771F0833509F05BC022C0F801808153
:104AA00089830E5F1F4F44244394512C540115C039
:104AB0003801F2E06F0E711CF801A080B18026FF72
:104AC00003C0652D70E002C06FEF7FEFC5012C873A
:104AD0000E94FC272C0183012C852F77222E17C0E2
:104AE0003801F2E06F0E711CF801A080B18026FF42
:104AF00003C0652D70E002C06FEF7FEFC5012C870A
:104B00000E94EA272C012C852068222E830123FC99
:104B10001BC0832D90E048165906B0F4B70180E21F
:104B200090E00E9407283A94F4CFF50127FC859184
:104B300027FE81915F01B70190E00E9407283110A4
:104B40003A94F1E04F1A51084114510471F7E5C04D
:104B5000843611F0893639F5F80127FF07C06081E6
:104B60007181828193810C5F1F4F08C060817181C8
:104B7000072E000C880B990B0E5F1F4F2F76722E9D
:104B800097FF09C090958095709561957F4F8F4FE5
:104B90009F4F2068722E2AE030E0A4010E943F2837
:104BA000A82EA81844C0853729F42F7EB22E2AE0FB
:104BB00030E025C0F22FF97FBF2E8F36C1F018F4F8
:104BC000883579F0B4C0803719F0883721F0AFC04C
:104BD0002F2F2061B22EB4FE0DC08B2D8460B82E15
:104BE00009C024FF0AC09F2F9660B92E06C028E096
:104BF00030E005C020E130E002C020E132E0F80101
:104C0000B7FE07C060817181828193810C5F1F4F65
:104C100006C06081718180E090E00E5F1F4FA401AB
:104C20000E943F28A82EA818FB2DFF777F2E76FE26
:104C30000BC0372D3E7FA51450F474FE0AC072FCE1
:104C400008C0372D3E7E05C0BA2C372D03C0BA2CC4
:104C500001C0B52C34FF0DC0FE01EA0DF11D8081AD
:104C6000803311F4397E09C032FF06C0B394B39487
:104C700004C0832F867809F0B39433FD13C030FF4E
:104C800006C05A2CB31418F4530C5B18B32CB3148D
:104C900068F4B70180E290E03C870E940728B39453
:104CA0003C85F5CFB31410F43B1801C0312C34FF10
:104CB00012C0B70180E390E03C870E9407283C8542
:104CC00032FF17C031FD03C088E790E002C088E5DD
:104CD00090E0B7010CC0832F867859F031FF02C0F5
:104CE0008BE201C080E237FD8DE2B70190E00E94C7
:104CF0000728A51438F4B70180E390E00E94072844
:104D00005A94F7CFAA94F401EA0DF11D8081B701FE
:104D100090E00E940728A110F5CF332009F451CE6E
:104D2000B70180E290E00E9407283A94F6CFF7019D
:104D30008681978102C08FEF9FEF2C96E2E10C9461
:104D400001290F931F93CF93DF93869F8001879F45
:104D5000100D969F100D1124C8010E94BD26EC0174
:104D6000009729F0A80160E070E00E94F527CE01CD
:104D7000DF91CF911F910F910895CF93DF938230F0
:104D8000910510F482E090E0E0911805F09119058A
:104D900020E030E0C0E0D0E0309711F14081518157
:104DA00048175907C0F04817590761F48281938169
:104DB000209719F09B838A832BC0909319058093C9
:104DC000180526C02115310519F04217530718F4AC
:104DD0009A01BE01DF01EF010280F381E02DDCCFFB
:104DE0002115310509F1281B390B2430310590F4C8
:104DF00012968D919C9113976115710521F0FB011D
:104E00009383828304C09093190580931805FD0154
:104E1000329644C0FD01E20FF31F8193919322501B
:104E200031092D933C933AC0209116053091170516
:104E3000232B41F42091080130910901309317058B
:104E400020931605209106013091070121153105A7
:104E500041F42DB73EB740910A0150910B01241B3C
:104E6000350BE0911605F0911705E217F307A0F452
:104E70002E1B3F0B2817390778F0AC014E5F5F4FB0
:104E80002417350748F04E0F5F1F509317054093C6
:104E900016058193919302C0E0E0F0E0CF01DF912D
:104EA000CF9108950F931F93CF93DF93009709F449
:104EB0008CC0FC0132971382128200911805109168
:104EC00019050115110581F420813181820F931F8D
:104ED00020911605309117052817390779F5F093B9
:104EE0001705E093160571C0D80140E050E0AE17F9
:104EF000BF0750F412962D913C911397AD012115E7
:104F0000310509F1D901F3CF9D01DA013383228301
:104F100060817181860F971F8217930769F4EC01F6
:104F200028813981260F371F2E5F3F4F3183208321
:104F30008A819B8193838283452B29F4F093190501
:104F4000E093180542C01396FC93EE931297ED017F
:104F5000499159919E01240F351FE217F30771F40F
:104F600080819181840F951F029611969C938E9358
:104F70008281938113969C938E931297E0E0F0E0E8
:104F8000D80112968D919C911397009719F0F80112
:104F90008C01F6CF8D919C9198012E5F3F4F820F2F
:104FA000931F20911605309117052817390769F4CA
:104FB000309729F4109219051092180502C0138237
:104FC00012821093170500931605DF91CF911F9160
:104FD0000F910895FC010590615070400110D8F7C1
:104FE000809590958E0F9F1F0895DC0101C06D93F1
:104FF00041505040E0F70895FC016150704001902D
:105000000110D8F7809590958E0F9F1F08950F93EC
:105010001F93CF93DF93FB01238121FD03C08FEF0B
:105020009FEF28C022FF16C0468157812481358119
:105030004217530744F4A081B1819D012F5F3F4F78
:10504000318320838C93268137812F5F3F4F3783B5
:10505000268310C0EB01092F182F0084F185E02D65
:105060000995892BE1F68E819F8101969F838E831E
:10507000812F902FDF91CF911F910F910895FA0109
:10508000AA27283051F1203181F1E8946F936E7F87
:105090006E5F7F4F8F4F9F4FAF4FB1E03ED0B4E078
:1050A0003CD0670F781F891F9A1FA11D680F791FB9
:1050B0008A1F911DA11D6A0F711D811D911DA11DCA
:1050C00020D009F468943F912AE0269F11243019DA
:1050D000305D3193DEF6CF010895462F4770405D75
:1050E0004193B3E00FD0C9F7F6CF462F4F70405D24
:1050F0004A3318F0495D31FD4052419302D0A9F77F
:10510000EACFB4E0A6959795879577956795BA9578
:10511000C9F700976105710508959B01AC010A2E3E
:1051200006945795479537952795BA95C9F7620F15
:10513000731F841F951FA01D0895F999FECF92BD7E
:1051400081BDF89A992780B50895262FF999FECF49
:105150001FBA92BD81BD20BD0FB6F894FA9AF99A94
:105160000FBE01960895052E97FB1EF400940E9431
:10517000CA2857FD07D00E941C2907FC03D04EF413
:105180000C94CA2850954095309521953F4F4F4F2C
:105190005F4F089590958095709561957F4F8F4FE3
:1051A0009F4F08950E943E29A59F900DB49F900D9A
:1051B000A49F800D911D11240895B7FF0C94D2284F
:1051C0000E94D228821B930B08952F923F924F92F8
:1051D0005F926F927F928F929F92AF92BF92CF9287
:1051E000DF92EF92FF920F931F93CF93DF93CDB790
:1051F000DEB7CA1BDB0B0FB6F894DEBF0FBECDBF08
:1052000009942A88398848885F846E847D848C84D8
:105210009B84AA84B984C884DF80EE80FD800C81E1
:105220001B81AA81B981CE0FD11D0FB6F894DEBFC4
:105230000FBECDBFED010895A1E21A2EAA1BBB1B24
:10524000FD010DC0AA1FBB1FEE1FFF1FA217B30752
:10525000E407F50720F0A21BB30BE40BF50B661F68
:10526000771F881F991F1A9469F76095709580952C
:1052700090959B01AC01BD01CF010895A29FB001A3
:10528000B39FC001A39F700D811D1124911DB29F7A
:10529000700D811D1124911D08950E94372A08F474
:1052A00081E008950E9466290C94722A0E946B2A5C
:1052B00058F00E94642A40F029F45F3F29F00C94D2
:1052C0005B2A51110C94A62A0C94612A0E94832A0D
:1052D00068F39923B1F3552391F3951B550BBB2725
:1052E000AA2762177307840738F09F5F5F4F220F6A
:1052F000331F441FAA1FA9F335D00E2E3AF0E0E861
:1053000032D091505040E695001CCAF72BD0FE2FAA
:1053100029D0660F771F881FBB1F2617370748073E
:10532000AB07B0E809F0BB0B802DBF01FF279358F6
:105330005F4F3AF09E3F510578F00C945B2A0C9435
:10534000A62A5F3FE4F3983ED4F386957795679558
:10535000B795F7959F5FC9F7880F911D969587952B
:1053600097F90895E1E0660F771F881FBB1F62174A
:1053700073078407BA0720F0621B730B840BBA0B08
:10538000EE1F88F7E09508950E94CB296894B1112B
:105390000C94A62A08950E948B2A88F09F5798F0B3
:1053A000B92F9927B751B0F0E1F0660F771F881F2A
:1053B000991F1AF0BA95C9F714C0B13091F00E9444
:1053C000A52AB1E008950C94A52A672F782F882785
:1053D000B85F39F0B93FCCF3869577956795B3956B
:1053E000D9F73EF490958095709561957F4F8F4FDA
:1053F0009F4F0895E89409C097FB3EF490958095DF
:10540000709561957F4F8F4F9F4F9923A9F0F92F8A
:1054100096E9BB279395F695879577956795B79508
:10542000F111F8CFFAF4BB0F11F460FF1BC06F5FEE
:105430007F4F8F4F9F4F16C0882311F096E911C000
:10544000772321F09EE8872F762F05C0662371F021
:1054500096E8862F70E060E02AF09A95660F771F35
:10546000881FDAF7880F9695879597F90895990F11
:105470000008550FAA0BE0E8FEEF16161706E8071E
:10548000F907C0F012161306E407F50798F0621B3F
:10549000730B840B950B39F40A2661F0232B242B14
:1054A000252B21F408950A2609F4A140A6958FEF33
:1054B000811D811D089597F99F6780E870E060E085
:1054C00008959FEF80EC089500240A94161617069D
:1054D00018060906089500240A94121613061406E5
:1054E00005060895092E0394000C11F4882352F048
:1054F000BB0F40F4BF2B11F460FF04C06F5F7F4F00
:105500008F4F9F4F089557FD9058440F551F59F0E6
:105510005F3F71F04795880F97FB991F61F09F3FA0
:1055200079F087950895121613061406551FF2CFC9
:105530004695F1DF08C0161617061806991FF1CF19
:1055400086957105610508940895E894BB27662740
:105550007727CB0197F908950E94BF2A0C94722AED
:105560000E94642A38F00E946B2A20F0952311F0E3
:105570000C945B2A0C94612A11240C94A62A0E9494
:10558000832A70F3959FC1F3950F50E0551F629FDA
:10559000F001729FBB27F00DB11D639FAA27F00D8C
:1055A000B11DAA1F649F6627B00DA11D661F829FB3
:1055B0002227B00DA11D621F739FB00DA11D621F98
:1055C000839FA00D611D221F749F3327A00D611DB5
:1055D000231F849F600D211D822F762F6A2F112497
:1055E0009F5750409AF0F1F088234AF0EE0FFF1FCA
:1055F000BB1F661F771F881F91505040A9F79E3F21
:10560000510580F00C945B2A0C94A62A5F3FE4F3CA
:10561000983ED4F3869577956795B795F795E79576
:105620009F5FC1F7FE2B880F911D9695879597F97F
:105630000895DB018F939F930E94D228BF91AF9171
:10564000A29F800D911DA39F900DB29F900D1124DC
:105650000895991B79E004C0991F961708F0961BCE
:10566000881F7A95C9F780950895AA1BBB1B51E145
:1056700007C0AA1FBB1FA617B70710F0A61BB70BC2
:10568000881F991F5A95A9F780959095BC01CD0167
:105690000895EE0FFF1F0590F491E02D099481E02D
:1056A00090E0F8940C94A12BFB01DC0102C0019066
:1056B0000D9241505040D8F708956817790768F463
:1056C000FB01DC01E40FF51FA40FB51F02C002901F
:1056D0000E9241505040D8F708950C94542BFB0182
:1056E000DC014150504048F001900D920020C9F774
:1056F00001C01D9241505040E0F70895AEE0B0E087
:10570000E4E8FBE20C94F3280D891E8986E08C8383
:105710001A8309838FEF9FE79E838D83AE01475ED7
:105720005F4F6F89788DCE0101960E94CF242F8123
:105730003885F801E20FF31F10822E96E4E00C94F6
:105740000F2911E0CEE9D1E004C0FE010E94492BEF
:0C5750002196CF39D107C9F7F894FFCF9C
:10575C0001010100010000001A058000C33C33CE9A
:10576C003EE3EC00000000AF10C3175110F610829E
:10577C00106010741000000000B0118011E0115482
:10578C0011781164115511000000006C021002F622
:10579C00010000000014071B04C9017817E3110075
:1057AC0000000000000000C901EE17EE1700000019
:1057BC00007602720200000000E001CA01424D5066
:1057CC003038350025303258000D0A00536C6565B1
:0257DC0070005B
:107800000C94343C0C94513C0C94513C0C94513CE1
:107810000C94513C0C94513C0C94513C0C94513CB4
:107820000C94513C0C94513C0C94513C0C94513CA4
:107830000C94513C0C94513C0C94513C0C94513C94
:107840000C94513C0C94513C0C94513C0C94513C84
:107850000C94513C0C94513C0C94513C0C94513C74
:107860000C94513C0C94513C11241FBECFEFD8E036
:10787000DEBFCDBF11E0A0E0B1E0EAE8FFE702C063
:1078800005900D92A230B107D9F712E0A2E0B1E065
:1078900001C01D92AD30B107E1F70E942D3D0C945F
:1078A000C33F0C94003C982F95959595959595958B
:1078B000905D8F708A307CF0282F295A8091C0000B
:1078C00085FFFCCF9093C6008091C00085FFFCCF60
:1078D0002093C6000895282F205DF0CF982F809127
:1078E000C00085FFFCCF9093C6000895EF92FF92F1
:1078F0000F931F93EE24FF2487018091C00087FD22
:1079000017C00894E11CF11C011D111D81E2E8164D
:1079100081EAF80687E0080780E0180770F3E09135
:107920000401F091050109958091C00087FFE9CF1E
:107930008091C6001F910F91FF90EF9008950E94D3
:10794000763C982F8091C00085FFFCCF9093C600B5
:1079500091362CF490330CF09053892F089597555D
:10796000892F08951F930E949F3C182F0E949F3CCF
:107970001295107F810F1F9108951F93182F882350
:1079800021F00E94763C1150E1F71F9108951F935A
:10799000182F0E94763C803249F0809103018F5F5E
:1079A000809303018530C1F01F9108958091C0003C
:1079B00085FFFCCF84E18093C6008091C00085FFE5
:1079C000FCCF1093C6008091C00085FFFCCF80E102
:1079D0008093C6001F910895E0910401F091050184
:1079E00009951F9108950E94763C803241F0809164
:1079F00003018F5F80930301853081F008958091AA
:107A0000C00085FFFCCF84E18093C6008091C00058
:107A100085FFFCCF80E18093C6000895E0910401CA
:107A2000F09105010995089548EC50E08823A1F0F4
:107A30002D9A28EE33E0FA013197F1F721503040CA
:107A4000D1F72D9828EE33E0FA013197F1F7215064
:107A50003040D1F7815061F708953F924F925F9285
:107A60006F927F928F929F92AF92BF92CF92DF924E
:107A7000EF92FF920F931F93CF93DF93000082E06A
:107A80008093C00080E18093C4001092C50088E11B
:107A90008093C10086E08093C2005098589A259A3E
:107AA00081E00E94143D24E1F22E9EE1E92E85E959
:107AB000D82E0FE0C02E10E1B12EAA24A394B1E479
:107AC0009B2EA6E58A2EF2E57F2EE0E26E2E79E46B
:107AD000572E63E5462E50E5352E0E94763C8033C6
:107AE000B1F18133B9F1803409F46FC0813409F404
:107AF00076C0823409F485C0853409F488C08035A5
