:100000000C94EC010C9414020C9414020C94140241
:100010000C9414020C9414020C94A9080C9414026D
:100020000C9414020C9414020C9414020C941402F8
:100030000C9414020C9414020C9414020C941402E8
:100040000C942D0C0C9414020C94FF0A0C94D90AF5
:100050000C9414020C9414020C9414020C941402C8
:100060000C94770C0C94140250415F4D4158005091
:10007000415F484947480050415F4C4F570050414D
:100080005F4D494E0031362062697473003820623A
:100090006974730044697361626C6564006E5246F2
:1000A00032344C30312B006E524632344C303100F9
:1000B0003235304B42505300324D42505300314D97
:1000C00042505300555549442073656E73657572EF
:1000D00020004E6F646549442073656E73657572C8
:1000E0002000424D503A204572726575722C206492
:1000F00065736163746976652E005354415455539A
:100100000909203D203078253032782052585F444C
:10011000523D25782054585F44533D2578204D4169
:10012000585F52543D25782052585F505F4E4F3DE6
:1001300025782054585F46554C4C3D25780D0A00D3
:10014000504120506F77657209203D2025530D0ADC
:10015000007E0077006F006800435243204C656EBC
:1001600067746809203D2025530D0A0094008D0016
:1001700085004D6F64656C0909203D2025530D0AEB
:1001800000A7009D004461746120526174650920DC
:100190003D2025530D0A00BE00B800B00044594E62
:1001A00050442F4645415455524500434F4E464911
:1001B00047090052465F53455455500052465F432D
:1001C000480900454E5F52584144445200454E5F35
:1001D0004141090052585F50575F50302D3600544E
:1001E000585F41444452090052585F414444525FB1
:1001F00050322D350052585F414444525F50302DEB
:1002000031005365747570207465726D696E652078
:1002100061707265732000436F6E6E6578696F6EF2
:10022000206D65736820696E697469616C697365B6
:1002300000436F6E6E6578696F6E206D6573682020
:1002400061766563206E6F64654964200053657450
:10025000757020726164696F0052657175657465AF
:100260002044484350207472616E736D6973650059
:100270004861726477617265206661696C75726548
:100280002064657465637465642000526564656DFF
:1002900061727261676520726164696F00526563A3
:1002A0006F6E6E6578696F6E206175206D6573681D
:1002B00000206E6220636F6E6669726D6174696F93
:1002C0006E733A2000436F6E6669726D6174696F78
:1002D0006E20747970652000416C696D656E746183
:1002E00074696F6E2041412000416C696D656E74C8
:1002F0006174696F6E206C69746869756D20004166
:100300006C696D656E746174696F6E20736563747A
:100310006575722000444854204572726F723A002D
:1003200000000008000201000003040700000000B4
:1003300000000000536C656570004E6F7576656156
:1003400075206E6F64652069642072656375206432
:100350006520444843503A20000000000024002754
:10036000002A0000000000250028002B000D0A00D4
:10037000253032780020307800255309203D000DCB
:100380000A002030782530327800255309203D00BE
:1003900000000000230026002900040404040404D3
:1003A0000404020202020202030303030303010224
:1003B00004081020408001020408102001020408F3
:1003C00010200001020304051112131415160A0B64
:1003D0000C0D0E0F5A25592511241FBECFEFD8E062
:1003E000DEBFCDBF11E0A0E0B1E0E0ECFAE502C075
:1003F00005900D92AC39B107D9F725E0ACE9B1E031
:1004000001C01D92A933B207E1F711E0CBEED1E0B4
:1004100004C02197FE010E94FB2CCA3ED107C9F7F8
:100420000E94091D0C94532D0C9400000895FC01AA
:1004300021893289232B71F420E030E040E251E43D
:1004400062817381848195810E945E2C0E94762B4B
:10045000CB0108958FEF90E00895FC012189328946
:10046000232B71F420E030E040E251E46681778193
:10047000808591850E945E2C0E94762BCB01089589
:1004800080E090E80895FC018285833089F44581FD
:10049000568167817085483B8BE05807610571057F
:1004A000D8F081E04C3A5D4061057105B0F012C0B2
:1004B000823081F44581568167817085443B8AE0B2
:1004C00058076105710540F081E0473D5A406105DC
:1004D000710518F080E0089582E00895FC0183859D
:1004E0000895FC0165817681878190850895FC01DE
:1004F000848595850895FC01828593850895CF9321
:10050000DF93EC019CB59F7D9CBD9CB5937F9CBD0A
:100510009CB59C7F9CBD9DB591609DBD8A810E94CC
:10052000310B8C899D89DF91CF910C94B90B8F92FF
:100530009F92AF92BF92EF92FF920F931F93CF9330
:10054000DF93CDB7DEB72A970FB6F894DEBF0FBEA4
:10055000CDBFFC017A876987262F372F2F3F8FEF7A
:10056000380711F482811CC02115310509F464C0DB
:10057000808191810097B1F4558140E001C04F5FC7
:10058000451709F456C0A381B481A80FB91F03967B
:1005900011966D917C9112976217730781F78C9178
:1005A00090E04CC08432994009F443C07F011C8222
:1005B0001B8280910401909105019C012F5F3F4FA8
:1005C00030930501209304019E838D8386EC8F83F5
:1005D00008E310E022E030E0AE01475F5F4FBE016C
:1005E0006F5F7F4F808591850E94A416882309F153
:1005F0000E94210C4B015C01F701808591850E94CE
:10060000E413863C71F00E94210CDC01CB018819B7
:100610009909AA09BB098E379105A105B10560F3B7
:1006200008C0D7011896ED91FC911997878590899C
:1006300005C08FEF9FEF02C080E090E02A960FB6D2
:10064000F894DEBF0FBECDBFDF91CF911F910F9108
:10065000FF90EF90BF90AF909F908F9008950C9473
:100660000429CF93C82F682F83E792E00E94560990
:100670008C2FCC0F990BCF91089561E00C947F02E1
:1006800060E00C947F02FC012081318182819381A2
:100690002817390719F0822F0C94310B08958EBD5D
:1006A00000000DB407FEFDCF8EB50895EF92FF92C6
:1006B0001F93CF93DF931F92CDB7DEB77C01698381
:1006C0000E9440036981862F0E944F03182FC701A3
:1006D0000E943D03812F0F90DF91CF911F91FF90DA
:1006E000EF90089561EE0C945603EF92FF921F93E2
:1006F000CF93DF9300D0CDB7DEB77C014A83698307
:100700000E9440036981862F8F7180620E944F038F
:10071000182F4A81842F0E944F03C7010E943D0376
:10072000812F0F900F90DF91CF911F91FF90EF904D
:100730000895CF92DF92EF92FF920F931F93CF9382
:10074000DF9300D01F92CDB7DEB77C01142F2A8330
:100750005B8369830E9440036981862F8F71806269
:100760000E944F03082FC12E5B81D52E2A81120FC4
:100770001C1531F0F60181916F010E944F03F8CFF3
:10078000C7010E943D03802F0F900F900F90DF91C3
:10079000CF911F910F91FF90EF90DF90CF90089530
:1007A000EF92FF921F93CF93DF931F92CDB7DEB7E7
:1007B0007C0169830E9440036981862F8F710E94AA
:1007C0004F038FEF0E944F03182FC7010E943D0374
:1007D000812F0F90DF91CF911F91FF90EF9008959F
:1007E000CF93DF93EC010E94581160E0CE010E948C
:1007F000D003482F416060E0CE010E94750340E7BE
:1008000067E0CE010E94750361E0CE010E944303C0
:100810008985882349F02E85AE01475F5F4F6AE0E6
:10082000CE010E94990314C062E0CE010E94D00361
:10083000E2ECF3E0E49121E030E001C0220FEA9520
:10084000EAF72095422F482362E0CE010E9475030B
:100850006DE1CE010E94D00381FF05C0CE01DF9182
:10086000CF910C947203DF91CF9108951F93CF9392
:10087000DF93EC01888199812A813B81821793075C
:1008800019F061E00E947D0B8A819B81288139816A
:100890002817390719F061E00E947D0B1FB7F89403
:1008A0008091B701811127C0E4EAF3E08491E8EB7D
:1008B000F3E09491E82FF0E0EE0FFF1FE75AFC4FB2
:1008C000A591B491EC91E92321F461E08AE00E94C2
:1008D000310B61E08AE00E947D0B8CB580618CBD9C
:1008E0008CB580648CBD61E08DE00E947D0B61E081
:1008F0008BE00E947D0B8091B7018F5F8093B701E1
:100900001FBF60E0CE010E94430361E0CE010E9460
:100910007F0265E070E080E090E00E94E70B4CE031
:1009200060E0CE010E9475034FE564E0CE010E94B5
:10093000750362E070E0CE010E940211882311F07D
:1009400081E08E8366E0CE010E94D003182F60E024
:1009500070E0CE010E940211CE010E94400380E5AA
:100960000E944F0383E70E944F03CE010E943D0384
:1009700040E06DE1CE010E94750340E06CE1CE01E4
:100980000E947503188640E767E0CE010E94750358
:100990004CE465E0CE010E94750362EECE010E9438
:1009A0005603CE010E947203CE010E94581160E0EE
:1009B000CE010E94D003482F4E7F60E0CE010E94FE
:1009C0007503115081E01E3F08F080E0DF91CF9168
:1009D0001F9108952F923F924F925F926F927F9254
:1009E0008F929F92AF92BF92CF92DF92EF92FF923F
:1009F0000F931F93CF93DF93CDB7DEB768970FB6F2
:100A0000F894DEBF0FBECDBF7C012A013B0167E138
:100A1000DC0116968D919C9117970E94D00380FD62
:100A200003C080E090E072C1F701868197810E9447
:100A30007111D7011896ED91FC91199782A58260EA
:100A400082A76AE070E080E090E00E94E70B64E239
:100A500079E0F701808591850E949B1884E299E0F6
:100A6000D7018D939C930E94210C4B015C01212C9A
:100A7000312CE0E4F0E0FC87EB8780910401909159
:100A800005019C012F5F3F4F309305012093040126
:100A90009E878D87F2ECFF87D70118968D919C91E8
:100AA0001997FC0122A933A93A872987332089F0B5
:100AB000232D30E021503109A901440F551F240F87
:100AC000351F01E010E002C0000F111F2A95E2F768
:100AD00002C000E010E020E030E040E050E0BE0165
:100AE000675F7F4F0E94A4160E94210C698B7A8B4E
:100AF0008B8B9C8BD12CD70118968D919C9119973B
:100B00000E94E413823C99F4FE013196ED0DF11D33
:100B1000ED0DF11DD70118968D919C911997DC016F
:100B200017968D919C91189791838083D3940E94FE
:100B3000210CDC01CB0129893A894B895C89821B14
:100B4000930BA40BB50BC897A105B10520F433E0B6
:100B50003D1588F633C0D11031C00E94210CDC0154
:100B6000CB0188199909AA09BB09481659066A06D2
:100B70007B0608F456CF222D30E02F5F3F4F832DA8
:100B800090E00196289FB001299F700D389F700D4D
:100B90001124675E7F4F660F771F072E000C880BAE
:100BA000990B0E94E70B81E0830D8370382E81E062
:100BB000820D6AE00E94DB2C292E5BCFC12C198AA2
:100BC000CD1408F046C043EC4F87D70112968C91A4
:100BD0001297888BFE013196EC0DF11DEC0DF11D85
:100BE000008111811C870B8720E030E040E050E05D
:100BF000BE01675F7F4F18968D919C9119970E9457
:100C0000A4160E94210C6D8B7E8B8F8B988F0E9477
:100C1000210CDC01CB012D893E894F89588D821B27
:100C2000930BA40BB50B813E9105A105B10548F4CA
:100C3000F701808591850E94E413898B803839F70C
:100C4000CD2C65E070E080E090E00E94E70BC3945B
:100C5000B7CF3989303809F080CFD7011896ED9198
:100C6000FC91199787859089009709F476CF36858E
:100C700012962C91321371CFF70191838083868174
:100C800097810E9471116AE070E080E090E00E941C
:100C9000E70BD7016D917C91119718968D919C91DE
:100CA00019970E949B18F70160817181C7010E940A
:100CB0009702D70112962C9130E082179307E1F04A
:100CC000F70160817181C7010E949702D7011296D6
:100CD0002C91129730E08217930771F064E279E06B
:100CE00018968D919C9119970E949B1884E299E027
:100CF000F7019183808331CFD7011896ED91FC9154
:100D0000199782A58D7F82A78D919C9168960FB6C9
:100D1000F894DEBF0FBECDBFDF91CF911F910F9131
:100D2000FF90EF90DF90CF90BF90AF909F908F900B
:100D30007F906F905F904F903F902F9008954F92CB
:100D40005F926F927F92AF92BF92DF92EF92FF928B
:100D50000F931F93CF93DF93CDB7DEB729970FB6CD
:100D6000F894DEBF0FBECDBF7C01DC0118968D91DB
:100D70009C9119970E94E413D82EF70180819181EC
:100D80008432994009F4CFC023ECD21204C081E030
:100D9000D7011A968C93F70182818111C4C08D2DE1
:100DA0008D7F843C09F09EC00084F185E02D5F01B9
:100DB00027E0A20EB11C8781908592878187978555
:100DC00084ECD81278C09987D70112968C9112972B
:100DD000811118C015964C9120E030E0841709F479
:100DE0004BC0D7011396ED91FC911497E20FF31FBE
:100DF0002D5F3F4F5081591303C0818192814DC0B7
:100E00008F5FECCF992309F446C01C821B8280912E
:100E10000401909105019C012F5F3F4F3093050124
:100E2000209304019E838D83DF8208E310E022E09B
:100E300030E0AE01475F5F4FBE016F5F7F4FCF0174
:100E40000E94A4168823C1F00E94210C2B013C01B2
:100E5000F701808591850E94E413843C81F00E9413
:100E6000210CDC01CB0184199509A609B709873942
:100E70009105A105B10560F38FEF9FEF0EC0D7017B
:100E80001896ED91FC9119978785908997FF05C079
:100E90008EEF9FEF02C080E090E09A83898308E3A1
:100EA00010E022E030E0AE014F5F5F4FB501F70187
:100EB0008085918514C0692F70E0C7010E94970258
:100EC0009A83898308E310E022E030E0AE014F5FAF
:100ED0005F4FB501D70118968D919C9119970E948B
:100EE000A41621C0B5ECDB121EC0F701A085B185A8
:100EF00080E0F70195818917B0F4F70123813481EF
:100F0000F90193E0899FE00DF11D11244181528187
:100F100017962D913C9118974217530711F412829E
:100F200011828F5FE6CF8D2D29960FB6F894DEBF24
:100F30000FBECDBFDF91CF911F910F91FF90EF902A
:100F4000DF90BF90AF907F906F905F904F9008952B
:100F5000CF92DF92EF92FF920F931F93CF93DF9385
:100F6000CDB7DEB728970FB6F894DEBF0FBECDBF62
:100F70007C0184E0D82E92E8C92EDA94DD20F1F1CC
:100F8000F7018081918184329940C1F1C7010E94AB
:100F90009F0667E1F701868197810E94D00381FD5A
:100FA00007C0F70180859185FC0122A520FF02C0C2
:100FB00081E02AC01C821B8220910401309105012E
:100FC000A9014F5F5F4F50930501409304013E8399
:100FD0002D83CF8208E310E020E030E040E050E0D5
:100FE000BE016F5F7F4F0E94A41681110DC067E69E
:100FF00070E080E090E00E94E70BBFCFF7018681B0
:1010000097810E94711180E028960FB6F894DEBF98
:101010000FBECDBFDF91CF911F910F91FF90EF9049
:10102000DF90CF9008950895DF92EF92FF920F9393
:101030001F93CF93DF93CDB7DEB7C054D1090FB65E
:10104000F894DEBF0FBECDBFE0905304F09054047F
:1010500089EBE81683E0F80609F008F463C0D09045
:10106000BF030091C1031091C20384E6D81241C0AE
:10107000A8010134110510F040E450E063EC73E086
:10108000CE0101960E94062DC701801B910B0A9785
:1010900090935404809353044AE950E0401B510B51
:1010A000B8016D537C4F89EB93E00E940F2D1C819A
:1010B0001230B0F11093010110936E0389E090E0BB
:1010C0000E944F2A181729F0612F89E090E00E94B2
:1010D000572A48EE53E060E070E08CE693E00E940F
:1010E000EA04109200018AE393E00E949F17812F87
:1010F00015C09701201B310B2A503109309354043D
:10110000209353044AE950E0401B510BB8016D5342
:101110007C4F89EB93E00E940F2D8D2D0E94DB1AEE
:1011200081E008C08CE693E00E94A80791E0982730
:101130009093B501C05CDF4F0FB6F894DEBF0FBED1
:10114000CDBFDF91CF911F910F91FF90EF90DF9076
:1011500008951F920F920FB60F9211248F939F93B1
:101160008091020190910301892B31F481E090E09C
:1011700090930301809302019F918F910F900FBE76
:101180000F901F901895CF92DF92EF92FF920F93DE
:101190001F93CF93DF936C017A018B01C0E0D0E005
:1011A000CE15DF0589F0D8016D918D01D601ED9145
:1011B000FC910190F081E02DC6010995892B11F475
:1011C0007E0102C02196ECCFC701DF91CF911F9124
:1011D0000F91FF90EF90DF90CF900895FC01538D19
:1011E000448D252F30E0842F90E0821B930B541701
:1011F00010F0CF96089501970895FC01918D828D8E
:10120000981761F0828DDF01A80FB11D5D968C915A
:10121000928D9F5F9F73928F90E008958FEF9FEF65
:101220000895FC01918D828D981731F0828DE80F21
:10123000F11D858D90E008958FEF9FEF0895FC01DB
:10124000918D228D892F90E0805C9F4F821B9109A8
:101250008F739927089583E792E00E941F0921E088
:10126000892B09F420E0822F0895FC01848DDF0191
:10127000A80FB11DA35ABF4F2C91848D90E0019609
:101280008F739927848FA689B7892C93A089B189F8
:101290008C9180648C93938D848D981306C0028802
:1012A000F389E02D80818F7D80830895EF92FF92F6
:1012B0000F931F93CF93DF93EC0181E0888F9B8D79
:1012C0008C8D981305C0E889F989808185FD24C03B
:1012D000F62E0B8D10E00F5F1F4F0F731127E02EBE
:1012E0008C8DE8120CC00FB607FCFACFE889F9899B
:1012F000808185FFF5CFCE010E943509F1CF8B8D1E
:10130000FE01E80FF11DE35AFF4FF0820B8FEA89CF
:10131000FB898081806207C0EE89FF896083E8894C
:10132000F98980818064808381E090E0DF91CF91B2
:101330001F910F91FF90EF900895CF93DF93EC01F1
:10134000888D8823C9F0EA89FB89808185FD05C0E5
:10135000A889B9898C9186FD0FC00FB607FCF5CF1F
:10136000808185FFF2CFA889B9898C9185FFEDCF67
:10137000CE010E943509E7CFDF91CF91089580E03B
:1013800090E0892B29F00E942B0981110C94000018
:10139000089585ED8093BC008091BC0084FDFCCF56
:1013A00010924E0208954091DA01262F30E0240F6A
:1013B000311D21323105DCF420914E022430C9F474
:1013C000FC0180E090E0861758F43091DA01219119
:1013D000DC01A854BE4FA30FB11D2C930196F3CF8F
:1013E0008091DA01680F6093DA0180E0089581E06E
:1013F000089582E008950895E0919D0180919C01F7
:10140000E81730F4F0E0E85FFD4F808190E0089548
:101410008FEF9FEF089590919D0180919C01981707
:1014200050F4E92FF0E0E85FFD4F208130E09F5F4E
:1014300090939D0102C02FEF3FEFC9010895809165
:101440009C0190E020919D01821B91090895CF920B
:10145000DF92EF92FF920F931F93CF93DF937C0164
:10146000262F972F8A0180914F02882391F0C62F53
:10147000D72F6E01C40ED51ECC15DD0571F0699114
:10148000D701ED91FC910190F081E02DC701099504
:10149000F3CF642F822F0E94D309C801DF91CF912F
:1014A0001F910F91FF90EF90DF90CF900895CF9311
:1014B000DF931F92CDB7DEB7698320914F022223BD
:1014C000D1F020917202203240F021E030E0FC01A6
:1014D0003383228380E090E015C080915002E82F92
:1014E000F0E0EF5AFD4F998190838F5F8093500217
:1014F0008093720205C061E0CE0101960E94D3097B
:1015000081E090E00F90DF91CF910895089580E001
:1015100090E008950E94012D0F931F93CF93DF93C6
:101520008C01EB0188E2FB0111928A95E9F74BE00F
:1015300050E065E971E0CE010E94212D1B8681E01B
:1015400090E0A0E0B0E08C879D87AE87BF87F80170
:1015500083819481A581B681888B998BAA8BBB8B63
:1015600086E090E0A0E0B0E08C8B9D8BAE8BBF8BD3
:101570001CA21DA21EA21FA280E090E8A9E8B4E46C
:10158000888F998FAA8FBB8F80E090E0A6E9B3E4A3
:101590008C8F9D8FAE8FBF8F8AE097EDA3E2BCE367
:1015A00088A399A3AAA3BBA3DF91CF911F910F9109
:1015B00008951F920F920FB60F9211242F933F930D
:1015C0004F935F936F937F938F939F93AF93BF934B
:1015D000EF93FF9383E792E00E943509FF91EF912B
:1015E000BF91AF919F918F917F916F915F914F913B
:1015F0003F912F910F900FBE0F901F9018951F9243
:101600000F920FB60F9211242F938F939F93EF9306
:10161000FF93E0918302F09184028081E09189023E
:10162000F0918A0282FD12C0908180918C028F5FBE
:101630008F7320918D02821751F0E0918C02F0E0BF
:10164000ED58FD4F958F80938C0201C08081FF91F2
:10165000EF919F918F912F910F900FBE0F901F9040
:10166000189590E0FC01E05EFC4F3491FC01E255DE
:10167000FC4F2491FC01E656FC4FE491EE2309F463
:101680003BC0332339F1333091F038F43130A9F0D5
:10169000323001F584B58F7D12C0373091F038308B
:1016A000A1F03430B9F4809180008F7D03C0809127
:1016B00080008F77809380000DC084B58F7784BDC4
:1016C00009C08091B0008F7703C08091B0008F7DFA
:1016D0008093B000F0E0EE0FFF1FED59FC4FA59195
:1016E000B4918FB7F894EC91611103C020952E232B
:1016F00001C02E2B2C938FBF0895CF93DF9390E0E2
:10170000FC01E255FC4F2491FC01E656FC4F84910C
:10171000882361F190E0880F991FFC01E75AFC4F84
:10172000C591D491FC01ED59FC4FA591B491611183
:1017300009C09FB7F8948881209582238883EC9113
:101740002E230BC0623061F49FB7F8943881822F4A
:10175000809583238883EC912E2B2C939FBF06C00A
:101760008FB7F894E8812E2B28838FBFDF91CF911C
:1017700008958330910528F0880F991F04970197E9
:10178000F1F708953FB7F894809104029091050213
:10179000A0910602B091070226B5A89B05C02F3F75
:1017A00019F00196A11DB11D3FBFBA2FA92F982F87
:1017B0008827820F911DA11DB11DBC01CD0143E001
:1017C000660F771F881F991F4A95D1F708958F924A
:1017D0009F92AF92BF92CF92DF92EF92FF926B01F6
:1017E0007C010E94C20B4B015C01C114D104E104D5
:1017F000F104F1F00E94C20BDC01CB0188199909B8
:10180000AA09BB09883E9340A105B10570F321E008
:10181000C21AD108E108F10888EE880E83E0981E0C
:10182000A11CB11CC114D104E104F10419F7DDCFEE
:10183000FF90EF90DF90CF90BF90AF909F908F90F0
:1018400008952FB7F8946091000270910102809181
:101850000202909103022FBF08951F920F920FB6BC
:101860000F9211242F933F938F939F93AF93BF9326
:101870008091000290910102A0910202B0910302B6
:101880003091FF0126E0230F2D3720F40296A11D91
:10189000B11D05C029E8230F0396A11DB11D20939A
:1018A000FF018093000290930102A0930202B09383
:1018B00003028091040290910502A0910602B0916A
:1018C00007020196A11DB11D8093040290930502A9
:1018D000A0930602B0930702BF91AF919F918F91A1
:1018E0003F912F910F900FBE0F901F9018951F9250
:1018F0000F920FB60F9211242F933F934F935F9344
:101900006F937F938F939F93AF93BF93EF93FF93C7
:101910008091B900887F803609F49CC068F58832D0
:1019200009F45BC090F4803109F454C038F4882382
:1019300009F4F6C0883009F44DC0F6C0883109F4C6
:101940004CC0803209F45DC0EFC0803409F468C037
:1019500048F4803309F455C0883309F0E5C080931A
:101960004C02D8C0803509F44FC0883509F45DC0F9
:10197000883409F0D9C0D6C0883909F4C7C0A8F4A2
:10198000883709F467C038F4883609F463C08037B3
:1019900009F460C0C9C0883809F4B8C0803909F4B6
:1019A0005FC0803809F0C0C05BC0803B09F486C0CE
:1019B00038F4803A09F466C0883A09F47FC0B4C0AC
:1019C000803C09F4A7C0883C09F4A4C0883B09F412
:1019D0008AC0AAC08091290210C090914B028091C8
:1019E0004A02981770F5E0914B0281E08E0F8093C8
:1019F0004B02F0E0E65DFD4F80818093BB0085ECFB
:101A000086C080934C028EC0E0914B0281E08E0F25
:101A100080934B028091BB00F0E0E65DFD4F808338
:101A200090914B0280914A026EC0E0914B0281E09E
:101A30008E0F80934B028091BB00F0E0E65DFD4F7E
:101A4000808380914D0281116DC081E080932802D6
:101A500084EA61C083E080934E021092FE01CFCFF2
:101A60008091FE01803208F051C0E091FE0181E0DA
:101A70008E0F8093FE018091BB00F0E0E252FE4F9A
:101A80008083BDCF85EC8093BC0010924E02809184
:101A9000FE01803230F4E091FE01F0E0E252FE4FB0
:101AA00010826091FE0170E0E091DC01F091DD01B7
:101AB0008EED91E009951092FE0136C084E080938E
:101AC0004E021092DB011092DA01E091D801F09100
:101AD000D90109958091DA01811105C081E08093D7
:101AE000DA011092B801E091DB0181E08E0F809362
:101AF000DB01F0E0E854FE4F80818093BB009091C1
:101B0000DB018091DA01981708F479CF85E880939A
:101B1000BC000AC085EC8093BC0010924E0204C049
:101B200010924C020E94C909FF91EF91BF91AF91B1
:101B30009F918F917F916F915F914F913F912F91E5
:101B40000F900FBE0F901F9018951F93CF93DF93A8
:101B5000EB0191E090934F0297E7909371021092FE
:101B6000500210927202682F80E193E00E94570A9F
:101B70000E94CE1782E00E942B1810929D01809344
:101B80009C0180E193E00E940B0A182F80E193E012
:101B90000E940B0A20E030E0312F822B932B998397
:101BA0008883DF91CF911F910C94CE170F931F93D1
:101BB000CF93DF9300D0CDB7DEB78C018EE20E94C9
:101BC0006D1865E070E080E090E00E94E70BBE01D8
:101BD0006F5F7F4F86EF0E94A50D49815A8160E0BB
:101BE00070E0F80140835183628373830F900F90FC
:101BF000DF91CF911F910F9108950F931F93CF9372
:101C0000DF9300D0CDB7DEB78B01BE016F5F7F4F92
:101C10000E94A50D89819A81F801918380830F909C
:101C20000F90DF91CF911F910F910895CF93DF9384
:101C3000EB0191E090934F0297E79093710210921D
:101C4000500210927202682F80E193E00E94570ABE
:101C50000E94CE1781E00E942B1810929D01809364
:101C60009C0180E193E00E940B0A8883DF91CF9171
:101C70000C94CE173F924F925F926F927F928F9209
:101C80009F92AF92BF92CF92DF92EF92FF920F930B
:101C90001F93CF93DF93CDB7DEB72F970FB6F8948E
:101CA000DEBF0FBECDBF8B0119821A821B821C8240
:101CB000CE0101960E94D60D80919E018295880FDB
:101CC000880F807C8C5C0E946D1880919E01813011
:101CD00069F038F0823079F46EE070E080E090E0F6
:101CE0000EC065E070E080E090E009C068E070E060
:101CF00080E090E004C06AE170E080E090E00E9443
:101D0000E70BBE016B5F7F4F86EF0E94A50DCD8074
:101D1000DE80E12CF12CFE2CED2CDC2CCC24BE0141
:101D2000695F7F4F88EF0E94160E30909E018F8171
:101D3000C80ED11CE11CF11C88E090E083199109C8
:101D4000A701960104C055954795379527958A9523
:101D5000D2F72C873D874E875F878091A9019091AC
:101D6000AA0149815A816B817C819A01AB01281BB0
:101D7000390B41095109A091A701B091A8010E9416
:101D8000842A6B017C01AFE0F594E794D794C79463
:101D9000AA95D1F76091B1017091B201CB01770F93
:101DA000AA0BBB0BBC01CD01BBE0660F771F881FE0
:101DB000991FBA95D1F72091B3013091B40149012F
:101DC000330FAA08BB08A7019601280D391D4A1D2B
:101DD0005B1D0E94652AC20ED31EE41EF51E30EA6A
:101DE000C31A3FE0D30AE108F108A7019601C70131
:101DF000B6010E94CB2C9B01AC018CE05595479518
:101E0000379527958A95D1F7288739874A875B8741
:101E100080909F019090A001A091A301B091A40196
:101E2000A70196010E948F2A2B013C019DE0759429
:101E30006794579447949A95D1F7A091AB01B091CC
:101E4000AC01288539854A855B850E948F2ABB278E
:101E500097FDB095AB2F840D951DA61DB71D02965D
:101E6000A11DB11D32E0B595A795979587953A9537
:101E7000D1F79C01AD0130584F4F5F4FA091A501A4
:101E8000B091A6010E94842A2B013C014FE0769478
:101E90006794579447944A95D1F7092C000CAA08E7
:101EA000BB0852E0880C991CAA1CBB1C5A95D1F7A0
:101EB000A091AD01B091AE01288539854A855B8539
:101EC0000E948F2A9B01AC016BE055954795379591
:101ED00027956A95D1F7288739874A875B87A0912C
:101EE000A101B091A201A70196010E948F2ADC01F5
:101EF000CB017BE0B595A795979587957A95D1F716
:101F0000288539854A855B85820F931FA41FB51FDD
:101F1000880E991EAA1EBB1E032C04C0880C991C97
:101F2000AA1CBB1C0A94D2F732E0830E911CA11CA0
:101F3000B11CE2E0B594A79497948794EA95D1F701
:101F40002C853D854E855F85281939094A095B092D
:101F500080E593ECA0E0B0E0BC01CD0104C0959514
:101F60008795779567953A94D2F70E94CB2C97FD89
:101F70000BC0660F771F881F991FA30192010E9453
:101F8000CE2A69017A010AC0A30192010E94CE2AD9
:101F900069017A01CC0CDD1CEE1CFF1C9927F7FCB3
:101FA0009A958F2D7E2D6D2D9B01AC010E94CB2C1F
:101FB0009B01AC01AEEDBBE00E94842A4C01BB2426
:101FC00097FCB094AB2CA3E4B3EEA70196010E945A
:101FD000922ABB2797FDB095AB2F880D991DAA1D9E
:101FE000BB1D8153914FAF4FBF4F44E0B595A795AF
:101FF000979587954A95D1F7BC01CD016C0D7D1D54
:102000008E1D9F1D0E94AE2BF80160837183828319
:1020100093832F960FB6F894DEBF0FBECDBFDF912E
:10202000CF911F910F91FF90EF90DF90CF90BF90D5
:10203000AF909F908F907F906F905F904F903F9068
:1020400008950F931F93CF93DF9300D000D0CDB7A7
:10205000DEB78B0124E2FB0111922A95E9F744E2F5
:1020600050E060E070E0F801408351836283738345
:10207000FC014381548165817681F8014483558355
:102080006683778346E050E060E070E040875187E8
:1020900062877387108A118A128A138ABE016F5F62
:1020A0007F4F0E943A0E20E030E048EC52E4698114
:1020B0007A818B819C810E94042BF801648B758B43
:1020C000868B978B81E00F900F900F900F90DF9190
:1020D000CF911F910F910895CF93DF93DC01FB0106
:1020E000EC01C359DE4F6881798122969881828103
:1020F00040815181823028F0BA0181E0838390E0F1
:1021000027C0ED01C059DE4F28813981EA01C22381
:10211000D323D2960D90BC91A02DCA17DB07C1F432
:10212000C9018095909563E0880F991F6A95E1F742
:1021300084239523892B51F083E0220F331F8A9546
:10214000E1F72760BA016223732301C0BA0195E069
:1021500071836083928381E0DF91CF910895CF9363
:10216000DF93CDB7DEB728970FB6F894DEBF0FBE6A
:10217000CDBFAC019CEC99839A839B839C839D8308
:102180001E821F8218869A01E1E021153105C9F0EF
:10219000611103C04115510569F4D901A770BB272E
:1021A000A45FBE4F8C91A1E0B0E0AC0FBD1FAE0F9D
:1021B000B11D8C9383E0369527958A95E1F7EF5F03
:1021C000E4CF611102C0452B39F4E62FF0E0E45F63
:1021D000FE4F8081898305C0F0E0E55FFE4F80817E
:1021E0008A8329813A814B815C816D817E818F81D7
:1021F000988528960FB6F894DEBF0FBECDBFDF914D
:10220000CF910895EF92FF920F931F93CF938C017C
:102210007B0166E00E94D003C82FC77D82E0E816EC
:10222000F10431F4C0628BE990E0A0E0B0E00DC0B1
:10223000EA94EF2829F085E590E0A0E0B0E005C041
:10224000C86081E490E0A0E0B0E0F801808B918B61
:10225000A28BB38B4C2F66E0C8010E94750366E029
:10226000C8010E94D00391E08C1390E0892FCF9198
:102270001F910F91FF90EF900895CF93DF93EC01A2
:102280006DE10E94D003482F44606DE1CE010E94B1
:1022900075036CE1CE010E94D003482F4F636CE1BF
:1022A000CE010E94750381E08887DF91CF91089568
:1022B000CF93DF93EC0160E00E94D00381FD0EC05C
:1022C000482F426060E0CE010E94750365E070E037
:1022D00080E090E0DF91CF910C94E70BDF91CF91FC
:1022E0000895CF93DF93EC0160E00E944303888957
:1022F00099890E94B90B6DE1CE010E94D00381FF44
:1023000007C0888999890E94B90BCE010E94720387
:1023100060E0CE010E94D003482F4E7F60E0CE01E6
:102320000E94750362E0CE010E94D003E2ECF3E06C
:10233000E49141E050E001C0440FEA95EAF7482BF0
:1023400062E0CE01DF91CF910C9475034F925F92C2
:102350006F927F92AF92BF92CF92DF92EF92FF92F5
:102360000F931F93CF93DF93CDB7DEB728970FB6A8
:10237000F894DEBF0FBECDBF8C01CB01D22E642FEF
:102380000E94AF1029013A015B017C01F80182A58E
:1023900082FD04C087A590A90E947111F80187A54C
:1023A00090A9DD2011F060E001C061E00E94861874
:1023B000F801C7A4D0A849825A826B827C82AD8280
:1023C000BE82EF82F886F6012685AE014F5F5F4F31
:1023D0006AE0C6010E949903F6012685AE014F5FAF
:1023E0005F4F60E1C6010E949903F601478161E1F8
:1023F000C6010E947503F801B4A8C7A4D0A80E9422
:10240000210C2B013C016FEFC6010E94560380FF97
:102410001EC06FEFC6010E94560384FF06C040E154
:1024200067E0C6010E94750310C00E94210CDC0108
:10243000CB0184199509A609B70980369105A10534
:10244000B10508F381E0F6018787F12C30C0F60171
:10245000F780EF2CBF1408F4EB2CF6018085811176
:1024600002C0FE1801C0F12CC6010E94400380EAA0
:102470000E944F035801F7E0AF0EB11CEA0CEA14BA
:1024800031F0F50181915F010E944F03F8CFFF20E9
:1024900029F080E00E944F03FA94F9CFC6010E9410
:1024A0003D0361E0C6010E944303FF24F394F80159
:1024B00082A582FD0FC0418152816381748187A50D
:1024C00090A90E94B219F82E60E0F80187A590A9A2
:1024D0000E9486188F2D28960FB6F894DEBF0FBE87
:1024E000CDBFDF91CF911F910F91FF90EF90DF90C3
:1024F000CF90BF90AF907F906F905F904F90089576
:102500008F929F92AF92BF92CF92DF92EF92FF9203
:102510000F931F93CF93DF93EC017B01CCA8D12CB9
:10252000860108501109DB0116969C918CE6890FF3
:10253000833020F0983C09F0CFC003C0943909F4EF
:10254000E4C08BE6890F823018F0983C09F08EC009
:102550006E0159EDC50ED11CD6012D913C91A801FB
:10256000420F531F4139510520F0C852DF4F1882E6
:10257000B1C05E01B8EDAB0EB11CF50180818823BE
:1025800009F415C1963929F0D70117969C91981333
:10259000A1C0FE01EB52FF4F40815181F7018481C0
:1025A00095814817590709F095C04E01FBED8F0E34
:1025B000911CD4018D919C91A801BE01615F7F4F58
:1025C000820F931F0E94062DF60180819181080FD2
:1025D000191F11830083D70116968C91863929F033
:1025E000F50180818150808373C0D5011C92F70171
:1025F0008781FE01E952FF4F8083833809F483C04D
:102600007E01FFECEF0EF11CF701A081B181CE013C
:102610008A1B9B0B8B539F4F80179107F8F03296C4
:102620008AE001900D928A95E1F7D7018D919C91F6
:10263000F40160817181D6014D915C910A960E94EE
:10264000062DF601808191810A96D7012D913C914A
:102650001197820F931F8D939C933AC08FA598A9D1
:102660000E9471118AA581608AA734C07E01BFECE7
:10267000EB0EF11CF701A081B181CE01C5969D0141
:10268000281B390BC901800F911F8B39910510F55B
:10269000E85CF10988E001900D928A95E1F7D70195
:1026A000ED91FC911197118700878D919C91BE014E
:1026B000615F7F4FA8010A960E94062DB2E0CB0E03
:1026C000D11CF70180819181C80ED91ED182C082B0
:1026D00081E06DC080E06BC0933841F6DE01AF52FF
:1026E000BF4FFE01379688E001900D928A95E1F781
:1026F000FE01E552FF4FCE010F9691838083C752B2
:10270000DF4F1983088382E052C0F7018781873049
:1027100008F02BCFFE01EB52FF4F40815181D701D2
:1027200014962D913C91159734976F0142175307DA
:1027300039F4408151812D913C914217530741F268
:10274000F8E18F9FC0011124FE01E153FF4F20816A
:102750003181AE01421B530B9A012B533F4F281777
:1027600039073CF48AA581608AA78FA598A90E94A1
:102770007111FE01379688E0D60101900D928A957D
:10278000E1F7FE01E552FF4FBE01615F7F4FA801F7
:10279000808191810E94062DFE01E752FF4F118337
:1027A0000083C852DF4F88818150888391CFDF91A9
:1027B000CF911F910F91FF90EF90DF90CF90BF903E
:1027C000AF909F908F9008952F923F924F925F927B
:1027D0006F927F928F929F92AF92BF92CF92DF9231
:1027E000EF92FF920F931F93CF93DF9300D01F922E
:1027F000CDB7DEB7DC019A969C919A97892F8270AB
:1028000091FD19C0FD01E153FF4FAD014B5C5F4FDE
:1028100090FD07C020813181241B350B29373105FC
:1028200054F0208131814217530708F47CC19E7F08
:102830009A969C939A97BB83AA830E94210C2B01A2
:102840003C0110E0CA80DB8027E0C20ED11C2A8048
:102850003B8031E9231A3EEF330AF4E2AF2EF9E070
:10286000BF2EEA81FB81E7A4F0A8F7018081918166
:102870008F3F910529F1828193818F3F910501F16D
:1028800067E1C7010E94D003082F017080FD18C0C6
:102890006FEFC7010E9456030E94210CDC01CB019F
:1028A00084199509A609B709EA81FB81E7A4F0A874
:1028B000893E9340A105B10528F081E0F7018787A3
:1028C000812F31C1C7010E94400380E60E944F035F
:1028D0008FEF0E944F03982EC7010E943D03F0E244
:1028E000F91558F462EEC7010E94560362E070E0E9
:1028F00080E090E00E94E70B01C0092DEA81FB8196
:1029000004AB083038F46AE070E080E090E00E94A8
:10291000E70BA7CFEA81FB81E7A4F0A8F701878145
:10292000801708F4082FF7019085911103C0801BD0
:10293000898301C01982C7010E94400381E60E9479
:102940004F034601015038F08FEF0E944F03F4010E
:1029500081934F01F7CF0981002329F08FEF0E9467
:102960004F030150F9CFC7010E943D0340E767E0E4
:10297000C7010E947503EA81FB8161857285CB01E5
:10298000009759F0282F2770263008F06ACFE3E02F
:1029900096958795EA95E1F7F3CFEA81FB81158556
:1029A00082A993A96817790709F043C0123809F47E
:1029B00058CF103891F464327940F1F0EA81FB810C
:1029C000B286A18642E064E279E0CF010E94A915B7
:1029D0006AE070E080E090E049C0133C69F4611562
:1029E000710551F0EA81FB81708767831286118639
:1029F00040E060E070E041C0EA81FB8181A588236E
:102A000019F017FF0CC002C0113C49F48CE6810F8D
:102A1000833028F0183C19F0133809F051CFB60173
:102A20008A819B810E948012823009F01ACF83E84C
:102A30007AC06034710509F070C0123C01F5EA817A
:102A4000FB8122A523FD0DCF8432F9E09F0709F415
:102A500008CFEA81FB8127813085328721879087E3
:102A60008783F101608170E080E090E00E94E70BD5
:102A7000EA81FB816185728542E0CF0151C0B601D8
:102A80008A819B810E948012082FEA81FB818081CC
:102A9000882309F43EC022A933A9C90153E09695C1
:102AA00087955A95E1F7892B21F08CEB92E10197FC
:102AB000F1F7C901837099279C0148E552E0249FF2
:102AC000C001259F900D349F900D11240E94B90BD9
:102AD000EA81FB8121A9222381F030E021503109D4
:102AE000C901880F991F280F391F61E070E002C0EB
:102AF000660F771F2A95E2F702C060E070E083E07E
:102B0000660F771F8A95E1F744E08A819B810E94D6
:102B1000A915023009F0A5CE8ACF41E08A819B81B8
:102B20000E94A9159ECE0F900F900F90DF91CF912C
:102B30001F910F91FF90EF90DF90CF90BF90AF90DB
:102B40009F908F907F906F905F904F903F902F90CD
:102B50000895CF92DF92EF92FF920F931F93CF933E
:102B6000DF9300D000D0CDB7DEB7FC0195859B0187
:102B70002115310561F0822F8770863030F483E0B3
:102B8000369527958A95E1F7F3CF80E097C0915469
:102B9000EE24E3949F3708F0E12CF42E6B018F01B3
:102BA00019821A821B821C827A8369834B83BE013D
:102BB0006F5F7F4FCF010E946C1069817A812C81F9
:102BC0004B81C8010E94A611F1E0FF1227C08111BC
:102BD00002C0F12C6AC089819A818C159D0501F58E
:102BE000EE20F1F081ECF80185878781908592874E
:102BF00081879A838983FB821C82BE016F5F7F4F2E
:102C0000C8010E946C1088E0F80184AB69817A8168
:102C10002C814B81C8010E94A61102C08823C9F2F1
:102C200089819A818C159D0519F4FF24F3943DC088
:102C3000FF2019F0F3E0FF12F8CFEE20B1F3F80116
:102C400082A582FF11C0418152816381748187A571
:102C500090A90E94B219F80182A58B7F82A760E03B
:102C600087A590A90E948618F80187A590A90E94BF
:102C7000F0030E94210C6B017C01C8010E94E41347
:102C8000813C99F20E94210CAB01BC014C195D09F9
:102C90006E097F09F80185819681A0E0B0E0841774
:102CA0009507A607B70748F794CFF80182A582FDDC
:102CB00004C087A590A90E94F0038F2D0F900F905C
:102CC0000F900F90DF91CF911F910F91FF90EF9098
:102CD000DF90CF900895EF92FF920F931F93CF93C1
:102CE000DF93EC017B01BA018AA99BA9F7019183CB
:102CF0008083DE01179688E001900D928A95E1F7B6
:102D00002115310529F0A901CE010F960E94062D4B
:102D1000F701628173810833110561F06034710538
:102D200011F444E001C043E06017710709F442E088
:102D3000B80101C040E0CE01DF91CF911F910F910A
:102D4000FF90EF900C94A9152F923F924F925F92B3
:102D50006F927F928F929F92AF92BF92CF92DF92AB
:102D6000EF92FF920F931F93CF93DF93EC017B01C0
:102D70005A01690148010E94210C4BA45CA46DA476
:102D80007EA4DC01CB0184199509A609B7094997EE
:102D9000A105B10528F4CE010E94E41387FFEBCF13
:102DA0008CE891E00197F1F789E1C816D104B0F4FD
:102DB00088E08C0D8CAB84019601A501B701CE0192
:102DC0000E946B16182F882311F011E092C00E9408
:102DD000210C6BA77CA78DA79EA78BC0E1E9CE161F
:102DE000D10408F085C0C60168E170E00E94E72CBC
:102DF00021E0892B09F420E0C60168E170E00E941F
:102E0000E72C722E760EF701828193818034910532
:102E100039F08AA584608AA78FA598A90E947111AC
:102E2000F7014680512C612C84E9282E96E9392E31
:102E3000F7017782F1E07F1204C0F7013682478202
:102E400008C0611003C0F701268203C085E9F701BD
:102E50008683E8E16E9EA00111249601241B350BA8
:102E60002931310510F028E130E088E0820F8CAB89
:102E70004A0D5B1D8401B701CE010E946B16182F0D
:102E800081110BC062E070E080E090E00E94E70BEF
:102E90005394F2E0F51560F606C07A9463947720B7
:102EA00011F0512CC5CFF70146828AA582FF12C0CE
:102EB00049815A816B817C818FA598A90E94B219A2
:102EC000182F8FA598A90E94F00360E08FA598A9FC
:102ED0000E9486188AA58B7F8AA7112349F0772044
:102EE00009F473CF0E94210C6BA77CA78DA79EA726
:102EF00010E0812FDF91CF911F910F91FF90EF9004
:102F0000DF90CF90BF90AF909F908F907F906F9009
:102F10005F904F903F902F900895009769F0FC01CB
:102F200001900020E9F73197AF01481B590BBC0114
:102F300083E792E00C94C30880E090E008950F933B
:102F40001F93CF93DF938C01C0E0D0E0F801EC0F2A
:102F5000FD1F6491662371F0E0917302F091740299
:102F60000190F081E02D83E792E00995892B11F023
:102F70002196ECCFCE01DF91CF911F910F91089553
:102F8000CF93DF930E949F17EC0182E791E00E94AC
:102F90008D178C0F9D1FDF91CF91089520917202A4
:102FA00090917102213208F04AC080914E02811145
:102FB000FCCF32E030934E0231E030934D023FEFD0
:102FC00030934C0210924B0220934A02A1E5B2E0EA
:102FD0004AE252E0FA013E2F341B321718F43D91B9
:102FE0003193F9CF1092290220912902990F922B47
:102FF0009093290290912802913061F41092280256
:10300000909129029093BB009091BC0093FDF8CF62
:1030100095EC01C095EE9093BC0090914E029230D9
:10302000E1F390914C029F3F79F080914C02803205
:1030300041F080914C02803331F084E005C081E0A2
:1030400003C082E001C083E010925002109272022D
:1030500010924F02089590914E029111FCCF91E091
:1030600090934E0290934D022FEF20934C021092BA
:103070004B02280F20934A02909329029091290233
:103080009E6E9093290290912802913061F41092E3
:103090002802909129029093BB009091BC0093FD6F
:1030A000F8CF95EC01C095EE9093BC0090914E0244
:1030B0009130E1F390914B02981710F480914B02FC
:1030C000AAE2B2E028E032E0F9019E2F921B9817A5
:1030D00018F49D919193F9CF0895CF93C82F81E073
:1030E00080934F0287E780937102109250021092F2
:1030F000720264EF80E193E00E94570A6C2F80E136
:1031000093E00E94570ACF910C94CE171F93CF9350
:10311000DF93EC01162F61E00E94D003482F1123AA
:1031200011F0416001C04E7F61E0CE01DF91CF918F
:103130001F910C9475037F928F929F92AF92BF92D2
:10314000CF92DF92EF92FF920F931F93CF93DF9373
:10315000CDB7DEB728970FB6F894DEBF0FBECDBF50
:10316000FC019B012115310559F0822F87708630B3
:1031700008F0E4C0A3E036952795AA95E1F7F2CFD1
:1031800062AB73AB87A590A9DC012D913C912F3FD9
:10319000310509F4D3C0DC0112962D913C911397AF
:1031A0002F3F310509F4CAC0E72EF62E8F0160E0EB
:1031B0000E948618F80187A590A90E943D11D801A8
:1031C000D2968D919C91D39766E070E00E94E72C97
:1031D000482F440F4B5FB0E14B9FA0011124456085
:1031E00064E0F80187A590A90E94750389E190E049
:1031F000A0E0B0E0F80181839283A383B4838BE4E1
:1032000090E09683858382A993A940E02FEF3FEF5A
:10321000B90168237923672B39F073E0220F331F3C
:103220007A95E1F74F5FF4CFF80141AB20953095E7
:10323000E059FE4F3183208363E0369527956A95E8
:10324000E1F73397A901482359235183408321157E
:10325000310559F043E0969587954A95E1F753E09B
:10326000369527955A95E1F7F2CFF801E159FE4FCF
:10327000808386E0782E88248394912C7A94FFEFC3
:103280007F1609F454C0672D8F2D9E2D0E94AF101C
:10329000D8019F96CD90DC90D09729833A834B83B9
:1032A0005C836D837E838F839887A72CB12C7110EC
:1032B0000BC0F601468550E0BE016F5F7F4FC6012F
:1032C00009960E94062D03C0F1E07F1208C0F501A7
:1032D000E253FC4F6491D6011E962C9105C0F50176
:1032E000E253FC4F649121E0AE014F5F5F4FC60196
:1032F0000E949903F501E853FC4F6491F601478160
:10330000C6010E94750362E0C6010E94D003F50168
:10331000EE53FC4FE491940101C0220FEA95EAF7C5
:10332000482F422B62E0C6010E947503A7CFD80147
:103330009F968D919C91D0970E94F00328960FB68E
:10334000F894DEBF0FBECDBFDF91CF911F910F91DB
:10335000FF90EF90DF90CF90BF90AF909F908F90B5
:103360007F9008954F925F926F927F928F929F927B
:10337000AF92BF92CF92DF92EF92FF92CF93DF9303
:10338000EC014A015B010E94210C6B017C012401CC
:1033900035018FE5480E511C611C711C67E1CE019F
:1033A0000E94D00384FD39C06FEFCE010E94560306
:1033B00084FF22C040E167E0CE010E94750360E017
:1033C000CE010E94430361E0CE010E9443030E94AC
:1033D000210CDC01CB018C199D09AE09BF098815B0
:1033E0009905AA05BB0540F060E0CE010E944303A9
:1033F000CE010E9472030FC00E94210CDC01CB01A0
:103400008C199D09AE09BF09481659066A067B0644
:1034100028F681E08F8780E005C060E0CE010E9441
:10342000430381E0DF91CF91FF90EF90DF90CF9049
:10343000BF90AF909F908F907F906F905F904F90D4
:103440000895AF92BF92CF92DF92EF92FF920F93C7
:103450001F93CF93DF93CDB7DEB728970FB6F894BD
:10346000DEBF0FBECDBFDC01ED91FC91E432F9402F
:1034700011F480E02AC06901142F5B017C010E94D5
:10348000210CF701808191818432994091F31C8253
:103490001B8280910401909105019C012F5F3F4F99
:1034A00030930501209304019E838D831F8308E3DD
:1034B00010E09601A501BE016F5F7F4FD7011896FE
:1034C0008D919C9119970E94A41628960FB6F89496
:1034D000DEBF0FBECDBFDF91CF911F910F91FF9047
:1034E000EF90DF90CF90BF90AF900895CF9328E1F9
:1034F00030E040E76CE373E080913A0390913B0346
:103500000E94211AC82F811112C080913A03909114
:103510003B030E94A80781110AC040ED57E060E01C
:1035200070E080913A0390913B030E94EA048C2F53
:10353000CF9108958F929F92AF92BF920F931F9356
:10354000CF93DF93CDB7DEB7A1970FB6F894DEBF68
:103550000FBECDBF19A2423008F44AE08E010F5DC4
:103560001F4F842E912CA12CB12CA50194010E94F7
:10357000CE2AE62FB901CA0101501109EA3014F42C
:10358000E05D01C0E95CD801EC93232B242B252BB3
:1035900061F7C8010E948D17A1960FB6F894DEBF9F
:1035A0000FBECDBFDF91CF911F910F91BF90AF9014
:1035B0009F908F900895CF93DF93682F70E080E005
:1035C00090E04AE00E949A1AEC0182E791E00E94A2
:1035D0008D178C0F9D1FDF91CF9108958F929F9231
:1035E000AF92BF92DF92EF92FF920F931F93CF9310
:1035F000DF93C82F162F282F30E0F901E255FC4F3A
:10360000D491F901E656FC4FE491F0E0EE0FFF1F74
:10361000E057FC4FE590F490109226051092270594
:10362000109228051092290510922A0561E00E9447
:103630007D0B60E08C2F0E94310B612F70E080E0E9
:1036400090E00E94E70B61E08C2F0E94310B8CE42C
:1036500090E00197F1F760E08C2F0E947D0B28EC41
:1036600030E0F70180818D2331F421503109C9F711
:103670008EEF9FEF4FC028EC30E0F70180818D2363
:1036800021F021503109C9F7F3CF08E210E8D12C1D
:1036900028EC30E0F70180818D2321F4215031099D
:1036A000C9F7E6CF0E94C20B4B015C0128EC30E069
:1036B000F70180818D2321F021503109C9F7D8CF3E
:1036C0000E94C20BDC01CB0188199909AA09BB0928
:1036D0008997A105B10538F0ED2DF0E0EC5DFA4FCA
:1036E0008281812B8283212F30E03595279521150A
:1036F000310511F0122F02C0D39410E8015041F6A9
:1037000061E08C2F0E947D0B61E08C2F0E94310BB9
:1037100080E090E0DF91CF911F910F91FF90EF90AB
:10372000DF90BF90AF909F908F900895CF92DF92DF
:10373000EF92FF92CF93DF936B017C01E0917302D4
:10374000F09174020190F081E02D6DE283E792E048
:103750000995EC0166277727CB016C197D098E0945
:103760009F094AE00E949A1A8C0F9D1FDF91CF910A
:10377000FF90EF90DF90CF900895CF93DF93BC013F
:10378000990F880B990B97FF03C00E94961B03C0EB
:103790004AE00E949A1AEC0182E791E00E948D179C
:1037A0008C0F9D1FDF91CF910895CF93DF93809170
:1037B0007203909173030E9436048DE780937F0318
:1037C0004DE765E080917203909173030E94750349
:1037D00061E070E080917203909173030E94021186
:1037E000C0917403D091750381E089A780916E0325
:1037F000882399F084E299E090936D0380936C03A1
:1038000040E45FE160E070E08CE693E00E94EA044F
:1038100021E0892BB1F420E014C086E090E00E9402
:103820006F289093700380936F031092710310922E
:103830006D0310926C0360E070E0CE010E949B1853
:1038400021E0822FDF91CF910895EF92FF920F93A5
:103850001F93CF93DF931F92CDB7DEB7E42E9F93D4
:103860008F938AE893E09F938F9369830E945B26EE
:103870006981E60E0F900F900F900F9002E813E011
:103880006E1599F0FF24F394F60E86EF94E00E94F3
:10389000D0031F928F931F930F930E945B260F906C
:1038A0000F900F900F906F2DEBCF8FE793E09F93CA
:1038B0008F930E945B260F900F900F90DF91CF9116
:1038C0001F910F91FF90EF9008952F923F924F928A
:1038D0005F926F927F928F929F92AF92BF92CF92A0
:1038E000DF92EF92FF920F931F93CF93DF931F927C
:1038F000CDB7DEB7562E342E6DB67EB69F938F931E
:1039000089E793E09F938F930E945B26350C0F907D
:103910000F900F900F9085E7C82E83E0D82E90E788
:10392000A92E93E0B92E531409F452C08DB69EB659
:1039300020910405022F10E08DB79EB7801B910BDC
:103940000FB6F8949EBF0FBE8DBFEDB7FEB7319690
:103950007F0122242394250C86EF94E029830E9482
:103960004003852D8F710E944F03270129812E0D61
:10397000241549F08FEF29830E944F03F2018193B0
:103980002F012981F5CF86EF94E00E943D03DF925D
:10399000CF920E945B260E0D1F1D0F900F900150BD
:1039A00011090E151F0568F0F80180811F928F9391
:1039B000BF92AF920E945B260F900F900F900F90D6
:1039C000EECF0FB6F8949EBE0FBE8DBE522CABCF7D
:1039D0008DE693E09F938F930E945B260F900F904C
:1039E0000FB6F8947EBE0FBE6DBE0F90DF91CF91E3
:1039F0001F910F91FF90EF90DF90CF90BF90AF900D
:103A00009F908F907F906F905F904F903F902F90FE
:103A10000895CF93DF93CDB7DEB7AC970FB6F89488
:103A2000DEBF0FBECDBF789484B5826084BD84B5FF
:103A3000816084BD85B5826085BD85B5816085BDA9
:103A400080916E00816080936E0010928100809161
:103A500081008260809381008091810081608093E9
:103A60008100809180008160809380008091B1000E
:103A700084608093B1008091B00081608093B00039
:103A800080917A00846080937A0080917A008260CD
:103A900080937A0080917A008E7F80937A00809163
:103AA0007A00806880937A001092C10061E086E01D
:103AB0000E947D0B61E086E00E94310BE091830261
:103AC000F091840282E08083E0917F02F091800295
:103AD0001082E0918102F091820288E0808310924E
:103AE0008B02E0918702F091880286E08083E0916A
:103AF0008502F0918602808180618083E091850259
:103B0000F0918602808188608083E0918502F09147
:103B10008602808180688083E0918502F091860230
:103B200080818F7D808360E070E081E393E00E947C
:103B3000102689E090E00E944F2A8093010128E23C
:103B4000E22E23E0F22E67010FE010E0C8010E9490
:103B50004F2AF60181936F010F5F1F4F0F3111053F
:103B6000A9F782ED90E00E949F17809101010E94C9
:103B7000DB1A84EC90E00E949F170DE611E09E0195
:103B80002F5F3F4F1901F70181917F011F928F93A2
:103B90001F930F933F922F920E94302DC1010E94DC
:103BA0008D170F900F900F900F900F900F90F8E3DC
:103BB000EF16F3E0FF0639F782E791E00E948D17D8
:103BC00010929D0110929C0110925002109272026C
:103BD00010924E0281E080934D021092280261E023
:103BE00082E10E94310B61E083E10E94310B809100
:103BF000B9008E7F8093B9008091B9008D7F80934A
:103C0000B90080E28093B80085E48093BC00B101E4
:103C100080ED0E94160E89818535E1F583E0809361
:103C20009E016FE971E08AEA0E94FD0D61EA71E090
:103C30008CEA0E94FD0D63EA71E08EEA0E94FD0DA0
:103C400065EA71E080EB0E94A50D67EA71E082EB06
:103C50000E94A50D69EA71E084EB0E94A50D6BEA54
:103C600071E086EB0E94FD0D6DEA71E088EB0E9429
:103C7000FD0D6FEA71E08AEB0E94FD0D61EB71E0D2
:103C80008CEB0E94FD0D63EB71E08EEB0E94FD0D4D
:103C900081E001C080E080931705811104C082EEAD
:103CA00090E00E94C01780910101823038F4809129
:103CB0002803811101C081E0809301018DE492E02D
:103CC0000E94C01786EF94E00E94360486EF94E0CD
:103CD0000E943D114FE361E086EF94E00E9475037E
:103CE0004FEF64E086EF94E00E94750366E086EF94
:103CF00094E00E94D003482F476066E086EF94E08E
:103D00000E94750381E392E00E949F178091010158
:103D100080936E030E94DB1A0E94D51B6FEF86EF23
:103D200094E00E945603282F30E0982F91701F9244
:103D30009F9335952795277033273F932F9384FBC7
:103D4000992790F91F929F9385FB992790F91F92CD
:103D50009F9386FB992790F91F929F931F928F93B1
:103D60008AEF90E09F938F930E945B2642E06AE087
:103D700085EF91E00E94651C44E06CE088EE91E0E4
:103D80000E94251C41E060E18FED91E00E94651CDE
:103D900046E061E184ED91E00E94251C41E061E094
:103DA0008DEC91E00E94251C41E062E083EC91E003
:103DB0000E94251C41E065E08CEB91E00E94251CEF
:103DC00041E066E083EB91E00E94251C41E060E069
:103DD0008BEA91E00E94251C42E06CE18DE991E0C4
:103DE0000E94251C66E086EF94E00E94D003887252
:103DF0000FB6F894DEBF0FBECDBF803241F021E098
:103E000090E0883009F020E0E22FF92F02C0E2E0D4
:103E1000F0E0EE0FFF1FE956FE4F859194919F93BE
:103E20008F9385E891E09F938F930E945B26E091AA
:103E3000FC04F0E0EE0FFF1FEF57FE4F85919491C9
:103E40009F938F9382E791E09F938F930E945B26CD
:103E500060E086EF94E00E94D003182F61E086EFC7
:103E600094E00E94D0030FB6F894DEBF0FBECDBF22
:103E700013FD02C0882329F012FD06C0E1E0F0E046
:103E800005C0E0E0F0E002C0E2E0F0E0EE0FFF1F6E
:103E9000E459FE4F859194919F938F9389E591E02A
:103EA0009F938F930E945B2666E086EF94E00E94CA
:103EB000D0038670E82FF0E0EF5AFE4F8591949181
:103EC0009F938F9380E491E09F938F930E945B2652
:103ED00087E192E00E94C01784B7877F84BF8091FA
:103EE000600088618093600081E28093600080912F
:103EF000600080648093600060E086E00E94310B87
:103F000068EC70E080E090E00E94E70B61E086E002
:103F10000E94310B82E092E00E949F170E94210CC8
:103F20004AE00E949A1A82E791E00E948D170FB62C
:103F3000F894DEBF0FBECDBF412CB0EC5B2EB9E7CD
:103F40006B2EB4EC7B2E8CE693E00E949F06809152
:103F5000B501882349F18091530490915404895B01
:103F6000934041F038F08CE693E00E949F060E9457
:103F70001408F1CF8DE992E00E94C0178091B5013D
:103F8000882381F040ED57E060E070E08CE693E03C
:103F90000E94EA04892B31F48BE892E00E94C0175A
:103FA0000E94D51B1092B50180910505882359F018
:103FB00080E792E00E949F178091050590E00E94A3
:103FC000BD1B1092050580910001882309F440C0B3
:103FD00087E080933C0381E090E090933E038093E0
:103FE0003D03E0913803F091390380E1AFE3B3E0A2
:103FF00001900D928A95E1F70FE028E130E044E46A
:104000006CE373E080913A0390913B030E94211A84
:10401000182F811114C080913A0390913B030E94A4
:10402000A80781110AC040ED57E060E070E0809180
:104030003A0390913B030E94EA040150F1F691E0AB
:10404000812F89278093B50189E592E00E94C017EE
:104050008EE480937C0062E070E080E090E00E945B
:10406000E70B80917A00806480937A0080917A00D7
:1040700086FDFCCF209178008091790030E0382BCC
:10408000032E000C440B550B64EB7BE281E190E0C6
:104090000E94652A922FE32F742F652F80911E03B3
:1040A000882311F18E3008F08E50877080648093E1
:1040B0007C0080917A00806480937A0080917A00FD
:1040C00086FDFCCFA091780080917900B0E0B82BFC
:1040D000292F3E2F472F562F0E948F2A2FEF33E094
:1040E00040E050E00E94652A209321033093220390
:1040F000409323035093240380912503853008F0D7
:1041000058C0DA01C9018E549C40A109B10984311B
:104110009140A105B10530F48FEF92E00E949F1706
:1041200011E010C022363D404105510530F089EEC6
:1041300092E00E949F1713E005C088ED92E00E9474
:104140009F1712E060912103709122038091230355
:10415000909124034AE00E949A1A82E791E00E941B
:104160008D1780912603811106C01093260381E0EC
:10417000809325031EC081131AC0809125038F5F91
:104180008093250385EC92E00E949F17609126039F
:1041900070E080E090E04AE00E949A1A81EB92E0A1
:1041A0000E949F17809125030E94DB1A02C0109283
:1041B000260380912603813009F478C0833009F00A
:1041C0005AC08091210390912203A0912303B091C2
:1041D00024038936E0E19E07A105B10508F066C019
:1041E0008F36FFE09F07A105B105A8F09C01AD0146
:1041F0002E563F4041095109A4E1B0E00E94842AB3
:104200002AEF30E040E050E00E94652A205B3F4FFB
:104210004F4F5F4F53C081312EE09207A105B1058A
:10422000A8F09C01AD0120513E4041095109ACE389
:10423000B0E00E94842A2EE531E040E050E00E9488
:10424000652A2C5E3F4F4F4F5F4F38C08D383AE0A4
:104250009307A105B10578F19C01AD012C583A40B6
:1042600041095109A4E1B0E00E94842A24E833E026
:1042700040E050E018C08230F1F480912103909129
:104280002203A0912303B09124039C01AD012C587B
:104290003A4041095109A4E6B0E00E94842A22EC88
:1042A00031E040E050E00E94652A08C024E630E09A
:1042B00040E050E003C020E030E0A90125363105A0
:1042C0004105510518F42093270303C085E6809328
:1042D00027031091B50111115EC118C2DA9485E16E
:1042E00093E00E949F17C7018D1991090E94BD1B81
:1042F00068EE73E080E090E00E94E70BDD2089F13A
:1043000065E070E080E090E00E94E70B80912C0572
:104310008B3009F401C2863109F078C261E08091E6
:104320002B050E94EE1A009709F41FC240921E0549
:1043300050921F056092200570922105409222053F
:1043400050922305609224057092250590932E05C6
:1043500080932D0580912D0590912E05892B09F0D4
:10436000BDCF80911705882309F45CC2B10180E1BB
:1043700095E00E94211020E030E0A9016D897E893E
:104380008F89988D0E94FF2A882309F444C2CE01A8
:1043900085960E94D60D8091A9019091AA014DA108
:1043A0005EA16FA178A59A01AB01281B390B4109C9
:1043B0005109A091A701B091A8010E94842A6B0124
:1043C0007C016FE0F594E794D794C7946A95D1F790
:1043D0006091B1017091B201CB01770FAA0BBB0BB9
:1043E000BC01CD01EBE0660F771F881F991FEA958E
:1043F000D1F72091B3013091B4014901330FAA08DC
:10440000BB08A7019601280D391D4A1D5B1D0E949E
:10441000652AD701C601820F931FA41FB51F0896F6
:10442000A11DB11DBC01CD01F4E09595879577954F
:104430006795FA95D1F70E94AE2B20E030E040E27C
:1044400051E40E94042B20E030E040E251E40E945D
:104450005E2C0E94762B709319056093180520E05E
:1044600030E0A9016D897E898F89988D0E94FF2A8D
:10447000882309F4DDC1BE016B5D7F4F80E195E0CB
:104480000E943A0E20E030E040E251E46DA17EA1AE
:104490008FA198A50E94042B0E94762B70931B0578
:1044A00060931A0580912603813009F4C8C152E057
:1044B000F52E87E080933C0381E091E090933E03EA
:1044C00080933D0384E090E09093400380933F030A
:1044D000E0913803F091390380E1A1E4B3E0019069
:1044E0000D928A95E1F700E028E130E040E56CE3C9
:1044F00073E080913A0390913B030E94211AE82EC9
:10450000882309F49FC10F5FEE2009F4AEC1E09249
:10451000B6018CE693E00E949F06E0911C05F091A5
:104520001D050190F081E02D8CE195E009957C015D
:10453000E0911C05F0911D050280F381E02D8CE1D6
:1045400095E0099507E000933C0322E031E03093C9
:104550003E0320933D0321E030E03093400320935D
:104560003F03F0924203E09241039093440380930F
:1045700043030E94761AF82E8093B6018CE693E0EE
:104580000E949F06F11074C181E018271093B501B5
:10459000112309F4E9C180912603813009F48FC009
:1045A00084E393E00E94C0176BE470E080E090E049
:1045B0000E94E70B80916C0390916D0384329940C7
:1045C00071F11C821B8280910401909105019C0174
:1045D0002F5F3F4F30930501209304019E838D830D
:1045E00085EC8F8308E310E020E030E040E050E00D
:1045F000B10180917403909175030E94A4168823E1
:1046000071F064E279E080917403909175030E94E7
:104610009B1884E299E090936D0380936C0360E0B3
:1046200086EF94E00E94430360E086EF94E00E94EE
:10463000D003482F4D7F60E086EF94E00E94750321
:1046400060E086E00E94310B83B7817F846083BF86
:1046500080911F0391E0980F90931F039091200386
:10466000891750F483B7816083BF83B7816083BFAC
:10467000889583B78E7FEBCF83B78E7F83BF809182
:10468000640080718093640010921F0361E086E0F3
:104690000E94310B86EF94E00E94581186EF94E05F
:1046A0000E94F00348EE53E060E070E08CE693E097
:1046B0000E94EA04109203011092020124C080912A
:1046C000B501882301F1C0900101D12C40E3C41A47
:1046D00048EFD40ACC0CDD1CCC0CDD1C85E791E046
:1046E0000E948D170D2C000CEE08FF084AE0C70150
:1046F000B6010E949A1A82E791E00E948D17C701C5
:10470000B6010E94E70B0E94BF091DCC85E0D82EA0
:1047100094E0E92EF12CF4CD62E180912B050E940A
:10472000EE1A009709F002CE00912605602F70E086
:1047300080E090E00E94AC2B60931E0570931F05F3
:104740008093200590932105C09028056C2D70E082
:1047500080E090E00E94AC2B6093220570932305CB
:10476000809324059093250538C0B0902705A0902C
:1047700026056B2D70E07A2980E090E00E94AC2B3A
:104780002DEC3CEC4CEC5DE30E945E2C60931E052E
:1047900070931F058093200590932105C0902905F3
:1047A00000912805802F8F776C2D70E0782B80E0AA
:1047B00090E00E94AC2B2DEC3CEC4CEC5DE30E94B5
:1047C0005E2C07FD17C0609322057093230580932C
:1047D000240590932505BA0CCB0C0C0D81E090E0DC
:1047E00020912A05201302C080E090E091958195E8
:1047F0009109ACCDDC01CB01B05880932205909398
:104800002305A0932405B0932505E5CF10922E052E
:1048100010922D059FCD80E090E89093190580932C
:1048200018051DCE80E090E8909319058093180537
:104830008FEF90E090931B0580931A0533CE45E0EF
:10484000F42E37CE80913A0390913B030E94A80743
:10485000811159CE40ED57E060E070E080913A035D
:1048600090913B030E94EA044ECE0F113DCE4FCEF5
:10487000E0910E05F0910F050190F081E02D8EE0A2
:1048800095E009957C01E0910E05F0910F050280FD
:10489000F381E02D8EE095E0099500933C0323E041
:1048A00031E030933E0320933D0322E030E030932B
:1048B000400320933F03F0924203E0924103909320
:1048C0004403809343030E94761AF82E8093B60126
:1048D0008CE693E00E949F06FF2009F455CEE091FC
:1048E0001C03F0911D030190F081E02D8CE193E019
:1048F00009956B017C01E0911C03F0911D0302807E
:10490000F381E02D8CE193E00995182FE0911C03D1
:10491000F0911D030480F581E02D8CE193E0099571
:1049200000933C0324E031E030933E0320933D03A9
:1049300023E030E03093400320933F03C0924103D3
:10494000D0924203E0924303F09244031093450354
:10495000809346030E94761A182F8093B6018CE646
:1049600093E00E949F0610CE0E94210C69A77AA7AF
:104970008BA79CA780912603813019F480E49CE9E1
:1049800002C084EF91E0D12C00E038ECC32E4C0142
:10499000A12CB12C0E94210CDC01CB0129A53AA548
:1049A0004BA55CA5821B930BA40BB50B8815990531
:1049B000AA05BB0508F075C0043011F00F5F10C0E8
:1049C000DD2011F0C39401C0CA9444E1C41629F05B
:1049D00054EBC51204C0D12C02C0DD24D39400E0F6
:1049E000EC2CF12C61E086E00E947D0BE114F104D7
:1049F00011F460E005C06FEFE616F10429F461E000
:104A000086E00E94310B44C0E6E2F3E084918330FB
:104A1000F9F048F48130B9F08230A1F584B58062B4
:104A200084BDC8BC35C08730E9F0883019F18430C6
:104A300049F580918000806280938000F0928B0025
:104A4000E0928A0025C084B5806884BDC7BC20C0C0
:104A500080918000806880938000F0928900E092CD
:104A6000880016C08091B00080688093B000C0922A
:104A7000B3000EC08091B00080628093B000C092FD
:104A8000B40006C0F0E8EF16F1040CF0B8CFB1CFD7
:104A90008CE693E00E949F060E94140881117ACF51
:104AA00005C061E086E00E94310B11E01093B50172
:104AB00072CD0895CF93DF93E3E7F2E01382128281
:104AC00088EE93E0A0E0B0E084839583A683B7836B
:104AD00027E131E03183208325EC30E035872487DE
:104AE00024EC30E03787268720EC30E0318B208BB8
:104AF00021EC30E0338B228B22EC30E0358B248BA1
:104B000026EC30E0378B268B118E128E138E148E8E
:104B1000E0E1F3E01382128284839583A683B78356
:104B200089E291E091838083ECE1F5E089E691E010
:104B3000918380838EEF9FEF928B818B84E08787B8
:104B400086E1808BEEE0F5E081E691E09183808361
:104B500085E491E09383828385E697E2A0E0B0E06C
:104B600085839683A783B0871186E6EFF4E087E01C
:104B700090E09183808388E090E093838283168223
:104B800080E28783108685E0868745E050E060E01C
:104B900070E0448B558B668B778B1186A4E8B3E06D
:104BA000D096FC93EE939F9729EB33E03093540417
:104BB0002093530421E634E03093600420935F0493
:104BC00025E534E098963C932E9397979B961D92FB
:104BD0001D921D921C929E979A961C929A97999656
:104BE0001C9299971C92CCE6D3E0FF83EE83B987A1
:104BF000A887E8E3F3E028E233E031832083D3831E
:104C0000C283ECE1F3E02BE331E0318320831282B5
:104C100013828483118612861386DF91CF910895C3
:104C20000F931F93CF93DF93009731F461157105B4
:104C300019F480E090E03AC08B01EC016EE070E086
:104C400081E090E00E945328FC01892B91F380E8D9
:104C500083830115110571F01387028781E883832F
:104C600080912F0590913005892B21F4F093300528
:104C7000E0932F052097C9F0D187C0878381826098
:104C800083838091310590913205892B71F4F093E3
:104C90003205E09331058091330590913405892BDD
:104CA00021F4F0933405E0933305CF01DF91CF91E8
:104CB0001F910F910895A0E0B0E0E1E6F6E20C94B8
:104CC000A52AAE01495F5F4FDA016D917D91AD017B
:104CD0000FE215E0F80182819381DC0113962C919B
:104CE0001397286013962C930E948126D801129660
:104CF000ED91FC9113972381277F2383E4E00C94AB
:104D0000C12AACE0B0E0E7E8F6E20C94972A7C0117
:104D10006B018A01FC0117821682838181FFBDC16C
:104D2000CE0101964C01F7019381F60193FD859127
:104D300093FF81916F01882309F4ABC1853239F467
:104D400093FD859193FF81916F01853229F4B7011D
:104D500090E00E94B929E7CF512C312C20E020327D
:104D6000A0F48B3269F030F4803259F0833269F468
:104D700020612CC08D3239F0803339F4216026C097
:104D80002260246023C0286021C027FD27C030EDA9
:104D9000380F3A3078F426FF06C0FAE05F9E300DF7
:104DA0001124532E13C08AE0389E300D1124332E67
:104DB00020620CC08E3221F426FD6BC1206406C037
:104DC0008C3611F4206802C0883641F4F60193FD58
:104DD000859193FF81916F018111C1CF982F9F7DA4
:104DE0009554933028F40C5F1F4FFFE3F9830DC0F7
:104DF000833631F0833771F0833509F05BC022C010
:104E0000F801808189830E5F1F4F44244394512C05
:104E1000540115C03801F2E06F0E711CF801A0803A
:104E2000B18026FF03C0652D70E002C06FEF7FEFF9
:104E3000C5012C870E94AE292C0183012C852F7778
:104E4000222E17C03801F2E06F0E711CF801A0800D
:104E5000B18026FF03C0652D70E002C06FEF7FEFC9
:104E6000C5012C870E949C292C012C852068222EAC
:104E7000830123FC1BC0832D90E048165906B0F433
:104E8000B70180E290E00E94B9293A94F4CFF5018D
:104E900027FC859127FE81915F01B70190E00E9478
:104EA000B92931103A94F1E04F1A510841145104D4
:104EB00071F7E5C0843611F0893639F5F80127FF1E
:104EC00007C060817181828193810C5F1F4F08C090
:104ED00060817181072E000C880B990B0E5F1F4FAC
:104EE0002F76722E97FF09C09095809570956195E9
:104EF0007F4F8F4F9F4F2068722E2AE030E0A40131
:104F00000E94F129A82EA81844C0853729F42F7EC5
:104F1000B22E2AE030E025C0F22FF97FBF2E8F3667
:104F2000C1F018F4883579F0B4C0803719F08837AB
:104F300021F0AFC02F2F2061B22EB4FE0DC08B2DFB
:104F40008460B82E09C024FF0AC09F2F9660B92E36
:104F500006C028E030E005C020E130E002C020E1DA
:104F600032E0F801B7FE07C06081718182819381D0
:104F70000C5F1F4F06C06081718180E090E00E5F82
:104F80001F4FA4010E94F129A82EA818FB2DFF771E
:104F90007F2E76FE0BC0372D3E7FA51450F474FE95
:104FA0000AC072FC08C0372D3E7E05C0BA2C372DD2
:104FB00003C0BA2C01C0B52C34FF0DC0FE01EA0DB0
:104FC000F11D8081803311F4397E09C032FF06C0A3
:104FD000B394B39404C0832F867809F0B39433FD5F
:104FE00013C030FF06C05A2CB31418F4530C5B18CE
:104FF000B32CB31468F4B70180E290E03C870E94C0
:10500000B929B3943C85F5CFB31410F43B1801C013
:10501000312C34FF12C0B70180E390E03C870E943E
:10502000B9293C8532FF17C031FD03C088E790E005
:1050300002C088E590E0B7010CC0832F867859F054
:1050400031FF02C08BE201C080E237FD8DE2B70183
:1050500090E00E94B929A51438F4B70180E390E0EC
:105060000E94B9295A94F7CFAA94F401EA0DF11DD0
:105070008081B70190E00E94B929A110F5CF3320BB
:1050800009F451CEB70180E290E00E94B9293A9428
:10509000F6CFF7018681978102C08FEF9FEF2C96A4
:1050A000E2E10C94B32A0F931F93CF93DF93869F73
:1050B0008001879F100D969F100D1124C8010E943A
:1050C0006F28EC01009729F0A80160E070E00E94D1
:1050D000A729CE01DF91CF911F910F910895CF9312
:1050E000DF938230910510F482E090E0E091370583
:1050F000F091380520E030E0C0E0D0E0309711F1C9
:105100004081518148175907C0F04817590761F489
:1051100082819381209719F09B838A832BC090937F
:1051200038058093370526C02115310519F042173F
:10513000530718F49A01BE01DF01EF010280F381E9
:10514000E02DDCCF2115310509F1281B390B243066
:10515000310590F412968D919C911397611571050C
:1051600021F0FB019383828304C0909338058093E0
:105170003705FD01329644C0FD01E20FF31F819314
:105180009193225031092D933C933AC020913505DB
:1051900030913605232B41F420910801309109010B
:1051A0003093360520933505209106013091070193
:1051B0002115310541F42DB73EB740910A015091B8
:1051C0000B01241B350BE0913505F0913605E217F4
:1051D000F307A0F42E1B3F0B2817390778F0AC011A
:1051E0004E5F5F4F2417350748F04E0F5F1F5093F7
:1051F0003605409335058193919302C0E0E0F0E0DD
:10520000CF01DF91CF9108950F931F93CF93DF9339
:10521000009709F48CC0FC0132971382128200912E
:105220003705109138050115110581F42081318170
:10523000820F931F209135053091360528173907C5
:1052400079F5F0933605E093350571C0D80140E05B
:1052500050E0AE17BF0750F412962D913C91139772
:10526000AD012115310509F1D901F3CF9D01DA0115
:105270003383228360817181860F971F8217930782
:1052800069F4EC0128813981260F371F2E5F3F4FCB
:10529000318320838A819B8193838283452B29F4E8
:1052A000F0933805E093370542C01396FC93EE93D4
:1052B0001297ED01499159919E01240F351FE21774
:1052C000F30771F480819181840F951F02961196E6
:1052D0009C938E938281938113969C938E931297C5
:1052E000E0E0F0E0D80112968D919C911397009721
:1052F00019F0F8018C01F6CF8D919C9198012E5FE9
:105300003F4F820F931F20913505309136052817A6
:10531000390769F4309729F410923805109237054F
:1053200002C0138212821093360500933505DF9177
:10533000CF911F910F910895FC010590615070402D
:105340000110D8F7809590958E0F9F1F0895DC016E
:1053500001C06D9341505040E0F70895FC01615049
:10536000704001900110D8F7809590958E0F9F1F87
:1053700008950F931F93CF93DF93FB01238121FDAA
:1053800003C08FEF9FEF28C022FF16C046815781D0
:10539000248135814217530744F4A081B1819D01D6
:1053A0002F5F3F4F318320838C93268137812F5F7E
:1053B0003F4F3783268310C0EB01092F182F00843D
:1053C000F185E02D0995892BE1F68E819F8101966B
:1053D0009F838E83812F902FDF91CF911F910F910B
:1053E0000895FA01AA27283051F1203181F1E8947B
:1053F0006F936E7F6E5F7F4F8F4F9F4FAF4FB1E0C8
:105400003ED0B4E03CD0670F781F891F9A1FA11DC2
:10541000680F791F8A1F911DA11D6A0F711D811DC3
:10542000911DA11D20D009F468943F912AE0269F88
:1054300011243019305D3193DEF6CF010895462FE7
:105440004770405D4193B3E00FD0C9F7F6CF462FC8
:105450004F70405D4A3318F0495D31FD4052419331
:1054600002D0A9F7EACFB4E0A695979587957795EE
:105470006795BA95C9F700976105710508959B0175
:10548000AC010A2E06945795479537952795BA95FE
:10549000C9F7620F731F841F951FA01D0895F99906
:1054A000FECF92BD81BDF89A992780B50895262F29
:1054B000F999FECF1FBA92BD81BD20BD0FB6F894F9
:1054C000FA9AF99A0FBE01960895052E97FB1EF4DD
:1054D00000940E947C2A57FD07D00E94CE2A07FC28
:1054E00003D04EF40C947C2A50954095309521952C
:1054F0003F4F4F4F5F4F0895909580957095619500
:105500007F4F8F4F9F4F08950E94F02AA59F900DC7
:10551000B49F900DA49F800D911D11240895B7FF95
:105520000C94842A0E94842A821B930B08952F9244
:105530003F924F925F926F927F928F929F92AF9223
:10554000BF92CF92DF92EF92FF920F931F93CF9370
:10555000DF93CDB7DEB7CA1BDB0B0FB6F894DEBF07
:105560000FBECDBF09942A88398848885F846E842D
:105570007D848C849B84AA84B984C884DF80EE8077
:10558000FD800C811B81AA81B981CE0FD11D0FB680
:10559000F894DEBF0FBECDBFED010895A1E21A2E33
:1055A000AA1BBB1BFD010DC0AA1FBB1FEE1FFF1FC7
:1055B000A217B307E407F50720F0A21BB30BE40B17
:1055C000F50B661F771F881F991F1A9469F760955E
:1055D0007095809590959B01AC01BD01CF01089518
:1055E000A29FB001B39FC001A39F700D811D112424
:1055F000911DB29F700D811D1124911D08950E946F
:10560000E92B08F481E008950E94182B0C94242CB7
:105610000E941D2C58F00E94162C40F029F45F3F88
:1056200029F00C940D2C51110C94582C0C94132C23
:105630000E94352C68F39923B1F3552391F3951B00
:10564000550BBB27AA2762177307840738F09F5FA3
:105650005F4F220F331F441FAA1FA9F335D00E2E10
:105660003AF0E0E832D091505040E695001CCAF77D
:105670002BD0FE2F29D0660F771F881FBB1F261740
:1056800037074807AB07B0E809F0BB0B802DBF0117
:10569000FF2793585F4F3AF09E3F510578F00C94E6
:1056A0000D2C0C94582C5F3FE4F3983ED4F3869570
:1056B00077956795B795F7959F5FC9F7880F911D07
:1056C0009695879597F90895E1E0660F771F881FF3
:1056D000BB1F621773078407BA0720F0621B730BA6
:1056E000840BBA0BEE1F88F7E09508950E947D2B7E
:1056F0006894B1110C94582C08950E943D2C88F0A8
:105700009F5798F0B92F9927B751B0F0E1F0660F85
:10571000771F881F991F1AF0BA95C9F714C0B130C6
:1057200091F00E94572CB1E008950C94572C672FEC
:10573000782F8827B85F39F0B93FCCF386957795F5
:105740006795B395D9F73EF49095809570956195DE
:105750007F4F8F4F9F4F0895E89409C097FB3EF409
:1057600090958095709561957F4F8F4F9F4F9923AE
:10577000A9F0F92F96E9BB279395F695879577952C
:105780006795B795F111F8CFFAF4BB0F11F460FFEC
:105790001BC06F5F7F4F8F4F9F4F16C0882311F044
:1057A00096E911C0772321F09EE8872F762F05C058
:1057B000662371F096E8862F70E060E02AF09A95F3
:1057C000660F771F881FDAF7880F9695879597F9E8
:1057D0000895990F0008550FAA0BE0E8FEEF161682
:1057E0001706E807F907C0F012161306E407F507D5
:1057F00098F0621B730B840B950B39F40A2661F049
:10580000232B242B252B21F408950A2609F4A140EB
:10581000A6958FEF811D811D089597F99F6780E8F8
:1058200070E060E008959FEF80EC089500240A94F2
:105830001616170618060906089500240A9412166B
:105840001306140605060895092E0394000C11F49E
:10585000882352F0BB0F40F4BF2B11F460FF04C04B
:105860006F5F7F4F8F4F9F4F089557FD9058440FA4
:10587000551F59F05F3F71F04795880F97FB991FAF
:1058800061F09F3F79F0879508951216130614066C
:10589000551FF2CF4695F1DF08C0161617061806F9
:1058A000991FF1CF86957105610508940895E894D4
:1058B000BB2766277727CB0197F908950E94712CA3
:1058C0000C94242C0E94162C38F00E941D2C20F0E1
:1058D000952311F00C940D2C0C94132C11240C9482
:1058E000582C0E94352C70F3959FC1F3950F50E012
:1058F000551F629FF001729FBB27F00DB11D639F82
:10590000AA27F00DB11DAA1F649F6627B00DA11D27
:10591000661F829F2227B00DA11D621F739FB00DCD
:10592000A11D621F839FA00D611D221F749F33273D
:10593000A00D611D231F849F600D211D822F762FD6
:105940006A2F11249F5750409AF0F1F088234AF0B3
:10595000EE0FFF1FBB1F661F771F881F915050401F
:10596000A9F79E3F510580F00C940D2C0C94582CF7
:105970005F3FE4F3983ED4F3869577956795B795A6
:10598000F795E7959F5FC1F7FE2B880F911D9695C0
:10599000879597F90895DB018F939F930E94842A3E
:1059A000BF91AF91A29F800D911DA39F900DB29FBB
:1059B000900D11240895991B79E004C0991F961742
:1059C00008F0961B881F7A95C9F780950895AA1B41
:1059D000BB1B51E107C0AA1FBB1FA617B70710F0DA
:1059E000A61BB70B881F991F5A95A9F7809590950C
:1059F000BC01CD010895EE0FFF1F0590F491E02D3D
:105A0000099481E090E0F8940C94532DFB01DC01A3
:105A100002C001900D9241505040D8F70895681788
:105A2000790768F4FB01DC01E40FF51FA40FB51F33
:105A300002C002900E9241505040D8F708950C9445
:105A4000062DFB01DC014150504048F001900D92C1
:105A50000020C9F701C01D9241505040E0F7089561
:105A6000AEE0B0E0E6E3FDE20C94A52A0D891E89C4
:105A700086E08C831A8309838FEF9FE79E838D8353
:105A8000AE01475E5F4F6F89788DCE0101960E940F
:105A900081262F813885F801E20FF31F10822E96A0
:105AA000E4E00C94C12A11E0CBEED1E004C0FE0189
:105AB0000E94FB2C2196CC3ED107C9F7F894FFCF6A
:105AC000010101000100000039058000C33C33CE14
:105AD0003EE3EC000000005609C308EE089D091FD4
