:100000000C942A020C94780F0C94510F0C94520209
:100010000C9452020C9452020C94BE100C94520296
:100020000C9452020C9452020C9452020C94520200
:100030000C9452020C9452020C9452020C945202F0
:100040000C94070F0C9452020C94D50E0C94AF0E26
:100050000C9452020C9452020C9452020C945202D0
:100060000C949F0F0C94520250415F4D4158005028
:10007000415F484947480050415F4C4F570050414D
:100080005F4D494E0031362062697473003820623A
:100090006974730044697361626C6564006E5246F2
:1000A00032344C30312B006E524632344C303100F9
:1000B0003235304B42505300324D42505300314D97
:1000C0004250530000000000250028002B00555529
:1000D00049442073656E736575722000424D503A35
:1000E000204572726575722C206465736163746952
:1000F00076652E0000000000240027002A005365CA
:10010000747570207465726D696E652061707265BA
:10011000732000526164696F20696E697469616C53
:10012000697365652C2065636F7574652062656110
:10013000636F6E2044484350004F75766572747546
:10014000726520726164696F005365747570207206
:100150006164696F00206E6220636F6E6669726D04
:100160006174696F6E733A2000436F6E6669726DD9
:100170006174696F6E20747970652000416C696DDF
:10018000656E746174696F6E2041412000416C6935
:100190006D656E746174696F6E206C6974686975E1
:1001A0006D2000416C696D656E746174696F6E20BD
:1001B00073656374657572200044485420457272FB
:1001C0006F723A00000000080002010000030407FB
:1001D000000000000000000054797065206D657318
:1001E0007361676520696E636F6E6E753A200053A8
:1001F000656E73657572207072657420612074720B
:10020000616E736D657474726500416472657373B9
:10021000652072657365617520004E6F64652049C5
:100220004420526573657276653A20005265717597
:1002300065746520444843502065636865630052D7
:100240006571756574652044484350207472616E11
:10025000736D6973650041647265737365207365BE
:100260007276657572200054797065206D657373C0
:1002700061676520004D657373616765206E6F6E01
:1002800020676572652C207479706500526563750E
:10029000206D657373616765200046696E206C652B
:1002A000637475726520726573656175004C656372
:1002B000747572652072657365617500536C656550
:1002C00070005472616E736D697373696F6E206C28
:1002D000656374757265732C206572726575723A08
:1002E00020000001020304051112131415160A0B55
:1002F0000C0D0E0F5354415455530909203D203025
:1003000078253032782052585F44523D2578205469
:10031000585F44533D2578204D41585F52543D2548
:10032000782052585F505F4E4F3D25782054585FDB
:1003300046554C4C3D25780D0A00504120506F77B2
:10034000657209203D2025530D0A007E0077006F5D
:10035000006800435243204C656E67746809203D75
:100360002025530D0A0094008D0085004D6F6465B3
:100370006C0909203D2025530D0A00A7009D00446B
:10038000617461205261746509203D2025530D0A76
:1003900000BE00B800B00044594E50442F464541BD
:1003A0005455524500434F4E464947090052465F57
:1003B00053455455500052465F43480900454E5F2F
:1003C00052584144445200454E5F41410900525841
:1003D0005F50575F50302D360054585F41444452AF
:1003E000090052585F414444525F50322D3500524B
:1003F000585F414444525F50302D31000D0A0025B2
:100400003032780020307800255309203D000D0A55
:10041000002030782530327800255309203D000037
:10042000000000230026002900040404040404043E
:100430000402020202020203030303030301020493
:100440000810204080010204081020010204081056
:100450002000D81011241FBECFEFD8E0DEBFCDBFE3
:1004600011E0A0E0B1E0E2E4F2E402C005900D92F8
:10047000A636B107D9F723E0A6E6B1E001C01D9288
:10048000AC38B207E1F712E0CAE2D2E004C021972B
:10049000FE010E940A21C932D107C9F70E946C11DE
:1004A0000C941F210C94000020915B0281E021320A
:1004B00008F044C0809137028111FCCF80915A022C
:1004C00092E09093370291E0909336029FEF9093E1
:1004D00035021092340220933302AAE3B2E0E3E142
:1004E000F2E090E0291331C01092120290911202B2
:1004F000880F892B8093120280911102813049F577
:1005000010921102809112028093BB008091BC0076
:1005100083FDF8CF85EC8093BC0080913702823058
:10052000E1F3809135028F3FB1F080913502803246
:10053000A1F080913502803391F084E0109239026D
:1005400010925B021092380208953D9131939F5FA3
:10055000C9CF85EEE0CF80E0F1CF82E0EFCF83E03E
:10056000EDCF982F809137028111FCCF81E08093ED
:100570003702809336022FEF209335021092340217
:10058000290F2093330280931202809112028E6E03
:1005900080931202809111028130F9F410921102BD
:1005A000809112028093BB008091BC0083FDF8CF44
:1005B00085EC8093BC00809137028130E1F380911B
:1005C0003402891710F490913402A3E1B2E0E1EF14
:1005D000F1E080E0891303C0089585EEEACF2D9104
:1005E00021938F5FF7CF8330910528F0880F991FF3
:1005F00004970197F1F70895FC0183850895FC01A4
:1006000065817681878190850895FC018485958533
:100610000895FC0182859385089581E08093F0011F
:10062000089508950895AF92BF92CF92DF92EF920E
:10063000FF920F931F93CF93DF936C017B018B018C
:10064000040F151FEB015E01AE18BF08C017D107DC
:1006500059F06991D601ED91FC910190F081E02D66
:10066000C6010995892B79F7C501DF91CF911F91BB
:100670000F91FF90EF90DF90CF90BF90AF900895D3
:10068000FC01538D448D252F30E0842F90E0821B98
:10069000930B541710F0CF96089501970895FC011D
:1006A000918D828D981761F0A28DAE0FBF2FB11D75
:1006B0005D968C91928D9F5F9F73928F90E00895CD
:1006C0008FEF9FEF0895FC01918D828D981731F087
:1006D000828DE80FF11D858D90E008958FEF9FEFDB
:1006E0000895FC01918D228D892F90E0805C9F4FB1
:1006F000821B91098F73992708958CE592E00E94DF
:10070000710321E0892B09F420E0822F089580E015
:1007100090E0892B29F00E947D0381110C94000048
:100720000895FC01A48DA80FB92FB11DA35ABF4F86
:100730002C91848D90E001968F739927848FA689E0
:10074000B7892C93A089B1898C91837080648C9334
:10075000938D848D981306C00288F389E02D8081E3
:100760008F7D80830895EF92FF920F931F93CF9315
:10077000DF93EC0181E0888F9B8D8C8D98131AC0DC
:10078000E889F989808185FF15C09FB7F894EE89C3
:10079000FF896083E889F989808183708064808320
:1007A0009FBF81E090E0DF91CF911F910F91FF906B
:1007B000EF900895F62E0B8D10E00F5F1F4F0F7313
:1007C0001127E02E8C8D8E110CC00FB607FCFACFCE
:1007D000E889F989808185FFF5CFCE010E949103D8
:1007E000F1CFEB8DEC0FFD2FF11DE35AFF4FF0829F
:1007F0009FB7F8940B8FEA89FB8980818062CFCF05
:100800000F931F93CF93DF938C01D0E0C0E0F801EA
:10081000EC0FFD1F6491662341F08CE592E00E948D
:10082000B303892B11F02196F2CFCE01DF91CF9146
:100830001F910F910895CF93DF93EC01888D88234A
:10084000B9F0AA89BB89E889F9898C9185FD03C033
:10085000808186FD0DC00FB607FCF7CF8C9185FF18
:10086000F2CF808185FFEDCFCE010E949103E9CFC9
:10087000DF91CF91089590E0FC01EC53FE4F24915D
:10088000FC01E35CFB4F3491FC01E75DFB4FE4911D
:10089000EE23C9F0222339F0233001F1A8F42130EE
:1008A00019F1223029F1F0E0EE0FFF1FEC53FF4F5A
:1008B000A591B4918FB7F894EC91611126C0309551
:1008C0003E233C938FBF08952730A9F02830C9F00C
:1008D000243049F7809180008F7D03C08091800093
:1008E0008F7780938000DFCF84B58F7784BDDBCF97
:1008F00084B58F7DFBCF8091B0008F778093B0005F
:10090000D2CF8091B0008F7DF9CF3E2BDACFCF933D
:10091000DF9390E0FC01E35CFB4F2491875D9B4FEC
:10092000FC0184918823D1F090E0880F991FFC018D
:10093000EC50FF4FA591B491FC01EC53FF4FC591D2
:10094000D49161110EC09FB7F8948C91E22FE0957D
:100950008E238C932881E223E8839FBFDF91CF9180
:1009600008958FB7F894EC91E22BEC938FBFF6CFFC
:100970003FB7F8948091AE019091AF01A091B00182
:10098000B091B10126B5A89B05C02F3F19F0019683
:10099000A11DB11D3FBFBA2FA92F982F8827BC01D9
:1009A000CD01620F711D811D911D43E0660F771F00
:1009B000881F991F4A95D1F708958F929F92AF9201
:1009C000BF92CF92DF92EF92FF926B017C010E9467
:1009D000B8044B015C01C114D104E104F104B9F085
:1009E0000E94B804681979098A099B09683E734016
:1009F0008105910580F321E0C21AD108E108F108D0
:100A000088EE880E83E0981EA11CB11CE4CFFF90F5
:100A1000EF90DF90CF90BF90AF909F908F90089510
:100A20008F929F92AF92BF92DF92EF92FF920F93BD
:100A30001F93CF93DF93C82F162F90E0FC01E35C48
:100A4000FB4FD491FC01E75DFB4FE491F0E0EE0F2A
:100A5000FF1FE15EFB4FE590F49010927703109238
:100A600078031092790310927A0310927B0361E06D
:100A70008C2F0E94870460E08C2F0E943B04612F22
:100A800070E090E080E00E94DD0461E08C2F0E9425
:100A90003B048CE490E00197F1F760E08C2F0E941A
:100AA000870488EC90E0F70120812D2381F40197E1
:100AB000D1F78EEF9FEFDF91CF911F910F91FF90B4
:100AC000EF90DF90BF90AF909F908F90089588EC4B
:100AD00090E0F70120812D2319F00197D1F7E9CF9C
:100AE00008E210E8D12C88EC90E0F70120812D235A
:100AF00019F40197D1F7DDCF0E94B8044B015C01D6
:100B000088EC90E0F70120812D2319F00197D1F7AF
:100B1000D0CF0E94B804681979098A099B09693203
:100B200071058105910538F0ED2DF0E0E359FC4F9A
:100B30008285812B8287169511F4D39410E8015099
:100B400091F661E08C2F0E94870461E08C2F0E9457
:100B50003B0490E080E0AFCF2FB7F8946091AA01FA
:100B60007091AB018091AC019091AD012FBF0895C0
:100B7000089585ED8093BC008091BC0084FDFCCF7E
:100B800010923702089520918601260F3327331FD4
:100B900021323105ECF420913702FC0190E080E035
:100BA000243069F082E00895A09186012191AC0182
:100BB0004A595E4FA40FB52FB11D2C93019686178D
:100BC00098F380918601680F6093860180E0089514
:100BD00081E008950895E091B7018091B601E8178A
:100BE00030F4F0E0EF50FE4F808190E008958FEFF9
:100BF0009FEF08959091B7018091B6012FEF3FEFDD
:100C0000981748F4E92FF0E0EF50FE4F208130E0D4
:100C10009F5F9093B701C90108958091B6019091AB
:100C2000B701891B990B0895CF92DF92EF92FF9243
:100C30000F931F93CF93DF937C01CB018A01209107
:100C40003802222389F0EB016B01C40ED51ECC15AE
:100C5000DD0569F06991D701ED91FC910190F0817A
:100C6000E02DC7010995F3CF642F0E94C305C80189
:100C7000DF91CF911F910F91FF90EF90DF90CF9078
:100C80000895CF93DF931F92CDB7DEB7698320918C
:100C900038022223F9F020915B02203258F021E043
:100CA00030E0FC013383228390E080E00F90DF91FD
:100CB000CF91089580913902E82FF0E0E65CFD4F76
:100CC000998190838F5F8093390280935B0281E0EA
:100CD00090E0ECCF61E0CE0101960E94C305F7CF12
:100CE000CF93C82F81E08093380287E780935A0220
:100CF0001092390210925B0264EF89EF92E00E9439
:100D000041066C2F89EF92E00E944106CF910C942E
:100D1000540290E080E0089508950895FC01208138
:100D20003181828193812817390719F0822F0C9421
:100D30003B040895CF93DF93EC018CB58F7D8CBD80
:100D40008CB5837F8CBD8CB58C7F8CBD8DB581605F
:100D50008DBD8A810E943B048C899D89DF91CF9152
:100D60000C94F30261E00C949A0660E00C949A06ED
:100D70008EBD00000DB407FEFDCF8EB508951F9304
:100D8000CF93DF93EC01162F0E94B506812F0E94AE
:100D9000B806182FCE010E94B206812FDF91CF91A5
:100DA0001F91089561EE0C94BF060F931F93CF938C
:100DB000DF938C01C62FD42F0E94B5068C2F8F7124
:100DC00080620E94B806C82F8D2F0E94B806C80105
:100DD0000E94B2068C2FDF91CF911F910F91089541
:100DE000CF92DF92EF92FF920F931F93CF93DF93F7
:100DF000EC016B011F81012F113208F000E28885A0
:100E0000101B811110E0CE010E94B50680EA0E94FD
:100E1000B8067601015030F0F70181917F010E9400
:100E2000B806F8CF115020F080E00E94B806FACF43
:100E3000CE010E94B20661E0CE010E948E060E94A1
:100E4000AC056B017C016FEFCE010E94BF06807381
:100E5000B9F40E94AC056C197D098E099F096036B2
:100E600071058105910578F381E08F8780E0DF913E
:100E7000CF911F910F91FF90EF90DF90CF90089549
:100E800060E0CE010E948E0640E767E0CE010E943E
:100E9000D50684FF04C0CE010E94D206E7CF81E0D0
:100EA000E6CFCF92DF92EF92FF920F931F93CF93F3
:100EB000DF937C01C62F6A01122F0E94B5068C2F8A
:100EC0008F7180620E94B806082FE601115020F051
:100ED00089910E94B806FACFC7010E94B206802FFE
:100EE000DF91CF911F910F91FF90EF90DF90CF9006
:100EF00008951F93CF93DF93EC01162F0E94B50640
:100F0000812F8F710E94B8068FEF0E94B806182FAC
:100F1000CE010E94B206812FDF91CF911F910895DB
:100F200066E087E493E00E947907887F482F43605A
:100F300066E087E493E00C94D5060F931F93CF935C
:100F40008C0166E087E493E00E947907C82FC77D93
:100F500085E590E0A0E0B0E00230110529F4C06220
:100F60008BE990E0A0E0B0E08093570390935803A2
:100F7000A0935903B0935A034C2F66E087E493E0A3
:100F80000E94D50666E087E493E00E94790791E02D
:100F9000C81390E0892FCF911F910F910895CF939F
:100FA000DF93C82FAB01813059F5EFEEF2E0649189
:100FB0002091550387E493E00E945107D0E0FE01A1
:100FC000E851FD4F649140914E0387E493E00E9405
:100FD000D50662E087E493E00E947907FE01EE51B6
:100FE000FD4FE49141E050E001C0440FEA95EAF77B
:100FF000482B62E087E493E0DF91CF910C94D50613
:10100000E0EFF2E0649121E0D5CFCF93DF93EC01E4
:1010100060E00E94790781FD0EC0482F426060E0C9
:10102000CE010E94D50665E070E080E090E0DF919F
:10103000CF910C94DD04DF91CF910895CF93DF938E
:10104000EC0160E00E948E06888999890E94F30273
:101050006DE1CE010E94790781FF07C088899989D7
:101060000E94F302CE010E94D20660E0CE010E94EF
:101070007907482F4E7F60E0CE010E94D50662E0DE
:10108000CE010E947907E2EEF2E0E49141E050E007
:1010900001C0440FEA95EAF7482B62E0CE01DF91E8
:1010A000CF910C94D506CF93DF93EC010E940508F5
:1010B00060E0CE010E947907482F416060E0CE01D8
:1010C0000E94D50640E767E0CE010E94D50661E0A8
:1010D000CE010E948E068985882399F02E85AE0167
:1010E000475F5F4F6AE0CE010E9451076DE1CE017C
:1010F0000E94790781FF1AC0CE01DF91CF910C9435
:10110000D20662E0CE010E947907E2EEF2E0E491BD
:1011100021E030E001C0220FEA95EAF72095422F46
:10112000482362E0CE010E94D506E0CFDF91CF9147
:101130000895CF93DF9380912503909126030E9419
:101140001E08D9EC8091250390912603D15089F097
:1011500067E273E00E94F006C82F882399F380911C
:101160002503909126030E9453088C2FDF91CF9185
:101170000895C0E0F4CFCF93C82F682F8CE592E09C
:101180000E94B3038C2FCC0F990BCF910895FC01D3
:1011900021893289232B81F420E030E040E251E4C0
:1011A00062817381848195810E948D200E94A51F98
:1011B000CB01693E734010F08FEF90E00895CF931C
:1011C000DF93EC0189899A8960E070E8892B61F4EA
:1011D00020E030E040E251E46E817F81888599858E
:1011E0000E948D200E94A51FCB018C509E4F893EEE
:1011F0009340B8F48B899C89811520E8920759F0B7
:10120000861B970B97FF03C0919581959109C39712
:1012100014F060E070E87C8B6B8BCB01DF91CF9199
:10122000089560E070E8F9CFFC018285833091F485
:101230004581568167817085483B8BE05807610581
:101240007105D8F081E04C3A5D4061057105A0F070
:1012500080E012C08230E1F7458156816781708558
:10126000443B9AE059076105710530F081E0473D44
:101270005A406105710560F7089582E00895FC0108
:1012800001900020E9F73197AF01481B590BBC01D1
:101290008CE592E00C9413038AE591E00C943F09ED
:1012A000CF93DF930E940004EC010E944C098C0F45
:1012B0009D1FDF91CF9108958F929F92AF92BF9221
:1012C0000F931F93CF93DF93CDB7DEB7A1970FB6E0
:1012D000F894DEBF0FBECDBF19A2423008F44AE039
:1012E0008E010F5D1F4F842E912CB12CA12CA501D6
:1012F00094010E94FD1EE62FB901CA01EA30F4F400
:10130000E05DD801EE938D01232B242B252B79F75B
:1013100090E080E0109719F0CD010E943F09A1965E
:101320000FB6F894DEBF0FBECDBFDF91CF911F91F6
:101330000F91BF90AF909F908F900895E95CE1CF9F
:10134000CF92DF92EF92FF92CF93DF936B017C01FC
:101350006DE28CE592E00E94B303EC0166277727EB
:10136000CB016C197D098E099F094AE00E945C0936
:101370008C0F9D1FDF91CF91FF90EF90DF90CF906A
:101380000895FF920F931F93CF93DF93C62FD42F0F
:101390009F938F9389E194E09F938F930E94A11A6A
:1013A000DC0F0F900F900F900F9001E114E0CD171C
:1013B000A1F0FF24F394FC0E6C2F87E493E00E94CD
:1013C00079071F928F931F930F930E94A11A0F907A
:1013D0000F900F900F90CF2DEACF8EE094E09F9367
:1013E0008F930E94A11A0F900F90DF91CF911F91C0
:1013F0000F91FF9008952F923F924F925F926F92BC
:101400007F928F929F92AF92BF92CF92DF92EF9294
:10141000FF920F931F93CF93DF931F92CDB7DEB749
:10142000962E342E4DB65EB69F938F9388E094E04F
:101430009F938F930E94A11A390C0F900F900F90D9
:101440000F9084E0C82E84E0D82E9FEFA92E93E061
:10145000B92E931409F44EC06DB67EB62090550394
:10146000022D10E08DB79EB7801B910B0FB6F8943C
:101470009EBF0FBE8DBFEDB7FEB731967F01F1E085
:10148000F90DF98387E493E00E94B506892D8F71E9
:101490000E94B80647012A948FEF281631F00E9467
:1014A000B806F40181934F01F6CF87E493E00E94E0
:1014B000B206DF92CF920E94A11A0E0D1F1D0F904F
:1014C0000F90015011090E151F0568F0F801808179
:1014D0001F928F93BF92AF920E94A11A0F900F900C
:1014E0000F900F90EECF0FB6F8947EBE0FBE6DBE7C
:1014F0009980AFCF8CEF93E09F938F930E94A11AB6
:101500000F900F900FB6F8945EBE0FBE4DBE0F90B9
:10151000DF91CF911F910F91FF90EF90DF90CF90CF
:10152000BF90AF909F908F907F906F905F904F9003
:101530003F902F900895CF936FEF87E493E00E9440
:10154000BF06282F30E0982F91701F929F93A9011A
:1015500055954795477055275F934F9384FB99277F
:1015600090F91F929F9385FB992790F91F929F9363
:1015700086FB222720F91F922F931F928F9384EFCF
:1015800092E09F938F930E94A11A42E06AE08FEE4F
:1015900093E00E94FB0944E06CE082EE93E00E943D
:1015A000C10941E060E189ED93E00E94FB0946E05A
:1015B00061E18EEC93E00E94C10941E061E087ECBB
:1015C00093E00E94C10941E062E08DEB93E00E944C
:1015D000C10941E065E086EB93E00E94C10941E06A
:1015E00066E08DEA93E00E94C10941E060E085EA8F
:1015F00093E00E94C10942E06CE187E993E00E9418
:10160000C10966E087E493E00E94790788722DB7EC
:101610003EB7225F3F4F0FB6F8943EBF0FBE2DBFBF
:10162000E2E0F0E0803239F021E090E0883009F02B
:1016300020E0E22FF92FEE0FFF1FEF56FC4F8591B0
:1016400094919F938F938FE793E09F938F930E9442
:10165000A11AE0914D03F0E0EE0FFF1FE558FC4F9B
:10166000859194919F938F938CE693E09F938F93B2
:101670000E94A11A60E087E493E00E947907C82FD6
:1016800061E087E493E00E9479072DB73EB7285FB9
:101690003F4F0FB6F8943EBF0FBE2DBFC3FD04C031
:1016A000F0E0E0E0882331F0E2E0F0E0C2FD02C0CB
:1016B000E1E0F0E0EE0FFF1FEA59FC4F85919491B5
:1016C0009F938F9383E593E09F938F930E94A11A3A
:1016D00066E087E493E00E947907E82FF0E0F59553
:1016E000E795E370F0E0EE0FFF1FE55BFC4F85919F
:1016F00094919F938F938AE393E09F938F930E949B
:10170000A11A8DB79EB708960FB6F8949EBF0FBE6C
:101710008DBFCF910895CF93DF93BC0190E080E01F
:101720004AE00E945C09EC010E944C098C0F9D1F4D
:10173000DF91CF910895CF93C82F803120F48DE5AC
:1017400091E00E943F096C2F70E090E080E040E162
:10175000CF910C945C091F93CF93DF93EB0191E041
:101760009093380297E790935A02109239021092A0
:101770005B02682F89EF92E00E9441060E945402AA
:1017800082E00E94B1021092B7018093B60189EF06
:1017900092E00E94FA05182F89EF92E00E94FA0564
:1017A00020E0822B912B99838883DF91CF911F9129
:1017B0000C9454020F931F93CF93DF9300D0CDB7B7
:1017C000DEB78C018EE20E94700665E070E080E07A
:1017D00090E00E94DD04BE016F5F7F4F86EF0E94A4
:1017E000AB0B89819A81B0E0A0E0F80180839183FE
:1017F000A283B3830F900F90DF91CF911F910F9130
:1018000008950F931F93CF93DF9300D0CDB7DEB72A
:101810008B01BE016F5F7F4F0E94AB0B89819A8164
:10182000F801918380830F900F90DF91CF911F91EA
:101830000F910895CF93DF93EB0191E090933802DD
:1018400097E790935A021092390210925B02682F28
:1018500089EF92E00E9441060E94540281E00E94BA
:10186000B1021092B7018093B60189EF92E00E9415
:10187000FA058883DF91CF910C9454022F923F9206
:101880004F925F926F927F928F929F92AF92BF9290
:10189000CF92DF92EF92FF921F93CF93DF93CDB75A
:1018A000DEB72B970FB6F894DEBF0FBECDBF1B017E
:1018B00019821A821B821C82CE0101960E94DA0BC9
:1018C0001091B801812F8295880F880F807C8C5CE5
:1018D0000E94700668E070E080E090E0113081F0D6
:1018E00065E070E080E090E0113050F06EE070E074
:1018F00080E090E0123021F06AE170E080E090E05A
:101900000E94DD04BE016B5F7F4F86EF0E94AB0B30
:101910008D809E80B12CA12CBA2CA92C982C8824C7
:10192000BE01695F7F4F88EF0E941A0C8F81880E7D
:10193000911CA11CB11C8091C4019091C501298109
:101940003A814B815C81281B390B41095109A091D7
:10195000C201B091C3010E94B31E2B013C01AFE054
:101960007594679457944794AA95D1F76091CC01E8
:101970007091CD01072E000C880B990BBBE0660F10
:10198000771F881F991FBA95D1F72091CE0130910A
:10199000CF01032E000C440B550B240D351D461DA5
:1019A000571D0E94941E420E531E641E751E20EA8F
:1019B000421A2FE0520A61087108A3019201C30183
:1019C000B2010E94FA206B017C018CE0F594E7944F
:1019D000D794C7948A95D1F7A091BE01B091BF0169
:1019E0000E94BE1E9B01AC019DE055954795379521
:1019F00027959A95D1F7288739874A875B87A091E1
:101A0000C601B091C701A70196010E94BE1E9C01AC
:101A1000552737FD5095452F88859985AA85BB8523
:101A2000280F391F4A1F5B1F2E5F3F4F4F4F5F4FDD
:101A300062E055954795379527956A95D1F73058C7
:101A40004F4F5F4FA091C001B091C1010E94B31EE2
:101A50009B01AC017FE056954795379527957A9580
:101A6000D1F7288739874A875B8788E090E0811B18
:101A7000910904C0B594A794979487948A95D2F756
:101A8000A091C801B091C901A70196010E94BE1E94
:101A90006B017C01EBE0F594E794D794C794EA9549
:101AA000D1F7A091BC01B091BD01A30192010E94A8
:101AB000BE1EFBE09595879577956795FA95D1F7CA
:101AC000C60ED71EE81EF91E8091BA019091BB0187
:101AD000092E000CAA0BBB0B22E0880F991FAA1F2E
:101AE000BB1F2A95D1F78C0D9D1DAE1DBF1D6C012E
:101AF0007D01012E04C0CC0CDD1CEE1CFF1C0A94E1
:101B0000D2F732E0C30ED11CE11CF11C32E0F59497
:101B1000E794D794C7943A95D1F7A50194012C196D
:101B20003D094E095F0960E573EC80E090E004C078
:101B300095958795779567951A95D2F70E94FA2023
:101B400097FD61C0660F771F881F991F288539850B
:101B50004A855B850E94FD1E69017A019927F7FC81
:101B60009A958F2D7E2D6D2D9B01AC010E94FA2040
:101B70009B01AC01AEEDBBE00E94B31E4B015C01CA
:101B8000A3E4B3EEA70196010E94C11EBC019927F0
:101B900077FD9095892F4501BB2497FCB094AB2C21
:101BA000680D791D8A1D9B1D6153714F8F4F9F4F8B
:101BB00044E095958795779567954A95D1F76C0D93
:101BC0007D1D8E1D9F1D0E94DD1FD1016D937D9394
:101BD0008D939C9313972B960FB6F894DEBF0FBE90
:101BE000CDBFDF91CF911F91FF90EF90DF90CF900D
:101BF000BF90AF909F908F907F906F905F904F902D
:101C00003F902F900895288539854A855B850E94ED
:101C1000FD1E69017A01CC0CDD1CEE1CFF1C9ECF61
:101C20000C94581D0F931F93CF93DF9300D000D0D7
:101C3000CDB7DEB78B01FB01349620E2DF011D92A8
:101C40002A95E9F744E250E060E070E0F801408353
:101C5000518362837383DC0113964D915D916D9185
:101C60007C911697448355836683778346E050E0E2
:101C700060E070E04087518762877387108A118A1D
:101C8000128A138ABE016F5F7F4F0E943E0C20E0D4
:101C900030E048EC52E469817A818B819C810E941A
:101CA000331FD80154966D937D938D939C935797D2
:101CB00081E00F900F900F900F90DF91CF911F91C7
:101CC0000F9108950F931F93CF93DF938C01EB0136
:101CD00088E2FB0111928A95E9F74BE050E06FE54D
:101CE00071E0CE010E9410211B8681E090E0A0E00F
:101CF000B0E08C879D87AE87BF87F8018381948190
:101D0000A581B681888B998BAA8BBB8B86E090E0EE
:101D1000A0E0B0E08C8B9D8BAE8BBF8B1CA21DA274
:101D20001EA21FA280E090E8A9E8B4E4888F998FF2
:101D3000AA8FBB8F80E090E0A6E9B3E48C8F9D8FE3
:101D4000AE8FBF8F8AE097EDA3E2BCE388A399A38F
:101D5000AAA3BBA3DF91CF911F910F9108951F926A
:101D60000F920FB60F9211242F933F934F935F93CF
:101D70006F937F938F939F93AF93BF93EF93FF9353
:101D80008CE592E00E949103FF91EF91BF91AF919A
:101D90009F918F917F916F915F914F913F912F9183
:101DA0000F900FBE0F901F9018951F920F920FB6B5
:101DB0000F9211242F938F939F93EF93FF93E091B2
:101DC0006C02F0916D028081E0917202F0917302D9
:101DD00082FD1BC09081809175028F5F8F7320916F
:101DE0007602821741F0E0917502F0E0E45AFD4F6F
:101DF000958F80937502FF91EF919F918F912F9115
:101E00000F900FBE0F901F9018958081F4CF1F92F6
:101E10000F920FB60F9211242F933F938F939F939E
:101E2000AF93BF938091AA019091AB01A091AC01B7
:101E3000B091AD013091A90126E0230F2D3758F55F
:101E40000296A11DB11D2093A9018093AA01909330
:101E5000AB01A093AC01B093AD018091AE01909124
:101E6000AF01A091B001B091B1010196A11DB11DCA
:101E70008093AE019093AF01A093B001B093B101F4
:101E8000BF91AF919F918F913F912F910F900FBE76
:101E90000F901F90189529E8230F0396A11DB11DDF
:101EA000D2CF1F920F920FB60F9211242F933F9310
:101EB0004F935F936F937F938F939F93AF93BF9352
:101EC000EF93FF93E0910201F09103010995FF91D7
:101ED000EF91BF91AF919F918F917F916F915F91A2
:101EE0004F913F912F910F900FBE0F901F9018951B
:101EF0001F920F920FB60F9211242F933F934F937F
:101F00005F936F937F938F939F93AF93BF93EF9361
:101F1000FF93E0910001F09101010995FF91EF918C
:101F2000BF91AF919F918F917F916F915F914F91F1
:101F30003F912F910F900FBE0F901F9018951F92F9
:101F40000F920FB60F9211242F933F934F935F93ED
:101F50006F937F938F939F93AF93BF93EF93FF9371
:101F60008091B900887F803609F44AC0F0F5883244
:101F700009F4A7C018F5803109F49BC0B8F4882390
:101F800009F4F9C0883009F494C0FF91EF91BF9132
:101F9000AF919F918F917F916F915F914F913F9101
:101FA0002F910F900FBE0F901F901895883109F454
:101FB00088C0803251F78093350214C0803409F410
:101FC0009DC040F48033B9F38833F9F6809335022D
:101FD00085ECB0C0803509F485C0883509F496C019
:101FE000883499F60E94B905D0CF883909F48CC09D
:101FF00038F5883729F050F4883611F0803729F603
:1020000083E0809337021092A80157C0883809F402
:102010007BC0803919F0803809F0B7CF8091A801D2
:10202000803208F071C0E091A80181E08E0F8093AA
:10203000A8018091BB00F0E0E857FE4F80833DC0CF
:10204000803B39F0E0F4803A09F479C0883A09F02D
:102050009CCF84E080933702109287011092860112
:10206000E091B401F091B50109958091860181114B
:102070000FC081E0809386011092660109C0803C08
:1020800009F4A6CF883C09F4A3CF883B09F07DCFA3
:10209000E091870181E08E0F80938701F0E0EA599B
:1020A000FE4F80818093BB009091870180918601D3
:1020B00029C0809112028093BB0085EC8093BC0004
:1020C00064CF9091340280913302981758F5E091D3
:1020D000340281E08E0F80933402F0E0ED5EFD4F1C
:1020E0008081E9CFE091340281E08E0F8093340249
:1020F0008091BB00F0E0ED5EFD4F80839091340253
:10210000809133029817C8F285E8D8CFE091340265
:1021100081E08E0F809334028091BB00F0E0ED5E91
:10212000FD4F80838091360281115CCF81E08093E6
:10213000110284EA8093BC001092370226CF85EC0E
:102140008093BC00109237028091A801803230F455
:10215000E091A801F0E0E857FE4F10826091A801DD
:1021600070E0E091B201F091B30188E891E0099547
:102170001092A8010ACF1092350234CF1F920F920D
:102180000FB60F9211248F939F9380910401909129
:102190000501892B31F481E090E090930501809353
:1021A00004019F918F910F900FBE0F901F90189573
:1021B000ECE5F2E01382128288EE93E0A0E0B0E05A
:1021C00084839583A683B78322E131E03183208322
:1021D00025EC30E03587248724EC30E037872687EC
:1021E00020EC30E0318B208B21EC30E0338B228BE4
:1021F00022EC30E0358B248B26EC30E0378B268BBD
:10220000118E128E138E148EE9EFF2E01382128279
:1022100084839583A683B78384E291E0918380834E
:10222000EDE6F3E086E591E0918380838EEF9FEF0A
:10223000928B818B80E090E8948B838B84E08787FE
:1022400086E1808BEFE5F3E08EE491E0918380837B
:1022500080E491E09383828385E697E2A0E0B0E09A
:1022600085839683A783B0871186E7E4F3E087E050
:1022700090E09183808388E090E09383828316824C
:1022800080E28783108685E0868745E050E060E045
:1022900070E0448B558B668B778B1186A1E2B3E09F
:1022A00021E133E011963C932E9327E031E0139621
:1022B0003C932E9312971596FC93EE931497E5E0BA
:1022C000F3E026E331E0318320831282138284839A
:1022D0001186128613860895CF93DF93CDB7DEB7AC
:1022E000E7970FB6F894DEBF0FBECDBF789484B5E4
:1022F000826084BD84B5816084BD85B5826085BD02
:1023000085B5816085BD80916E00816080936E008F
:102310001092810080918100826080938100809181
:102320008100816080938100809180008160809332
:1023300080008091B10084608093B1008091B000F2
:1023400081608093B00080917A00846080937A00ED
:1023500080917A00826080937A0080917A008E7FEB
:1023600080937A0080917A00806880937A0010923E
:10237000C10061E086E00E94870461E086E00E947F
:102380003B04E0916C02F0916D0282E08083E09169
:102390006802F09169021082E0916A02F0916B028A
:1023A00088E0808310927402E0917002F0917102D3
:1023B00086E08083E0916E02F0916F0280818061FF
:1023C0008083E0916E02F0916F028081886080834B
:1023D000E0916E02F0916F02808180688083E091CD
:1023E0006E02F0916F0280818F7D808370E060E0EB
:1023F0008BEB98E00E94561A81E1E82E83E0F82EDC
:1024000067010FE010E0C8010E948C1ED6018D9379
:102410006D010F5F1F4F0F311105A9F78EEC90E092
:102420000E94000401E213E0F70181917F010E9404
:102430009B0B0E151F05C1F70E944C091092B701A6
:102440001092B6011092390210925B02109237027C
:1024500011E0109336021092110261E082E10E94B5
:102460003B0461E083E10E943B048091B9008E7FD0
:102470008093B9008091B9008D7F8093B90080E28C
:102480008093B80085E48093BC0081E193E0909351
:10249000B5018093B40182E193E09093B3018093FE
:1024A000B201BE016F5F7F4F80ED0E941A0C8981DF
:1024B000853509F469C2109268038CED90E00E94A2
:1024C000500980910701823070F481E08093070108
:1024D00080E0E1E1F3E0803131F09191992309F45A
:1024E00090C29093070189E491E00E945009809185
:1024F0004703909148032091490330914A03821782
:10250000930719F061E00E9487048091490390913C
:102510004A0320914703309148032817390719F0DF
:1025200061E00E9487041FB7F8948091B90181117E
:1025300027C0E3E3F4E08491E7E4F4E09491E82F2A
:10254000F0E0EE0FFF1FEC50FF4FA591B491EC911E
:10255000E92321F461E08AE00E943B0461E08AE023
:102560000E9487048CB580618CBD8CB580648CBD65
:1025700061E08DE00E94870461E08BE00E948704A7
:102580008091B9018F5F8093B9011FBF60E087E43C
:1025900093E00E948E0661E087E493E00E949A0631
:1025A00065E070E080E090E00E94DD044CE060E0D7
:1025B00087E493E00E94D5064FE564E087E493E06A
:1025C0000E94D50682E090E00E949D07882319F0C2
:1025D00081E080934D0366E087E493E00E947907F1
:1025E00090E080E00E949D0787E493E00E94B5069A
:1025F00080E50E94B80683E70E94B80687E493E06E
:102600000E94B20640E06DE187E493E00E94D506A7
:1026100040E06CE187E493E00E94D50610924F03FE
:1026200040E767E087E493E00E94D5064CE465E06C
:1026300087E493E00E94D50662EE87E493E00E946F
:10264000BF0687E493E00E94D20687E493E00E94ED
:10265000050860E087E493E00E947907482F4E7FE9
:1026600060E087E493E00E94D5064EE565E087E4EC
:1026700093E00E94D5064FE361E087E493E00E9477
:10268000D50641EF64E087E493E00E94D50682E03E
:1026900090E00E949D0760E087E493E00E94790744
:1026A000482F4C6060E087E493E00E94D5060E94CA
:1026B00090078BE88DA384E58EA382E98FA38EE03B
:1026C00088A789E289A71AA61BA61CA6EFEEF2E04E
:1026D000649120915503AE014B5D5F4F87E493E019
:1026E0000E945107E9EEF2E0649140914E0387E4C5
:1026F00093E00E94D50662E087E493E00E947907A8
:10270000E3EEF2E0E49141E050E001C0440FEA95CD
:10271000EAF7482B62E087E493E00E94D50689E35C
:1027200091E00E9400040E949B0A87E493E00E94CB
:10273000530860E087E493E00E9479078F78482F80
:10274000406360E087E493E00E94D5068DE093E06B
:10275000909303018093020180916900837F8860D8
:1027600080936900E99A83E191E00E94500984B75F
:10277000877F84BF8091600088618093600081E2E0
:10278000809360008091600080648093600060E0CE
:1027900086E00E943B0468EC70E080E090E00E94DC
:1027A000DD0461E086E00E943B048EEF90E00E9431
:1027B00000040E94AC054AE00E945C090E944C099A
:1027C0009E012A5F3F4F3AAB29AB412CB0EC5B2E08
:1027D000B9E76B2EB4EC7B2E8EE480937C0062E034
:1027E00070E080E090E00E94DD0480917A008064D7
:1027F00080937A0080917A0086FDFCCF80917800EA
:1028000020917900322F282F032E000C440B550BFA
:1028100064EB7BE281E190E00E94941EE22F732F33
:10282000642F952F80910703882311F18E3008F0D3
:102830008E508770806480937C0080917A008064E1
:1028400080937A0080917A0086FDFCCF8091780099
:10285000A0917900BA2FA82F2E2F372F462F592F4E
:102860000E94BE1E2FEF33E040E050E00E94941E15
:1028700020930A0330930B0340930C0350930D03F2
:1028800080910E03853038F5DA01C9018E549C40E1
:10289000A109B10984319140A105B10508F0B3C087
:1028A00083EA91E00E94000411E060910A037091B4
:1028B0000B0380910C0390910D034AE00E945C0988
:1028C0000E944C0980910F038111AEC010930F0339
:1028D00081E080930E0380910F03813009F412C1CF
:1028E000833009F0F8C080910A0390910B03A09106
:1028F0000C03B0910D038936E0E19E07A105B105F7
:1029000008F000C18F36FFE09F07A105B10508F46C
:10291000B0C09C01AD012E563F4041095109A4E1D0
:10292000B0E00E94B31E2AEF30E040E050E00E9489
:10293000941E205B3F4F4F4F5F4F253631054105B9
:10294000510508F0E8C02093100380910601811121
:1029500097C2F090F001F11093C2A5E0DA2E04E0E6
:1029600010E065E070E080E090E00E94DD0480917E
:102970007D038B3009F4D3C0863109F41CC3109257
:102980007F0310927E03E7C083E08093B8016AEB77
:1029900071E08AEA0E94010C6CEB71E08CEA0E9403
:1029A000010C6EEB71E08EEA0E94010C60EC71E0AC
:1029B00080EB0E94AB0B62EC71E082EB0E94AB0BF0
:1029C00064EC71E084EB0E94AB0B66EC71E086EB8B
:1029D0000E94010C68EC71E088EB0E94010C6AEC2B
:1029E00071E08AEB0E94010C6CEC71E08CEB0E94B0
:1029F000010C6EEC71E08EEB0E94010C10936803E9
:102A000060CD8F5F68CD22363D404105510530F0E5
:102A10008DE891E00E94000413E047CF8CE791E03D
:102A20000E94000412E041CF811320C080910E0368
:102A30008F5F80930E0389E691E00E94000460910D
:102A40000F0370E090E080E04AE00E945C0985E5B9
:102A500091E00E94000460910E0370E090E080E03D
:102A60004AE00E945C090E944C0935CF10920F0386
:102A700032CF81312EE09207A105B105A8F09C016B
:102A8000AD0120513E4041095109ACE3B0E00E9444
:102A9000B31E2EE531E040E050E00E94941E2C5E13
:102AA0003F4F4F4F5F4F49CF8D383AE09307A10515
:102AB000B10568F19C01AD012C583A40410951091A
:102AC000A4E1B0E00E94B31E24E833E040E050E00F
:102AD0000E94941E32CF8230D1F420910A033091AB
:102AE0000B0340910C0350910D032C583A404109BF
:102AF0005109A4E6B0E00E94B31E22EC31E040E0B0
:102B000050E0E6CF24E630E040E050E016CF20E091
:102B100030E0A90112CF85E68093100316CF62E161
:102B200080917C030E941005009709F41AC240921C
:102B30006F0350927003609271037092720340921F
:102B400073035092740360927503709276039093AE
:102B50007F0380937E0380917E0390917F03892B76
:102B6000C9F0DA9489EB91E00E940004B8016D1974
:102B70007109072E000C880B990B4AE00E945C0932
:102B80000E944C0968EE73E080E090E00E94DD0452
:102B9000D110E7CE80916803882309F46BC2BE018F
:102BA0006F5F7F4F81E693E00E94120E20E030E0DD
:102BB000A9016D897E898F89988D0E942E1F882397
:102BC00009F451C2CE018D960E94DA0B8091C401A6
:102BD0009091C5012DA53EA54FA558A9281B390BDD
:102BE00041095109A091C201B091C3010E94B31ED5
:102BF0004B015C016FE0B594A794979487946A9514
:102C0000D1F76091CC017091CD01072E000C880B9B
:102C1000990BEBE0660F771F881F991FEA95D1F794
:102C20002091CE013091CF01032E000C440B550BA7
:102C3000280D391D4A1D5B1D0E94941ECA01B90151
:102C4000680D791D8A1D9B1D685F7F4F8F4F9F4FB9
:102C5000F4E09595879577956795FA95D1F70E9459
:102C6000DD1F20E030E040E251E40E94331F20E00D
:102C700030E040E251E40E948D200E94A51F709335
:102C80006A036093690320E030E0A9016D897E89C1
:102C90008F89988D0E942E1F882309F4F1C1BE01EF
:102CA000635D7F4F81E693E00E943E0C20E030E0C0
:102CB00040E251E46DA57EA58FA598A90E94331F1F
:102CC0000E94A51F70936C0360936B0388E0809350
:102CD0002703E0912303F09124038081809328034C
:102CE00010922A031092290381E091E090932C0323
:102CF00080932B0384E090E090932E0380932D0328
:102D0000E0912103F091220380E1AFE2B3E0019072
:102D10000D928A95E1F780912503909126030E94F8
:102D20001E0809EC8091250390912603015009F4B7
:102D3000AEC167E273E00E94F006182F882391F37A
:102D400080912503909126030E945308112309F4D2
:102D500088C08DE693E00E94DF088C018DE693E049
:102D60000E94C70858E0E52EE0922703E091230374
:102D7000F091240320812093280322E031E0309356
:102D80002A032093290341E050E050932C03409301
:102D90002B0310932E0300932D0390933003809305
:102DA0002F030E949908882309F45BC020916903CE
:102DB00030916A0380916B0390916C03E09227033A
:102DC000E0912303F091240340814093280343E0E2
:102DD00051E050932A034093290342E050E050937E
:102DE0002C0340932B0330932E0320932D039093B9
:102DF000300380932F030E949908882391F18090DB
:102E00000A0390900B03A0900C03B0900D03109157
:102E1000100385E093E00E941409E0922703E091FB
:102E20002303F091240390819093280324E031E060
:102E300030932A032093290323E030E030932C03BE
:102E400020932B0380922D0390922E03A0922F03A8
:102E5000B092300310933103809332030E9499089B
:102E6000F82E82EC92E00E94000461E0F6266F2DBD
:102E700070E090E080E04AE00E945C090E944C090A
:102E80000E94AC054B015C0180910F0345E0E42EEC
:102E9000F12C813021F430E4E32E3CE9F32E8DEA6D
:102EA00092E00E9450091BAA00E018ECC701B0E0B4
:102EB000A0E08CAB9DABAEABBFAB0E94AC0568197C
:102EC00079098A099B092CA93DA94EA95FA9621716
:102ED00073078407950708F05CC280910601811191
:102EE000E4C0043009F4D5C00F5FE12EF12C61E09D
:102EF00086E00E948704E114F10409F0DDC060E07F
:102F000086E00E943B0467E187E493E00E94790732
:102F10001092F00180FDD1CF80914E0320E2222E4D
:102F2000803208F4282E90914F03382E32189111D8
:102F3000312C87E493E00E94B50681E60E94B80632
:102F400090EDE92E91E0F92E67012A942FEF2216D9
:102F500009F4FBC08FEF0E94B806D6018D936D0176
:102F6000F4CFE09077036E2D70E090E080E00E9457
:102F7000DB1F60936F0370937003809371039093D2
:102F80007203C09079036C2D70E090E080E00E94A5
:102F9000DB1F6093730370937403809375039093A6
:102FA0007603EC0C81E090E020917B03E21257C0A5
:102FB00090E080E054C061E080917C030E941005A5
:102FC000009709F0B4CDE0907803A090770360916A
:102FD00077037091780376276727762790E080E063
:102FE0000E94DB1F2DEC3CEC4CEC5DE30E948D203D
:102FF00060936F03709370038093710390937203D7
:10300000B0907A03C09079036C2D6F77762F6B2D7B
:1030100090E080E00E94DB1F2DEC3CEC4CEC5DE38B
:103020000E948D20609373037093740380937503E3
:1030300090937603C7FE09C0905860937303709312
:1030400074038093750390937603EA0CBE0CCB0C4B
:1030500081E090E020917B03C21609F4A9CF9195FD
:103060008195910974CD80E090E890936A038093F4
:10307000690309CE80E090E890936A038093690326
:103080008FEF90E090936C0380936B031FCE10E062
:1030900057CE3BA9332339F01F5F143141F0143B65
:1030A00049F005E022CF1150F8CF1FEF1ECF41E0CD
:1030B0004BABF7CF1BAAF5CF5FEFE516F10411F488
:1030C00061E01ECFEAECF1E08491833021F148F415
:1030D0008130B9F08230D1F0F0E8EF16F10484F7D6
:1030E0000ECF873011F1883041F18430A9F78091FB
:1030F0008000806280938000F0928B00E0928A00D2
:1031000002CF84B5806884BD17BDFDCE84B58062D2
:1031100084BD18BDF8CE80918000806880938000C7
:10312000F0928900E0928800EECE8091B000806835
:103130008093B0001093B300E6CE8091B00080621F
:103140008093B0001093B400DECE3A94BFEF3B16EC
:1031500021F08FEF0E94B806F8CF87E493E00E9439
:10316000B20640E767E087E493E00E94D5068CE86A
:1031700092E00E940004F70181917F010E949B0B65
:1031800020EF31E02E153F05B1F78CE591E00E946C
:103190003F090E944C098091D001883009F0B3CEDC
:1031A000E090D101F12C80910601882309F4E9C057
:1031B00087E692E00E940004C7010E948B0B33E077
:1031C000E316F10409F082C019821A828091D301BA
:1031D0008B838091D4018C838091D5018D8386E58A
:1031E00092E00E940004AE014F5F5F4F7A016A01D6
:1031F000D7018D917D010E949B0BE9A9FAA9EE15DB
:10320000FF05B1F78CE591E00E943F090E944C094F
:1032100020915503A6016AE087E493E00E945107DC
:1032200020915503A60160E187E493E00E945107D5
:1032300040914E0361E187E493E00E94D5060E942D
:103240009B0A87E493E00E941E08F8E0F0932703AE
:103250001092280321E030E030932A0320932903C1
:10326000E0912103F091220380E1ABE2B3E0019011
:103270000D928A95E1F780912503909126030E9493
:103280001E0889ECE82E8091250390912603EA948C
:10329000EE20D1F067E273E00E94F006F82E88235A
:1032A00091F380912503909126030E94530887E4AF
:1032B00093E00E9453088FE392E0F11002C08CE289
:1032C00092E00E9450091FCEF12CEBCF88ED91E0E7
:1032D00032E0E316F10409F056C08AE192E00E9460
:1032E000000485E0E3EDF1E0DE01119601900D921E
:1032F0008A95E1F7F9806F2D70E090E080E04AE078
:103300000E945C090E944C09FF2009F4FCCDF09258
:103310000701109206018AE092E00E9400048E01EB
:103320000F5F1F4FD8018D918D010E949B0BE9A962
:10333000FAA90E171F07B1F70E944C090E944C0909
:10334000BE016F5F7F4F81E00E94CF078FEF8983BF
:10335000BE016F5F7F4F82E00E94CF070E949B0AF1
:103360008FEE91E00E94500980E090E0892B09F4F3
:1033700033CA0E947D03882309F42ECA0E940000EC
:103380002BCA85E792E00E940004C7010E948B0BC4
:10339000BACD8AE992E00E94500961E086E00E947D
:1033A0003B0480910F038130F9F28091F00181118B
:1033B0005FC08CEB92E00E9450096AE070E080E010
:1033C00090E00E94DD0480910601811131C060E02F
:1033D00087E493E00E948E0660E087E493E00E9419
:1033E0007907482F4D7F60E087E493E00E94D5067F
:1033F00060E086E00E943B0483B7817F846083BFE6
:103400008091080391E0980F90930803909109032D
:10341000891798F58091F00181112FC083B78160E1
:1034200083BF83B7816083BF889583B78E7FE7CFE3
:10343000809108038F5F8093080383B7817F846046
:1034400083BF83B7816083BF83B7816083BF889563
:1034500083B78E7F83BF83B78E7F83BF80916400E5
:103460008071809364008091F001882309F4AFCFCC
:10347000109205011092040177CF83B78E7F83BF2E
:10348000809164008071809364001092080361E071
:1034900086E00E943B040E94900787E493E00E942C
:1034A000050887E493E00E945308E2CF0F931F932F
:1034B000CF93DF93009759F46115710541F4F0E063
:1034C000E0E0CF01DF91CF911F910F9108958B0123
:1034D000EC016EE070E081E090E00E94A01CFC0135
:1034E000892B69F380E883830115110571F0138737
:1034F000028781E883838091820390918303892BE3
:1035000021F4F0938303E09382032097D1F2D187D3
:10351000C087838182608383809184039091850337
:10352000892B79F6F0938503E093840380918603D9
:1035300090918703892B29F6F0938703E093860304
:10354000C0CFB0E0A0E0E7EAFAE10C94D41EAE01EF
:10355000495F5F4FDA016D917D91AD0102E813E0A3
:10356000F80182819381DC0113962C9113972860D6
:1035700013962C930E94C61AD8011296ED91FC91D5
:103580002381277F2383E4E00C94F01EABE0B0E0BE
:10359000ECECFAE10C94C61E7C013B018A01FC01B3
:1035A00017821682838181FFC8C1CE0101965C011A
:1035B000F7019381F30193FD859193FF81913F0181
:1035C000882309F453C1853239F493FD859193FF23
:1035D00081913F01853229F4B70190E00E94FE1DE0
:1035E000E7CF912C212C312CFFE1F31538F08B32F1
:1035F00011F190F4803209F1833229F137FC3CC09B
:1036000020ED280F2A3050F536FE20C08AE0989E23
:10361000200D1124922E06C08D3291F0803371F767
:10362000689430F8F30193FD859193FF81913F01F8
:103630008111DACF21C0689431F8689432F8F2CF62
:10364000689433F8EFCF689434F8ECCFEAE02E9E1C
:10365000200D1124222E689435F8E4CF8E3229F4FF
:1036600036FC04C1689436F8DDCF8C3619F46894C2
:1036700037F8D8CF8836B1F2982F9F7D9554933084
:10368000E0F08336A1F18337C1F1833509F063C0DF
:103690002801F2E04F0E511CF801C080D180692D45
:1036A00070E036FC02C06FEF7FEFC6010E94E11DA3
:1036B0004C01689437F882010AC00C5F1F4FFFE38A
:1036C000F98388248394912C6501E89437F833FEBC
:1036D0002DC0522C8114910471F5552009F468CF46
:1036E000B70180E290E00E94FE1D5A94F6CFF801E7
:1036F000808189830E5F1F4FE4CF2801F2E04F0ED7
:10370000511CF801C080D180692D70E036FC02C0E8
:103710006FEF7FEFC6010E94F31D4C018201D5CFF0
:10372000B70180E290E00E94FE1D2A94281419043B
:1037300009F0B0F7CECFF60137FC859137FE8191C5
:103740006F01B70190E00E94FE1D51105A94F1E004
:103750008F1A9108BFCF843619F0893609F077C0E7
:10376000F80137FE6BC060817181828193810C5FAB
:103770001F4FF32DFF763F2E97FF09C09095809540
:10378000709561957F4F8F4F9F4F689437F82AE06F
:1037900030E0A5010E942E1EC82ECA188C2C432C86
:1037A00036FE0CC0E89440F8C91440F434FE05C05D
:1037B00032FC03C0F32DFE7E4F2E892C44FE95C0B3
:1037C000FE01EC0DF11D8081803309F087C0242DAE
:1037D000297E422E842D8870582E43FC95C040FED1
:1037E0008FC09C2C821418F42C0C922C981844FE38
:1037F00091C0B70180E390E00E94FE1D42FE09C027
:1038000088E790E041FE02C088E590E0B7010E94A1
:10381000FE1DC91408F48AC0CA94D12C9FEFC91A9E
:10382000D90ACA0CDB1CF60182916F01B70190E046
:103830000E94FE1DAC14BD04B1F74FCF60817181B1
:10384000072E000C880B990B0E5F1F4F92CFD32CC5
:10385000E894D4F82AE030E0853739F1232D297F28
:10386000D22E8F3601F148F48835A9F0F701868110
:1038700097812B96E2E10C94E21E803749F088375D
:10388000A9F7D4FE02C06894D2F820E130E00DC060
:103890006894D4F8F6CF34FE03C0822F8660D82E09
:1038A00020E132E002C028E030E0F801D7FE0FC08E
:1038B00060817181828193810C5F1F4FA5010E94FD
:1038C0002E1EC82ECA183D2CE89437F867CF6081A9
:1038D000718190E080E00E5F1F4FF0CF42FC02C08C
:1038E000839478CF8394839475CF842D867809F45C
:1038F00071CFF6CFB70180E290E00E94FE1D839465
:103900008214C0F3512C73CF522C5818821408F42F
:103910006ECFF8CF842D867809F47BCF8BE241FE01
:1039200080E247FC8DE2B70190E071CFB70180E300
:1039300090E00E94FE1D9A946CCF8FEF9FEF99CF7D
:103940000F931F93CF93DF93869F8001879F100D66
:10395000969F100D1124C8010E94BC1CEC01009719
:1039600029F0A80170E060E00E94EC1DCE01DF911B
:10397000CF911F910F9108950F931F93CF93DF93D2
:103980008230910510F482E090E0E0918A03F0919A
:103990008B0330E020E0B0E0A0E0309799F42115EF
:1039A000310509F44AC0281B390B24303105D8F5FC
:1039B0008A819B816115710589F1FB019383828363
:1039C000FE0111C0408151810281138148175907BE
:1039D000E0F04817590799F4109761F012960C938C
:1039E000129713961C933296CF01DF91CF911F91BE
:1039F0000F91089500938A0310938B03F4CF211540
:103A0000310551F04217530738F0A901DB019A0143
:103A1000BD01DF01F801C1CFEF01F9CF90938B0316
:103A200080938A03CDCFFE01E20FF31F8193919320
:103A30002250310939832883D7CF209188033091D0
:103A40008903232B41F420910A0130910B0130931B
:103A500089032093880320910801309109012115E1
:103A6000310541F42DB73EB740910C0150910D0145
:103A7000241B350BE0918803F0918903E217F307CB
:103A8000A0F42E1B3F0B2817390778F0AC014E5FCE
:103A90005F4F2417350748F04E0F5F1F509389037F
:103AA00040938803819391939FCFF0E0E0E09CCF17
:103AB000CF93DF930097E9F0FC01329713821282D3
:103AC000A0918A03B0918B03ED0130E020E01097C4
:103AD000A1F420813181820F931F209188033091BE
:103AE00089032817390709F061C0F0938903E0932F
:103AF0008803DF91CF910895EA01CE17DF07E8F53B
:103B00004A815B819E0141155105B1F7E901FB83B3
:103B1000EA8349915991C40FD51FEC17FD0761F451
:103B2000808191810296840F951FE9019983888392
:103B3000828193819B838A83F0E0E0E012968D91ED
:103B40009C9113970097B9F52D913C911197CD0158
:103B50000296820F931F20918803309189032817C2
:103B6000390739F6309751F510928B0310928A037A
:103B7000B0938903A0938803BCCFD383C2834081D1
:103B80005181840F951FC817D90761F44E5F5F4FAD
:103B900088819981480F591F518340838A819B8175
:103BA000938382832115310509F0B0CFF0938B0305
:103BB000E0938A039ECFFD01DC01C0CF1382128205
:103BC000D7CFFC010590615070400110D8F7809567
:103BD00090958E0F9F1F0895DC0101C06D93415099
:103BE0005040E0F70895FC016150704001900110D1
:103BF000D8F7809590958E0F9F1F08950F931F9370
:103C0000CF93DF93182F092FEB018B8181FD09C022
:103C10001FEF0FEF812F902FDF91CF911F910F9109
:103C2000089582FF14C02E813F818C819D812817C9
:103C300039073CF4E881F981CF01019699838883A3
:103C400010838E819F8101969F838E83E3CFE885C9
:103C5000F985812F0995892BA1F3DACFFA01AA27DB
:103C6000283051F1203181F1E8946F936E7F6E5FBF
:103C70007F4F8F4F9F4FAF4FB1E03ED0B4E03CD06D
:103C8000670F781F891F9A1FA11D680F791F8A1F50
:103C9000911DA11D6A0F711D811D911DA11D20D0B7
:103CA00009F468943F912AE0269F11243019305D71
:103CB0003193DEF6CF010895462F4770405D419362
:103CC000B3E00FD0C9F7F6CF462F4F70405D4A33AF
:103CD00018F0495D31FD4052419302D0A9F7EACF77
:103CE000B4E0A6959795879577956795BA95C9F7A6
:103CF00000976105710508959B01AC010A2E069499
:103D00005795479537952795BA95C9F7620F731F51
:103D1000841F951FA01D0895F999FECF92BD81BD06
:103D2000F89A992780B50895052E97FB1EF4009404
:103D30000E94AB1E57FD07D00E94FD1E07FC03D05A
:103D40004EF40C94AB1E50954095309521953F4F05
:103D50004F4F5F4F089590958095709561957F4F77
:103D60008F4F9F4F08950E941F1FA59F900DB49FD6
:103D7000900DA49F800D911D11240895B7FF0C9400
:103D8000B31E0E94B31E821B930B08952F923F9285
:103D90004F925F926F927F928F929F92AF92BF925B
:103DA000CF92DF92EF92FF920F931F93CF93DF9307
:103DB000CDB7DEB7CA1BDB0B0FB6F894DEBF0FBE64
:103DC000CDBF09942A88398848885F846E847D84B1
:103DD0008C849B84AA84B984C884DF80EE80FD80B3
:103DE0000C811B81AA81B981CE0FD11D0FB6F89429
:103DF000DEBF0FBECDBFED010895A1E21A2EAA1BB2
:103E0000BB1BFD010DC0AA1FBB1FEE1FFF1FA2178A
:103E1000B307E407F50720F0A21BB30BE40BF50B87
:103E2000661F771F881F991F1A9469F76095709510
:103E3000809590959B01AC01BD01CF010895A29F93
:103E4000B001B39FC001A39F700D811D1124911D6E
:103E5000B29F700D811D1124911D08950E9418209C
:103E600008F481E008950E94471F0C9453200E949B
:103E70004C2058F00E94452040F029F45F3F29F083
:103E80000C943C2051110C9487200C9442200E94E9
:103E9000642068F39923B1F3552391F3951B550BD7
:103EA000BB27AA2762177307840738F09F5F5F4F0D
:103EB000220F331F441FAA1FA9F335D00E2E3AF04C
:103EC000E0E832D091505040E695001CCAF72BD064
:103ED000FE2F29D0660F771F881FBB1F26173707B5
:103EE0004807AB07B0E809F0BB0B802DBF01FF27E7
:103EF00093585F4F3AF09E3F510578F00C943C2068
:103F00000C9487205F3FE4F3983ED4F38695779531
:103F10006795B795F7959F5FC9F7880F911D96959F
:103F2000879597F90895E1E0660F771F881FBB1FFB
:103F3000621773078407BA0720F0621B730B840BA8
:103F4000BA0BEE1F88F7E09508950E94AC1F6894A5
:103F5000B1110C94872008950E946C2088F09F571F
:103F600098F0B92F9927B751B0F0E1F0660F771F9D
:103F7000881F991F1AF0BA95C9F714C0B13091F093
:103F80000E948620B1E008950C948620672F782F38
:103F90008827B85F39F0B93FCCF386957795679558
:103FA000B395D9F73EF490958095709561957F4FC4
:103FB0008F4F9F4F0895E89409C097FB3EF490956A
:103FC0008095709561957F4F8F4F9F4F9923A9F0F2
:103FD000F92F96E9BB279395F69587957795679581
:103FE000B795F111F8CFFAF4BB0F11F460FF1BC0C5
:103FF0006F5F7F4F8F4F9F4F16C0882311F096E958
:1040000011C0772321F09EE8872F762F05C0662305
:1040100071F096E8862F70E060E02AF09A95660FBE
:10402000771F881FDAF7880F9695879597F9089577
:10403000990F0008550FAA0BE0E8FEEF16161706B9
:10404000E807F907C0F012161306E407F50798F021
:10405000621B730B840B950B39F40A2661F0232B3A
:10406000242B252B21F408950A2609F4A140A695B6
:104070008FEF811D811D089597F99F6780E870E09B
:1040800060E008959FEF80EC089500240A941616CE
:10409000170618060906089500240A941216130636
:1040A000140605060895092E0394000C11F48823C4
:1040B00052F0BB0F40F4BF2B11F460FF04C06F5FE0
:1040C0007F4F8F4F9F4F089557FD9058440F551FB6
:1040D00059F05F3F71F04795880F97FB991F61F08A
:1040E0009F3F79F087950895121613061406551F01
:1040F000F2CF4695F1DF08C0161617061806991F6D
:10410000F1CF86957105610508940895E894BB2761
:1041100066277727CB0197F908950E94A0200C9479
:1041200053200E94452038F00E944C2020F0952317
:1041300011F00C943C200C94422011240C94872004
:104140000E94642070F3959FC1F3950F50E0551FB6
:10415000629FF001729FBB27F00DB11D639FAA27DC
:10416000F00DB11DAA1F649F6627B00DA11D661F2B
:10417000829F2227B00DA11D621F739FB00DA11D4C
:10418000621F839FA00D611D221F749F3327A00D06
:10419000611D231F849F600D211D822F762F6A2FA2
:1041A00011249F5750409AF0F1F088234AF0EE0F07
:1041B000FF1FBB1F661F771F881F91505040A9F734
:1041C0009E3F510580F00C943C200C9487205F3F6B
:1041D000E4F3983ED4F3869577956795B795F79570
:1041E000E7959F5FC1F7FE2B880F911D96958795E8
:1041F00097F90895DB018F939F930E94B31EBF919F
:10420000AF91A29F800D911DA39F900DB29F900D25
:1042100011240895EE0FFF1F0590F491E02D0994ED
:10422000FB01DC014150504048F001900D9200200C
:10423000C9F701C01D9241505040E0F70895F8942D
:02424000FFCFAE
:10424200B805B8050100010100008C0380000000E0
:104252000000B303130340031B0471034F03630302
:1042620000000000410614068906EA050D06FA055B
:10427200EB0500000000FF02FC0214090000000030
:104282008C06100E8D06120E620E0000000009034D
:10429200050300000000DF08C7080D0A00300042D5
:0642A2004D5030383500DC
:00000001FF
